:020000040000FA
:0600000011EF00F01200F8
:0600080004EF08F01200F5
:080018000CEF08F060EF00F0AE
:020020001200CC
:0E002200400EC26E0E0EC16E060EC06E92989B
:10003000929A969092908998898A8D9089901DD8ED
:100040001CD81BD884A202D003D002D060EF00F0ED
:10005000060EF66E100EF76E0900F5CF00F00800E0
:10006000F5CF01F00D0E001802E1600E011802E15B
:0C00700000EF08F060EF00F0120012003A
:1000C000F26A13EE00F023EE00F0F86AFC6A6DA607
:1000D00002D082EC02F011D80400D3EC06F0E7EC79
:1000E00006F018D8060E0301B45D05E16D50020B51
:1000F00002E195EC00F0F0D71200140E6F6E0301D0
:10010000B46B0301B56B0301B66B8CEC00F08C9003
:1001100095901200120000000001E56BE969EA69A0
:10012000EB69E86B010EEC6F12000001E5511EE176
:10013000040108BF94D10001400EFE6F0001A10E22
:10014000FC6F000EFD6FA2EC06F00001010EE56FE2
:10015000ED6B400EED5D01E382D1ED51EA6A600F77
:10016000E96E000EEA22EF6AED2BF3D70001A151F0
:10017000080A01E171D1040A01E132D1050A01E165
:100180002DD10E0A01E1F6D0010A01E1EDD0030AFA
:1001900001E195D0010A4DE0070A41E0010A01E0C2
:1001A0005CD10001020E606F3A0E616F010E626F4A
:1001B000636F646B100E656F666B676BC00E686F64
:1001C0006D0E696F6A6B6B6B030E6C6F6D6B6E6B94
:1001D000300E6F6F706B0E0E716F726B736B746B92
:1001E000040E756F766B776B200E786F796B080E47
:1001F0007A6F7B6B7C6B7D6B020E7E6F7F6B806B8F
:10020000F00E816F826B836B010E846F856B866B42
:100210008769A50E996F04010CBF21D1DCD00001C4
:10022000010EEC6F0001A25101E013D10001EC6B53
:1002300010D1400E0001E66FE76B000EE65D020E86
:10024000E7591FE22FDAE6C000F0E7C001F0026ACA
:10025000060E1F0BE6C0F6FFE7C0F7FF02C0F8FF6F
:1002600006E0D890F636F736F836E806FAE1940E4E
:10027000A66E24DAE7EC06F00001E62B000EE72379
:10028000DCD7ED6BEDC0A9FFA868040EA66EE7EC05
:1002900006F014DA0001ED51ED2B006E016A026ADE
:1002A000FF0E005C000E0158000E0258EBE3F66AE8
:1002B000F76A200EF86E940EA66E00DACAD0300EE1
:1002C000A45D06E10001EC5101E0C3D092D9C1D098
:1002D000F00EA45D02E1B3D9BCD0E8680001E919D1
:1002E0000CE1E868EA1909E1E868EB1906E1A2C047
:1002F000E9F0A3C0EAF0A4C0EBF0E90EE96E000E4D
:10030000EA6EEE500001A21901E0A3D0EE50A3194D
:1003100001E09FD0EE50A41901E09BD001E099D0FC
:100320000001ED6B0001A6510001ED5D01E391D0EC
:10033000BDD9A70FE96E000EEA22EF50E66EE85134
:10034000EA6A600FE96E030EEA22E552E750EF6EAB
:10035000E82BE92B000EEA23EB23200EE85D01E1F8
:10036000E4D80001ED2BDED7E0D80001E969EA69A5
:10037000EB6970D00001070E606FA2C061F0A3C0EE
:1003800062F0A4C063F0A5C064F0A6C065F0A2C08E
:10039000F6FFA3C0F7FFA4C0F8FF0001ED6B00015A
:1003A000A6510001ED5D14E2F00E0001A45D0AE12A
:1003B000A2510001ED25A96EA66AA68084D9A8CF16
:1003C000EFFF04D071D97FD9F5CFEFFFED2BE7D741
:1003D00004010CBF44D00001400E33D041D839D0C5
:1003E00000010C0E606F010E616F626F160EF66EEB
:1003F000100EF76E0900F5CF63F00A00F5CF64F038
:10040000060E656F100E666F676B686B0D0E696F79
:10041000600E6A6F400E6B6F6C6B6D6B6E6B6F690D
:10042000706971697269736B74697569766B7769E4
:10043000786979697A697B697C6904010CBF0FD09E
:100440000001FA6F0001600EF86F000EF96F7CEC8E
:1004500006F00001E56B120050D80001E56B1200B8
:10046000F66A100EF76EF86A0001EE6B400E00019E
:10047000EE5D0DE209000001EE51EA6A600FE96EDF
:10048000030EEA22F5CFEFFF0001EE2BEFD70301B9
:100490000D0E666F0301600E676FF66A100EF76E41
:1004A000F86A940EA66E0001B50EF46FE8D83F0E00
:1004B000F66E100EF76EF86A00013F0EEE6F000147
:1004C000EE51EA6A600FE96E030EEA22EF50F56E14
:1004D0000C000001EE511F0B07E1E4D8A40EA66E3C
:1004E0000001B50EF46FCBD80A000001EE5101E116
:1004F00003D00001EE07E3D7120004D8FF0000008C
:10050000000012000301B869B9690301B8C300F023
:10051000B9C301F0B807000EB95B0050011004E048
:100520006D926D6ABFD8F1D712000001F06BE8C080
:1005300000F0016A026A00500001E95DF66E0150A8
:100540000001EA59F76E02500001EB59F86E1F0ED8
:10055000F6140001F16FE00EF6160001EF6B200EAD
:100560000001EF5D1FE20001F15115E10001E851CA
:100570000FE00001F051EA6A600FE96E030EEA2213
:10058000EF50F56E0D000001F02B0001E80702D0DE
:10059000F5680D0004D0F5680D000001F1070001B9
:1005A000EF2BDDD70A00A40EA66E0001B50EF46F86
:1005B00066D80001EF6B0001E8510001EF5D18E221
:1005C0000001F0510001EF25EA6A600FE96E030EA9
:1005D000EA22EF50E66E0001EF51EA6A600FE96E21
:1005E000030EEA22E552E750EF6E0001EF2BE3D74E
:1005F0001200A2C0F6FFA3C0F7FFA4C0F8FF0001DD
:10060000F26B0001A6510001F25D18E23A0E000102
:10061000D880A6550001F225EA6AA70FE96E000E00
:10062000EA22EF50F56E0C00C40EA66E0001B50E66
:10063000F46F25D809000001F22BE3D71200000166
:10064000F36B0001A6510001F35D18E20001A25115
:100650000001F325A96E3A0E0001D880A6550001CD
:10066000F325EA6AA70FE96E000EEA22EF50A86EA2
:10067000040EA66E23D80001F32BE3D71200F29EDE
:10068000B50E0001F45D05E0030ED36E0300FED746
:10069000FF00550EA76EAA0EA76EA682A6B2FED7C1
:1006A000A694120004001200090012003A0E000184
:1006B000D880A6550001ED25EA6A12000001B50EAA
:1006C000F46F3FEF03F0F2DF660FE96E000EEA22EF
:1006D00012006C5033E16896040100513C0BE84273
:1006E000E8420D0829E1180E021924E1040E03194D
:1006F00021E1100E026F040E036F0301A96BA951D3
:10070000006E016A080E005C000E015813E2A95148
:10071000EA6A180FE96E040EEA22EF50E66EA9515C
:10072000EA6A100FE96E040EEA22E552E750EF6E16
:10073000A92BE5D70AD8010C3AD8010C040E6C5C41
:1007400003E168964BD8010C000C040104BF046B54
:100750000301A86BA06BA16BA66BA76BC5EC04F0A3
:100760000301AA6BAA51006E016A010E005C000E23
:1007700001581BE2A15119E1AA51F66EF76AD8900F
:10078000F636F736BE0EF6260F0EF7220900F5CF25
:1007900000F00800F5CF01F004D001C0FAFF0050CE
:1007A000F96EFBDF0301AA2BDDD76DEF04F0020E1B
:1007B0000301A05D0EE178D80401180E026F040E4B
:1007C000036F080E016F00BD02D0C80E05D0880E61
:1007D00003D0BCD8CBD88C0E006F1200040E0301DE
:1007E000B45D09E112C46EFF6E50000802E2050E0E
:1007F00001D0030EB46F0301A00510E111D8020E61
:100800000301A85D03E10401840E06D0040104BDC8
:1008100002D0C80E01D0880E046F1200A6EF04F0BB
:100820000301080EA65D000EA7590DE2A6C3ABF3A7
:10083000A7C3ACF3A85102E1010E03D0A80506E15D
:10084000020EA86F03D0080EAB6FAC6B04010493CB
:1008500004910301AC5104010413ABC305F403017B
:10086000AB51A65DA66FAC51A759A76F180EA46F28
:10087000040EA56F0301B5A30ED00301AB51AC115B
:1008800012E0A2C3F6FFA3C3F7FF0800F55063D838
:10089000AB07AC5BF2D70301AB51AC1104E06ED8EF
:1008A000AB07AC5BF8D71200030E0401001503017F
:1008B000AE6F01C4ADF3A651AD25A66FA751AE2111
:1008C000A76F180EA26F040EA36FAD51AE1104E016
:1008D00055D8AD07AE5BF9D712006D980301A15151
:1008E00005E144D8840E006F04011DD0040110AF4F
:1008F0001CD00301A6510401165D0301A751040198
:10090000175904E216C4A6F317C4A7F389DF03013D
:10091000010EA06F2BD8800E006F0401180E066F19
:10092000040E076FC80E046F12000301020EA06FC1
:100930000401056BC80E046F0401080E016F180E48
:10094000026F040E036FC80E006F12000301A06B4C
:100950000401046B1200A4C3E9FFA5C3EAFFEF6E14
:10096000A42B000EA523A22BA32312000401080E22
:10097000016F100E026F040E036F1200A2C3E9FF95
:10098000A3C3EAFFEF50ABEF04F004011051600B7A
:10099000E842E842E842E842E842000901E0120089
:1009A0001151070A40E00B0A3EE0070A33E0010A52
:1009B00023E00B0A1FE0020A1DE0030A19E0080AFF
:1009C00010E0010A0CE00F0A08E0030A01E012003F
:1009D0000DD90301040EB46F120014EF05F04BEFB4
:1009E00005F004D90301B60EA26F030EA36F0CD05D
:1009F0006AEF05F09AEF05F0FDD80301A26FA36B33
:100A0000B70EA227030EA3230301B5930301010E22
:100A1000A66F1200EFD8EA6AB70FE96E030EEA225A
:100A200012C4EFFF12001200800E0401105D32E1CB
:100A30001351030A1FE0010A0AE0030A29E1D6D88C
:100A40000301FE0EA26F0E0EA36F120E1ED0B4D8BD
:100A5000B40EF6260F0EC2D8020E0301F76AA225C5
:100A6000F66EA351F7220900F5CFA6F30A00F5CFE1
:100A7000A7F30ED0A1D8B80EF6260F0EAFD8A2C39A
:100A8000F6FFA3C3F7FF0800F5500301A66FA76B9D
:100A90000301B5831200AAD8716A726A736A746A14
:100AA000756A766A776A0301B36F0301B70EB16F97
:100AB000030EB26F73EC07F012C4B6F304011251C7
:100AC00004E10301050EB46F12000301060EB46FBA
:100AD00067EF06F00401186B196B040110511F0B2E
:100AE000020A0DE0030A09E0010A16E17FD80301BA
:100AF000B5A112D0040118830FD078D80DD050D8EA
:100B000001E0010E62D8A4C3E9FFEA6EEF50040BC6
:100B100003E00401010E186F0301A1050AE10301BE
:100B2000180EA26F040EA36F0301B5930301020E0A
:100B3000A66F1200040112050EE110511F0B0009EF
:100B40000AE154D8030E0401115D03E10301B581EC
:100B500002D00301B5910401125121E110511F0B84
:100B600002081DE114510F0B000919E019D801E02A
:100B7000010E2BD8030E0401115D02E1840E03D097
:100B800014AF07D0400EA4C3E9FFA5C3EAFFEF6E80
:100B90001200880EA4C3E9FFA5C3EAFFEF6E12009E
:100BA00029D80F0B080DF350016A000F006E040ED8
:100BB00001221451800B120019D804011251F66E53
:100BC000F76AD890F636F7361200040DF350030199
:100BD0000024A46F000E0120A56F1200F722090067
:100BE000F5CFA2F30A00F5CFA3F312000301010E23
:100BF000A16F1200FBDF0401145112000401105117
:100C00001F0B010801E01200145101E01200060E52
:100C1000115D24E11351230A1FE0010A0DE0030ACC
:100C20001BE1BDD80301B60505E10301220EA26F49
:100C30000F0EA36F090E0DD0B2D80301B60505E162
:100C40000301970EA26F0F0EA36F0301B60504E117
:100C50001D0E0301A66FA76B0301B583040110519C
:100C6000600BE842E842E842E842E842010801E05D
:100C7000120011510B0A25E0080A17E0090A11E0D9
:100C8000080A09E00B0A05E0080A01E0120065EF16
:100C900006F066EF06F083D80301F50EA26F000E92
:100CA00009D07DD813C4F5F0120079D80301F60EEF
:100CB000A26F000EA36F0301B5930301010EA66F8F
:100CC00012006DD812C4F6F01200120012000001DA
:100CD000F76B1E0E716E0401400E096F200E0A6F35
:100CE000040E0B6F880E086F0401600E0E6F040E69
:100CF0000F6F400E0C6F12000001FA51400802E223
:100D0000400EFA6FFB6BFA51FB5D13E2FB51EA6A8E
:100D1000F825E96EF951EA22EF50E66EFB51EA6AD6
:100D2000600FE96E040EEA22E552E750EF6EFB2BEE
:100D3000EAD7FAC00DF4400E04010C170C7D880EA2
:100D40000C1312000001F76B040108BF25D00951F4
:100D50000001D880FE5502E209C4FEF0F76BFE5197
:100D6000F75D13E2F751EA6A200FE96E040EEA22FA
:100D7000EF50E66EF751EA6AFC25E96EFD51EA2272
:100D8000E552E750EF6EF72BEAD70401400E096FEA
:100D90000817087D880E08130001F751120003019F
:100DA000020EA16F12006DB606D06D6A696A6D867B
:100DB0000301010EB46F0301B40508E16DBA06D05A
:100DC000686A696A69806988020EB46F120003015B
:100DD000B45101E1120068B445D86DB2120068B098
:100DE00058D868B817D868BA44D8030E0301B45D60
:100DF00001E212000301AF6B040EAF5D0AE268A6C8
:100E000008D069EC03F0000901E168960301AF2BFB
:100E1000F3D7120069CFB0F3040E696E68986D8243
:100E2000A19AA08A0300A150200B05E1D050080B25
:100E300002E10300F8D7A09A0301B051691203013F
:100E4000D50EB86F020EB96F0301B8C300F0B9C375
:100E500001F0B807000EB95B0050011002E0040079
:100E6000F3D712006D92699468A402D06894FCD7FD
:100E7000120070A00CD0800E0401005D07E1840E0A
:100E80000401045D03E104018C0E006F7090689A08
:100E900012006A6A686A9F0E6B6E7B0E696E6E6ADC
:100EA000716A726A736A746A756A766A776A160E0C
:100EB000706E68A604D0689652EC03F0FAD76D986D
:100EC000A6EC04F00401080E016F100E026F040E70
:100ED000036F8C0E006F0301B5910301B66B030124
:100EE000030EB46F1200B1C3E9FFB2C3EAFF0301FE
:100EF000B35104E0EE6A0301B307F9D712001201FF
:100F0000000200000008D8043C00010101020001B9
:100F100009022900010100C0320904000002030097
:100F20000000092111010001221D00070581034075
:100F30000001070501034000010403090434034DC7
:100F4000006900630072006F006300680069007050
:100F500000200054006500630068006E006F006CA4
:100F6000006F0067007900200049006E0063002ECA
:100F70000026034800490044002000550053004269
:100F800000200042006F006F0074006C006F006171
:100F9000006400650072000600FF0901A10119014B
:100FA0002940150026FF0075089540810019012988
:100FB000409100C0100F100F390F3D0F710FFC0B47
:100FC000000EF36E00EE00F0080E01D81200EA6089
:100FD00002D0EE6AFCD7F350E9601200EE6AFCD74B
:100FE000FFFFFFFFFFFFFFFFFFFFFFFFFFFFFFFF11
:100FF000FFFFFFFFFFFFFFFFFFFFFFFFFFFFFFFF01
:0610000001EF27F01200D1
:021006000D607B
:06100800EAEF25F01200E2
:02100E000000E0
:03101000640A006F
:021016000001D7
:08101800D9CFE6FFE1CFD9FFBB
:10102000040EE126026A010148510210DE6E49C138
:10103000DDFF5AC103F0026A595100010210006E2F
:101040005AC101F0020E00C0DBFF030E5AC1DBFFE4
:10105000020EDB50DF1804E1030EDB50DE52DD1818
:1010600008E0DECFE6FFDDCFE6FF88EC20F0E552BA
:10107000E552040EE15C02E2E16AE552E16EE552FE
:10108000E7CFD9FF1200D9CFE6FFE1CFD9FF020E9B
:10109000E126FE0EDBCFE6FFFD0EDB500C0DF3501C
:1010A000E552E724DF6EDFCFE9FFEA6AE9BEEA68CE
:1010B0001C0EE926010EEA22010EEFCFDBFFDB500A
:1010C000F36EFC0EDB50F35C23E0FC0EDBCFE6FF9F
:1010D000DFCFE9FFEA6AE9BEEA68040EE926010EFD
:1010E000EA22EF50E66EB20EE66E00EC21F0E55219
:1010F000E552E552DFCFE9FFEA6AE9BEEA681C0E75
:10110000E926010EEA22FC0EDBCFEFFF010E01D033
:10111000000E006E020EE15C02E2E16AE552E16E51
:101120000050E552E7CFD9FF1200D9CFE6FFE1CF5B
:10113000D9FF060EE126DF6ADE52010EDD6E0101E7
:101140006551545D0EE054C1E6FFC20EE66EE2EC5E
:1011500020F0E552E55294EC14F0B6EC10F0010EDC
:10116000DF6E01016651555D0AE055C1E6FFC90E0B
:10117000E66EE2EC20F0E552E552010EDF6E010171
:101180005B514A5D02E0010EDF6E030EDB6A020E68
:10119000F36E030EDBCFF4FFF350F45C01E3C3D135
:1011A000030EDB50040DF3CFE9FFF4CFEAFF680E26
:1011B000E926010EEA22020EE926000EEA22EF508D
:1011C000400B47E0000178510AE102C1F6FF03C17C
:1011D000F7FFF62A000EF7220800F55001D07851EB
:1011E000E66E030EDB50030DF3CFE9FFF4CFEAFF09
:1011F000700EE926010EEA22E552E750EF6EE66A2C
:10120000030EDBCFE6FF090EE66E3DDFE552E55249
:10121000E552000902E0010EDF6EE66A030EDBCF45
:10122000E6FF0B0EE66E2FDFE552E552E5520009B0
:1012300002E0010EDF6EE66A030EDBCFE6FF080E6A
:10124000E66E21DFE552E552E552000901E115D1D4
:1012500012D1030EDB50040DF3CFE9FFF4CFEAFF08
:10126000680EE926010EEA22020EE926000EEA22A5
:10127000EF50800B01E1AAD0030EDB50040DF3CF39
:10128000E9FFF4CFEAFF680EE926010EEA22EF50EB
:101290000CE10001775107E102C1F6FF03C1F7FF3E
:1012A0000800F5500ED077510CD0030EDB50040D22
:1012B000F3CFE9FFF4CFEAFF680EE926010EEA2238
:1012C000EF50E66E030EDB50030DF3CFE9FFF4CFD2
:1012D000EAFF700EE926010EEA22E552E750EF6EB2
:1012E000030EDB50040DF3CFE9FFF4CFEAFF680EE5
:1012F000E926010EEA22EE52EF5010E10001795189
:101300000BE102C1F6FF03C1F7FF020EF626000E45
:10131000F7220800F5500FD079510DD0030EDB50A5
:10132000040DF3CFE9FFF4CFEAFF680EE926010EC2
:10133000EA22EE52EF50E66E030EDB50030DF3CFC0
:10134000E9FFF4CFEAFF700EE926010EEA22EE5221
:10135000E552E750EF6E7F0EE66E030EDBCFE6FF41
:10136000090EE66E90DEE552E552E552000902E014
:10137000010EDF6E7F0EE66E030EDBCFE6FF0A0E78
:10138000E66E81DEE552E552E552000902E0010E0B
:10139000DF6E7F0EE66E030EDBCFE6FF0B0EE66E12
:1013A00072DEE552E552E552000902E0010EDF6E01
:1013B0007F0EE66E030EDBCFE6FF080EE66E63DE01
:1013C000E552E552E552000958E055D00001785148
:1013D0000AE102C1F6FF03C1F7FFF62A000EF72269
:1013E0000800F55001D07851E66E030EDB50030D76
:1013F000F3CFE9FFF4CFEAFF700EE926010EEA22EF
:10140000E552E750EF6E7F0EE66E030EDBCFE6FF90
:10141000090EE66E38DEE552E552E552000902E0BB
:10142000010EDF6EE66A030EDBCFE6FF0A0EE66E04
:101430002ADEE552E552E552000902E0010EDF6EB8
:101440007F0EE66E030EDBCFE6FF0B0EE66E1BDEB5
:10145000E552E552E552000902E0010EDF6EE66A50
:10146000030EDBCFE6FF080EE66E0DDEE552E55219
:10147000E552000902E0010EDF6E030EDB50030DA2
:10148000F3CFE9FFF4CFEAFF700EE926010EEA225E
:10149000EF50E66E030EDBCFE6FF060EE66EF3DDE1
:1014A000E552E552E552000902E0010EDF6E030E3F
:1014B000DB50030DF3CFE9FFF4CFEAFF700EE9260E
:1014C000010EEA22EE52EF50E66E030EDBCFE6FF8E
:1014D000070EE66ED8DDE552E552E552000902E05E
:1014E000010EDF6E030EDB50040DF3CFE9FFF4CFE6
:1014F000EAFF680EE926010EEA22030EE926000E35
:10150000EA22EF50E66E030EDBCFE6FF050EE66E35
:10151000BADDE552E552E552000902E0010EDF6E48
:10152000030EDB2A34D6020EDB6A040EF36E020EC3
:10153000DBCFF4FFF350F45C33E2010EDB5001012A
:101540006A15FF0DF3407F0BE66EE66A020EDBCFF5
:10155000E6FF99DDE552E552E552000902E0010E91
:10156000DF6E010EDB5001016E15FF0DF3407F0BA6
:10157000E66E010EE66E020EDBCFE6FF84DDE5527D
:10158000E552E552000902E0010EDF6E020EDB2A91
:10159000010EDBCFF3FFF39EF346F3CFDBFFC5D79E
:1015A00001016751565D3BE01E0E565D38E3A90E02
:1015B000F36E040EF3CFDBFF7F0E5615E76E050EBC
:1015C000E7CFDBFF040EDBCFE7FF050EDB50E71AAA
:1015D000040EE7CFDBFF050EDBCF3FF15645010BD5
:1015E000E76E050EE7CFDBFF040EDBCFE7FF050E4E
:1015F000DB50E71A040EE7CFDBFF050EDBCF40F12F
:10160000040EDB507F0B436F350EE66E010EE66E67
:10161000100EE66EBBEC20F0E552E552E5520101FA
:101620005C514B5D0FE15D514C5D0CE15F514E5DD6
:1016300009E160514F5D06E15E514D5D03E162518C
:10164000515D02E0010EDF6E6451535D02E0010E58
:10165000DF6E6351525D02E0010EDF6EDF5001E08C
:10166000DEDA060EE15C02E2E16AE552E16EE55285
:10167000E7CFD9FF1200D9CFE6FFE1CFD9FF0C0E9B
:10168000E126FE0EDB50020FE76E040EE7CFDBFF14
:10169000DF6A140EDF5C23E2DF50F76A5D0FF66E3F
:1016A0004D0EF7220800F550E66EDF50006E016A1D
:1016B000040EEA6ADB34FE0BEA36E96EF20EE92626
:1016C000010EEA220050EE24E76E0150EE20EA6E91
:1016D000E7CFE9FFE552E750EF6EDF2ADAD7FE0EDB
:1016E000DB50040DF3CFE9FFF4CFEAFF680EE926E3
:1016F000010EEA22020EE926000EEA22EF50400B0C
:1017000010E0040EEA6ADB34FE0BEA36E96EF20EF4
:10171000E926010EEA22EE50EFCFEAFFE96E410E14
:1017200027D0FE0EDB50040DF3CFE9FFF4CFEAFF24
:10173000680EE926010EEA22020EE926000EEA22D0
:10174000EF50800B02E1000E01D0010E430FE66E58
:10175000040EEA6ADB34FE0BEA36E96EF20EE92685
:10176000010EEA22EE50EFCFEAFFE96EE552E750B4
:10177000EF6EFE0EDB50030DF3CFE9FFF4CFEAFF6F
:10178000700EE926010EEA22EF50E66E030EE66EB9
:10179000040EEA6ADB34FE0BEA36E96EF20EE92645
:1017A000010EEA22EECFE6FFEFCFE6FF72EC21F06A
:1017B000E552E552E552E552FE0EDB50040DF3CF43
:1017C000E9FFF4CFEAFF680EE926010EEA22030ED4
:1017D000E926000EEA22EF34F76AFE0BF736F66EC2
:1017E0002A0EF626490EF7220900F5CFE6FF08007B
:1017F000F5CFE6FF0D0EE66E040EEA6ADB34FE0B53
:10180000EA36E96EF20EE926010EEA22EECFE6FF95
:10181000EFCFE6FF2AEC22F0006E050EE15E0050ED
:10182000FE0EDB50040DF3CFE9FFF4CFEAFF680EA4
:10183000E926010EEA22020EE926000EEA22EF5006
:10184000C00B800848E1FE0EDB50030DF3CFE9FF2B
:10185000F4CFEAFF700EE926010EEA22EE52EF40C5
:101860007F0BB40FFF0D050EF3CFDBFFDBCFE6FFE1
:10187000070EE66E040EEA6ADB34FE0BEA36E96E0A
:10188000F20EE926010EEA22EECFE6FFEFCFE6FFE9
:10189000B2EC21F0E552E552E552E552E76E060E54
:1018A000E7CFDBFFDBCF00F0016A00BE0168040E6A
:1018B000EA6ADB34FE0BEA36E96EF20EE926010E27
:1018C000EA220050EE24E76E0150EE20EA6EE7CFE8
:1018D000E9FF2D0EEF6E010EF36E030EF3CFDBFF6B
:1018E000040EEA6ADB34FE0BEA36E96EF20EE926F4
:1018F000010EEA22EECF00F0EFCF01F00F0E00262E
:10190000000E0122010E00C0DBFF020E01C0DBFF52
:10191000DF6A040EDF5C01E388D002C1F6FF03C179
:10192000F7FF030EF626000EF722F6CF02F0F7CFF0
:1019300003F0FE0EDB50040D0250F324F66E03504C
:10194000F420F76EF6CF00F0F7CF01F0DF500F0173
:101950000024F66E000E0120F76E0800F550E66ECA
:1019600084EC23F0E552070EF3CFDBFF080EF4CF33
:10197000DBFF050ED880DF54006E030EDBCFE6FFE1
:10198000FE0EDB50040DF3CFE9FFF4CFEAFF680E43
:10199000E926010EEA22020EE926000EEA22EF50A5
:1019A000E552E714E81C005204E0E846FE0B00068E
:1019B000FCE1E76E090EE7CFDBFF070EDBCFF6FF9A
:1019C000080EDBCFF7FF08000B0EF5CFDBFFDB5077
:1019D000400BE8407F0BE76E0A0EE7CFDBFF090EF6
:1019E000DBCFE6FF0A0EDB50E552E714006E0B0E6C
:1019F000DBCFE6FF0A0EDB1CE552E7140010E66EB3
:101A0000010EDBCFE9FFDB2A020EDBCFEAFF01E3A9
:101A1000DB2AE552E750EF6EDF2A030EDBCFF3FF40
:101A2000F39EF346F3CFDBFF74D70C0EE15C02E2CA
:101A3000E16AE552E16EE552E7CFD9FF1200D9CF56
:101A4000E6FFE1CFD9FF0B0EE126FE0EDB50020FC1
:101A5000E76E040EE7CFDBFFDF6A140EDF5C23E2E4
:101A6000DF50F76A480FF66E4D0EF7220800F5506A
:101A7000E66EDF50006E016A040EEA6ADB34FE0B8C
:101A8000EA36E96EF20EE926010EEA220050EE2453
:101A9000E76E0150EE20EA6EE7CFE9FFE552E7502E
:101AA000EF6EDF2ADAD7010EF36E030EF3CFDBFF02
:101AB000040EEA6ADB34FE0BEA36E96EF20EE92622
:101AC000010EEA22010EEECFDBFF020EEDCFDBFFAF
:101AD000DF6A040EDF5C01E398D002C1F6FF03C1A8
:101AE000F7FF030EF626000EF722F6CF02F0F7CF2F
:101AF00003F0FE0EDB50040D0250F324F66E03508B
:101B0000F420F76EF6CF00F0F7CF01F0DF500F01B1
:101B10000024F66E000E0120F76E0800F550E66E08
:101B200084EC23F0E552050EF3CFDBFF060EF4CF75
:101B3000DBFF050ED880DF54006E030EDBCFE6FF1F
:101B4000FE0EDB50040DF3CFE9FFF4CFEAFF680E81
:101B5000E926010EEA22020EE926000EEA22EF50E3
:101B6000E552E714E81C005204E0E846FE0B0006CC
:101B7000FCE1E76E0A0EE7CFDBFF090EDB6A040E1D
:101B8000F36E090EDBCFF4FFF350F45C35E2050E83
:101B9000DBCFF6FFDB2A060EDBCFF7FF01E3DB2A04
:101BA0000800080EF5CFDBFFDB50400BE8407F0B51
:101BB000E76E070EE7CFDBFF0A0EDBCFE6FF070E6F
:101BC000DB50E552E714006E080EDBCFE6FF070E90
:101BD000DB1CE552E7140010E66E010EDBCFE9FFD7
:101BE000DB2A020EDBCFEAFF01E3DB2AE552E750F6
:101BF000EF6E090EDB2AC3D7DF2A030EDBCFF3FF1C
:101C0000F39EF346F3CFDBFF64D70B0EE15C02E2F9
:101C1000E16AE552E16EE552E7CFD9FF1200D9CF74
:101C2000E6FFE1CFD9FF030EE12601014A513BE176
:101C3000DF6ADFCF00F0140EE76E0018E8AE02D0C6
:101C4000E73402D0E750005C1DE2DFCFF6FFF76A11
:101C5000F6BEF768330EF6264D0EF7220800F55053
:101C6000E66EDFCF00F0016A00BE01680101F451A9
:101C70000024E96EF5510120EA6EE552E750EF6E5F
:101C8000DF2AD7D701014E29E66E0C0EE66EF4C1AD
:101C9000E6FFF5C1E6FFB2EC21F0E552E552E55270
:101CA000E5525E0E3BD0DF6ADFCF00F0140EE76E28
:101CB0000018E8AE02D0E73402D0E750005C1DE225
:101CC000DFCFF6FFF76AF6BEF7681E0EF6264D0E5A
:101CD000F7220800F550E66EDFCF00F0016A00BE83
:101CE00001680101F4510024E96EF5510120EA6E0A
:101CF000E552E750EF6EDF2AD7D701014F29E66E94
:101D00000C0EE66EF4C1E6FFF5C1E6FFB2EC21F081
:101D1000E552E552E552E55201014529E66E0F0E06
:101D2000E66EF4C1E6FFF5C1E6FFB2EC21F0E55244
:101D3000E552E552E55201015429E66E030EE66EC6
:101D4000F4C1E6FFF5C1E6FFB2EC21F0E552E55241
:101D5000E552E55201015529E66E080EE66EF4C122
:101D6000E6FFF5C1E6FFB2EC21F0E552E552E5529F
:101D7000E55201015129E66E5BEC21F0E552E66E79
:101D8000110E0101EA6AF425E96EF551EA22E552E5
:101D9000E750EF6E7AC0E6FF5BEC21F0E552E66EAD
:101DA000130E0101EA6AF425E96EF551EA22E552C3
:101DB000E750EF6E00C1F6FF01C1F7FFF72AF6CF3B
:101DC00002F0F7CF03F001015051800D0250F324CF
:101DD000F66E0350F420F76EF6CF00F0F7CF01F067
:101DE000010E00C0DBFF020E01C0DBFF010EDBCFE6
:101DF000F6FF020EDBCFF7FF0800F55036E1DF6A91
:101E0000DFCF00F0140EE76E0018E8AE02D0E73422
:101E100002D0E750005C1DE2DFCFF6FFF76AF6BEA6
:101E2000F768090EF6264D0EF7220800F550E66E0B
:101E3000DFCF00F0016A00BE01680101F251002409
:101E4000E96EF3510120EA6EE552E750EF6EDF2AAA
:101E5000D7D701014E29E66E120EE66EF2C1E6FFFB
:101E6000F3C1E6FFB2EC21F00CD0010EDBCFE6FFB0
:101E7000020EDBCFE6FFF2C1E6FFF3C1E6FF34EC72
:101E800023F0E552E552E552E55201014B514F5D19
:101E900003E14C514E5D09E0130E0101EA6AF2259F
:101EA000E96EF351EA222A0EEF6E01015351010A45
:101EB0003EE0030A02E0020A45E1E66A3BEC0BF071
:101EC000E552010EE66E3BEC0BF0E552020E01010D
:101ED0005225E96EEA6AE9BEEA68D890E936EA3640
:101EE000F20EE926010EEA22EE50EFCFEAFFE96E8C
:101EF0000E0EE926000EEA227F0EEF6E030ED8804A
:101F00005255E96EEA6AE9BEEA68D890E936EA36DF
:101F1000F20EE926010EEA22EE50EFCFEAFFE96E5B
:101F20000E0EE926000EEA22200EEF6E0BD0010EF7
:101F3000D8805255E66E3BEC0BF0E55252C1E6FFFD
:101F40007EDDE552B9EC20F0030EE15C02E2E16ACD
:101F5000E552E16EE552E7CFD9FF1200010153517E
:101F6000020A01E1E2D0030A5BE0010A01E0F5D0D8
:101F7000020E535D02E0000E01D0010E200DF3CFE2
:101F800003F0530502E0000E01D0010E100DF3CF57
:101F900002F0060E016E52C1E9FFEA6AE9BEEA6884
:101FA000D890E936EA36D890E936EA36680EE9265E
:101FB000010EEA22020EE926000EEA22EF50400B43
:101FC00001C0E7FFE75204E0E8427F0BE706FCE1CF
:101FD000006ECE0E01014715001002100310496F6C
:101FE000010ED8805255100DF3CF01F052C1E9FF18
:101FF000EA6AE9BEEA68D890E936EA36D890E93666
:10200000EA36680EE926010EEA22020EE926000EE3
:10201000EA22EF50800BE844010B006EEE0E80D0F8
:10202000020E535D02E0000E01D0010E200DF3CF31
:1020300004F0530502E0000E01D0010E100DF3CFA5
:1020400003F052C1E9FFEA6AE9BEEA68D890E936CE
:10205000EA36D890E936EA36680EE926010EEA2219
:10206000030EE926000EEA22EF50620802E0000E9D
:1020700001D0010E080DF3CF02F052C1E9FFEA6A68
:10208000E9BEEA68D890E936EA36D890E936EA3609
:10209000680EE926010EEA22EE52EF5002E0000E31
:1020A00001D0010E040DF3CF01F052C1E9FFEA6A3D
:1020B000E9BEEA68D890E936EA36D890E936EA36D9
:1020C000680EE926010EEA22EF5002E0000E01D070
:1020D000010EE824006ECF0E47150010011002100B
:1020E00003100410496F010ED8805255100DF3CF24
:1020F00001F052C1E9FFEA6AE9BEEA68D890E93620
:10210000EA36D890E936EA36680EE926010EEA2268
:10211000020EE926000EEA22EF500F0B006EE00ED1
:10212000461500100110486F18D0020E535D02E0F2
:10213000000E01D0010E200DF3CF01F0530502E097
:10214000000E01D0010E100DF3CF00F0CF0E471599
:10215000F3100110496F46C148F14B514F5D03E147
:102160004C514E5D01E0488F0CEF08F0D9CFE6FFEF
:10217000E1CFD9FF020EE12600C1F6FF01C1F7FF52
:10218000800EF626000EF722F6CF00F0F7CF01F012
:10219000010154510B0D0050F324026F0150F42043
:1021A000036FDF6A020EDF5C42E2010EDB6A040E9F
:1021B000F36E010EDBCFF4FFF350F45C36E202C1A4
:1021C000F6FF03C1F7FF030EF626000EF722F6CF47
:1021D00002F0F7CF03F0DF50040D0250F324F66E47
:1021E0000350F420F76EF6CF00F0F7CF01F0010EA8
:1021F000DB500F010024F66E000E0120F76E080080
:10220000F550E66E010EDBCFE6FF0C0EDF02F35059
:10221000E552E724EA6A040FE96E010EEA22E5526C
:10222000E750EF6E010EDB2AC2D7DF2ABBD7020EC2
:10223000E15C02E2E16AE552E16EE552E7CFD9FFE7
:102240001200D9CFE6FFE1CFD9FF020EE12601014E
:102250004A0519E100C1F6FF01C1F7FF020EF6269B
:10226000000EF722F62AF722F6CF00F0F7CF01F0A2
:102270004B510F010024F66E000E0120F76E08008E
:10228000F550DF6E02D04CC1DFFF00C1F6FF01C187
:10229000F7FFF72AF6CF00F0F7CF01F0DF50800DFF
:1022A0000050F324F66E0150F420F76E0900F5CFCC
:1022B00060F00900F5CF61F00900F5CF62F0090088
:1022C000F5CF63F00900F5CF64F00900F5CF65F0B4
:1022D0000900F5CF66F00900F5CF67F00900F5CFEA
:1022E00068F00900F5CF69F00900F5CF6AF0090040
:1022F000F5CF6BF00900F5CF6CF00900F5CF6DF06C
:102300000900F5CF6EF00900F5CF6FF00900F5CFA9
:1023100070F00900F5CF71F00900F5CF72F00900F7
:10232000F5CF73F00900F5CF74F00900F5CF75F023
:102330000900F5CF76F00900F5CF77F00900F5CF69
:1023400078F00900F5CF79F00900F5CF7AF00900AF
:10235000F5CF7BF00900F5CF7CF00900F5CF7DF0DB
:102360000900F5CF7EF00900F5CF7FF00900F5CF29
:1023700080F00900F5CF81F00900F5CF82F0090067
:10238000F5CF83F00900F5CF84F00900F5CF85F093
:102390000900F5CF86F00900F5CF87F00900F5CFE9
:1023A00088F00900F5CF89F00900F5CF8AF009001F
:1023B000F5CF8BF00900F5CF8CF00900F5CF8DF04B
:1023C0000900F5CF8EF00900F5CF8FF00900F5CFA9
:1023D00090F00900F5CF91F00900F5CF92F00900D7
:1023E000F5CF93F00900F5CF94F00900F5CF95F003
:1023F0000900F5CF96F00900F5CF97F00900F5CF69
:1024000098F00900F5CF99F00900F5CF9AF009008E
:10241000F5CF9BF00900F5CF9CF00900F5CF9DF0BA
:102420000900F5CF9EF00900F5CF9FF00900F5CF28
:10243000A0F00900F5CFA1F00900F5CFA2F0090046
:10244000F5CFA3F00900F5CFA4F00900F5CFA5F072
:102450000900F5CFA6F00900F5CFA7F00900F5CFE8
:10246000A8F00900F5CFA9F00900F5CFAAF00900FE
:10247000F5CFABF00900F5CFACF00900F5CFADF02A
:102480000900F5CFAEF00900F5CFAFF00900F5CFA8
:10249000B0F00900F5CFB1F00900F5CFB2F00900B6
:1024A000F5CFB3F00900F5CFB4F00900F5CFB5F0E2
:1024B0000900F5CFB6F00900F5CFB7F00900F5CF68
:1024C000B8F00900F5CFB9F00900F5CFBAF009006E
:1024D000F5CFBBF00900F5CFBCF00900F5CFBDF09A
:1024E0000900F5CFBEF00900F5CFBFF00900F5CF28
:1024F000C0F00900F5CFC1F00900F5CFC2F0090026
:10250000F5CFC3F00900F5CFC4F00900F5CFC5F051
:102510000900F5CFC6F00900F5CFC7F00900F5CFE7
:10252000C8F00900F5CFC9F00900F5CFCAF00900DD
:10253000F5CFCBF00900F5CFCCF00900F5CFCDF009
:102540000900F5CFCEF00900F5CFCFF00900F5CFA7
:10255000D0F00900F5CFD1F00900F5CFD2F0090095
:10256000F5CFD3F00900F5CFD4F00900F5CFD5F0C1
:102570000900F5CFD6F00900F5CFD7F00900F5CF67
:10258000D8F00900F5CFD9F00900F5CFDAF009004D
:10259000F5CFDBF00900F5CFDCF00900F5CFDDF079
:1025A0000900F5CFDEF00800F5CFDFF00001605143
:1025B00001E0A1D0746B320E756F780E766F5E0EEF
:1025C000776F1A0E786F440E796F0C0E7A6F010ECA
:1025D000DB6A0C0EF36E010EDBCFF4FFF350F45CFC
:1025E00001E389D0010EDB50080DF3CFE9FFF4CFF2
:1025F000EAFF7B0EE926000EEA22EF6A010EDB50AD
:10260000080DF3CFE9FFF4CFEAFF7B0EE926000EB9
:10261000EA22EE52EF6A010EDB50080DF3CFE9FF1C
:10262000F4CFEAFF7B0EE926000EEA22020EE9262D
:10263000000EEA22800EEF6E010EDB50080DF3CF84
:10264000E9FFF4CFEAFF7B0EE926000EEA22030E33
:10265000E926000EEA22620EEF6E010EDB50080D35
:10266000F3CFE9FFF4CFEAFF7B0EE926000EEA2262
:10267000040EE926000EEA22EF6A010EDB50080D77
:10268000F3CFE9FFF4CFEAFF7B0EE926000EEA2242
:10269000040EE926000EEA22EE52EF6A010EDB502C
:1026A000080DF3CFE9FFF4CFEAFF7B0EE926000E19
:1026B000EA22040EE926000EEA22020EE926000EA6
:1026C000EA22800EEF6E010EDB50080DF3CFE9FF1A
:1026D000F4CFEAFF7B0EE926000EEA22040EE9267B
:1026E000000EEA22030EE926000EEA22620EEF6EC9
:1026F000010EDB2A6ED7DFCF4DF1DFCF50F14BC19A
:102700004FF14CC14EF10101516B74C054F175C0D1
:1027100055F176C056F12ADD020EE15C02E2E16A73
:10272000E552E16EE552E7CFD9FF120001015151A8
:10273000080DF3CFE9FFF4CFEAFF7B0EE926000E88
:10274000EA22EF5068E15151080DF3CFE9FFF4CFD1
:10275000EAFF7B0EE926000EEA22030EE926000EB0
:10276000EA22EF5058E15151080DF3CFE9FFF4CFC1
:10277000EAFF7B0EE926000EEA22040EE926000E8F
:10278000EA22EF5048E15151080DF3CFE9FFF4CFB1
:10279000EAFF7B0EE926000EEA22040EE926000E6F
:1027A000EA22030EE926000EEA22EF5034E1510539
:1027B000080DF3CFE9FFF4CFEAFF7B0EE926000E08
:1027C000EA22EECF00F0EECF01F0EECF02F0EECF36
:1027D00003F0EECF04F0EECF05F0EECF06F0EFCF32
:1027E00007F05151080DF3CFE9FFF4CFEAFF7B0E5C
:1027F000E926000EEA2200C0EEFF01C0EEFF02C093
:10280000EEFF03C0EEFF04C0EEFF05C0EEFF06C002
:10281000EEFF07C0EEFF5151080DF3CFE9FFF4CFF3
:10282000EAFF7B0EE926000EEA22EECF68F1EECF3A
:1028300069F1EECF6AF1EFCF6BF15151080DF3CF93
:10284000E9FFF4CFEAFF7B0EE926000EEA22040E30
:10285000E926000EEA22EECF6CF1EECF6DF1EECF5D
:102860006EF1EFCF6FF11200D9CFE6FFE1CFD9FFC4
:10287000E65201014A714A0538E100C1F6FF01C183
:10288000F7FF020EF626000EF7220800F504456F4A
:102890004B6BDF6A00C1F6FF01C1F7FF020EF6269F
:1028A000000EF7220800F550DF5C39E200C1F6FFA8
:1028B00001C1F7FF020EF626000EF722F62AF722D4
:1028C000F6CF00F0F7CF01F0DF500F010024F66ED5
:1028D000000E0120F76E0800F55001014C5D03E188
:1028E000DFCF4BF11CD0DF2AD5D77F0E456F00C15B
:1028F000F6FF01C1F7FF020EF626000EF722F62AB8
:10290000F722F6CF00F0F7CF01F04B510F01002472
:10291000F66E000E0120F76E0800F5CF4CF1E5527F
:10292000E552E7CFD9FF1200D9CFE6FFE1CFD9FFBB
:10293000E652DF6A0C0EDF5C11E2DF50EA6A1C0F20
:10294000E96E010EEA22EF680C0EDF24EA6A1C0F22
:10295000E96E010EEA22EF68DF2AECD7E552E55274
:10296000E7CFD9FF12000101541D656F551D666F39
:10297000561D676F94EF14F001014A510AE14E5160
:10298000006E016A5D0E005C000E015806E24E2BDF
:10299000120045514F5D01E24F2B120001014A51D7
:1029A00005E14E51000806E24E0712004F510008A3
:1029B00001E24F07120001014A5106E14C514E5D00
:1029C00006E04EC14CF112004B514F5D0AE100018F
:1029D0007A050101515D02E2512B1200CDDF4EC19B
:1029E0004CF14FC14BF112000101516B120001017A
:1029F0005151000801E251071200D9CFE6FFE1CFA3
:102A0000D9FFE652000EE66EE66A29EC21F0E552A7
:102A1000E552F3CF00F1F4CF01F1DF6A100EDF5C75
:102A200014E2DF50F76A460FF66E4E0EF7220800EA
:102A3000F550E66EDF50EA6A350FE96E010EEA22C4
:102A4000E552E750EF6EDF2AE9D7DF6A020EDF5C5E
:102A500001E39BD00C0EDF02F350EA6A040FE96E2B
:102A6000010EEA22EF680C0EDF02F328EA6A040F77
:102A7000E96E010EEA22EF680C0EDF02F350020F3E
:102A8000EA6A040FE96E010EEA22EF680C0EDF021B
:102A9000F350030FEA6A040FE96E010EEA22EF68B1
:102AA0000C0EDF02F350040FEA6A040FE96E010E08
:102AB000EA22EF68100EDF24E66E0C0EDF02F35000
:102AC000050FEA6A040FE96E010EEA22E552E750AB
:102AD000EF6E120EDF24E66E0C0EDF02F350060FCF
:102AE000EA6A040FE96E010EEA22E552E750EF6E42
:102AF000140EDF24E66E0C0EDF02F350070FEA6AB5
:102B0000040FE96E010EEA22E552E750EF6E3C0E2B
:102B1000DF24E66E0C0EDF02F350080FEA6A040FA2
:102B2000E96E010EEA22E552E750EF6E250EDF2432
:102B3000E66E0C0EDF02F350090FEA6A040FE96E2D
:102B4000010EEA22E552E750EF6E640EDF24E66ED6
:102B50000C0EDF02F3500A0FEA6A040FE96E010E51
:102B6000EA22E552E750EF6E660EDF24E66E0C0EA9
:102B7000DF02F3500B0FEA6A040FE96E010EEA223E
:102B8000E552E750EF6EDF2A61D70101346B536BDA
:102B9000010E526F646F636B59695A69486B496BD8
:102BA0005B6F4A6F00C1F6FF01C1F7FF020EF62608
:102BB000000EF7220800F504456FDF6A020EDF5CA5
:102BC00019E2DF50040DF3CFE9FFF4CFEAFF680EFE
:102BD000E926010EEA22EF6ADF50040DF3CFE9FF88
:102BE000F4CFEAFF680EE926010EEA22EE52EF6A00
:102BF000DF2AE4D701014B6B4C6B5C6B5D6B4E6B5A
:102C00004F6B7F0E656F676B21EC11F08FDD51C14B
:102C100062F1DF6A020EDF5C33E201015151080DFF
:102C2000F3CFE9FFF4CFEAFF7B0EE926000EEA229C
:102C3000E9CF04F0EACF05F0DF50040DE950F324AA
:102C4000E96EEA50F420EA6EEECF00F0EECF01F02C
:102C5000EECF02F0EFCF03F0DF50040DF3CFE9FF2A
:102C6000F4CFEAFF680EE926010EEA2200C0EEFF6B
:102C700001C0EEFF02C0EEFF03C0EEFFDF2ACAD79D
:102C800072DEDF6A040EDF5C18E2DFCFE6FFA2EC43
:102C900020F0E552F3CF00F0F4CF01F0EA6ADF3420
:102CA000FE0BEA36E96EF20EE926010EEA22F3CFB8
:102CB000EEFF01C0EDFFDF2AE5D7E552E552E7CF91
:102CC000D9FF1200D9CFE6FFE1CFD9FFE652FE0EC1
:102CD000DB50040DF3CFE9FFF4CFEAFF680EE926DD
:102CE000010EEA22030EE926000EEA22EFCFDFFFF3
:102CF000DF50000812E2DF06FE0EDB50040DF3CFBA
:102D0000E9FFF4CFEAFF680EE926010EEA22030E7E
:102D1000E926000EEA22DFCFEFFFE552E552E7CFCA
:102D2000D9FF1200D9CFE6FFE1CFD9FFE652FE0E60
:102D3000DB50040DF3CFE9FFF4CFEAFF680EE9267C
:102D4000010EEA22030EE926000EEA22EFCFDFFF92
:102D50007F0EDF5C12E2DF2AFE0EDB50040DF3CFA4
:102D6000E9FFF4CFEAFF680EE926010EEA22030E1E
:102D7000E926000EEA22DFCFEFFFE552E552E7CF6A
:102D8000D9FF1200D9CFE6FFE1CFD9FF020EE1262D
:102D9000FE0EDB50040DF3CFE9FFF4CFEAFF680E1F
:102DA000E926010EEA22020EE926000EEA22EF5081
:102DB000C00B80082CE1FE0EDB50040DF3CFE9FFC1
:102DC000F4CFEAFF680EE926010EEA22EF5010E088
:102DD000FE0EDB50040DF3CFE9FFF4CFEAFF680EDF
:102DE000E926010EEA22E9CFDEFFEACFDDFF2AD095
:102DF000770EDE6E000EDD6EDECFE9FFDDCFEAFF7F
:102E0000EF5020E102C1F6FF03C1F7FF11D0780EA9
:102E1000DE6E000EDD6EDECFE9FFDDCFEAFFEF50A4
:102E200011E102C1F6FF03C1F7FFF62A000EF722F7
:102E30000800F550E66EDECFE9FFDDCFEAFFE55290
:102E4000E750EF6EDECFE9FFDDCFEAFFEF5001087C
:102E500005E2DECFE9FFDDCFEAFFEF06020EE15C1F
:102E600002E2E16AE552E16EE552E7CFD9FF1200D6
:102E7000D9CFE6FFE1CFD9FF020EE126FE0EDB50EF
:102E8000040DF3CFE9FFF4CFEAFF680EE926010E47
:102E9000EA22020EE926000EEA22EF50C00B80085B
:102EA0002CE1FE0EDB50040DF3CFE9FFF4CFEAFF77
:102EB000680EE926010EEA22EF5010E0FE0EDB500C
:102EC000040DF3CFE9FFF4CFEAFF680EE926010E07
:102ED000EA22E9CFDEFFEACFDDFF2AD0770EDE6EF1
:102EE000000EDD6EDECFE9FFDDCFEAFFEF5020E11F
:102EF00002C1F6FF03C1F7FF11D0780EDE6E000E9F
:102F0000DD6EDECFE9FFDDCFEAFFEF5011E102C158
:102F1000F6FF03C1F7FFF62A000EF7220800F5506E
:102F2000E66EDECFE9FFDDCFEAFFE552E750EF6E58
:102F3000DECFE9FFDDCFEAFFEFCF00F07F0E005CD0
:102F400005E2DECFE9FFDDCFEAFFEF2A020EE15C0A
:102F500002E2E16AE552E16EE552E7CFD9FF1200E5
:102F6000D9CFE6FFE1CFD9FF020EE126FE0EDB50FE
:102F7000040DF3CFE9FFF4CFEAFF680EE926010E56
:102F8000EA22EE52EF5011E0FE0EDB50040DF3CFBB
:102F9000E9FFF4CFEAFF680EE926010EEA22EE52BD
:102FA000E9CFDEFFEACFDDFF1CD0790EDE6E000E2A
:102FB000DD6EDECFE9FFDDCFEAFFEF5012E102C1A7
:102FC000F6FF03C1F7FF020EF626000EF7220800F7
:102FD000F550E66EDECFE9FFDDCFEAFFE552E750C0
:102FE000EF6EDECFE9FFDDCFEAFFEF50010805E22B
:102FF000DECFE9FFDDCFEAFFEF06020EE15C02E281
:10300000E16AE552E16EE552E7CFD9FF1200D9CF70
:10301000E6FFE1CFD9FF020EE126FE0EDB50040DE4
:10302000F3CFE9FFF4CFEAFF680EE926010EEA22AA
:10303000EE52EF5011E0FE0EDB50040DF3CFE9FF2E
:10304000F4CFEAFF680EE926010EEA22EE52E9CF3C
:10305000DEFFEACFDDFF1CD0790EDE6E000EDD6EE6
:10306000DECFE9FFDDCFEAFFEF5012E102C1F6FF4C
:1030700003C1F7FF020EF626000EF7220800F550F6
:10308000E66EDECFE9FFDDCFEAFFE552E750EF6EF7
:10309000DECFE9FFDDCFEAFFEFCF00F07F0E005C6F
:1030A00005E2DECFE9FFDDCFEAFFEF2A020EE15CA9
:1030B00002E2E16AE552E16EE552E7CFD9FF120084
:1030C000D9CFE6FFE1CFD9FFFD0EDBCFE9FFFE0E42
:1030D000DBCFEAFFEFCF00F0FC0EDB50D8800054CE
:1030E00007E2FD0EDBCFE9FFFE0EDBCFEAFFEF06C6
:1030F000E552E7CFD9FF1200D9CFE6FFE1CFD9FFE4
:10310000FD0EDBCFE9FFFE0EDBCFEAFFEFCF00F0D5
:10311000FC0EDB50005C07E2FD0EDBCFE9FFFE0E8C
:10312000DBCFEAFFEF2AE552E7CFD9FF120001011A
:103130005351020A01E1E9D0030A01E197D1010AE2
:1031400001E094D1020E4715020822E1800E010130
:10315000E51507E03F0EE515006E180E005C01E373
:10316000E58D400EE51507E0030EE51504E152C1BB
:10317000E6FF08DEE552C00E0101E51509E03F0E4D
:10318000E515010F3F0B006EC00EE5150010E56F51
:10319000020E01014615020822E1800E0101EB1525
:1031A00007E03F0EEB15006E180E005C01E3EB8D9F
:1031B000400EEB1507E0030EEB1504E152C1E6FFEC
:1031C00057DEE552C00E0101EB1509E03F0EEB158D
:1031D000010F3F0B006EC00EEB150010EB6F040EDD
:1031E00001014715040822E1800E0101E61507E000
:1031F0003F0EE615006E180E005C01E3E68D400EF2
:10320000E61507E0030EE61504E152C1E6FFA8DE6D
:10321000E552C00E0101E61509E03F0EE615010F6B
:103220003F0B006EC00EE6150010E66F040E0101A4
:103230004615040822E1800E0101EC1507E03F0E5F
:10324000EC15006E180E005C01E3EC8D400EEC15E1
:1032500007E0030EEC1504E152C1E6FFD8DEE552AB
:10326000C00E0101EC1509E03F0EEC15010F3F0BFC
:10327000006EC00EEC150010EC6F080E0101471532
:10328000080822E1800E0101E71507E03F0EE7156F
:10329000006E180E005C01E3E78D400EE71507E0B5
:1032A000030EE71504E152C1E6FF0CDDE552C00E46
:1032B0000101E71509E03F0EE715010F3F0B006E16
:1032C000C00EE7150010E76F080E0101461508084B
:1032D00001E0CCD0800E0101ED1507E03F0EED15A9
:1032E000006E180E005C01E3ED8D400EED1507E059
:1032F000030EED1504E152C1E6FF14DDE552C00EE8
:103300000101ED1501E1B2D0A8D0040E4715040863
:1033100027E1800E0101E61507E03F0EE615006E7D
:10332000180E005C01E3E68D400EE6150CE0030E7E
:10333000E61509E1E66A540EE66E010EE66EC0DEA1
:10334000E552E552E552C00E0101E61509E03F0ED7
:10335000E615010F3F0B006EC00EE6150010E66F7C
:10336000040E01014615040828E1800E0101EC1548
:1033700007E03F0EEC15006E180E005C01E3EC8DCB
:10338000400EEC150DE0030EEC150AE10A0EE66E98
:10339000540EE66E010EE66EAFDEE552E552E552E2
:1033A000C00E0101EC1509E03F0EEC15010F3F0BBB
:1033B000006EC00EEC150010EC6F080E01014715F1
:1033C000080827E1800E0101E71507E03F0EE71529
:1033D000006E180E005C01E3E78D400EE7150CE06F
:1033E000030EE71509E1E66A550EE66E010EE66E7C
:1033F00067DEE552E552E552C00E0101E71509E02E
:103400003F0EE715010F3F0B006EC00EE7150010D1
:10341000E76F080E01014615080828E1800E01013A
:10342000ED1507E03F0EED15006E180E005C01E390
:10343000ED8D400EED150DE0030EED150AE17F0E4A
:10344000E66E550EE66E010EE66E56DEE552E5526C
:10345000E552C00E0101ED1509E03F0EED15010F1B
:103460003F0B006EC00EED150010ED6F200E010138
:103470004715200819E1800E0101E81515E07F0EBF
:10348000E815006E3F0E005C0FE27F0EE815010F9D
:10349000006E800EE8150010E86F7F0EE8153F08FB
:1034A00003E1E86B34EC14F0200E0101461520080E
:1034B00019E1800E0101EE1515E07F0EEE15006E8C
:1034C0001F0E005C0FE27F0EEE15010F006E800EE6
:1034D000EE150010EE6F7F0EEE151F0803E1EE6B88
:1034E000B3EC14F0400E01014715400820E1800EB6
:1034F0000101E91507E03F0EE915006E200E005CA2
:1035000001E3E98D400EE91505E0070EE91502E13A
:10351000CEEC14F0C00E0101E91509E03F0EE915EB
:10352000010F3F0B006EC00EE9150010E96F800E11
:1035300001014715800820E1800E0101EA1507E02E
:103540003F0EEA15006E200E005C01E3EA8D400E8E
:10355000EA1505E0070EEA1502E1BCEC14F0C00E16
:103560000101EA1509E03F0EEA15010F3F0B006E5D
:10357000C00EEA150010EA6F400E01014615400822
:1035800019E1800E0101EF1515E07F0EEF15006EB9
:103590003F0E005C0FE27F0EEF15010F006E800EF4
:1035A000EF150010EF6F7F0EEF153F0803E1EF6B93
:1035B000F4EC14F00101F15106E01F0EF15D02E29E
:1035C000F12B1200F16B1200D9CFE6FFE1CFD9FF4A
:1035D000050EE12605EC20F0F3CFDEFFF4CFDDFF92
:1035E000DECF00F0DDCF01F000500101466FDECFED
:1035F00000F0DDCF01F001C000F0016A0050476F1C
:103600005351020A01E10DD2030A01E1FAD0010A85
:1036100001E09CD2010E581518E1010E4715010872
:1036200014E152C1E9FFEA6AE9BEEA68D890E936D6
:10363000EA36D890E936EA36680EE926010EEA2223
:10364000020EE926000EEA22EF7C010E571518E162
:10365000010E4615010814E152C1E9FFEA6AE9BE0C
:10366000EA68D890E936EA36D890E936EA36680E44
:10367000E926010EEA22020EE926000EEA22EF7E7A
:10368000020E581508E1020E4715020804E1010177
:10369000800EE56F11D0020E581502080DE1020EE2
:1036A00047150AE10101E5BD05D052C1E6FFC2ECB4
:1036B00016F0E5520101E56B020E0101571508E114
:1036C000020E4615020804E10101800EEB6F11D0D5
:1036D000020E571502080DE1020E46150AE101011E
:1036E000EBBD05D052C1E6FF38EC17F0E552010101
:1036F000EB6B040E0101581508E1040E4715040890
:1037000004E10101800EE66F10D0040E5815040884
:103710000CE1040E471509E10101E6BD04D052C1D8
:10372000E6FF1EDCE5520101E66B040E01015715B0
:1037300008E1040E4615040804E10101800EEC6F57
:1037400010D0040E571504080CE1040E461509E1CB
:103750000101ECBD04D052C1E6FF59DCE552010184
:10376000EC6B080E0101581508E1080E4715080812
:1037700004E10101800EE76F11D0080E581508080A
:103780000DE1080E47150AE10101E7BD05D052C160
:10379000E6FF62EC16F0E5520101E76B080E01014D
:1037A000571508E1080E4615080804E10101800ECE
:1037B000ED6F11D0080E571508080DE1080E4615DB
:1037C0000AE10101EDBD05D052C1E6FF92EC16F011
:1037D000E5520101ED6B100E0101581508E1100EC4
:1037E0004715100804E1010E5315010A536F100E1E
:1037F000571501E0ABD1100E4615100801E0A6D117
:103800000ED1020E581533E1020E471502082FE1C2
:1038100052C1E9FFEA6AE9BEEA68D890E936EA36B9
:10382000D890E936EA36680EE926010EEA22020E41
:10383000EFCFDBFFDB5007E102C1F6FF03C1F7FF6B
:103840000800F55001D0000EE66E52C1E9FFEA6AA9
:10385000E9BEEA68D890E936EA36D890E936EA3621
:10386000680EE926010EEA22E552E750EF6E040EDB
:10387000581539E1040E4715040835E152C1E9FF36
:10388000EA6AE9BEEA68D890E936EA36D890E936BD
:10389000EA36680EE926010EEA22EE52030EEFCF59
:1038A000DBFFDB500BE102C1F6FF03C1F7FF020EA5
:1038B000F626000EF7220800F55001D0000EE66E45
:1038C00052C1E9FFEA6AE9BEEA68D890E936EA3609
:1038D000D890E936EA36680EE926010EEA22EE5261
:1038E000E552E750EF6E080E581519E1080E47151E
:1038F000080815E152C1E9FFEA6AE9BEEA68D89012
:10390000E936EA36D890E936EA36680EE926010E3D
:10391000EA22030EE926000EEA22620EEF6E010E85
:10392000571518E1010E4615010814E152C1E9FFCF
:10393000EA6AE9BEEA68D890E936EA36D890E9360C
:10394000EA36680EE926010EEA22020EE926000E8A
:10395000EA22EF70020E571518E1020E4615020812
:1039600014E152C1E9FFEA6AE9BEEA68D890E93693
:10397000EA36D890E936EA36680EE926010EEA22E0
:10398000020EE926000EEA22EF72040E571518E126
:10399000040E4615040814E152C1E9FFEA6AE9BEC3
:1039A000EA68D890E936EA36D890E936EA36680E01
:1039B000E926010EEA22020EE926000EEA22EF7441
:1039C000080E571518E1080E4615080814E152C1F3
:1039D000E9FFEA6AE9BEEA68D890E936EA36D890A3
:1039E000E936EA36680EE926010EEA22020EE926D9
:1039F000000EEA22EF76100E581508E1100E47155A
:103A0000100804E1010E5315010A536F100E5715EB
:103A100001E09CD0100E4615100801E097D05271BD
:103A200095D0040E581508E1040E4715040804E16A
:103A30000101800EE66F16D0040E5815040812E13D
:103A4000040E47150FE10101E6BD0AD0E66A540EE7
:103A5000E66E010EE66E60EC18F0E552E552E552B6
:103A60000101E66B040E0101571508E1040E46152D
:103A7000040804E10101800EEC6F17D0040E571505
:103A8000040813E1040E461510E10101ECBD0BD052
:103A90000A0EE66E540EE66E010EE66E7CEC18F031
:103AA000E552E552E5520101EC6B080E0101581593
:103AB00008E1080E4715080804E10101800EE76FD0
:103AC00016D0080E5815080812E1080E47150FE128
:103AD0000101E7BD0AD0E66A550EE66E010EE66EFC
:103AE00060EC18F0E552E552E5520101E76B080E73
:103AF0000101571508E1080E4615080804E1010107
:103B0000800EED6F17D0080E5715080813E1080E48
:103B1000461510E10101EDBD0BD07F0EE66E550E8E
:103B2000E66E010EE66E7CEC18F0E552E552E552C9
:103B30000101ED6B100E0101581508E1100E47153B
:103B4000100804E1010E5315010A536F200E581599
:103B500008E1200E4715200804E10101800EE86FFE
:103B600011D0200E581520080DE1200E47150AE14E
:103B70000101E8AF05D0020E01015315020A536F8F
:103B80000101E86B200E0101571516E1200E4615C4
:103B9000200812E10101800EEE6F7F0E0101341B3F
:103BA00034C1E6FF0E0EE66EB20EE66E00EC21F0BA
:103BB000E552E552E55209D0200E571506E1200ED8
:103BC0004615200802E10101EE6B400E0101571578
:103BD0000FE1400E461540080BE10101800EEF6F2A
:103BE000F1510FE1F7EC14F00101010EF16F09D072
:103BF000400E5715400805E1400E461502E101014F
:103C0000EF6B800E010157150FE1800E46158008FD
:103C10000BE10101800EF06FF1510FE1DBEC14F0CC
:103C20000101010EF16F09D0800E5715800805E1E2
:103C3000800E461502E10101F06B400E010158159E
:103C40000AE1400E4715400806E1CEEC14F00101F0
:103C5000800EE96F09D0400E5815400805E1400E6E
:103C6000471502E10101E96B800E010158150AE1D7
:103C7000800E4715800806E1BCEC14F00101800EAF
:103C8000EA6F09D0800E5815800805E1800E4715AF
:103C900002E10101EA6B01015F514E5D03E16051F8
:103CA0004F5D21E04A051AE100C1F6FF01C1F7FFAF
:103CB000020EF626000EF722F62AF722F6CF00F0C3
:103CC000F7CF01F04F510F010024F66E000E0120D6
:103CD000F76E0800040EF5CFDBFF03D0040E4EC1D3
:103CE000DBFFDBCF50F101015B514A5D06E15C5126
:103CF0004B5D03E15D514C5D03E021EC11F02BD0F5
:103D00006251515D2AE06251080DF3CFE9FFF4CF13
:103D1000EAFF7B0EE926000EEA2268C1EEFF69C1C8
:103D2000EEFF6AC1EEFF6BC1EEFF6251080DF3CFEB
:103D3000E9FFF4CFEAFF7B0EE926000EEA22040E2B
:103D4000E926000EEA226CC1EEFF6DC1EEFF6EC1E6
:103D5000EEFF6FC1EEFF96EC13F095EC08F0AEECC1
:103D60000FF046C157F147C158F148C159F149C157
:103D70005AF14AC15BF14BC15CF14CC15DF14DC1DF
:103D80005EF14EC15FF14FC160F150C161F151C1AF
:103D900062F152C163F153C164F154C165F155C17F
:103DA00066F156C167F1050EE15C02E2E16AE55297
:0A3DB000E16EE552E7CFD9FF1200E3
:063DBA00D9CFE6FFE1CFC6
:103DC000D9FFE652080EDF6E898489948992FD0E30
:103DD000DBBE02D0899601D08986DBCFF3FFF39E4C
:103DE000F346F3CFDBFF8982DF06F0E1080EDF6EDA
:103DF0008992FE0EDBBE02D0899601D08986DBCF88
:103E0000F3FFF39EF346F3CFDBFF8982DF06F0E199
:103E10008984100EDF6EDF5002E0DF06FCD7899444
:103E200089868982E552E552E7CFD9FF1200D9CFC2
:103E3000E6FFE1CFD9FF050EE126030EDB6ADE5275
:103E4000010EDD6EDF6A080EDF5C22E2DFCFE6FFE7
:103E5000C7D8E552050EF36E020EF3CFDBFFDB5041
:103E600003E0020EDB06FBD784A209D0030EDBCFF2
:103E7000E7FF010EDB50E712030EE7CFDBFF010E79
:103E8000DBCFF3FFF39EF346F3CFDBFFDF2ADBD775
:103E9000040EDB6ADE52010EDD6E080EDF6E100EC0
:103EA000DF5C22E2DFCFE6FF9BD8E552050EF36E22
:103EB000020EF3CFDBFFDB5003E0020EDB06FBD785
:103EC00084A209D0040EDBCFE7FF010EDB50E7121E
:103ED000040EE7CFDBFF010EDBCFF3FFF39EF346CB
:103EE000F3CFDBFFDF2ADBD7030EDB1CE76E030E0D
:103EF000E7CFDBFFDB50800BE840E8403F0B066E6E
:103F0000030EDB50400B056E030EDB50200BE84028
:103F10007F0B046E030EDB50100B080DF3CF03F084
:103F2000030EDB50080B026E030EDB50040BE8405F
:103F3000E8403F0B016E030EDB50020B006E030ED8
:103F4000DB50010B040DF3500010011002100310A0
:103F50000410051006100201456F040EDB1CE76E0D
:103F6000040EE7CFDBFFDB50800BE840E8403F0B5F
:103F7000066E040EDB50400B056E040EDB50200B6A
:103F8000E8407F0B046E040EDB50100B080DF3CFDE
:103F900003F0040EDB50080B026E040EDB50040B22
:103FA000E840E8403F0B016E040EDB50020B006E50
:103FB000040EDB50010B040DF35000100110021031
:103FC00003100410051006100201446F050EE15C99
:103FD00002E2E16AE552E16EE552E7CFD9FF120055
:103FE000D9CFE6FFE1CFD9FF8998899A8D90899042
:103FF000FE0EDBB08988DBB2898ADBB48D80DBB64C
:104000008980E552E7CFD9FF1200D9CFE6FFE1CF93
:10401000D9FF020EE126026A020145510210DE6E4E
:1040200044C2DDFFDECF00F0DDCF01F000C0F3FFC2
:1040300001C0F4FF020EE15C02E2E16AE552E16ECA
:10404000E552E7CFD9FF1200D9CFE6FFE1CFD9FF84
:10405000020EE12642C2DFFF0F0EDF14100DF00E3C
:10406000DF14E8380F0BF310DF6E330EDF14040D8E
:10407000CC0EDF14E840E8403F0BF310DF6E550E26
:10408000DF14E824006EAA0EDF14E8407F0B001056
:10409000DF6E010E43C2DBFFDB500F0B100D010E74
:1040A000DB50F00BE8380F0BF310E76E010EE7CF93
:1040B000DBFFDB50330B040DF3CF00F0010EDB50C0
:1040C000CC0BE840E8403F0BF310E76E010EE7CF62
:1040D000DBFFDB50550BE824006E010EDB50AA0B12
:1040E000E8407F0B0010E76E010EE7CFDBFFDFCF6C
:1040F000E6FFDBCFE6FF61DEE552E552020EE15C52
:1041000002E2E16AE552E16EE552E7CFD9FF120023
:10411000D9CFE6FFE1CFD9FFFE0EDBCF01F001C022
:1041200000F001500201426FFF0EE76EFD0EDBCF83
:1041300000F0E7500016016A00C043F2E552E7CFF5
:10414000D9FF1200D9CFE6FFE1CFD9FFFE0EDB5039
:10415000140DF3CF00F0F4CF01F0950E0026010E00
:10416000012200C0F3FF01C0F4FFE552E7CFD9FF01
:1041700012000A861200D9CFE6FFE1CFD9FFE6523E
:10418000DF6AFE0EDB50DF5C18E2000000009EA834
:10419000FED700000000DF50E76EFC0EDBCFE9FF2A
:1041A000FD0EDBCFEAFFE750E926000EEA22EF50D2
:1041B000AD6E00000000DF2AE4D7E552E552E7CFFC
:1041C000D9FF1200D9CFE6FFE1CFD9FF00000000F0
:1041D0009EA8FED700000000FE0EDB50AD6E000072
:1041E0000000000000009EA8FED700000000FD0EA9
:1041F000DB50AD6E00000000E552E7CFD9FF1200A2
:10420000D9CFE6FFE1CFD9FF000000009EA8FED77E
:1042100000000000FE0EDB50AD6E0000000000004C
:1042200000009EA8FED700000000FD0EDB50AD6E22
:1042300000000000000000009EA8FED70000000063
:10424000FC0EDB50AD6E00000000E552E7CFD9FF59
:104250001200D9CFE6FFE1CFD9FFE652FE0EDBCF49
:1042600001F001380F0BE850DF6ED950FD0FE96EF9
:10427000FF0EDA20EA6EEE520F0EED16DF50026EE0
:10428000036A0C0ED89002360336E806FBE1000EF6
:104290000226500E0322FD0EDB500224006EFE0E9D
:1042A000DB500320016E00C0F3FFF46EE552E552CF
:0642B000E7CFD9FF120068
:0A42B600D9CFE6FFE1CFD9FFE652B1
:1042C000FE0EDB500F0BDF6E0A0EDF5C03E2300EDA
:1042D000DF2403D00A0EDF5C610FE552E552E7CF21
:1042E000D9FF1200D9CFE6FFE1CFD9FFE652FB0E8E
:1042F000DB500F0BDF6EFC0EDB50006E016AD950F5
:10430000FD0FE96EFF0EDA20EA6E0050EE26015036
:10431000ED22FB0EDB500F0BE66ECDDFE552E66EB5
:10432000FD0EDBCFE9FFDB06FE0EDBCFEAFF01E28D
:10433000DB06E552E750EF6EFB0EDB380F0B0F0B81
:10434000E66EB9DFE552E66EFD0EDBCFE9FFFE0E4D
:10435000DBCFEAFFE552E750EF6EE552E552E7CFDB
:10436000D9FF1200D9CFE6FFE1CFD9FF070EE12632
:10437000FC0EDBCF02F0036A02BE0368FD0EDB50C9
:104380000224006EFE0EDB500320016E020E005E62
:10439000000E015A050E00C0DBFF060E01C0DBFF58
:1043A000FB0EDB50DF6E010EDB6A040EDB6A010ED2
:1043B000DB50F76A100FF66E100EF7220800020E9F
:1043C000F5CFDBFFF55027E0030EDB6A020EDB5072
:1043D000DF5C06E3020EDB50DF5E030EDB2AF6D75E
:1043E000FB0EDB50DF5C0FE2030EDB50300FE66E9E
:1043F000050EDBCFE9FF060EDBCFEAFFE552E75003
:10440000EF6E040EDB2A050EDB2A060E01E3DB2A23
:10441000010EDB2ACCD7300EDF26050EDBCFE9FFFD
:10442000060EDBCFEAFFDFCFEFFF040EDB2AFC0E28
:10443000DBCFE6FF040EDB50E552E75C006E070EB3
:10444000E15C02E2E16AE552E16E0050E552E7CF3D
:10445000D9FF1200D9CFE6FFE1CFD9FF020EE12646
:10446000FB0EDB50800B02E1000E01D0010EDF6E6F
:10447000D950FA0FE96EFF0EDA20EA6E000ED880EE
:10448000EE54000EED540BE2FA0EDBCF00F0FB0E03
:10449000DBCF01F0000E005C800E015802E3000E3D
:1044A00001D0010EE76E010EE7CFDBFFFC0EDB5003
:1044B000006E016AD950FD0FE96EFF0EDA20EA6E38
:1044C0000050EE260150ED22FA0EDBCF00F0FB0E7D
:1044D000DBCF01F0FF0E00167F0E0116FF0E001855
:1044E00024E17F0E011821E1FD0EDBCFE9FFDB06A1
:1044F000FE0EDBCFEAFF01E2DB06660EEF6EFD0E7D
:10450000DBCFE9FFDB06FE0EDBCFEAFF01E2DB06D5
:104510006E0EEF6EFD0EDBCFE9FFDB06FE0EDBCF8E
:10452000EAFF01E2DB06690E7FD00F0EE76EFA0E9E
:10453000DBCF00F0FB0EE7500016016A300E0024BE
:10454000E66EFD0EDBCFE9FFDB06FE0EDBCFEAFFFA
:1045500001E2DB06E552E750EF6EFD0EDBCFE9FF2F
:10456000DB06FE0EDBCFEAFF01E2DB062E0EEF6E6E
:10457000D950FA0FE96EFF0EDA20EA6E040E0F0B27
:1045800006E0EC52D890ED32EF32E806FAE10F0E79
:10459000E76EFA0EDBCF00F0FB0EE7500016016A63
:1045A000300E0024E66EFD0EDBCFE9FFDB06FE0ECB
:1045B000DBCFEAFF01E2DB06E552E750EF6ED950B0
:1045C000FA0FE96EFF0EDA20EA6E040E0F0B06E01A
:1045D000EC52D890ED32EF32E806FAE10F0EE76EBA
:1045E000FA0EDBCF00F0FB0EE7500016016A000E5A
:1045F000D8800054000E015418E20F0EE76EFA0E38
:10460000DBCF00F0FB0EE7500016016A300E0024ED
:10461000E66EFD0EDBCFE9FFDB06FE0EDBCFEAFF29
:1046200001E2DB06E552E750EF6EDF5008E0FD0ED9
:10463000DBCFE9FFFE0EDBCFEAFF2D0E0AD0010E25
:10464000DB5008E0FD0EDBCFE9FFFE0EDBCFEAFF1B
:104650002B0EEF6E020EE15C02E2E16AE552E16EC2
:10466000E552E7CFD9FF1200D9CFE6FFE1CFD9FF5E
:10467000E652DF6ADF50E76EFB0EDBCFF6FFFC0E83
:10468000DBCFF7FFE750F626000EF7220800F550C3
:1046900023E0140EDF5C20E2DF50E76EFB0EDBCF81
:1046A000F6FFFC0EDBCFF7FFE750F626000EF722F1
:1046B0000800F550E66EDF50E76EFD0EDBCFE9FF38
:1046C000FE0EDBCFEAFFE750E926000EEA22E552B4
:1046D000E750EF6EDF2ACED7140EDF5C10E2DF501A
:1046E000E76EFD0EDBCFE9FFFE0EDBCFEAFFE75002
:1046F000E926000EEA22200EEF6EDF2AEDD7E55202
:10470000E552E7CFD9FF1200D9CFE6FFE1CFD9FFBD
:10471000290EF36EFE0EDBCFF4FFF350F45C04E3DE
:10472000FE0EDB50620805E2040E006E4D0E016EB7
:104730000CD0FE0EDB50D70F040DF3CF00F0F4CFFA
:1047400001F02A0E00264A0E012200C0F3FF01C02C
:0A475000F4FFE552E7CFD9FF120095
:06475A00D9CFE6FFE1CF1C
:10476000D9FFE65201018E6B8F6B906B916B926B50
:10477000936BF29EF29C9D908C8EDF6A500EDF5CF4
:104780000AE2CD909E90CE6ACF6ACD809EA0FED7E1
:104790009E90DF2AF3D79D80F28EF28CE552E5528F
:1047A000E7CFD9FF1200D9CFE6FFE1CFD9FF020E44
:1047B000E12601018F51000842E3010E94C1DBFFA5
:1047C000FE0EE66E46D8E552450EE66E42D8E5523C
:1047D000010EDB50030A0CE0010A08E0030A04E0C2
:1047E000010A0AE1E66A06D0400E03D0140E01D099
:1047F000540EE66E2ED8E552DF6A140EDF5C18E226
:10480000010EDB50140DF3CF00F0F4CF01F0950E44
:104810000026010E0122DF500F010024E96E000E78
:104820000120EA6EEF50E66E14D8E552DF2AE5D794
:104830000101942B040E945D02E3946B0A94020E22
:10484000E15C02E2E16AE552E16EE552E7CFD9FFB1
:104850001200D9CFE6FFE1CFD9FF180E01018E5D1E
:104860000DE28E51EA6A760FE96E010EEA22FE0E23
:10487000DBCFEFFF8E2B935101E104D8E552E7CF58
:10488000D9FF1200F29EF29C0101020E926F010EFE
:10489000936FCD90BC0ECE6EFC0ECF6ECD80F28E9F
:1048A000F28C12009E90CD90820ECE6EFD0ECF6ED9
:1048B000CD8001019251030A13E0010A03E0020ACC
:1048C00033E01200030E926F010E916F8F51EA6A6E
:1048D000760FE96E010EEA22EFCF90F18C9E120066
:1048E000915119E18C8E8F2B8E518F5D09E3926B64
:1048F000936B8F6B8E6BCD909E90CE6ACF6A1200B9
:104900008F51EA6A760FE96E010EEA22EFCF90F13D
:10491000020E926F120090A102D08C8E01D08C9E5C
:0A49200090919043919F914712007F
:06492A00FFFF04F543F459
:1049300007F481F360F344F329F317F306F395F2D8
:1049400086F278F270F262F255F249F242F236F2F1
:1049500031F225F220F215F210F205F201F296F191
:1049600092F188F184F180F176F172F168F165F1EC
:1049700061F158F154F151F148F144F141F138F14C
:1049800035F132F129F126F123F120F117F114F17B
:1049900011F109F106F103F100F198F095F092F0B0
:1049A00090F087F085F082F079F077F074F072F093
:1049B00070F067F065F062F060F057F055F053F07A
:1049C00050F048F046F043F041F039F037F034F061
:1049D00032F030F028F025F023F021F019F017F034
:1049E00014F012F010F008F006F004F001F00000EE
:1049F0000200040006000800100012001500170055
:104A00001900210023002500270029003100330070
:104A10003500370039004100430045004700490098
:0A4A200051005300550057006000DC
:064A2A0043686F31436890
:104A30006F32436D7031436D703243727331437224
:104A40007332446C7931446C7932447276314472F9
:104A50007632456E6831466C7431466C7432466C01
:104A60007433466C7434466C6731466C6732466DFD
:104A70006E7446786C70477465314774653247656B
:104A800071314765713247657133476571344D65E2
:104A900067614D636D314D636D324D6479314D64A5
:104AA000793250657132506571335065713450659B
:104AB0007131506872315068723250697431506986
:104AC0007432516368315163683252736E3152737C
:104AD0006E32527662315276623252696E67527429
:104AE00072315274723253796E3153796E3254721C
:104AF0006D3154726D32566F636F566F6C31566FF5
:104B00006C32566F6C33566F6C3457616831576135
:024B1000683209
:0E4B12000400B9EC26F00400ADEC23F0040022
:104B2000FE0EE66E29EC24F0E552510EE66E29ECFD
:104B300024F0E552FE0EE66E29EC24F0E552520E0A
:104B4000E66E29EC24F0E552140EE66E29EC24F012
:104B5000E55217EC1FF0FDEC14F00400F28EF28C1D
:104B600009A605D00996E66A47EC26F0E55209A8A1
:104B700006D00998200EE66E47EC26F0E55209A013
:104B800003D0099012EC27F00AA003D00A9017EC8A
:104B90001FF009AA03D0099A24EC20F00AA203D03E
:104BA0000A9297EC18F009AE03D0099EE4EC1AF0D3
:104BB0000A50080B05E00A50040B02E10A840A9629
:104BC0000A50040B05E00101925102E1D3EC23F0FD
:044BD000C4D7120034
:0C4BD400DACFE4FFE2CFDAFFE9CFE4FF24
:104BE000EACFE4FFF6CFE4FFF7CFE4FFF5CFE4FF31
:104BF000F3CFE4FFF4CFE4FFFACFE4FF00EE0CF0D4
:104C0000020EE80403E3EECFE4FFFBD700EE00F072
:104C1000080EE80403E3EECFE4FFFBD7E6529EA0C4
:104C200002D052EC24F09EA208D09E920201462BA4
:104C3000040E465D02E1466B0980E55200EE07F086
:104C4000080EE80403E3E5CFEDFFFBD700EE0DF01F
:104C5000020EE80403E3E5CFEDFFFBD7E5CFFAFF53
:104C6000E5CFF4FFE5CFF3FFE5CFF5FFE5CFF7FFA5
:104C7000E5CFF6FFE5CFEAFFE5CFE9FFE5CFDAFFC5
:024C8000110021
:0E4C8200550EA76EAA0EA76EA6821200D9CFFD
:104C9000E6FFE1CFD9FFE652E00E02010017840ED5
:104CA000A66EFE0EDB50DF6EFE0EDB50200FDF5CCB
:104CB0001AE2DF50EA6A020FE96E020EEA22EFCF33
:104CC00000F0DF500201F76A0025F66E0151F7226D
:104CD000F86A00C0F5FF0C001F0EDF141F0801E189
:104CE000D0DFDF2AE1D7E552E552E7CFD9FF120046
:104CF000940EA66E00C2F6FF01C2F7FFF86AC1DF8C
:044D0000F86A12003B
:0C4D040020202020005F5F756E6E616D46
:104D1000656420736F6E67202320202020005820B8
:104D20002030204B202030204920312F20312030CE
:104D30002F300058202030204B20203020532031AD
:104D40002F203120302F3000202020202020202034
:104D5000202020202020202020202020004320313F
:104D60006120202020202020302E30202D2D2D2DA0
:024D70002D0014
:0E4D7200EAEC26F0896A8A6A8B6A8C6A8D6A7E
:104D8000926A100E936EF80E946E956A020E966EED
:104D9000A60EAC6E900EAB6E3F0EAF6EB06A400EBC
:104DA000C26E0E0EC16E060EC06E200EF26E800E2A
:104DB000F16ED08ED76AD66A420ED56ECF6ACE6AB1
:104DC000CD6ACC6AF90ECB6E0D0ECA6E030E9D6EC7
:044DD000F28E12004D
:0C4DD400EA6AE96A0400EE6AEAA6FCD76D
:104DE0001200000EF36E00EE00F0080E01D8120063
:104DF000EA6002D0EE6AFCD7F350E9601200EE6A76
:024E0000FCD7DD
:0E4E020017EE00F027EE00F0F86A0D9CEA6A49
:104E1000E96A0400EE6AEAA609EF27F089EC25F0BA
:044E2000FDD71200A8
:0C4E24000201472B0A0E475D0BE1476BB3
:104E3000098E098A0A820201482B040E485D02E1AC
:064E4000486B0A8012001D
:0A4E4600F000017403020D012000CA
:064E50000000000100F764
:10500000033826061724352D1F11192000142F23CD
:1050100013020B2605071B0F2A011509101E30313C
:1050200021322E031D1627180DFFFFFFFFFFFFFF84
:10503000FFFFFFFFFFFFFFFFFFFFFFFFFFFFFFFF80
:10504000FFFFFFFFFFFFFFFFFFFFFFFFFFFFFFFF70
:10505000FFFFFFFFFFFFFFFFFFFFFFFFFFFFFFFF60
:10506000FFFFFFFFFFFFFFFFFFFFFFFFFFFFFFFF50
:10507000FFFFFFFFFFFFFFFFFFFFFFFFFFFFFFFF40
:105080005E1A444D38292F4E392A305E1A4456385C
:10509000292F57392A305E1A444D38292F4E392A84
:1050A000305E1A444D38292F4E392A305E1A444D4D
:1050B00038292F4E392A305E1A444D38292F4E395F
:1050C0002A305E1A444D38292F4E392A305E1A4450
:1050D0004D38292F4E392A305E1A444D38292F4E2B
:1050E000392A305E1A444D38292F4E392A305E1A3B
:1050F000444D38292F4E392A3000000000000000AE
:105100004D6F6E6B6579205772656E6368000000A5
:10511000000000000032AF44000001000080620087
:10512000008062000000000000000000000000009D
:10513000000000000000000000000000000000006F
:10514000000000000000000000000000000000005F
:10515000000000000000000000000000000000004F
:10516000000000000000000000000000000000003F
:10517000000000000000000000000000000000002F
:105180005A65726F0000000000000000000000007F
:105190000000000000328170000007000080620003
:1051A000008062000080620000897F000080620051
:1051B000008062000080620000897F000080620041
:1051C000008062000080620000887F000080620032
:1051D00000806200000000000000000000000000ED
:1051E00000000000000000000000000000000000BF
:1051F00000000000000000000000000000000000AF
:10520000427564647920486F6C6C7900000000007E
:1052100000000000003279000000030000806200FE
:10522000008062000080620000887F0000806200D1
:10523000008062000000000000000000000000008C
:10524000000000000000000000000000000000005E
:10525000000000000000000000000000000000004E
:10526000000000000000000000000000000000003E
:10527000000000000000000000000000000000002E
:10528000506C757368000000000000000000000012
:105290000000000000329100000001000080620068
:1052A0000084620000000000000000000000000018
:1052B00000000000000000000000000000000000EE
:1052C00000000000000000000000000000000000DE
:1052D00000000000000000000000000000000000CE
:1052E00000000000000000000000000000000000BE
:1052F00000000000000000000000000000000000AE
:1053000044726976650000000000000000000000A3
:105310000000000001325B700000030000406200EA
:105320000040620000897500004062000040620099
:1053300000406200000000000000000000000000CB
:10534000000000000000000000000000000000005D
:10535000000000000000000000000000000000004D
:10536000000000000000000000000000000000003D
:10537000000000000000000000000000000000002D
:10538000436F6D652041726F756E64000000000010
:105390000000000000326200000003000080620094
:1053A000008062000080620000887A000080620055
:1053B000008062000000000000000000000000000B
:1053C00000000000000000000000000000000000DD
:1053D00000000000000000000000000000000000CD
:1053E00000000000000000000000000000000000BD
:1053F00000000000000000000000000000000000AD
:105400005A656E000000000000000000000000006F
:1054100000000000003287000000070000806200EA
:1054200000887A00008062000080620000806200D4
:1054300000887A00008062000080620000806200C4
:1054400000887A00008062000088620000806200AC
:10545000008062000000000000000000000000006A
:10546000000000000000000000000000000000003C
:10547000000000000000000000000000000000002C
:1054800053616E646D616E0000000000000000005A
:105490000000000000327C000000090000006200F3
:1054A00000005D0000806200008059000080620002
:1054B000008062000080627000887A0000006270E4
:1054C00000886B0000006200000062000080620043
:1054D0000000620000806200008062000080627054
:1054E00000887A00000000000000000000000000BA
:1054F00000000000000000000000000000000000AC
:10550000437261776C696E67000000000000000064
:105510000000000000325E000000080000806241D0
:10552000008A5B00008062000080620000806241AF
:10553000008A5B000080620000806200008062419F
:10554000008A5B000080620000806200008062418F
:10555000008A5B00008062000080620000000000A2
:10556000000000000000000000000000000000003B
:10557000000000000000000000000000000000002B
:10558000536F6E6720320000000000000000000032
:1055900000000000003282700000060000806200FF
:1055A00000006200008062000080620000806200F3
:1055B00000006200008062000080620000806200E3
:1055C00000006200008062000080620000000000B5
:1055D00000000000000000000000000000000000CB
:1055E00000000000000000000000000000000000BB
:1055F00000000000000000000000000000000000AB
:105600005365782054797065205468696E6700008E
:1056100000000000003287000000010000806200EE
:105620000080620000000000000000000000000098
:10563000000000000000000000000000000000006A
:10564000000000000000000000000000000000005A
:10565000000000000000000000000000000000004A
:10566000000000000000000000000000000000003A
:10567000000000000000000000000000000000002A
:10568000426C7565204361727300000000000000E9
:105690000000000000326500000009000080620088
:1056A0000088620000806200000C620000806200DE
:1056B0000088620000806200000C620000806200CE
:1056C000008862000080620000887500008062002F
:1056D000000C6200008062000088620000806200AE
:1056E00000887500000000000000000000000000BD
:1056F00000000000000000000000000000000000AA
:10570000496E20426C6F6F6D0000000000000000C9
:105710000000000000325000000003000080620022
:10572000008062000080620000807F0000806200D4
:105730000080620000000000000000000000000087
:105740000000000000000000000000000000000059
:105750000000000000000000000000000000000049
:105760000000000000000000000000000000000039
:105770000000000000000000000000000000000029
:1057800048617368205069706500000000000000E7
:105790000000000000327E00000003000080620074
:1057A000008062000080620000887F00008062004C
:1057B0000080620000000000000000000000000007
:1057C00000000000000000000000000000000000D9
:1057D00000000000000000000000000000000000C9
:1057E00000000000000000000000000000000000B9
:1057F00000000000000000000000000000000000A9
:105800004D79204865726F00000000000000000024
:105810000000000000329A000000010000806200D9
:105820000080620000000000000000000000000096
:105830000000000000000000000000000000000068
:105840000000000000000000000000000000000058
:105850000000000000000000000000000000000048
:105860000000000000000000000000000000000038
:105870000000000000000000000000000000000028
:105880004D616368696E65686561640000000000D1
:105890000000000000326E51000001000080620034
:1058A0000080620000000000000000000000000016
:1058B00000000000000000000000000000000000E8
:1058C00000000000000000000000000000000000D8
:1058D00000000000000000000000000000000000C8
:1058E00000000000000000000000000000000000B8
:1058F00000000000000000000000000000000000A8
:10590000486F6C69646179000000000000000000CD
:10591000000000000032A8000000030000806200C8
:1059200000806200008875000080620000806200D4
:105930000080620000000000000000000000000085
:105940000000000000000000000000000000000057
:105950000000000000000000000000000000000047
:105960000000000000000000000000000000000037
:105970000000000000000000000000000000000027
:10598000427261696E205374657700000000000068
:105990000000000000324C50005C010000806200FA
:1059A0000080620000000000000000000000000015
:1059B00000000000000000000000000000000000E7
:1059C00000000000000000000000000000000000D7
:1059D00000000000000000000000000000000000C7
:1059E00000000000000000000000000000000000B7
:1059F00000000000000000000000000000000000A7
:105A0000426F756E6400000000000000000000009E
:105A100000000000003278000000030000806200F7
:105A20000080620000806200008C620000806200E2
:105A30000080620000000000000000000000000084
:105A40000000000000000000000000000000000056
:105A50000000000000000000000000000000000046
:105A60000000000000000000000000000000000036
:105A70000000000000000000000000000000000026
:105A800043756D626572736F6D6500000000000004
:105A900000000000003251000000010000806200A0
:105AA0000080620000000000000000000000000014
:105AB00000000000000000000000000000000000E6
:105AC00000000000000000000000000000000000D6
:105AD00000000000000000000000000000000000C6
:105AE00000000000000000000000000000000000B6
:105AF00000000000000000000000000000000000A6
:105B00004C756D70000000000000000000000000F7
:105B10000000000000328F000000010000806200E1
:105B20000080620000000000000000000000000093
:105B30000000000000000000000000000000000065
:105B40000000000000000000000000000000000055
:105B50000000000000000000000000000000000045
:105B60000000000000000000000000000000000035
:105B70000000000000000000000000000000000025
:105B8000486579204A65616C6F7573790000000083
:105B90000000000000329A00000003300080620024
:105BA00000806230008062000088753000806200F2
:105BB0000080620000000000000000000000000003
:105BC00000000000000000000000000000000000D5
:105BD00000000000000000000000000000000000C5
:105BE00000000000000000000000000000000000B5
:105BF00000000000000000000000000000000000A5
:105C00004B727970746F6E6974650000000000005B
:105C1000000000000032640000000A000000620082
:105C2000000062000080620000806200008062006C
:105C3000000062000000620000006200008062005C
:105C400000806200008870000080620000887000A0
:105C5000000062000000620000006200008062003C
:105C60000080620000887000008062000000000078
