:020000040000FA
:0600000011EF00F01200F8
:0600080004EF08F01200F5
:080018000CEF08F060EF00F0AE
:020020001200CC
:0E002200400EC26E0E0EC16E060EC06E92989B
:10003000929A969092908998898A8D9089901DD8ED
:100040001CD81BD884A202D003D002D060EF00F0ED
:10005000060EF66E100EF76E0900F5CF10F00800D0
:10006000F5CF11F00D0E101802E1600E111802E12B
:0C00700000EF08F060EF00F0120012003A
:1000C000F26A13EE00F023EE00F0F86AFC6A6DA607
:1000D00002D082EC02F011D80400D3EC06F0E7EC79
:1000E00006F018D8060E0301B45D05E16D50020B51
:1000F00002E195EC00F0F0D71200140E6F6E0301D0
:10010000B46B0301B56B0301B66B8CEC00F08C9003
:1001100095901200120000000001E56BE969EA69A0
:10012000EB69E86B010EEC6F12000001E5511EE176
:10013000040108BF94D10001400EFE6F0001A10E22
:10014000FC6F000EFD6FA2EC06F00001010EE56FE2
:10015000ED6B400EED5D01E382D1ED51EA6A600F77
:10016000E96E000EEA22EF6AED2BF3D70001A151F0
:10017000080A01E171D1040A01E132D1050A01E165
:100180002DD10E0A01E1F6D0010A01E1EDD0030AFA
:1001900001E195D0010A4DE0070A41E0010A01E0C2
:1001A0005CD10001020E606F3A0E616F010E626F4A
:1001B000636F646B100E656F666B676BC00E686F64
:1001C0006D0E696F6A6B6B6B030E6C6F6D6B6E6B94
:1001D000300E6F6F706B0E0E716F726B736B746B92
:1001E000040E756F766B776B200E786F796B080E47
:1001F0007A6F7B6B7C6B7D6B020E7E6F7F6B806B8F
:10020000F00E816F826B836B010E846F856B866B42
:100210008769A50E996F04010CBF21D1DCD00001C4
:10022000010EEC6F0001A25101E013D10001EC6B53
:1002300010D1400E0001E66FE76B000EE65D020E86
:10024000E7591FE22FDAE6C000F0E7C001F0026ACA
:10025000060E1F0BE6C0F6FFE7C0F7FF02C0F8FF6F
:1002600006E0D890F636F736F836E806FAE1940E4E
:10027000A66E24DAE7EC06F00001E62B000EE72379
:10028000DCD7ED6BEDC0A9FFA868040EA66EE7EC05
:1002900006F014DA0001ED51ED2B006E016A026ADE
:1002A000FF0E005C000E0158000E0258EBE3F66AE8
:1002B000F76A200EF86E940EA66E00DACAD0300EE1
:1002C000A45D06E10001EC5101E0C3D092D9C1D098
:1002D000F00EA45D02E1B3D9BCD0E8680001E919D1
:1002E0000CE1E868EA1909E1E868EB1906E1A2C047
:1002F000E9F0A3C0EAF0A4C0EBF0E90EE96E000E4D
:10030000EA6EEE500001A21901E0A3D0EE50A3194D
:1003100001E09FD0EE50A41901E09BD001E099D0FC
:100320000001ED6B0001A6510001ED5D01E391D0EC
:10033000BDD9A70FE96E000EEA22EF50E66EE85134
:10034000EA6A600FE96E030EEA22E552E750EF6EAB
:10035000E82BE92B000EEA23EB23200EE85D01E1F8
:10036000E4D80001ED2BDED7E0D80001E969EA69A5
:10037000EB6970D00001070E606FA2C061F0A3C0EE
:1003800062F0A4C063F0A5C064F0A6C065F0A2C08E
:10039000F6FFA3C0F7FFA4C0F8FF0001ED6B00015A
:1003A000A6510001ED5D14E2F00E0001A45D0AE12A
:1003B000A2510001ED25A96EA66AA68084D9A8CF16
:1003C000EFFF04D071D97FD9F5CFEFFFED2BE7D741
:1003D00004010CBF44D00001400E33D041D839D0C5
:1003E00000010C0E606F010E616F626F160EF66EEB
:1003F000100EF76E0900F5CF63F00A00F5CF64F038
:10040000060E656F100E666F676B686B0D0E696F79
:10041000600E6A6F400E6B6F6C6B6D6B6E6B6F690D
:10042000706971697269736B74697569766B7769E4
:10043000786979697A697B697C6904010CBF0FD09E
:100440000001FA6F0001600EF86F000EF96F7CEC8E
:1004500006F00001E56B120050D80001E56B1200B8
:10046000F66A100EF76EF86A0001EE6B400E00019E
:10047000EE5D0DE209000001EE51EA6A600FE96EDF
:10048000030EEA22F5CFEFFF0001EE2BEFD70301B9
:100490000D0E666F0301600E676FF66A100EF76E41
:1004A000F86A940EA66E0001B50EF46FE8D83F0E00
:1004B000F66E100EF76EF86A00013F0EEE6F000147
:1004C000EE51EA6A600FE96E030EEA22EF50F56E14
:1004D0000C000001EE511F0B07E1E4D8A40EA66E3C
:1004E0000001B50EF46FCBD80A000001EE5101E116
:1004F00003D00001EE07E3D7120004D8FF0000008C
:10050000000012000301B869B9690301B8C300F023
:10051000B9C301F0B807000EB95B0050011004E048
:100520006D926D6ABFD8F1D712000001F06BE8C080
:1005300000F0016A026A00500001E95DF66E0150A8
:100540000001EA59F76E02500001EB59F86E1F0ED8
:10055000F6140001F16FE00EF6160001EF6B200EAD
:100560000001EF5D1FE20001F15115E10001E851CA
:100570000FE00001F051EA6A600FE96E030EEA2213
:10058000EF50F56E0D000001F02B0001E80702D0DE
:10059000F5680D0004D0F5680D000001F1070001B9
:1005A000EF2BDDD70A00A40EA66E0001B50EF46F86
:1005B00066D80001EF6B0001E8510001EF5D18E221
:1005C0000001F0510001EF25EA6A600FE96E030EA9
:1005D000EA22EF50E66E0001EF51EA6A600FE96E21
:1005E000030EEA22E552E750EF6E0001EF2BE3D74E
:1005F0001200A2C0F6FFA3C0F7FFA4C0F8FF0001DD
:10060000F26B0001A6510001F25D18E23A0E000102
:10061000D880A6550001F225EA6AA70FE96E000E00
:10062000EA22EF50F56E0C00C40EA66E0001B50E66
:10063000F46F25D809000001F22BE3D71200000166
:10064000F36B0001A6510001F35D18E20001A25115
:100650000001F325A96E3A0E0001D880A6550001CD
:10066000F325EA6AA70FE96E000EEA22EF50A86EA2
:10067000040EA66E23D80001F32BE3D71200F29EDE
:10068000B50E0001F45D05E0030ED36E0300FED746
:10069000FF00550EA76EAA0EA76EA682A6B2FED7C1
:1006A000A694120004001200090012003A0E000184
:1006B000D880A6550001ED25EA6A12000001B50EAA
:1006C000F46F3FEF03F0F2DF660FE96E000EEA22EF
:1006D00012006C5033E16896040100513C0BE84273
:1006E000E8420D0829E1180E021924E1040E03194D
:1006F00021E1100E026F040E036F0301A96BA951D3
:10070000006E016A080E005C000E015813E2A95148
:10071000EA6A180FE96E040EEA22EF50E66EA9515C
:10072000EA6A100FE96E040EEA22E552E750EF6E16
:10073000A92BE5D70AD8010C3AD8010C040E6C5C41
:1007400003E168964BD8010C000C040104BF046B54
:100750000301A86BA06BA16BA66BA76BC5EC04F0A3
:100760000301AA6BAA51006E016A010E005C000E23
:1007700001581BE2A15119E1AA51F66EF76AD8900F
:10078000F636F736BE0EF6260F0EF7220900F5CF25
:1007900000F00800F5CF01F004D001C0FAFF0050CE
:1007A000F96EFBDF0301AA2BDDD76DEF04F0020E1B
:1007B0000301A05D0EE178D80401180E026F040E4B
:1007C000036F080E016F00BD02D0C80E05D0880E61
:1007D00003D0BCD8CBD88C0E006F1200040E0301DE
:1007E000B45D09E112C46EFF6E50000802E2050E0E
:1007F00001D0030EB46F0301A00510E111D8020E61
:100800000301A85D03E10401840E06D0040104BDC8
:1008100002D0C80E01D0880E046F1200A6EF04F0BB
:100820000301080EA65D000EA7590DE2A6C3ABF3A7
:10083000A7C3ACF3A85102E1010E03D0A80506E15D
:10084000020EA86F03D0080EAB6FAC6B04010493CB
:1008500004910301AC5104010413ABC305F403017B
:10086000AB51A65DA66FAC51A759A76F180EA46F28
:10087000040EA56F0301B5A30ED00301AB51AC115B
:1008800012E0A2C3F6FFA3C3F7FF0800F55063D838
:10089000AB07AC5BF2D70301AB51AC1104E06ED8EF
:1008A000AB07AC5BF8D71200030E0401001503017F
:1008B000AE6F01C4ADF3A651AD25A66FA751AE2111
:1008C000A76F180EA26F040EA36FAD51AE1104E016
:1008D00055D8AD07AE5BF9D712006D980301A15151
:1008E00005E144D8840E006F04011DD0040110AF4F
:1008F0001CD00301A6510401165D0301A751040198
:10090000175904E216C4A6F317C4A7F389DF03013D
:10091000010EA06F2BD8800E006F0401180E066F19
:10092000040E076FC80E046F12000301020EA06FC1
:100930000401056BC80E046F0401080E016F180E48
:10094000026F040E036FC80E006F12000301A06B4C
:100950000401046B1200A4C3E9FFA5C3EAFFEF6E14
:10096000A42B000EA523A22BA32312000401080E22
:10097000016F100E026F040E036F1200A2C3E9FF95
:10098000A3C3EAFFEF50ABEF04F004011051600B7A
:10099000E842E842E842E842E842000901E0120089
:1009A0001151070A40E00B0A3EE0070A33E0010A52
:1009B00023E00B0A1FE0020A1DE0030A19E0080AFF
:1009C00010E0010A0CE00F0A08E0030A01E012003F
:1009D0000DD90301040EB46F120014EF05F04BEFB4
:1009E00005F004D90301B60EA26F030EA36F0CD05D
:1009F0006AEF05F09AEF05F0FDD80301A26FA36B33
:100A0000B70EA227030EA3230301B5930301010E22
:100A1000A66F1200EFD8EA6AB70FE96E030EEA225A
:100A200012C4EFFF12001200800E0401105D32E1CB
:100A30001351030A1FE0010A0AE0030A29E1D6D88C
:100A40000301FE0EA26F0E0EA36F120E1ED0B4D8BD
:100A5000B40EF6260F0EC2D8020E0301F76AA225C5
:100A6000F66EA351F7220900F5CFA6F30A00F5CFE1
:100A7000A7F30ED0A1D8B80EF6260F0EAFD8A2C39A
:100A8000F6FFA3C3F7FF0800F5500301A66FA76B9D
:100A90000301B5831200AAD8716A726A736A746A14
:100AA000756A766A776A0301B36F0301B70EB16F97
:100AB000030EB26F73EC07F012C4B6F304011251C7
:100AC00004E10301050EB46F12000301060EB46FBA
:100AD00067EF06F00401186B196B040110511F0B2E
:100AE000020A0DE0030A09E0010A16E17FD80301BA
:100AF000B5A112D0040118830FD078D80DD050D8EA
:100B000001E0010E62D8A4C3E9FFEA6EEF50040BC6
:100B100003E00401010E186F0301A1050AE10301BE
:100B2000180EA26F040EA36F0301B5930301020E0A
:100B3000A66F1200040112050EE110511F0B0009EF
:100B40000AE154D8030E0401115D03E10301B581EC
:100B500002D00301B5910401125121E110511F0B84
:100B600002081DE114510F0B000919E019D801E02A
:100B7000010E2BD8030E0401115D02E1840E03D097
:100B800014AF07D0400EA4C3E9FFA5C3EAFFEF6E80
:100B90001200880EA4C3E9FFA5C3EAFFEF6E12009E
:100BA00029D80F0B080DF350016A000F006E040ED8
:100BB00001221451800B120019D804011251F66E53
:100BC000F76AD890F636F7361200040DF350030199
:100BD0000024A46F000E0120A56F1200F722090067
:100BE000F5CFA2F30A00F5CFA3F312000301010E23
:100BF000A16F1200FBDF0401145112000401105117
:100C00001F0B010801E01200145101E01200060E52
:100C1000115D24E11351230A1FE0010A0DE0030ACC
:100C20001BE1BDD80301B60505E10301220EA26F49
:100C30000F0EA36F090E0DD0B2D80301B60505E162
:100C40000301970EA26F0F0EA36F0301B60504E117
:100C50001D0E0301A66FA76B0301B583040110519C
:100C6000600BE842E842E842E842E842010801E05D
:100C7000120011510B0A25E0080A17E0090A11E0D9
:100C8000080A09E00B0A05E0080A01E0120065EF16
:100C900006F066EF06F083D80301F50EA26F000E92
:100CA00009D07DD813C4F5F0120079D80301F60EEF
:100CB000A26F000EA36F0301B5930301010EA66F8F
:100CC00012006DD812C4F6F01200120012000001DA
:100CD000F76B1E0E716E0401400E096F200E0A6F35
:100CE000040E0B6F880E086F0401600E0E6F040E69
:100CF0000F6F400E0C6F12000001FA51400802E223
:100D0000400EFA6FFB6BFA51FB5D13E2FB51EA6A8E
:100D1000F825E96EF951EA22EF50E66EFB51EA6AD6
:100D2000600FE96E040EEA22E552E750EF6EFB2BEE
:100D3000EAD7FAC00DF4400E04010C170C7D880EA2
:100D40000C1312000001F76B040108BF25D00951F4
:100D50000001D880FE5502E209C4FEF0F76BFE5197
:100D6000F75D13E2F751EA6A200FE96E040EEA22FA
:100D7000EF50E66EF751EA6AFC25E96EFD51EA2272
:100D8000E552E750EF6EF72BEAD70401400E096FEA
:100D90000817087D880E08130001F751120003019F
:100DA000020EA16F12006DB606D06D6A696A6D867B
:100DB0000301010EB46F0301B40508E16DBA06D05A
:100DC000686A696A69806988020EB46F120003015B
:100DD000B45101E1120068B445D86DB2120068B098
:100DE00058D868B817D868BA44D8030E0301B45D60
:100DF00001E212000301AF6B040EAF5D0AE268A6C8
:100E000008D069EC03F0000901E168960301AF2BFB
:100E1000F3D7120069CFB0F3040E696E68986D8243
:100E2000A19AA08A0300A150200B05E1D050080B25
:100E300002E10300F8D7A09A0301B051691203013F
:100E4000D50EB86F020EB96F0301B8C300F0B9C375
:100E500001F0B807000EB95B0050011002E0040079
:100E6000F3D712006D92699468A402D06894FCD7FD
:100E7000120070A00CD0800E0401005D07E1840E0A
:100E80000401045D03E104018C0E006F7090689A08
:100E900012006A6A686A9F0E6B6E7B0E696E6E6ADC
:100EA000716A726A736A746A756A766A776A160E0C
:100EB000706E68A604D0689652EC03F0FAD76D986D
:100EC000A6EC04F00401080E016F100E026F040E70
:100ED000036F8C0E006F0301B5910301B66B030124
:100EE000030EB46F1200B1C3E9FFB2C3EAFF0301FE
:100EF000B35104E0EE6A0301B307F9D712001201FF
:100F0000000200000008D8043C00010101020001B9
:100F100009022900010100C0320904000002030097
:100F20000000092111010001221D00070581034075
:100F30000001070501034000010403090434034DC7
:100F4000006900630072006F006300680069007050
:100F500000200054006500630068006E006F006CA4
:100F6000006F0067007900200049006E0063002ECA
:100F70000026034800490044002000550053004269
:100F800000200042006F006F0074006C006F006171
:100F9000006400650072000600FF0901A10119014B
:100FA0002940150026FF0075089540810019012988
:100FB000409100C0100F100F390F3D0F710FFC0B47
:100FC000000EF36E00EE00F0080E01D81200EA6089
:100FD00002D0EE6AFCD7F350E9601200EE6AFCD74B
:100FE000FFFFFFFFFFFFFFFFFFFFFFFFFFFFFFFF11
:100FF000FFFFFFFFFFFFFFFFFFFFFFFFFFFFFFFF01
:06100000E6EF28F01200EB
:021006000D607B
:0610080025EF27F01200A5
:021016000001D7
:0810180001001A5200009002D1
:06102000000012000000B8
:0A102600D9CFE6FFE1CFD9FF040E99
:10103000E126126A0001CA511210DE6ECBC0DDFF3C
:10104000DDC013F0126ADC5100011210106EDDC019
:1010500011F0020E10C0DBFF030EDDC0DBFF020E3D
:10106000DB50DF1804E1030EDB50DE52DD1806E032
:10107000DECF4BF2DDCF4CF2B6EC22F0040EE15C99
:1010800002E2E16AE552E16EE552E7CFD9FF1200D4
:10109000D9CFE6FFE1CFD9FF020EE126140E0201FF
:1010A0006D03F3506C25DF6EDFCFE9FFEA6AE9BE1E
:1010B000EA688C0EE926000EEA22010EEFCFDBFF74
:1010C000DB506E5D1FE06EC256F2DFCFE9FFEA6AC9
:1010D000E9BEEA68640EE926000EEA22EFCF55F277
:1010E0000201B20E546FF8EC22F0DFCFE9FFEA6A9A
:1010F000E9BEEA688C0EE926000EEA226EC2EFFF16
:10110000010E01D0000E106E020EE15C02E2E16AF7
:10111000E552E16E1050E552E7CFD9FF1200D9CF6A
:10112000E6FFE1CFD9FF060EE126DF6ADE52010EAF
:10113000DD6E0001E851D65D0DE0D6C053F202012C
:10114000C20E526FF1EC22F0D6EC15F0D9EC11F092
:10115000010EDF6E0001E951D75D09E0D7C053F2FF
:101160000201C90E526FF1EC22F0010EDF6E000198
:10117000DE51CC5D02E0010EDF6E030EDB6A020E73
:10118000F36E030EDBCFF4FFF350F45C01E3B2D156
:10119000030EDB50040DF3CFE9FFF4CFEAFFEC0EB2
:1011A000E926000EEA22020EE926000EEA22EF509E
:1011B000400B44E0010118510AE162C0F6FF63C030
:1011C000F7FFF62A000EF7220800F55001D018515B
:1011D000E66E030EDB50030DF3CFE9FFF4CFEAFF19
:1011E000F40EE926000EEA22E552E750EF6E020106
:1011F0006E6B030EDBCF6DF20201090E6C6F48DFE0
:10120000000902E0010EDF6E02016E6B030EDBCF00
:101210006DF202010B0E6C6F3BDF000902E0010E64
:10122000DF6E02016E6B030EDBCF6DF20201080E62
:101230006C6F2EDF000901E10DD10AD1030EDB50E6
:10124000040DF3CFE9FFF4CFEAFFEC0EE926000E20
:10125000EA22020EE926000EEA22EF50800B01E19D
:10126000A6D0030EDB50040DF3CFE9FFF4CFEAFF65
:10127000EC0EE926000EEA22EF500CE101011751B5
:1012800007E162C0F6FF63C0F7FF0800F5500ED01B
:1012900017510CD0030EDB50040DF3CFE9FFF4CF50
:1012A000EAFFEC0EE926000EEA22EF50E66E030E8E
:1012B000DB50030DF3CFE9FFF4CFEAFFF40EE9268C
:1012C000000EEA22E552E750EF6E030EDB50040DEC
:1012D000F3CFE9FFF4CFEAFFEC0EE926000EEA2295
:1012E000EE52EF5010E1010119510BE162C0F6FF1F
:1012F00063C0F7FF020EF626000EF7220800F55035
:101300000FD019510DD0030EDB50040DF3CFE9FFC0
:10131000F4CFEAFFEC0EE926000EEA22EE52EF507F
:10132000E66E030EDB50030DF3CFE9FFF4CFEAFFC7
:10133000F40EE926000EEA22EE52E552E750EF6E77
:1013400002017F0E6E6F030EDBCF6DF20201090EFC
:101350006C6F9EDE000902E0010EDF6E02017F0E5F
:101360006E6F030EDBCF6DF202010A0E6C6F90DE22
:10137000000902E0010EDF6E02017F0E6E6F030EA8
:10138000DBCF6DF202010B0E6C6F82DE000902E012
:10139000010EDF6E02017F0E6E6F030EDBCF6DF26A
:1013A0000201080E6C6F74DE000954E051D0010197
:1013B00018510AE162C0F6FF63C0F7FFF62A000E7B
:1013C000F7220800F55001D01851E66E030EDB50ED
:1013D000030DF3CFE9FFF4CFEAFFF40EE926000E88
:1013E000EA22E552E750EF6E02017F0E6E6F030EA8
:1013F000DBCF6DF20201090E6C6F4ADE000902E0DC
:10140000010EDF6E02016E6B030EDBCF6DF2020187
:101410000A0E6C6F3DDE000902E0010EDF6E020174
:101420007F0E6E6F030EDBCF6DF202010B0E6C6F41
:101430002FDE000902E0010EDF6E02016E6B030E6B
:10144000DBCF6DF20201080E6C6F22DE000902E0B4
:10145000010EDF6E030EDB50030DF3CFE9FFF4CF77
:10146000EAFFF40EE926000EEA22EFCF6EF2030E39
:10147000DBCF6DF20201060E6C6F0ADE000902E09E
:10148000010EDF6E030EDB50030DF3CFE9FFF4CF47
:10149000EAFFF40EE926000EEA22EE52EFCF6EF2DA
:1014A000030EDBCF6DF20201070E6C6FF1DD000958
:1014B00002E0010EDF6E030EDB50040DF3CFE9FFF7
:1014C000F4CFEAFFEC0EE926000EEA22030EE9262D
:1014D000000EEA22EFCF6EF2030EDBCF6DF20201B7
:1014E000050E6C6FD5DD000902E0010EDF6E030E04
:1014F000DB2A45D6020EDB6A040EF36E020EDBCF4A
:10150000F4FFF350F45C31E2010EDB500001EE1504
:10151000FF0DF3407F0B02016E6F02016D6B020E37
:10152000DBCF6CF2B5DD000902E0010EDF6E010ECB
:10153000DB500001F215FF0DF3407F0B02016E6FCF
:101540000201010E6D6F020EDBCF6CF2A1DD00090E
:1015500002E0010EDF6E020EDB2A010EDBCFF3FF8D
:10156000F39EF346F3CFDBFFC7D70001EA51D85D06
:101570003AE01E0ED85D37E3A90EF36E040EF3CFEA
:10158000DBFF7F0ED815E76E050EE7CFDBFF040EFD
:10159000DBCFE7FF050EDB50E71A040EE7CFDBFFDA
:1015A000050EDBCFC1F0D845010BE76E050EE7CF86
:1015B000DBFF040EDBCFE7FF050EDB50E71A040E5E
:1015C000E7CFDBFF050EDBCFC2F0040EDB507F0B55
:1015D000C56F0201B70E506F000E516F0201100E61
:1015E0004F6FD7EC22F00001D951010B02E07F0EC2
:1015F00001D0000E02016E6F0201010E6D6F02013B
:101600000C0E6C6F45DD000902E0010EDF6E00017B
:10161000D951020B02E07F0E01D0000E02016E6F65
:101620000201010E6D6F02010D0E6C6F31DD0009BC
:1016300002E0010EDF6E0001D951040B02E07F0EC3
:1016400001D0000E02016E6F0201010E6D6F0201EA
:101650000E0E6C6F1DDD000902E0010EDF6E000151
:10166000D951080B02E07F0E01D0000E02016E6F0F
:101670000201010E6D6F02010F0E6C6F09DD000992
:1016800002E0010EDF6E0001D951100B02E07F0E67
:1016900001D0000E02016E6F0201010E6D6F02019A
:1016A000110E6C6FF5DC000902E0010EDF6E000127
:1016B000DF51CD5D0FE1E051CE5D0CE1E251D05D37
:1016C00009E1E351D15D06E1E151CF5D03E1E5516F
:1016D000D35D02E0010EDF6EE751D55D02E0010E41
:1016E000DF6EE651D45D02E0010EDF6EDF5001E0F7
:1016F000D0DA060EE15C02E2E16AE552E16EE55203
:10170000E7CFD9FF1200D9CFE6FFE1CFD9FF0C0E0A
:10171000E126020E02016F25E76E040EE7CFDBFF24
:10172000DF6A140EDF5C23E2DF50F76A230FF66EE8
:10173000500EF7220800F550E66EDF50106E116A69
:10174000040EEA6ADB34FE0BEA36E96E640EE92623
:10175000020EEA221050EE24E76E1150EE20EA6EDF
:10176000E7CFE9FFE552E750EF6EDF2ADAD7020153
:101770006F51040DF3CFE9FFF4CFEAFFEC0EE92639
:10178000000EEA22020EE926000EEA22EF50400B7C
:1017900010E0040EEA6ADB34FE0BEA36E96E640EF2
:1017A000E926020EEA22EE50EFCFEAFFE96E410E83
:1017B00026D06F51040DF3CFE9FFF4CFEAFFEC0E12
:1017C000E926000EEA22020EE926000EEA22EF5078
:1017D000800B02E1000E01D0010E430FE66E040EF5
:1017E000EA6ADB34FE0BEA36E96E640EE926020E85
:1017F000EA22EE50EFCFEAFFE96EE552E750EF6ED6
:101800006F51030DF3CFE9FFF4CFEAFFF40EE926A1
:10181000000EEA22EFCF81F20201030E806F040E68
:10182000EA6ADB34FE0BEA36E96E640EE926020E44
:10183000EA22EECF7EF2EDCF7FF2DFEC23F0020161
:101840006F51040DF3CFE9FFF4CFEAFFEC0EE92668
:10185000000EEA22030EE926000EEA22EF34F76AB0
:10186000FE0BF736F66E620EF6264C0EF7220900D6
:10187000F5CF89F20A00F5CF8AF202010D0E886FCA
:10188000040EEA6ADB34FE0BEA36E96E640EE926E2
:10189000020EEA22EECF86F2EDCF87F23CEC24F086
:1018A00002016F51040DF3CFE9FFF4CFEAFFEC0E14
:1018B000E926000EEA22020EE926000EEA22EF5087
:1018C000C00B800844E16F51030DF3CFE9FFF4CF63
:1018D000EAFFF40EE926000EEA22EE52EF407F0BFB
:1018E000B40FFF0D050EF3CFDBFFDBCF85F2020156
:1018F000070E846F040EEA6ADB34FE0BEA36E96EEB
:10190000640EE926020EEA22EECF82F2EDCF83F2D8
:1019100013EC24F0E76E060EE7CFDBFFDBCF10F011
:10192000116A10BE1168040EEA6ADB34FE0BEA3657
:10193000E96E640EE926020EEA221050EE24E76EEC
:101940001150EE20EA6EE7CFE9FF2D0EEF6E010E8B
:10195000F36E030EF3CFDBFF040EEA6ADB34FE0BFB
:10196000EA36E96E640EE926020EEA22EECF10F0A6
:10197000EFCF11F00F0E1026000E1122010E10C035
:10198000DBFF020E11C0DBFFDF6A040EDF5C01E348
:1019900087D062C0F6FF63C0F7FF030EF626000E85
:1019A000F722F6CF12F0F7CF13F002016F51040DBA
:1019B0001250F324F66E1350F420F76EF6CF10F0A9
:1019C000F7CF11F0DF500F011024F66E000E11203A
:1019D000F76E0800F5CF8FF22DEC25F0070EF3CF50
:1019E000DBFF080EF4CFDBFF050ED880DF54106E4E
:1019F000030EDBCFE6FF02016F51040DF3CFE9FFC9
:101A0000F4CFEAFFEC0EE926000EEA22020EE926E8
:101A1000000EEA22EF50E552E714E81C105204E0F1
:101A2000E846FE0B1006FCE1E76E090EE7CFDBFF90
:101A3000070EDBCFF6FF080EDBCFF7FF08000B0E1B
:101A4000F5CFDBFFDB50400BE8407F0BE76E0A0E63
:101A5000E7CFDBFF090EDBCFE6FF0A0EDB50E552D6
:101A6000E714106E0B0EDBCFE6FF0A0EDB1CE5520F
:101A7000E7141010E66E010EDBCFE9FFDB2A020E41
:101A8000DBCFEAFF01E3DB2AE552E750EF6EDF2A06
:101A9000030EDBCFF3FFF39EF346F3CFDBFF75D7E7
:101AA0000C0EE15C02E2E16AE552E16EE552E7CF3D
:101AB000D9FF1200D9CFE6FFE1CFD9FF0B0EE12607
:101AC000020E02017025E76E040EE7CFDBFFDF6A2E
:101AD000140EDF5C23E2DF50F76A0E0FF66E500E35
:101AE000F7220800F550E66EDF50106E116A040E02
:101AF000EA6ADB34FE0BEA36E96E640EE926020E72
:101B0000EA221050EE24E76E1150EE20EA6EE7CF85
:101B1000E9FFE552E750EF6EDF2ADAD7010EF36EE8
:101B2000030EF3CFDBFF040EEA6ADB34FE0BEA366A
:101B3000E96E640EE926020EEA22010EEECFDBFF0B
:101B4000020EEDCFDBFFDF6A040EDF5C01E397D00E
:101B500062C0F6FF63C0F7FF030EF626000EF72201
:101B6000F6CF12F0F7CF13F002017051040D1250AE
:101B7000F324F66E1350F420F76EF6CF10F0F7CF83
:101B800011F0DF500F011024F66E000E1120F76ED9
:101B90000800F5CF8FF22DEC25F0050EF3CFDBFF1B
:101BA000060EF4CFDBFF050ED880DF54106E030E57
:101BB000DBCFE6FF02017051040DF3CFE9FFF4CF54
:101BC000EAFFEC0EE926000EEA22020EE926000EDC
:101BD000EA22EF50E552E714E81C105204E0E84610
:101BE000FE0B1006FCE1E76E0A0EE7CFDBFF090EE5
:101BF000DB6A040EF36E090EDBCFF4FFF350F45CE6
:101C000035E2050EDBCFF6FFDB2A060EDBCFF7FF52
:101C100001E3DB2A0800080EF5CFDBFFDB50400BA9
:101C2000E8407F0BE76E070EE7CFDBFF0A0EDBCF46
:101C3000E6FF070EDB50E552E714106E080EDBCF0F
:101C4000E6FF070EDB1CE552E7141010E66E010EEE
:101C5000DBCFE9FFDB2A020EDBCFEAFF01E3DB2A61
:101C6000E552E750EF6E090EDB2AC3D7DF2A030ED9
:101C7000DBCFF3FFF39EF346F3CFDBFF65D70B0E0D
:101C8000E15C02E2E16AE552E16EE552E7CFD9FF9D
:101C90001200D9CFE6FFE1CFD9FF060EE126000101
:101CA000CC513AE1DF6ADFCF10F0140EE76E101866
:101CB000E8AE02D0E73402D0E750105C1DE2DFCF7F
:101CC000F6FFF76AF6BEF768E40EF6264F0EF72227
:101CD0000800F550E66EDFCF10F0116A10BE1168F3
:101CE000020166511024E96E67511120EA6EE55237
:101CF000E750EF6EDF2AD7D70001D0290201856FA8
:101D000002010C0E846F66C282F267C283F213EC8A
:101D100024F00201580E3AD0DF6ADFCF10F0140E23
:101D2000E76E1018E8AE02D0E73402D0E750105C3E
:101D30001DE2DFCFF6FFF76AF6BEF768CF0EF62694
:101D40004F0EF7220800F550E66EDFCF10F0116A53
:101D500010BE1168020166511024E96E675111200E
:101D6000EA6EE552E750EF6EDF2AD7D70001D1299E
:101D70000201856F02010C0E846F66C282F267C297
:101D800083F213EC24F00001C7290201856F0201E0
:101D90000F0E846F66C282F267C283F213EC24F0E6
:101DA0000001D6290201856F0201030E846F66C20D
:101DB00082F267C283F213EC24F00001D7290201FA
:101DC000856F0201080E846F66C282F267C283F2D9
:101DD00013EC24F00001D32902017D6FC8EC23F03D
:101DE000E66E110E0201EA6A6625E96E6751EA2283
:101DF000E552E750EF6E1AC17DF2C8EC23F0E66EB3
:101E0000130E0201EA6A6625E96E6751EA22E5527D
:101E1000E750EF6E60C0F6FF61C0F7FFF72AF6CF1C
:101E200012F0F7CF13F00001D251800D1250F324BD
:101E3000F66E1350F420F76EF6CF10F0F7CF11F0D6
:101E4000020E10C0DBFF030E11C0DBFF020EDBCF62
:101E5000F6FF030EDBCFF7FF0800F55038E1DF6A2D
:101E6000DFCF10F0140EE76E1018E8AE02D0E734A2
:101E700002D0E750105C1DE2DFCFF6FFF76AF6BE36
:101E8000F768BA0EF6264F0EF7220800F550E66EF8
:101E9000DFCF10F0116A10BE1168020164511024E6
:101EA000E96E65511120EA6EE552E750EF6EDF2AC8
:101EB000D7D70001D0290201856F0201120E846F6D
:101EC00064C282F265C283F213EC24F00CD0020EDD
:101ED000DBCF8DF2030EDBCF8EF264C28BF265C2D4
:101EE0008CF2F4EC24F00001CD51D15D03E1CE5130
:101EF000D05D09E0130E0201EA6A6425E96E6551BE
:101F0000EA222A0EEF6E0001D551030A01E19CD0AE
:101F1000020A01E18ED0030A3DE0020A01E0E3D0AB
:101F200002016F6B83EC0BF00201010E6F6F83EC0B
:101F30000BF0020E0001D425E96EEA6AE9BEEA68F8
:101F4000D890E936EA36640EE926020EEA22EE500F
:101F5000EFCFEAFFE96E0E0EE926000EEA227F0EB1
:101F6000EF6E030ED880D455E96EEA6AE9BEEA68DE
:101F7000D890E936EA36640EE926020EEA22EE50DF
:101F8000EFCFEAFFE96E0E0EE926000EEA22200EE0
:101F9000EF6EA9D002016F6B83EC0BF0DF6ADFCF2D
:101FA00010F0140EE76E1018E8AE02D0E73402D03D
:101FB000E750105C01E397D0DF50E840E8403F0B6A
:101FC000E76E040EE7CFDBFFDFCFF6FFF76AF6BE62
:101FD000F768F90EF6264F0EF7220800050EF5CF2A
:101FE000DBFFDB50400B14E0010EF36E040EDB5000
:101FF00004E0D890F336E806FCE1F3500001D9156F
:1020000007E0050EDB50DF0BE76E050EE7CFDBFFC9
:10201000DFCF10F0116A10BE116802016A5110245E
:10202000E96E6B511120EA6E050EDBCFEFFFDF2A60
:10203000B6D7010ED880D45502016F6F83EC0BF038
:10204000D4C070F237DD4FD0DF6ADFCF10F0140E4E
:10205000E76E1018E8AE02D0E73402D0E750105C0B
:1020600037E2DFCFF6FFF76AF6BEF768A50EF62671
:102070004F0EF7220800F550E66EDFCF10F0116A20
:1020800010BE1168020168511024E96E69511120D7
:10209000EA6EE552E750EF6EDFCFF6FFF76AF6BE65
:1020A000F7680E0EF626500EF7220800F550E66E81
:1020B000DFCF10F0116A10BE11686A511024E96E6A
:1020C0006B511120EA6EE552E750EF6EDF2ABDD763
:1020D000D8C085F20201040E846F68C282F269C220
:1020E00083F213EC24F0D0EC22F0060EE15C02E265
:1020F000E16AE552E16EE552E7CFD9FF1200D9CF90
:10210000E6FFE1CFD9FF020EE126B5C060F2B6C00E
:1021100061F20201010E5F6F6CEC23F0F3CFDEFF82
:10212000F4CFDDFF0001D551030A01E102D1010A1C
:1021300001E1E1D0030A5BE0010A01E012D1030EE4
:10214000D55D02E0000E01D0010E200DF3CF13F09B
:10215000D50502E0000E01D0010E100DF3CF12F0F4
:10216000060E116ED4C0E9FFEA6AE9BEEA68D890AB
:10217000E936EA36D890E936EA36EC0EE926000E62
:10218000EA22020EE926000EEA22EF50400B11C0AF
:10219000E7FFE75204E0E8427F0BE706FCE1106E40
:1021A000CE0E0001C915101012101310CB6F010EC6
:1021B000D880D455100DF3CF11F0D4C0E9FFEA6AEE
:1021C000E9BEEA68D890E936EA36D890E936EA36C8
:1021D000EC0EE926000EEA22020EE926000EEA22A3
:1021E000EF50800BE844010B106EEE0E80D0030E12
:1021F000D55D02E0000E01D0010E200DF3CF14F0EA
:10220000D50502E0000E01D0010E100DF3CF13F042
:10221000D4C0E9FFEA6AE9BEEA68D890E936EA364E
:10222000D890E936EA36EC0EE926000EEA22030ED3
:10223000E926000EEA22EF50620802E0000E01D00B
:10224000010E080DF3CF12F0D4C0E9FFEA6AE9BE2F
:10225000EA68D890E936EA36D890E936EA36EC0EE4
:10226000E926000EEA22EE52EF5002E0000E01D005
:10227000010E040DF3CF11F0D4C0E9FFEA6AE9BE04
:10228000EA68D890E936EA36D890E936EA36EC0EB4
:10229000E926000EEA22EF5002E0000E01D0010E06
:1022A000E824106ECF0EC915101011101210131063
:1022B0001410CB6F010ED880D455100DF3CF11F050
:1022C000D4C0E9FFEA6AE9BEEA68D890E936EA369E
:1022D000D890E936EA36EC0EE926000EEA22020E24
:1022E000E926000EEA22EF500F0B106EE00EC81523
:1022F000101011101CD0030ED55D02E0000E01D0AD
:10230000010E200DF3CF11F0D50502E0000E01D033
:10231000010E100DF3CF10F0CF0EC915F3101110F0
:10232000CB6F1F0ED915106EE00EC8151010CA6FB6
:1023300018D0030ED55D02E0000E01D0010E200D75
:10234000F3CF11F0D50502E0000E01D0010E100D03
:10235000F3CF10F0CF0EC915F3101110CB6FC8C01A
:10236000CAF0CD51D15D03E1CE51D05D01E0CA8FFD
:10237000D9CFE9FFDACFEAFFFF0EEE1802E1FF0E38
:10238000ED180BE0D9CFE9FFDACFEAFF7D0ED88058
:10239000EE54000EED5401E3CA8B13EC08F0020E6C
:1023A000E15C02E2E16AE552E16EE552E7CFD9FF76
:1023B0001200D9CFE6FFE1CFD9FF020EE12660C0BF
:1023C000F6FF61C0F7FF800EF626000EF722F6CF6B
:1023D00010F0F7CF11F00001D6510B0D1050F3247F
:1023E000626F1150F420636FDF6A020EDF5C42E21D
:1023F000010EDB6A040EF36E010EDBCFF4FFF35027
:10240000F45C36E262C0F6FF63C0F7FF030EF62607
:10241000000EF722F6CF12F0F7CF13F0DF50040DC5
:102420001250F324F66E1350F420F76EF6CF10F02E
:10243000F7CF11F0010EDB500F011024F66E000EE5
:102440001120F76E0800F550E66E010EDBCFE6FFB7
:10245000140EDF02F350E552E724EA6A640FE96ED6
:10246000000EEA22E552E750EF6E010EDB2AC2D7DA
:10247000DF2ABBD7020EE15C02E2E16AE552E16EBF
:10248000E552E7CFD9FF1200D9CFE6FFE1CFD9FF60
:10249000020EE1260001CC0519E160C0F6FF61C023
:1024A000F7FF020EF626000EF722F62AF722F6CFE5
:1024B00010F0F7CF11F0CD510F011024F66E000E81
:1024C0001120F76E0800F550DF6E02D0CEC0DFFF9E
:1024D00060C0F6FF61C0F7FFF72AF6CF10F0F7CF24
:1024E00011F0DF50800D1050F324F66E1150F420DF
:1024F000F76E0900F5CF00F10900F5CF01F10900F1
:10250000F5CF02F10900F5CF03F10900F5CF04F191
:102510000900F5CF05F10900F5CF06F10900F5CF67
:1025200007F10900F5CF08F10900F5CF09F109001D
:10253000F5CF0AF10900F5CF0BF10900F5CF0CF149
:102540000900F5CF0DF10900F5CF0EF10900F5CF27
:102550000FF10900F5CF10F10900F5CF11F10900D5
:10256000F5CF12F10900F5CF13F10900F5CF14F101
:102570000900F5CF15F10900F5CF16F10900F5CFE7
:1025800017F10900F5CF18F10900F5CF19F109008D
:10259000F5CF1AF10900F5CF1BF10900F5CF1CF1B9
:1025A0000900F5CF1DF10900F5CF1EF10900F5CFA7
:1025B0001FF10900F5CF20F10900F5CF21F1090045
:1025C000F5CF22F10900F5CF23F10900F5CF24F171
:1025D0000900F5CF25F10900F5CF26F10900F5CF67
:1025E00027F10900F5CF28F10900F5CF29F10900FD
:1025F000F5CF2AF10900F5CF2BF10900F5CF2CF129
:102600000900F5CF2DF10900F5CF2EF10900F5CF26
:102610002FF10900F5CF30F10900F5CF31F10900B4
:10262000F5CF32F10900F5CF33F10900F5CF34F1E0
:102630000900F5CF35F10900F5CF36F10900F5CFE6
:1026400037F10900F5CF38F10900F5CF39F109006C
:10265000F5CF3AF10900F5CF3BF10900F5CF3CF198
:102660000900F5CF3DF10900F5CF3EF10900F5CFA6
:102670003FF10900F5CF40F10900F5CF41F1090024
:10268000F5CF42F10900F5CF43F10900F5CF44F150
:102690000900F5CF45F10900F5CF46F10900F5CF66
:1026A00047F10900F5CF48F10900F5CF49F10900DC
:1026B000F5CF4AF10900F5CF4BF10900F5CF4CF108
:1026C0000900F5CF4DF10900F5CF4EF10900F5CF26
:1026D0004FF10900F5CF50F10900F5CF51F1090094
:1026E000F5CF52F10900F5CF53F10900F5CF54F1C0
:1026F0000900F5CF55F10900F5CF56F10900F5CFE6
:1027000057F10900F5CF58F10900F5CF59F109004B
:10271000F5CF5AF10900F5CF5BF10900F5CF5CF177
:102720000900F5CF5DF10900F5CF5EF10900F5CFA5
:102730005FF10900F5CF60F10900F5CF61F1090003
:10274000F5CF62F10900F5CF63F10900F5CF64F12F
:102750000900F5CF65F10900F5CF66F10900F5CF65
:1027600067F10900F5CF68F10900F5CF69F10900BB
:10277000F5CF6AF10900F5CF6BF10900F5CF6CF1E7
:102780000900F5CF6DF10900F5CF6EF10900F5CF25
:102790006FF10900F5CF70F10900F5CF71F1090073
:1027A000F5CF72F10900F5CF73F10900F5CF74F19F
:1027B0000900F5CF75F10900F5CF76F10900F5CFE5
:1027C00077F10900F5CF78F10900F5CF79F109002B
:1027D000F5CF7AF10900F5CF7BF10900F5CF7CF157
:1027E0000900F5CF7DF10900F5CF7EF10800F5CFA6
:1027F0007FF10101005101E0A1D0146B320E156F81
:10280000780E166F5E0E176F1A0E186F440E196F42
:102810000C0E1A6F010EDB6A0C0EF36E010EDBCF8D
:10282000F4FFF350F45C01E389D0010EDB50080D96
:10283000F3CFE9FFF4CFEAFF1B0EE926010EEA22EF
:10284000EF6A010EDB50080DF3CFE9FFF4CFEAFF8A
:102850001B0EE926010EEA22EE52EF6A010EDB5052
:10286000080DF3CFE9FFF4CFEAFF1B0EE926010EB6
:10287000EA22020EE926000EEA22800EEF6E010E19
:10288000DB50080DF3CFE9FFF4CFEAFF1B0EE9267A
:10289000010EEA22030EE926000EEA22620EEF6E16
:1028A000010EDB50080DF3CFE9FFF4CFEAFF1B0E5A
:1028B000E926010EEA22040EE926000EEA22EF6A5A
:1028C000010EDB50080DF3CFE9FFF4CFEAFF1B0E3A
:1028D000E926010EEA22040EE926000EEA22EE5253
:1028E000EF6A010EDB50080DF3CFE9FFF4CFEAFFEA
:1028F0001B0EE926010EEA22040EE926000EEA224A
:10290000020EE926000EEA22800EEF6E010EDB5069
:10291000080DF3CFE9FFF4CFEAFF1B0EE926010E05
:10292000EA22040EE926000EEA22030EE926000E32
:10293000EA22620EEF6E010EDB2A6ED7DFCFCFF0F8
:10294000DFCFD2F0CDC0D1F0CEC0D0F00001D36B3C
:1029500014C1D6F015C1D7F016C1D8F016C113F0C6
:10296000146A156A600E106EEA0E116E126A10C0BB
:1029700007F0086E12C009F016C10CF014C00DF07B
:1029800015C00EF04DEC28F007C0B5F008C0B6F049
:102990000201010E5D6F25EC23F00BDD020EE15C00
:1029A00002E2E16AE552E16EE552E7CFD9FF12009B
:1029B0000001D351080DF3CFE9FFF4CFEAFF1B0E5E
:1029C000E926010EEA22EF5068E1D351080DF3CF5A
:1029D000E9FFF4CFEAFF1B0EE926010EEA22030EFF
:1029E000E926000EEA22EF5058E1D351080DF3CF4B
:1029F000E9FFF4CFEAFF1B0EE926010EEA22040EDE
:102A0000E926000EEA22EF5048E1D351080DF3CF3A
:102A1000E9FFF4CFEAFF1B0EE926010EEA22040EBD
:102A2000E926000EEA22030EE926000EEA22EF5004
:102A300034E1D305080DF3CFE9FFF4CFEAFF1B0E15
:102A4000E926010EEA22EECF10F0EECF11F0EECF24
:102A500012F0EECF13F0EECF14F0EECF15F0EECF74
:102A600016F0EFCF17F0D351080DF3CFE9FFF4CFF5
:102A7000EAFF1B0EE926010EEA2210C0EEFF11C08C
:102A8000EEFF12C0EEFF13C0EEFF14C0EEFF15C044
:102A9000EEFF16C0EEFF17C0EEFFD351080DF3CFC7
:102AA000E9FFF4CFEAFF1B0EE926010EEA22EECF82
:102AB000ECF0EECFEDF0EECFEEF0EFCFEFF0D35144
:102AC000080DF3CFE9FFF4CFEAFF1B0EE926010E54
:102AD000EA22040EE926000EEA22EECFF0F0EECF55
:102AE000F1F0EECFF2F0EFCFF3F01200D9CFE6FF26
:102AF000E1CFD9FFE6520001CC71CC0538E160C0CE
:102B0000F6FF61C0F7FF020EF626000EF72208005E
:102B1000F504C76FCD6BDF6A60C0F6FF61C0F7FFD9
:102B2000020EF626000EF7220800F550DF5C39E2AF
:102B300060C0F6FF61C0F7FF020EF626000EF72216
:102B4000F62AF722F6CF10F0F7CF11F0DF500F0181
:102B50001024F66E000E1120F76E0800F5500001EB
:102B6000CE5D03E1DFCFCDF01CD0DF2AD5D77F0EBD
:102B7000C76F60C0F6FF61C0F7FF020EF626000EB9
:102B8000F722F62AF722F6CF10F0F7CF11F0CD5149
:102B90000F011024F66E000E1120F76E0800F5CF1D
:102BA000CEF0E552E552E7CFD9FF1200D9CFE6FFCC
:102BB000E1CFD9FFE652DF6A140EDF5C11E2DF508D
:102BC000EA6A8C0FE96E000EEA22EF68140EDF2429
:102BD000EA6A8C0FE96E000EEA22EF68DF2AECD772
:102BE000E552E552E7CFD9FF12000001D61DE86F8C
:102BF000D71DE96FD81DEA6FD6EF15F00001CC5153
:102C00000AE1D051106E116A570E105C000E115877
:102C100006E2D02B1200C751D15D01E2D12B120088
:102C20000001CC5105E1D051000806E2D0071200A6
:102C3000D151000801E2D10712000001CC5106E198
:102C4000CE51D05D06E0D0C0CEF01200CD51D15DA6
:102C50000AE101011A050001D35D02E2D32B120043
:102C6000CDDFD0C0CEF0D1C0CDF012000001D36BCB
:102C700012000001D351000801E2D3071200D9CF9E
:102C8000E6FFE1CFD9FFE6520201576B586B02EC29
:102C900023F0F3CF60F0F4CF61F0DF6A100EDF5C59
:102CA00014E2DF50F76AA80FF66E510EF722080003
:102CB000F550E66EDF50EA6AB70FE96E000EEA22C1
:102CC000E552E750EF6EDF2AE9D7DF6A020EDF5CDC
:102CD00001E3F3D0140EDF02F350EA6A640FE96EE9
:102CE000000EEA22EF68140EDF02F328EA6A640F8E
:102CF000E96E000EEA22EF68140EDF02F350020FB5
:102D0000EA6A640FE96E000EEA22EF68140EDF0231
:102D1000F350030FEA6A640FE96E000EEA22EF68CF
:102D2000140EDF02F350040FEA6A640FE96E000E1E
:102D3000EA22EF68100EDF24E66E140EDF02F35075
:102D4000050FEA6A640FE96E000EEA22E552E750C9
:102D5000EF6E120EDF24E66E140EDF02F350060F44
:102D6000EA6A640FE96E000EEA22E552E750EF6E60
:102D7000140EDF24E66E140EDF02F350070FEA6A2A
:102D8000640FE96E000EEA22E552E750EF6E3C0E4A
:102D9000DF24E66E140EDF02F350080FEA6A640FB8
:102DA000E96E000EEA22E552E750EF6E250EDF24B1
:102DB000E66E140EDF02F350090FEA6A640FE96E43
:102DC000000EEA22E552E750EF6E640EDF24E66E55
:102DD000140EDF02F3500A0FEA6A640FE96E000E68
:102DE000EA22E552E750EF6E660EDF24E66E140E1F
:102DF000DF02F3500B0FEA6A640FE96E000EEA225D
:102E0000E552E750EF6E140EDF02F3500C0FEA6A42
:102E1000640FE96E000EEA221C0EEF6E140EDF0244
:102E2000F3500D0FEA6A640FE96E000EEA221D0EE0
:102E3000EF6E140EDF02F3500E0FEA6A640FE96EB4
:102E4000000EEA221E0EEF6E140EDF02F3500F0F7B
:102E5000EA6A640FE96E000EEA221F0EEF6E140E8E
:102E6000DF02F350100FEA6A640FE96E000EEA22E7
:102E7000200EEF6E140EDF02F350110FEA6A640F9A
:102E8000E96E000EEA22210EEF6E140EDF02F350FF
:102E9000120FEA6A640FE96E000EEA22780EEF6EF6
:102EA000140EDF02F350130FEA6A640FE96E000E8E
:102EB000EA22790EEF6EDF2A09D70001D96BEB69A0
:102EC000B46BF40EB56F010EB66F780ED86FE81CB8
:102ED000EA6FD56B010ED46FE76FE66BDC69DD69D5
:102EE000CA6BCB6BDE6FCC6F60C0F6FF61C0F7FFC3
:102EF000020EF626000EF7220800F504C76FDF6AFF
:102F0000020EDF5C19E2DF50040DF3CFE9FFF4CFCE
:102F1000EAFFEC0EE926000EEA22EF6ADF50040D0C
:102F2000F3CFE9FFF4CFEAFFEC0EE926000EEA2228
:102F3000EE52EF6ADF2AE4D70001CD6BCE6BDF6B78
:102F4000E06BD06BD16B7F0EE86FEA6B44EC12F054
:102F50002FDDD3C0E5F0DF6A020EDF5C33E2000153
:102F6000D351080DF3CFE9FFF4CFEAFF1B0EE9269A
:102F7000010EEA22E9CF14F0EACF15F0DF50040D7C
:102F8000E950F324E96EEA50F420EA6EEECF10F037
:102F9000EECF11F0EECF12F0EFCF13F0DF50040DB3
:102FA000F3CFE9FFF4CFEAFFEC0EE926000EEA22A8
:102FB00010C0EEFF11C0EEFF12C0EEFF13C0EEFF17
:102FC000DF2ACAD712DEDF6A040EDF5C17E2DFCF2A
:102FD0004DF2C0EC22F0F3CF10F0F4CF11F0EA6A1A
:102FE000DF34FE0BEA36E96E640EE926020EEA22B1
:102FF000F3CFEEFF11C0EDFFDF2AE6D70201010E8D
:103000005D6F25EC23F0E552E552E7CFD9FF1200C2
:10301000D9CFE6FFE1CFD9FFE65202017151040D8D
:10302000F3CFE9FFF4CFEAFFEC0EE926000EEA2227
:10303000030EE926000EEA22EFCFDFFFDF50000883
:1030400011E2DF067151040DF3CFE9FFF4CFEAFF7F
:10305000EC0EE926000EEA22030EE926000EEA2213
:10306000DFCFEFFFE552E552E7CFD9FF1200D9CF0E
:10307000E6FFE1CFD9FFE65202017251040DF3CF12
:10308000E9FFF4CFEAFFEC0EE926000EEA22030E78
:10309000E926000EEA22EFCFDFFF7F0EDF5C11E2B0
:1030A000DF2A7251040DF3CFE9FFF4CFEAFFEC0EF3
:1030B000E926000EEA22030EE926000EEA22DFCFFF
:1030C000EFFFE552E552E7CFD9FF1200D9CFE6FF77
:1030D000E1CFD9FF020EE12602017351040DF3CFB7
:1030E000E9FFF4CFEAFFEC0EE926000EEA22020E19
:1030F000E926000EEA22EF50C00B80082AE1735146
:10310000040DF3CFE9FFF4CFEAFFEC0EE926000E41
:10311000EA22EF500FE07351040DF3CFE9FFF4CF33
:10312000EAFFEC0EE926000EEA22E9CFDEFFEACF45
:10313000DDFF2AD0170EDE6E010EDD6EDECFE9FF59
:10314000DDCFEAFFEF5020E162C0F6FF63C0F7FF7A
:1031500011D0180EDE6E010EDD6EDECFE9FFDDCF81
:10316000EAFFEF5011E162C0F6FF63C0F7FFF62AF5
:10317000000EF7220800F550E66EDECFE9FFDDCF46
:10318000EAFFE552E750EF6EDECFE9FFDDCFEAFF61
:10319000EF50010805E2DECFE9FFDDCFEAFFEF06E1
:1031A000020EE15C02E2E16AE552E16EE552E7CF30
:1031B000D9FF1200D9CFE6FFE1CFD9FF020EE126F9
:1031C00002017451040DF3CFE9FFF4CFEAFFEC0ED6
:1031D000E926000EEA22020EE926000EEA22EF504E
:1031E000C00B80082AE17451040DF3CFE9FFF4CF3E
:1031F000EAFFEC0EE926000EEA22EF500FE07451D0
:10320000040DF3CFE9FFF4CFEAFFEC0EE926000E40
:10321000EA22E9CFDEFFEACFDDFF2AD0170EDE6E0D
:10322000010EDD6EDECFE9FFDDCFEAFFEF5020E1DA
:1032300062C0F6FF63C0F7FF11D0180EDE6E010EFC
:10324000DD6EDECFE9FFDDCFEAFFEF5011E162C0B6
:10325000F6FF63C0F7FFF62A000EF7220800F550CC
:10326000E66EDECFE9FFDDCFEAFFE552E750EF6E15
:10327000DECFE9FFDDCFEAFFEFCF10F07F0E105C6D
:1032800005E2DECFE9FFDDCFEAFFEF2A020EE15CC7
:1032900002E2E16AE552E16EE552E7CFD9FF1200A2
:1032A000D9CFE6FFE1CFD9FF020EE1260201755129
:1032B000040DF3CFE9FFF4CFEAFFEC0EE926000E90
:1032C000EA22EE52EF5010E07551040DF3CFE9FF02
:1032D000F4CFEAFFEC0EE926000EEA22EE52E9CF27
:1032E000DEFFEACFDDFF1CD0190EDE6E010EDD6EB3
:1032F000DECFE9FFDDCFEAFFEF5012E162C0F6FF5B
:1033000063C0F7FF020EF626000EF7220800F55004
:10331000E66EDECFE9FFDDCFEAFFE552E750EF6E64
:10332000DECFE9FFDDCFEAFFEF50010805E2DECF97
:10333000E9FFDDCFEAFFEF06020EE15C02E2E16A9F
:10334000E552E16EE552E7CFD9FF1200D9CFE6FF93
:10335000E1CFD9FF020EE12602017651040DF3CF31
:10336000E9FFF4CFEAFFEC0EE926000EEA22EE5266
:10337000EF5010E07651040DF3CFE9FFF4CFEAFFF0
:10338000EC0EE926000EEA22EE52E9CFDEFFEACF8C
:10339000DDFF1CD0190EDE6E010EDD6EDECFE9FF03
:1033A000DDCFEAFFEF5012E162C0F6FF63C0F7FF26
:1033B000020EF626000EF7220800F550E66EDECF6C
:1033C000E9FFDDCFEAFFE552E750EF6EDECFE9FF20
:1033D000DDCFEAFFEFCF10F07F0E105C05E2DECF0D
:1033E000E9FFDDCFEAFFEF2A020EE15C02E2E16ACB
:1033F000E552E16EE552E7CFD9FF120077C2E9FF4F
:1034000078C2EAFFEFCF10F002017951D880105452
:1034100005E277C2E9FF78C2EAFFEF0612007AC23E
:10342000E9FF7BC2EAFFEFCF10F002017C51105C94
:1034300005E27AC2E9FF7BC2EAFFEF2A120000012F
:10344000D551030A01E1E3D0020A01E18DD1010A5D
:1034500001E08AD1020EC915020821E1800E0101A6
:10346000EF1507E03F0EEF15106E180E105C01E32C
:10347000EF8D400EEF1506E0030EEF1503E1D4C00B
:1034800073F224DEC00E0101EF1509E03F0EEF15C7
:10349000010F3F0B106EC00EEF151010EF6F020EF4
:1034A0000001C815020821E1800E0101F51507E0B1
:1034B0003F0EF515106E180E105C01E3F58D400EF1
:1034C000F51506E0030EF51503E1D4C074F272DEC3
:1034D000C00E0101F51509E03F0EF515010F3F0B78
:1034E000106EC00EF5151010F56F040E0001C91511
:1034F000040821E1800E0101F01507E03F0EF015F0
:10350000106E180E105C01E3F08D400EF01506E011
:10351000030EF01503E1D4C075F2C2DEC00E010146
:10352000F01509E03F0EF015010F3F0B106EC00EB5
:10353000F0151010F06F040E0001C815040821E109
:10354000800E0101F61507E03F0EF615106E180EFD
:10355000105C01E3F68D400EF61506E0030EF6153D
:1035600003E1D4C076F2F2DEC00E0101F61509E0E7
:103570003F0EF615010F3F0B106EC00EF615101022
:10358000F66F080E0001C915080821E1800E01013F
:10359000F11507E03F0EF115106E180E105C01E3F7
:1035A000F18D400EF11506E0030EF11503E1D4C0D4
:1035B00071F22EDDC00E0101F11509E03F0EF1158B
:1035C000010F3F0B106EC00EF1151010F16F080EB9
:1035D0000001C815080801E0C7D0800E0101F715E9
:1035E00007E03F0EF715106E180E105C01E3F78D23
:1035F000400EF71506E0030EF71503E1D4C072F292
:1036000036DDC00E0101F71501E1AED0A4D0040EE5
:10361000C915040826E1800E0101F01507E03F0EF0
:10362000F015106E180E105C01E3F08D400EF015D1
:103630000BE0030EF01508E10201796B0201D60ED2
:10364000776F000E786FDADEC00E0101F01509E029
:103650003F0EF015010F3F0B106EC00EF01510104D
:10366000F06F040E0001C815040827E1800E010167
:10367000F61507E03F0EF615106E180E105C01E30C
:10368000F68D400EF6150CE0030EF61509E1020169
:103690000A0E7C6F0201D60E7A6F000E7B6FBFDEC2
:1036A000C00E0101F61509E03F0EF615010F3F0BA4
:1036B000106EC00EF6151010F66F080E0001C91539
:1036C000080826E1800E0101F11507E03F0EF11513
:1036D000106E180E105C01E3F18D400EF1150BE039
:1036E000030EF11508E10201796B0201D70E776F25
:1036F000000E786F83DEC00E0101F11509E03F0E68
:10370000F115010F3F0B106EC00EF1151010F16F87
:10371000080E0001C815080827E1800E0101F71501
:1037200007E03F0EF715106E180E105C01E3F78DE1
:10373000400EF7150CE0030EF71509E102017F0EAC
:103740007C6F0201D70E7A6F000E7B6F68DEC00EB1
:103750000101F71509E03F0EF715010F3F0B106E41
:10376000C00EF7151010F76F200E0001C9152008C4
:1037700019E1800E0101F21515E07F0EF215106EB1
:103780003F0E105C0FE27F0EF215010F106E800EDF
:10379000F2151010F26F7F0EF2153F0803E1F26B85
:1037A00076EC15F0200E0001C815200819E1800EF6
:1037B0000101F81515E07F0EF815106E1F0E105C54
:1037C0000FE27F0EF815010F106E800EF815101025
:1037D000F86F7F0EF8151F0803E1F86BF5EC15F094
:1037E000400E0001C915400820E1800E0101F315CB
:1037F00007E03F0EF315106E200E105C01E3F38D11
:10380000400EF31505E0070EF31502E110EC16F07B
:10381000C00E0101F31509E03F0EF315010F3F0B38
:10382000106EC00EF3151010F36F800E0001C91555
:10383000800820E1800E0101F41507E03F0EF41529
:10384000106E200E105C01E3F48D400EF41505E0BF
:10385000070EF41502E1FEEC15F0C00E0101F4159F
:1038600009E03F0EF415010F3F0B106EC00EF4156A
:103870001010F46F400E0001C815400819E1800EC9
:103880000101F91515E07F0EF915106E3F0E105C61
:103890000FE27F0EF915010F106E800EF915101052
:1038A000F96F7F0EF9153F0803E1F96B36EC16F05E
:1038B0000101FB5106E01F0EFB5D02E2FB2B120033
:1038C000FB6B1200D9CFE6FFE1CFD9FF050EE12651
:1038D0004DEC22F0F3CFDEFFF4CFDDFFDECF10F0B2
:1038E000DDCF11F010500001C86FDECF10F0DDCF3A
:1038F00011F011C010F0116A1050C96FD551030AB0
:1039000001E135D2010A01E107D2030A01E1F4D055
:10391000010A01E0BDD2010EDB1518E1010EC91547
:10392000010814E1D4C0E9FFEA6AE9BEEA68D89068
:10393000E936EA36D890E936EA36EC0EE926000E8A
:10394000EA22020EE926000EEA22EF7C010EDA15C9
:1039500018E1010EC815010814E1D4C0E9FFEA6AB4
:10396000E9BEEA68D890E936EA36D890E936EA3610
:10397000EC0EE926000EEA22020EE926000EEA22EB
:10398000EF7E020EDB1508E1020EC915020804E104
:103990000101800EEF6F10D0020EDB1502080CE162
:1039A000020EC91509E10101EFBD04D0D4C073F2C4
:1039B00066EC18F00101EF6B020E0001DA1508E168
:1039C000020EC815020804E10101800EF56F10D047
:1039D000020EDA1502080CE1020EC81509E1010118
:1039E000F5BD04D0D4C074F2DAEC18F00101F56B27
:1039F000040E0001DB1508E1040EC915040804E1FA
:103A00000101800EF06F0FD0040EDB1504080BE1EE
:103A1000040EC91508E10101F0BD03D0D4C075F250
:103A20003FDC0101F06B040E0001DA1508E1040E21
:103A3000C815040804E10101800EF66F0FD0040ED2
:103A4000DA1504080BE1040EC81508E10101F6BD02
:103A500003D0D4C076F27ADC0101F66B080E0001C7
:103A6000DB1508E1080EC915080804E10101800E04
:103A7000F16F10D0080EDB1508080CE1080EC9150F
:103A800009E10101F1BD04D0D4C071F208EC18F0D5
:103A90000101F16B080E0001DA1508E1080EC815E6
:103AA000080804E10101800EF76F10D0080EDA1546
:103AB00008080CE1080EC81509E10101F7BD04D0A2
:103AC000D4C072F237EC18F00101F76B100E000150
:103AD000DB1508E1100EC915100804E1010ED5151B
:103AE000010AD56F100EDA1501E0D2D1100EC815FB
:103AF000100801E0CDD10ED1020EDB1533E1020E2C
:103B0000C91502082FE1D4C0E9FFEA6AE9BEEA68F4
:103B1000D890E936EA36D890E936EA36EC0EE9264E
:103B2000000EEA22020EEFCFDBFFDB5007E162C09E
:103B3000F6FF63C0F7FF0800F55001D0000EE66EF7
:103B4000D4C0E9FFEA6AE9BEEA68D890E936EA3605
:103B5000D890E936EA36EC0EE926000EEA22E55264
:103B6000E750EF6E040EDB1539E1040EC9150408A9
:103B700035E1D4C0E9FFEA6AE9BEEA68D890E936DF
:103B8000EA36D890E936EA36EC0EE926000EEA224B
:103B9000EE52030EEFCFDBFFDB500BE162C0F6FF0E
:103BA00063C0F7FF020EF626000EF7220800F5505C
:103BB00001D0000EE66ED4C0E9FFEA6AE9BEEA6809
:103BC000D890E936EA36D890E936EA36EC0EE9269E
:103BD000000EEA22EE52E552E750EF6E080EDB15BA
:103BE00019E1080EC915080815E1D4C0E9FFEA6A11
:103BF000E9BEEA68D890E936EA36D890E936EA367E
:103C0000EC0EE926000EEA22030EE926000EEA2257
:103C1000620EEF6E010EDA1518E1010EC8150108EB
:103C200014E1D4C0E9FFEA6AE9BEEA68D890E9364F
:103C3000EA36D890E936EA36EC0EE926000EEA229A
:103C4000020EE926000EEA22EF70020EDA1518E1E4
:103C5000020EC815020814E1D4C0E9FFEA6AE9BE01
:103C6000EA68D890E936EA36D890E936EA36EC0EBA
:103C7000E926000EEA22020EE926000EEA22EF7281
:103C8000040EDA1518E1040EC815040814E1D4C0B6
:103C9000E9FFEA6AE9BEEA68D890E936EA36D890E0
:103CA000E936EA36EC0EE926000EEA22020EE92693
:103CB000000EEA22EF74080EDA1518E1080EC81596
:103CC000080814E1D4C0E9FFEA6AE9BEEA68D890BE
:103CD000E936EA36D890E936EA36EC0EE926000EE7
:103CE000EA22020EE926000EEA22EF76100EDB151C
:103CF00008E1100EC915100804E1010ED515010ADE
:103D0000D56F100EDA1501E0C3D0100EC8151008DB
:103D100001E0BED0D471BCD0010EDA1505E1010E70
:103D2000C815010801E1D971020EDA1505E1020E8C
:103D3000C815020801E1D973040EDA1505E1040E75
:103D4000C815040801E1D975080EDA1505E1080E59
:103D5000C815080801E1D977100EDA1501E098D0EE
:103D6000100EC815100801E093D0D97991D0040E37
:103D7000DB1508E1040EC915040804E10101800EF9
:103D8000F06F15D0040EDB15040811E1040EC915FF
:103D90000EE10101F0BD09D00201796B0201D60EDE
:103DA000776F000E786FFEEC19F00101F06B040ED6
:103DB0000001DA1508E1040EC815040804E1010148
:103DC000800EF66F16D0040EDA15040812E1040E08
:103DD000C8150FE10101F6BD0AD002010A0E7C6F81
:103DE0000201D60E7A6F000E7B6F0FEC1AF0010104
:103DF000F66B080E0001DB1508E1080EC91508086E
:103E000004E10101800EF16F15D0080EDB150808E2
:103E100011E1080EC9150EE10101F1BD09D0020141
:103E2000796B0201D70E776F000E786FFEEC19F0F8
:103E30000101F16B080E0001DA1508E1080EC81542
:103E4000080804E10101800EF76F16D0080EDA159C
:103E5000080812E1080EC8150FE10101F7BD0AD0EC
:103E600002017F0E7C6F0201D70E7A6F000E7B6F0E
:103E70000FEC1AF00101F76B100E0001DB1508E1E1
:103E8000100EC915100804E1010ED515010AD56FF1
:103E9000200EDB1508E1200EC915200804E1010100
:103EA000800EF26F10D0200EDB1520080CE1200EE2
:103EB000C91509E10101F2AF04D00001D529030BB6
:103EC000D56F0101F26B200E0001DA1524E1200EFE
:103ED000C815200820E10101800EF86F02015D6B1A
:103EE00025EC23F0F3CFB5F0F4CFB6F00201636B0D
:103EF0000201010E626FAAEC23F07F0E0001B41BD9
:103F0000B4C056F202010E0E556F0201B20E546F8C
:103F1000F8EC22F009D0200EDA1506E1200EC815C3
:103F2000200802E10101F86B400E0001DA150AE1F8
:103F3000400EC815400806E10101800EF96F39EC0A
:103F400016F009D0400EDA15400805E1400EC815FC
:103F500002E10101F96B800E0001DA150AE1800E21
:103F6000C815800806E10101800EFA6F1DEC16F0FD
:103F700009D0800EDA15800805E1800EC81502E12F
:103F80000101FA6B400E0001DB150AE1400EC91574
:103F9000400806E110EC16F00101800EF36F09D025
:103FA000400EDB15400805E1400EC91502E1010194
:103FB000F36B800E0001DB150AE1800EC915800845
:103FC00006E1FEEC15F00101800EF46F09D0800EC1
:103FD000DB15800805E1800EC91502E10101F46BD3
:103FE0000001E251D05D03E1E351D15D21E0CC0558
:103FF0001AE160C0F6FF61C0F7FF020EF626000E60
:10400000F722F62AF722F6CF10F0F7CF11F0D151B0
:104010000F011024F66E000E1120F76E0800040E3A
:10402000F5CFDBFF03D0040ED0C0DBFFDBCFD2F037
:104030000001DE51CC5D06E1DF51CD5D03E1E051D1
:10404000CE5D03E044EC12F02BD0E551D35D2AE0C5
:10405000E551080DF3CFE9FFF4CFEAFF1B0EE92687
:10406000010EEA22ECC0EEFFEDC0EEFFEEC0EEFF67
:10407000EFC0EEFFE551080DF3CFE9FFF4CFEAFF03
:104080001B0EE926010EEA22040EE926000EEA22A2
:10409000F0C0EEFFF1C0EEFFF2C0EEFFF3C0EEFFA6
:1040A000D8EC14F08FEC08F07FEC10F0C8C0DAF018
:1040B000C9C0DBF0CAC0DCF0CBC0DDF0CCC0DEF0A4
:1040C000CDC0DFF0CEC0E0F0CFC0E1F0D0C0E2F074
:1040D000D1C0E3F0D2C0E4F0D3C0E5F0D4C0E6F044
:1040E000D5C0E7F0D6C0E8F0D7C0E9F0D8C0EAF014
:1040F000D9C0EBF0050EE15C02E2E16AE552E16E47
:08410000E552E7CFD9FF1200E0
:08410800D9CFE6FFE1CFD9FF9A
:10411000E652080EDF6E898489948992FD0EDBBE1B
:1041200002D0899601D08986DBCFF3FFF39EF34658
:10413000F3CFDBFF8982DF06F0E1080EDF6E8992A4
:10414000FE0EDBBE02D0899601D08986DBCFF3FF5D
:10415000F39EF346F3CFDBFF8982DF06F0E189842B
:10416000100EDF6EDF5002E0DF06FCD789948986EF
:104170008982E552E552E7CFD9FF1200D9CFE6FF99
:10418000E1CFD9FF070EE126126A02014551121054
:10419000106E030E10C0DBFF040E44C2DBFF050EE1
:1041A000DB6A060EDB6ADF6A010EF36EDB6E020E5F
:1041B000DB6A100EDF5C72E2DF50EA6A900FE96E94
:1041C000020EEA22EF501AE1010EDBCF12F0020ECE
:1041D000DBCF13F0030EDB501214106E040EDB5015
:1041E0001314116E105011104CE0DF50EA6A900F5A
:1041F000E96E020EEA22010EEF6E2DD0DF50EA6A60
:10420000900FE96E020EEA22EFCF10F0DF50F76A4E
:104210000A0FF66E520EF7220800F550105C09E204
:10422000DF50EA6A900FE96E020EEA22EF2A010ED1
:1042300012D0010EDBCF12F0020EDBCF13F0030E13
:10424000DB501214106E040EDB501314116E10505C
:10425000111010E0010EDBCF10F0020EDBCF11F0D9
:10426000D950050FE96EDACFEAFF1050EE12115067
:10427000ED1207D0DF50EA6A900FE96E020EEA22D3
:10428000EF6ADF2AD950010FE96EDACFEAFF010E9B
:10429000D890EE36ED36E806FBE18BD7050EDBCF86
:1042A000A0F2060EDBCFA1F2070EE15C02E2E16AAA
:1042B000E552E16EE552E7CFD9FF1200D9CFE6FF14
:1042C000E1CFD9FF050EE126030EDB6ADE52010EB7
:1042D000DD6EDF6A080EDF5C22E2DFCFE6FFC8D8C2
:1042E000E552050EF36E020EF3CFDBFFDB5003E069
:1042F000020EDB06FBD784A209D0030EDBCFE7FF5B
:10430000010EDB50E712030EE7CFDBFF010EDBCF20
:10431000F3FFF39EF346F3CFDBFFDF2ADBD7040E78
:10432000DB6ADE52010EDD6E080EDF6E100EDF5C02
:1043300022E2DFCFE6FF9CD8E552050EF36E020EB7
:10434000F3CFDBFFDB5003E0020EDB06FBD784A2DA
:1043500009D0040EDBCFE7FF010EDB50E712040E9D
:10436000E7CFDBFF010EDBCFF3FFF39EF346F3CF86
:10437000DBFFDF2ADBD7030EDB1CE76E030EE7CF84
:10438000DBFFDB50800BE840E8403F0B166E030E6E
:10439000DB50400B156E030EDB50200BE8407F0B0B
:1043A000146E030EDB50100B080DF3CF13F0030E49
:1043B000DB50080B126E030EDB50040BE840E840A4
:1043C0003F0B116E030EDB50020B106E030EDB5021
:1043D000010B040DF35010101110121013101410D3
:1043E000151016100201456F040EDB1CE76E040E5B
:1043F000E7CFDBFFDB50800BE840E8403F0B166E59
:10440000040EDB50400B156E040EDB50200BE84011
:104410007F0B146E040EDB50100B080DF3CF13F05E
:10442000040EDB50080B126E040EDB50040BE84048
:10443000E8403F0B116E040EDB50020B106E040EB1
:10444000DB50010B040DF35010101110121013105B
:104450001410151016100201446F90DE050EE15C79
:1044600002E2E16AE552E16EE552E7CFD9FF1200C0
:10447000D9CFE6FFE1CFD9FF8998899A8D908990AD
:10448000FE0EDBB08988DBB2898ADBB48D80DBB6B7
:104490008980E552E7CFD9FF1200A0C2F3FFA1C285
:1044A000F4FF1200D9CFE6FFE1CFD9FF020EE126DB
:1044B00042C2DFFF0F0EDF14100DF00EDF14E838DC
:1044C0000F0BF310DF6E330EDF14040DCC0EDF1470
:1044D000E840E8403F0BF310DF6E550EDF14E82490
:1044E000106EAA0EDF14E8407F0B1010DF6E010E75
:1044F00043C2DBFFDB500F0B100D010EDB50F00B46
:10450000E8380F0BF310E76E010EE7CFDBFFDB504F
:10451000330B040DF3CF10F0010EDB50CC0BE84051
:10452000E8403F0BF310E76E010EE7CFDBFFDB50F7
:10453000550BE824106E010EDB50AA0BE8407F0BF0
:104540001010E76E010EE7CFDBFFDFCFE6FFDBCF1A
:10455000E6FFDADDE552E552020EE15C02E2E16AD5
:10456000E552E16EE552E7CFD9FF12004CC210F0E0
:1045700010500201426F02014B510201436F1200C1
:1045800002014D51140DF3CF10F0F4CF11F09F0E36
:104590001026010E112210C0F3FF11C0F4FF12000B
:1045A0001A8612009EA8FED74EC2ADFF1200D9CFC8
:1045B000E6FFE1CFD9FFE652DF6A02014F51DF5C2F
:1045C0000BE2DF50EA6A5025E96E5151EA22EFCF43
:1045D0004EF2E8DFDF2AF1D7E552E552E7CFD9FF07
:1045E000120052C24EF2DEDF53C24EF2D2EF22F080
:1045F00054C24EF2D7DF55C24EF2D4DF56C24EF24D
:10460000D2EF22F0D9CFE6FFE1CFD9FFE652020187
:1046100058390F0BE850DF6E0F0E5817DF50800D22
:10462000F3CF12F0F4CF13F0000E1226530E132224
:1046300012505725106E1350582110C0F3FFF46E1E
:10464000E552E552E7CFD9FF1200D9CFE6FFE1CF1F
:10465000D9FF020EE12602015D51E96EEA6AD890A7
:10466000E936EA36590EE926020EEA22EECFDEFFDF
:10467000EDCFDDFF5D51E96EEA6AD890E936EA36A2
:10468000590EE926020EEA22EE6AED6ADECF10F03C
:10469000DDCF11F010C0F3FF11C0F4FF020EE15C9A
:1046A00002E2E16AE552E16EE552E7CFD9FF12007E
:1046B00002015E51E96EEA6AD890E936EA36590E8F
:1046C000E926020EEA22EECF10F0EFCF11F010C073
:1046D000F3FF11C0F4FF1200D9CFE6FFE1CFD9FFFD
:1046E000020EE12602015F51E96EEA6AD890E936CE
:1046F000EA36590EE926020EEA22EECFDEFFEDCFB2
:10470000DDFFDECF10F0DDCF11F06051105C6151A4
:1047100011580EE35F51E96EEA6AD890E936EA363D
:10472000590EE926020EEA226051EE5E6151ED5A01
:10473000DECF10F0DDCF11F010C0F3FF11C0F4FF99
:10474000020EE15C02E2E16AE552E16EE552E7CF7A
:10475000D9FF120002016351E96EEA6AD890E93686
:10476000EA36590EE926020EEA22EECF10F0EFCF1C
:1047700011F06251E96EEA6AD890E936EA36590ECC
:10478000E926020EEA2210C0EEFF11C0EDFF120072
:10479000D9CFE6FFE1CFD9FFE6520F0E02017D151A
:1047A000DF6E0A0EDF5C03E2300EDF2403D00A0E58
:1047B000DF5C610FE552E552E7CFD9FF1200D9CF98
:1047C000E6FFE1CFD9FFE6520F0E02018115DF6E41
:1047D0008051106E116A10507E2711507F230F0EEA
:1047E000811502017D6FD4DFE66E02017EC2E9FF12
:1047F0007FC2EAFF7E07000E7F5BE552E750EF6E57
:1048000081390F0B0F0B02017D6FC2DFE66E7EC296
:10481000E9FF7FC2EAFFE552E750EF6EE552E5524D
:10482000E7CFD9FF12000A0E126E0E6E85C209F094
:10483000F7EC28F00550300FE66E02018451840732
:10484000106E116A10BE116882511024E96E8351F6
:104850001120EA6EE552E750EF6E0A0E106E0E6EF2
:1048600085C209F0F7EC28F009C085F2095000086C
:10487000DAE3020184511200D9CFE6FFE1CFD9FF7C
:10488000020EE12602018A51800B02E1000E01D0E6
:10489000010EDF6E000ED8808955000E8A5505E2A4
:1048A000000E895D800E8A5902E3000E01D0010ED0
:1048B000E76E010EE7CFDBFF8851106E116A1050D2
:1048C000862711508723FF0E8915106E7F0E8A15DB
:1048D000116EFF0E10181EE17F0E11181BE186C22B
:1048E000E9FF87C2EAFF8607000E875B660EEF6E60
:1048F00086C2E9FF87C2EAFF8607000E875B6E0E5D
:10490000EF6E86C2E9FF87C2EAFF8607000E875B6B
:10491000690E4ED00F0E8915300FE66E86C2E9FF84
:1049200087C2EAFF8607000E875BE552E750EF6E0D
:1049300086C2E9FF87C2EAFF8607000E875B2E0E5C
:10494000EF6E040E0F0B05E0D8908A338933E8062A
:10495000FBE10F0E02018915300FE66E86C2E9FFFA
:1049600087C2EAFF8607000E875BE552E750EF6ECD
:10497000040E0F0B05E0D8908A338933E806FBE17B
:104980000F0E02018915106E116A000ED8801054A6
:10499000000E11540EE20F0E8915300FE66E86C21E
:1049A000E9FF87C2EAFF8607000E875BE552E75002
:1049B000EF6EDF5006E086C2E9FF87C2EAFF2D0EE8
:1049C00008D0010EDB5006E086C2E9FF87C2EAFF8D
:1049D0002B0EEF6E020EE15C02E2E16AE552E16E3F
:1049E000E552E7CFD9FF1200D9CFE6FFE1CFD9FFDB
:1049F000E652DF6ADF500201F76A8D25F66E8E51AE
:104A0000F7220800F55017E0140EDF5C14E2DF50C7
:104A1000F76A8D25F66E8E51F7220800F550E66E86
:104A2000DF50EA6A8B25E96E8C51EA22E552E750A5
:104A3000EF6EDF2ADFD7140EDF5C0AE2DF50EA6A8E
:104A40008B25E96E8C51EA22200EEF6EDF2AF3D718
:104A5000E552E552E7CFD9FF1200290E02018F5D22
:104A600003E38F51620805E2A00E106E4F0E116E27
:104A70000BD0290E8F5D040DF3CF10F0F4CF11F0A1
:104A8000620E10264D0E112210C0F3FF11C0F4FF6C
:024A9000120012
:0E4A9200D9CFE6FFE1CFD9FFE6520101986BC4
:104AA000996B9A6B9B6B9C6B9D6BF29EF29C9D909D
:104AB0008C8EDF6A500EDF5C0AE2CD909E90CE6A4B
:104AC000CF6ACD809EA0FED79E90DF2AF3D79D802F
:104AD000F28EF28CE552E552E7CFD9FF1200D9CF22
:104AE000E6FFE1CFD9FF020EE1260101995100084E
:104AF00042E3010E9EC1DBFFFE0EE66E46D8E55294
:104B0000450EE66E42D8E552010EDB50030A0CE07A
:104B1000010A08E0030A04E0010A0AE1E66A06D095
:104B2000400E03D0140E01D0540EE66E2ED8E5527E
:104B3000DF6A140EDF5C18E2010EDB50140DF3CFB8
:104B400010F0F4CF11F09F0E1026010E1122DF504D
:104B50000F011024E96E000E1120EA6EEF50E66E90
:104B600014D8E552DF2AE5D701019E2B040E9E5D85
:104B700002E39E6B1A94020EE15C02E2E16AE552E6
:104B8000E16EE552E7CFD9FF1200D9CFE6FFE1CFC2
:104B9000D9FF180E0101985D0DE29851EA6A800F65
:104BA000E96E010EEA22FE0EDBCFEFFF982B9D513E
:104BB00001E104D8E552E7CFD9FF1200F29EF29C42
:104BC0000101020E9C6F010E9D6FCD90BC0ECE6E4A
:104BD000FC0ECF6ECD80F28EF28C12009E90CD90A6
:104BE000820ECE6EFD0ECF6ECD8001019C51030A68
:104BF00013E0010A03E0020A33E01200030E9C6F87
:104C0000010E9B6F9951EA6A800FE96E010EEA224C
:104C1000EFCF9AF18C9E12009B5119E18C8E992B4B
:104C20009851995D09E39C6B9D6B996B986BCD9046
:104C30009E90CE6ACF6A12009951EA6A800FE96E9F
:104C4000010EEA22EFCF9AF1020E9C6F12009AA198
:104C500002D08C8E01D08C9E9A919A439B9F9B4749
:024C6000120040
:0E4C6200FFFF04F543F407F481F360F344F31D
:104C700029F317F306F395F286F278F270F262F2F6
:104C800055F249F242F236F231F225F220F215F2F3
:104C900010F205F201F296F192F188F184F180F1BF
:104CA00076F172F168F165F161F158F154F151F169
:104CB00048F144F141F138F135F132F129F126F1B1
:104CC00023F120F117F114F111F109F106F103F1CB
:104CD00000F198F095F092F090F087F085F082F076
:104CE00079F077F074F072F070F067F065F062F0D0
:104CF00060F057F055F053F050F048F046F043F0B4
:104D000041F039F037F034F032F030F028F025F08F
:104D100023F021F019F017F014F012F010F008F061
:104D200006F004F001F00000020004000600080094
:104D300010001200150017001900210023002500A3
:104D400027002900310033003500370039004100C9
:104D500043004500470049005100530055005700EB
:024D60006000F1
:0E4D620043686F3143686F32436D7031436DAB
:104D700070324372733143727332446C7931446CD4
:104D800079324472763144727632456E6831466CBF
:104D90007431466C7432466C7433466C7434466CB1
:104DA0006731466C6732466D6E7446786C70477436
:104DB00065314774653247657131476571324765C2
:104DC0007133476571344D6567614D636D314D6376
:104DD0006D324D6479314D64793250657132506570
:104DE000713350657134506571315068723150685B
:104DF0007232506974315069743251636831516351
:104E0000683252736E3152736E325276623152761C
:104E1000623252696E6752747231527472325379CF
:104E20006E3153796E3254726D3154726D32566FE9
:104E3000636F566F6C31566F6C32566F6C33566FB2
:0A4E40006C34576168315761683225
:064E4A00DACFE4FFE2CF25
:104E5000DAFFE9CFE4FFEACFE4FFF6CFE4FFF7CFD4
:104E6000E4FFF5CFE4FFF3CFE4FFF4CFE4FFFACFA4
:104E7000E4FF00EE00F0100EE80403E3EECFE4FFE1
:104E8000FBD700EE10F0080EE80403E3EECFE4FFDA
:104E9000FBD7E6529EA002D0EEEC25F09EA208D0F1
:104EA0009E920201462B040E465D02E1466B19807C
:104EB000E55200EE17F0080EE80403E3E5CFEDFF3E
:104EC000FBD700EE0FF0100EE80403E3E5CFEDFF93
:104ED000FBD7E5CFFAFFE5CFF4FFE5CFF3FFE5CF52
:104EE000F5FFE5CFF7FFE5CFF6FFE5CFEAFFE5CF2A
:084EF000E9FFE5CFDAFF110034
:084EF80004001CEC28F004008A
:104F000049EC25F00400FE0EE66EC5EC25F0E552F6
:104F1000510EE66EC5EC25F0E552FE0EE66EC5ECD0
:104F200025F0E552520EE66EC5EC25F0E552140E62
:104F3000E66EC5EC25F0E5525EEC21F03FEC16F094
:104F40007AEC28F00400F28EF28C19A003D01990AC
:104F500080EC28F01AA003D01A905EEC21F01AA27F
:104F600003D01A921FEC1AF019AE03D0199E62EC0E
:104F70001CF019AA03D0199A52EC22F01A50080B0F
:104F800005E01A50040B02E11A841A961A50040B19
:104F900005E001019C5102E16FEC25F0D3D712002E
:104FA0002020202000713D20203062706D202020C4
:104FB000202020202020202020005F5F756E6E6161
:104FC0006D656420736F6E672023202020200058B9
:104FD000202030204B202030204920312F2031202C
:104FE000302F300058202030204B202030205320FC
:104FF000312F203120302F300072656320706C79A2
:10500000206F6E632064756220627970200020201A
:105010002020202020202020202020202020202090
:105020002020004320316120202020202020302E0D
:0850300030202D2D2D2D2D0047
:08503800BDEC28F0896A8A6AC8
:105040008B6A8C6A8D6A926A100E936EF80E946E5B
:10505000956A020E966EA60EAC6E900EAB6E3F0E6B
:10506000AF6EB06A400EC26E0E0EC16E060EC06EFE
:10507000200EF26E800EF16ED08ED76AD66A420E86
:10508000D56ECF6ACE6ACD6ACC6AF90ECB6E0D0EA4
:0A509000CA6E030E9D6EF28E120030
:06509A00006A0EAE58EFA3
:1050A00028F00C6C0D1E0E1EE86A0D220E22001E4A
:1050B00009AE62EF28F0076C081E091EE86A082294
:1050C0000922001EA0EC28F009BE75EF28F000AE02
:1050D000000C076C081E091EE86A08220922036CEE
:1050E000041E051E04220522000C00BE69EF28F0F4
:0450F0000188FF0C28
:0C50F400020159695A695B695C6912008D
:105100001A80198E198A0201591D01E15A1D03E006
:10511000592B000E5A235B1D01E15C1D03E05B2B44
:10512000000E5C230201472B0A0E475D08E1476B26
:105130001A820201482B040E485D01E1486B1200FF
:10514000056A046A036A180EE76ED89007360836B7
:1051500009360336043605360C50035C0D500458EE
:105160000E50055807E30C50035E0D50045A0E50C4
:0A517000055A072AE72EEAD71200BD
:06517A00EA6AE96A040084
:10518000EE6AEAA6FCD71200000EF36E00EE00F005
:10519000080E01D81200EA6002D0EE6AFCD7F35084
:0851A000E9601200EE6AFCD781
:0851A800F000017403020D0187
:1051B00020000000000100F772656320706C792008
:0C51C0006F6E63206475622062797020BD
:0451CC0017EE00F0EA
:1051D00027EE00F0F86A019CEA6AE96A0400EE6AC8
:0E51E000EAA6EEEF28F07CEC27F0FDD71200D7
:0251EE00056A50
:1051F000080EE76ED890093605360E50055C02E3BE
:0A520000056E092AE72EF7D7120009
:06520A007D7D7D7D7D7DB0
:0A5210007DFA7D7D7D7D7D7D7D7D35
:06521A000000000000008E
:0C52200000000000000000000000000082
:10530000033826061724352D1F11192000142F23CA
:1053100013020B2605071B0F2A011509101E303139
:1053200021322E031D1627180DFFFFFFFFFFFFFF81
:10533000FFFFFFFFFFFFFFFFFFFFFFFFFFFFFFFF7D
:10534000FFFFFFFFFFFFFFFFFFFFFFFFFFFFFFFF6D
:10535000FFFFFFFFFFFFFFFFFFFFFFFFFFFFFFFF5D
:10536000FFFFFFFFFFFFFFFFFFFFFFFFFFFFFFFF4D
:10537000FFFFFFFFFFFFFFFFFFFFFFFFFFFFFFFF3D
:105380005E1A444D38292F4E392A305E1A44563859
:10539000292F57392A305E1A444D38292F4E392A81
:1053A000305E1A444D38292F4E392A305E1A444D4A
:1053B00038292F4E392A305E1A444D38292F4E395C
:1053C0002A305E1A444D38292F4E392A305E1A444D
:1053D0004D38292F4E392A305E1A444D38292F4E28
:1053E000392A305E1A444D38292F4E392A305E1A38
:1053F000444D38292F4E392A3000000000000000AB
:105400004D6F6E6B6579205772656E6368000000A2
:10541000000000000032AF44000001000080620084
:10542000008062000000000000000000000000009A
:10543000000000000000000000000000000000006C
:10544000000000000000000000000000000000005C
:10545000000000000000000000000000000000004C
:10546000000000000000000000000000000000003C
:10547000000000000000000000000000000000002C
:105480005A65726F0000000000000000000000007C
:105490000000000000328170000007000080620000
:1054A000008062000080620000897F00008062004E
:1054B000008062000080620000897F00008062003E
:1054C000008062000080620000887F00008062002F
:1054D00000806200000000000000000000000000EA
:1054E00000000000000000000000000000000000BC
:1054F00000000000000000000000000000000000AC
:10550000427564647920486F6C6C7900000000007B
:1055100000000000003279000000030000806200FB
:10552000008062000080620000887F0000806200CE
:105530000080620000000000000000000000000089
:10554000000000000000000000000000000000005B
:10555000000000000000000000000000000000004B
:10556000000000000000000000000000000000003B
:10557000000000000000000000000000000000002B
:10558000506C75736800000000000000000000000F
:105590000000000000329100000001000080620065
:1055A0000084620000000000000000000000000015
:1055B00000000000000000000000000000000000EB
:1055C00000000000000000000000000000000000DB
:1055D00000000000000000000000000000000000CB
:1055E00000000000000000000000000000000000BB
:1055F00000000000000000000000000000000000AB
:1056000044726976650000000000000000000000A0
:105610000000000001325B700000030000406200E7
:105620000040620000897500004062000040620096
:1056300000406200000000000000000000000000C8
:10564000000000000000000000000000000000005A
:10565000000000000000000000000000000000004A
:10566000000000000000000000000000000000003A
:10567000000000000000000000000000000000002A
:10568000436F6D652041726F756E6400000000000D
:105690000000000000326200000003000080620091
:1056A000008062000080620000887A000080620052
:1056B0000080620000000000000000000000000008
:1056C00000000000000000000000000000000000DA
:1056D00000000000000000000000000000000000CA
:1056E00000000000000000000000000000000000BA
:1056F00000000000000000000000000000000000AA
:105700005A656E000000000000000000000000006C
:1057100000000000003287000000070000806200E7
:1057200000887A00008062000080620000806200D1
:1057300000887A00008062000080620000806200C1
:1057400000887A00008062000088620000806200A9
:105750000080620000000000000000000000000067
:105760000000000000000000000000000000000039
:105770000000000000000000000000000000000029
:1057800053616E646D616E00000000000000000057
:105790000000000000327C000000090000006200F0
:1057A00000005D00008062000080590000806200FF
:1057B000008062000080627000887A0000006270E1
:1057C00000886B0000006200000062000080620040
:1057D0000000620000806200008062000080627051
:1057E00000887A00000000000000000000000000B7
:1057F00000000000000000000000000000000000A9
:10580000437261776C696E67000000000000000061
:105810000000000000325E000000080000806241CD
:10582000008A5B00008062000080620000806241AC
:10583000008A5B000080620000806200008062419C
:10584000008A5B000080620000806200008062418C
:10585000008A5B000080620000806200000000009F
:105860000000000000000000000000000000000038
:105870000000000000000000000000000000000028
:10588000536F6E672032000000000000000000002F
:1058900000000000003282700000060000806200FC
:1058A00000006200008062000080620000806200F0
:1058B00000006200008062000080620000806200E0
:1058C00000006200008062000080620000000000B2
:1058D00000000000000000000000000000000000C8
:1058E00000000000000000000000000000000000B8
:1058F00000000000000000000000000000000000A8
:105900005365782054797065205468696E6700008B
:1059100000000000003287000000010000806200EB
:105920000080620000000000000000000000000095
:105930000000000000000000000000000000000067
:105940000000000000000000000000000000000057
:105950000000000000000000000000000000000047
:105960000000000000000000000000000000000037
:105970000000000000000000000000000000000027
:10598000426C7565204361727300000000000000E6
:105990000000000000326500000009000080620085
:1059A0000088620000806200000C620000806200DB
:1059B0000088620000806200000C620000806200CB
:1059C000008862000080620000887500008062002C
:1059D000000C6200008062000088620000806200AB
:1059E00000887500000000000000000000000000BA
:1059F00000000000000000000000000000000000A7
:105A0000496E20426C6F6F6D0000000000000000C6
:105A1000000000000032500000000300008062001F
:105A2000008062000080620000807F0000806200D1
:105A30000080620000000000000000000000000084
:105A40000000000000000000000000000000000056
:105A50000000000000000000000000000000000046
:105A60000000000000000000000000000000000036
:105A70000000000000000000000000000000000026
:105A800048617368205069706500000000000000E4
:105A90000000000000327E00000003000080620071
:105AA000008062000080620000887F000080620049
:105AB0000080620000000000000000000000000004
:105AC00000000000000000000000000000000000D6
:105AD00000000000000000000000000000000000C6
:105AE00000000000000000000000000000000000B6
:105AF00000000000000000000000000000000000A6
:105B00004D79204865726F00000000000000000021
:105B10000000000000329A000000010000806200D6
:105B20000080620000000000000000000000000093
:105B30000000000000000000000000000000000065
:105B40000000000000000000000000000000000055
:105B50000000000000000000000000000000000045
:105B60000000000000000000000000000000000035
:105B70000000000000000000000000000000000025
:105B80004D616368696E65686561640000000000CE
:105B90000000000000326E51000001000080620031
