:020000040000FA
:0600000011EF00F01200F8
:0600080004EF08F01200F5
:080018000CEF08F060EF00F0AE
:020020001200CC
:0E002200400EC26E0E0EC16E060EC06E92989B
:10003000929A969092908998898A8D9089901DD8ED
:100040001CD81BD884A202D003D002D060EF00F0ED
:10005000060EF66E100EF76E0900F5CF10F00800D0
:10006000F5CF11F00D0E101802E1600E111802E12B
:0C00700000EF08F060EF00F0120012003A
:1000C000F26A13EE00F023EE00F0F86AFC6A6DA607
:1000D00002D082EC02F011D80400D3EC06F0E7EC79
:1000E00006F018D8060E0301B45D05E16D50020B51
:1000F00002E195EC00F0F0D71200140E6F6E0301D0
:10010000B46B0301B56B0301B66B8CEC00F08C9003
:1001100095901200120000000001E56BE969EA69A0
:10012000EB69E86B010EEC6F12000001E5511EE176
:10013000040108BF94D10001400EFE6F0001A10E22
:10014000FC6F000EFD6FA2EC06F00001010EE56FE2
:10015000ED6B400EED5D01E382D1ED51EA6A600F77
:10016000E96E000EEA22EF6AED2BF3D70001A151F0
:10017000080A01E171D1040A01E132D1050A01E165
:100180002DD10E0A01E1F6D0010A01E1EDD0030AFA
:1001900001E195D0010A4DE0070A41E0010A01E0C2
:1001A0005CD10001020E606F3A0E616F010E626F4A
:1001B000636F646B100E656F666B676BC00E686F64
:1001C0006D0E696F6A6B6B6B030E6C6F6D6B6E6B94
:1001D000300E6F6F706B0E0E716F726B736B746B92
:1001E000040E756F766B776B200E786F796B080E47
:1001F0007A6F7B6B7C6B7D6B020E7E6F7F6B806B8F
:10020000F00E816F826B836B010E846F856B866B42
:100210008769A50E996F04010CBF21D1DCD00001C4
:10022000010EEC6F0001A25101E013D10001EC6B53
:1002300010D1400E0001E66FE76B000EE65D020E86
:10024000E7591FE22FDAE6C000F0E7C001F0026ACA
:10025000060E1F0BE6C0F6FFE7C0F7FF02C0F8FF6F
:1002600006E0D890F636F736F836E806FAE1940E4E
:10027000A66E24DAE7EC06F00001E62B000EE72379
:10028000DCD7ED6BEDC0A9FFA868040EA66EE7EC05
:1002900006F014DA0001ED51ED2B006E016A026ADE
:1002A000FF0E005C000E0158000E0258EBE3F66AE8
:1002B000F76A200EF86E940EA66E00DACAD0300EE1
:1002C000A45D06E10001EC5101E0C3D092D9C1D098
:1002D000F00EA45D02E1B3D9BCD0E8680001E919D1
:1002E0000CE1E868EA1909E1E868EB1906E1A2C047
:1002F000E9F0A3C0EAF0A4C0EBF0E90EE96E000E4D
:10030000EA6EEE500001A21901E0A3D0EE50A3194D
:1003100001E09FD0EE50A41901E09BD001E099D0FC
:100320000001ED6B0001A6510001ED5D01E391D0EC
:10033000BDD9A70FE96E000EEA22EF50E66EE85134
:10034000EA6A600FE96E030EEA22E552E750EF6EAB
:10035000E82BE92B000EEA23EB23200EE85D01E1F8
:10036000E4D80001ED2BDED7E0D80001E969EA69A5
:10037000EB6970D00001070E606FA2C061F0A3C0EE
:1003800062F0A4C063F0A5C064F0A6C065F0A2C08E
:10039000F6FFA3C0F7FFA4C0F8FF0001ED6B00015A
:1003A000A6510001ED5D14E2F00E0001A45D0AE12A
:1003B000A2510001ED25A96EA66AA68084D9A8CF16
:1003C000EFFF04D071D97FD9F5CFEFFFED2BE7D741
:1003D00004010CBF44D00001400E33D041D839D0C5
:1003E00000010C0E606F010E616F626F160EF66EEB
:1003F000100EF76E0900F5CF63F00A00F5CF64F038
:10040000060E656F100E666F676B686B0D0E696F79
:10041000600E6A6F400E6B6F6C6B6D6B6E6B6F690D
:10042000706971697269736B74697569766B7769E4
:10043000786979697A697B697C6904010CBF0FD09E
:100440000001FA6F0001600EF86F000EF96F7CEC8E
:1004500006F00001E56B120050D80001E56B1200B8
:10046000F66A100EF76EF86A0001EE6B400E00019E
:10047000EE5D0DE209000001EE51EA6A600FE96EDF
:10048000030EEA22F5CFEFFF0001EE2BEFD70301B9
:100490000D0E666F0301600E676FF66A100EF76E41
:1004A000F86A940EA66E0001B50EF46FE8D83F0E00
:1004B000F66E100EF76EF86A00013F0EEE6F000147
:1004C000EE51EA6A600FE96E030EEA22EF50F56E14
:1004D0000C000001EE511F0B07E1E4D8A40EA66E3C
:1004E0000001B50EF46FCBD80A000001EE5101E116
:1004F00003D00001EE07E3D7120004D8FF0000008C
:10050000000012000301B869B9690301B8C300F023
:10051000B9C301F0B807000EB95B0050011004E048
:100520006D926D6ABFD8F1D712000001F06BE8C080
:1005300000F0016A026A00500001E95DF66E0150A8
:100540000001EA59F76E02500001EB59F86E1F0ED8
:10055000F6140001F16FE00EF6160001EF6B200EAD
:100560000001EF5D1FE20001F15115E10001E851CA
:100570000FE00001F051EA6A600FE96E030EEA2213
:10058000EF50F56E0D000001F02B0001E80702D0DE
:10059000F5680D0004D0F5680D000001F1070001B9
:1005A000EF2BDDD70A00A40EA66E0001B50EF46F86
:1005B00066D80001EF6B0001E8510001EF5D18E221
:1005C0000001F0510001EF25EA6A600FE96E030EA9
:1005D000EA22EF50E66E0001EF51EA6A600FE96E21
:1005E000030EEA22E552E750EF6E0001EF2BE3D74E
:1005F0001200A2C0F6FFA3C0F7FFA4C0F8FF0001DD
:10060000F26B0001A6510001F25D18E23A0E000102
:10061000D880A6550001F225EA6AA70FE96E000E00
:10062000EA22EF50F56E0C00C40EA66E0001B50E66
:10063000F46F25D809000001F22BE3D71200000166
:10064000F36B0001A6510001F35D18E20001A25115
:100650000001F325A96E3A0E0001D880A6550001CD
:10066000F325EA6AA70FE96E000EEA22EF50A86EA2
:10067000040EA66E23D80001F32BE3D71200F29EDE
:10068000B50E0001F45D05E0030ED36E0300FED746
:10069000FF00550EA76EAA0EA76EA682A6B2FED7C1
:1006A000A694120004001200090012003A0E000184
:1006B000D880A6550001ED25EA6A12000001B50EAA
:1006C000F46F3FEF03F0F2DF660FE96E000EEA22EF
:1006D00012006C5033E16896040100513C0BE84273
:1006E000E8420D0829E1180E021924E1040E03194D
:1006F00021E1100E026F040E036F0301A96BA951D3
:10070000006E016A080E005C000E015813E2A95148
:10071000EA6A180FE96E040EEA22EF50E66EA9515C
:10072000EA6A100FE96E040EEA22E552E750EF6E16
:10073000A92BE5D70AD8010C3AD8010C040E6C5C41
:1007400003E168964BD8010C000C040104BF046B54
:100750000301A86BA06BA16BA66BA76BC5EC04F0A3
:100760000301AA6BAA51006E016A010E005C000E23
:1007700001581BE2A15119E1AA51F66EF76AD8900F
:10078000F636F736BE0EF6260F0EF7220900F5CF25
:1007900000F00800F5CF01F004D001C0FAFF0050CE
:1007A000F96EFBDF0301AA2BDDD76DEF04F0020E1B
:1007B0000301A05D0EE178D80401180E026F040E4B
:1007C000036F080E016F00BD02D0C80E05D0880E61
:1007D00003D0BCD8CBD88C0E006F1200040E0301DE
:1007E000B45D09E112C46EFF6E50000802E2050E0E
:1007F00001D0030EB46F0301A00510E111D8020E61
:100800000301A85D03E10401840E06D0040104BDC8
:1008100002D0C80E01D0880E046F1200A6EF04F0BB
:100820000301080EA65D000EA7590DE2A6C3ABF3A7
:10083000A7C3ACF3A85102E1010E03D0A80506E15D
:10084000020EA86F03D0080EAB6FAC6B04010493CB
:1008500004910301AC5104010413ABC305F403017B
:10086000AB51A65DA66FAC51A759A76F180EA46F28
:10087000040EA56F0301B5A30ED00301AB51AC115B
:1008800012E0A2C3F6FFA3C3F7FF0800F55063D838
:10089000AB07AC5BF2D70301AB51AC1104E06ED8EF
:1008A000AB07AC5BF8D71200030E0401001503017F
:1008B000AE6F01C4ADF3A651AD25A66FA751AE2111
:1008C000A76F180EA26F040EA36FAD51AE1104E016
:1008D00055D8AD07AE5BF9D712006D980301A15151
:1008E00005E144D8840E006F04011DD0040110AF4F
:1008F0001CD00301A6510401165D0301A751040198
:10090000175904E216C4A6F317C4A7F389DF03013D
:10091000010EA06F2BD8800E006F0401180E066F19
:10092000040E076FC80E046F12000301020EA06FC1
:100930000401056BC80E046F0401080E016F180E48
:10094000026F040E036FC80E006F12000301A06B4C
:100950000401046B1200A4C3E9FFA5C3EAFFEF6E14
:10096000A42B000EA523A22BA32312000401080E22
:10097000016F100E026F040E036F1200A2C3E9FF95
:10098000A3C3EAFFEF50ABEF04F004011051600B7A
:10099000E842E842E842E842E842000901E0120089
:1009A0001151070A40E00B0A3EE0070A33E0010A52
:1009B00023E00B0A1FE0020A1DE0030A19E0080AFF
:1009C00010E0010A0CE00F0A08E0030A01E012003F
:1009D0000DD90301040EB46F120014EF05F04BEFB4
:1009E00005F004D90301B60EA26F030EA36F0CD05D
:1009F0006AEF05F09AEF05F0FDD80301A26FA36B33
:100A0000B70EA227030EA3230301B5930301010E22
:100A1000A66F1200EFD8EA6AB70FE96E030EEA225A
:100A200012C4EFFF12001200800E0401105D32E1CB
:100A30001351030A1FE0010A0AE0030A29E1D6D88C
:100A40000301FE0EA26F0E0EA36F120E1ED0B4D8BD
:100A5000B40EF6260F0EC2D8020E0301F76AA225C5
:100A6000F66EA351F7220900F5CFA6F30A00F5CFE1
:100A7000A7F30ED0A1D8B80EF6260F0EAFD8A2C39A
:100A8000F6FFA3C3F7FF0800F5500301A66FA76B9D
:100A90000301B5831200AAD8716A726A736A746A14
:100AA000756A766A776A0301B36F0301B70EB16F97
:100AB000030EB26F73EC07F012C4B6F304011251C7
:100AC00004E10301050EB46F12000301060EB46FBA
:100AD00067EF06F00401186B196B040110511F0B2E
:100AE000020A0DE0030A09E0010A16E17FD80301BA
:100AF000B5A112D0040118830FD078D80DD050D8EA
:100B000001E0010E62D8A4C3E9FFEA6EEF50040BC6
:100B100003E00401010E186F0301A1050AE10301BE
:100B2000180EA26F040EA36F0301B5930301020E0A
:100B3000A66F1200040112050EE110511F0B0009EF
:100B40000AE154D8030E0401115D03E10301B581EC
:100B500002D00301B5910401125121E110511F0B84
:100B600002081DE114510F0B000919E019D801E02A
:100B7000010E2BD8030E0401115D02E1840E03D097
:100B800014AF07D0400EA4C3E9FFA5C3EAFFEF6E80
:100B90001200880EA4C3E9FFA5C3EAFFEF6E12009E
:100BA00029D80F0B080DF350016A000F006E040ED8
:100BB00001221451800B120019D804011251F66E53
:100BC000F76AD890F636F7361200040DF350030199
:100BD0000024A46F000E0120A56F1200F722090067
:100BE000F5CFA2F30A00F5CFA3F312000301010E23
:100BF000A16F1200FBDF0401145112000401105117
:100C00001F0B010801E01200145101E01200060E52
:100C1000115D24E11351230A1FE0010A0DE0030ACC
:100C20001BE1BDD80301B60505E10301220EA26F49
:100C30000F0EA36F090E0DD0B2D80301B60505E162
:100C40000301970EA26F0F0EA36F0301B60504E117
:100C50001D0E0301A66FA76B0301B583040110519C
:100C6000600BE842E842E842E842E842010801E05D
:100C7000120011510B0A25E0080A17E0090A11E0D9
:100C8000080A09E00B0A05E0080A01E0120065EF16
:100C900006F066EF06F083D80301F50EA26F000E92
:100CA00009D07DD813C4F5F0120079D80301F60EEF
:100CB000A26F000EA36F0301B5930301010EA66F8F
:100CC00012006DD812C4F6F01200120012000001DA
:100CD000F76B1E0E716E0401400E096F200E0A6F35
:100CE000040E0B6F880E086F0401600E0E6F040E69
:100CF0000F6F400E0C6F12000001FA51400802E223
:100D0000400EFA6FFB6BFA51FB5D13E2FB51EA6A8E
:100D1000F825E96EF951EA22EF50E66EFB51EA6AD6
:100D2000600FE96E040EEA22E552E750EF6EFB2BEE
:100D3000EAD7FAC00DF4400E04010C170C7D880EA2
:100D40000C1312000001F76B040108BF25D00951F4
:100D50000001D880FE5502E209C4FEF0F76BFE5197
:100D6000F75D13E2F751EA6A200FE96E040EEA22FA
:100D7000EF50E66EF751EA6AFC25E96EFD51EA2272
:100D8000E552E750EF6EF72BEAD70401400E096FEA
:100D90000817087D880E08130001F751120003019F
:100DA000020EA16F12006DB606D06D6A696A6D867B
:100DB0000301010EB46F0301B40508E16DBA06D05A
:100DC000686A696A69806988020EB46F120003015B
:100DD000B45101E1120068B445D86DB2120068B098
:100DE00058D868B817D868BA44D8030E0301B45D60
:100DF00001E212000301AF6B040EAF5D0AE268A6C8
:100E000008D069EC03F0000901E168960301AF2BFB
:100E1000F3D7120069CFB0F3040E696E68986D8243
:100E2000A19AA08A0300A150200B05E1D050080B25
:100E300002E10300F8D7A09A0301B051691203013F
:100E4000D50EB86F020EB96F0301B8C300F0B9C375
:100E500001F0B807000EB95B0050011002E0040079
:100E6000F3D712006D92699468A402D06894FCD7FD
:100E7000120070A00CD0800E0401005D07E1840E0A
:100E80000401045D03E104018C0E006F7090689A08
:100E900012006A6A686A9F0E6B6E7B0E696E6E6ADC
:100EA000716A726A736A746A756A766A776A160E0C
:100EB000706E68A604D0689652EC03F0FAD76D986D
:100EC000A6EC04F00401080E016F100E026F040E70
:100ED000036F8C0E006F0301B5910301B66B030124
:100EE000030EB46F1200B1C3E9FFB2C3EAFF0301FE
:100EF000B35104E0EE6A0301B307F9D712001201FF
:100F0000000200000008D8043C00010101020001B9
:100F100009022900010100C0320904000002030097
:100F20000000092111010001221D00070581034075
:100F30000001070501034000010403090434034DC7
:100F4000006900630072006F006300680069007050
:100F500000200054006500630068006E006F006CA4
:100F6000006F0067007900200049006E0063002ECA
:100F70000026034800490044002000550053004269
:100F800000200042006F006F0074006C006F006171
:100F9000006400650072000600FF0901A10119014B
:100FA0002940150026FF0075089540810019012988
:100FB000409100C0100F100F390F3D0F710FFC0B47
:100FC000000EF36E00EE00F0080E01D81200EA6089
:100FD00002D0EE6AFCD7F350E9601200EE6AFCD74B
:100FE000FFFFFFFFFFFFFFFFFFFFFFFFFFFFFFFF11
:100FF000FFFFFFFFFFFFFFFFFFFFFFFFFFFFFFFF01
:06100000D8EF21F0120000
:021006000D607B
:0610080075EF20F012005C
:02100E000000E0
:021016000001D7
:08101800D9CFE6FFE1CFD9FFBB
:10102000E150FD0FE96EFF0EDA20EA6EEE50ED1092
:1010300007E1830E106E420E10C0F3FFF46E1ED057
:10104000FD0EDBCF10F0FE0EDBCF11F01006000E10
:10105000115A140E1102F3CF11F01002F3CF10F059
:10106000F4501126400E1026200E112210C0E6FF6B
:1010700011C0E6FF70EC1EF0E552E552E552E7CFF5
:10108000D9FF1200D9CFE6FFE1CFD9FFFC0EDB502C
:10109000106E116AE150FD0FE96EFF0EDA20EA6E64
:1010A0001050EE261150ED22FB0EDB500F0BF76AAD
:1010B000140FF66E400EF7220800F550E66EFD0E96
:1010C000DBCFE9FFDB06FE0EDBCFEAFF01E2DB064A
:1010D000E552E750EF6EFB0EDB380F0B0F0BF76A94
:1010E000140FF66E400EF7220800F550E66EFD0E66
:1010F000DBCFE9FFFE0EDBCFEAFFE552E750EF6EF4
:10110000E552E7CFD9FF1200D9CFE6FFE1CFD9FFF3
:101110000A0E126E0C6EFB0EDBCF07F0E9EC21F02D
:101120000350300FE66EFC0EDBCFF3FFDB06F3500F
:10113000106E116A10BE1168FD0EDB501024E96EAE
:10114000FE0EDB501120EA6EE552E750EF6E0A0EFC
:10115000106E0C6EFB0EDBCF07F0E9EC21F0FB0EFE
:1011600007C0DBFF07500008D3E3FC0EDB50E5525D
:10117000E7CFD9FF1200D9CFE6FFE1CFD9FFE65282
:10118000FC0EDB50106E116AD950FD0FE96EFF0E98
:10119000DA20EA6E1050EE261150ED22FB0EDB50E5
:1011A000800B02E1000E01D0010EDF6EFA0EDBCFE4
:1011B00010F0FB0EDBCF11F0FF0E10167F0E111694
:1011C000FF0E101824E17F0E111821E1FD0EDBCF78
:1011D000E9FFDB06FE0EDBCFEAFF01E2DB06660E6F
:1011E000EF6EFD0EDBCFE9FFDB06FE0EDBCFEAFF85
:1011F00001E2DB066E0EEF6EFD0EDBCFE9FFDB06D4
:10120000FE0EDBCFEAFF01E2DB06690E87D00F0E90
:10121000E76EFA0EDBCF10F0FB0EDBCF11F0E750DC
:101220001016116A300E1024E66EFD0EDBCFE9FFBA
:10123000DB06FE0EDBCFEAFF01E2DB06E552E750FC
:10124000EF6EFD0EDBCFE9FFDB06FE0EDBCFEAFF24
:1012500001E2DB062E0EEF6ED950FA0FE96EFF0E9B
:10126000DA20EA6E040E0F0B06E0EC52D890ED3255
:10127000EF32E806FAE10F0EE76EFA0EDBCF10F060
:10128000FB0EDBCF11F0E7501016116A300E102460
:10129000E66EFD0EDBCFE9FFDB06FE0EDBCFEAFFDD
:1012A00001E2DB06E552E750EF6ED950FA0FE96E26
:1012B000FF0EDA20EA6E040E0F0B06E0EC52D89017
:1012C000ED32EF32E806FAE10F0EE76EFA0EDBCFF1
:1012D00010F0FB0EDBCF11F0E7501016116A000E74
:1012E000D8801054000E11541AE20F0EE76EFA0E59
:1012F000DBCF10F0FB0EDBCF11F0E7501016116AB8
:10130000300E1024E66EFD0EDBCFE9FFDB06FE0E8D
:10131000DBCFEAFF01E2DB06E552E750EF6EDF507C
:1013200008E0FD0EDBCFE9FFFE0EDBCFEAFF2D0E5E
:10133000EF6EE552E552E7CFD9FF1200D9CFE6FFB5
:10134000E1CFD9FFE652DF6ADF50E76EFD0EDBCF5B
:10135000F6FFFE0EDBCFF7FFE750F626000EF72272
:101360000800F55023E0140EDF5C20E2DF50E76E4A
:10137000FD0EDBCFF6FFFE0EDBCFF7FFE750F626C4
:10138000000EF7220800F550E66EDF50E76EFB0E08
:10139000DBCFE9FFFC0EDBCFEAFFE750E926000ECA
:1013A000EA22E552E750EF6EDF2ACED7140EDF5C5B
:1013B00010E2DF50E76EFB0EDBCFE9FFFC0EDBCF68
:1013C000EAFFE750E926000EEA22200EEF6EDF2A40
:1013D000EDD7E552E552E7CFD9FF120002010C51DB
:1013E000E96EEA6AD890E936EA360D0EE926020E71
:1013F000EA22EE52EFCF10F010C011F0106A0C513B
:10140000E96EEA6AD890E936EA360D0EE926020E50
:10141000EA22EF5010100A6F11C00BF220510A1986
:1014200002E121510B190CE00AC2E6FF0BC2E6FFF4
:10143000C7EC1CF0E552E5520AC220F20BC221F2C1
:101440001200D9CFE6FFE1CFD9FF0B0EE126DF6A0C
:10145000010E02011715E76E030EE7CFDBFF010E49
:101460002D15E76E040EE7CFDBFFDB50F36E030EA6
:10147000DB50F35C02E1000E01D0010EE76E090EB5
:10148000E7CFDBFF165102E1400E01D01651E76EA7
:10149000010EE7CFDBFF2C5102E1400E01D02C51B1
:1014A000E76E020EE7CFDBFFDB50F36E010EDB5081
:1014B000F35C02E1000E01D0010EE76E0A0EE7CFE9
:1014C000DBFF030EDB5008E0100EF36E010EDBCFE6
:1014D000F4FFF350F45C02E2000E01D0010EE76E5F
:1014E000050EE7CFDBFF040EDB5008E0100EF36EB5
:1014F000020EDBCFF4FFF350F45C02E2000E01D0E9
:10150000010EE76E060EE7CFDBFF0A0EDB50DF129F
:10151000030EDB5003E00A0EDB5005E1090EDB5041
:1015200002E1000E01D0010EE76E080EE7CFDBFFEF
:10153000DB5045E0030EDB5002E1000E02D0010E4D
:10154000DB50E66E120EE66E020EE66E0B0EE66ED7
:1015500016EC1DF0E552E552E552E552060EDB5061
:10156000F36E050EDB50F35C28E0050EDB50FF0D3B
:10157000F3407F0BE66E3C0EE66E020EE66E0B0E3F
:10158000E66E16EC1DF0E552E552E552E552050E09
:10159000DB5002E0000E01D0010EFF0DF3407F0B87
:1015A000E66E2B0EE66E020EE66E0B0EE66E16EC87
:1015B0001DF0E552E552E552E552010EDF6E010ED7
:1015C00002011A15E76E030EE7CFDBFF010E30159F
:1015D000E76E040EE7CFDBFFDB50F36E030EDB504C
:1015E000F35C02E1000E01D0010EE76E090EE7CFB9
:1015F000DBFF195102E1400E01D01951E76E010ED7
:10160000E7CFDBFF2F5102E1400E01D02F51E76EF3
:10161000020EE7CFDBFFDB50F36E010EDB50F35C15
:1016200002E1000E01D0010EE76E0A0EE7CFDBFFEC
:10163000030EDB5008E0100EF36E010EDBCFF4FF5B
:10164000F350F45C02E2000E01D0010EE76E050ECD
:10165000E7CFDBFF040EDB5008E0100EF36E020E46
:10166000DBCFF4FFF350F45C02E2000E01D0010E78
:10167000E76E060EE7CFDBFF0A0EDB50DF12030E2C
:10168000DB5003E00A0EDB5005E1090EDB5002E1FE
:10169000000E01D0010EE76E080EE7CFDBFFDB5036
:1016A00045E0030EDB5002E1000E02D0010EDB50DC
:1016B000E66E130EE66E020EE66E0B0EE66E16EC8E
:1016C0001DF0E552E552E552E552060EDB50F36E91
:1016D000050EDB50F35C28E0050EDB50FF0DF340F8
:1016E0007F0BE66E3D0EE66E020EE66E0B0EE66EAC
:1016F00016EC1DF0E552E552E552E552050EDB50C1
:1017000002E0000E01D0010EFF0DF3407F0BE66EEC
:101710002C0EE66E020EE66E0B0EE66E16EC1DF05B
:10172000E552E552E552E552010EDF6E020E02016E
:101730001715E8407F0BE76E070EE7CFDBFF020EC1
:101740002D15E8407F0BF36E070EDB50F35C18E0BD
:10175000070EDB5002E0000E01D0010EFF0DF3403A
:101760007F0BE66E640EE66E020EE66E0B0EE66E04
:1017700016EC1DF0E552E552E552E552010EDF6E22
:10178000020E02011A15E8407F0BE76E070EE7CF45
:10179000DBFF020E3015E8407F0BF36E070EDB50C7
:1017A000F35C18E0070EDB5002E0000E01D0010EE2
:1017B000FF0DF3407F0BE66E650EE66E020EE66EE1
:1017C0000B0EE66E16EC1DF0E552E552E552E552C1
:1017D000010EDF6E02012E51185D10E018C2E6FF07
:1017E000100EE66E020EE66E0B0EE66E16EC1DF0A7
:1017F000E552E552E552E552010EDF6E020131512C
:101800001B5D10E01BC2E6FF110EE66E020EE66ED7
:101810000B0EE66E16EC1DF0E552E552E552E55270
:10182000010EDF6E100E02011715E8380F0B106E57
:10183000100E2D15E8380F0B105C14E0100E171564
:10184000E8380F0BFF0DF3407F0BE66E2F0EE66EB0
:10185000020EE66E0B0EE66E16EC1DF0E552E5523A
:10186000E552E552100E02011A15E8380F0B106E02
:10187000100E3015E8380F0B105C14E0100E1A151E
:10188000E8380F0BFF0DF3407F0BE66E300EE66E6F
:10189000020EE66E0B0EE66E16EC1DF0E552E552FA
:1018A000E552E552040E02011715E840E8403F0BEF
:1018B000106E040E2D15E840E8403F0B105C15E05B
:1018C000040E1715E840E8403F0BFF0DF3407F0B77
:1018D000E66E4D0EE66E020EE66E0B0EE66E16EC32
:1018E0001DF0E552E552E552E552040E02011A15CB
:1018F000E840E8403F0B106E040E3015E840E84029
:101900003F0B105C15E0040E1A15E840E8403F0B51
:10191000FF0DF3407F0BE66E4E0EE66E020EE66E96
:101920000B0EE66E16EC1DF0E552E552E552E5525F
:10193000080E02011715E840E840E8401F0B106E42
:10194000080E2D15E840E840E8401F0B105C16E03B
:10195000080E1715E840E840E8401F0BFF0DF34064
:101960007F0BE66E290EE66E020EE66E0B0EE66E3D
:1019700016EC1DF0E552E552E552E552080E020163
:101980001A15E840E840E8401F0B106E080E3015AD
:10199000E840E840E8401F0B105C16E0080E1A15FE
:1019A000E840E840E8401F0BFF0DF3407F0BE66E78
:1019B0002A0EE66E020EE66E0B0EE66E16EC1DF0BB
:1019C000E552E552E552E552200E02011715E00BF3
:1019D000E838E840106E200E2D15E00BE838E8409E
:1019E000105C15E0200E1715E00BE838E840FF0DFD
:1019F000F3407F0BE66E4B0EE66E020EE66E0B0EAC
:101A0000E66E16EC1DF0E552E552E552E552200E69
:101A100002011A15E00BE838E840106E200E301570
:101A2000E00BE838E840105C15E0200E1A15E00BDA
:101A3000E838E840FF0DF3407F0BE66E4C0EE66E93
:101A4000020EE66E0B0EE66E16EC1DF0E552E55248
:101A5000E552E55202012D51175D02E0010EDF6EE5
:101A600030511A5D02E0010EDF6E2851125D03E174
:101A70002951135D02E0010EDF6E2A51145D02E070
:101A8000010EDF6E2B51155D02E0010EDF6E33514A
:101A90001D5D02E0010EDF6EDF5001E00AD80B0E83
:101AA000E15C02E2E16AE552E16EE552E7CFD9FF7F
:101AB0001200D9CFE6FFE1CFD9FF060EE126DF6A9B
:101AC000DFCF10F0140EE76E1018E8AE02D0E73446
:101AD00002D0E750105C6BE2DFCFF6FFF76AF6BE8C
:101AE000F7686E0EF626420EF7220800F550E66EF5
:101AF000DFCF10F0116A10BE1168020100511024EE
:101B0000E96E01511120EA6EE552E750EF6EDFCF2A
:101B1000F6FFF76AF6BEF7686E0EF626420EF7225B
:101B20000800F550E66EDFCF10F0116A10BE1168A4
:101B300002511024E96E03511120EA6EE552E7507C
:101B4000EF6EDFCFF6FFF76AF6BEF768590EF6269E
:101B5000420EF7220800F550E66EDFCF10F0116A52
:101B600010BE116804511024E96E05511120EA6E6F
:101B7000E552E750EF6EDFCFF6FFF76AF6BEF76883
:101B8000440EF626420EF7220800F550E66EDFCF2F
:101B900010F0116A10BE116806511024E96E075149
:101BA0001120EA6EE552E750EF6EDF2A89D7020175
:101BB00010512BE1DF6ADFCF10F0140EE76E101822
:101BC000E8AE02D0E73402D0E750105C1CE2DFCF71
:101BD000F6FFF76AF6BEF7682F0EF626420EF722DA
:101BE0000800F550E66EDFCF10F0116A10BE1168E4
:101BF00000511024E96E01511120EA6EE552E750C0
:101C0000EF6EDF2AD8D7122973D037417F0BE76EEA
:101C1000030EE7CFDBFF3651E00BE838E840106EEB
:101C2000010E3715080DF3501010E76E040EE7CFC4
:101C3000DBFF1F0E3615E76E050EE7CFDBFFDF6A11
:101C4000DFCF10F0140EE76E1018E8AE02D0E734C4
:101C500002D0E750105C1CE2DFCFF6FFF76AF6BE59
:101C6000F7681A0EF626420EF7220800F550E66EC7
:101C7000DFCF10F0116A10BE116800511024E96E18
:101C800001511120EA6EE552E750EF6EDF2AD8D7F6
:101C9000030EDB500E0FE66E030EE66E00C2E6FF8B
:101CA00001C2E6FF84EC08F0E552E552E552E55248
:101CB000040EDB28E66E060EE66E00C2E6FF01C2E9
:101CC000E6FF84EC08F0E552E552E552E552050ED8
:101CD000DB28E66E090EE66E00C2E6FF01C2E6FFF3
:101CE00084EC08F0E552E552E552E5520201112973
:101CF000E66E0D0EE66E00C2E6FF01C2E6FF84EC62
:101D000008F0E552E552E552E55202011329E66E6C
:101D1000130EE66E00C2E6FF01C2E6FF84EC08F097
:101D2000E552E552E552E55275C2E6FF76C2E6FF9E
:101D30000CEC08F0E552E552DE52F3CFDEFFF4CFB3
:101D4000DDFFDD5202C2E6FF03C2E6FF010EDBCF7C
:101D5000E6FF020EDBCFE6FF9EEC09F0E552E5520E
:101D6000E552E55202011D5108E0130EEA6A022510
:101D7000E96E0351EA222A0EEF6E145102E12A0E97
:101D800001D0200EE66E020EEA6A0425E96E0551C6
:101D9000EA22E552E750EF6E140502E12A0E01D067
:101DA000200EE66E0D0EEA6A0425E96E0551EA2260
:101DB000E552E750EF6E1851F66EF76AD890F63696
:101DC000F736140EF6263F0EF7220900F5CFE6FF90
:101DD0000800F5CFE6FF080EE66E04C2E6FF05C276
:101DE000E6FFBBEC08F0106E050EE15E105002013C
:101DF0001B51F66EF76AD890F636F736140EF626B3
:101E00003F0EF7220900F5CFE6FF0800F5CFE6FF09
:101E1000130EE66E04C2E6FF05C2E6FFBBEC08F057
:101E2000106E050EE15E1050010E0201171502E062
:101E3000000E01D0010E200DF350470906C2E9FF44
:101E400007C2EAFFEF6E020E1715E8407F0B580934
:101E5000E66E010EEA6A0625E96E0751EA22E552AE
:101E6000E750EF6E040E1715E840E8403F0B02E024
:101E7000000E01D0010E200DF3505009E66E020E47
:101E8000EA6A0625E96E0751EA22E552E750EF6E4D
:101E9000080E1715E840E840E8401F0B02E0000E6E
:101EA00001D0010E200DF3504309E66E030EEA6ADD
:101EB0000625E96E0751EA22E552E750EF6E100E53
:101EC0001715E8380F0B02E0000E01D0010E200DAF
:101ED000F3504409E66E040EEA6A0625E96E0751DE
:101EE000EA22E552E750EF6E200E1715E00BE838B6
:101EF000E840000902E0000E01D0010E200DF35071
:101F00004609E66E050EEA6A0625E96E0751EA22E1
:101F1000E552E750EF6E165102E1400E01D0165126
:101F2000E66E080EE66E06C2E6FF07C2E6FF42EC6A
:101F300008F0E552E552E552E552010E02011A158C
:101F400002E0000E01D0010E200DF3504709E66EAD
:101F50000B0EEA6A0625E96E0751EA22E552E750C0
:101F6000EF6E020E1A15E8407F0B5809E66E0C0E54
:101F7000EA6A0625E96E0751EA22E552E750EF6E5C
:101F8000040E1A15E840E8403F0B02E0000E01D0B5
:101F9000010E200DF3505009E66E0D0EEA6A06257B
:101FA000E96E0751EA22E552E750EF6E080E1A1566
:101FB000E840E840E8401F0B02E0000E01D0010EAF
:101FC000200DF3504309E66E0E0EEA6A0625E96E0F
:101FD0000751EA22E552E750EF6E100E1A15E83865
:101FE0000F0B02E0000E01D0010E200DF35044094A
:101FF000E66E0F0EEA6A0625E96E0751EA22E552FF
:10200000E750EF6E200E1A15E00BE838E8400009A3
:1020100002E0000E01D0010E200DF3504609E66EDD
:10202000100EEA6A0625E96E0751EA22E552E750EA
:10203000EF6E195102E1400E01D01951E66E130EF8
:10204000E66E06C2E6FF07C2E6FF42EC08F0E55284
:10205000E552E552E552F8EC1CF0060EE15C02E2B6
:10206000E16AE552E16EE552E7CFD9FF12000201C5
:10207000155101E1B7D0010E1A15106E010E17159A
:102080001010116E0C51E96EEA6AD890E936EA3602
:102090000D0EE926020EEA22EE521150010BF36EEC
:1020A000FE0EEF14F310EF6E020E1A15E8407F0BD0
:1020B000106E020E1715E8407F0B1010116E0C51B8
:1020C000E96EEA6AD890E936EA360D0EE926020E84
:1020D000EA22EE521150010BF36EF346FD0EEF149F
:1020E000F310EF6E040E1A15E840E8403F0B106E37
:1020F000040E1715E840E8403F0B1010116E0C510C
:10210000E96EEA6AD890E936EA360D0EE926020E43
:10211000EA22EE521150010BF36EF346F346FB0E2A
:10212000EF14F310EF6E080E1A15E840E840E8408F
:102130001F0B106E080E1715E840E840E8401F0B13
:102140001010116E0C51E96EEA6AD890E936EA3641
:102150000D0EE926020EEA22EE521150010BF36E2B
:10216000F346F346F346F70EEF14F310EF6E100E3E
:102170001A15E8380F0B106E100E1715E8380F0BF4
:102180001010116E0C51E96EEA6AD890E936EA3601
:102190000D0EE926020EEA22EE521150010BF36EEB
:1021A000F346F346F346F346EF0EEF14F310EF6EEB
:1021B000200E1A15E00BE838E840106E200E1715B7
:1021C000E00BE838E8401010116E0C51E96EEA6A35
:1021D000D890E936EA360D0EE926020EEA22EE52D2
:1021E0001150D2D01451030DF3CFE9FFF4CFEAFF21
:1021F000160EE926020EEA22EE52EF50010B106E87
:102200000C51E96EEA6AD890E936EA360D0EE926F5
:10221000020EEA22EE521050010BF36EFE0EEF1486
:10222000F310EF6E1451030DF3CFE9FFF4CFEAFF83
:10223000160EE926020EEA22EE52EF50020BE8409B
:102240007F0B106E0C51E96EEA6AD890E936EA36D7
:102250000D0EE926020EEA22EE521050010BF36E2B
:10226000F346FD0EEF14F310EF6E1451030DF3CF90
:10227000E9FFF4CFEAFF160EE926020EEA22EE523B
:10228000EF50040BE840E8403F0B106E0C51E96E34
:10229000EA6AD890E936EA360D0EE926020EEA22FD
:1022A000EE521050010BF36EF346F346FB0EEF14A3
:1022B000F310EF6E1451030DF3CFE9FFF4CFEAFFF3
:1022C000160EE926020EEA22EE52EF50080BE84005
:1022D000E840E8401F0B106E0C51E96EEA6AD89096
:1022E000E936EA360D0EE926020EEA22EE521050C9
:1022F000010BF36EF346F346F346F70EEF14F310BB
:10230000EF6E1451030DF3CFE9FFF4CFEAFF160E81
:10231000E926020EEA22EE52EF50100BE8380F0BBE
:10232000106E0C51E96EEA6AD890E936EA360D0E65
:10233000E926020EEA22EE521050010BF36EF3462C
:10234000F346F346F346EF0EEF14F310EF6E14511D
:10235000030DF3CFE9FFF4CFEAFF160EE926020ED4
:10236000EA22EE52EF50200BE00BE838E840106E06
:102370000C51E96EEA6AD890E936EA360D0EE92684
:10238000020EEA22EE521050010BF36EF346F346B2
:10239000F346F346F346DF0EEF14F310EF6E0C51E5
:1023A000E96EEA6AD890E936EA360D0EE926020EA1
:1023B000EA22EE520951400B02E0EF8C01D0EF9C73
:1023C0000C51E96EEA6AD890E936EA360D0EE92634
:1023D000020EEA22EE520951800B02E0EF8E01D08C
:1023E000EF9E1551106E0C51E96EEA6AD890E936ED
:1023F000EA360D0EE926020EEA221050010BF36EAA
:10240000FE0EEF14F310EF6E1451106E0C51E96EC6
:10241000EA6AD890E936EA360D0EE926020EEA227B
:102420001050010BF36EF346FD0EEF14F310EF6E38
:102430001C51106E0C51E96EEA6AD890E936EA3602
:102440000D0EE926020EEA221050010BF36EF34640
:10245000F346FB0EEF14F310EF6E0C51E96EEA6ACF
:10246000D890E936EA360D0EE926020EEA22085126
:10247000080B02E0EF8601D0EF960C51E96EEA6A94
:10248000D890E936EA360D0EE926020EEA22085106
:10249000100B02E0EF8801D0EF980C51E96EEA6A68
:1024A000D890E936EA360D0EE926020EEA220851E6
:1024B000200B02E0EF8A01D0EF9A0C51E96EEA6A34
:1024C000D890E936EA360D0EE926020EEA220851C6
:1024D000400B02E0EF8C01D0EF9C0C51E96EEA6AF0
:1024E000D890E936EA360D0EE926020EEA220851A6
:1024F000800B02E0EF8E01D0EF9EEEEF09F0D9CF16
:10250000E6FFE1CFD9FFE6520201226B0C6BDF6AD6
:10251000010EDF5C17E2EA6ADF34FE0BEA36E96E91
:102520000D0EE926020EEA22EE52EF6AEA6ADF3465
:10253000FE0BEA36E96E0D0EE926020EEA22EF6A7C
:10254000DF2AE6D70201206921690A6B0B6B266B33
:10255000010E106F166B196B161D2C6F191D2F6F46
:10256000350EE66E020EE66E400EE66EE66AE66A2E
:10257000200EE66E38EC1DF0106E060EE15E105077
:1025800002013505346F116B126B136B750EE66E1D
:10259000020EE66E400EE66EE66A1151EA6A380FE8
:1025A000E96E020EEA22EF50400DF3CF10F0F4CFA7
:1025B00011F0F3CFE6FFF4CFE6FF38EC1DF0126E1A
:1025C000060EE15E125002011D6B1351060DF3CF92
:1025D000E9FFF4CFEAFF790EE926020EEA22EECFF8
:1025E00016F2EECF17F2EFCF18F21351060DF3CF1C
:1025F000E9FFF4CFEAFF790EE926020EEA22030E84
:10260000E926000EEA22EECF19F2EECF1AF2EFCF52
:102610001BF2171D2D6F1A1D306F181D2E6F1B1DFD
:10262000316F010E146F156BDF6A040EDF5C18E268
:10263000DFCFE6FFE1EC1CF0E552F3CF10F0F4CF72
:1026400011F0EA6ADF34FE0BEA36E96E000EE92685
:10265000020EEA22F3CFEEFF11C0EDFFDF2AE5D72D
:10266000DF6A140EDF5C4BE2DF50F76A6E0FF66E26
:10267000420EF7220800F550E66EDF500201EA6ACA
:102680000425E96E0551EA22E552E750EF6EDF506E
:10269000F76A6E0FF66E420EF7220800F550E66EEE
:1026A000DF50EA6A0625E96E0751EA22E552E75053
:1026B000EF6EDF50F76A6E0FF66E420EF7220800DB
:1026C000F550E66EDF50EA6A0025E96E0151EA2214
:1026D000E552E750EF6EDF50F76A6E0FF66E420E6E
:1026E000F7220800F550E66EDF50EA6A0225E96E2F
:1026F0000351EA22E552E750EF6EDF2AB2D759ECD8
:102700000DF0E552E552E7CFD9FF1200020E0201AB
:10271000085D18E1800EBA1515E07F0EBA15106E2F
:102720001F0E105C0FE27F0EBA15010F106E800EA7
:10273000BA151010BA6F7F0EBA151F0803E1BA6BF5
:1027400070EC18F0040E0201085D18E1800EBB1554
:1027500015E07F0EBB15106E1F0E105C0FE27F0E92
:10276000BB15010F106E800EBB151010BB6F7F0ED6
:10277000BB151F0803E1BB6BB8EC1AF0080E020191
:10278000085D1EE1C00EB51509E03F0EB515010F3D
:102790003F0B106EC00EB5151010B56F800EB5153D
:1027A00007E03F0EB515106E200E105C01E3B58DED
:1027B000400EB51505E0010EB51502E1AEEC1AF0BC
:1027C000100E0201085D1EE1C00EB61509E03F0EB5
:1027D000B615010F3F0B106EC00EB6151010B66F78
:1027E000800EB61507E03F0EB615106E200E105C79
:1027F00001E3B68D400EB61505E0010EB61502E1F7
:10280000A4EC1AF0200E0201085D18E1800EBC1540
:1028100015E07F0EBC15106E1F0E105C0FE27F0ED0
:10282000BC15010F106E800EBC151010BC6F7F0E12
:10283000BC151F0803E1BC6B43EC18F0800E0201CD
:10284000085D18E1800EB71515E07F0EB715106E04
:102850001F0E105C0FE27F0EB715010F106E800E79
:10286000B7151010B76F7F0EB7151F0803E1B76BD0
:10287000C2EC1AF0400E0201095D1EE1C00EB8154F
:1028800009E03F0EB815010F3F0B106EC00EB815D2
:102890001010B86F800EB81507E03F0EB815106E17
:1028A000200E105C01E3B88D400EB81505E0030E54
:1028B000B81502E1C6EC18F0800E0201095D1EE1B8
:1028C000C00EB91509E03F0EB915010F3F0B106E90
:1028D000C00EB9151010B96F800EB91507E03F0E84
:1028E000B915106E200E105C01E3B98D400EB915BC
:1028F00005E0030EB91502E1B9EC18F01200D9CFCA
:10290000E6FFE1CFD9FF090EE12644EC1CF0F3CF3E
:10291000DEFFF4CFDDFFDECF10F0DDCF11F0105081
:102920000201086FDECF10F0DDCF11F011C010F002
:10293000116A1050096F1E5103E1080501E115717C
:102940001E5106E1020E085D03E1800EBA6F0AD047
:10295000020E1E15020806E1020E081503E1BABFB9
:102960001471BA6B1E5106E1040E085D03E1800E7E
:10297000BB6F0DD0040E1E15040809E1040E0815E6
:1029800006E1BBAF03D01C71010E1D6FBB6B1E5166
:1029900008E1080E085D05E1800EB56FAEEC1AF097
:1029A00009D0080E1E15080805E1080E081502E1F9
:1029B0003F0EB51702011E5108E1100E085D05E13A
:1029C000800EB66FA4EC1AF009D0100E1E15100878
:1029D00005E1100E081502E13F0EB61702011E5167
:1029E00016E1200E085D13E1800EBC6F7F0E0F1BF9
:1029F0000FC2E6FF0E0EE66E020EE66E0B0EE66EE0
:102A000016EC1DF0E552E552E552E55206D01E5196
:102A100004E1200E085D01E1BC6B02011E5104E1DE
:102A2000400E085D01E1C5DB02011E5106E1800E8A
:102A3000085D03E1800EB76F0BD0800E1E15800875
:102A400007E1800E081504E1B7BFADDB0201B76BEB
:102A50001F513AE1090538E1155118E017511A11D3
:102A6000010B010AE76E020EE7CFDBFFDBCFE6FFCB
:102A7000FE0E1715E552E710176F020EDBCFE6FFCB
:102A8000FE0E1A15E552E7101A6F1CD01451030DF3
:102A9000F3CFE9FFF4CFEAFF160EE926020EEA2291
:102AA000EE52EF50010AE66E1451030DF3CFE9FF29
:102AB000F4CFEAFF160EE926020EEA22EE52E552A4
:102AC000E750EF6E010E1D6F1F513BE1020E095DD5
:102AD00038E1155118E017511A11020B020AE76E7E
:102AE000030EE7CFDBFFDBCFE6FFFD0E1715E55248
:102AF000E710176F030EDBCFE6FFFD0E1A15E55248
:102B0000E7101A6F1CD01451030DF3CFE9FFF4CF77
:102B1000EAFF160EE926020EEA22EE52EF50020AF2
:102B2000E66E1451030DF3CFE9FFF4CFEAFF160E62
:102B3000E926020EEA22EE52E552E750EF6E010E50
:102B40001D6F1F513BE1040E095D38E1155118E07E
:102B500017511A11040B040AE76E040EE7CFDBFFCE
:102B6000DBCFE6FFFB0E1715E552E710176F040EDB
:102B7000DBCFE6FFFB0E1A15E552E7101A6F1CD0EB
:102B80001451030DF3CFE9FFF4CFEAFF160EE92647
:102B9000020EEA22EE52EF50040AE66E1451030DC3
:102BA000F3CFE9FFF4CFEAFF160EE926020EEA2280
:102BB000EE52E552E750EF6E010E1D6F1F513BE1E3
:102BC000080E095D38E1155118E017511A11080B6C
:102BD000080AE76E050EE7CFDBFFDBCFE6FFF70E57
:102BE0001715E552E710176F050EDBCFE6FFF70E5E
:102BF0001A15E552E7101A6F1CD01451030DF3CFCC
:102C0000E9FFF4CFEAFF160EE926020EEA22EE52A1
:102C1000EF50080AE66E1451030DF3CFE9FFF4CF2D
:102C2000EAFF160EE926020EEA22EE52E552E750BE
:102C3000EF6E010E1D6F1F513BE1100E095D38E173
:102C4000155118E017511A11100B100AE76E060EF5
:102C5000E7CFDBFFDBCFE6FFEF0E1715E552E710FE
:102C6000176F060EDBCFE6FFEF0E1A15E552E710E1
:102C70001A6F1CD01451030DF3CFE9FFF4CFEAFF14
:102C8000160EE926020EEA22EE52EF50100AE66E08
:102C90001451030DF3CFE9FFF4CFEAFF160EE92636
:102CA000020EEA22EE52E552E750EF6E010E1D6F62
:102CB0001F513BE1200E095D38E1155118E0175115
:102CC0001A11200B200AE76E070EE7CFDBFFDBCFE0
:102CD000E6FFDF0E1715E552E710176F070EDBCF83
:102CE000E6FFDF0E1A15E552E7101A6F1CD01451DB
:102CF000030DF3CFE9FFF4CFEAFF160EE926020E2B
:102D0000EA22EE52EF50200AE66E1451030DF3CF83
:102D1000E9FFF4CFEAFF160EE926020EEA22EE5290
:102D2000E552E750EF6E010E1D6F1F5108E1400E96
:102D3000095D05E12BDA0201800EB86F08D0400E64
:102D40001F15400804E1400E091501E1B86B1F5141
:102D500008E1800E095D05E10CDA0201800EB96F11
:102D600008D0800E1F15800804E1800E091501E1CE
:102D7000B96B2651105D06E12751115D03E1285121
:102D8000125D31E010050AE11151EA6A380FE96E6F
:102D9000020EEA22080EEFCFDBFF03D0080E12C2AC
:102DA000DBFF750EE66E020EE66E400EE66EE66A1C
:102DB000080EDB50400DF3CF10F0F4CF11F0F3CF3D
:102DC000E6FFF4CFE6FF38EC1DF0126E060EE15E72
:102DD000125002011D6B136B7551761101E1F5D88C
:102DE0000201131D296F2951135D01E1B4D029514E
:102DF000060DF3CFE9FFF4CFEAFF790EE926020EC4
:102E0000EA2216C2EEFF17C2EEFF18C2EEFF2951EA
:102E1000060DF3CFE9FFF4CFEAFF790EE926020EA3
:102E2000EA22030EE926000EEA2219C2EEFF1AC2B8
:102E3000EEFF1BC2EEFF1351060DF3CFE9FFF4CFF7
:102E4000EAFF790EE926020EEA22EF5060E1135103
:102E5000060DF3CFE9FFF4CFEAFF790EE926020E63
:102E6000EA22020EE926000EEA22EF5050E1135149
:102E7000060DF3CFE9FFF4CFEAFF790EE926020E43
:102E8000EA22030EE926000EEA22EF5040E1135138
:102E9000060DF3CFE9FFF4CFEAFF790EE926020E23
:102EA000EA22030EE926000EEA22020EE926000EAF
:102EB000EA22EF502CE11305060DF3CFE9FFF4CF22
:102EC000EAFF790EE926020EEA22EECF10F0EECFED
:102ED00011F0EECF12F0EECF13F0EECF14F0EFCFF3
:102EE00015F01351060DF3CFE9FFF4CFEAFF790E89
:102EF000E926020EEA2210C0EEFF11C0EEFF12C05A
:102F0000EEFF13C0EEFF14C0EEFF15C0EEFF13512D
:102F1000060DF3CFE9FFF4CFEAFF790EE926020EA2
:102F2000EA22EECF16F2EECF17F2EFCF18F21351DE
:102F3000060DF3CFE9FFF4CFEAFF790EE926020E82
:102F4000EA22030EE926000EEA22EECF19F2EECFB6
:102F50001AF2EFCF1BF221EC0AF037EC10F008C2A6
:102F60001EF209C21FF20AC220F20BC221F20CC2E9
:102F700022F20DC223F20EC224F20FC225F210C2B9
:102F800026F211C227F212C228F213C229F214C289
:102F90002AF215C22BF216C22CF217C22DF218C259
:102FA0002EF219C22FF21AC230F21BC231F21CC229
:102FB00032F21DC233F2090EE15C02E2E16AE5522F
:102FC000E16EE552E7CFD9FF120002011351060D61
:102FD000F3CFE9FFF4CFEAFF790EE926020EEA22E9
:102FE000EF6A1351060DF3CFE9FFF4CFEAFF790E34
:102FF000E926020EEA22EE52010EEF6E1351060D83
:10300000F3CFE9FFF4CFEAFF790EE926020EEA22B8
:10301000020EE926000EEA22620EEF6E1351060D33
:10302000F3CFE9FFF4CFEAFF790EE926020EEA2298
:10303000030EE926000EEA22EF6A1351060DF3CFC4
:10304000E9FFF4CFEAFF790EE926020EEA22030E29
:10305000E926000EEA22EE52010EEF6E1351060D24
:10306000F3CFE9FFF4CFEAFF790EE926020EEA2258
:10307000030EE926000EEA22020EE926000EEA22DD
:10308000620EEF6E1200D9CFE6FFE1CFD9FFE65214
:1030900002011071100515E13505346F116BDF6AFF
:1030A0003551DF5C18E2DF50EA6A380FE96E020E34
:1030B000EA22EF50125D03E1DFCF11F20CD0DF2ADC
:1030C000EFD77F0E346F1151EA6A380FE96E020EA6
:1030D000EA22EFCF12F2E552E552E7CFD9FF120014
:1030E0000201155109E0171D2D6F181D2E6F1A1DB5
:1030F000306F1B1D316F12001451030DF3CFE9FF28
:10310000F4CFEAFF160EE926020EEA22EE52EF1C79
:10311000E66E1451030DF3CFE9FFF4CFEAFF2C0E56
:10312000E926020EEA22EE52E552E750EF6E145104
:10313000030DF3CFE9FFF4CFEAFF160EE926020EE6
:10314000EA22020EE926000EEA22EF1CE66E145176
:10315000030DF3CFE9FFF4CFEAFF2C0EE926020EB0
:10316000EA22020EE926000EEA22E552E750EF6E4F
:1031700012000201105105E17F0E125D06E2122BD2
:1031800012003451115D01E2112B120002011051A5
:1031900005E11251000806E2120712001151000861
:1031A00001E211071200090E0201135D01E2132B67
:1031B000120002011351000801E213071200D9CFD7
:1031C000E6FFE1CFD9FFE6520201155111E01B5194
:1031D000D880185502E2185101D01B51DF6E620EE3
:1031E000DF5C02E17F0E01D0620E186F1B6F31D0E1
:1031F0001451030DF3CFE9FFF4CFEAFF160EE926D1
:10320000020EEA22020EE926000EEA22EF506208C0
:1032100010E11451030DF3CFE9FFF4CFEAFF160ECE
:10322000E926020EEA22020EE926000EEA227F0EAD
:103230000FD01451030DF3CFE9FFF4CFEAFF160EC0
:10324000E926020EEA22020EE926000EEA22620EAA
:10325000EF6EE552E552E7CFD9FF1200D9CFE6FF76
:10326000E1CFD9FF020EE1260201155111E01B51F9
:10327000D880185502E2185101D01B51DF6E7F0E25
:10328000DF5C32E2DF2ADFCF18F2DFCF1BF22CD077
:103290001451030DF3CFE9FFF4CFEAFF160EE92630
:1032A000020EEA22020EE926000EEA22010EEFCFFC
:1032B000DBFF7F0EF36E010EDBCFF4FFF350F45C07
:1032C00013E2010EDB2A1451030DF3CFE9FFF4CF13
:1032D000EAFF160EE926020EEA22020EE926000E89
:1032E000EA22010EDBCFEFFF020EE15C02E2E16AAF
:1032F000E552E16EE552E7CFD9FF1200D9CFE6FFE4
:10330000E1CFD9FF020EE1260201155110E01B5159
:10331000185D02E2185101D01B51DF6EDF5000082A
:103320002DE2DF06DFCF18F2DFCF1BF227D01451DA
:10333000030DF3CFE9FFF4CFEAFF160EE926020EE4
:10334000EA22020EE926000EEA22010EEFCFDBFF91
:10335000DB50000813E2010EDB061451030DF3CF1E
:10336000E9FFF4CFEAFF160EE926020EEA22020E6A
:10337000E926000EEA22010EDBCFEFFF020EE15C30
:1033800002E2E16AE552E16EE552E7CFD9FF1200B1
:103390000201155103E0166B196B12001451030D55
:1033A000F3CFE9FFF4CFEAFF160EE926020EEA2278
:1033B000EF6A1200D9CFE6FFE1CFD9FF020EE12676
:1033C0000201155121E0165102E1400E01D01651C3
:1033D000106E195102E1400E01D01951D8801054DD
:1033E00004E2165104E0165105D0195102E1400ED5
:1033F00001D01951DF6E7F0EDF5C3AE2DF2ADFCFAA
:1034000016F2DFCF19F234D01451030DF3CFE9FFD8
:10341000F4CFEAFF160EE926020EEA22EF5002E18F
:10342000400E0BD01451030DF3CFE9FFF4CFEAFFA8
:10343000160EE926020EEA22EF50E76E010EE7CFE4
:10344000DBFF7F0EF36E010EDBCFF4FFF350F45C75
:103450000FE2010EDB2A1451030DF3CFE9FFF4CF85
:10346000EAFF160EE926020EEA22010EDBCFEFFF7D
:10347000020EE15C02E2E16AE552E16EE552E7CF5D
:10348000D9FF1200D9CFE6FFE1CFD9FF020EE12626
:103490000201155120E0165102E1400E01D01651F3
:1034A000106E195102E1400E01D01951105C04E276
:1034B000165104E0165105D0195102E1400E01D019
:1034C0001951DF6EDF50010835E2DF06DFCF16F25B
:1034D000DFCF19F22FD01451030DF3CFE9FFF4CF52
:1034E000EAFF160EE926020EEA22EF5002E1400E34
:1034F0000BD01451030DF3CFE9FFF4CFEAFF160E02
:10350000E926020EEA22EF50E76E010EE7CFDBFF5D
:10351000DB5001080FE2010EDB061451030DF3CF5F
:10352000E9FFF4CFEAFF160EE926020EEA22010EA9
:10353000DBCFEFFF020EE15C02E2E16AE552E16EF1
:10354000E552E7CFD9FF120002011C5102E132DF40
:1035500001D084DE0201010E1D6F120002011C5118
:1035600002E190DF01D0CADE0201010E1D6F1200E0
:1035700002011C5102E10CDF01D021DE0201010E2B
:103580001D6F1200D9CFE6FFE1CFD9FF030EE12670
:1035900002011151EA6A380FE96E020EEA22EFCFFA
:1035A000DFFFDF50400DDE52F3CFDEFFF4CFDDFF53
:1035B000DD521351060DF3CFE9FFF4CFEAFF790E88
:1035C000E926020EEA2216C2EEFF17C2EEFF18C26B
:1035D000EEFF1351060DF3CFE9FFF4CFEAFF790EAA
:1035E000E926020EEA22030EE926000EEA2219C29B
:1035F000EEFF1AC2EEFF1BC2EEFF750EE66E020E64
:10360000E66E400EE66EE66A010EDBCFE6FF020EC6
:10361000DBCFE6FFA3EC1DF0106E060EE15E10504E
:1036200002011D6B030EE15C02E2E16AE552E16E0C
:08363000E552E7CFD9FF1200BB
:08363800D9CFE6FFE1CFD9FF75
:10364000E652080EDF6E898489948992FD0EDBBEF6
:1036500002D0899601D08986DBCFF3FFF39EF34633
:10366000F3CFDBFF8982DF06F0E1080EDF6E89927F
:10367000FE0EDBBE02D0899601D08986DBCFF3FF38
:10368000F39EF346F3CFDBFF8982DF06F0E1898406
:10369000100EDF6EDF5002E0DF06FCD789948986CA
:1036A0008982E552E552E7CFD9FF1200D9CFE6FF74
:1036B000E1CFD9FF050EE126030EDB6ADE52010ED3
:1036C000DD6EDF6A080EDF5C22E2DFCFE6FFC7D8DF
:1036D000E552050EF36E020EF3CFDBFFDB5003E085
:1036E000020EDB06FBD784A209D0030EDBCFE7FF77
:1036F000010EDB50E712030EE7CFDBFF010EDBCF3D
:10370000F3FFF39EF346F3CFDBFFDF2ADBD7040E94
:10371000DB6ADE52010EDD6E080EDF6E100EDF5C1E
:1037200022E2DFCFE6FF9BD8E552050EF36E020ED4
:10373000F3CFDBFFDB5003E0020EDB06FBD784A2F6
:1037400009D0040EDBCFE7FF010EDB50E712040EB9
:10375000E7CFDBFF010EDBCFF3FFF39EF346F3CFA2
:10376000DBFFDF2ADBD7030EDB1CE76E030EE7CFA0
:10377000DBFFDB50800BE840E8403F0B166E030E8A
:10378000DB50400B156E030EDB50200BE8407F0B27
:10379000146E030EDB50100B080DF3CF13F0030E65
:1037A000DB50080B126E030EDB50040BE840E840C0
:1037B0003F0B116E030EDB50020B106E030EDB503D
:1037C000010B040DF35010101110121013101410EF
:1037D0001510161001014B6F040EDB1CE76E040E72
:1037E000E7CFDBFFDB50800BE840E8403F0B166E75
:1037F000040EDB50400B156E040EDB50200BE8402E
:103800007F0B146E040EDB50100B080DF3CF13F07A
:10381000040EDB50080B126E040EDB50040BE84064
:10382000E8403F0B116E040EDB50020B106E040ECD
:10383000DB50010B040DF350101011101210131077
:1038400014101510161001014A6F050EE15C02E21A
:10385000E16AE552E16EE552E7CFD9FF1200D9CF18
:10386000E6FFE1CFD9FF8998899A8D908990FE0E65
:10387000DBB08988DBB2898ADBB48D80DBB68980D6
:10388000E552E7CFD9FF1200D9CFE6FFE1CFD9FF4C
:10389000020EE126126A01014B511210DE6E4AC17E
:1038A000DDFFDECF10F0DDCF11F010C0F3FF11C04F
:1038B000F4FF020EE15C02E2E16AE552E16EE552DC
:1038C000E7CFD9FF1200D9CFE6FFE1CFD9FF020E33
:1038D000E12648C1DFFF0F0EDF14100DF00EDF14DC
:1038E000E8380F0BF310DF6E330EDF14040DCC0E2F
:1038F000DF14E840E8403F0BF310DF6E550EDF1495
:10390000E824106EAA0EDF14E8407F0B1010DF6E63
:10391000010E49C1DBFFDB500F0B100D010EDB5018
:10392000F00BE8380F0BF310E76E010EE7CFDBFF6B
:10393000DB50330B040DF3CF10F0010EDB50CC0B3A
:10394000E840E8403F0BF310E76E010EE7CFDBFFE6
:10395000DB50550BE824106E010EDB50AA0BE8403B
:103960007F0B1010E76E010EE7CFDBFFDFCFE6FF26
:10397000DBCFE6FF61DEE552E552020EE15C02E2DA
:10398000E16AE552E16EE552E7CFD9FF1200D9CFE7
:10399000E6FFE1CFD9FFFE0EDBCF11F011C010F032
:1039A00011500101486FFF0EE76EFD0EDBCF10F0E6
:1039B000E7501016116A10C049F1E552E7CFD9FF60
:1039C0001200D9CFE6FFE1CFD9FFFE0EDB50140D78
:1039D000F3CF10F0F4CF11F0B00E1026010E11222B
:1039E00010C0F3FF11C0F4FFE552E7CFD9FF12007A
:1039F00019861200D9CFE6FFE1CFD9FFFD0EDB50CB
:103A00000F0B106EFE0EDB500F0B100DF35010104D
:103A1000E66E88EC21F0E552FC0EDBCFE6FF88EC89
:103A200021F0E552E552E7CFD9FF1200D9CFE6FFEA
:103A3000E1CFD9FFFD0EDB500F0B106EFE0EDB50F9
:103A40000F0B100DF3501010E66E88EC21F0E552CC
:103A5000FC0EDBCFE6FF88EC21F0E552FB0EDBCF5E
:103A6000E6FF88EC21F0E552E552E7CFD9FF1200DE
:103A7000D9CFE6FFE1CFD9FF040EE126FE0EDBCF62
:103A800011F011380F0B106E010E10C0DBFFD95072
:103A9000FD0FE96EFF0EDA20EA6EEE520F0EED1604
:103AA000DF6AFD0EDBCF06F0FE0EDBCF07F0020E65
:103AB00006C0DBFF030E07C0DBFFDFCF10F0FB0EFD
:103AC000DBCF11F0FC0EDBCF12F01150105C000EBA
:103AD00012542FE2010EDB50106E116A0C0ED890BA
:103AE00010361136E806FBE1000E1026480E1122B2
:103AF000020EDB501024F66E030EDB501120F76E21
:103B00000800F550E66EDF50E76EF90EDBCFE9FFF7
:103B1000FA0EDBCFEAFFE750E926000EEA22E55273
:103B2000E750EF6EDF2A020EDB2A030EC6E3DB2A24
:103B3000C4D7040EE15C02E2E16AE552E16EE552AF
:103B4000E7CFD9FF1200D9CFE6FFE1CFD9FF080EAA
:103B5000E126FE0EDBCF11F011380F0B106E010EB7
:103B600010C0DBFFFD0EDBCF10F0FE0EDBCF11F03F
:103B7000FF0E10160F0E1116020E10C0DBFF030E03
:103B800011C0DBFF020EDBCF10F0030EDBCF11F014
:103B9000C00E1016FF0E1116040E10C0DBFF050E2E
:103BA00011C0DBFFDF6A400EDF5C29E2010EDB5053
:103BB000106E116A0C0ED89010361136E806FBE133
:103BC000000E1026480E1122040EDB501024F66E53
:103BD000050EDB501120F76E0800F550E66EDF5041
:103BE000EA6A020FE96E010EEA22E552E750EF6E33
:103BF000DF2A040EDB2A050ED6E3DB2AD4D7FD0E1E
:103C0000DBCF10F0FE0EDBCF11F0C00E1016FF0E52
:103C10001116040E10C0DBFF050E11C0DBFFFD0EF8
:103C2000DBCF12F0FE0EDBCF13F0040EDB50125C84
:103C3000106E050EDB501358116E060E10C0DBFF20
:103C4000070E11C0DBFFDF6ADFCF10F0FB0EDBCF0A
:103C500011F0FC0EDBCF12F01150105C000E12546C
:103C600022E2DF50E76EF90EDBCFE9FFFA0EDBCF81
:103C7000EAFFE750E926000EEA22EF50E66E060E54
:103C8000DBCFE9FF070EDBCFEAFF020EE926010ECC
:103C9000EA22E552E750EF6EDF2A060EDB2A070E16
:103CA000D3E3DB2AD1D7FD0EDBCF00F1FE0EDBCF55
:103CB00001F1C00E01010017FF0E0117000E0027D1
:103CC000480E012303EC21F018861888080EE15CE9
:103CD00002E2E16AE552E16EE552E7CFD9FF120058
:103CE000D9CFE6FFE1CFD9FFE652FE0EDBCF11F0D0
:103CF00011380F0BE850DF6ED950FD0FE96EFF0E43
:103D0000DA20EA6EEE520F0EED16DF50126E136AD5
:103D10000C0ED89012361336E806FBE1000E122680
:103D2000480E1322FD0EDB501224106EFE0EDB50E7
:103D30001320116E10C0F3FFF46EE552E552E7CF89
:043D4000D9FF120095
:0C3D4400D9CFE6FFE1CFD9FFE652F29E96
:103D5000F29C9D908C8EDF6A500EDF5C0AE2CD9063
:103D60009E90CE6ACF6ACD809EA0FED79E90DF2A1D
:103D7000F3D79D80F28EF28CE552E552E7CFD9FF62
:103D80001200D9CFE6FFE1CFD9FF020EE126010EE6
:103D9000AFC1DBFFFE0EE66E46D8E552450EE66E7D
:103DA00042D8E552010EDB50030A0CE0010A08E09C
:103DB000030A04E0010A0AE1E66A06D0400E03D0D5
:103DC000140E01D0540EE66E2ED8E552DF6A140EA2
:103DD000DF5C18E2010EDB50140DF3CF10F0F4CFCE
:103DE00011F0B00E1026010E1122DF500F01102429
:103DF000E96E000E1120EA6EEF50E66E14D8E5521F
:103E0000DF2AE5D70101AF2B040EAF5D02E3AF6BF4
:103E10001994020EE15C02E2E16AE552E16EE552BC
:103E2000E7CFD9FF1200D9CFE6FFE1CFD9FF2A0EA5
:103E30000101A75D0EE2A751EA6A7D0FE96E010E4E
:103E4000EA22FE0EDBCFEFFFA72B0101AC5101E10F
:103E500004D8E552E7CFD9FF12000101020EAB6F83
:103E60000101010EAC6FCD90BC0ECE6EFC0ECF6E7C
:103E7000CD8012009E90CD907B0ECE6EFD0ECF6E4B
:103E8000CD800101AB51030A15E0010A03E0020AEB
:103E900040E01200030EAB6F0101010EAA6F010199
:103EA000A851EA6A7D0FE96E010EEA22EFCFA9F16F
:103EB0008C9E12000101AA5121E18C8E0101A82BD8
:103EC0000101A7510101A85D0DE30101AB6B0101E7
:103ED000AC6B0101A86B0101A76BCD909E90CE6ADF
:103EE000CF6A1200A851EA6A7D0FE96E010EEA223C
:103EF000EFCFA9F10101020EAB6F12000101A9A1E0
:103F000002D08C8E01D08C9EA991A9430101AA9F59
:043F1000AA471200AA
:0C3F1400FFFF04F543F407F481F360F3B1
:103F200044F329F317F306F395F286F278F270F270
:103F300062F255F249F242F236F231F225F220F203
:103F400015F210F205F201F296F192F188F184F186
:103F500080F176F172F168F165F161F158F154F197
:103F600051F148F144F141F138F135F132F129F1E3
:103F700026F123F120F117F114F111F109F106F105
:103F800003F100F198F095F092F090F087F085F051
:103F900082F079F077F074F072F070F067F065F00D
:103FA00062F060F057F055F053F050F048F046F0F2
:103FB00043F041F039F037F034F032F030F028F0CF
:103FC00025F023F021F019F017F014F012F010F0A2
:103FD00008F006F004F001F0000002000400060002
:103FE000080010001200150017001900210023001E
:103FF0002500270029003100330035003700390043
:10400000410043004500470049005100530055005E
:104010005700600030313233343536373839414259
:04402000434445468A
:0C402400040042EC21F00400A2EC1EF0AD
:104030000400FE0EE66E13EC1FF0E552510EE66E24
:1040400013EC1FF0E552FE0EE66E13EC1FF0E55286
:10405000520EE66E13EC1FF0E552140EE66E13ECF2
:104060001FF0E55256EC1BF07FEC12F00400F28ECC
:10407000F28C18A605D01896E66AD2EC20F0E5522C
:1040800018A806D01898200EE66ED2EC20F0E55263
:1040900018A003D01890A3EC21F019A003D0199018
:1040A00056EC1BF018AA03D0189A63EC1CF019A266
:1040B00003D0199286EC13F018AE03D0189E7FEC53
:1040C00014F01950080B05E01950040B02E1198493
:1040D00019961950040B05E00101AB5102E1C1EC46
:0A40E0001EF073EC21F0C2D71200AD
:0640EA00DACFE4FFE2CF93
:1040F000DAFFE9CFE4FFEACFE4FFF6CFE4FFF7CF42
:10410000E4FFF5CFE4FFF3CFE4FFF4CFE4FFFACF11
:10411000E4FF00EE00F0100EE80403E3EECFE4FF4E
:10412000FBD700EE10F0070EE80403E3EECFE4FF48
:10413000FBD7E6529EA002D03AEC1FF09EA208D018
:104140009E9201014C2B040E4C5D02E14C6B1880D9
:10415000E55200EE16F0070EE80403E3E5CFEDFFAD
:10416000FBD700EE0FF0100EE80403E3E5CFEDFF00
:10417000FBD7E5CFFAFFE5CFF4FFE5CFF3FFE5CFBF
:10418000F5FFE5CFF7FFE5CFF6FFE5CFEAFFE5CF97
:08419000E9FFE5CFDAFF1100A1
:08419800550EA76EAA0EA76EDA
:1041A000A6821200D9CFE6FFE1CFD9FFE652E00E9A
:1041B00001010017840EA66EFE0EDB50DF6EFE0EB0
:1041C000DB50200FDF5C1AE2DF50EA6A020FE96E73
:1041D000010EEA22EFCF10F0DF500101F76A00254F
:1041E000F66E0151F722F86A10C0F5FF0C001F0EA1
:1041F000DF141F0801E1D0DFDF2AE1D7E552E552E5
:10420000E7CFD9FF1200940EA66E00C1F6FF01C1E0
:0A421000F7FFF86AC1DFF86A120038
:06421A00323031342D307A
:10422000312D303120232030207363202030005086
:10423000726F6772616D202020202320302073630D
:10424000202030004758504344462037462020471E
:104250005850434446203746004D472A20202030FE
:104260002E3020204A442A202020302E30002020CA
:10427000202020202020202020202020202020203E
:0442800020200000FA
:0C428400C1EC21F0896A8A6A8B6A8C6A9E
:104290008D6A926A100E936EF80E946E956A020EF5
:1042A000966EA60EAC6E900EAB6E3F0EAF6EB06A01
:1042B000400EC26E0E0EC16E060EC06E200EF26E65
:1042C000800EF16ED08ED76AD66A420ED56ECF6A56
:1042D000CE6ACD6ACC6AF90ECB6E0D0ECA6E030E95
:0642E0009D6EF28E12003B
:0A42E6009EBA120001017B51010194
:1042F0007C5D02E19EEF21F09EA812007C51EA6AEB
:10430000510FE96E010EEA22EF50AD6E7C2B1200C8
:10431000D9CFE6FFE1CFD9FF2A0E01017B5D0AE28A
:104320007B51EA6A510FE96E010EEA22FE0EDBCFE5
:10433000EFFF7B2BE552E7CFD9FF120001017B6B2A
:0643400001017C6B12007C
:0A43460001014D2B0A0E4D5D18E138
:104350004D6B188E188A198201014F2B040E4F5D88
:1043600002E14F6B19800101502B020E505D01E1FB
:10437000506B01014E2B640E4E5D02E14E6B1984B1
:02438000120029
:0E438200EA6AE96A0400EE6AEAA6FCD71200B5
:10439000000EF36E00EE00F0080E01D81200EA6085
:1043A00002D0EE6AFCD7F350E9601200EE6AFCD747
:1043B00017EE00F027EE00F0F86A0F9CEA6AE96A4F
:1043C0000400EE6AEAA6E0EF21F012EC20F0FDD73F
:0243D0001200D9
:0E43D200036A080EE76ED890073603360C50CB
:0E43E000035C02E3036E072AE72EF7D71200F4
:1048000001000001000162000162000000000000E0
:104810000000000000000000000000000000000098
:104820000000000000000000000000000000000088
:104830000000000000000000000000000000000078
:10484000020000010001620001620000000000009F
:104850000000000000000000000000000000000058
:104860000000000000000000000000000000000048
:104870000000000000000000000000000000000038
:104880000300000760016260016260016260157FE1
:1048900060016260016260016260157F60016260B8
:1048A000016260016260117F60016260016200006C
:1048B00000000000000000000000000000000000F8
:1048C0000400000100016200017F00000000000000
:1048D00000000000000000000000000000000000D8
:1048E00000000000000000000000000000000000C8
:1048F00000000000000000000000000000000000B8
:104900000500000300016200016200016200117FE6
:1049100000016200016200000000000000000000D1
:104920000000000000000000000000000000000087
:104930000000000000000000000000000000000077
:104940000600000100016200096200000000000092
:104950000000000000000000000000000000000057
:104960000000000000000000000000000000000047
:104970000000000000000000000000000000000037
:104980000700000100016200016200000000000059
:104990000000000000000000000000000000000017
:1049A0000000000000000000000000000000000007
:1049B00000000000000000000000000000000000F7
:1049C000080000031A00621A00621A197F1A0062B6
:1049D0001A00621A006200000000000000000000DF
:1049E00000000000000000000000000000000000C7
:1049F00000000000000000000000000000000000B7
:104A00000900000300016200016200016200117FE1
:104A100000016200016200000000000000000000D0
:104A20000000000000000000000000000000000086
:104A30000000000000000000000000000000000076
:104A40000A00000700016200117F0001620001629C
:104A500000016200117F000162000162000162003A
:104A6000117F00016200116200016200016200001A
:104A70000000000000000000000000000000000036
:104A80000B00000900006200005D0001620001549B
:104A900000016200016200016260117F000062603B
:104AA000116B000062000062000162000062000100
:104AB0006200016200016260117F000000000000DE
:104AC0000C000008000162203162000162000162F6
:104AD0000001622031620001620001620001622077
:104AE0003162000162000162000162203162000156
:104AF00062000162000000000000000000000000F1
:104B00000D00000660016260006260016260016287
:104B10006001626000626001626001626001626067
:104B2000006260016260016200000000000000009D
:104B30000000000000000000000000000000000075
:104B40000E00000100016200016200000000000090
:104B50000000000000000000000000000000000055
:104B60000000000000000000000000000000000045
:104B70000000000000000000000000000000000035
:104B80000F0000010001620001620000000000004F
:104B90000000000000000000000000000000000015
:104BA0000000000000000000000000000000000005
:104BB00000000000000000000000000000000000F5
:104BC0001000000900016200116200016200186219
:104BD00000016200116200016200186200016200BF
:104BE000116200016200117F000162001862000181
:104BF0006200116200016200117F000000000000ED
:104C00001100000300016200016200016200017FE7
:104C100000016200016200000000000000000000CE
:104C20000000000000000000000000000000000084
:104C30000000000000000000000000000000000074
:104C40001200000300016200016200016200117F96
:104C5000000162000162000000000000000000008E
:104C60000000000000000000000000000000000044
:104C70000000000000000000000000000000000034
:104C8000130000010001620001620000000000004A
:104C90000000000000000000000000000000000014
:104CA0000000000000000000000000000000000004
:104CB00000000000000000000000000000000000F4
:104CC0001400000100016200016200000000000009
:104CD00000000000000000000000000000000000D4
:104CE00000000000000000000000000000000000C4
:104CF00000000000000000000000000000000000B4
:104D00001500000300016200016200117F000162D2
:104D100000016200016200000000000000000000CD
:104D20000000000000000000000000000000000083
:104D30000000000000000000000000000000000073
:104D400016000003000162000162000162000162BE
:104D5000000162000162000000000000000000008D
:104D60000000000000000000000000000000000043
:104D70000000000000000000000000000000000033
:104D80001700000100016200016200000000000045
:104D90000000000000000000000000000000000013
:104DA0000000000000000000000000000000000003
:104DB00000000000000000000000000000000000F3
:104DC0001800000300016200016200016200196224
:104DD000000162000162000000000000000000000D
:104DE00000000000000000000000000000000000C3
:104DF00000000000000000000000000000000000B3
:104E000019000001000062001862000000000000AC
:104E10000000000000000000000000000000000092
:104E20000000000000000000000000000000000082
:104E30000000000000000000000000000000000072
:104E40001A00000100016200016200000000000081
:104E50000000000000000000000000000000000052
:104E60000000000000000000000000000000000042
:104E70000000000000000000000000000000000032
:104E80001B00000100016200016200000000000040
:104E90000000000000000000000000000000000012
:104EA0000000000000000000000000000000000002
:104EB00000000000000000000000000000000000F2
:104EC0001C000001000162000162000000000000FF
:104ED00000000000000000000000000000000000D2
:104EE00000000000000000000000000000000000C2
:104EF00000000000000000000000000000000000B2
:104F00001D00000A000062000062000162000162F0
:104F100000016200006200006200006200016200A5
:104F2000016200117F00016200117F000062000039
:104F30006200006200016200016200117F000162F4
:104F40001E0000010001620001620000000000007C
:104F50000000000000000000000000000000000051
:104F60000000000000000000000000000000000041
:104F70000000000000000000000000000000000031
:104F80001F0000010001620001620000000000003B
:104F90000000000000000000000000000000000011
:104FA0000000000000000000000000000000000001
:104FB00000000000000000000000000000000000F1
:104FC00020000001000162000162000000000000FA
:104FD00000000000000000000000000000000000D1
:104FE00000000000000000000000000000000000C1
:104FF00000000000000000000000000000000000B1
:1050000021000004000162000162000162000175DC
:1050100000016200315D00016200016200000000D9
:105020000000000000000000000000000000000080
:105030000000000000000000000000000000000070
:1050400022000008000062000062000162000162AC
:105050000000620000620000620011540001620062
:105060000162000062000062000162000162000152
:105070006200097500000000000000000000000050
:105080002300000100016200117000000000000018
:105090000000000000000000000000000000000010
:1050A0000000000000000000000000000000000000
:1050B00000000000000000000000000000000000F0
:1050C00024000001000162000162000000000000F5
:1050D00000000000000000000000000000000000D0
:1050E00000000000000000000000000000000000C0
:1050F00000000000000000000000000000000000B0
:105100002500000200016200016200016200117FBF
:10511000000000000000000000000000000000008F
:10512000000000000000000000000000000000007F
:10513000000000000000000000000000000000006F
:105140002600000500016200016200016200016B9F
:1051500000016200017500016200116B0001620034
:1051600001620000000000000000000000000000DC
:10517000000000000000000000000000000000002F
:105180002700000500006200006200006200007F4E
:1051900000006200006200006200007F0000620008
:1051A000006200000000000000000000000000009D
:1051B00000000000000000000000000000000000EF
:1051C0002800000700006200006200016200016226
:1051D00000006200006200016200016200016200E2
:1051E00001750001620001620001620000620000BE
:1051F00000000000000000000000000000000000AF
:10520000290000033001623001623001626C017FCD
:105210003001623001620000000000000000000068
:10522000000000000000000000000000000000007E
:10523000000000000000000000000000000000006E
:105240002A0000010001620001620000000000006D
:10525000000000000000000000000000000000004E
:10526000000000000000000000000000000000003E
:10527000000000000000000000000000000000002E
:105280002B0000016001626001620000000000006C
:10529000000000000000000000000000000000000E
:1052A00000000000000000000000000000000000FE
:1052B00000000000000000000000000000000000EE
:1052C0002C000006600162600062600162600162A1
:1052D00060016260006260016260016260016260A0
:1052E00000626001626001620000000000000000D6
:1052F00000000000000000000000000000000000AE
:105300002D000007000062000062000162000162DF
:1053100000006200006200016200016200016200A0
:10532000117F00016200016200016200117F000034
:10533000000000000000000000000000000000006D
:105340002E0000032A01622A01622A016250017FB5
:105350002A01622A01620000000000000000000033
:10536000000000000000000000000000000000003D
:10537000000000000000000000000000000000002D
:105380002F0000032A01622A01622A01622A017F9A
:105390002A01622A016200000000000000000000F3
:1053A00000000000000000000000000000000000FD
:1053B00000000000000000000000000000000000ED
:1053C00000000000000000000000000000000000DD
:1053D00000000000000000000000000000000000CD
:106800000C1605021F1D160C271329040A2508FF64
:10681000FFFFFFFFFFFFFFFFFFFFFFFFFFFFFFFF88
:10682000FFFFFFFFFFFFFFFFFFFFFFFFFFFFFFFF78
:10683000FFFFFFFFFFFFFFFFFFFFFFFFFFFFFFFF68
:106840004D6F6E6B6579205772656E63680000004E
:10685000000000004576656E20466C6F77000000F2
:1068600000000000000000005A65726F0000000088
:10687000000000000000000000000000576F6E6480
:10688000657277616C6C0000000000000000000081
:10689000427564647920486F6C6C790000000000D8
:1068A00000000000506C75736800000000000000DC
:1068B0000000000000000000436F6D65204F7574FC
:1068C0000000000000000000000000004472697633
:1068D0006500000000000000000000000000000053
:1068E000436F6D652041726F756E6400000000009B
:1068F000000000005A656E0000000000000000006B
:10690000000000000000000053616E646D616E00C5
:1069100000000000000000000000000043726177EA
:106920006C696E67000000000000000000000000BD
:10693000536F6E672032000000000000000000006E
:106940000000000053657820547970652054686910
:106950006E670000000000004D72204A6F6E657384
:10696000000000000000000000000000426C75659F
:10697000204361727300000000000000000000006E
:10698000496E20426C6F6F6D000000000000000037
:1069900000000000486173682050697065000000C5
:1069A00000000000000000004D79204865726F0073
:1069B0000000000000000000000000004D6163685E
:1069C000696E6568656164000000000000000000F9
:1069D000486F6C69646179000000000000000000ED
:1069E00000000000436C6F73696E672054696D6529
:1069F0000000000000000000427261696E205374C4
:106A0000657700000000000000000000426F756E16
:106A10006400000000000000000000000000000012
:106A20004920416C6F6E650000000000000000000E
:106A30000000000043756D626572736F6D65000044
:106A400000000000000000004C756D7000000000A8
:106A500000000000000000000000000048657920F0
:106A60004A65616C6F7573790000000000000000DA
:106A70004B727970746F6E697465000000000000DD
:106A80000000000044616D6D6974000000000000AA
:106A9000000000000000000053656D692D6368610F
:106AA000726D656400000000000000004D79204F09
:106AB000776E20576F72737420456E656D79000094
:106AC000546865204D6964646C6500000000000036
:106AD0000000000042756C6C65740000000000004E
:106AE0000000000000000000496620596F75204337
:106AF0006F756C64204F6E6C7900000042656175A3
:106B0000746966756C204469736173746572000002
:106B100042656C6C73000000000000000000000083
:106B2000000000004675656C0000000000000000D9
:106B300000000000000000005768617420492047F1
:106B40006F74000000000000000000005361792015
:106B500049742041696E7420536F000000000000EA
:106B60005368696E6500000000000000000000002E
:106B7000000000004261736B65746361736500001F
:106B80000000000000000000427265656400000023
:106B90000000000000000000000000004C69746864
:106BA00069756D000000000000000000000000009A
:106BB000556E646F6E65000000000000000000006C
:106BC0000000000053746F7279206F6620612047C7
:106BD00069726C00000000005472697070696E0088
:106BE00000000000000000000000000000000000A5
:106BF0000000000000000000000000000000000095
:106C00000000000000000000000000000000000084
:106C10000000000000000000000000000000000074
:020000040030CA
:0100000029D6
:010001000EF0
:0100020026D7
:010005008179
:010006008178
:010008000FE8
:01000900C036
:01000A000FE6
:01000B00E014
:01000C000FE4
:01000D0040B2
:00000001FF
