:020000040000FA
:0600000011EF00F01200F8
:0600080004EF08F01200F5
:080018000CEF08F060EF00F0AE
:020020001200CC
:0E002200400EC26E0E0EC16E060EC06E92989B
:10003000929A969092908998898A8D9089901DD8ED
:100040001CD81BD884A202D003D002D060EF00F0ED
:10005000060EF66E100EF76E0900F5CF10F00800D0
:10006000F5CF11F00D0E101802E1600E111802E12B
:0C00700000EF08F060EF00F0120012003A
:1000C000F26A13EE00F023EE00F0F86AFC6A6DA607
:1000D00002D082EC02F011D80400D3EC06F0E7EC79
:1000E00006F018D8060E0301B45D05E16D50020B51
:1000F00002E195EC00F0F0D71200140E6F6E0301D0
:10010000B46B0301B56B0301B66B8CEC00F08C9003
:1001100095901200120000000001E56BE969EA69A0
:10012000EB69E86B010EEC6F12000001E5511EE176
:10013000040108BF94D10001400EFE6F0001A10E22
:10014000FC6F000EFD6FA2EC06F00001010EE56FE2
:10015000ED6B400EED5D01E382D1ED51EA6A600F77
:10016000E96E000EEA22EF6AED2BF3D70001A151F0
:10017000080A01E171D1040A01E132D1050A01E165
:100180002DD10E0A01E1F6D0010A01E1EDD0030AFA
:1001900001E195D0010A4DE0070A41E0010A01E0C2
:1001A0005CD10001020E606F3A0E616F010E626F4A
:1001B000636F646B100E656F666B676BC00E686F64
:1001C0006D0E696F6A6B6B6B030E6C6F6D6B6E6B94
:1001D000300E6F6F706B0E0E716F726B736B746B92
:1001E000040E756F766B776B200E786F796B080E47
:1001F0007A6F7B6B7C6B7D6B020E7E6F7F6B806B8F
:10020000F00E816F826B836B010E846F856B866B42
:100210008769A50E996F04010CBF21D1DCD00001C4
:10022000010EEC6F0001A25101E013D10001EC6B53
:1002300010D1400E0001E66FE76B000EE65D020E86
:10024000E7591FE22FDAE6C000F0E7C001F0026ACA
:10025000060E1F0BE6C0F6FFE7C0F7FF02C0F8FF6F
:1002600006E0D890F636F736F836E806FAE1940E4E
:10027000A66E24DAE7EC06F00001E62B000EE72379
:10028000DCD7ED6BEDC0A9FFA868040EA66EE7EC05
:1002900006F014DA0001ED51ED2B006E016A026ADE
:1002A000FF0E005C000E0158000E0258EBE3F66AE8
:1002B000F76A200EF86E940EA66E00DACAD0300EE1
:1002C000A45D06E10001EC5101E0C3D092D9C1D098
:1002D000F00EA45D02E1B3D9BCD0E8680001E919D1
:1002E0000CE1E868EA1909E1E868EB1906E1A2C047
:1002F000E9F0A3C0EAF0A4C0EBF0E90EE96E000E4D
:10030000EA6EEE500001A21901E0A3D0EE50A3194D
:1003100001E09FD0EE50A41901E09BD001E099D0FC
:100320000001ED6B0001A6510001ED5D01E391D0EC
:10033000BDD9A70FE96E000EEA22EF50E66EE85134
:10034000EA6A600FE96E030EEA22E552E750EF6EAB
:10035000E82BE92B000EEA23EB23200EE85D01E1F8
:10036000E4D80001ED2BDED7E0D80001E969EA69A5
:10037000EB6970D00001070E606FA2C061F0A3C0EE
:1003800062F0A4C063F0A5C064F0A6C065F0A2C08E
:10039000F6FFA3C0F7FFA4C0F8FF0001ED6B00015A
:1003A000A6510001ED5D14E2F00E0001A45D0AE12A
:1003B000A2510001ED25A96EA66AA68084D9A8CF16
:1003C000EFFF04D071D97FD9F5CFEFFFED2BE7D741
:1003D00004010CBF44D00001400E33D041D839D0C5
:1003E00000010C0E606F010E616F626F160EF66EEB
:1003F000100EF76E0900F5CF63F00A00F5CF64F038
:10040000060E656F100E666F676B686B0D0E696F79
:10041000600E6A6F400E6B6F6C6B6D6B6E6B6F690D
:10042000706971697269736B74697569766B7769E4
:10043000786979697A697B697C6904010CBF0FD09E
:100440000001FA6F0001600EF86F000EF96F7CEC8E
:1004500006F00001E56B120050D80001E56B1200B8
:10046000F66A100EF76EF86A0001EE6B400E00019E
:10047000EE5D0DE209000001EE51EA6A600FE96EDF
:10048000030EEA22F5CFEFFF0001EE2BEFD70301B9
:100490000D0E666F0301600E676FF66A100EF76E41
:1004A000F86A940EA66E0001B50EF46FE8D83F0E00
:1004B000F66E100EF76EF86A00013F0EEE6F000147
:1004C000EE51EA6A600FE96E030EEA22EF50F56E14
:1004D0000C000001EE511F0B07E1E4D8A40EA66E3C
:1004E0000001B50EF46FCBD80A000001EE5101E116
:1004F00003D00001EE07E3D7120004D8FF0000008C
:10050000000012000301B869B9690301B8C300F023
:10051000B9C301F0B807000EB95B0050011004E048
:100520006D926D6ABFD8F1D712000001F06BE8C080
:1005300000F0016A026A00500001E95DF66E0150A8
:100540000001EA59F76E02500001EB59F86E1F0ED8
:10055000F6140001F16FE00EF6160001EF6B200EAD
:100560000001EF5D1FE20001F15115E10001E851CA
:100570000FE00001F051EA6A600FE96E030EEA2213
:10058000EF50F56E0D000001F02B0001E80702D0DE
:10059000F5680D0004D0F5680D000001F1070001B9
:1005A000EF2BDDD70A00A40EA66E0001B50EF46F86
:1005B00066D80001EF6B0001E8510001EF5D18E221
:1005C0000001F0510001EF25EA6A600FE96E030EA9
:1005D000EA22EF50E66E0001EF51EA6A600FE96E21
:1005E000030EEA22E552E750EF6E0001EF2BE3D74E
:1005F0001200A2C0F6FFA3C0F7FFA4C0F8FF0001DD
:10060000F26B0001A6510001F25D18E23A0E000102
:10061000D880A6550001F225EA6AA70FE96E000E00
:10062000EA22EF50F56E0C00C40EA66E0001B50E66
:10063000F46F25D809000001F22BE3D71200000166
:10064000F36B0001A6510001F35D18E20001A25115
:100650000001F325A96E3A0E0001D880A6550001CD
:10066000F325EA6AA70FE96E000EEA22EF50A86EA2
:10067000040EA66E23D80001F32BE3D71200F29EDE
:10068000B50E0001F45D05E0030ED36E0300FED746
:10069000FF00550EA76EAA0EA76EA682A6B2FED7C1
:1006A000A694120004001200090012003A0E000184
:1006B000D880A6550001ED25EA6A12000001B50EAA
:1006C000F46F3FEF03F0F2DF660FE96E000EEA22EF
:1006D00012006C5033E16896040100513C0BE84273
:1006E000E8420D0829E1180E021924E1040E03194D
:1006F00021E1100E026F040E036F0301A96BA951D3
:10070000006E016A080E005C000E015813E2A95148
:10071000EA6A180FE96E040EEA22EF50E66EA9515C
:10072000EA6A100FE96E040EEA22E552E750EF6E16
:10073000A92BE5D70AD8010C3AD8010C040E6C5C41
:1007400003E168964BD8010C000C040104BF046B54
:100750000301A86BA06BA16BA66BA76BC5EC04F0A3
:100760000301AA6BAA51006E016A010E005C000E23
:1007700001581BE2A15119E1AA51F66EF76AD8900F
:10078000F636F736BE0EF6260F0EF7220900F5CF25
:1007900000F00800F5CF01F004D001C0FAFF0050CE
:1007A000F96EFBDF0301AA2BDDD76DEF04F0020E1B
:1007B0000301A05D0EE178D80401180E026F040E4B
:1007C000036F080E016F00BD02D0C80E05D0880E61
:1007D00003D0BCD8CBD88C0E006F1200040E0301DE
:1007E000B45D09E112C46EFF6E50000802E2050E0E
:1007F00001D0030EB46F0301A00510E111D8020E61
:100800000301A85D03E10401840E06D0040104BDC8
:1008100002D0C80E01D0880E046F1200A6EF04F0BB
:100820000301080EA65D000EA7590DE2A6C3ABF3A7
:10083000A7C3ACF3A85102E1010E03D0A80506E15D
:10084000020EA86F03D0080EAB6FAC6B04010493CB
:1008500004910301AC5104010413ABC305F403017B
:10086000AB51A65DA66FAC51A759A76F180EA46F28
:10087000040EA56F0301B5A30ED00301AB51AC115B
:1008800012E0A2C3F6FFA3C3F7FF0800F55063D838
:10089000AB07AC5BF2D70301AB51AC1104E06ED8EF
:1008A000AB07AC5BF8D71200030E0401001503017F
:1008B000AE6F01C4ADF3A651AD25A66FA751AE2111
:1008C000A76F180EA26F040EA36FAD51AE1104E016
:1008D00055D8AD07AE5BF9D712006D980301A15151
:1008E00005E144D8840E006F04011DD0040110AF4F
:1008F0001CD00301A6510401165D0301A751040198
:10090000175904E216C4A6F317C4A7F389DF03013D
:10091000010EA06F2BD8800E006F0401180E066F19
:10092000040E076FC80E046F12000301020EA06FC1
:100930000401056BC80E046F0401080E016F180E48
:10094000026F040E036FC80E006F12000301A06B4C
:100950000401046B1200A4C3E9FFA5C3EAFFEF6E14
:10096000A42B000EA523A22BA32312000401080E22
:10097000016F100E026F040E036F1200A2C3E9FF95
:10098000A3C3EAFFEF50ABEF04F004011051600B7A
:10099000E842E842E842E842E842000901E0120089
:1009A0001151070A40E00B0A3EE0070A33E0010A52
:1009B00023E00B0A1FE0020A1DE0030A19E0080AFF
:1009C00010E0010A0CE00F0A08E0030A01E012003F
:1009D0000DD90301040EB46F120014EF05F04BEFB4
:1009E00005F004D90301B60EA26F030EA36F0CD05D
:1009F0006AEF05F09AEF05F0FDD80301A26FA36B33
:100A0000B70EA227030EA3230301B5930301010E22
:100A1000A66F1200EFD8EA6AB70FE96E030EEA225A
:100A200012C4EFFF12001200800E0401105D32E1CB
:100A30001351030A1FE0010A0AE0030A29E1D6D88C
:100A40000301FE0EA26F0E0EA36F120E1ED0B4D8BD
:100A5000B40EF6260F0EC2D8020E0301F76AA225C5
:100A6000F66EA351F7220900F5CFA6F30A00F5CFE1
:100A7000A7F30ED0A1D8B80EF6260F0EAFD8A2C39A
:100A8000F6FFA3C3F7FF0800F5500301A66FA76B9D
:100A90000301B5831200AAD8716A726A736A746A14
:100AA000756A766A776A0301B36F0301B70EB16F97
:100AB000030EB26F73EC07F012C4B6F304011251C7
:100AC00004E10301050EB46F12000301060EB46FBA
:100AD00067EF06F00401186B196B040110511F0B2E
:100AE000020A0DE0030A09E0010A16E17FD80301BA
:100AF000B5A112D0040118830FD078D80DD050D8EA
:100B000001E0010E62D8A4C3E9FFEA6EEF50040BC6
:100B100003E00401010E186F0301A1050AE10301BE
:100B2000180EA26F040EA36F0301B5930301020E0A
:100B3000A66F1200040112050EE110511F0B0009EF
:100B40000AE154D8030E0401115D03E10301B581EC
:100B500002D00301B5910401125121E110511F0B84
:100B600002081DE114510F0B000919E019D801E02A
:100B7000010E2BD8030E0401115D02E1840E03D097
:100B800014AF07D0400EA4C3E9FFA5C3EAFFEF6E80
:100B90001200880EA4C3E9FFA5C3EAFFEF6E12009E
:100BA00029D80F0B080DF350016A000F006E040ED8
:100BB00001221451800B120019D804011251F66E53
:100BC000F76AD890F636F7361200040DF350030199
:100BD0000024A46F000E0120A56F1200F722090067
:100BE000F5CFA2F30A00F5CFA3F312000301010E23
:100BF000A16F1200FBDF0401145112000401105117
:100C00001F0B010801E01200145101E01200060E52
:100C1000115D24E11351230A1FE0010A0DE0030ACC
:100C20001BE1BDD80301B60505E10301220EA26F49
:100C30000F0EA36F090E0DD0B2D80301B60505E162
:100C40000301970EA26F0F0EA36F0301B60504E117
:100C50001D0E0301A66FA76B0301B583040110519C
:100C6000600BE842E842E842E842E842010801E05D
:100C7000120011510B0A25E0080A17E0090A11E0D9
:100C8000080A09E00B0A05E0080A01E0120065EF16
:100C900006F066EF06F083D80301F50EA26F000E92
:100CA00009D07DD813C4F5F0120079D80301F60EEF
:100CB000A26F000EA36F0301B5930301010EA66F8F
:100CC00012006DD812C4F6F01200120012000001DA
:100CD000F76B1E0E716E0401400E096F200E0A6F35
:100CE000040E0B6F880E086F0401600E0E6F040E69
:100CF0000F6F400E0C6F12000001FA51400802E223
:100D0000400EFA6FFB6BFA51FB5D13E2FB51EA6A8E
:100D1000F825E96EF951EA22EF50E66EFB51EA6AD6
:100D2000600FE96E040EEA22E552E750EF6EFB2BEE
:100D3000EAD7FAC00DF4400E04010C170C7D880EA2
:100D40000C1312000001F76B040108BF25D00951F4
:100D50000001D880FE5502E209C4FEF0F76BFE5197
:100D6000F75D13E2F751EA6A200FE96E040EEA22FA
:100D7000EF50E66EF751EA6AFC25E96EFD51EA2272
:100D8000E552E750EF6EF72BEAD70401400E096FEA
:100D90000817087D880E08130001F751120003019F
:100DA000020EA16F12006DB606D06D6A696A6D867B
:100DB0000301010EB46F0301B40508E16DBA06D05A
:100DC000686A696A69806988020EB46F120003015B
:100DD000B45101E1120068B445D86DB2120068B098
:100DE00058D868B817D868BA44D8030E0301B45D60
:100DF00001E212000301AF6B040EAF5D0AE268A6C8
:100E000008D069EC03F0000901E168960301AF2BFB
:100E1000F3D7120069CFB0F3040E696E68986D8243
:100E2000A19AA08A0300A150200B05E1D050080B25
:100E300002E10300F8D7A09A0301B051691203013F
:100E4000D50EB86F020EB96F0301B8C300F0B9C375
:100E500001F0B807000EB95B0050011002E0040079
:100E6000F3D712006D92699468A402D06894FCD7FD
:100E7000120070A00CD0800E0401005D07E1840E0A
:100E80000401045D03E104018C0E006F7090689A08
:100E900012006A6A686A9F0E6B6E7B0E696E6E6ADC
:100EA000716A726A736A746A756A766A776A160E0C
:100EB000706E68A604D0689652EC03F0FAD76D986D
:100EC000A6EC04F00401080E016F100E026F040E70
:100ED000036F8C0E006F0301B5910301B66B030124
:100EE000030EB46F1200B1C3E9FFB2C3EAFF0301FE
:100EF000B35104E0EE6A0301B307F9D712001201FF
:100F0000000200000008D8043C00010101020001B9
:100F100009022900010100C0320904000002030097
:100F20000000092111010001221D00070581034075
:100F30000001070501034000010403090434034DC7
:100F4000006900630072006F006300680069007050
:100F500000200054006500630068006E006F006CA4
:100F6000006F0067007900200049006E0063002ECA
:100F70000026034800490044002000550053004269
:100F800000200042006F006F0074006C006F006171
:100F9000006400650072000600FF0901A10119014B
:100FA0002940150026FF0075089540810019012988
:100FB000409100C0100F100F390F3D0F710FFC0B47
:100FC000000EF36E00EE00F0080E01D81200EA6089
:100FD00002D0EE6AFCD7F350E9601200EE6AFCD74B
:100FE000FFFFFFFFFFFFFFFFFFFFFFFFFFFFFFFF11
:100FF000FFFFFFFFFFFFFFFFFFFFFFFFFFFFFFFF01
:0610000082EF1DF012005A
:021006000D607B
:061008002BEF1CF01200AA
:02100E000000E0
:021016000001D7
:08101800D9CFE6FFE1CFD9FFBB
:10102000FE0EDB5002010C15106EFE0EDB50105C44
:1010300004E1FE0EDB500E1502E0000E01D0010EA1
:10104000E552E7CFD9FF1200D9CFE6FFE1CFD9FFB4
:10105000FE0EDB5002010B15106EFE0EDB50105C15
:1010600004E1FE0EDB500D1502E0000E01D0010E72
:10107000E552E7CFD9FF1200D9CFE6FFE1CFD9FF84
:10108000FE0EDB5002010E15106EFE0EDB50105CE2
:1010900004E1FE0EDB500C1502E0000E01D0010E43
:1010A000E552E7CFD9FF1200D9CFE6FFE1CFD9FF54
:1010B000FE0EDB5002010D15106EFE0EDB50105CB3
:1010C00004E1FE0EDB500B1502E0000E01D0010E14
:1010D000E552E7CFD9FF1200D9CFE6FFE1CFD9FF24
:1010E000FE0EDB5002010C1502E1000E01D0010ED4
:1010F000E552E7CFD9FF1200D9CFE6FFE1CFD9FF04
:10110000FE0EDB5002010B1502E1000E01D0010EB4
:10111000E552E7CFD9FF1200D9CFE6FFE1CFD9FFE3
:10112000050EE126240EE66E020EE66E400EE66E19
:10113000E66A02011C51400DF3CF10F0F4CF11F01C
:10114000F3CFE6FFF4CFE6FF4BEC19F0126E060E7C
:10115000E15E12500201245138E1200E246F256F08
:10116000266F030EE66E1C29E66E240EE66E020E56
:10117000E66E83EC0EF0E552E552E552E5520201CF
:10118000286B240E386F3A6F3C0E3C6F250E3E6F75
:101190003D0E406FA60E426F260E446F3E0E466F08
:1011A000396B3B6B3D6B010E3F6F416F020E436F1E
:1011B000456F476F010E486F496F4A6F400E4B6F86
:1011C0004C6F4D6F4E6F500E4F6F050E1D6FDF6AE7
:1011D000080EDF5C01E38BD0EA6ADF34FE0BEA36EF
:1011E000E96E380EE926020EEA22010EEFCFDBFF90
:1011F000DB50030BE76E020EE7CFDBFFDB50E76E41
:10120000030EE7CFDBFF010EDB507C0BE840E8402C
:101210003F0BE76E040EE7CFDBFFDBCF10F00F0EC6
:10122000E76E1018E8AE02D0103403D0E750D88033
:10123000105407E2040EDB50E009E76E040EE7CF1E
:10124000DBFFF70E106E040EDBCFE7FF1050E72632
:10125000040EE7CFDBFF010EDB50800B800802E1BC
:10126000DFCF1DF2DF50EA6A640FE96E020EEA2258
:10127000030EDBCFEFFFEA6ADF34FE0BEA36E96EDE
:10128000380EE926020EEA22EE52EF50030BE66E0C
:10129000DF50EA6A840FE96E020EEA22E552E75057
:1012A000EF6EEA6ADF34FE0BEA36E96E380EE926A5
:1012B000020EEA22EE52EF50800B800802E1010E8E
:1012C00001D0000EE66EDF50EA6A8C0FE96E020E66
:1012D000EA22E552E750EF6EDF50EA6A740FE96EDA
:1012E000020EEA22040EDBCFEFFFDF2A71D7050ED4
:1012F000E15C02E2E16AE552E16EE552E7CFD9FF37
:101300001200D9CFE6FFE1CFD9FFE652DF6A080E1F
:10131000DF5C0CE2EA6ADF34FE0BEA36E96E380E77
:10132000E926020EEA22EF9EDF2AF1D702011D51C3
:10133000E96EEA6AD890E936EA36380EE926020EF6
:10134000EA22EF8E240EE66E020EE66E400EE66E88
:10135000E66A1B51400DF3CF10F0F4CF11F0F3CF3C
:10136000E6FFF4CFE6FFB6EC19F0126E060EE15E72
:101370001250E552E552E7CFD9FF1200D9CFE6FF70
:10138000E1CFD9FFFD0EDBCFE6FFFE0EDBCFE6FFA0
:10139000E66A0B0EE66E29EC19F0E552E552E552CD
:1013A000E552E552E7CFD9FF1200D9CFE6FFE1CFF2
:1013B000D9FFFD0EDBCFE6FFFE0EDBCFE6FF030E0F
:1013C000E66E0B0EE66E29EC19F0E552E552E55299
:1013D000E552E552E7CFD9FF12000201010E1A6F64
:1013E0007F0EE66E510EE66EC9DFE552E55261EF03
:1013F0000FF002011A6BE66A510EE66EBFDFE5528E
:10140000E55261EF0FF002011A711A5102E07F0EEE
:1014100001D0000EE66E510EE66EB0DFE552E552E9
:1014200061EF0FF002011D51EA6A8C0FE96E020EA6
:10143000EA22EF5002E07F0E01D0000EE66E0F0EA2
:10144000E66EB3DFE552E5526CDA61EF0FF00201B0
:101450001D51EA6A8C0FE96E020EEA22010EEF6E50
:101460000BEF0BF002011D51EA6A8C0FE96E020EC0
:10147000EA22EF6A0BEF0BF002011D51EA6A8C0FB2
:10148000E96E020EEA22EF700BEF0BF002011A5127
:1014900001E0AFDF1200D9CFE6FFE1CFD9FF020EA6
:1014A000E126DF6A010EF36EFE0EDB5004E0D890F9
:1014B000F336E806FCE1F350E76E010EE7CFDBFF01
:1014C00002011D51EA6A480FE96E020EEA22010E7E
:1014D000DB50EF1A010EDBCFE6FF1D51EA6A480F21
:1014E000E96E020EEA22EF50E552E71402E07F0EA9
:1014F000DF6EDFCFE6FFFE0EDB50EA6A000FE96E1B
:10150000020EEA22EF50E66E39DFE552E55261EC59
:101510000FF0020EE15C02E2E16AE552E16EE55293
:10152000E7CFD9FF1200D9CFE6FFE1CFD9FFE652CE
:1015300002011D51EA6A480FE96E020EEA22EFCF5E
:10154000DFFF2151DF5C62E0400EDF1402E07F0E1E
:1015500001D0000EE66E5A0EE66E10DFE552E5523F
:10156000100EDF1402E07F0E01D0000EE66E580E62
:10157000E66E04DFE552E552040EDF1402E07F0E52
:1015800001D0000EE66E560EE66EF8DEE552E5522C
:10159000020EDF1402E07F0E01D0000EE66E550E43
:1015A000E66EECDEE552E552080EDF1402E07F0E37
:1015B00001D0000EE66E570EE66EE0DEE552E55213
:1015C000010EDF1402E07F0E01D0000EE66E540E15
:1015D000E66ED4DEE552E552200EDF1402E07F0E07
:1015E00001D0000EE66E590EE66EC8DEE552E552F9
:1015F000800EDF1402E07F0E01D0000EE66E5B0E5F
:10160000E66EBCDEE552E552DFCF21F2E552E5524F
:10161000E7CFD9FF1200D9CFE6FFE1CFD9FF020E05
:10162000E12602011B511C5D0DE0E96B1CC2E6FFC7
:10163000E66A0C0EE66E0DEC19F0E552E552E55245
:101640001CC21BF202011D51EA6A640FE96E020E10
:10165000EA22EF501F5D1BE01D51EA6A640FE96E3C
:10166000020EEA22EF50E824E66E010EE66E0C0E42
:10167000E66E0DEC19F0E552E552E55202011D51FE
:10168000EA6A640FE96E020EEA22EFCF1FF21D51E3
:10169000EA6A740FE96E020EEA22EF50790FE76EE4
:1016A000010EE7CFDBFFDB507F0803E2DE527F0E47
:1016B000DD6E000EF36E010EDBCFF4FFF350F45C31
:1016C00002E2010EDB6A010EDB50205D11E0010E2B
:1016D000DBCFE6FF5C0EE66EE66A0B0EE66E29ECEB
:1016E00019F0E552E552E552E552010EDBCF20F24A
:1016F00002011D51EA6A840FE96E020EEA22EFCF61
:1017000094F29551945D0DE094C2E6FF030EE66EEF
:101710000C0EE66E0DEC19F0E552E552E55294C25E
:1017200095F202011D51EA6A8C0FE96E020EEA225F
:10173000EF50235D0AE076DE02011D51EA6A8C0F4C
:10174000E96E020EEA22EFCF23F21DC21EF2DF6A1B
:10175000080EDF5C24E2DF50EA6A640FE96E020ED5
:10176000EA22EF50E66EDF50EA6A6C0FE96E020E75
:10177000EA22E552E750EF6EDF50EA6A740FE96E35
:10178000020EEA22EF50E66EDF50EA6A7C0FE96E45
:10179000020EEA22E552E750EF6EDF2AD9D7C3DE08
:1017A00090DB020EE15C02E2E16AE552E16EE55295
:1017B000E7CFD9FF1200D9CFE6FFE1CFD9FFE6523C
:1017C000FE0EEA6ADB34FE0BEA36E96E380EE926D5
:1017D000020EEA22EFCFDFFF000EDF90DF92FD0E58
:1017E000DB50030BDF12FC0EDBCF10F0E70EE76ED1
:1017F0001018E8AE02D0E73402D0E750105C02E2E5
:10180000E70E0FD0FC0EDBCF10F0060EE76E1018BF
:10181000E8AE02D0103403D0E750D880105405E26F
:10182000060EF36EFC0EF3CFDBFF000EDF94DF96A7
:10183000DF98DF9ADF9CFC0EDB50090F1F0B040DB5
:10184000F350DF12FE0EEA6ADB34FE0BEA36E96E75
:10185000380EE926020EEA22DFCFEFFFFE0EDB5044
:10186000EA6A8C0FE96E020EEA22EF50800DF3CF88
:1018700010F0FE0EDB50EA6A840FE96E020EEA22D7
:10188000EF50030BF310E66EFE0EEA6ADB34FE0B3C
:10189000EA36E96E380EE926020EEA22EE52E552E9
:1018A000E750EF6EFE0EDB50EA6A640FE96E020E3F
:1018B000EA22FD0EDBCFEFFFFE0EDB50EA6A740F6B
:1018C000E96E020EEA22FC0EDBCFEFFFFE0EDB50CC
:1018D000EA6A640FE96E020EEA22EF50E66EFE0E2F
:1018E000DB50EA6A6C0FE96E020EEA22E552E7501D
:1018F000EF6EFE0EDB50EA6A740FE96E020EEA220A
:10190000EF50E66EFE0EDB50EA6A7C0FE96E020EC7
:10191000EA22E552E750EF6EE552E552E7CFD9FFF4
:10192000120002011D51EA6A740FE96E020EEA22EA
:10193000EF50E66E1D51EA6A640FE96E020EEA226C
:10194000EF50E66E1DC2E6FF36DFE552E552E55286
:101950001200D9CFE6FFE1CFD9FFD8C2D9F2FE0EEF
:10196000DBCF1DF258DEE552E7CFD9FF12000201AE
:101970000A0508E1D851EA6A990FE96E020EEA22D7
:10198000EFCF1CF21B511C5D05E0E95104E1010E93
:10199000E96F01D0E96B8CEF08F0E9DF61EF0FF040
:1019A000D9CFE6FFE1CFD9FFE652FE0EDBCF0AF238
:1019B00002010A051EE1960EE66E020EE66E400E6C
:1019C000E66EE66AD651400DF3CF10F0F4CF11F079
:1019D000000E1026200E112210C0E6FF11C0E6FFF7
:1019E0004BEC19F0126E060EE15E12500201D86B3C
:1019F000D4DF67DAE552E552E7CFD9FF1200D9CF3D
:101A0000E6FFE1CFD9FF08C209F2FE0EDBCF08F2F4
:101A100058DAE552E7CFD9FF1200D9CFE6FFE1CF80
:101A2000D9FF030EE1260201010E0A6F086B096B54
:101A3000DF6A030EDF5C17E2EA6ADF34FE0BEA3688
:101A4000E96E0F0EE926020EEA22EE52EF6AEA6A0A
:101A5000DF34FE0BEA36E96E0F0EE926020EEA22AB
:101A6000EF6ADF2AE6D70201D76BD96BD66BD86B4A
:101A7000156B166B17691869E46BE56BE66BE76B22
:101A8000E86BE96BEB6BEC6BE36B1A6B196B1D6B23
:101A9000020E946F1B691C6B540E006F550E016F84
:101AA000560E026F570E036F580E046F590E056FD6
:101AB0005A0E066F5B0E076F486B100E496F4A6B2C
:101AC0004B6F4C6B4D6FDF6A040EDF5C18E2DFCFAB
:101AD000E6FFE9EC18F0E552F3CF10F0F4CF11F087
:101AE000EA6ADF34FE0BEA36E96EDB0EE926020E07
:101AF000EA22F3CFEEFF11C0EDFFDF2AE5D7DF6A60
:101B0000140EDF5C4BE2DF50F76A6D0FF66E390E94
:101B1000F7220800F550E66EDF500201EA6ADB2585
:101B2000E96EDC51EA22E552E750EF6EDF50F76ACA
:101B30006D0FF66E390EF7220800F550E66EDF5095
:101B4000EA6ADD25E96EDE51EA22E552E750EF6EE2
:101B5000DF50F76A580FF66E390EF7220800F5507D
:101B6000E66EDF50EA6ADF25E96EE051EA22E552CF
:101B7000E750EF6EDF50F76A6D0FF66E390EF72201
:101B80000800F550E66EDF50EA6AE125E96EE251A1
:101B9000EA22E552E750EF6EDF2AB2D792D9010E62
:101BA000E66EFEDEE552F9DE36DD030EE15C02E2B2
:101BB000E16AE552E16EE552E7CFD9FF120002017A
:101BC000E55100080EE2E52BE551106E116AD89040
:101BD000115004E6F00E105C000E115802E3800E66
:101BE000E56FE65100080EE2E62BE651106E116A31
:101BF000D890115004E6F00E105C000E115802E36C
:101C0000800EE66FE45100080EE2E42BE451106E02
:101C1000116AD890115004E6F00E105C000E1158B5
:101C200002E3800EE46FE75100080EE2E72BE75174
:101C3000106E116AD890115004E6F00E105C000E80
:101C4000115802E3800EE76FE85100080EE2E82B1E
:101C5000E851106E116AD890115004E6F00E105C35
:101C6000000E115802E3800EE86FEB51000808E205
:101C7000EB2B370EEB5D04E32D0EEB6F010EEC6FDB
:101C8000E95100080EE2E92BE951106E116AD89073
:101C9000115004E6F00E105C000E115802E3800EA5
:101CA000E96FEA5100080EE2EA2BEA51106E116A60
:101CB000D890115004E6F00E105C000E115802E3AB
:101CC000800EEA6FE35101E0E30712007F0E02018C
:101CD0001C5D01E01C2BCDEF0CF002011C5101E05A
:101CE0001C07CDEF0CF00201965101E112009605A0
:101CF000D85D01E2D82BCDEF0CF00201D85101E004
:101D0000D807CDEF0CF0D9CFE6FFE1CFD9FF0A0E0F
:101D1000126E0C6EFC0EDBCF07F093EC1DF003503F
:101D2000300FE66EFB0EDBCFF3FFDB06F350106ED9
:101D3000116A10BE1168FD0EDB501024E96EFE0E14
:101D4000DB501120EA6EE552E750EF6E0A0E106E7E
:101D50000C6EFC0EDBCF07F093EC1DF0FC0E07C001
:101D6000DBFF07500008D3E3FB0EDB50E552E7CF63
:101D7000D9FF1200D9CFE6FFE1CFD9FF040EE1264B
:101D8000030EDB6A0A0E146E0C6EFC0EDBCF07F03E
:101D900093EC1DF00350300FE66ED9CF10F0DACF80
:101DA00011F0030EDBCFF3FFDB2AF350126E136A40
:101DB00012BE136810501224E96E11501320EA6EFF
:101DC000E552E750EF6E0A0E106E0C6EFC0EDBCF84
:101DD00007F093EC1DF0FC0E07C0DBFF0750000876
:101DE000D1E3030EDB06030EDBCF10F0103428E244
:101DF000D9CF12F0DACF13F0030EDBCF14F0156A4F
:101E000014BE156812501424E96E13501520EA6EA2
:101E1000EF50E66EFB0EDBCF10F0116A10BE1168BA
:101E2000FD0EDB501024E96EFE0EDB501120EA6E31
:101E3000E552E750EF6E030EDB06FB0EDB2AD3D72D
:101E4000FB0EDB50106E040EE15C02E2E16AE5522B
:101E5000E16E1050E552E7CFD9FF120002010851A0
:101E6000E96EEA6AD890E936EA360F0EE926020EE4
:101E7000EA22EE52EFCF10F010C011F0106A0851B4
:101E8000E96EEA6AD890E936EA360F0EE926020EC4
:101E9000EA22EF501010156F11C016F217511519E4
:101EA00002E1185116190CE015C2E6FF16C2E6FF52
:101EB000CFEC18F0E552E55215C217F216C218F22F
:101EC0001200D9CFE6FFE1CFD9FF0B0EE126DE529B
:101ED000010EDD6E02011D51EA6A480FE96E020E25
:101EE000EA22020EEFCFDBFF030EDB6ADF6ADFCFF1
:101EF00010F0140EE76E1018E8AE02D0E73402D0EE
:101F0000E750105C33E2DFCF10F0116A10BE1168A9
:101F1000DB511024E96EDC511120EA6E200EEF6EC9
:101F2000DFCFE9FFEA6AE9BEEA68240EE926020E7D
:101F3000EA22EF50E66EDFCF10F0116A10BE116892
:101F4000DF511024E96EE0511120EA6EE552E750AE
:101F5000EF6EDFCFE9FFEA6AE9BEEA68240EE92600
:101F6000020EEA22EF5002E0DF2AC1D7DFCF10F0E5
:101F7000140EE76E1018E8AE02D0E73402D0E75036
:101F8000105C1CE2DFCF10F0116A10BE1168DB514B
:101F90001024E96EDC511120EA6E200EEF6EDFCFC7
:101FA00010F0116A10BE1168DF511024E96EE05183
:101FB0001120EA6E200EEF6EDF2AD8D708511FE0FD
:101FC000020E085D22E1110EEA6ADB25E96EDC51A2
:101FD000EA22530EEF6E120EEA6ADB25E96EDC513F
:101FE000EA22430EEF6E310E1D25E66E130EEA6AED
:101FF000DB25E96EDC51EA22E552E750EF6E010E77
:10200000F36E030EF3CFDBFF2BD0080529E1DF6A67
:10201000DFCF10F0140EE76E1018E8AE02D0E734F0
:1020200002D0E750105C1CE2DFCFF6FFF76AF6BE85
:10203000F768430EF626390EF7220800F550E66ED3
:10204000DFCF10F0116A10BE1168E1511024E96E63
:10205000E2511120EA6EE552E750EF6EDF2AD8D741
:102060000A512DE1DF6ADFCF10F0140EE76E101871
:10207000E8AE02D0E73402D0E750105C1CE2DFCFBC
:10208000F6FFF76AF6BEF7682E0EF626390EF7222F
:102090000800F550E66EDFCF10F0116A10BE11682F
:1020A000DD511024E96EDE511120EA6EE552E75051
:1020B000EF6EDF2AD8D7130EE66E1C2972D0984136
:1020C0007F0BE76E040EE7CFDBFF9751E00BE8389C
:1020D000E840106E010E9815100DF3501010E76EC9
:1020E000050EE7CFDBFF1F0E9715E76E060EE7CF55
:1020F000DBFFDF6ADFCF10F0140EE76E1018E8AEDA
:1021000002D0E73402D0E750105C1CE2DFCFF6FFCC
:10211000F76AF6BEF768190EF626390EF7220800A0
:10212000F550E66EDFCF10F0116A10BE1168DD5178
:102130001024E96EDE511120EA6EE552E750EF6E91
:10214000DF2AD8D7030EE66E040EDB500E0FE66EC4
:10215000DDC2E6FFDEC2E6FFD6DDE552E552E5521E
:10216000E552060EE66E050EDB28E66EDDC2E6FFE2
:10217000DEC2E6FFC8DDE552E552E552E552090E42
:10218000E66E060EDB28E66EDDC2E6FFDEC2E6FF87
:10219000BADDE552E552E552E552130EE66E020154
:1021A000D829E66EDDC2E6FFDEC2E6FFACDDE55211
:1021B000E552E552E552030EDB505EE0DE52010EC1
:1021C000DD6EDF6ADFCF10F0140EE76E1018E8AE98
:1021D00002D0E73402D0E750105C1DE2DFCFF6FFFB
:1021E000F76AF6BEF768040EF626390EF7220800E5
:1021F000F550E66EDFCF10F0116A10BE11680201D3
:10220000E1511024E96EE2511120EA6EE552E750E7
:10221000EF6EDF2AD7D7DF6ADFCF10F0080EE76E48
:102220001018E8AE02D0E73402D0E750105C24E288
:10223000010EDBCFE6FF020EDB50E552E714106E15
:10224000010EDB50105C0FE1DF50E824020F106E2E
:10225000116A10BE11680201E1511024E96EE251C9
:102260001120EA6EEF9ADF2A010EDBCFF3FFF39E17
:10227000F346F3CFDBFFD0D7020E0201085D18E171
:102280001D51EA6A640FE96E020EEA22070EEFCFD3
:10229000DBFF1D51EA6A840FE96E020EEA22080E86
:1022A000EFCFDBFF1D51EA6A740FE96E020E17D003
:1022B0001E51EA6A6C0FE96E020EEA22070EEFCF9A
:1022C000DBFF1E51EA6A840FE96E020EEA22080E55
:1022D000EFCFDBFF1E51EA6A7C0FE96E020EEA22A5
:1022E000090EEFCFDBFFDB50E76E0A0EE7CFDBFF17
:1022F0004D0EDBC2E9FFDCC2EAFFEF6E010EEA6AB7
:10230000DB25E96EDC51EA224B0EEF6E020EEA6A23
:10231000DB25E96EDC51EA222D0EEF6E030EEA6A30
:10232000DB25E96EDC51EA22430EEF6E070EDB502F
:10233000310FE66E040EEA6ADB25E96EDC51EA2213
:10234000E552E750EF6E090EDB5008E1060EEA6A2F
:10235000DB25E96EDC51EA22200E15D0090EDBCF19
:1023600010F0000EE76E1018E8AE02D0103403D063
:10237000E750D880105409E2060EEA6ADB25E96EC0
:10238000DC51EA222B0EEF6E0ED0060EEA6ADB2538
:10239000E96EDC51EA222D0EEF6E090EDB50FF0DC7
:1023A0000A0EF3CFDBFF070EE66E0A0EDBCFE6FF69
:1023B000DBC2E6FFDCC2E6FFDDDCE552E552E552BA
:1023C000E5520A0E0201EA6ADB25E96EDC51EA22D7
:1023D000410EEF6E0B0EEA6ADB25E96EDC51EA2254
:1023E000580EEF6E0C0EEA6ADB25E96EDC51EA222C
:1023F0002D0EEF6E0D0EEA6ADB25E96EDC51EA2246
:10240000530EEF6E080EDB50310FE66E0E0EEA6AC9
:10241000DB25E96EDC51EA22E552E750EF6E1B51F5
:102420001C5D1DE0100EDF6EDFCF10F0140EE76EA6
:102430001018E8AE02D0E73402D0E750105C0FE28B
:10244000DFCF10F0116A10BE1168DB511024E96E65
:10245000DC511120EA6E2A0EEF6EDF2AE5D709EC77
:1024600019F00B0EE15C02E2E16AE552E16EE55221
:10247000E7CFD9FF1200020108513FE1C00E0C1551
:10248000126E1A51200DF3CF11F01D51EA6A8C0F14
:10249000E96E020EEA22EF38F00B106E010E94C2C4
:1024A000E7FFE75204E0E846FE0BE706FCE1101008
:1024B000111012100201106F1B511C5D12E00F0E63
:1024C000E915106E080E105C0AE3010E1DC2E7FF4D
:1024D000E75210E0E846FE0BE706FCE10BD00F6B7D
:1024E0005DD0010E1DC2E7FFE75204E0E846FE0B97
:1024F000E706FCE102010F6F51D0080512E10CC2A2
:1025000012F2C00E0B15106E010E1DC2E7FFE7524E
:1025100004E0E846FE0BE706FCE110100201116F33
:102520003DD0020E085D3AE11D51EA6A480FE96E9E
:10253000020EEA22EFCF14F2F80E0B15116E1D51A8
:10254000EA6A640FE96E020EEA22EF50106E010E85
:10255000105204E0E846FE0B1006FCE111100201E7
:10256000136F1F0EE55D1AE30F0EE515106E080ED2
:10257000105C0BE30C1D106E1D51EA6A480FE96EEA
:10258000020EEA22EF50101408D01D51EA6A480FDB
:10259000E96E020EEA22EF500C11146FE3511DE0B8
:1025A0000F0EE315106E080E105C0CE30851E96E77
:1025B000EA6AD890E936EA360F0EE926020EEA22D8
:1025C000EF8C0BD00851E96EEA6AD890E936EA360A
:1025D0000F0EE926020EEA22EF9C2EEF0FF0D9CF64
:1025E000E6FFE1CFD9FFE65202019651D85D1CE229
:1025F0009651000819E2D829DF6E9651DF5C13E28C
:10260000DF50EA6A990FE96E020EEA22EF50E66E99
:10261000DF04EA6A990FE96E020EEA22E552E750FA
:10262000EF6EDF2AEAD79607E552E552E7CFD9FFEA
:102630001200800EE66E24EC08F0E552000904E07A
:10264000E66AFFEC0CF0E552010EE66E24EC08F0B1
:10265000E552000906E0E66AA9EC0CF0E55246EC0A
:102660000AF0020EE66E24EC08F0E552000907E0DD
:10267000010EE66EA9EC0CF0E55246EC0AF0040EF1
:10268000E66E24EC08F0E552000907E0020EE66E63
:10269000A9EC0CF0E55246EC0AF0080EE66E24ECCC
:1026A00008F0E552000907E0030EE66EA9EC0CF015
:1026B000E55246EC0AF0100EE66E24EC08F0E55206
:1026C000000907E0040EE66EA9EC0CF0E55246ECBA
:1026D0000AF0200EE66E24EC08F0E552000907E04F
:1026E000050EE66EA9EC0CF0E55246EC0AF0010E80
:1026F000E66E0CEC08F0E552000907E0010E02015D
:102700000A19E66ED0EC0CF0E552020EE66E0CEC07
:1027100008F0E552000905E0020EE66EFFEC0CF051
:10272000E552040EE66E0CEC08F0E5520009080EC6
:10273000E66E0CEC08F0E5520009100EE66E0CECAB
:1027400008F0E552000906E002010A0503E147DF4F
:10275000CDEC0CF0200EE66E0CEC08F0E552000912
:10276000400EE66E24EC08F0E552000904E0020198
:10277000010EE46F1AD0400EE66E7CEC08F0E552D4
:1027800000090AE04C0E0201E45D06E381EC09F069
:102790000201500EE36F08D0400EE66E54EC08F0D4
:1027A000E552000902E00201E46B02010A5144E132
:1027B000800EE66E0CEC08F0E552000904E0020120
:1027C000010EEB6F15D0800EE66E3CEC08F0E55282
:1027D000000903E00201EB6B0DD0800EE66E6CEC9D
:1027E00008F0E552000906E00201EC5103E0EC6B51
:1027F00066EC0EF0400EE66E0CEC08F0E5520009B7
:1028000004E00201010EEB6F15D0400EE66E3CECC9
:1028100008F0E552000903E00201EB6B1200400EE4
:10282000E66E6CEC08F0E552000928E00201EC517C
:1028300025E0EC6B6DEF0EF0800EE66E0CEC08F010
:10284000E55200090AE01F0E0201D65D06E2D62B12
:102850000AC2E6FFD0EC0CF0E552400EE66E0CEC3E
:1028600008F0E55200090AE00201D651000806E22C
:10287000D6070AC2E6FFD0EC0CF0E5521200D9CF21
:10288000E6FFE1CFD9FFFE0EDBCFE6FF0CEC08F050
:10289000E55200090AE0FD0EDBCFE6FF4BEC0AF043
:1028A000E5520201010EE56F13D0FE0EDBCFE6FF0D
:1028B0003CEC08F0E55200090BE01F0E0201E55D5B
:1028C00007E3E56BFD0EDBCFE6FF4BEC0AF0E552CC
:1028D000E552E7CFD9FF1200E66A010EE66ECFDFC0
:1028E000E552E552010EE66E020EE66EC8DFE552D5
:1028F000E552020EE66E040EE66EC1DFE552E552C9
:10290000030EE66E080EE66EBADFE552E552040EDF
:10291000E66E100EE66EB3DFE552E552050EE66E8A
:10292000200EE66EACDFE552E552060EE66E400E76
:10293000E66EA5DFE552E552070EE66E800EE66E06
:102940009EDFE552E552010EE66E24EC08F0E552FA
:10295000000913E002011D51EA6A740FE96E020ECC
:10296000EA22EF50E66EE66A1DC2E6FFDBEC0BF0F2
:10297000E552E552E5520BEC0BF0020EE66E24EC4C
:1029800008F0E552000914E002011D51EA6A740FD3
:10299000E96E020EEA22EF50E66E010EE66E1DC2EF
:1029A000E6FFDBEC0BF0E552E552E5520BEC0BF0E9
:1029B000040EE66E24EC08F0E552000914E0020172
:1029C0001D51EA6A740FE96E020EEA22EF50E66EBC
:1029D000020EE66E1DC2E6FFDBEC0BF0E552E5529F
:1029E000E5520BEC0BF0080EE66E24EC08F0E55215
:1029F00000091AE002011D51EA6A740FE96E020E25
:102A0000EA22EF04E66E1D51EA6A640FE96E020ED7
:102A1000EA22EF50E66E1DC2E6FFDBEC0BF0E5525A
:102A2000E552E5520BEC0BF0100EE66E24EC08F0CC
:102A3000E55200091AE002011D51EA6A740FE96EBD
:102A4000020EEA22EF28E66E1D51EA6A640FE96E73
:102A5000020EEA22EF50E66E1DC2E6FFDBEC0BF041
:102A6000E552E552E5520BEC0BF0200EE66E24EC3D
:102A700008F0E55200091FE002011D51EA6A740FD7
:102A8000E96E020EEA22EF50060803E0060EE66E3B
:102A900001D0E66A1D51EA6A640FE96E020EEA226D
:102AA000EF50E66E1DC2E6FFDBEC0BF0E552E5529F
:102AB000E5520BEC0BF0400EE66E24EC08F0E5520C
:102AC00000090AE081EC09F00201500EE36F09C22F
:102AD000E6FFFFEC0CF0E552800EE66E24EC08F009
:102AE000E552000905E009C2E6FFFFEC0CF0E552F3
:102AF0001200D9CFE6FFE1CFD9FFFE0EDBCFE6FF14
:102B000024EC08F0E55200091EE0FD0EDBCFE6FFE5
:102B1000A9EC0CF0E55246EC0AF0FE0EDB50020187
:102B2000225D0AE1191D7F0B196FE66E500EE66EED
:102B3000BEEC09F0E552E552FE0EDBCF22F20201B7
:102B4000010EEA6F13D0FE0EDBCFE6FF7CEC08F03F
:102B5000E55200090BE04C0E0201EA5D07E3020EAC
:102B6000E66EFFEC0CF0E5520201EA6BE552E7CFAE
:102B7000D9FF1200E66A010EE66EBBDFE552E552B0
:102B8000010EE66E020EE66EB4DFE552E552020E6D
:102B9000E66E040EE66EADDFE552E552030EE66E1C
:102BA000080EE66EA6DFE552E552040EE66E100E44
:102BB000E66E9FDFE552E552050EE66E200EE66EEC
:102BC00098DFE552E552060EE66E400EE66E91DFA6
:102BD000E552E552070EE66E800EE66E8ADFE5529C
:102BE000E552010EE66E0CEC08F0E55200090AE031
:102BF00002011D51EA6A840FE96E020EEA22EF6AB1
:102C00000BEC0BF0020EE66E0CEC08F0E55200093E
:102C10000BE002011D51EA6A840FE96E020EEA22FE
:102C2000010EEF6E0BEC0BF0040EE66E0CEC08F0F0
:102C3000E55200090BE002011D51EA6A840FE96EBA
:102C4000020EEA22020EEF6E0BEC0BF0080EE66E9F
:102C50000CEC08F0E55200090BE002011D51EA6A94
:102C6000840FE96E020EEA22030EEF6E0BEC0BF0FE
:102C7000100EE66E0CEC08F0E552000902E03CECA8
:102C80000AF0200EE66E0CEC08F0E552000902E0B6
:102C900003EC0AF002010A5141E1800EE66E0CECF1
:102CA00008F0E552000904E00201010EEB6F15D0B7
:102CB000800EE66E3CEC08F0E552000903E00201EC
:102CC000EB6B0DD0800EE66E6CEC08F0E55200095F
:102CD00006E00201EC5103E0EC6B66EC0EF0400EF6
:102CE000E66E0CEC08F0E552000904E00201010E6A
:102CF000EB6F12D0400EE66E3CEC08F0E552000996
:102D000042E1400EE66E6CEC08F0E55200094BE043
:102D10000201EC5148E0EC6B6DEF0EF0800EE66EB8
:102D20000CEC08F0E552000904E00201010EEB6F23
:102D300015D0800EE66E3CEC08F0E552000903E089
:102D40000201EB6B0DD0800EE66E6CEC08F0E552E4
:102D5000000906E00201EC5103E0EC6B73EC0EF0AD
:102D6000400EE66E0CEC08F0E552000905E00201A9
:102D7000010EEB6F7DEF0EF0400EE66E3CEC08F0BE
:102D8000E552000903E00201EB6B1200400EE66E13
:102D90006CEC08F0E552000906E00201EC5103E09A
:102DA000EC6B7DEC0EF01200D9CFE6FFE1CFD9FF3E
:102DB000020EE12674EC18F0F3CFDEFFF4CFDDFF56
:102DC000DECF10F0DDCF11F0105002010B6FDECF1F
:102DD00010F0DDCF11F011C010F0116A10500C6F1F
:102DE000085102E1C7DE08D0020E085D02E174DD81
:102DF00003D0080501E11DDC3BEC12F00BC20DF223
:102E00000CC20EF2020EE15C02E2E16AE552E16EF2
:082E1000E552E7CFD9FF1200E3
:082E1800D9CFE6FFE1CFD9FF9D
:102E2000FE0EDBCFE6FF07EC1DF0E552E552E7CFE3
:102E3000D9FF1200D9CFE6FFE1CFD9FFE652080E45
:102E4000DF6E898489948992FD0EDBBE02D089965B
:102E500001D08986DBCFF3FFF39EF346F3CFDBFF90
:102E60008982DF06F0E1080EDF6E8992FE0EDBBE7E
:102E700002D0899601D08986DBCFF3FFF39EF3461B
:102E8000F3CFDBFF8982DF06F0E18984100EDF6E6D
:102E9000DF5002E0DF06FCD7899489868982E552FB
:102EA000E552E7CFD9FF1200D9CFE6FFE1CFD9FF36
:102EB000050EE126030EDB6ADE52010EDD6EDF6ACF
:102EC000080EDF5C22E2DFCFE6FFF9D8E552050EFF
:102ED000F36E020EF3CFDBFFDB5003E0020EDB06E6
:102EE000FBD784A209D0030EDBCFE7FF010EDB5036
:102EF000E712030EE7CFDBFF010EDBCFF3FFF39EFC
:102F0000F346F3CFDBFFDF2ADBD7040EDB6ADE52AA
:102F1000010EDD6E080EDF6E100EDF5C22E2DFCFE9
:102F2000E6FFCDD8E552050EF36E020EF3CFDBFFC0
:102F3000DB5003E0020EDB06FBD784A209D0040EAF
:102F4000DBCFE7FF010EDB50E712040EE7CFDBFF1C
:102F5000010EDBCFF3FFF39EF346F3CFDBFFDF2A57
:102F6000DBD701014B6B01014A6BD950030FE96EAE
:102F7000DACFEAFFEF50010B02E101014B85D95096
:102F8000030FE96EDACFEAFFEF50020B02E1010115
:102F90004B83D950030FE96EDACFEAFFEF50040BF1
:102FA00002E101014B81D950030FE96EDACFEAFF4C
:102FB000EF50080B02E101014B87D950030FE96E76
:102FC000DACFEAFFEF50100B02E101014B8FD9502D
:102FD000030FE96EDACFEAFFEF50200B02E10101A7
:102FE0004B89D950030FE96EDACFEAFFEF50400B5F
:102FF00002E101014B8DD950030FE96EDACFEAFFF0
:10300000EF50800B02E101014B8BD950040FE96EA8
:10301000DACFEAFFEF50010B02E101014A85D950F6
:10302000040FE96EDACFEAFFEF50020B02E1010173
:103030004A83D950040FE96EDACFEAFFEF50040B50
:1030400002E101014A81D950040FE96EDACFEAFFAB
:10305000EF50080B02E101014A87D950040FE96ED5
:10306000DACFEAFFEF50100B02E101014A8FD9508D
:10307000040FE96EDACFEAFFEF50200B02E1010105
:103080004A89D950040FE96EDACFEAFFEF50400BBE
:1030900002E101014A8DD950040FE96EDACFEAFF4F
:1030A000EF50800B02E101014A8B050EE15C02E268
:1030B000E16AE552E16EE552E7CFD9FF1200D9CFC0
:1030C000E6FFE1CFD9FF8998899A8D908990FE0E0D
:1030D000DBB08988DBB2898ADBB48D80DBB689807E
:1030E000E552E7CFD9FF1200D9CFE6FFE1CFD9FFF4
:1030F000020EE126126A01014B511210DE6E4AC126
:10310000DDFFDECF10F0DDCF11F010C0F3FF11C0F6
:10311000F4FF020EE15C02E2E16AE552E16EE55283
:10312000E7CFD9FF1200D9CFE6FFE1CFD9FF020EDA
:10313000E126DF6A010148B1DF8E48B3DF8C48B574
:10314000DF8A48B7DF8848B9DF8648BBDF8448BDDF
:10315000DF8248BFDF80010EDB6A010149B1DB8EEF
:1031600049B3DB8C49B5DB8A49B7DB8849B9DB86D3
:1031700049BBDB8449BDDB8249BFDB80DFCFE6FF93
:10318000DBCFE6FF57DEE552E552020EE15C02E2DC
:10319000E16AE552E16EE552E7CFD9FF1200D9CFDF
:1031A000E6FFE1CFD9FFFE0EDBCF11F011C010F02A
:1031B00011500101486FFF0EE76EFD0EDBCF10F0DE
:1031C000E7501016116A10C049F1E552E7CFD9FF58
:1031D0001200D9CFE6FFE1CFD9FFFE0EDB50140D70
:1031E000F3CF10F0F4CF11F0B00E1026010E112223
:1031F00010C0F3FF11C0F4FFE552E7CFD9FF120072
:10320000D9CFE6FF18840101AF6BE552E7CFD9FFB4
:10321000120018840101AF6B1200D9CFE6FFE1CF95
:10322000D9FFFD0EDB500F0B106EFE0EDB500F0BA7
:10323000100DF3501010E66E07EC1DF0E552FC0E79
:10324000DBCFE6FF07EC1DF0E552E552E7CFD9FFF3
:103250001200D9CFE6FFE1CFD9FFFD0EDB500F0BF7
:10326000106EFE0EDB500F0B100DF3501010E66EBB
:1032700007EC1DF0E552FC0EDBCFE6FF07EC1DF07E
:10328000E552FB0EDBCFE6FF07EC1DF0E552E55201
:10329000E7CFD9FF1200D9CFE6FFE1CFD9FF040E67
:1032A000E126FE0EDBCF11F011380F0B106E010E70
:1032B00010C0DBFFD950FD0FE96EFF0EDA20EA6E79
:1032C000EE520F0EED16DF6AFD0EDBCF06F0FE0E9E
:1032D000DBCF07F0020E06C0DBFF030E07C0DBFFEB
:1032E000DFCF10F0FB0EDBCF11F0FC0EDBCF12F0C6
:1032F0001150105C000E12542FE2010EDB50106EC4
:10330000116A0C0ED89010361136E806FBE1000E5B
:103310001026490E1122020EDB501024F66E030E09
:10332000DB501120F76E0800F550E66EDF50E76EB7
:10333000F90EDBCFE9FFFA0EDBCFEAFFE750E92613
:10334000000EEA22E552E750EF6EDF2A020EDB2A7A
:10335000030EC6E3DB2AC4D7040EE15C02E2E16A95
:10336000E552E16EE552E7CFD9FF1200D9CFE6FF73
:10337000E1CFD9FF080EE126FE0EDBCF11F01138A8
:103380000F0B106E010E10C0DBFFFD0EDBCF10F037
:10339000FE0EDBCF11F0FF0E10160F0E1116020EEF
:1033A00010C0DBFF030E11C0DBFF020EDBCF10F0FD
:1033B000030EDBCF11F0C00E1016FF0E1116040E17
:1033C00010C0DBFF050E11C0DBFFDF6A400EDF5CC3
:1033D00029E2010EDB50106E116A0C0ED8901036E7
:1033E0001136E806FBE1000E1026490E1122040EEC
:1033F000DB501024F66E050EDB501120F76E08002E
:10340000F550E66EDF50EA6A020FE96E010EEA221D
:10341000E552E750EF6EDF2A040EDB2A050ED6E3F5
:10342000DB2AD4D7FD0EDBCF10F0FE0EDBCF11F080
:10343000C00E1016FF0E1116040E10C0DBFF050E95
:1034400011C0DBFFFD0EDBCF12F0FE0EDBCF13F061
:10345000040EDB50125C106E050EDB501358116E1B
:10346000060E10C0DBFF070E11C0DBFFDF6ADFCFE7
:1034700010F0FB0EDBCF11F0FC0EDBCF12F0115081
:10348000105C000E125422E2DF50E76EF90EDBCF23
:10349000E9FFFA0EDBCFEAFFE750E926000EEA2249
:1034A000EF50E66E060EDBCFE9FF070EDBCFEAFF3B
:1034B000020EE926010EEA22E552E750EF6EDF2AFE
:1034C000060EDB2A070ED3E3DB2AD1D7FD0EDBCFB6
:1034D00000F1FE0EDBCF01F1C00E01010017FF0E5F
:1034E0000117000E0027490E0123A2EC1BF01786DE
:1034F0001788080EE15C02E2E16AE552E16EE552EE
:06350000E7CFD9FF120025
:0A350600D9CFE6FFE1CFD9FFE6526E
:10351000F29EF29C9D908C8EDF6A500EDF5C0AE278
:10352000CD909E90CE6ACF6ACD809EA0FED79E9011
:10353000DF2AF3D79D80F28EF28CE552E552E7CF79
:10354000D9FF1200D9CFE6FFE1CFD9FF020EE12665
:10355000010EAFC1DBFFFE0EE66E46D8E552450E0A
:10356000E66E42D8E552010EDB50030A0CE0010A78
:1035700008E0030A04E0010A0AE1E66A06D0400E08
:1035800003D0140E01D0540EE66E2ED8E552DF6A39
:10359000140EDF5C18E2010EDB50140DF3CF10F0B7
:1035A000F4CF11F0B00E1026010E1122DF500F01E2
:1035B0001024E96E000E1120EA6EEF50E66E14D86A
:1035C000E552DF2AE5D70101AF2B040EAF5D02E320
:1035D000AF6B1894020EE15C02E2E16AE552E16E23
:1035E000E552E7CFD9FF1200D9CFE6FFE1CFD9FFEF
:1035F0002A0E0101A75D0EE2A751EA6A7D0FE96E6E
:10360000010EEA22FE0EDBCFEFFFA72B0101AC512A
:1036100001E104D8E552E7CFD9FF12000101020E03
:10362000AB6F0101010EAC6FCD90BC0ECE6EFC0EE7
:10363000CF6ECD8012009E90CD907B0ECE6EFD0E93
:10364000CF6ECD800101AB51030A15E0010A03E002
:10365000020A40E01200030EAB6F0101010EAA6FD7
:103660000101A851EA6A7D0FE96E010EEA22EFCF4F
:10367000A9F18C9E12000101AA5121E18C8E010159
:10368000A82B0101A7510101A85D0DE30101AB6B5E
:103690000101AC6B0101A86B0101A76BCD909E905D
:1036A000CE6ACF6A1200A851EA6A7D0FE96E010E58
:1036B000EA22EFCFA9F10101020EAB6F1200010166
:1036C000A9A102D08C8E01D08C9EA991A9430101A1
:0636D000AA9FAA471200A8
:0A36D600550EA76EAA0EA76EA6827D
:1036E0001200D9CFE6FFE1CFD9FFE652E00E01018B
:1036F0000017840EA66EFE0EDB50DF6EFE0EDB5052
:10370000200FDF5C1AE2DF50EA6A020FE96E010E59
:10371000EA22EFCF10F0DF500101F76A0025F66EC4
:103720000151F722F86A10C0F5FF0C001F0EDF14DC
:103730001F0801E1D0DFDF2AE1D7E552E552E7CFEC
:10374000D9FF1200940EA66E00C1F6FF01C1F7FF6B
:10375000F86AC1DFF86A1200D9CFE6FFE1CFD9FFDE
:10376000A66AFE0EDB50A96EA680A850E552E7CFF0
:10377000D9FF1200D9CFE6FFE1CFD9FFA6A202D030
:10378000000E0AD0FE0EDB50A96EFD0EDB50A86EB7
:10379000040EA66EA0DF010EE552E7CFD9FF12009E
:1037A0000400C1EC1CF0040083EC1AF00400FE0ECF
:1037B000E66EF4EC1AF0E552510EE66EF4EC1AF0F7
:1037C000E552FE0EE66EF4EC1AF0E552520EE66E8D
:1037D000F4EC1AF0E552140EE66EF4EC1AF0E55231
:1037E00054EC17F00DEC0DF00400F28EF28C17A6DD
:1037F00005D01796E66A71EC1BF0E55217A806D0C3
:103800001798200EE66E71EC1BF0E55217A003D05E
:1038100017904DEC1DF01850040B05E00101AB5161
:1038200002E1A2EC1AF018A003D0189054EC17F0A3
:1038300017AA03D0179A93EC18F017AE03D0179E6F
:10384000D4EC16F018A203D01892DFEC0DF0F2ECD5
:063850001CF0CAD71200B3
:0A385600DACFE4FFE2CFDAFFE9CF9A
:10386000E4FFEACFE4FFF6CFE4FFF7CFE4FFF5CFC4
:10387000E4FFF3CFE4FFF4CFE4FFFACFE4FF00EE80
:1038800000F0100EE80403E3EECFE4FFFBD700EEF8
:1038900010F0060EE80403E3EECFE4FFFBD7E65298
:1038A0009EA002D01BEC1BF09EA208D09E920101AC
:1038B0004C2B040E4C5D02E14C6B1780E55200EE80
:1038C00015F0060EE80403E3E5CFEDFFFBD700EEAD
:1038D0000FF0100EE80403E3E5CFEDFFFBD7E5CFD3
:1038E000FAFFE5CFF4FFE5CFF3FFE5CFF5FFE5CF36
:1038F000F7FFE5CFF6FFE5CFEAFFE5CFE9FFE5CF3C
:04390000DAFF1100D9
:0C3904002020632D662D702D6F2D642D8A
:10391000762D672D712D202000323031342D30313D
:103920002D303120202020202020232030005072F4
:103930006F6772616D20202020202020202023200E
:10394000202000204D44205344202D2D202D2D20BB
:10395000524D20535720200050726F6772616D3AAC
:103960002020202020202020202020200020202077
:103970002020202020202020202020202020202047
:02398000200025
:0E3982006BEC1DF0896A8A6A8B6A8C6A8D6A0A
:10399000926A100E936EF80E946E956A020E966EF1
:1039A000A60EAC6E900EAB6E3F0EAF6EB06A400EC0
:1039B000C26E0E0EC16E060EC06E200EF26E800E2E
:1039C000F16ED08ED76AD66A420ED56ECF6ACE6AB5
:1039D000CD6ACC6AF90ECB6E0D0ECA6E030E9D6ECB
:0439E000F28E120051
:0C39E4009EBA120001017B5101017C5DC4
:1039F00002E11DEF1DF09EA812007C51EA6A510FF2
:103A0000E96E010EEA22EF50AD6E7C2B1200D9CF89
:103A1000E6FFE1CFD9FF2A0E01017B5D0AE27B516F
:103A2000EA6A510FE96E010EEA22FE0EDBCFEFFFCC
:103A30007B2BE552E7CFD9FF120001017B6B01011F
:043A40007C6B120089
:0C3A4400D9CFE6FFE1CFD9FFFE0EDB502A
:103A5000A96EA69EA69CA680A850E552E7CFD9FFE6
:103A60001200D9CFE6FFE1CFD9FFFE0EDB50A96EE1
:103A7000FD0EDB50A86EA69EA69CA684F29E550E57
:103A8000A76EAA0EA76EA6820400A6B2FDD7F28E7C
:0A3A9000A694E552E7CFD9FF12001B
:063A9A0001014D2B0A0E94
:103AA0004D5D18E14D6B178E178A188201014F2B5F
:103AB000040E4F5D02E14F6B18800101502B020E86
:103AC000505D01E1506B01014E2B640E4E5D02E131
:063AD0004E6B1884120089
:0A3AD600EA6AE96A0400EE6AEAA653
:103AE000FCD71200000EF36E00EE00F0080E01D8B5
:103AF0001200EA6002D0EE6AFCD7F350E9601200CF
:043B0000EE6AFCD796
:0C3B040017EE00F027EE00F0F86A0F9CAE
:103B1000EA6AE96A0400EE6AEAA68AEF1DF0D0ECD0
:063B20001BF0FDD71200AE
:0A3B2600036A080EE76ED890073618
:103B300003360C50035C02E3036E072AE72EF7D727
:023B4000120071
:104900004D6F6E6B65797772656E636800000000AD
:1049100000000000240024003C0025013D01A60207
:1049200026023E02010101404040405000000000CC
:104930000000000000000000000000000000000077
:104940004576656E20466C6F770000000000000021
:1049500000000000240024003C0025013D01A602C7
:1049600026023E020101014040404050000000008C
:104970000000000000000000000000000000000037
:104980005A65726F00000000000000000000000087
:1049900000000000240024003C0026023E02A60283
:1049A00026023E0201010140504040540000000038
:1049B00000000000000000000000000000000000F7
:1049C000576F6E64657277616C6C000000000000C8
:1049D00000000000240024003C002501BD01250149
:1049E00025013D01414141D1C1C1C1D100000000BB
:1049F00000000000000000000000000000000000B7
:104A0000427564647920486F6C6C79000000000086
:104A100000000000240024003C0025013D01A60206
:104A200026023E02010101404040405000000000CB
:104A30000000000000000000000000000000000076
:104A4000506C75736800000000000000000000005A
:104A500000000000240024003C0025013D01A602C6
:104A600026023E02090999C8D8C8C8D8000000002B
:104A70000000000000000000000000000000000036
:104A8000436F6D65204F757420616E6420506C61BA
:104A900079000000240024003C0025013D01A6020D
:104AA00026023E020101014040404050000000004B
:104AB00000000000000000000000000000000000F6
:104AC00044726976650000000000000000000000EC
:104AD00000000000240024003C002501BD01250148
:104AE00025013D01414141D1C1C1C1D100000000BA
:104AF00000000000000000000000000000000000B6
:104B00005768656E204920436F6D652041726F754F
:104B10006E640000240024003C0025013D01A60233
:104B200026023E02010101404040405000000000CA
:104B30000000000000000000000000000000000075
:104B400045766572797468696E67205A656E0000F3
:104B500000000000240024003C002501250125015F
:104B60002501BD01000000D0D0C0C0D00000000071
:104B70000000000000000000000000000000000035
:104B8000456E7465722053616E646D616E00000045
:104B900000000000A40026023E023200240024028D
:104BA00026023E020140505001014050000000002A
:104BB00000000000000000000000000000000000F5
:104BC000437261776C696E6720696E207468652036
:104BD0004461726B240024003C0025013D01A602C3
:104BE00026023E020101014040404050000000000A
:104BF00000000000000000000000000000000000B5
:104C0000536F6E67203200000000000000000000BB
:104C100000000000A4002400240026023E02260218
:104C200026023E02C1C1C1C1C1C1C1C10000000014
:104C30000000000000000000000000000000000074
:104C40005365782054797065205468696E67000058
:104C500000000000240024003C0025013D01A602C4
:104C600026023E0201010140404040500000000089
:104C70000000000000000000000000000000000034
:104C80004D72204A6F6E6573000000000000000046
:104C900000000000240024003C002501BD01250186
:104CA00025013D01414141D1C1C1C1D100000000F8
:104CB00000000000000000000000000000000000F4
:104CC000436F756E74696E6720426C756520436131
:104CD00072730000240024003C0026023E02A6025B
:104CE00026023E02191919404050505000000000A1
:104CF00000000000000000000000000000000000B4
:104D0000496E20426C6F6F6D0000000000000000D3
:104D100000000000A40024003C0026023E022602FF
:104D200026023E02C1C1C1C1C1C1C1C10000000013
:104D30000000000000000000000000000000000073
:104D40004861736820506970650000000000000031
:104D500000000000240024003C0025013D01A602C3
:104D600026023E0201010140404040500000000088
:104D70000000000000000000000000000000000033
:104D80004D79204865726F000000000000000000AF
:104D900000000000240024003C0025013D01A60283
:104DA00026023E0201010140404040500000000048
:104DB00000000000000000000000000000000000F3
:104DC0004D616368696E656865616400000000009C
:104DD00000000000240024003C0025013D01A50145
:104DE00025012501010101C1C1C1C1D1000000009F
:104DF00000000000000000000000000000000000B3
:104E0000486F6C69646179000000000000000000D8
:104E100000000000240024003C0025013D01A60202
:104E200026023E02010101404040405000000000C7
:104E30000000000000000000000000000000000072
:104E4000436C6F73696E672054696D6500000000E4
:104E500000000000240024003C0025013D01A501C4
:104E600025013D010101014050404050000000007B
:104E70000000000000000000000000000000000032
:104E8000427261696E737465770000000000000073
:104E900000000000240024003C0025012501A6029A
:104EA00026023E0201010140404040400000000057
:104EB00000000000000000000000000000000000F2
:104EC000426F756E6420666F722074686520466C50
:104ED0006F6F7200240024003C00A501250125010C
:104EE00025013D01010101404058585000000000DB
:104EF00000000000000000000000000000000000B2
:104F00004920416C6F6E6500000000000000000049
:104F100000000000A40024003C0025013D01250103
:104F200025013D011919014040404050000000009A
:104F30000000000000000000000000000000000071
:104F400043756D626572736F6D650000000000004F
:104F500000000000240024003C0025013D01A501C3
:104F600025013D010101014040404050000000008A
:104F70000000000000000000000000000000000031
:104F80004C756D7000000000000000000000000083
:104F900000000000240024003C0025013D01A50183
:104FA00025013D010101014040404040000000005A
:104FB00000000000000000000000000000000000F1
:104FC000486579204A65616C6F757379000000004F
:104FD00000000000240024003C0025013D01A50143
:104FE00025013D010101014040404050000000000A
:104FF00000000000000000000000000000000000B1
:105000004B727970746F6E69746500000000000067
:1050100000000000A40024003C0025013D01260200
:1050200026022603010101404040405000000000DC
:105030000000000000000000000000000000000070
:1050400044616D6D69740000000000000000000004
:1050500000000000240024003C0025013D01A501C2
:1050600025013D0101010140404040500000000089
:105070000000000000000000000000000000000030
:1050800053656D692D636861726D6564204C696656
:1050900065000000240024003C0025013D01A5011D
:1050A00025013D0101010140404040500000000049
:1050B00000000000000000000000000000000000F0
:1050C0004D79204F776E20576F72737420456E654F
:1050D0006D790000240024003C0025013D01A6025A
:1050E00026023E0201010140404040400000000015
:1050F00000000000000000000000000000000000B0
:10510000546865204D6964646C650000000000000F
:1051100000000000240024003C00A5013D011D0109
:105120002501250100000000001200000000000021
:10513000000000000000000000000000000000006F
:1051400042756C6C6574205769746820427574747C
:105150006572666CA40024003C001E021E0226023A
:1051600026023E0201010150504040400000000074
:10517000000000000000000000000000000000002F
:10518000496620596F7520436F756C64204F6E6CB3
:1051900079205365240024003C001D011D012501D8
:1051A0002501BD01010101505040405000000000A8
:1051B00000000000000000000000000000000000EF
:1051C00042656175746966756C20446973617374B6
:1051D00065720000240024003C001D011D01A50192
:1051E00025013D01010101505040404000000000F8
:1051F00000000000000000000000000000000000AF
:10520000000000000000000000000000000000009E
:10521000000000000000000000000000000000008E
:10522000000000000000000000000000000000007E
:106900000FFC02090C021304231D161F20001A118C
:10691000080AFFFFFFFFFFFFFFFFFFFFFFFFFFFF73
:10692000FFFFFFFFFFFFFFFFFFFFFFFFFFFFFFFF77
:10693000FFFFFFFFFFFFFFFFFFFFFFFFFFFFFFFF67
:106940000000000000000000000000000000000047
:106950000000000000000000000000000000000037
:020000040030CA
:0100000029D6
:010001000EF0
:0100020026D7
:010005008179
:010006008178
:010008000FE8
:01000900C036
:01000A000FE6
:01000B00E014
:01000C000FE4
:01000D0040B2
:00000001FF
