:020000040000FA
:0600000011EF00F01200F8
:0600080004EF08F01200F5
:080018000CEF08F060EF00F0AE
:020020001200CC
:0E002200400EC26E0E0EC16E060EC06E92989B
:10003000929A969092908998898A8D9089901DD8ED
:100040001CD81BD884A202D003D002D060EF00F0ED
:10005000060EF66E100EF76E0900F5CF10F00800D0
:10006000F5CF11F00D0E101802E1600E111802E12B
:0C00700000EF08F060EF00F0120012003A
:1000C000F26A13EE00F023EE00F0F86AFC6A6DA607
:1000D00002D082EC02F011D80400D3EC06F0E7EC79
:1000E00006F018D8060E0301B45D05E16D50020B51
:1000F00002E195EC00F0F0D71200140E6F6E0301D0
:10010000B46B0301B56B0301B66B8CEC00F08C9003
:1001100095901200120000000001E56BE969EA69A0
:10012000EB69E86B010EEC6F12000001E5511EE176
:10013000040108BF94D10001400EFE6F0001A10E22
:10014000FC6F000EFD6FA2EC06F00001010EE56FE2
:10015000ED6B400EED5D01E382D1ED51EA6A600F77
:10016000E96E000EEA22EF6AED2BF3D70001A151F0
:10017000080A01E171D1040A01E132D1050A01E165
:100180002DD10E0A01E1F6D0010A01E1EDD0030AFA
:1001900001E195D0010A4DE0070A41E0010A01E0C2
:1001A0005CD10001020E606F3A0E616F010E626F4A
:1001B000636F646B100E656F666B676BC00E686F64
:1001C0006D0E696F6A6B6B6B030E6C6F6D6B6E6B94
:1001D000300E6F6F706B0E0E716F726B736B746B92
:1001E000040E756F766B776B200E786F796B080E47
:1001F0007A6F7B6B7C6B7D6B020E7E6F7F6B806B8F
:10020000F00E816F826B836B010E846F856B866B42
:100210008769A50E996F04010CBF21D1DCD00001C4
:10022000010EEC6F0001A25101E013D10001EC6B53
:1002300010D1400E0001E66FE76B000EE65D020E86
:10024000E7591FE22FDAE6C000F0E7C001F0026ACA
:10025000060E1F0BE6C0F6FFE7C0F7FF02C0F8FF6F
:1002600006E0D890F636F736F836E806FAE1940E4E
:10027000A66E24DAE7EC06F00001E62B000EE72379
:10028000DCD7ED6BEDC0A9FFA868040EA66EE7EC05
:1002900006F014DA0001ED51ED2B006E016A026ADE
:1002A000FF0E005C000E0158000E0258EBE3F66AE8
:1002B000F76A200EF86E940EA66E00DACAD0300EE1
:1002C000A45D06E10001EC5101E0C3D092D9C1D098
:1002D000F00EA45D02E1B3D9BCD0E8680001E919D1
:1002E0000CE1E868EA1909E1E868EB1906E1A2C047
:1002F000E9F0A3C0EAF0A4C0EBF0E90EE96E000E4D
:10030000EA6EEE500001A21901E0A3D0EE50A3194D
:1003100001E09FD0EE50A41901E09BD001E099D0FC
:100320000001ED6B0001A6510001ED5D01E391D0EC
:10033000BDD9A70FE96E000EEA22EF50E66EE85134
:10034000EA6A600FE96E030EEA22E552E750EF6EAB
:10035000E82BE92B000EEA23EB23200EE85D01E1F8
:10036000E4D80001ED2BDED7E0D80001E969EA69A5
:10037000EB6970D00001070E606FA2C061F0A3C0EE
:1003800062F0A4C063F0A5C064F0A6C065F0A2C08E
:10039000F6FFA3C0F7FFA4C0F8FF0001ED6B00015A
:1003A000A6510001ED5D14E2F00E0001A45D0AE12A
:1003B000A2510001ED25A96EA66AA68084D9A8CF16
:1003C000EFFF04D071D97FD9F5CFEFFFED2BE7D741
:1003D00004010CBF44D00001400E33D041D839D0C5
:1003E00000010C0E606F010E616F626F160EF66EEB
:1003F000100EF76E0900F5CF63F00A00F5CF64F038
:10040000060E656F100E666F676B686B0D0E696F79
:10041000600E6A6F400E6B6F6C6B6D6B6E6B6F690D
:10042000706971697269736B74697569766B7769E4
:10043000786979697A697B697C6904010CBF0FD09E
:100440000001FA6F0001600EF86F000EF96F7CEC8E
:1004500006F00001E56B120050D80001E56B1200B8
:10046000F66A100EF76EF86A0001EE6B400E00019E
:10047000EE5D0DE209000001EE51EA6A600FE96EDF
:10048000030EEA22F5CFEFFF0001EE2BEFD70301B9
:100490000D0E666F0301600E676FF66A100EF76E41
:1004A000F86A940EA66E0001B50EF46FE8D83F0E00
:1004B000F66E100EF76EF86A00013F0EEE6F000147
:1004C000EE51EA6A600FE96E030EEA22EF50F56E14
:1004D0000C000001EE511F0B07E1E4D8A40EA66E3C
:1004E0000001B50EF46FCBD80A000001EE5101E116
:1004F00003D00001EE07E3D7120004D8FF0000008C
:10050000000012000301B869B9690301B8C300F023
:10051000B9C301F0B807000EB95B0050011004E048
:100520006D926D6ABFD8F1D712000001F06BE8C080
:1005300000F0016A026A00500001E95DF66E0150A8
:100540000001EA59F76E02500001EB59F86E1F0ED8
:10055000F6140001F16FE00EF6160001EF6B200EAD
:100560000001EF5D1FE20001F15115E10001E851CA
:100570000FE00001F051EA6A600FE96E030EEA2213
:10058000EF50F56E0D000001F02B0001E80702D0DE
:10059000F5680D0004D0F5680D000001F1070001B9
:1005A000EF2BDDD70A00A40EA66E0001B50EF46F86
:1005B00066D80001EF6B0001E8510001EF5D18E221
:1005C0000001F0510001EF25EA6A600FE96E030EA9
:1005D000EA22EF50E66E0001EF51EA6A600FE96E21
:1005E000030EEA22E552E750EF6E0001EF2BE3D74E
:1005F0001200A2C0F6FFA3C0F7FFA4C0F8FF0001DD
:10060000F26B0001A6510001F25D18E23A0E000102
:10061000D880A6550001F225EA6AA70FE96E000E00
:10062000EA22EF50F56E0C00C40EA66E0001B50E66
:10063000F46F25D809000001F22BE3D71200000166
:10064000F36B0001A6510001F35D18E20001A25115
:100650000001F325A96E3A0E0001D880A6550001CD
:10066000F325EA6AA70FE96E000EEA22EF50A86EA2
:10067000040EA66E23D80001F32BE3D71200F29EDE
:10068000B50E0001F45D05E0030ED36E0300FED746
:10069000FF00550EA76EAA0EA76EA682A6B2FED7C1
:1006A000A694120004001200090012003A0E000184
:1006B000D880A6550001ED25EA6A12000001B50EAA
:1006C000F46F3FEF03F0F2DF660FE96E000EEA22EF
:1006D00012006C5033E16896040100513C0BE84273
:1006E000E8420D0829E1180E021924E1040E03194D
:1006F00021E1100E026F040E036F0301A96BA951D3
:10070000006E016A080E005C000E015813E2A95148
:10071000EA6A180FE96E040EEA22EF50E66EA9515C
:10072000EA6A100FE96E040EEA22E552E750EF6E16
:10073000A92BE5D70AD8010C3AD8010C040E6C5C41
:1007400003E168964BD8010C000C040104BF046B54
:100750000301A86BA06BA16BA66BA76BC5EC04F0A3
:100760000301AA6BAA51006E016A010E005C000E23
:1007700001581BE2A15119E1AA51F66EF76AD8900F
:10078000F636F736BE0EF6260F0EF7220900F5CF25
:1007900000F00800F5CF01F004D001C0FAFF0050CE
:1007A000F96EFBDF0301AA2BDDD76DEF04F0020E1B
:1007B0000301A05D0EE178D80401180E026F040E4B
:1007C000036F080E016F00BD02D0C80E05D0880E61
:1007D00003D0BCD8CBD88C0E006F1200040E0301DE
:1007E000B45D09E112C46EFF6E50000802E2050E0E
:1007F00001D0030EB46F0301A00510E111D8020E61
:100800000301A85D03E10401840E06D0040104BDC8
:1008100002D0C80E01D0880E046F1200A6EF04F0BB
:100820000301080EA65D000EA7590DE2A6C3ABF3A7
:10083000A7C3ACF3A85102E1010E03D0A80506E15D
:10084000020EA86F03D0080EAB6FAC6B04010493CB
:1008500004910301AC5104010413ABC305F403017B
:10086000AB51A65DA66FAC51A759A76F180EA46F28
:10087000040EA56F0301B5A30ED00301AB51AC115B
:1008800012E0A2C3F6FFA3C3F7FF0800F55063D838
:10089000AB07AC5BF2D70301AB51AC1104E06ED8EF
:1008A000AB07AC5BF8D71200030E0401001503017F
:1008B000AE6F01C4ADF3A651AD25A66FA751AE2111
:1008C000A76F180EA26F040EA36FAD51AE1104E016
:1008D00055D8AD07AE5BF9D712006D980301A15151
:1008E00005E144D8840E006F04011DD0040110AF4F
:1008F0001CD00301A6510401165D0301A751040198
:10090000175904E216C4A6F317C4A7F389DF03013D
:10091000010EA06F2BD8800E006F0401180E066F19
:10092000040E076FC80E046F12000301020EA06FC1
:100930000401056BC80E046F0401080E016F180E48
:10094000026F040E036FC80E006F12000301A06B4C
:100950000401046B1200A4C3E9FFA5C3EAFFEF6E14
:10096000A42B000EA523A22BA32312000401080E22
:10097000016F100E026F040E036F1200A2C3E9FF95
:10098000A3C3EAFFEF50ABEF04F004011051600B7A
:10099000E842E842E842E842E842000901E0120089
:1009A0001151070A40E00B0A3EE0070A33E0010A52
:1009B00023E00B0A1FE0020A1DE0030A19E0080AFF
:1009C00010E0010A0CE00F0A08E0030A01E012003F
:1009D0000DD90301040EB46F120014EF05F04BEFB4
:1009E00005F004D90301B60EA26F030EA36F0CD05D
:1009F0006AEF05F09AEF05F0FDD80301A26FA36B33
:100A0000B70EA227030EA3230301B5930301010E22
:100A1000A66F1200EFD8EA6AB70FE96E030EEA225A
:100A200012C4EFFF12001200800E0401105D32E1CB
:100A30001351030A1FE0010A0AE0030A29E1D6D88C
:100A40000301FE0EA26F0E0EA36F120E1ED0B4D8BD
:100A5000B40EF6260F0EC2D8020E0301F76AA225C5
:100A6000F66EA351F7220900F5CFA6F30A00F5CFE1
:100A7000A7F30ED0A1D8B80EF6260F0EAFD8A2C39A
:100A8000F6FFA3C3F7FF0800F5500301A66FA76B9D
:100A90000301B5831200AAD8716A726A736A746A14
:100AA000756A766A776A0301B36F0301B70EB16F97
:100AB000030EB26F73EC07F012C4B6F304011251C7
:100AC00004E10301050EB46F12000301060EB46FBA
:100AD00067EF06F00401186B196B040110511F0B2E
:100AE000020A0DE0030A09E0010A16E17FD80301BA
:100AF000B5A112D0040118830FD078D80DD050D8EA
:100B000001E0010E62D8A4C3E9FFEA6EEF50040BC6
:100B100003E00401010E186F0301A1050AE10301BE
:100B2000180EA26F040EA36F0301B5930301020E0A
:100B3000A66F1200040112050EE110511F0B0009EF
:100B40000AE154D8030E0401115D03E10301B581EC
:100B500002D00301B5910401125121E110511F0B84
:100B600002081DE114510F0B000919E019D801E02A
:100B7000010E2BD8030E0401115D02E1840E03D097
:100B800014AF07D0400EA4C3E9FFA5C3EAFFEF6E80
:100B90001200880EA4C3E9FFA5C3EAFFEF6E12009E
:100BA00029D80F0B080DF350016A000F006E040ED8
:100BB00001221451800B120019D804011251F66E53
:100BC000F76AD890F636F7361200040DF350030199
:100BD0000024A46F000E0120A56F1200F722090067
:100BE000F5CFA2F30A00F5CFA3F312000301010E23
:100BF000A16F1200FBDF0401145112000401105117
:100C00001F0B010801E01200145101E01200060E52
:100C1000115D24E11351230A1FE0010A0DE0030ACC
:100C20001BE1BDD80301B60505E10301220EA26F49
:100C30000F0EA36F090E0DD0B2D80301B60505E162
:100C40000301970EA26F0F0EA36F0301B60504E117
:100C50001D0E0301A66FA76B0301B583040110519C
:100C6000600BE842E842E842E842E842010801E05D
:100C7000120011510B0A25E0080A17E0090A11E0D9
:100C8000080A09E00B0A05E0080A01E0120065EF16
:100C900006F066EF06F083D80301F50EA26F000E92
:100CA00009D07DD813C4F5F0120079D80301F60EEF
:100CB000A26F000EA36F0301B5930301010EA66F8F
:100CC00012006DD812C4F6F01200120012000001DA
:100CD000F76B1E0E716E0401400E096F200E0A6F35
:100CE000040E0B6F880E086F0401600E0E6F040E69
:100CF0000F6F400E0C6F12000001FA51400802E223
:100D0000400EFA6FFB6BFA51FB5D13E2FB51EA6A8E
:100D1000F825E96EF951EA22EF50E66EFB51EA6AD6
:100D2000600FE96E040EEA22E552E750EF6EFB2BEE
:100D3000EAD7FAC00DF4400E04010C170C7D880EA2
:100D40000C1312000001F76B040108BF25D00951F4
:100D50000001D880FE5502E209C4FEF0F76BFE5197
:100D6000F75D13E2F751EA6A200FE96E040EEA22FA
:100D7000EF50E66EF751EA6AFC25E96EFD51EA2272
:100D8000E552E750EF6EF72BEAD70401400E096FEA
:100D90000817087D880E08130001F751120003019F
:100DA000020EA16F12006DB606D06D6A696A6D867B
:100DB0000301010EB46F0301B40508E16DBA06D05A
:100DC000686A696A69806988020EB46F120003015B
:100DD000B45101E1120068B445D86DB2120068B098
:100DE00058D868B817D868BA44D8030E0301B45D60
:100DF00001E212000301AF6B040EAF5D0AE268A6C8
:100E000008D069EC03F0000901E168960301AF2BFB
:100E1000F3D7120069CFB0F3040E696E68986D8243
:100E2000A19AA08A0300A150200B05E1D050080B25
:100E300002E10300F8D7A09A0301B051691203013F
:100E4000D50EB86F020EB96F0301B8C300F0B9C375
:100E500001F0B807000EB95B0050011002E0040079
:100E6000F3D712006D92699468A402D06894FCD7FD
:100E7000120070A00CD0800E0401005D07E1840E0A
:100E80000401045D03E104018C0E006F7090689A08
:100E900012006A6A686A9F0E6B6E7B0E696E6E6ADC
:100EA000716A726A736A746A756A766A776A160E0C
:100EB000706E68A604D0689652EC03F0FAD76D986D
:100EC000A6EC04F00401080E016F100E026F040E70
:100ED000036F8C0E006F0301B5910301B66B030124
:100EE000030EB46F1200B1C3E9FFB2C3EAFF0301FE
:100EF000B35104E0EE6A0301B307F9D712001201FF
:100F0000000200000008D8043C00010101020001B9
:100F100009022900010100C0320904000002030097
:100F20000000092111010001221D00070581034075
:100F30000001070501034000010403090434034DC7
:100F4000006900630072006F006300680069007050
:100F500000200054006500630068006E006F006CA4
:100F6000006F0067007900200049006E0063002ECA
:100F70000026034800490044002000550053004269
:100F800000200042006F006F0074006C006F006171
:100F9000006400650072000600FF0901A10119014B
:100FA0002940150026FF0075089540810019012988
:100FB000409100C0100F100F390F3D0F710FFC0B47
:100FC000000EF36E00EE00F0080E01D81200EA6089
:100FD00002D0EE6AFCD7F350E9601200EE6AFCD74B
:100FE000FFFFFFFFFFFFFFFFFFFFFFFFFFFFFFFF11
:100FF000FFFFFFFFFFFFFFFFFFFFFFFFFFFFFFFF01
:0610000068EF1EF0120073
:021006000D607B
:06100800F9EF1CF01200DC
:02100E000000E0
:021010001200CC
:021016000001D7
:08101800D9CFE6FFE1CFD9FFBB
:10102000FE0EDB5002010C15106EFE0EDB50105C44
:1010300004E1FE0EDB500E1502E0000E01D0010EA1
:10104000E552E7CFD9FF1200D9CFE6FFE1CFD9FFB4
:10105000FE0EDB5002010B15106EFE0EDB50105C15
:1010600004E1FE0EDB500D1502E0000E01D0010E72
:10107000E552E7CFD9FF1200D9CFE6FFE1CFD9FF84
:10108000FE0EDB5002010E15106EFE0EDB50105CE2
:1010900004E1FE0EDB500C1502E0000E01D0010E43
:1010A000E552E7CFD9FF1200D9CFE6FFE1CFD9FF54
:1010B000FE0EDB5002010D15106EFE0EDB50105CB3
:1010C00004E1FE0EDB500B1502E0000E01D0010E14
:1010D000E552E7CFD9FF1200D9CFE6FFE1CFD9FF24
:1010E000FE0EDB5002010C1502E1000E01D0010ED4
:1010F000E552E7CFD9FF1200D9CFE6FFE1CFD9FF04
:10110000FE0EDB5002010B1502E1000E01D0010EB4
:10111000E552E7CFD9FF1200D9CFE6FFE1CFD9FFE3
:10112000050EE126210EE66E020EE66E200EE66E3C
:10113000E66A02011E51200DF3CF10F0F4CF11F03A
:10114000F3CFE6FFF4CFE6FF19EC1AF0126E060EAD
:10115000E15E12500201215129E1200E216F226F20
:10116000236F030EE66E1E29E66E210EE66E020E5A
:10117000E66E5AEC0DF0E552E552E552E5520201F9
:10118000256B240E356F380E366F250E376F390EEE
:10119000386FA60E396F3A0E3A6F010E3B6F3C6FF7
:1011A000400E3D6F3E6F3F6F500E406F040E1F6F3D
:1011B000DF6A060EDF5C57E2DF50EA6A350FE96E40
:1011C000020EEA22010EEFCFDBFFDB50030BE76ECE
:1011D000020EE7CFDBFFDB50E76E030EE7CFDBFF4E
:1011E000010EDB507C0BE840E8403F0BE76E040E3D
:1011F000E7CFDBFFDBCF10F00F0EE76E1018E8AE85
:1012000002D0103403D0E750D880105407E2040E07
:10121000DB50E009E76E040EE7CFDBFFF70E106E40
:10122000040EDBCFE7FF1050E726040EE7CFDBFF0D
:10123000010EDB50800B800802E1DFCF1FF2DF5090
:10124000EA6A410FE96E020EEA22030EDBCFEFFFDE
:10125000DF50EA6A4D0FE96E020EEA22040EDBCF80
:10126000EFFFDF2AA6D7050EE15C02E2E16AE55254
:10127000E16EE552E7CFD9FF1200D9CFE6FFE1CF0B
:10128000D9FFE652DF6A060EDF5C09E2DF50EA6A48
:10129000350FE96E020EEA22EF9EDF2AF4D7020133
:1012A0001F51EA6A350FE96E020EEA22EF8E210E17
:1012B000E66E020EE66E200EE66EE66A1D51200D09
:1012C000F3CF10F0F4CF11F0F3CFE6FFF4CFE6FF49
:1012D00084EC1AF0126E060EE15E1250E552E552F1
:1012E000E7CFD9FF1200D9CFE6FFE1CFD9FFFD0E3E
:1012F000DBCFE6FFFE0EDBCFE6FFE66A0B0EE66E07
:10130000F7EC19F0E552E552E552E552E552E7CF28
:10131000D9FF12000201010E1C6F7F0EE66E510E06
:10132000E66EE1DFE552E5524DEF0EF002011C6B77
:10133000E66A510EE66ED7DFE552E5524DEF0EF04C
:1013400002011C5101E0F2DF1200D9CFE6FFE1CF2C
:10135000D9FF020EE126DF6A010EF36EFE0EDB50AE
:1013600004E0D890F336E806FCE1F350E76E010E96
:10137000E7CFDBFF02011F51EA6A3B0FE96E020E65
:10138000EA22010EDB50EF1A010EDBCFE6FF1F5100
:10139000EA6A3B0FE96E020EEA22EF50E552E714CB
:1013A00002E07F0EDF6EDFCFE6FFFE0EDB50EA6A63
:1013B000000FE96E020EEA22EF50E66E94DFE5526E
:1013C000E5524DEC0EF0020EE15C02E2E16AE552FC
:1013D000E16EE552E7CFD9FF1200D9CFE6FFE1CFAA
:1013E000D9FFE65202011F51EA6A3B0FE96E020E75
:1013F000EA22EFCFDFFFC00E1015106E3F0EDF1494
:101400001010106F400EDF1402E07F0E01D0000EAE
:10141000E66E5A0EE66E67DFE552E552100EDF14F7
:1014200002E07F0E01D0000EE66E580EE66E5BDF26
:10143000E552E552040EDF1402E07F0E01D0000EEB
:10144000E66E560EE66E4FDFE552E552020EDF14F1
:1014500002E07F0E01D0000EE66E550EE66E43DF11
:10146000E552E552080EDF1402E07F0E01D0000EB7
:10147000E66E570EE66E37DFE552E552010EDF14D9
:1014800002E07F0E01D0000EE66E540EE66E2BDFFA
:10149000E552E552200EDF1402E07F0E01D0000E6F
:1014A000E66E590EE66E1FDFE552E552800EDF1440
:1014B00002E07F0E01D0000EE66E5B0EE66E13DFDB
:1014C000E552E552E552E552E7CFD9FF1200D9CFF8
:1014D000E6FFE1CFD9FF020EE12602011D511E5D9C
:1014E0000DE0AC6B1EC2E6FFE66A0C0EE66EDBECAE
:1014F00019F0E552E552E5521EC21DF21FC220F25C
:10150000DF6A060EDF5C24E2DF50EA6A410FE96E13
:10151000020EEA22EF50E66EDF50EA6A470FE96EEC
:10152000020EEA22E552E750EF6EDF50EA6A4D0FF5
:10153000E96E020EEA22EF50E66EDF50EA6A530FC0
:10154000E96E020EEA22E552E750EF6EDF2AD9D7A4
:1015500002011F51EA6A410FE96E020EEA22EF50C2
:10156000E824E66E010EE66E0C0EE66EDBEC19F07A
:10157000E552E552E55202011F51EA6A4D0FE96E4C
:10158000020EEA22EF50790FE76E010EE7CFDBFF84
:10159000DB507F0803E2DE527F0EDD6E000EF36E3D
:1015A000010EDBCFF4FFF350F45C02E2010EDB6AC4
:1015B000010EDBCFE6FF5C0EE66EE66A0B0EE66E12
:1015C000F7EC19F0E552E552E552E55206DF65DB2E
:1015D000020EE15C02E2E16AE552E16EE552E7CF1C
:1015E000D9FF1200D9CFE6FFE1CFD9FF9BC29CF211
:1015F000FE0EDBCF1FF26BDFE552E7CFD9FF120003
:1016000002010A0508E19B51EA6A5C0FE96E020ECD
:10161000EA22EFCF1EF21D511E5D05E0AC5104E140
:10162000010EAC6F01D0AC6B8CEF08F0E9DF02016A
:10163000AC5101E11DDB4DEF0EF0D9CFE6FFE1CF5C
:10164000D9FFE652FE0EDBCF0AF202010A051EE1C7
:10165000590EE66E020EE66E400EE66EE66A99518F
:10166000400DF3CF10F0F4CF11F0000E1026100E45
:10167000112210C0E6FF11C0E6FF19EC1AF0126E3D
:10168000060EE15E125002019B6BD0DF06DBE552D5
:10169000E552E7CFD9FF1200D9CFE6FFE1CFD9FF5E
:1016A00008C209F2FE0EDBCF08F2F7DAE552E7CF07
:1016B000D9FF1200D9CFE6FFE1CFD9FFE652FE0EE7
:1016C000DB50EA6A350FE96E020EEA22EFCFDFFF48
:1016D000DF90DF92FD0EDB50030BDF12FC0EDBCF41
:1016E00010F0E70EE76E1018E8AE02D0E73402D033
:1016F000E750105C02E2E70E0FD0FC0EDBCF10F0DB
:10170000060EE76E1018E8AE02D0103403D0E75092
:10171000D880105405E2060EF36EFC0EF3CFDBFF0B
:10172000000EDF94DF96DF98DF9ADF9CFC0EDB5023
:10173000090F1F0B040DF350DF12FE0EDB50EA6A97
:10174000350FE96E020EEA22DFCFEFFFFE0EDB500F
:10175000EA6A410FE96E020EEA22FD0EDBCFEFFFCF
:10176000FE0EDB50EA6A4D0FE96E020EEA22FC0E15
:10177000DBCFEFFFFE0EDB50EA6A410FE96E020E8F
:10178000EA22EF50E66EFE0EDB50EA6A470FE96E82
:10179000020EEA22E552E750EF6EFE0EDB50EA6AD7
:1017A0004D0FE96E020EEA22EF50E66EFE0EDB50A0
:1017B000EA6A530FE96E020EEA22E552E750EF6E35
:1017C00086DEE552E552E7CFD9FF1200D9CFE6FF1A
:1017D000E1CFD9FF030EE1260201010E0A6F086B6B
:1017E000096BDF6A040EDF5C17E2EA6ADF34FE0B86
:1017F000EA36E96E0F0EE926020EEA22EE52EF6A91
:10180000EA6ADF34FE0BEA36E96E0F0EE926020EB5
:10181000EA22EF6ADF2AE6D702019A6B9C6B996B8A
:101820009B6B176B186B19691A69A76BA86BA96B6F
:10183000AA6BAB6BAC6BAE6BAF6BA66B1C6B1B6B15
:101840001F6B1D691E6B540E006F550E016F560EF7
:10185000026F570E036F580E046F590E056F5A0E24
:10186000066F5B0E076F3B6B100E3C6F3D6B3E6F60
:101870003F6B406FDF6A040EDF5C18E2DFCFE6FFEC
:10188000B7EC19F0E552F3CF10F0F4CF11F0EA6A9B
:10189000DF34FE0BEA36E96E9E0EE926020EEA22DE
:1018A000F3CFEEFF11C0EDFFDF2AE5D7DF6A140E9C
:1018B000DF5C4BE2DF50F76A380FF66E3B0EF72223
:1018C0000800F550E66EDF500201EA6A9E25E96ED7
:1018D0009F51EA22E552E750EF6EDF50F76A380F6A
:1018E000F66E3B0EF7220800F550E66EDF50EA6A0E
:1018F000A025E96EA151EA22E552E750EF6EDF50D4
:10190000F76A230FF66E3B0EF7220800F550E66EDD
:10191000DF50EA6AA225E96EA351EA22E552E750B8
:10192000EF6EDF50F76A380FF66E3B0EF7220800B5
:10193000F550E66EDF50EA6AA425E96EA551EA2269
:10194000E552E750EF6EDF2AB2D7A7D9010EE66E57
:1019500074DEE5526BDEBBDD030EE15C02E2E16AA0
:10196000E552E16EE552E7CFD9FF12000201A8511E
:1019700000080EE2A82BA851106E116AD8901150E1
:1019800004E6F00E105C000E115802E3800EA86F02
:10199000A95100080EE2A92BA951106E116AD89026
:1019A000115004E6F00E105C000E115802E3800E98
:1019B000A96FA75100080EE2A72BA751106E116A5C
:1019C000D890115004E6F00E105C000E115802E39E
:1019D000800EA76FAA5100080EE2AA2BAA51106E22
:1019E000116AD890115004E6F00E105C000E1158E8
:1019F00002E3800EAA6FAB5100080EE2AB2BAB5195
:101A0000106E116AD890115004E6F00E105C000EB2
:101A1000115802E3800EAB6FAE51000808E2AE2B06
:101A2000370EAE5D04E32D0EAE6F010EAF6FAC51FD
:101A300000080EE2AC2BAC51106E116AD890115018
:101A400004E6F00E105C000E115802E3800EAC6F3D
:101A5000AD5100080EE2AD2BAD51106E116AD89059
:101A6000115004E6F00E105C000E115802E3800ED7
:101A7000AD6FA65101E0A60712007F0E02011E5DA8
:101A800001E01E2B16EF0BF002011E5101E01E07B4
:101A900016EF0BF00201595101E1120059059B5D4F
:101AA00001E29B2B16EF0BF002019B5101E09B071B
:101AB00016EF0BF0D9CFE6FFE1CFD9FF0A0E126E79
:101AC0000C6EFC0EDBCF07F079EC1EF00350300FEC
:101AD000E66EFB0EDBCFF3FFDB06F350106E116AF0
:101AE00010BE1168FD0EDB501024E96EFE0EDB50B7
:101AF0001120EA6EE552E750EF6E0A0E106E0C6E82
:101B0000FC0EDBCF07F079EC1EF0FC0E07C0DBFF0C
:101B100007500008D3E3FB0EDB50E552E7CFD9FFB7
:101B20001200D9CFE6FFE1CFD9FF040EE126030E64
:101B3000DB6A0A0E146E0C6EFC0EDBCF07F079EC3C
:101B40001EF00350300FE66ED9CF10F0DACF11F04F
:101B5000030EDBCFF3FFDB2AF350126E136A12BEC3
:101B6000136810501224E96E11501320EA6EE552EA
:101B7000E750EF6E0A0E106E0C6EFC0EDBCF07F016
:101B800079EC1EF0FC0E07C0DBFF07500008D1E324
:101B9000030EDB06030EDBCF10F0103428E2D9CFA2
:101BA00012F0DACF13F0030EDBCF14F0156A14BE77
:101BB000156812501424E96E13501520EA6EEF5088
:101BC000E66EFB0EDBCF10F0116A10BE1168FD0E41
:101BD000DB501024E96EFE0EDB501120EA6EE55258
:101BE000E750EF6E030EDB06FB0EDB2AD3D7FB0EAE
:101BF000DB50106E040EE15C02E2E16AE552E16E38
:101C00001050E552E7CFD9FF120002010851E96EEA
:101C1000EA6AD890E936EA360F0EE926020EEA2281
:101C2000EE52EFCF10F010C011F0106A0851E96EBB
:101C3000EA6AD890E936EA360F0EE926020EEA2261
:101C4000EF501010176F11C018F21951171902E157
:101C50001A5118190CE017C2E6FF18C2E6FF9DECF6
:101C600019F0E552E55217C219F218C21AF2120021
:101C7000C00E02010F15106E010E1FC2E7FFE752E2
:101C800004E0E846FE0BE706FCE1101002010F6FCE
:101C90001200C00E02010F171200D9CFE6FFE1CFEC
:101CA000D9FF090EE126DE52010EDD6E02011F5141
:101CB000EA6A3B0FE96E020EEA22020EEFCFDBFF6B
:101CC00008515EE1DE52010EDD6EDF6ADFCF10F0FB
:101CD000140EE76E1018E8AE02D0E73402D0E750D9
:101CE000105C1CE2DFCFF6FFF76AF6BEF7680E0E57
:101CF000F6263B0EF7220800F550E66EDFCF10F017
:101D0000116A10BE1168A4511024E96EA55111206A
:101D1000EA6EE552E750EF6EDF2AD8D7DF6ADFCFF1
:101D200010F0080EE76E1018E8AE02D0E73402D0CB
:101D3000E750105C01E3A7D0010EDBCFE6FF020EF7
:101D4000DB50E552E714106E010EDB50105C0FE122
:101D5000DF50E824020F106E116A10BE11680201F4
:101D6000A4511024E96EA5511120EA6EEF9ADF2AE2
:101D7000010EDBCFF3FFF39EF346F3CFDBFFCFD7AC
:101D8000080529E1DF6ADFCF10F0140EE76E1018A6
:101D9000E8AE02D0E73402D0E750105C74E2DFCF47
:101DA000F6FFF76AF6BEF768F90EF6263A0EF72246
:101DB0000800F550E66EDFCF10F0116A10BE116812
:101DC000A4511024E96EA5511120EA6EE552E750A6
:101DD000EF6EDF2AD8D7020E085D29E1DF6ADFCF78
:101DE00010F0140EE76E1018E8AE02D0E73402D0FF
:101DF000E750105C48E2DFCFF6FFF76AF6BEF768FF
:101E0000E40EF6263A0EF7220800F550E66EDFCF14
:101E100010F0116A10BE1168A4511024E96EA5518A
:101E20001120EA6EE552E750EF6EDF2AD8D7030E95
:101E3000085D29E1DF6ADFCF10F0140EE76E10189D
:101E4000E8AE02D0E73402D0E750105C1CE2DFCFEE
:101E5000F6FFF76AF6BEF768CF0EF6263A0EF722BF
:101E60000800F550E66EDFCF10F0116A10BE116861
:101E7000A4511024E96EA5511120EA6EE552E750F5
:101E8000EF6EDF2AD8D702010A512DE1DF6ADFCFDA
:101E900010F0140EE76E1018E8AE02D0E73402D04E
:101EA000E750105C1CE2DFCFF6FFF76AF6BEF7687A
:101EB000BA0EF6263A0EF7220800F550E66EDFCF8E
:101EC00010F0116A10BE1168A0511024E96EA151E2
:101ED0001120EA6EE552E750EF6EDF2AD8D7130ED5
:101EE000E66E1E2971D05B417F0BE76E030EE7CFD4
:101EF000DBFF5A51E00BE838E840106E010E5B152D
:101F0000080DF3501010E76E040EE7CFDBFF1F0E35
:101F10005A15E76E050EE7CFDBFFDF6ADFCF10F063
:101F2000140EE76E1018E8AE02D0E73402D0E75086
:101F3000105C1CE2DFCFF6FFF76AF6BEF768A50E6D
:101F4000F6263A0EF7220800F550E66EDFCF10F0C5
:101F5000116A10BE1168A0511024E96EA151112020
:101F6000EA6EE552E750EF6EDF2AD8D7030EE66E31
:101F7000DB500E0FE66EA0C2E6FFA1C2E6FF9ADDBF
:101F8000E552E552E552E552060EE66E040EDB28F8
:101F9000E66EA0C2E6FFA1C2E6FF8CDDE552E55287
:101FA000E552E552090EE66E050EDB28E66EA0C28C
:101FB000E6FFA1C2E6FF7EDDE552E552E552E552BD
:101FC000130EE66E02019B29E66EA0C2E6FFA1C2D7
:101FD000E6FF70DDE552E552E552E552DF6ADFCFFC
:101FE00010F0140EE76E1018E8AE02D0E73402D0FD
:101FF000E750105C34E2DFCF10F0116A10BE1168B8
:1020000002019E511024E96E9F511120EA6E200EAC
:10201000EF6EDFCFE9FFEA6AE9BEEA68210EE92642
:10202000020EEA22EF50E66EDFCF10F0116A10BE0A
:102030001168A2511024E96EA3511120EA6EE552F5
:10204000E750EF6EDFCFE9FFEA6AE9BEEA68210EEA
:10205000E926020EEA22EF5002E0DF2AC0D7DFCFE6
:1020600010F0140EE76E1018E8AE02D0E73402D07C
:10207000E750105C1DE2DFCF10F0116A10BE11684E
:1020800002019E511024E96E9F511120EA6E200E2C
:10209000EF6EDFCF10F0116A10BE1168A25110244C
:1020A000E96EA3511120EA6E200EEF6EDF2AD7D71A
:1020B00002011C5129E0DF6ADFCF10F0040EE76E49
:1020C0001018E8AE02D0E73402D0E750105C1CE2F2
:1020D000DFCFF6FFF76AF6BEF768A00EF6263A0ED7
:1020E000F7220800F550E66EDFCF10F0116A10BE3F
:1020F00011689E511024E96E9F511120EA6EE5523D
:10210000E750EF6EDF2AD8D7020E085D0FE11F51AE
:10211000EA6A410FE96E020EEA22060EEFCFDBFFFC
:102120001F51EA6A4D0FE96E020E0ED02051EA6A85
:10213000470FE96E020EEA22060EEFCFDBFF2051B9
:10214000EA6A530FE96E020EEA22070EEFCFDBFFB9
:10215000DB50E76E080EE7CFDBFF060EEA6A9E252E
:10216000E96E9F51EA22430EEF6E070EEA6A9E2542
:10217000E96E9F51EA22480EEF6E060EDB50310FDA
:10218000E66E080EEA6A9E25E96E9F51EA22E55244
:10219000E750EF6E070EDB5008E10B0EEA6A9E2552
:1021A000E96E9F51EA22200E15D0070EDBCF10F00A
:1021B000000EE76E1018E8AE02D0103403D0E750DE
:1021C000D880105409E20B0EEA6A9E25E96E9F51F1
:1021D000EA222B0EEF6E0ED00B0EEA6A9E25E96EF8
:1021E0009F51EA222D0EEF6E070EDB50FF0D080EF9
:1021F000F3CFDBFF0C0EE66E080EDBCFE6FF9EC2D0
:10220000E6FF9FC2E6FF8DDCE552E552E552E5525E
:1022100002011D511E5D1DE0100EDF6EDFCF10F0BC
:10222000140EE76E1018E8AE02D0E73402D0E75083
:10223000105C0FE2DFCF10F0116A10BE11689E51E2
:102240001024E96E9F511120EA6E2A0EEF6EDF2AEC
:10225000E5D7D7EC19F0090EE15C02E2E16AE5523C
:10226000E16EE552E7CFD9FF12000201085152E1B9
:102270000C51109F800B01E0108F0C51109D400BF2
:1022800001E0108D0B510F9D400B01E00F8D1D5192
:102290001E5D08E00F0EAC15106E080E105C02E219
:1022A000F8DC01D0E5DCC00E02011015106E1F51E4
:1022B000EA6A3B0FE96E020EEA22EF503F0B101064
:1022C000106F1F0EA85D01E281D00F0EA815106ED1
:1022D000080E105C10E3C00E1015116E0C1D106E70
:1022E0001F51EA6A3B0FE96E020EEA22EF5010140A
:1022F0003F0B11100DD0C00E1015106E1F51EA6A61
:102300003B0FE96E020EEA22EF500C113F0B10104A
:10231000106F5CD0080512E10CC212F2C00E0B1552
:10232000106E010E1FC2E7FFE75204E0E846FE0B05
:10233000E706FCE110100201116F48D0020E085DA3
:102340003EE1C00E0C15136E1F51EA6A4D0FE96E87
:10235000020EEA22EFCF11F0000EE76E1118E8AE80
:1023600002D0113403D0E750D880115402E3000E9C
:1023700001D0010E106E1F51EA6A410FE96E020E84
:10238000EA22EF50E8241010126E010E125204E0FF
:10239000E846FE0B1206FCE113100201146FC00E9A
:1023A0000B15106E010E1FC2E7FFE75204E0E8466E
:1023B000FE0BE706FCE110100201136F07D0030EBD
:1023C000085D04E10CC216F20BC215F2A6511DE025
:1023D0000F0EA615106E080E105C0CE30851E96E86
:1023E000EA6AD890E936EA360F0EE926020EEA22AA
:1023F000EF8C0BD00851E96EEA6AD890E936EA36DC
:102400000F0EE926020EEA22EF9C05EF0EF0010EF8
:10241000E66E0CEC08F0E552000908E0E66AA5EC6F
:1024200009F0E5520201010EA86F10D0010EE66E10
:102430003CEC08F0E552000909E01F0E0201A85D1E
:1024400005E3A86BE66AA5EC09F0E552020EE66E1C
:102450000CEC08F0E552000909E0010EE66EA5EC6F
:1024600009F0E5520201010EA86F11D0020EE66ECE
:102470003CEC08F0E55200090AE01F0E0201A85DDD
:1024800006E3A86B010EE66EA5EC09F0E552040E1A
:10249000E66E0CEC08F0E552000909E0020EE66E6B
:1024A000A5EC09F0E5520201010EA86F11D0040E4F
:1024B000E66E3CEC08F0E55200090AE01F0E02014E
:1024C000A85D06E3A86B020EE66EA5EC09F0E552E6
:1024D000080EE66E0CEC08F0E552000909E0030E68
:1024E000E66EA5EC09F0E5520201010EA86F11D0CD
:1024F000080EE66E3CEC08F0E55200090AE01F0EFB
:102500000201A85D06E3A86B030EE66EA5EC09F0D8
:10251000E552100EE66E0CEC08F0E552000909E0F9
:10252000040EE66EA5EC09F0E5520201010EA86F5B
:1025300011D0100EE66E3CEC08F0E55200090AE0FE
:102540001F0E0201A85D06E3A86B040EE66EA5EC63
:1025500009F0E552200EE66E0CEC08F0E552000999
:1025600009E0050EE66EA5EC09F0E5520201010E48
:10257000A86F11D0200EE66E3CEC08F0E552000981
:102580000AE01F0E0201A85D06E3A86B050EE66EC9
:10259000A5EC09F0E552010EE66E24EC08F0E552D8
:1025A00000090AE0E66AF2EC0AF0E552A0EC09F054
:1025B0000201010EAD6F12D0010EE66E7CEC08F048
:1025C000E55200090BE04C0E0201AD5D07E3020E7F
:1025D000E66E4CEC0BF0E5520201AD6B020EE66EBE
:1025E00024EC08F0E55200090BE0010EE66EF2EC77
:1025F0000AF0E552A0EC09F00201010EAD6F12D015
:10260000020EE66E7CEC08F0E55200090BE04C0E81
:102610000201AD5D07E3020EE66E4CEC0BF0E552F5
:102620000201AD6B040EE66E24EC08F0E5520009E1
:102630000BE0020EE66EF2EC0AF0E552A0EC09F0B7
:102640000201010EAD6F12D0040EE66E7CEC08F0B4
:10265000E55200090BE04C0E0201AD5D07E3020EEE
:10266000E66E4CEC0BF0E5520201AD6B080EE66E27
:1026700024EC08F0E55200090BE0030EE66EF2ECE4
:102680000AF0E552A0EC09F00201010EAD6F12D084
:10269000080EE66E7CEC08F0E55200090BE04C0EEB
:1026A0000201AD5D07E3020EE66E4CEC0BF0E55265
:1026B0000201AD6B100EE66E24EC08F0E552000945
:1026C0000BE0040EE66EF2EC0AF0E552A0EC09F025
:1026D0000201010EAD6F12D0100EE66E7CEC08F018
:1026E000E55200090BE04C0E0201AD5D07E3020E5E
:1026F000E66E4CEC0BF0E5520201AD6B200EE66E7F
:1027000024EC08F0E55200090BE0050EE66EF2EC51
:102710000AF0E552A0EC09F00201010EAD6F12D0F3
:10272000200EE66E7CEC08F0E55200090BE04C0E42
:102730000201AD5D07E3020EE66E4CEC0BF0E552D4
:102740000201AD6B400EE66E24EC08F0E552000984
:1027500004E00201010EAA6F17D0400EE66E7CEC79
:1027600008F0E552000907E04C0E0201AA5D03E300
:102770008AEC09F007D0400EE66E54EC08F0E55202
:10278000000902E00201AA6B400EE66E24EC08F09C
:10279000E55200090BE002011B1D7F0B1B6FE66E6B
:1027A000500EE66E73EC09F0E552E552800EE66ECF
:1027B00024EC08F0E552000915E002011D511E5DF0
:1027C0000BE01DC21EF29CC29BF200EC0BF020C27B
:1027D0001FF24DEC0EF002D0A0EC09F00201010E48
:1027E000AB6F1BD0800EE66E7CEC08F0E552000962
:1027F0000BE04C0E0201AB5D07E3AB6B010EE66E26
:102800004CEC0BF0E55209D0800EE66E54EC08F06B
:10281000E552000902E00201AB6B02010A5141E1FD
:10282000800EE66E0CEC08F0E552000904E00201AF
:10283000010EAE6F15D0800EE66E3CEC08F0E5524E
:10284000000903E00201AE6B0DD0800EE66E6CEC69
:1028500008F0E552000906E00201AF5103E0AF6B5A
:102860003DEC0DF0400EE66E0CEC08F0E552000970
:1028700004E00201010EAE6F12D0400EE66E3CEC99
:1028800008F0E552000942E1400EE66E6CEC08F0FB
:10289000E55200094BE00201AF5148E0AF6B44EF55
:1028A0000DF0800EE66E0CEC08F0E552000904E035
:1028B0000201010EAE6F15D0800EE66E3CEC08F002
:1028C000E552000903E00201AE6B0DD0800EE66E0A
:1028D0006CEC08F0E552000906E00201AF5103E09C
:1028E000AF6B4AEC0DF0400EE66E0CEC08F0E552D2
:1028F000000905E00201010EAE6F54EF0DF0400E2D
:10290000E66E3CEC08F0E552000903E00201AE6B14
:102910001200400EE66E6CEC08F0E552000906E08D
:102920000201AF5103E0AF6B54EC0DF01200D9CFB0
:10293000E6FFE1CFD9FFE652020159519B5D1CE24F
:102940005951000819E29B29DF6E5951DF5C13E2EF
:10295000DF50EA6A5C0FE96E020EEA22EF50E66E83
:10296000DF04EA6A5C0FE96E020EEA22E552E750E4
:10297000EF6EDF2AEAD75907E552E552E7CFD9FFD4
:102980001200800EE66E24EC08F0E552000904E027
:10299000E66A4CEC0BF0E552010EE66E24EC08F012
:1029A000E552000906E0E66AF2EC0AF0E552A0EC16
:1029B00009F0020EE66E24EC08F0E552000907E08B
:1029C000010EE66EF2EC0AF0E552A0EC09F0040EFE
:1029D000E66E24EC08F0E552000907E0020EE66E10
:1029E000F2EC0AF0E552A0EC09F0080EE66E24ECD9
:1029F00008F0E552000907E0030EE66EF2EC0AF07B
:102A0000E552A0EC09F0100EE66E24EC08F0E55259
:102A1000000907E0040EE66EF2EC0AF0E552A0ECC5
:102A200009F0200EE66E24EC08F0E552000907E0FC
:102A3000050EE66EF2EC0AF0E552A0EC09F0010E8C
:102A4000E66E0CEC08F0E552000907E0010E020109
:102A50000A19E66E1DEC0BF0E552020EE66E0CEC68
:102A600008F0E552000905E0020EE66E4CEC0BF0B2
:102A7000E552040EE66E0CEC08F0E5520009080E73
:102A8000E66E0CEC08F0E5520009100EE66E0CEC58
:102A900008F0E552000906E002010A0503E147DFFC
:102AA00016EC0BF0200EE66E0CEC08F0E552000977
:102AB0000CE002010A0509E19BC29DF2030EE66EDD
:102AC0004CEC0BF0E5524DEC0EF0400EE66E24ECB3
:102AD00008F0E552000904E00201010EA76F1AD0C8
:102AE000400EE66E7CEC08F0E55200090AE04C0E60
:102AF0000201A75D06E33DEC09F00201500EA66F4E
:102B000008D0400EE66E54EC08F0E552000902E0F1
:102B10000201A76B02010A5144E1800EE66E0CEC43
:102B200008F0E552000904E00201010EAE6F15D075
:102B3000800EE66E3CEC08F0E552000903E002016D
:102B4000AE6B0DD0800EE66E6CEC08F0E55200091D
:102B500006E00201AF5103E0AF6B3DEC0DF0400E1B
:102B6000E66E0CEC08F0E552000904E00201010EEB
:102B7000AE6F15D0400EE66E3CEC08F0E552000951
:102B800003E00201AE6B1200400EE66E6CEC08F042
:102B9000E552000928E00201AF5125E0AF6B44EF98
:102BA0000DF0800EE66E0CEC08F0E55200090AE02C
:102BB0001F0E0201995D06E2992B0AC2E6FF1DEC89
:102BC0000BF0E552400EE66E0CEC08F0E552000901
:102BD0000AE002019951000806E299070AC2E6FFDD
:102BE0001DEC0BF0E5521200800EE66E24EC08F0AE
:102BF000E552000905E009C2E6FF4CEC0BF0E55296
:102C0000010EE66E24EC08F0E552000904E0020132
:102C10001F6B67EC0AF0020EE66E24EC08F0E5523A
:102C2000000905E00201010E1F6F67EC0AF0040EB7
:102C3000E66E24EC08F0E552000905E00201020E00
:102C40001F6F67EC0AF0080EE66E24EC08F0E55200
:102C5000000905E00201030E1F6F67EC0AF0100E79
:102C6000E66E24EC08F0E552000905E00201040ECE
:102C70001F6F67EC0AF0200EE66E24EC08F0E552B8
:102C8000000905E00201050E1F6F67EC0AF0010E56
:102C9000E66E0CEC08F0E552000909E0E66AE66A27
:102CA0001FC2E6FF5AEC0BF0E552E552E552020E68
:102CB000E66E0CEC08F0E55200090AE0050EE66E3F
:102CC000E66A1FC2E6FF5AEC0BF0E552E552E55208
:102CD000040EE66E0CEC08F0E55200090AE0E66A24
:102CE000010EE66E1FC2E6FF5AEC0BF0E552E5520C
:102CF000E552080EE66E0CEC08F0E55200090BE018
:102D0000050EE66E010EE66E1FC2E6FF5AEC0BF0F2
:102D1000E552E552E552100EE66E0CEC08F0E55275
:102D200000090AE0E66A020EE66E1FC2E6FF5AECF0
:102D30000BF0E552E552E552200EE66E0CEC08F081
:102D4000E55200090BE0050EE66E020EE66E1FC2AC
:102D5000E6FF5AEC0BF0E552E552E552400EE66E06
:102D600024EC08F0E552000904E00201010EA76F0F
:102D70001AD0400EE66E7CEC08F0E55200090AE03D
:102D80004C0E0201A75D06E33DEC09F00201500E76
:102D9000A66F08D0400EE66E54EC08F0E55200092C
:102DA00002E00201A76B800EE66E0CEC08F0E55223
:102DB000000918E002011F51EA6A4D0FE96E020E88
:102DC000EA22EF28E66E1F51EA6A410FE96E020E11
:102DD000EA22EF50E66E1FC2E6FF5AEC0BF0E55216
:102DE000E552E552400EE66E0CEC08F0E5520009A3
:102DF00018E002011F51EA6A4D0FE96E020EEA2245
:102E0000EF04E66E1F51EA6A410FE96E020EEA22F4
:102E1000EF50E66E1FC2E6FF5AEC0BF0E552E552AA
:102E2000E5521200D9CFE6FFE1CFD9FFE652800E7E
:102E3000E66E24EC08F0E552000905E0010EE66EAE
:102E40004CEC0BF0E552800EE66E0CEC08F0E5520F
:102E5000000904E00201010EAE6F15D0800EE66E8F
:102E60003CEC08F0E552000903E00201AE6B0DD026
:102E7000800EE66E6CEC08F0E552000906E00201F7
:102E8000AF5103E0AF6B4AEC0DF0400EE66E0CEC78
:102E900008F0E552000904E00201010EAE6F15D002
:102EA000400EE66E3CEC08F0E552000903E002013A
:102EB000AE6B0DD0400EE66E6CEC08F0E5520009EA
:102EC00006E00201AF5103E0AF6B54EC0DF0400E91
:102ED000E66E24EC08F0E552000929E002019B515E
:102EE000EA6A5C0FE96E020EEA22EFCFDFFF9D5126
:102EF000EA6A5C0FE96E020EEA22EF50E66E9B5121
:102F0000EA6A5C0FE96E020EEA22E552E750EF6EC4
:102F10009D51EA6A5C0FE96E020EEA22DFCFEFFFF5
:102F20009DC29BF2010EE66E4CEC0BF0E552E552B1
:102F3000E552E7CFD9FF1200D9CFE6FFE1CFD9FFA5
:102F4000020EE12642EC19F0F3CFDEFFF4CFDDFFF5
:102F5000DECF10F0DDCF11F0105002010B6FDECF8D
:102F600010F0DDCF11F011C010F0116A10500C6F8D
:102F7000085103E107EC12F00DD0080502E101DD74
:102F800009D0020E085D02E12FDE04D0030E085DB9
:102F900001E148DF35EC11F00BC20DF20CC20EF26C
:102FA000020EE15C02E2E16AE552E16EE552E7CF32
:042FB000D9FF120033
:0C2FB400D9CFE6FFE1CFD9FFFE0EDBCF46
:102FC000E6FFEDEC1DF0E552E552E7CFD9FF120028
:102FD000D9CFE6FFE1CFD9FFE652080EDF6E898434
:102FE00089948992FD0EDBBE02D0899601D0898634
:102FF000DBCFF3FFF39EF346F3CFDBFF8982DF06DF
:10300000F0E1080EDF6E8992FE0EDBBE02D08996DB
:1030100001D08986DBCFF3FFF39EF346F3CFDBFFCE
:103020008982DF06F0E18984100EDF6EDF5002E056
:10303000DF06FCD7899489868982E552E552E7CF7D
:10304000D9FF1200D9CFE6FFE1CFD9FF050EE12667
:10305000030EDB6ADE52010EDD6EDF6A080EDF5CF6
:1030600022E2DFCFE6FFF9D8E552050EF36E020E3D
:10307000F3CFDBFFDB5003E0020EDB06FBD784A2BD
:1030800009D0030EDBCFE7FF010EDB50E712030E82
:10309000E7CFDBFF010EDBCFF3FFF39EF346F3CF69
:1030A000DBFFDF2ADBD7040EDB6ADE52010EDD6EAA
:1030B000080EDF6E100EDF5C22E2DFCFE6FFCDD818
:1030C000E552050EF36E020EF3CFDBFFDB5003E09B
:1030D000020EDB06FBD784A209D0040EDBCFE7FF8C
:1030E000010EDB50E712040EE7CFDBFF010EDBCF52
:1030F000F3FFF39EF346F3CFDBFFDF2ADBD70101BB
:103100004B6B01014A6BD950030FE96EDACFEAFF2E
:10311000EF50010B02E101014B85D950030FE96E1D
:10312000DACFEAFFEF50020B02E101014B83D950E5
:10313000030FE96EDACFEAFFEF50040B02E1010161
:103140004B81D950030FE96EDACFEAFFEF50080B3D
:1031500002E101014B87D950030FE96EDACFEAFF94
:10316000EF50100B02E101014B8FD950030FE96EB4
:10317000DACFEAFFEF50200B02E101014B89D95071
:10318000030FE96EDACFEAFFEF50400B02E10101D5
:103190004B8DD950030FE96EDACFEAFFEF50800B69
:1031A00002E101014B8BD950040FE96EDACFEAFF3F
:1031B000EF50010B02E101014A85D950040FE96E7D
:1031C000DACFEAFFEF50020B02E101014A83D95046
:1031D000040FE96EDACFEAFFEF50040B02E10101C0
:1031E0004A81D950040FE96EDACFEAFFEF50080B9D
:1031F00002E101014A87D950040FE96EDACFEAFFF4
:10320000EF50100B02E101014A8FD950040FE96E13
:10321000DACFEAFFEF50200B02E101014A89D950D1
:10322000040FE96EDACFEAFFEF50400B02E1010133
:103230004A8DD950040FE96EDACFEAFFEF50800BC8
:1032400002E101014A8B050EE15C02E2E16AE5520E
:10325000E16EE552E7CFD9FF1200D9CFE6FFE1CF0B
:10326000D9FF8998899A8D908990FE0EDBB0898864
:10327000DBB2898ADBB48D80DBB68980E552E7CF8B
:10328000D9FF1200D9CFE6FFE1CFD9FF020EE12628
:10329000126A01014B511210DE6E4AC1DDFFDECF12
:1032A00010F0DDCF11F010C0F3FF11C0F4FF020EDB
:1032B000E15C02E2E16AE552E16EE552E7CFD9FF57
:1032C0001200D9CFE6FFE1CFD9FF020EE126DF6A77
:1032D000010148B1DF8E48B3DF8C48B5DF8A48B7BB
:1032E000DF8848B9DF8648BBDF8448BDDF8248BF3E
:1032F000DF80010EDB6A010149B1DB8E49B3DB8C53
:1033000049B5DB8A49B7DB8849B9DB8649BBDB8431
:1033100049BDDB8249BFDB80DFCFE6FFDBCFE6FFC5
:1033200057DEE552E552020EE15C02E2E16AE55247
:10333000E16EE552E7CFD9FF1200D9CFE6FFE1CF2A
:10334000D9FFFE0EDBCF11F011C010F011500101BA
:10335000486FFF0EE76EFD0EDBCF10F0E750101642
:10336000116A10C049F1E552E7CFD9FF1200D9CF59
:10337000E6FFE1CFD9FFFE0EDB50140DF3CF10F0C6
:10338000F4CF11F0B00E1026010E112210C0F3FF81
:1033900011C0F4FFE552E7CFD9FF1200D9CFE6FF05
:1033A00018840101AF6BE552E7CFD9FF12001884F2
:1033B0000101AF6B1200D9CFE6FFE1CFD9FFFD0EBF
:1033C000DB500F0B106EFE0EDB500F0B100DF35089
:1033D0001010E66EEDEC1DF0E552FC0EDBCFE6FFC3
:1033E000EDEC1DF0E552E552E7CFD9FF1200D9CF41
:1033F000E6FFE1CFD9FFFD0EDB500F0B106EFE0E86
:10340000DB500F0B100DF3501010E66EEDEC1DF0BD
:10341000E552FC0EDBCFE6FFEDEC1DF0E552FB0EB6
:10342000DBCFE6FFEDEC1DF0E552E552E7CFD9FF2B
:103430001200D9CFE6FFE1CFD9FF040EE126FE0E40
:10344000DBCF11F011380F0B106E010E10C0DBFF37
:10345000D950FD0FE96EFF0EDA20EA6EEE520F0E24
:10346000ED16DF6AFD0EDBCF06F0FE0EDBCF07F0B8
:10347000020E06C0DBFF030E07C0DBFFDFCF10F03C
:10348000FB0EDBCF11F0FC0EDBCF12F01150105C05
:10349000000E12542FE2010EDB50106E116A0C0E5A
:1034A000D89010361136E806FBE1000E1026490EC2
:1034B0001122020EDB501024F66E030EDB50112099
:1034C000F76E0800F550E66EDF50E76EF90EDBCFC1
:1034D000E9FFFA0EDBCFEAFFE750E926000EEA2209
:1034E000E552E750EF6EDF2A020EDB2A030EC6E339
:1034F000DB2AC4D7040EE15C02E2E16AE552E16E28
:10350000E552E7CFD9FF1200D9CFE6FFE1CFD9FFCF
:10351000080EE126FE0EDBCF11F011380F0B106EF6
:10352000010E10C0DBFFFD0EDBCF10F0FE0EDBCF77
:1035300011F0FF0E10160F0E1116020E10C0DBFF59
:10354000030E11C0DBFF020EDBCF10F0030EDBCF4A
:1035500011F0C00E1016FF0E1116040E10C0DBFF86
:10356000050E11C0DBFFDF6A400EDF5C29E2010EB1
:10357000DB50106E116A0C0ED89010361136E8062A
:10358000FBE1000E1026490E1122040EDB50102420
:10359000F66E050EDB501120F76E0800F550E66E52
:1035A000DF50EA6A020FE96E010EEA22E552E750A7
:1035B000EF6EDF2A040EDB2A050ED6E3DB2AD4D712
:1035C000FD0EDBCF10F0FE0EDBCF11F0C00E10169B
:1035D000FF0E1116040E10C0DBFF050E11C0DBFF3D
:1035E000FD0EDBCF12F0FE0EDBCF13F0040EDB502E
:1035F000125C106E050EDB501358116E060E10C0D3
:10360000DBFF070E11C0DBFFDF6ADFCF10F0FB0E20
:10361000DBCF11F0FC0EDBCF12F01150105C000E6E
:10362000125422E2DF50E76EF90EDBCFE9FFFA0E0B
:10363000DBCFEAFFE750E926000EEA22EF50E66E04
:10364000060EDBCFE9FF070EDBCFEAFF020EE9260D
:10365000010EEA22E552E750EF6EDF2A060EDB2A62
:10366000070ED3E3DB2AD1D7FD0EDBCF00F1FE0E30
:10367000DBCF01F1C00E01010017FF0E0117000E94
:103680000027490E012370EC1CF017861788080EDE
:10369000E15C02E2E16AE552E16EE552E7CFD9FF73
:0236A000120016
:0E36A200D9CFE6FFE1CFD9FFE652F29EF29CAF
:1036B0009D908C8EDF6A500EDF5C0AE2CD909E906A
:1036C000CE6ACF6ACD809EA0FED79E90DF2AF3D728
:1036D0009D80F28EF28CE552E552E7CFD9FF1200C1
:1036E000D9CFE6FFE1CFD9FF020EE126010EAFC12F
:1036F000DBFFFE0EE66E46D8E552450EE66E42D87A
:10370000E552010EDB50030A0CE0010A08E0030A4F
:1037100004E0010A0AE1E66A06D0400E03D0140E66
:1037200001D0540EE66E2ED8E552DF6A140EDF5C2F
:1037300018E2010EDB50140DF3CF10F0F4CF11F0AE
:10374000B00E1026010E1122DF500F011024E96E79
:10375000000E1120EA6EEF50E66E14D8E552DF2A13
:10376000E5D70101AF2B040EAF5D02E3AF6B1894F8
:10377000020EE15C02E2E16AE552E16EE552E7CF5A
:10378000D9FF1200D9CFE6FFE1CFD9FF2A0E010100
:10379000A75D0EE2A751EA6A7D0FE96E010EEA22EB
:1037A000FE0EDBCFEFFFA72B0101AC5101E104D8E6
:1037B000E552E7CFD9FF12000101020EAB6F010104
:1037C000010EAC6FCD90BC0ECE6EFC0ECF6ECD80D8
:1037D00012009E90CD907B0ECE6EFD0ECF6ECD80F2
:1037E0000101AB51030A15E0010A03E0020A40E0BF
:1037F0001200030EAB6F0101010EAA6F0101A85167
:10380000EA6A7D0FE96E010EEA22EFCFA9F18C9EE4
:1038100012000101AA5121E18C8E0101A82B0101A6
:10382000A7510101A85D0DE30101AB6B0101AC6B78
:103830000101A86B0101A76BCD909E90CE6ACF6A63
:103840001200A851EA6A7D0FE96E010EEA22EFCF5D
:10385000A9F10101020EAB6F12000101A9A102D072
:103860008C8E01D08C9EA991A9430101AA9FAA47E1
:02387000120044
:0E387200550EA76EAA0EA76EA6821200D9CF21
:10388000E6FFE1CFD9FFE652E00E01010017840EFA
:10389000A66EFE0EDB50DF6EFE0EDB50200FDF5CEF
:1038A0001AE2DF50EA6A020FE96E010EEA22EFCF58
:1038B00010F0DF500101F76A0025F66E0151F72282
:1038C000F86A10C0F5FF0C001F0EDF141F0801E19D
:1038D000D0DFDF2AE1D7E552E552E7CFD9FF12006A
:1038E000940EA66E00C1F6FF01C1F7FFF86AC1DFB2
:1038F000F86A1200D9CFE6FFE1CFD9FFA66AFE0E23
:10390000DB50A96EA680A850E552E7CFD9FF120080
:10391000D9CFE6FFE1CFD9FFA6A202D0000E0AD090
:10392000FE0EDB50A96EFD0EDB50A86E040EA66ED7
:0C393000A0DF010EE552E7CFD9FF120026
:04393C000400A7ECF0
:103940001DF0040051EC1BF00400FE0EE66EC2EC0C
:103950001BF0E552510EE66EC2EC1BF0E552FE0E76
:10396000E66EC2EC1BF0E552520EE66EC2EC1BF0A6
:10397000E552140EE66EC2EC1BF0E55222EC18F094
:10398000E6EC0BF00400F28EF28C17A605D0179629
:10399000E66A3FEC1CF0E55217A806D01798200EF7
:1039A000E66E3FEC1CF0E55217A003D0179033EC05
:1039B0001EF01850040B05E00101AB5102E170EC60
:1039C0001BF018A003D0189022EC18F017AA03D00F
:1039D000179A61EC19F017AE03D0179E9CEC17F004
:1039E00018A203D01892B6EC0CF0D8EC1DF0CAD790
:0239F0001200C3
:0E39F200DACFE4FFE2CFDAFFE9CFE4FFEACF5D
:103A0000E4FFF6CFE4FFF7CFE4FFF5CFE4FFF3CF19
:103A1000E4FFF4CFE4FFFACFE4FF00EE00F0100E75
:103A2000E80403E3EECFE4FFFBD700EE10F0060E50
:103A3000E80403E3EECFE4FFFBD7E6529EA002D0FA
:103A4000E9EC1BF09EA208D09E9201014C2B040EC3
:103A50004C5D02E14C6B1780E55200EE15F0060E4E
:103A6000E80403E3E5CFEDFFFBD700EE0FF0100E07
:103A7000E80403E3E5CFEDFFFBD7E5CFFAFFE5CFA1
:103A8000F4FFE5CFF3FFE5CFF5FFE5CFF7FFE5CF97
:103A9000F6FFE5CFEAFFE5CFE9FFE5CFDAFF11005A
:103AA0004D55544500323031342D30312D303120D8
:103AB0002020202020202320300050726F67726168
:103AC0006D202020202020202020232020200020C6
:103AD0002D2D202D2D202D2D202D2D202D2D202D57
:103AE0002D202000202020207363656E65206465F2
:103AF0007369676E2020202000204D44205344200D
:103B00002D2D202D2D20524D2053572020002020D8
:103B1000632D662D702D6F2D642D762D672D712DE3
:103B200020200050726F6772616D3A2020202020A3
:103B300020202020202020002020202020202020A5
:0D3B400020202020202020202020202000F8
:023B4E0051EC38
:103B50001EF0896A8A6A8B6A8C6A8D6A926A100E74
:103B6000936EF80E946E956A020E966EA60EAC6E6B
:103B7000900EAB6E3F0EAF6EB06A400EC26E0E0E70
:103B8000C16E060EC06E200EF26E800EF16ED08EEB
:103B9000D76AD66A420ED56ECF6ACE6ACD6ACC6A33
:103BA000F90ECB6E0D0ECA6E030E9D6EF28E1200D4
:103BB0009EBA120001017B5101017C5D02E103EF1D
:103BC0001EF09EA812007C51EA6A510FE96E010EA8
:103BD000EA22EF50AD6E7C2B1200D9CFE6FFE1CF89
:103BE000D9FF2A0E01017B5D0AE27B51EA6A510F7F
:103BF000E96E010EEA22FE0EDBCFEFFF7B2BE552D2
:103C0000E7CFD9FF120001017B6B01017C6B120031
:103C1000D9CFE6FFE1CFD9FFFE0EDB50A96EA69EFD
:103C2000A69CA680A850E552E7CFD9FF1200D9CFB5
:103C3000E6FFE1CFD9FFFE0EDB50A96EFD0EDB5093
:103C4000A86EA69EA69CA684F29E550EA76EAA0EEE
:103C5000A76EA6820400A6B2FDD7F28EA694E55206
:063C6000E7CFD9FF1200BE
:0A3C660001014D2B0A0E4D5D18E11F
:103C70004D6B178E178A188201014F2B040E4F5D72
:103C800002E14F6B18800101502B020E505D01E1E3
:103C9000506B01014E2B640E4E5D02E14E6B188499
:023CA000120010
:0E3CA200EA6AE96A0400EE6AEAA6FCD712009C
:103CB000000EF36E00EE00F0080E01D81200EA606C
:103CC00002D0EE6AFCD7F350E9601200EE6AFCD72E
:103CD00017EE00F027EE00F0F86A0F9CEA6AE96A36
:103CE0000400EE6AEAA670EF1EF09EEC1CF0FDD711
:023CF0001200C0
:0E3CF200036A080EE76ED890073603360C50B2
:0E3D0000035C02E3036E072AE72EF7D71200DA
:104900004D6F6E6B65797772656E636800000000AD
:104910000000000024302531A63201014040405003
:104920004576656E20466C6F770000000000000041
:104930000000000024302531A632010140404050E3
:104940005A65726F000000000000000000000000C7
:104950000000000024302632A632010140504054AD
:10496000576F6E64657277616C6C00000000000028
:1049700000000000243025B125314141D1C1C1D111
:10498000427564647920486F6C6C79000000000007
:104990000000000024302531A63201014040405083
:1049A000506C7573680000000000000000000000FB
:1049B0000000000024302531A6320999C8D8C8D893
:1049C000436F6D65204F757400000000000000000B
:1049D0000000000024302531A63201014040405043
:1049E00044726976650000000000000000000000CD
:1049F00000000000243025B125314141D1C1C1D191
:104A0000436F6D652041726F756E64000000000099
:104A10000000000024302531A63201014040405002
:104A20005A656E0000000000000000000000000059
:104A3000000000002430252525B10000D0D0C0D0D2
:104A400053616E646D616E000000000000000000A4
:104A500000000000A43026322632010140404050C0
:104A6000437261776C696E6700000000000000000F
:104A7000000000002424AD2D2525010152524040A4
:104A8000536F6E672032000000000000000000003D
:104A900000000000A42426262632C1C1C1C1C1C124
:104AA0005365782054797065205468696E670000FA
:104AB0000000000024302626A6320101404040506C
:104AC0004D72204A6F6E6573000000000000000008
:104AD00000000000243025A525314141D1C1C1D1BC
:104AE000426C756520436172730000000000000095
:104AF0000000000024302626A632191940405050EC
:104B0000496E20426C6F6F6D0000000000000000D5
:104B100000000000A43026262632C1C1C1C1C1C197
:104B20004861736820506970650000000000000053
:104B30000000000024302525A531010140404050EF
:104B40004D79204865726F000000000000000000F1
:104B50000000000024302525A632010140404050CD
:104B60004D616368696E65686561640000000000FE
:104B70000000000024302525A5250101C1C1C1D1B7
:104B8000486F6C696461790000000000000000005B
:104B90000000000024302626A6320101404040508B
:104BA000436C6F73696E672054696D650000000087
:104BB000000000002430252DA53101014050405057
:104BC000427261696E737465770000000000000036
:104BD0000000000024302626A6320101404040405B
:104BE000426F756E640000000000000000000000CD
:104BF000000000002430A525253101014040585017
:104C00004920416C6F6E650000000000000000004C
:104C100000000000A43025252531190140404050F6
:104C200043756D626572736F6D6500000000000072
:104C30000000000024302525A531010140404050EE
:104C40004C756D70000000000000000000000000C6
:104C50000000000024302525A531010140404040DE
:104C6000486579204A65616C6F75737900000000B2
:104C70000000000024302531A531010140404050A2
:104C80004B727970746F6E697465000000000000EB
:104C900000000000A430252525310101404040508E
:104CA00044616D6D697400000000000000000000A8
:104CB0000000000024302525A5310101404040506E
:104CC00053656D692D636861726D65640000000055
:104CD0000000000024302531A53101014040405042
:104CE0004D79204F776E20576F72737420456E6533
:104CF0006D79000024302531A6320101404040404A
:104D0000546865204D6964646C6500000000000013
:104D1000000000002430A5311D2500000000120015
:104D200042756C6C6574000000000000000000001B
:104D300000000000A4241E1E262601015050404001
:104D4000496620596F7520436F756C64204F6E6CF7
:104D50007900000024301D1D25B101015050405044
:104D600042656175746966756C204469736173741A
:104D70006572000024301D1DA531010150504040D6
:104D800042656C6C73000000000000000000000031
:104D90000000000024302525A5310101404040508D
:104DA0004675656C00000000000000000000000077
:104DB0000000000024302525A5310101404040407D
:104DC00000000000000000000000000000000000E3
:104DD00000000000000000000000000000000000D3
:104DE00000000000000000000000000000000000C3
:104DF00000000000000000000000000000000000B3
:10590000167903090C1D161B2320001A19250804FB
:10591000120B051F0213110A24FFFFFFFFFFFFFFF9
:10592000FFFFFFFFFFFFFFFFFFFFFFFFFFFFFFFF87
:10593000FFFFFFFFFFFFFFFFFFFFFFFFFFFFFFFF77
:105940000000000000000000000000000000000057
:105950000000000000000000000000000000000047
:020000040030CA
:0100000029D6
:010001000EF0
:0100020026D7
:010005008179
:010006008178
:010008000FE8
:01000900C036
:01000A000FE6
:01000B00E014
:01000C000FE4
:01000D0040B2
:00000001FF
