:020000040000FA
:0600000011EF00F01200F8
:0600080004EF08F01200F5
:080018000CEF08F060EF00F0AE
:020020001200CC
:0E002200400EC26E0E0EC16E060EC06E92989B
:10003000929A969092908998898A8D9089901DD8ED
:100040001CD81BD884A202D003D002D060EF00F0ED
:10005000060EF66E100EF76E0900F5CF10F00800D0
:10006000F5CF11F00D0E101802E1600E111802E12B
:0C00700000EF08F060EF00F0120012003A
:1000C000F26A13EE00F023EE00F0F86AFC6A6DA607
:1000D00002D082EC02F011D80400D3EC06F0E7EC79
:1000E00006F018D8060E0301B45D05E16D50020B51
:1000F00002E195EC00F0F0D71200140E6F6E0301D0
:10010000B46B0301B56B0301B66B8CEC00F08C9003
:1001100095901200120000000001E56BE969EA69A0
:10012000EB69E86B010EEC6F12000001E5511EE176
:10013000040108BF94D10001400EFE6F0001A10E22
:10014000FC6F000EFD6FA2EC06F00001010EE56FE2
:10015000ED6B400EED5D01E382D1ED51EA6A600F77
:10016000E96E000EEA22EF6AED2BF3D70001A151F0
:10017000080A01E171D1040A01E132D1050A01E165
:100180002DD10E0A01E1F6D0010A01E1EDD0030AFA
:1001900001E195D0010A4DE0070A41E0010A01E0C2
:1001A0005CD10001020E606F3A0E616F010E626F4A
:1001B000636F646B100E656F666B676BC00E686F64
:1001C0006D0E696F6A6B6B6B030E6C6F6D6B6E6B94
:1001D000300E6F6F706B0E0E716F726B736B746B92
:1001E000040E756F766B776B200E786F796B080E47
:1001F0007A6F7B6B7C6B7D6B020E7E6F7F6B806B8F
:10020000F00E816F826B836B010E846F856B866B42
:100210008769A50E996F04010CBF21D1DCD00001C4
:10022000010EEC6F0001A25101E013D10001EC6B53
:1002300010D1400E0001E66FE76B000EE65D020E86
:10024000E7591FE22FDAE6C000F0E7C001F0026ACA
:10025000060E1F0BE6C0F6FFE7C0F7FF02C0F8FF6F
:1002600006E0D890F636F736F836E806FAE1940E4E
:10027000A66E24DAE7EC06F00001E62B000EE72379
:10028000DCD7ED6BEDC0A9FFA868040EA66EE7EC05
:1002900006F014DA0001ED51ED2B006E016A026ADE
:1002A000FF0E005C000E0158000E0258EBE3F66AE8
:1002B000F76A200EF86E940EA66E00DACAD0300EE1
:1002C000A45D06E10001EC5101E0C3D092D9C1D098
:1002D000F00EA45D02E1B3D9BCD0E8680001E919D1
:1002E0000CE1E868EA1909E1E868EB1906E1A2C047
:1002F000E9F0A3C0EAF0A4C0EBF0E90EE96E000E4D
:10030000EA6EEE500001A21901E0A3D0EE50A3194D
:1003100001E09FD0EE50A41901E09BD001E099D0FC
:100320000001ED6B0001A6510001ED5D01E391D0EC
:10033000BDD9A70FE96E000EEA22EF50E66EE85134
:10034000EA6A600FE96E030EEA22E552E750EF6EAB
:10035000E82BE92B000EEA23EB23200EE85D01E1F8
:10036000E4D80001ED2BDED7E0D80001E969EA69A5
:10037000EB6970D00001070E606FA2C061F0A3C0EE
:1003800062F0A4C063F0A5C064F0A6C065F0A2C08E
:10039000F6FFA3C0F7FFA4C0F8FF0001ED6B00015A
:1003A000A6510001ED5D14E2F00E0001A45D0AE12A
:1003B000A2510001ED25A96EA66AA68084D9A8CF16
:1003C000EFFF04D071D97FD9F5CFEFFFED2BE7D741
:1003D00004010CBF44D00001400E33D041D839D0C5
:1003E00000010C0E606F010E616F626F160EF66EEB
:1003F000100EF76E0900F5CF63F00A00F5CF64F038
:10040000060E656F100E666F676B686B0D0E696F79
:10041000600E6A6F400E6B6F6C6B6D6B6E6B6F690D
:10042000706971697269736B74697569766B7769E4
:10043000786979697A697B697C6904010CBF0FD09E
:100440000001FA6F0001600EF86F000EF96F7CEC8E
:1004500006F00001E56B120050D80001E56B1200B8
:10046000F66A100EF76EF86A0001EE6B400E00019E
:10047000EE5D0DE209000001EE51EA6A600FE96EDF
:10048000030EEA22F5CFEFFF0001EE2BEFD70301B9
:100490000D0E666F0301600E676FF66A100EF76E41
:1004A000F86A940EA66E0001B50EF46FE8D83F0E00
:1004B000F66E100EF76EF86A00013F0EEE6F000147
:1004C000EE51EA6A600FE96E030EEA22EF50F56E14
:1004D0000C000001EE511F0B07E1E4D8A40EA66E3C
:1004E0000001B50EF46FCBD80A000001EE5101E116
:1004F00003D00001EE07E3D7120004D8FF0000008C
:10050000000012000301B869B9690301B8C300F023
:10051000B9C301F0B807000EB95B0050011004E048
:100520006D926D6ABFD8F1D712000001F06BE8C080
:1005300000F0016A026A00500001E95DF66E0150A8
:100540000001EA59F76E02500001EB59F86E1F0ED8
:10055000F6140001F16FE00EF6160001EF6B200EAD
:100560000001EF5D1FE20001F15115E10001E851CA
:100570000FE00001F051EA6A600FE96E030EEA2213
:10058000EF50F56E0D000001F02B0001E80702D0DE
:10059000F5680D0004D0F5680D000001F1070001B9
:1005A000EF2BDDD70A00A40EA66E0001B50EF46F86
:1005B00066D80001EF6B0001E8510001EF5D18E221
:1005C0000001F0510001EF25EA6A600FE96E030EA9
:1005D000EA22EF50E66E0001EF51EA6A600FE96E21
:1005E000030EEA22E552E750EF6E0001EF2BE3D74E
:1005F0001200A2C0F6FFA3C0F7FFA4C0F8FF0001DD
:10060000F26B0001A6510001F25D18E23A0E000102
:10061000D880A6550001F225EA6AA70FE96E000E00
:10062000EA22EF50F56E0C00C40EA66E0001B50E66
:10063000F46F25D809000001F22BE3D71200000166
:10064000F36B0001A6510001F35D18E20001A25115
:100650000001F325A96E3A0E0001D880A6550001CD
:10066000F325EA6AA70FE96E000EEA22EF50A86EA2
:10067000040EA66E23D80001F32BE3D71200F29EDE
:10068000B50E0001F45D05E0030ED36E0300FED746
:10069000FF00550EA76EAA0EA76EA682A6B2FED7C1
:1006A000A694120004001200090012003A0E000184
:1006B000D880A6550001ED25EA6A12000001B50EAA
:1006C000F46F3FEF03F0F2DF660FE96E000EEA22EF
:1006D00012006C5033E16896040100513C0BE84273
:1006E000E8420D0829E1180E021924E1040E03194D
:1006F00021E1100E026F040E036F0301A96BA951D3
:10070000006E016A080E005C000E015813E2A95148
:10071000EA6A180FE96E040EEA22EF50E66EA9515C
:10072000EA6A100FE96E040EEA22E552E750EF6E16
:10073000A92BE5D70AD8010C3AD8010C040E6C5C41
:1007400003E168964BD8010C000C040104BF046B54
:100750000301A86BA06BA16BA66BA76BC5EC04F0A3
:100760000301AA6BAA51006E016A010E005C000E23
:1007700001581BE2A15119E1AA51F66EF76AD8900F
:10078000F636F736BE0EF6260F0EF7220900F5CF25
:1007900000F00800F5CF01F004D001C0FAFF0050CE
:1007A000F96EFBDF0301AA2BDDD76DEF04F0020E1B
:1007B0000301A05D0EE178D80401180E026F040E4B
:1007C000036F080E016F00BD02D0C80E05D0880E61
:1007D00003D0BCD8CBD88C0E006F1200040E0301DE
:1007E000B45D09E112C46EFF6E50000802E2050E0E
:1007F00001D0030EB46F0301A00510E111D8020E61
:100800000301A85D03E10401840E06D0040104BDC8
:1008100002D0C80E01D0880E046F1200A6EF04F0BB
:100820000301080EA65D000EA7590DE2A6C3ABF3A7
:10083000A7C3ACF3A85102E1010E03D0A80506E15D
:10084000020EA86F03D0080EAB6FAC6B04010493CB
:1008500004910301AC5104010413ABC305F403017B
:10086000AB51A65DA66FAC51A759A76F180EA46F28
:10087000040EA56F0301B5A30ED00301AB51AC115B
:1008800012E0A2C3F6FFA3C3F7FF0800F55063D838
:10089000AB07AC5BF2D70301AB51AC1104E06ED8EF
:1008A000AB07AC5BF8D71200030E0401001503017F
:1008B000AE6F01C4ADF3A651AD25A66FA751AE2111
:1008C000A76F180EA26F040EA36FAD51AE1104E016
:1008D00055D8AD07AE5BF9D712006D980301A15151
:1008E00005E144D8840E006F04011DD0040110AF4F
:1008F0001CD00301A6510401165D0301A751040198
:10090000175904E216C4A6F317C4A7F389DF03013D
:10091000010EA06F2BD8800E006F0401180E066F19
:10092000040E076FC80E046F12000301020EA06FC1
:100930000401056BC80E046F0401080E016F180E48
:10094000026F040E036FC80E006F12000301A06B4C
:100950000401046B1200A4C3E9FFA5C3EAFFEF6E14
:10096000A42B000EA523A22BA32312000401080E22
:10097000016F100E026F040E036F1200A2C3E9FF95
:10098000A3C3EAFFEF50ABEF04F004011051600B7A
:10099000E842E842E842E842E842000901E0120089
:1009A0001151070A40E00B0A3EE0070A33E0010A52
:1009B00023E00B0A1FE0020A1DE0030A19E0080AFF
:1009C00010E0010A0CE00F0A08E0030A01E012003F
:1009D0000DD90301040EB46F120014EF05F04BEFB4
:1009E00005F004D90301B60EA26F030EA36F0CD05D
:1009F0006AEF05F09AEF05F0FDD80301A26FA36B33
:100A0000B70EA227030EA3230301B5930301010E22
:100A1000A66F1200EFD8EA6AB70FE96E030EEA225A
:100A200012C4EFFF12001200800E0401105D32E1CB
:100A30001351030A1FE0010A0AE0030A29E1D6D88C
:100A40000301FE0EA26F0E0EA36F120E1ED0B4D8BD
:100A5000B40EF6260F0EC2D8020E0301F76AA225C5
:100A6000F66EA351F7220900F5CFA6F30A00F5CFE1
:100A7000A7F30ED0A1D8B80EF6260F0EAFD8A2C39A
:100A8000F6FFA3C3F7FF0800F5500301A66FA76B9D
:100A90000301B5831200AAD8716A726A736A746A14
:100AA000756A766A776A0301B36F0301B70EB16F97
:100AB000030EB26F73EC07F012C4B6F304011251C7
:100AC00004E10301050EB46F12000301060EB46FBA
:100AD00067EF06F00401186B196B040110511F0B2E
:100AE000020A0DE0030A09E0010A16E17FD80301BA
:100AF000B5A112D0040118830FD078D80DD050D8EA
:100B000001E0010E62D8A4C3E9FFEA6EEF50040BC6
:100B100003E00401010E186F0301A1050AE10301BE
:100B2000180EA26F040EA36F0301B5930301020E0A
:100B3000A66F1200040112050EE110511F0B0009EF
:100B40000AE154D8030E0401115D03E10301B581EC
:100B500002D00301B5910401125121E110511F0B84
:100B600002081DE114510F0B000919E019D801E02A
:100B7000010E2BD8030E0401115D02E1840E03D097
:100B800014AF07D0400EA4C3E9FFA5C3EAFFEF6E80
:100B90001200880EA4C3E9FFA5C3EAFFEF6E12009E
:100BA00029D80F0B080DF350016A000F006E040ED8
:100BB00001221451800B120019D804011251F66E53
:100BC000F76AD890F636F7361200040DF350030199
:100BD0000024A46F000E0120A56F1200F722090067
:100BE000F5CFA2F30A00F5CFA3F312000301010E23
:100BF000A16F1200FBDF0401145112000401105117
:100C00001F0B010801E01200145101E01200060E52
:100C1000115D24E11351230A1FE0010A0DE0030ACC
:100C20001BE1BDD80301B60505E10301220EA26F49
:100C30000F0EA36F090E0DD0B2D80301B60505E162
:100C40000301970EA26F0F0EA36F0301B60504E117
:100C50001D0E0301A66FA76B0301B583040110519C
:100C6000600BE842E842E842E842E842010801E05D
:100C7000120011510B0A25E0080A17E0090A11E0D9
:100C8000080A09E00B0A05E0080A01E0120065EF16
:100C900006F066EF06F083D80301F50EA26F000E92
:100CA00009D07DD813C4F5F0120079D80301F60EEF
:100CB000A26F000EA36F0301B5930301010EA66F8F
:100CC00012006DD812C4F6F01200120012000001DA
:100CD000F76B1E0E716E0401400E096F200E0A6F35
:100CE000040E0B6F880E086F0401600E0E6F040E69
:100CF0000F6F400E0C6F12000001FA51400802E223
:100D0000400EFA6FFB6BFA51FB5D13E2FB51EA6A8E
:100D1000F825E96EF951EA22EF50E66EFB51EA6AD6
:100D2000600FE96E040EEA22E552E750EF6EFB2BEE
:100D3000EAD7FAC00DF4400E04010C170C7D880EA2
:100D40000C1312000001F76B040108BF25D00951F4
:100D50000001D880FE5502E209C4FEF0F76BFE5197
:100D6000F75D13E2F751EA6A200FE96E040EEA22FA
:100D7000EF50E66EF751EA6AFC25E96EFD51EA2272
:100D8000E552E750EF6EF72BEAD70401400E096FEA
:100D90000817087D880E08130001F751120003019F
:100DA000020EA16F12006DB606D06D6A696A6D867B
:100DB0000301010EB46F0301B40508E16DBA06D05A
:100DC000686A696A69806988020EB46F120003015B
:100DD000B45101E1120068B445D86DB2120068B098
:100DE00058D868B817D868BA44D8030E0301B45D60
:100DF00001E212000301AF6B040EAF5D0AE268A6C8
:100E000008D069EC03F0000901E168960301AF2BFB
:100E1000F3D7120069CFB0F3040E696E68986D8243
:100E2000A19AA08A0300A150200B05E1D050080B25
:100E300002E10300F8D7A09A0301B051691203013F
:100E4000D50EB86F020EB96F0301B8C300F0B9C375
:100E500001F0B807000EB95B0050011002E0040079
:100E6000F3D712006D92699468A402D06894FCD7FD
:100E7000120070A00CD0800E0401005D07E1840E0A
:100E80000401045D03E104018C0E006F7090689A08
:100E900012006A6A686A9F0E6B6E7B0E696E6E6ADC
:100EA000716A726A736A746A756A766A776A160E0C
:100EB000706E68A604D0689652EC03F0FAD76D986D
:100EC000A6EC04F00401080E016F100E026F040E70
:100ED000036F8C0E006F0301B5910301B66B030124
:100EE000030EB46F1200B1C3E9FFB2C3EAFF0301FE
:100EF000B35104E0EE6A0301B307F9D712001201FF
:100F0000000200000008D8043C00010101020001B9
:100F100009022900010100C0320904000002030097
:100F20000000092111010001221D00070581034075
:100F30000001070501034000010403090434034DC7
:100F4000006900630072006F006300680069007050
:100F500000200054006500630068006E006F006CA4
:100F6000006F0067007900200049006E0063002ECA
:100F70000026034800490044002000550053004269
:100F800000200042006F006F0074006C006F006171
:100F9000006400650072000600FF0901A10119014B
:100FA0002940150026FF0075089540810019012988
:100FB000409100C0100F100F390F3D0F710FFC0B47
:100FC000000EF36E00EE00F0080E01D81200EA6089
:100FD00002D0EE6AFCD7F350E9601200EE6AFCD74B
:100FE000FFFFFFFFFFFFFFFFFFFFFFFFFFFFFFFF11
:100FF000FFFFFFFFFFFFFFFFFFFFFFFFFFFFFFFF01
:0610000013EF1EF01200C8
:021006000D607B
:06100800A4EF1CF0120031
:02100E000000E0
:021016000001D7
:08101800D9CFE6FFE1CFD9FFBB
:10102000FE0EDB5000016C15106EFE0EDB50105CE6
:1010300004E1FE0EDB506E1502E0000E01D0010E41
:10104000E552E7CFD9FF1200D9CFE6FFE1CFD9FFB4
:10105000FE0EDB5000016B15106EFE0EDB50105CB7
:1010600004E1FE0EDB506D1502E0000E01D0010E12
:10107000E552E7CFD9FF1200D9CFE6FFE1CFD9FF84
:10108000FE0EDB5000016E15106EFE0EDB50105C84
:1010900004E1FE0EDB506C1502E0000E01D0010EE3
:1010A000E552E7CFD9FF1200D9CFE6FFE1CFD9FF54
:1010B000FE0EDB5000016D15106EFE0EDB50105C55
:1010C00004E1FE0EDB506B1502E0000E01D0010EB4
:1010D000E552E7CFD9FF1200D9CFE6FFE1CFD9FF24
:1010E000FE0EDB5000016C1502E1000E01D0010E76
:1010F000E552E7CFD9FF1200D9CFE6FFE1CFD9FF04
:10110000FE0EDB5000016B1502E1000E01D0010E56
:10111000E552E7CFD9FF1200D9CFE6FFE1CFD9FFE3
:10112000050EE126810EE66E000EE66E200EE66EDE
:10113000E66A00017E51200DF3CF10F0F4CF11F0DC
:10114000F3CFE6FFF4CFE6FF07EC1AF0126E060EBF
:10115000E15E12500001815129E1200E816F826F02
:10116000836F030EE66E7E29E66E810EE66E000E3C
:10117000E66E39EC0DF0E552E552E552E55200011C
:10118000856B0C0E956F200E966F0D0E976F210ECE
:10119000986F8E0E996F220E9A6F010E9B6F9C6F47
:1011A000400E9D6F9E6F9F6F500EA06F040E7F6F5D
:1011B000DF6A060EDF5C57E2DF50EA6A950FE96EE0
:1011C000000EEA22010EEFCFDBFFDB50030BE76ED0
:1011D000020EE7CFDBFFDB50E76E030EE7CFDBFF4E
:1011E000010EDB507C0BE840E8403F0BE76E040E3D
:1011F000E7CFDBFFDBCF10F00F0EE76E1018E8AE85
:1012000002D0103403D0E750D880105407E2040E07
:10121000DB50E009E76E040EE7CFDBFFFD0E106E3A
:10122000040EDBCFE7FF1050E726040EE7CFDBFF0D
:10123000010EDB50800B800802E1DFCF7FF0DF5032
:10124000EA6AA10FE96E000EEA22030EDBCFEFFF80
:10125000DF50EA6AAD0FE96E000EEA22040EDBCF22
:10126000EFFFDF2AA6D7050EE15C02E2E16AE55254
:10127000E16EE552E7CFD9FF1200D9CFE6FFE1CF0B
:10128000D9FFE652DF6A060EDF5C09E2DF50EA6A48
:101290009B0FE96E000EEA22EF9EDF2AF4D70001D1
:1012A0007F51EA6A9B0FE96E000EEA22EF8E810EF3
:1012B000E66E000EE66E200EE66EE66A7D51200DAB
:1012C000F3CF10F0F4CF11F0F3CFE6FFF4CFE6FF49
:1012D00054EC1AF0126E060EE15E1250E552E55221
:1012E000E7CFD9FF1200D9CFE6FFE1CFD9FFFD0E3E
:1012F000DBCFE6FFFE0EDBCFE6FFE66A0B0EE66E07
:10130000E5EC19F0E552E552E552E552E552E7CF3A
:10131000D9FF12000001010E7C6F7F0EE66E510EA8
:10132000E66EE1DFE552E5522CEF0EF000017C6B3A
:10133000E66A510EE66ED7DFE552E5522CEF0EF06D
:1013400000017C5101E0F2DF1200D9CFE6FFE1CFCE
:10135000D9FF020EE126DF6A010EF36EFE0EDB50AE
:1013600004E0D890F336E806FCE1F350E76E010E96
:10137000E7CFDBFF00017F51EA6A9B0FE96E000EA9
:10138000EA22010EDB50EF1A010EDBCFE6FF7F51A0
:10139000EA6A9B0FE96E000EEA22EF50E552E7146D
:1013A00002E07F0EDF6EDFCFE6FFFE0EDB50EA6A63
:1013B000600FE96E000EEA22EF50E66E94DFE55210
:1013C000E5522CEC0EF0020EE15C02E2E16AE5521D
:1013D000E16EE552E7CFD9FF1200D9CFE6FFE1CFAA
:1013E000D9FFE65200017F51EA6A9B0FE96E000EB9
:1013F000EA22EFCFDFFFC00E7015106E3F0EDF1434
:101400001010706F400EDF1402E07F0E01D0000E4E
:10141000E66E5A0EE66E67DFE552E552100EDF14F7
:1014200002E07F0E01D0000EE66E580EE66E5BDF26
:10143000E552E552040EDF1402E07F0E01D0000EEB
:10144000E66E560EE66E4FDFE552E552020EDF14F1
:1014500002E07F0E01D0000EE66E550EE66E43DF11
:10146000E552E552080EDF1402E07F0E01D0000EB7
:10147000E66E570EE66E37DFE552E552010EDF14D9
:1014800002E07F0E01D0000EE66E540EE66E2BDFFA
:10149000E552E552200EDF1402E07F0E01D0000E6F
:1014A000E66E590EE66E1FDFE552E552800EDF1440
:1014B00002E07F0E01D0000EE66E5B0EE66E13DFDB
:1014C000E552E552E552E552E7CFD9FF1200D9CFF8
:1014D000E6FFE1CFD9FFE65200017D517E5D0DE0D0
:1014E000EC6B7EC0E6FFE66A0C0EE66EC9EC19F006
:1014F000E552E552E5527EC07DF07FC080F0DF6AA4
:10150000060EDF5C24E2DF50EA6AA10FE96E000EEE
:10151000EA22EF50E66EDF50EA6AA70FE96E000E8E
:10152000EA22E552E750EF6EDF50EA6AAD0FE96E4E
:10153000000EEA22EF50E66EDF50EA6AB30FE96E62
:10154000000EEA22E552E750EF6EDF2AD9D70001FC
:101550007F51EA6AA10FE96E000EEA22EF50E824FB
:10156000E66E010EE66E0C0EE66EC9EC19F0E55261
:10157000E552E55200017F51EA6AAD0FE96E000EB7
:10158000EA22EF505F0FE66E190EE66E020EE66E6F
:101590000B0EE66EE5EC19F0E552E552E552E55228
:1015A0001CDF5ADBE552E552E7CFD9FF1200D9CF55
:1015B000E6FFE1CFD9FFDBC0DCF0FE0EDBCF7FF032
:1015C00086DFE552E7CFD9FF120000016A0508E186
:1015D000DB51EA6ABC0FE96E000EEA22EFCF7EF023
:1015E0007D517E5D05E0EC5104E1010EEC6F01D010
:1015F000EC6B8CEF08F0E9DF0001EC5101E117DB47
:101600002CEF0EF0D9CFE6FFE1CFD9FFE652FE0E68
:10161000DBCF6AF000016A051EE1B90EE66E000E2E
:10162000E66E200EE66EE66AD951200DF3CF10F07B
:10163000F4CF11F0000E1026100E112210C0E6FF9C
:1016400011C0E6FF07EC1AF0126E060EE15E1250B2
:101650000001DB6BD0DF00DBE552E552E7CFD9FFBD
:101660001200D9CFE6FFE1CFD9FF68C069F0FE0EC6
:10167000DBCF68F0F1DAE552E7CFD9FF1200D9CF1E
:10168000E6FFE1CFD9FFE652FE0EDB50EA6A950F86
:10169000E96E000EEA22EFCFDFFFDF90DF92FD0E52
:1016A000DB50030BDF12FC0EDBCF10F0ED0EE76E0C
:1016B0001018E8AE02D0E73402D0E750105C02E226
:1016C000ED0E0FD0FC0EDBCF10F00C0EE76E1018F5
:1016D000E8AE02D0103403D0E750D880105405E2B1
:1016E0000C0EF36EFC0EF3CFDBFF000EDF94DF96E3
:1016F000DF98DF9ADF9CFC0EDB50030F1F0B040DFD
:10170000F350DF12FE0EDB50EA6A950FE96E000E11
:10171000EA22DFCFEFFFFE0EDB50EA6AA10FE96E8F
:10172000000EEA22FD0EDBCFEFFFFE0EDB50EA6A71
:10173000AD0FE96E000EEA22FC0EDBCFEFFFFE0ECE
:10174000DB50EA6AA10FE96E000EEA22EF50E66E66
:10175000FE0EDB50EA6AA70FE96E000EEA22E552A0
:10176000E750EF6EFE0EDB50EA6AAD0FE96E000E39
:10177000EA22EF50E66EFE0EDB50EA6AB30FE96E26
:10178000000EEA22E552E750EF6EA1DEE552E55287
:10179000E7CFD9FF1200D9CFE6FFE1CFD9FFE6525C
:1017A0000001010E6A6F686B696BDF6A040EDF5C13
:1017B00017E2EA6ADF34FE0BEA36E96E6F0EE926BD
:1017C000000EEA22EE52EF6AEA6ADF34FE0BEA36D6
:1017D000E96E6F0EE926000EEA22EF6ADF2AE6D7ED
:1017E0000001DA6BDC6BD96BDB6B776B786B79693B
:1017F0007A69E76BE86BE96BEA6BEB6BEC6BEE6BB2
:10180000EF6BE66B7C6B7B6B7F6B7D697E6B540E45
:10181000606F550E616F560E626F570E636F580EF4
:10182000646F590E656F5A0E666F5B0E676F9B6B28
:10183000100E9C6F9D6B9E6F9F6BA06FDF6A040EF6
:10184000DF5C18E2DFCFE6FFA5EC19F0E552F3CF3D
:1018500010F0F4CF11F0EA6ADF34FE0BEA36E96EDD
:10186000DE0EE926000EEA22F3CFEEFF11C0EDFFF7
:10187000DF2AE5D7DF6A140EDF5C4BE2DF50F76A40
:101880008E0FF66E3A0EF7220800F550E66EDF5026
:101890000001EA6ADE25E96EDF51EA22E552E750EF
:1018A000EF6EDF50F76A8E0FF66E3A0EF7220800E1
:1018B000F550E66EDF50EA6AE025E96EE151EA2272
:1018C000E552E750EF6EDF50F76A790FF66E3A0E89
:1018D000F7220800F550E66EDF50EA6AE225E96E6D
:1018E000E351EA22E552E750EF6EDF50F76A8E0FC0
:1018F000F66E3A0EF7220800F550E66EDF50EA6AFF
:10190000E425E96EE551EA22E552E750EF6EDF2A61
:10191000B2D7A2D9010EE66E75DEE5526CDED7DDD8
:10192000E552E552E7CFD9FF12000001E851000867
:101930000EE2E82BE851106E116AD890115004E6BF
:10194000F00E105C000E115802E3800EE86FE951B2
:1019500000080EE2E92BE951106E116AD89011507F
:1019600004E6F00E105C000E115802E3800EE96FE1
:10197000E75100080EE2E72BE751106E116AD8908C
:10198000115004E6F00E105C000E115802E3800EB8
:10199000E76FEA5100080EE2EA2BEA51106E116A75
:1019A000D890115004E6F00E105C000E115802E3BE
:1019B000800EEA6FEB5100080EE2EB2BEB51106E3C
:1019C000116AD890115004E6F00E105C000E115808
:1019D00002E3800EEB6FEE51000808E2EE2B370EAB
:1019E000EE5D04E32D0EEE6F010EEF6FEC5100087B
:1019F0000EE2EC2BEC51106E116AD890115004E6F7
:101A0000F00E105C000E115802E3800EEC6FED51E9
:101A100000080EE2ED2BED51106E116AD8901150B6
:101A200004E6F00E105C000E115802E3800EED6F1C
:101A3000E65101E0E60712007F0E00017E5D01E045
:101A40007E2BFBEF0AF000017E5101E07E07FBEFE9
:101A50000AF00001B95101E11200B905DB5D01E2B4
:101A6000DB2BFBEF0AF00001DB5101E0DB07FBEFB2
:101A70000AF0D9CFE6FFE1CFD9FF0A0E126E0C6E45
:101A8000FC0EDBCF07F024EC1EF00350300FE66EA7
:101A9000FB0EDBCFF3FFDB06F350106E116A10BEB6
:101AA0001168FD0EDB501024E96EFE0EDB50112094
:101AB000EA6EE552E750EF6E0A0E106E0C6EFC0EE9
:101AC000DBCF07F024EC1EF0FC0E07C0DBFF075055
:101AD0000008D3E3FB0EDB50E552E7CFD9FF12003D
:101AE000D9CFE6FFE1CFD9FF040EE126030EDB6A72
:101AF0000A0E146E0C6EFC0EDBCF07F024EC1EF009
:101B00000350300FE66ED9CF10F0DACF11F0030E8C
:101B1000DBCFF3FFDB2AF350126E136A12BE136899
:101B200010501224E96E11501320EA6EE552E7506E
:101B3000EF6E0A0E106E0C6EFC0EDBCF07F024EC7D
:101B40001EF0FC0E07C0DBFF07500008D1E3030EB8
:101B5000DB06030EDBCF10F0103428E2D9CF12F0F1
:101B6000DACF13F0030EDBCF14F0156A14BE15683C
:101B700012501424E96E13501520EA6EEF50E66EF1
:101B8000FB0EDBCF10F0116A10BE1168FD0EDB50AA
:101B90001024E96EFE0EDB501120EA6EE552E7508C
:101BA000EF6E030EDB06FB0EDB2AD3D7FB0EDB50FA
:101BB000106E040EE15C02E2E16AE552E16E105043
:101BC000E552E7CFD9FF120000016851E96EEA6AD9
:101BD000D890E936EA366F0EE926000EEA22EE5278
:101BE000EFCF10F010C011F0106A6851E96EEA6A88
:101BF000D890E936EA366F0EE926000EEA22EF5059
:101C00001010776F11C078F07951771902E17A518D
:101C100078190CE077C0E6FF78C0E6FF8BEC19F08E
:101C2000E552E55277C079F078C07AF01200C00E24
:101C300000016F15106E010E7FC0E7FFE75204E050
:101C4000E846FE0BE706FCE1101000016F6F120082
:101C5000C00E00016F171200D9CFE6FFE1CFD9FF08
:101C6000090EE126DE52010EDD6E00017F51EA6AA7
:101C70009B0FE96E000EEA22EF503F0BE76E020E5B
:101C8000E7CFDBFF68516AE1DF6ADFCF10F0140EA7
:101C9000E76E1018E8AE02D0E73402D0E750105CCF
:101CA0001CE2DFCFF6FFF76AF6BEF768640EF62691
:101CB0003A0EF7220800F550E66EDFCF10F0116AF9
:101CC00010BE1168E4511024E96EE5511120EA6E4E
:101CD000E552E750EF6EDF2AD8D7DF6ADFCF10F08A
:101CE000060EE76E1018E8AE02D0E73402D0E750D7
:101CF000105C01E3B6D0010EDBCFE6FF020EDB5035
:101D0000E552E714106E010EDB50105C1EE1030E6D
:101D1000DF02F328106E116A10BE11680001E45151
:101D20001024E96EE5511120EA6EEF9A030EDF02EE
:101D3000F350020F106E116A10BE1168E4511024A6
:101D4000E96EE5511120EA6EEF9ADF2A010EDBCF32
:101D5000F3FFF39EF346F3CFDBFFC0D7680529E11D
:101D6000DF6ADFCF10F0140EE76E1018E8AE02D075
:101D7000E73402D0E750105C74E2DFCFF6FFF76A79
:101D8000F6BEF7684F0EF6263A0EF7220800F55019
:101D9000E66EDFCF10F0116A10BE1168E451102416
:101DA000E96EE5511120EA6EE552E750EF6EDF2A49
:101DB000D8D7020E685D29E1DF6ADFCF10F0140E7C
:101DC000E76E1018E8AE02D0E73402D0E750105C9E
:101DD00048E2DFCFF6FFF76AF6BEF7683A0EF6265E
:101DE0003A0EF7220800F550E66EDFCF10F0116AC8
:101DF00010BE1168E4511024E96EE5511120EA6E1D
:101E0000E552E750EF6EDF2AD8D7030E685D29E16F
:101E1000DF6ADFCF10F0140EE76E1018E8AE02D0C4
:101E2000E73402D0E750105C1CE2DFCFF6FFF76A20
:101E3000F6BEF768250EF6263A0EF7220800F55092
:101E4000E66EDFCF10F0116A10BE1168E451102465
:101E5000E96EE5511120EA6EE552E750EF6EDF2A98
:101E6000D8D700016A512DE1DF6ADFCF10F0140EE0
:101E7000E76E1018E8AE02D0E73402D0E750105CED
:101E80001CE2DFCFF6FFF76AF6BEF768100EF62603
:101E90003A0EF7220800F550E66EDFCF10F0116A17
:101EA00010BE1168E0511024E96EE1511120EA6E74
:101EB000E552E750EF6EDF2AD8D7130EE66E7E2983
:101EC00071D0BB417F0BE76E030EE7CFDBFFBA514A
:101ED000E00BE838E840106E010EBB15100DF35012
:101EE0001010E76E040EE7CFDBFF1F0EBA15E76E8A
:101EF000050EE7CFDBFFDF6ADFCF10F0140EE76ED1
:101F00001018E8AE02D0E73402D0E750105C1CE2B3
:101F1000DFCFF6FFF76AF6BEF768FB0EF626390E3E
:101F2000F7220800F550E66EDFCF10F0116A10BE00
:101F30001168E0511024E96EE1511120EA6EE5527A
:101F4000E750EF6EDF2AD8D7030EE66EDB500E0F98
:101F5000E66EE0C0E6FFE1C0E6FF8BDDE552E5524C
:101F6000E552E552060EE66E040EDB28E66EE0C092
:101F7000E6FFE1C0E6FF7DDDE552E552E552E552C0
:101F8000090EE66E050EDB28E66EE0C0E6FFE1C056
:101F9000E6FF6FDDE552E552E552E552130EE66EBF
:101FA0000001DB29E66EE0C0E6FFE1C0E6FF61DD8F
:101FB000E552E552E552E552DF6ADFCF10F0140E2C
:101FC000E76E1018E8AE02D0E73402D0E750105C9C
:101FD00034E2DFCF10F0116A10BE11680001DE514B
:101FE0001024E96EDF511120EA6E200EEF6EDFCF74
:101FF000E9FFEA6AE9BEEA68810EE926000EEA22F4
:10200000EF50E66EDFCF10F0116A10BE1168E2519A
:102010001024E96EE3511120EA6EE552E750EF6EAD
:10202000DFCFE9FFEA6AE9BEEA68810EE926000E21
:10203000EA22EF5002E0DF2AC0D7DFCF10F0140E03
:10204000E76E1018E8AE02D0E73402D0E750105C1B
:102050001DE2DFCF10F0116A10BE11680001DE51E1
:102060001024E96EDF511120EA6E200EEF6EDFCFF3
:1020700010F0116A10BE1168E2511024E96EE351AC
:102080001120EA6E200EEF6EDF2AD7D700017C51B7
:1020900029E0DF6ADFCF10F0040EE76E1018E8AE1B
:1020A00002D0E73402D0E750105C1CE2DFCFF6FF2D
:1020B000F76AF6BEF768F60EF626390EF722080024
:1020C000F550E66EDFCF10F0116A10BE1168DE51D8
:1020D0001024E96EDF511120EA6EE552E750EF6EF1
:1020E000DF2AD8D7020E685D0FE17F51EA6AA10F9F
:1020F000E96E000EEA22060EEFCFDBFF7F51EA6A9F
:10210000AD0FE96E000E0ED08051EA6AA70FE96E9E
:10211000000EEA22060EEFCFDBFF8051EA6AB30F12
:10212000E96E000EEA22070EEFCFDBFFDB50E76E11
:10213000080EE7CFDBFF060EEA6ADE25E96EDF5107
:10214000EA22430EEF6E070EEA6ADE25E96EDF51E2
:10215000EA22480EEF6E060EDB50310FE66E080ED7
:10216000EA6ADE25E96EDF51EA22E552E750EF6EBA
:10217000070EDB5008E10B0EEA6ADE25E96EDF513F
:10218000EA22200E15D0070EDBCF10F0000EE76E0E
:102190001018E8AE02D0103403D0E750D8801054A5
:1021A00009E20B0EEA6ADE25E96EDF51EA222B0E08
:1021B000EF6E0ED00B0EEA6ADE25E96EDF51EA22E1
:1021C0002D0EEF6E070EDB50FF0D080EF3CFDBFF79
:1021D0000C0EE66E080EDBCFE6FFDEC0E6FFDFC0CA
:1021E000E6FF7EDCE552E552E552E55200017D5105
:1021F0007E5D1DE0100EDF6EDFCF10F0140EE76E77
:102200001018E8AE02D0E73402D0E750105C0FE2BD
:10221000DFCF10F0116A10BE1168DE511024E96E94
:10222000DF511120EA6E2A0EEF6EDF2AE5D7C5ECEA
:1022300019F0090EE15C02E2E16AE552E16EE55255
:10224000E7CFD9FF12000001685152E16C51709F35
:10225000800B01E0708F6C51709D400B01E0708D20
:102260006B516F9D400B01E06F8D7D517E5D08E0ED
:102270000F0EEC15106E080E105C02E2E9DC01D0C6
:10228000D6DCC00E00017015106E7F51EA6A9B0FFC
:10229000E96E000EEA22EF503F0B1010706F1F0E18
:1022A000E85D01E281D00F0EE815106E080E105C9B
:1022B00010E3C00E7015116E6C1D106E7F51EA6A2E
:1022C0009B0FE96E000EEA22EF5010143F0B111025
:1022D0000DD0C00E7015106E7F51EA6A9B0FE96E2B
:1022E000000EEA22EF506C113F0B1010706F5CD0A3
:1022F000680512E16CC072F0C00E6B15106E010E15
:102300007FC0E7FFE75204E0E846FE0BE706FCE18A
:1023100010100001716F48D0020E685D3EE1C00EE2
:102320006C15136E7F51EA6AAD0FE96E000EEA225A
:10233000EFCF11F0000EE76E1118E8AE02D01134A5
:1023400003D0E750D880115402E3000E01D0010EF3
:10235000106E7F51EA6AA10FE96E000EEA22EF507B
:10236000E8241010126E010E125204E0E846FE0B33
:102370001206FCE113100001746FC00E6B15106E95
:10238000010E7FC0E7FFE75204E0E846FE0BE706D8
:10239000FCE110100001736F07D0030E685D04E1CB
:1023A0006CC076F06BC075F0E6511DE00F0EE615BF
:1023B000106E080E105C0CE36851E96EEA6AD89062
:1023C000E936EA366F0EE926000EEA22EF8C0BD0D2
:1023D0006851E96EEA6AD890E936EA366F0EE92666
:1023E000000EEA22EF9CE4EF0DF0010EE66E0CEC1D
:1023F00008F0E552000908E0E66AA5EC09F0E552AC
:102400000001010EE86F10D0010EE66E3CEC08F002
:10241000E552000909E01F0E0001E85D05E3E86BE5
:10242000E66AA5EC09F0E552020EE66E0CEC08F047
:10243000E552000909E0010EE66EA5EC09F0E5524F
:102440000001010EE86F11D0020EE66E3CEC08F0C0
:10245000E55200090AE01F0E0001E85D06E3E86BA3
:10246000010EE66EA5EC09F0E552040EE66E0CECEA
:1024700008F0E552000909E0020EE66EA5EC09F04D
:10248000E5520001010EE86F11D0040EE66E3CEC3F
:1024900008F0E55200090AE01F0E0001E85D06E3BE
:1024A000E86B020EE66EA5EC09F0E552080EE66E4A
:1024B0000CEC08F0E552000909E0030EE66EA5EC0D
:1024C00009F0E5520001010EE86F11D0080EE66E2A
:1024D0003CEC08F0E55200090AE01F0E0001E85D3F
:1024E00006E3E86B030EE66EA5EC09F0E552100E6C
:1024F000E66E0CEC08F0E552000909E0040EE66E09
:10250000A5EC09F0E5520001010EE86F11D0100EA4
:10251000E66E3CEC08F0E55200090AE01F0E0001EF
:10252000E85D06E3E86B040EE66EA5EC09F0E55203
:10253000200EE66E0CEC08F0E552000909E0050EED
:10254000E66EA5EC09F0E5520001010EE86F11D02E
:10255000200EE66E3CEC08F0E55200090AE01F0E82
:102560000001E85D06E3E86B050EE66EA5EC09F0F8
:10257000E552010EE66E24EC08F0E55200090AE08F
:10258000E66AD7EC0AF0E552A0EC09F00001010E72
:10259000ED6F12D0010EE66E7CEC08F0E5520009FA
:1025A0000BE04C0E0001ED5D07E3020EE66E31EC30
:1025B0000BF0E5520001ED6B020EE66E24EC08F024
:1025C000E55200090BE0010EE66ED7EC0AF0E55289
:1025D000A0EC09F00001010EED6F12D0020EE66EC4
:1025E0007CEC08F0E55200090BE04C0E0001ED5DBB
:1025F00007E3020EE66E31EC0BF0E5520001ED6BE5
:10260000040EE66E24EC08F0E55200090BE0020E21
:10261000E66ED7EC0AF0E552A0EC09F00001010EDD
:10262000ED6F12D0040EE66E7CEC08F0E552000966
:102630000BE04C0E0001ED5D07E3020EE66E31EC9F
:102640000BF0E5520001ED6B080EE66E24EC08F08D
:10265000E55200090BE0030EE66ED7EC0AF0E552F6
:10266000A0EC09F00001010EED6F12D0080EE66E2D
:102670007CEC08F0E55200090BE04C0E0001ED5D2A
:1026800007E3020EE66E31EC0BF0E5520001ED6B54
:10269000100EE66E24EC08F0E55200090BE0040E83
:1026A000E66ED7EC0AF0E552A0EC09F00001010E4D
:1026B000ED6F12D0100EE66E7CEC08F0E5520009CA
:1026C0000BE04C0E0001ED5D07E3020EE66E31EC0F
:1026D0000BF0E5520001ED6B200EE66E24EC08F0E5
:1026E000E55200090BE0050EE66ED7EC0AF0E55264
:1026F000A0EC09F00001010EED6F12D0200EE66E85
:102700007CEC08F0E55200090BE04C0E0001ED5D99
:1027100007E3020EE66E31EC0BF0E5520001ED6BC3
:10272000400EE66E24EC08F0E552000904E00001DA
:10273000010EEA6F17D0400EE66E7CEC08F0E55211
:10274000000907E04C0E0001EA5D03E38AEC09F0A2
:1027500007D0400EE66E54EC08F0E552000902E0A6
:102760000001EA6B400EE66E24EC08F0E552000929
:102770000BE000017B1D7F0B7B6FE66E500EE66E5B
:1027800073EC09F0E552E552800EE66E24EC08F099
:10279000E552000915E000017D517E5D0BE07DC032
:1027A0007EF0DCC0DBF0E5EC0AF080C07FF02CECC2
:1027B0000EF002D0A0EC09F00001010EEB6F1BD06F
:1027C000800EE66E7CEC08F0E55200090BE04C0E42
:1027D0000001EB5D07E3EB6B010EE66E31EC0BF0F5
:1027E000E55209D0800EE66E54EC08F0E55200097F
:1027F00002E00001EB6B00016A5141E1800EE66EE0
:102800000CEC08F0E552000904E00001010EEE6F47
:1028100015D0800EE66E3CEC08F0E552000903E0AE
:102820000001EE6B0DD0800EE66E6CEC08F0E55208
:10283000000906E00001EF5103E0EF6B1CEC0DF026
:10284000400EE66E0CEC08F0E552000904E00001D1
:10285000010EEE6F12D0400EE66E3CEC08F0E55231
:10286000000942E1400EE66E6CEC08F0E55200090A
:102870004BE00001EF5148E0EF6B23EF0DF0800ECD
:10288000E66E0CEC08F0E552000904E00001010ED0
:10289000EE6F15D0800EE66E3CEC08F0E5520009B4
:1028A00003E00001EE6B0DD0800EE66E6CEC08F0DC
:1028B000E552000906E00001EF5103E0EF6B29EC5F
:1028C0000DF0400EE66E0CEC08F0E552000905E054
:1028D0000001010EEE6F33EF0DF0400EE66E3CECA2
:1028E00008F0E552000903E00001EE6B1200400E13
:1028F000E66E6CEC08F0E552000906E00001EF51CD
:1029000003E0EF6B33EC0DF01200D9CFE6FFE1CF1F
:10291000D9FFE6520001B951DB5D1CE2B951000854
:1029200019E2DB29DF6EB951DF5C13E2DF50EA6A9E
:10293000BC0FE96E000EEA22EF50E66EDF04EA6A91
:10294000BC0FE96E000EEA22E552E750EF6EDF2A77
:10295000EAD7B907E552E552E7CFD9FF1200800E5A
:10296000E66E24EC08F0E552000904E0E66A31EC7A
:102970000BF0E552010EE66E24EC08F0E55200097A
:1029800006E0E66AD7EC0AF0E552A0EC09F0020E88
:10299000E66E24EC08F0E552000907E0010EE66E51
:1029A000D7EC0AF0E552A0EC09F0040EE66E24EC38
:1029B00008F0E552000907E0020EE66ED7EC0AF0D7
:1029C000E552A0EC09F0080EE66E24EC08F0E552A2
:1029D000000907E0030EE66ED7EC0AF0E552A0EC22
:1029E00009F0100EE66E24EC08F0E552000907E04D
:1029F000040EE66ED7EC0AF0E552A0EC09F0200ECA
:102A0000E66E24EC08F0E552000907E0050EE66EDC
:102A1000D7EC0AF0E552A0EC09F0010EE66E0CECE2
:102A200008F0E552000907E0010E00016A19E66EA0
:102A300002EC0BF0E552020EE66E0CEC08F0E552EB
:102A4000000905E0020EE66E31EC0BF0E552040ED3
:102A5000E66E0CEC08F0E5520009080EE66E0CEC90
:102A600008F0E5520009100EE66E0CEC08F0E55295
:102A7000000906E000016A0503E147DFFBEC0AF00C
:102A8000200EE66E0CEC08F0E55200090CE00001A7
:102A90006A0509E1DBC0DDF0030EE66E31EC0BF0F8
:102AA000E5522CEC0EF0400EE66E24EC08F0E552F8
:102AB000000904E00001010EE76F1AD0400EE66E37
:102AC0007CEC08F0E55200090AE04C0E0001E75DDD
:102AD00006E33DEC09F00001500EE66F08D0400E11
:102AE000E66E54EC08F0E552000902E00001E76BE5
:102AF00000016A5144E1800EE66E0CEC08F0E552EC
:102B0000000904E00001010EEE6F15D0800EE66EA4
:102B10003CEC08F0E552000903E00001EE6B0DD03B
:102B2000800EE66E6CEC08F0E552000906E000014C
:102B3000EF5103E0EF6B1CEC0DF0400EE66E0CEC79
:102B400008F0E552000904E00001010EEE6F15D017
:102B5000400EE66E3CEC08F0E552000903E000018F
:102B6000EE6B1200400EE66E6CEC08F0E5520009C8
:102B700028E00001EF5125E0EF6B23EF0DF0800E10
:102B8000E66E0CEC08F0E55200090AE01F0E0001A9
:102B9000D95D06E2D92B6AC0E6FF02EC0BF0E552E4
:102BA000400EE66E0CEC08F0E55200090AE0000168
:102BB000D951000806E2D9076AC0E6FF02EC0BF023
:102BC000E5521200800EE66E24EC08F0E552000992
:102BD00005E069C0E6FF31EC0BF0E552010EE66E50
:102BE00024EC08F0E552000904E000017F6B67EC7B
:102BF0000AF0020EE66E24EC08F0E552000905E04A
:102C00000001010E7F6F67EC0AF0040EE66E24EC03
:102C100008F0E552000905E00001020E7F6F67EC45
:102C20000AF0080EE66E24EC08F0E552000905E013
:102C30000001030E7F6F67EC0AF0100EE66E24ECC5
:102C400008F0E552000905E00001040E7F6F67EC13
:102C50000AF0200EE66E24EC08F0E552000905E0CB
:102C60000001050E7F6F67EC0AF0010EE66E0CECBA
:102C700008F0E552000909E0E66AE66A7FC0E6FF6F
:102C80003FEC0BF0E552E552E552020EE66E0CEC1D
:102C900008F0E55200090AE0050EE66EE66A7FC01C
:102CA000E6FF3FEC0BF0E552E552E552040EE66E0E
:102CB0000CEC08F0E55200090AE0E66A010EE66E47
:102CC0007FC0E6FF3FEC0BF0E552E552E552080EFF
:102CD000E66E0CEC08F0E55200090BE0050EE66E1E
:102CE000010EE66E7FC0E6FF3FEC0BF0E552E552C9
:102CF000E552100EE66E0CEC08F0E55200090AE011
:102D0000E66A020EE66E7FC0E6FF3FEC0BF0E5528E
:102D1000E552E552200EE66E0CEC08F0E552000993
:102D20000BE0050EE66E020EE66E7FC0E6FF3FEC9E
:102D30000BF0E552E552E552400EE66E24EC08F049
:102D4000E552000904E00001010EE76F1AD0400EC1
:102D5000E66E7CEC08F0E55200090AE04C0E00013A
:102D6000E75D06E33DEC09F00001500EE66F08D088
:102D7000400EE66E54EC08F0E552000902E0000156
:102D8000E76B800EE66E0CEC08F0E552000918E0E7
:102D900000017F51EA6AAD0FE96E000EEA22EF28CA
:102DA000E66E7F51EA6AA10FE96E000EEA22EF504B
:102DB000E66E7FC0E6FF3FEC0BF0E552E552E552D0
:102DC000400EE66E0CEC08F0E552000918E0000138
:102DD0007F51EA6AAD0FE96E000EEA22EF04E66E5B
:102DE0007F51EA6AA10FE96E000EEA22EF50E66E0B
:102DF0007FC0E6FF3FEC0BF0E552E552E5521200D2
:102E0000D9CFE6FFE1CFD9FFE652800EE66E24EC83
:102E100008F0E552000905E0010EE66E31EC0BF01A
:102E2000E552800EE66E0CEC08F0E552000904E075
:102E30000001010EEE6F15D0800EE66E3CEC08F03E
:102E4000E552000903E00001EE6B0DD0800EE66E46
:102E50006CEC08F0E552000906E00001EF5103E0D8
:102E6000EF6B29EC0DF0400EE66E0CEC08F0E5522D
:102E7000000904E00001010EEE6F15D0400EE66E71
:102E80003CEC08F0E552000903E00001EE6B0DD0C8
:102E9000400EE66E6CEC08F0E552000906E0000119
:102EA000EF5103E0EF6B33EC0DF0400EE66E24ECD7
:102EB00008F0E552000929E00001DB51EA6ABC0F85
:102EC000E96E000EEA22EFCFDFFFDD51EA6ABC0FA8
:102ED000E96E000EEA22EF50E66EDB51EA6ABC0FA3
:102EE000E96E000EEA22E552E750EF6EDD51EA6A24
:102EF000BC0FE96E000EEA22DFCFEFFFDDC0DBF092
:102F0000010EE66E31EC0BF0E552E552E552E7CFEB
:102F1000D9FF1200D9CFE6FFE1CFD9FF020EE1269B
:102F200030EC19F0F3CFDEFFF4CFDDFFDECF10F091
:102F3000DDCF11F0105000016B6FDECF10F0DDCF50
:102F400011F011C010F0116A10506C6F685103E15C
:102F5000F5EC11F00DD0680502E101DD09D0020E9B
:102F6000685D02E12FDE04D0030E685D01E148DFF9
:102F700023EC11F06BC06DF06CC06EF0020EE15CE2
:102F800002E2E16AE552E16EE552E7CFD9FF1200B5
:102F9000D9CFE6FFE1CFD9FFFE0EDBCFE6FF98ECFD
:102FA0001DF0E552E552E7CFD9FF1200D9CFE6FF79
:102FB000E1CFD9FFE652080EDF6E898489948992A9
:102FC000FD0EDBBE02D0899601D08986DBCFF3FFF0
:102FD000F39EF346F3CFDBFF8982DF06F0E1080EB4
:102FE000DF6E8992FE0EDBBE02D0899601D0898603
:102FF000DBCFF3FFF39EF346F3CFDBFF8982DF06DF
:10300000F0E18984100EDF6EDF5002E0DF06FCD7AE
:10301000899489868982E552E552E7CFD9FF12006B
:10302000D9CFE6FFE1CFD9FF050EE126030EDB6A1B
:10303000DE52010EDD6EDF6A080EDF5C22E2DFCFBA
:10304000E6FFF9D8E552050EF36E020EF3CFDBFF73
:10305000DB5003E0020EDB06FBD784A209D0030E8F
:10306000DBCFE7FF010EDB50E712030EE7CFDBFFFC
:10307000010EDBCFF3FFF39EF346F3CFDBFFDF2A36
:10308000DBD7040EDB6ADE52010EDD6E080EDF6E4A
:10309000100EDF5C22E2DFCFE6FFCDD8E552050E51
:1030A000F36E020EF3CFDBFFDB5003E0020EDB0614
:1030B000FBD784A209D0040EDBCFE7FF010EDB5063
:1030C000E712040EE7CFDBFF010EDBCFF3FFF39E29
:1030D000F346F3CFDBFFDF2ADBD701014B6B0101A6
:1030E0004A6BD950030FE96EDACFEAFFEF50010BBC
:1030F00002E101014B85D950030FE96EDACFEAFFF7
:10310000EF50020B02E101014B83D950030FE96E2E
:10311000DACFEAFFEF50040B02E101014B81D950F5
:10312000030FE96EDACFEAFFEF50080B02E101016D
:103130004B87D950030FE96EDACFEAFFEF50100B3F
:1031400002E101014B8FD950030FE96EDACFEAFF9C
:10315000EF50200B02E101014B89D950030FE96EBA
:10316000DACFEAFFEF50400B02E101014B8DD9505D
:10317000030FE96EDACFEAFFEF50800B02E10101A5
:103180004B8BD950040FE96EDACFEAFFEF50010BF9
:1031900002E101014A85D950040FE96EDACFEAFF56
:1031A000EF50020B02E101014A83D950040FE96E8E
:1031B000DACFEAFFEF50040B02E101014A81D95056
:1031C000040FE96EDACFEAFFEF50080B02E10101CC
:1031D0004A87D950040FE96EDACFEAFFEF50100B9F
:1031E00002E101014A8FD950040FE96EDACFEAFFFC
:1031F000EF50200B02E101014A89D950040FE96E1A
:10320000DACFEAFFEF50400B02E101014A8DD950BD
:10321000040FE96EDACFEAFFEF50800B02E1010103
:103220004A8B050EE15C02E2E16AE552E16EE5528D
:10323000E7CFD9FF1200D9CFE6FFE1CFD9FF8998B8
:10324000899A8D908990FE0EDBB08988DBB2898ADD
:10325000DBB48D80DBB68980E552E7CFD9FF120061
:10326000D9CFE6FFE1CFD9FF020EE126126A0101B4
:103270004B511210DE6E4AC1DDFFDECF10F0DDCF04
:1032800011F010C0F3FF11C0F4FF020EE15C02E286
:10329000E16AE552E16EE552E7CFD9FF1200D9CFDE
:1032A000E6FFE1CFD9FF020EE126DF6A010148B156
:1032B000DF8E48B3DF8C48B5DF8A48B7DF8848B96E
:1032C000DF8648BBDF8448BDDF8248BFDF80010E58
:1032D000DB6A010149B1DB8E49B3DB8C49B5DB8A7E
:1032E00049B7DB8849B9DB8649BBDB8449BDDB8252
:1032F00049BFDB80DFCFE6FFDBCFE6FF57DEE552DD
:10330000E552020EE15C02E2E16AE552E16EE5524D
:10331000E7CFD9FF1200D9CFE6FFE1CFD9FFFE0EEC
:10332000DBCF11F011C010F011500101486FFF0EFA
:10333000E76EFD0EDBCF10F0E7501016116A10C0DB
:1033400049F1E552E7CFD9FF1200D9CFE6FFE1CF2F
:10335000D9FFFE0EDB50140DF3CF10F0F4CF11F0B7
:10336000B00E1026010E112210C0F3FF11C0F4FFA1
:10337000E552E7CFD9FF1200D9CFE6FF188401014B
:10338000AF6BE552E7CFD9FF120018840101AF6B94
:103390001200D9CFE6FFE1CFD9FFFD0EDB500F0BB6
:1033A000106EFE0EDB500F0B100DF3501010E66E7A
:1033B00098EC1DF0E552FC0EDBCFE6FF98EC1DF01B
:1033C000E552E552E7CFD9FF1200D9CFE6FFE1CFB2
:1033D000D9FFFD0EDB500F0B106EFE0EDB500F0BF6
:1033E000100DF3501010E66E98EC1DF0E552FC0E37
:1033F000DBCFE6FF98EC1DF0E552FB0EDBCFE6FFDE
:1034000098EC1DF0E552E552E7CFD9FF1200D9CF75
:10341000E6FFE1CFD9FF030EE126DF6AFD0EDBCF29
:1034200006F0FE0EDBCF07F0010E06C0DBFF020E3A
:1034300007C0DBFFDFCF10F0FB0EDBCF11F0FC0E7F
:10344000DBCF12F01150105C000E125423E2010E7B
:10345000DBCFF6FF020EDBCFF7FF000EF626490E9C
:10346000F7220800F550E66EDF50E76EF90EDBCF6D
:10347000E9FFFA0EDBCFEAFFE750E926000EEA2269
:10348000E552E750EF6EDF2A010EDB2A020ED2E38F
:10349000DB2AD0D7030EE15C02E2E16AE552E16E7D
:1034A000E552E7CFD9FF1200D9CFE6FFE1CFD9FF30
:1034B000050EE126FD0EDBCF10F0FE0EDBCF11F086
:1034C000C00E1016FF0E1116010E10C0DBFF020E0B
:1034D00011C0DBFFDF6A400EDF5C1DE2010EDBCFB7
:1034E000F6FF020EDBCFF7FF000EF626490EF7229D
:1034F0000800F550E66EDF50EA6A020FE96E010E31
:10350000EA22E552E750EF6EDF2A010EDB2A020EB7
:10351000E2E3DB2AE0D7FD0EDBCF10F0FE0EDBCFBF
:1035200011F0C00E1016FF0E1116010E10C0DBFFB9
:10353000020E11C0DBFFFD0EDBCF12F0FE0EDBCF63
:1035400013F0010EDB50125C106E020EDB501358AC
:10355000116E030E10C0DBFF040E11C0DBFFDF6A2B
:10356000DFCF10F0FB0EDBCF11F0FC0EDBCF12F043
:103570001150105C000E125422E2DF50E76EF90E7B
:10358000DBCFE9FFFA0EDBCFEAFFE750E926000EBA
:10359000EA22EF50E66E030EDBCFE9FF040EDBCF2D
:1035A000EAFF020EE926010EEA22E552E750EF6E2D
:1035B000DF2A030EDB2A040ED3E3DB2AD1D7FD0E6C
:1035C000DBCF00F1FE0EDBCF01F1C00E01010017D1
:1035D000FF0E0117000E0027490E01231BEC1CF003
:1035E00017861788050EE15C02E2E16AE552E16E9A
:0835F000E552E7CFD9FF1200FC
:0835F800D9CFE6FFE1CFD9FFB6
:10360000E652F29EF29C9D908C8EDF6A500EDF5C3B
:103610000AE2CD909E90CE6ACF6ACD809EA0FED762
:103620009E90DF2AF3D79D80F28EF28CE552E55210
:10363000E7CFD9FF1200D9CFE6FFE1CFD9FF020EC5
:10364000E126010EAFC1DBFFFE0EE66E46D8E55265
:10365000450EE66E42D8E552010EDB50030A0CE03F
:10366000010A08E0030A04E0010A0AE1E66A06D05A
:10367000400E03D0140E01D0540EE66E2ED8E55243
:10368000DF6A140EDF5C18E2010EDB50140DF3CF7D
:1036900010F0F4CF11F0B00E1026010E1122DF5001
:1036A0000F011024E96E000E1120EA6EEF50E66E55
:1036B00014D8E552DF2AE5D70101AF2B040EAF5D28
:1036C00002E3AF6B1894020EE15C02E2E16AE5529C
:1036D000E16EE552E7CFD9FF1200D9CFE6FFE1CF87
:1036E000D9FF2A0E0101A75D0EE2A751EA6A7D0FFC
:1036F000E96E010EEA22FE0EDBCFEFFFA72B0101E0
:10370000AC5101E104D8E552E7CFD9FF1200010125
:10371000020EAB6F0101010EAC6FCD90BC0ECE6EF0
:10372000FC0ECF6ECD8012009E90CD907B0ECE6EA3
:10373000FD0ECF6ECD800101AB51030A15E0010AE9
:1037400003E0020A40E01200030EAB6F0101010E1C
:10375000AA6F0101A851EA6A7D0FE96E010EEA2203
:10376000EFCFA9F18C9E12000101AA5121E18C8EAC
:103770000101A82B0101A7510101A85D0DE3010181
:10378000AB6B0101AC6B0101A86B0101A76BCD9084
:103790009E90CE6ACF6A1200A851EA6A7D0FE96E48
:1037A000010EEA22EFCFA9F10101020EAB6F120068
:1037B0000101A9A102D08C8E01D08C9EA991A943B0
:0837C0000101AA9FAA471200B3
:0837C800550EA76EAA0EA76EB4
:1037D000A6821200D9CFE6FFE1CFD9FFE652E00E74
:1037E00001010017840EA66EFE0EDB50DF6EFE0E8A
:1037F000DB50200FDF5C1AE2DF50EA6A020FE96E4D
:10380000010EEA22EFCF10F0DF500101F76A002528
:10381000F66E0151F722F86A10C0F5FF0C001F0E7A
:10382000DF141F0801E1D0DFDF2AE1D7E552E552BE
:10383000E7CFD9FF1200940EA66E00C1F6FF01C1BA
:10384000F7FFF86AC1DFF86A1200D9CFE6FFE1CFCF
:10385000D9FFA66AFE0EDB50A96EA680A850E552DD
:10386000E7CFD9FF1200D9CFE6FFE1CFD9FFA6A25B
:1038700002D0000E0AD0FE0EDB50A96EFD0EDB500A
:10388000A86E040EA66EA0DF010EE552E7CFD9FFA9
:02389000120024
:0E389200040052EC1DF00400FCEC1AF00400DF
:1038A000FE0EE66E6DEC1BF0E552510EE66E6DEC11
:1038B0001BF0E552FE0EE66E6DEC1BF0E552520E6B
:1038C000E66E6DEC1BF0E552140EE66E6DEC1BF02F
:1038D000E55210EC18F0CBEC0BF00400F28EF28CF9
:1038E00017A605D01796E66AEAEC1BF0E55217A872
:1038F00006D01798200EE66EEAEC1BF0E55217A0F2
:1039000003D01790DEEC1DF01850040B05E0010108
:10391000AB5102E11BEC1BF018A003D0189010EC87
:1039200018F017AA03D0179A4FEC19F017AE03D06E
:10393000179E8AEC17F018A203D0189295EC0CF0A1
:0839400083EC1DF0CAD7120050
:08394800DACFE4FFE2CFDAFF61
:10395000E9CFE4FFEACFE4FFF6CFE4FFF7CFE4FFDF
:10396000F5CFE4FFF3CFE4FFF4CFE4FFFACFE4FFB9
:1039700000EE00F0100EE80403E3EECFE4FFFBD707
:1039800000EE10F0060EE80403E3EECFE4FFFBD7F1
:10399000E6529EA002D094EC1BF09EA208D09E920C
:1039A00001014C2B040E4C5D02E14C6B1780E5527B
:1039B00000EE15F0060EE80403E3E5CFEDFFFBD7BC
:1039C00000EE0FF0100EE80403E3E5CFEDFFFBD7A8
:1039D000E5CFFAFFE5CFF4FFE5CFF3FFE5CFF5FF45
:1039E000E5CFF7FFE5CFF6FFE5CFEAFFE5CFE9FF4B
:0639F000E5CFDAFF110033
:0A39F6004D55544500323031342D98
:103A000030312D3031202020202020202320300074
:103A100050726F6772616D202020202020202020AE
:103A20002320202000202D2D202D2D202D2D202D58
:103A30002D202D2D202D2D202000202020207363CF
:103A4000656E652064657369676E20202020002004
:103A50004D44205344202D2D202D2D20524D2053F8
:103A60005720200020636D20666C207074206368EE
:103A700020646C20727620200050726F6772616D36
:103A80003A2020202020202020202020200020203C
:103A90002020202020202020202020202020202026
:033AA000202000E3
:0C3AA400FCEC1DF0896A8A6A8B6A8C6A4F
:103AB0008D6A926A100E936EF80E946E956A020EDD
:103AC000966EA60EAC6E900EAB6E3F0EAF6EB06AE9
:103AD000400EC26E0E0EC16E060EC06E200EF26E4D
:103AE000800EF16ED08ED76AD66A420ED56ECF6A3E
:103AF000CE6ACD6ACC6AF90ECB6E0D0ECA6E030E7D
:063B00009D6EF28E120022
:0A3B06009EBA120001017B5101017B
:103B10007C5D02E1AEEF1DF09EA812007C51EA6AC6
:103B2000510FE96E010EEA22EF50AD6E7C2B1200B0
:103B3000D9CFE6FFE1CFD9FF2A0E01017B5D0AE272
:103B40007B51EA6A510FE96E010EEA22FE0EDBCFCD
:103B5000EFFF7B2BE552E7CFD9FF120001017B6B12
:063B600001017C6B120064
:0A3B6600D9CFE6FFE1CFD9FFFE0E34
:103B7000DB50A96EA69EA69CA680A850E552E7CF72
:103B8000D9FF1200D9CFE6FFE1CFD9FFFE0EDB50FF
:103B9000A96EFD0EDB50A86EA69EA69CA684F29E82
:103BA000550EA76EAA0EA76EA6820400A6B2FDD778
:0C3BB000F28EA694E552E7CFD9FF120078
:043BBC0001014D2B8B
:103BC0000A0E4D5D18E14D6B178E178A18820101A0
:103BD0004F2B040E4F5D02E14F6B18800101502BFB
:103BE000020E505D01E1506B01014E2B640E4E5DE3
:083BF00002E14E6B1884120083
:083BF800EA6AE96A0400EE6AC2
:103C0000EAA6FCD71200000EF36E00EE00F0080EDC
:103C100001D81200EA6002D0EE6AFCD7F350E960E6
:063C20001200EE6AFCD761
:0A3C260017EE00F027EE00F0F86A38
:103C30000F9CEA6AE96A0400EE6AEAA61BEF1EF02E
:083C400049EC1CF0FDD7120055
:083C4800036A080EE76ED89034
:103C5000073603360C50035C02E3036E072AE72E97
:043C6000F7D7120080
:104900004D6F6E6B65797772656E636800000000AD
:10491000000000000C200D218E220101404040507B
:104920004576656E20466C6F770000000000000041
:10493000000000000C200D218E220101404040505B
:104940005A65726F000000000000000000000000C7
:10495000000000000C200E228E2201014050405425
:10496000576F6E64657277616C6C00000000000028
:10497000000000000C200DA10D214141D1C1C1D189
:10498000427564647920486F6C6C79000000000007
:10499000000000000C200D218E22010140404050FB
:1049A000506C7573680000000000000000000000FB
:1049B000000000000C200D218E220999C8D8C8D80B
:1049C000436F6D65204F757420616E6420506C617B
:1049D000790000000C200D218E2201014040405042
:1049E00044726976650000000000000000000000CD
:1049F000000000000C200DA10D214141D1C1C1D109
:104A00005768656E204920436F6D652041726F7550
:104A10006E6400000C200D218E22010140404050A8
:104A200045766572797468696E67205A656E000014
:104A3000000000000C200D0D0DA10000D0D0C0D052
:104A4000456E7465722053616E646D616E00000086
:104A5000000000008C200E220E22212140404050F8
:104A6000437261776C696E6720696E207468652097
:104A70004461726B0C200D218E2201014040405098
:104A8000536F6E672032000000000000000000003D
:104A9000000000008C0C20202020C1C1C1C1C1C178
:104AA0005365782054797065205468696E670000FA
:104AB000000000000C200D218E22010140404050DA
:104AC0004D72204A6F6E6573000000000000000008
:104AD000000000000C200DA10D214141D1C1C1D128
:104AE000436F756E74696E6720426C756520436113
:104AF000727300000C200E228E2219194040505073
:104B0000496E20426C6F6F6D0000000000000000D5
:104B1000000000008C2020202020C1C1C1C1C1C1E3
:104B20004861736820506970650000000000000053
:104B3000000000000C200D218E2201014040405059
:104B40004D79204865726F000000000000000000F1
:104B5000000000000C200D218E2201014040405039
:104B60004D616368696E65686561640000000000FE
:104B7000000000000C200D218D0D0101C1C1C1D12B
:104B8000486F6C696461790000000000000000005B
:104B9000000000000C200D218E22010140404050F9
:104BA000436C6F73696E672054696D650000000087
:104BB000000000000C200D218D21010140504050CB
:104BC000427261696E737465770000000000000036
:104BD000000000000C200D0D8E22010140404040DD
:104BE000426F756E6420666F722074686520466C33
:104BF0006F6F72000C208D0D0D2101014040585047
:104C00004920416C6F6E650000000000000000004C
:104C1000000000008C200D210D2119014040405062
:104C200043756D626572736F6D6500000000000072
:104C3000000000000C200D218D210101404040505A
:104C40004C756D70000000000000000000000000C6
:104C5000000000000C200D218D210101404040404A
:104C6000486579204A65616C6F75737900000000B2
:104C7000000000000C200D218D210101404040501A
:104C80004B727970746F6E697465000000000000EB
:104C9000000000000C200D218E22010140404050F8
:104CA00044616D6D697400000000000000000000A8
:104CB000000000000C200D218D21010140404050DA
:104CC00053656D692D636861726D6564204C69661A
:104CD000650000000C200D218D2101014040405055
:104CE0004D79204F776E20576F72737420456E6533
:104CF0006D7900000C200D218E22010140404040C2
:104D0000546865204D6964646C6500000000000013
:104D1000000000000C208D21010D00000000120099
:104D200042756C6C657420576974682042757474A0
:104D30006572666C8C2002020E2221215050404088
:104D40000000000000000000000000000000000063
:104D50000000000000000000000000000000000053
:104D60000000000000000000000000000000000043
:104D70000000000000000000000000000000000033
:10590000134D021D0C1F131B04211911020516094A
:1059100020001A0F140AFFFFFFFFFFFFFFFFFFFF2A
:10592000183B021D1F141913040920100811051734
:105930001B2116001A0F020C120D0AFFFFFFFFFFBA
:105940000F0F02090C0216041F051B001A13110A7F
:10595000141DFFFFFFFFFFFFFFFFFFFFFFFFFFFF24
:10596000165501090C021216180419130514001A11
:10597000170F1110080D1B150AFFFFFFFFFFFFFF98
:105980000FF500090C021604170F1413000B051174
:10599000150AFFFFFFFFFFFFFFFFFFFFFFFFFFFFF6
:1059A00000000000000000000000000000000000F7
:1059B00000000000000000000000000000000000E7
:1059C00000000000000000000000000000000000D7
:1059D00000000000000000000000000000000000C7
:020000040030CA
:0100000029D6
:010001000EF0
:0100020026D7
:010005008179
:010006008178
:010008000FE8
:01000900C036
:01000A000FE6
:01000B00E014
:01000C000FE4
:01000D0040B2
:00000001FF
