:020000040000FA
:0600000011EF00F01200F8
:0600080004EF08F01200F5
:080018000CEF08F060EF00F0AE
:020020001200CC
:0E002200400EC26E0E0EC16E060EC06E92989B
:10003000929A969092908998898A8D9089901DD8ED
:100040001CD81BD884A202D003D002D060EF00F0ED
:10005000060EF66E100EF76E0900F5CF10F00800D0
:10006000F5CF11F00D0E101802E1600E111802E12B
:0C00700000EF08F060EF00F0120012003A
:1000C000F26A13EE00F023EE00F0F86AFC6A6DA607
:1000D00002D082EC02F011D80400D3EC06F0E7EC79
:1000E00006F018D8060E0301B45D05E16D50020B51
:1000F00002E195EC00F0F0D71200140E6F6E0301D0
:10010000B46B0301B56B0301B66B8CEC00F08C9003
:1001100095901200120000000001E56BE969EA69A0
:10012000EB69E86B010EEC6F12000001E5511EE176
:10013000040108BF94D10001400EFE6F0001A10E22
:10014000FC6F000EFD6FA2EC06F00001010EE56FE2
:10015000ED6B400EED5D01E382D1ED51EA6A600F77
:10016000E96E000EEA22EF6AED2BF3D70001A151F0
:10017000080A01E171D1040A01E132D1050A01E165
:100180002DD10E0A01E1F6D0010A01E1EDD0030AFA
:1001900001E195D0010A4DE0070A41E0010A01E0C2
:1001A0005CD10001020E606F3A0E616F010E626F4A
:1001B000636F646B100E656F666B676BC00E686F64
:1001C0006D0E696F6A6B6B6B030E6C6F6D6B6E6B94
:1001D000300E6F6F706B0E0E716F726B736B746B92
:1001E000040E756F766B776B200E786F796B080E47
:1001F0007A6F7B6B7C6B7D6B020E7E6F7F6B806B8F
:10020000F00E816F826B836B010E846F856B866B42
:100210008769A50E996F04010CBF21D1DCD00001C4
:10022000010EEC6F0001A25101E013D10001EC6B53
:1002300010D1400E0001E66FE76B000EE65D020E86
:10024000E7591FE22FDAE6C000F0E7C001F0026ACA
:10025000060E1F0BE6C0F6FFE7C0F7FF02C0F8FF6F
:1002600006E0D890F636F736F836E806FAE1940E4E
:10027000A66E24DAE7EC06F00001E62B000EE72379
:10028000DCD7ED6BEDC0A9FFA868040EA66EE7EC05
:1002900006F014DA0001ED51ED2B006E016A026ADE
:1002A000FF0E005C000E0158000E0258EBE3F66AE8
:1002B000F76A200EF86E940EA66E00DACAD0300EE1
:1002C000A45D06E10001EC5101E0C3D092D9C1D098
:1002D000F00EA45D02E1B3D9BCD0E8680001E919D1
:1002E0000CE1E868EA1909E1E868EB1906E1A2C047
:1002F000E9F0A3C0EAF0A4C0EBF0E90EE96E000E4D
:10030000EA6EEE500001A21901E0A3D0EE50A3194D
:1003100001E09FD0EE50A41901E09BD001E099D0FC
:100320000001ED6B0001A6510001ED5D01E391D0EC
:10033000BDD9A70FE96E000EEA22EF50E66EE85134
:10034000EA6A600FE96E030EEA22E552E750EF6EAB
:10035000E82BE92B000EEA23EB23200EE85D01E1F8
:10036000E4D80001ED2BDED7E0D80001E969EA69A5
:10037000EB6970D00001070E606FA2C061F0A3C0EE
:1003800062F0A4C063F0A5C064F0A6C065F0A2C08E
:10039000F6FFA3C0F7FFA4C0F8FF0001ED6B00015A
:1003A000A6510001ED5D14E2F00E0001A45D0AE12A
:1003B000A2510001ED25A96EA66AA68084D9A8CF16
:1003C000EFFF04D071D97FD9F5CFEFFFED2BE7D741
:1003D00004010CBF44D00001400E33D041D839D0C5
:1003E00000010C0E606F010E616F626F160EF66EEB
:1003F000100EF76E0900F5CF63F00A00F5CF64F038
:10040000060E656F100E666F676B686B0D0E696F79
:10041000600E6A6F400E6B6F6C6B6D6B6E6B6F690D
:10042000706971697269736B74697569766B7769E4
:10043000786979697A697B697C6904010CBF0FD09E
:100440000001FA6F0001600EF86F000EF96F7CEC8E
:1004500006F00001E56B120050D80001E56B1200B8
:10046000F66A100EF76EF86A0001EE6B400E00019E
:10047000EE5D0DE209000001EE51EA6A600FE96EDF
:10048000030EEA22F5CFEFFF0001EE2BEFD70301B9
:100490000D0E666F0301600E676FF66A100EF76E41
:1004A000F86A940EA66E0001B50EF46FE8D83F0E00
:1004B000F66E100EF76EF86A00013F0EEE6F000147
:1004C000EE51EA6A600FE96E030EEA22EF50F56E14
:1004D0000C000001EE511F0B07E1E4D8A40EA66E3C
:1004E0000001B50EF46FCBD80A000001EE5101E116
:1004F00003D00001EE07E3D7120004D8FF0000008C
:10050000000012000301B869B9690301B8C300F023
:10051000B9C301F0B807000EB95B0050011004E048
:100520006D926D6ABFD8F1D712000001F06BE8C080
:1005300000F0016A026A00500001E95DF66E0150A8
:100540000001EA59F76E02500001EB59F86E1F0ED8
:10055000F6140001F16FE00EF6160001EF6B200EAD
:100560000001EF5D1FE20001F15115E10001E851CA
:100570000FE00001F051EA6A600FE96E030EEA2213
:10058000EF50F56E0D000001F02B0001E80702D0DE
:10059000F5680D0004D0F5680D000001F1070001B9
:1005A000EF2BDDD70A00A40EA66E0001B50EF46F86
:1005B00066D80001EF6B0001E8510001EF5D18E221
:1005C0000001F0510001EF25EA6A600FE96E030EA9
:1005D000EA22EF50E66E0001EF51EA6A600FE96E21
:1005E000030EEA22E552E750EF6E0001EF2BE3D74E
:1005F0001200A2C0F6FFA3C0F7FFA4C0F8FF0001DD
:10060000F26B0001A6510001F25D18E23A0E000102
:10061000D880A6550001F225EA6AA70FE96E000E00
:10062000EA22EF50F56E0C00C40EA66E0001B50E66
:10063000F46F25D809000001F22BE3D71200000166
:10064000F36B0001A6510001F35D18E20001A25115
:100650000001F325A96E3A0E0001D880A6550001CD
:10066000F325EA6AA70FE96E000EEA22EF50A86EA2
:10067000040EA66E23D80001F32BE3D71200F29EDE
:10068000B50E0001F45D05E0030ED36E0300FED746
:10069000FF00550EA76EAA0EA76EA682A6B2FED7C1
:1006A000A694120004001200090012003A0E000184
:1006B000D880A6550001ED25EA6A12000001B50EAA
:1006C000F46F3FEF03F0F2DF660FE96E000EEA22EF
:1006D00012006C5033E16896040100513C0BE84273
:1006E000E8420D0829E1180E021924E1040E03194D
:1006F00021E1100E026F040E036F0301A96BA951D3
:10070000006E016A080E005C000E015813E2A95148
:10071000EA6A180FE96E040EEA22EF50E66EA9515C
:10072000EA6A100FE96E040EEA22E552E750EF6E16
:10073000A92BE5D70AD8010C3AD8010C040E6C5C41
:1007400003E168964BD8010C000C040104BF046B54
:100750000301A86BA06BA16BA66BA76BC5EC04F0A3
:100760000301AA6BAA51006E016A010E005C000E23
:1007700001581BE2A15119E1AA51F66EF76AD8900F
:10078000F636F736BE0EF6260F0EF7220900F5CF25
:1007900000F00800F5CF01F004D001C0FAFF0050CE
:1007A000F96EFBDF0301AA2BDDD76DEF04F0020E1B
:1007B0000301A05D0EE178D80401180E026F040E4B
:1007C000036F080E016F00BD02D0C80E05D0880E61
:1007D00003D0BCD8CBD88C0E006F1200040E0301DE
:1007E000B45D09E112C46EFF6E50000802E2050E0E
:1007F00001D0030EB46F0301A00510E111D8020E61
:100800000301A85D03E10401840E06D0040104BDC8
:1008100002D0C80E01D0880E046F1200A6EF04F0BB
:100820000301080EA65D000EA7590DE2A6C3ABF3A7
:10083000A7C3ACF3A85102E1010E03D0A80506E15D
:10084000020EA86F03D0080EAB6FAC6B04010493CB
:1008500004910301AC5104010413ABC305F403017B
:10086000AB51A65DA66FAC51A759A76F180EA46F28
:10087000040EA56F0301B5A30ED00301AB51AC115B
:1008800012E0A2C3F6FFA3C3F7FF0800F55063D838
:10089000AB07AC5BF2D70301AB51AC1104E06ED8EF
:1008A000AB07AC5BF8D71200030E0401001503017F
:1008B000AE6F01C4ADF3A651AD25A66FA751AE2111
:1008C000A76F180EA26F040EA36FAD51AE1104E016
:1008D00055D8AD07AE5BF9D712006D980301A15151
:1008E00005E144D8840E006F04011DD0040110AF4F
:1008F0001CD00301A6510401165D0301A751040198
:10090000175904E216C4A6F317C4A7F389DF03013D
:10091000010EA06F2BD8800E006F0401180E066F19
:10092000040E076FC80E046F12000301020EA06FC1
:100930000401056BC80E046F0401080E016F180E48
:10094000026F040E036FC80E006F12000301A06B4C
:100950000401046B1200A4C3E9FFA5C3EAFFEF6E14
:10096000A42B000EA523A22BA32312000401080E22
:10097000016F100E026F040E036F1200A2C3E9FF95
:10098000A3C3EAFFEF50ABEF04F004011051600B7A
:10099000E842E842E842E842E842000901E0120089
:1009A0001151070A40E00B0A3EE0070A33E0010A52
:1009B00023E00B0A1FE0020A1DE0030A19E0080AFF
:1009C00010E0010A0CE00F0A08E0030A01E012003F
:1009D0000DD90301040EB46F120014EF05F04BEFB4
:1009E00005F004D90301B60EA26F030EA36F0CD05D
:1009F0006AEF05F09AEF05F0FDD80301A26FA36B33
:100A0000B70EA227030EA3230301B5930301010E22
:100A1000A66F1200EFD8EA6AB70FE96E030EEA225A
:100A200012C4EFFF12001200800E0401105D32E1CB
:100A30001351030A1FE0010A0AE0030A29E1D6D88C
:100A40000301FE0EA26F0E0EA36F120E1ED0B4D8BD
:100A5000B40EF6260F0EC2D8020E0301F76AA225C5
:100A6000F66EA351F7220900F5CFA6F30A00F5CFE1
:100A7000A7F30ED0A1D8B80EF6260F0EAFD8A2C39A
:100A8000F6FFA3C3F7FF0800F5500301A66FA76B9D
:100A90000301B5831200AAD8716A726A736A746A14
:100AA000756A766A776A0301B36F0301B70EB16F97
:100AB000030EB26F73EC07F012C4B6F304011251C7
:100AC00004E10301050EB46F12000301060EB46FBA
:100AD00067EF06F00401186B196B040110511F0B2E
:100AE000020A0DE0030A09E0010A16E17FD80301BA
:100AF000B5A112D0040118830FD078D80DD050D8EA
:100B000001E0010E62D8A4C3E9FFEA6EEF50040BC6
:100B100003E00401010E186F0301A1050AE10301BE
:100B2000180EA26F040EA36F0301B5930301020E0A
:100B3000A66F1200040112050EE110511F0B0009EF
:100B40000AE154D8030E0401115D03E10301B581EC
:100B500002D00301B5910401125121E110511F0B84
:100B600002081DE114510F0B000919E019D801E02A
:100B7000010E2BD8030E0401115D02E1840E03D097
:100B800014AF07D0400EA4C3E9FFA5C3EAFFEF6E80
:100B90001200880EA4C3E9FFA5C3EAFFEF6E12009E
:100BA00029D80F0B080DF350016A000F006E040ED8
:100BB00001221451800B120019D804011251F66E53
:100BC000F76AD890F636F7361200040DF350030199
:100BD0000024A46F000E0120A56F1200F722090067
:100BE000F5CFA2F30A00F5CFA3F312000301010E23
:100BF000A16F1200FBDF0401145112000401105117
:100C00001F0B010801E01200145101E01200060E52
:100C1000115D24E11351230A1FE0010A0DE0030ACC
:100C20001BE1BDD80301B60505E10301220EA26F49
:100C30000F0EA36F090E0DD0B2D80301B60505E162
:100C40000301970EA26F0F0EA36F0301B60504E117
:100C50001D0E0301A66FA76B0301B583040110519C
:100C6000600BE842E842E842E842E842010801E05D
:100C7000120011510B0A25E0080A17E0090A11E0D9
:100C8000080A09E00B0A05E0080A01E0120065EF16
:100C900006F066EF06F083D80301F50EA26F000E92
:100CA00009D07DD813C4F5F0120079D80301F60EEF
:100CB000A26F000EA36F0301B5930301010EA66F8F
:100CC00012006DD812C4F6F01200120012000001DA
:100CD000F76B1E0E716E0401400E096F200E0A6F35
:100CE000040E0B6F880E086F0401600E0E6F040E69
:100CF0000F6F400E0C6F12000001FA51400802E223
:100D0000400EFA6FFB6BFA51FB5D13E2FB51EA6A8E
:100D1000F825E96EF951EA22EF50E66EFB51EA6AD6
:100D2000600FE96E040EEA22E552E750EF6EFB2BEE
:100D3000EAD7FAC00DF4400E04010C170C7D880EA2
:100D40000C1312000001F76B040108BF25D00951F4
:100D50000001D880FE5502E209C4FEF0F76BFE5197
:100D6000F75D13E2F751EA6A200FE96E040EEA22FA
:100D7000EF50E66EF751EA6AFC25E96EFD51EA2272
:100D8000E552E750EF6EF72BEAD70401400E096FEA
:100D90000817087D880E08130001F751120003019F
:100DA000020EA16F12006DB606D06D6A696A6D867B
:100DB0000301010EB46F0301B40508E16DBA06D05A
:100DC000686A696A69806988020EB46F120003015B
:100DD000B45101E1120068B445D86DB2120068B098
:100DE00058D868B817D868BA44D8030E0301B45D60
:100DF00001E212000301AF6B040EAF5D0AE268A6C8
:100E000008D069EC03F0000901E168960301AF2BFB
:100E1000F3D7120069CFB0F3040E696E68986D8243
:100E2000A19AA08A0300A150200B05E1D050080B25
:100E300002E10300F8D7A09A0301B051691203013F
:100E4000D50EB86F020EB96F0301B8C300F0B9C375
:100E500001F0B807000EB95B0050011002E0040079
:100E6000F3D712006D92699468A402D06894FCD7FD
:100E7000120070A00CD0800E0401005D07E1840E0A
:100E80000401045D03E104018C0E006F7090689A08
:100E900012006A6A686A9F0E6B6E7B0E696E6E6ADC
:100EA000716A726A736A746A756A766A776A160E0C
:100EB000706E68A604D0689652EC03F0FAD76D986D
:100EC000A6EC04F00401080E016F100E026F040E70
:100ED000036F8C0E006F0301B5910301B66B030124
:100EE000030EB46F1200B1C3E9FFB2C3EAFF0301FE
:100EF000B35104E0EE6A0301B307F9D712001201FF
:100F0000000200000008D8043C00010101020001B9
:100F100009022900010100C0320904000002030097
:100F20000000092111010001221D00070581034075
:100F30000001070501034000010403090434034DC7
:100F4000006900630072006F006300680069007050
:100F500000200054006500630068006E006F006CA4
:100F6000006F0067007900200049006E0063002ECA
:100F70000026034800490044002000550053004269
:100F800000200042006F006F0074006C006F006171
:100F9000006400650072000600FF0901A10119014B
:100FA0002940150026FF0075089540810019012988
:100FB000409100C0100F100F390F3D0F710FFC0B47
:100FC000000EF36E00EE00F0080E01D81200EA6089
:100FD00002D0EE6AFCD7F350E9601200EE6AFCD74B
:100FE000FFFFFFFFFFFFFFFFFFFFFFFFFFFFFFFF11
:100FF000FFFFFFFFFFFFFFFFFFFFFFFFFFFFFFFF01
:0610000059EF1FF0120081
:021006000D607B
:06100800F5EF1DF01200DF
:02100E000000E0
:021010001200CC
:021016000001D7
:08101800D9CFE6FFE1CFD9FFBB
:10102000FE0EDB5002010C15106EFE0EDB50105C44
:1010300004E1FE0EDB500E1502E0000E01D0010EA1
:10104000E552E7CFD9FF1200D9CFE6FFE1CFD9FFB4
:10105000FE0EDB5002010B15106EFE0EDB50105C15
:1010600004E1FE0EDB500D1502E0000E01D0010E72
:10107000E552E7CFD9FF1200D9CFE6FFE1CFD9FF84
:10108000FE0EDB5002010E15106EFE0EDB50105CE2
:1010900004E1FE0EDB500C1502E0000E01D0010E43
:1010A000E552E7CFD9FF1200D9CFE6FFE1CFD9FF54
:1010B000FE0EDB5002010D15106EFE0EDB50105CB3
:1010C00004E1FE0EDB500B1502E0000E01D0010E14
:1010D000E552E7CFD9FF1200D9CFE6FFE1CFD9FF24
:1010E000FE0EDB5002010C1502E1000E01D0010ED4
:1010F000E552E7CFD9FF1200D9CFE6FFE1CFD9FF04
:10110000FE0EDB5002010B1502E1000E01D0010EB4
:10111000E552E7CFD9FF1200D9CFE6FFE1CFD9FFE3
:10112000050EE12602011D511E5D41E141C221F281
:1011300042C222F243C223F244C224F245C225F243
:1011400046C226F247C227F248C228F249C229F213
:101150004AC22AF24BC22BF24CC22CF24DC22DF2E3
:101160004EC22EF24FC22FF250C230F251C231F2B3
:1011700052C232F253C233F254C234F255C235F283
:1011800056C236F257C237F258C238F259C239F253
:101190005AC23AF25BC23BF25CC23CF25DC23DF223
:1011A0005EC23EF25FC23FF260C240F217D0210E33
:1011B000E66E020EE66E200EE66EE66A1E51200D09
:1011C000F3CF10F0F4CF11F0F3CFE6FFF4CFE6FF4A
:1011D00015EC1BF0126E060EE15E12500201215159
:1011E00028E1200E216F226F236F030EE66E1E2969
:1011F000E66E210EE66E020EE66ED7EC0EF0E552BC
:10120000E552E552E5520201256B240E356F300E92
:10121000366F250E376F386FA60E396F320E3A6F64
:10122000010E3B6F3C6F400E3D6F3E6F3F6F500EA7
:10123000406F040E1F6FDF6A060EDF5C57E2DF505F
:10124000EA6A350FE96E020EEA22010EEFCFDBFFEC
:10125000DB50030BE76E020EE7CFDBFFDB50E76EE0
:10126000030EE7CFDBFF010EDB507C0BE840E840CC
:101270003F0BE76E040EE7CFDBFFDBCF10F00F0E66
:10128000E76E1018E8AE02D0103403D0E750D880D3
:10129000105407E2040EDB50E009E76E040EE7CFBE
:1012A000DBFFF70E106E040EDBCFE7FF1050E726D2
:1012B000040EE7CFDBFF010EDB50800B800802E15C
:1012C000DFCF1FF2DF50EA6A610FE96E020EEA22F9
:1012D000030EDBCFEFFFDF50EA6A6D0FE96E020EFF
:1012E000EA22040EDBCFEFFFDF2AA6D702011D5151
:1012F0001E5D02E120C21FF2050EE15C02E2E16A1E
:10130000E552E16EE552E7CFD9FF1200D9CFE6FFF3
:10131000E1CFD9FFE652DF6A060EDF5C09E2DF505B
:10132000EA6A350FE96E020EEA22EF9EDF2AF4D751
:1013300002011F51EA6A350FE96E020EEA22EF8EB2
:10134000210EE66E020EE66E200EE66EE66A1D5176
:10135000200DF3CF10F0F4CF11F0F3CFE6FFF4CF70
:10136000E6FF80EC1BF0126E060EE15E1250E552B5
:10137000E552E7CFD9FF1200D9CFE6FFE1CFD9FF81
:10138000FD0EDBCFE6FFFE0EDBCFE6FFE66A0B0EBF
:10139000E66EF3EC1AF0E552E552E552E552E552FD
:1013A000E7CFD9FF12000201010E1C6F7F0EE66E1F
:1013B000510EE66EE1DFE552E552CAEF0FF0020191
:1013C0001C6BE66A510EE66ED7DFE552E552CAEFB6
:1013D0000FF002011C5101E0F2DF1200D9CFE6FF4D
:1013E000E1CFD9FF020EE126DF6A010EF36EFE0E99
:1013F000DB5004E0D890F336E806FCE1F350E76EEA
:10140000010EE7CFDBFF02011F51EA6A3B0FE96ED5
:10141000020EEA22010EDB50EF1A010EDBCFE6FFCF
:101420001F51EA6A3B0FE96E020EEA22EF50E552C5
:10143000E71402E07F0EDF6EDFCFE6FFFE0EDB502B
:10144000EA6A000FE96E020EEA22EF50E66E94DFC0
:10145000E552E55221C241F222C242F223C243F2D6
:1014600024C244F225C245F226C246F227C247F200
:1014700028C248F229C249F22AC24AF22BC24BF2D0
:101480002CC24CF22DC24DF22EC24EF22FC24FF2A0
:1014900030C250F231C251F232C252F233C253F270
:1014A00034C254F235C255F236C256F237C257F240
:1014B00038C258F239C259F23AC25AF23BC25BF210
:1014C0003CC25CF23DC25DF23EC25EF23FC25FF2E0
:1014D00040C260F2CAEC0FF0020EE15C02E2E16A87
:1014E000E552E16EE552E7CFD9FF1200D9CFE6FF12
:1014F000E1CFD9FFE65202011F51EA6A3B0FE96EC4
:10150000020EEA22EFCFDFFFC00E1015106E3F0E65
:10151000DF141010106F400EDF1402E07F0E01D0B8
:10152000000EE66E5A0EE66E27DFE552E552100E0B
:10153000DF1402E07F0E01D0000EE66E580EE66E5C
:101540001BDFE552E552040EDF1402E07F0E01D0EE
:10155000000EE66E560EE66E0FDFE552E552020E05
:10156000DF1402E07F0E01D0000EE66E550EE66E2F
:1015700003DFE552E552080EDF1402E07F0E01D0D2
:10158000000EE66E570EE66EF7DEE552E552010EEE
:10159000DF1402E07F0E01D0000EE66E540EE66E00
:1015A000EBDEE552E552200EDF1402E07F0E01D0A3
:1015B000000EE66E590EE66EDFDEE552E552800E55
:1015C000DF1402E07F0E01D0000EE66E5B0EE66EC9
:1015D000D3DEE552E552E552E552E7CFD9FF1200DE
:1015E000D9CFE6FFE1CFD9FFE65202011F51EA6AE7
:1015F0006D0FE96E020EEA22EF50790FDF6EDF50B9
:101600007F0802E27F0EDF6E000EDF5C01E2DF6A20
:10161000DFCFE6FF5C0EE66EE66A0B0EE66EF3ECDD
:101620001AF0E552E552E552E552E552E552E7CFB0
:10163000D9FF120002011F51EA6A610FE96E020E22
:10164000EA22EF50E824E66E010EE66E0C0EE66E1E
:10165000D7EC1AF0E552E552E5521200D9CFE6FF79
:10166000E1CFD9FF020EE12602011D511E5D0DE002
:10167000D16B1EC2E6FFE66A0C0EE66ED7EC1AF0DE
:10168000E552E552E5521EC21DF221C241F222C2CC
:1016900042F223C243F224C244F225C245F226C2DA
:1016A00046F227C247F228C248F229C249F22AC2AA
:1016B0004AF22BC24BF22CC24CF22DC24DF22EC27A
:1016C0004EF22FC24FF230C250F231C251F232C24A
:1016D00052F233C253F234C254F235C255F236C21A
:1016E00056F237C257F238C258F239C259F23AC2EA
:1016F0005AF23BC25BF23CC25CF23DC25DF23EC2BA
:101700005EF23FC25FF240C260F21FC220F2DF6AA7
:10171000060EDF5C24E2DF50EA6A610FE96E020E1A
:10172000EA22EF50E66EDF50EA6A670FE96E020EBA
:10173000EA22E552E750EF6EDF50EA6A6D0FE96E7C
:10174000020EEA22EF50E66EDF50EA6A730FE96E8E
:10175000020EEA22E552E750EF6EDF2AD9D70201E6
:101760001F51EA6A610FE96E020EEA22EF50E82487
:10177000E66E010EE66E0C0EE66ED7EC1AF0E55240
:10178000E552E5522DDFB2DECAEC0FF0020EE15C4D
:1017900002E2E16AE552E16EE552E7CFD9FF1200BD
:1017A000D9CFE6FFE1CFD9FFBBC2BCF2FE0EDBCF43
:1017B0001FF254DFE552E7CFD9FF120002010A05FC
:1017C00008E1BB51EA6A7C0FE96E020EEA22EFCF14
:1017D0001EF21D511E5D05E0D15104E1010ED16FD5
:1017E00001D0D16B8CEF08F0E9DF0201D15101E1AA
:1017F000BCDBCAEF0FF0D9CFE6FFE1CFD9FFE6524D
:10180000FE0EDBCF0AF202010A051EE1790EE66E3A
:10181000020EE66E400EE66EE66AB951400DF3CF59
:1018200010F0F4CF11F0000E1026100E112210C08F
:10183000E6FF11C0E6FF15EC1BF0126E060EE15E2E
:1018400012500201BB6BD0DFA5DBE552E552E7CFBA
:10185000D9FF1200D9CFE6FFE1CFD9FF08C209F2C4
:10186000FE0EDBCF08F296DBE552E7CFD9FF120080
:10187000D9CFE6FFE1CFD9FFE65202011F51EA6A54
:10188000350FE96E020EEA22EFCFDFFFDF90DF9225
:10189000FE0EDB50030BDF121F51EA6A350FE96EB3
:1018A000020EEA22DFCFEFFF1F51EA6A610FE96EF5
:1018B000020EEA22FE0EDBCFEFFF1F51EA6A610F34
:1018C000E96E020EEA22EF50E66E1F51EA6A670FD8
:1018D000E96E020EEA22E552E750EF6E21C241F2B4
:1018E00022C242F223C243F224C244F225C245F28C
:1018F00026C246F227C247F228C248F229C249F25C
:101900002AC24AF22BC24BF22CC24CF22DC24DF22B
:101910002EC24EF22FC24FF230C250F231C251F2FB
:1019200032C252F233C253F234C254F235C255F2CB
:1019300036C256F237C257F238C258F239C259F29B
:101940003AC25AF23BC25BF23CC25CF23DC25DF26B
:101950003EC25EF23FC25FF240C260F26BDE1ADB53
:10196000E552E552E7CFD9FF1200D9CFE6FFE1CF2C
:10197000D9FFE65202011F51EA6A350FE96E020EE5
:10198000EA22EFCFDFFFFE0EDBCF10F0E70EE76EAF
:101990001018E8AE02D0E73402D0E750105C02E243
:1019A000E70E0FD0FE0EDBCF10F0060EE76E10181C
:1019B000E8AE02D0103403D0E750D880105405E2CE
:1019C000060EF36EFE0EF3CFDBFF000EDF94DF9604
:1019D000DF98DF9ADF9CFE0EDB50090F1F0B040D12
:1019E000F350DF121F51EA6A350FE96E020EEA2248
:1019F000DFCFEFFF1F51EA6A6D0FE96E020EEA2298
:101A0000FE0EDBCFEFFF1F51EA6A730FE96E020E85
:101A1000EA22FE0EDBCFEFFF21C241F222C242F2E8
:101A200023C243F224C244F225C245F226C246F242
:101A300027C247F228C248F229C249F22AC24AF212
:101A40002BC24BF22CC24CF22DC24DF22EC24EF2E2
:101A50002FC24FF230C250F231C251F232C252F2B2
:101A600033C253F234C254F235C255F236C256F282
:101A700037C257F238C258F239C259F23AC25AF252
:101A80003BC25BF23CC25CF23DC25DF23EC25EF222
:101A90003FC25FF240C260F2A3DD7CDAE552E5525C
:101AA000E7CFD9FF1200D9CFE6FFE1CFD9FF030E70
:101AB000E1260201010E0A6F086B096BDF6A040E52
:101AC000DF5C17E2EA6ADF34FE0BEA36E96E0F0EDE
:101AD000E926020EEA22EE52EF6AEA6ADF34FE0BD2
:101AE000EA36E96E0F0EE926020EEA22EF6ADF2AD5
:101AF000E6D70201BA6BBC6BB96BBB6B176B186B8B
:101B000019691A69C76BC96BCB6BCD6BCF6BD16B86
:101B1000D56BD76BC66B1C6B1B6B1F6B1D691E6B6C
:101B2000540E006F550E016F560E026F570E036F65
:101B3000580E046F590E056F5A0E066F5B0E076F35
:101B40003B6B100E3C6F3D6B3E6F3F6B406FDF6A2F
:101B5000040EDF5C18E2DFCFE6FFB3EC1AF0E552CB
:101B6000F3CF10F0F4CF11F0EA6ADF34FE0BEA365F
:101B7000E96EBE0EE926020EEA22F3CFEEFF11C097
:101B8000EDFFDF2AE5D7DF6A140EDF5C4BE2DF50A2
:101B9000F76A1B0FF66E3D0EF7220800F550E66E51
:101BA000DF500201EA6ABE25E96EBF51EA22E55222
:101BB000E750EF6EDF50F76A1B0FF66E3D0EF7220F
:101BC0000800F550E66EDF50EA6AC025E96EC151A3
:101BD000EA22E552E750EF6EDF50F76A060FF66E25
:101BE0003D0EF7220800F550E66EDF50EA6AC22586
:101BF000E96EC351EA22E552E750EF6EDF50F76A13
:101C00001B0FF66E3D0EF7220800F550E66EDF5012
:101C1000EA6AC425E96EC551EA22E552E750EF6E43
:101C2000DF2AB2D7B7D9010EE66EE5DDE552DCDD7D
:101C300015DD030EE15C02E2E16AE552E16EE55278
:101C4000E7CFD9FF12000201C951000810E2CA050E
:101C50000EE0C92BC951106E116AD890115004E6DC
:101C6000FF0E105C000E115802E3800EC96FCB51BD
:101C7000000810E2CC050EE0CB2BCB51106E116AA0
:101C8000D890115004E6FF0E105C000E115802E3CC
:101C9000800ECB6FC751000810E2C8050EE0C72BBD
:101CA000C751106E116AD890115004E6FF0E105CF7
:101CB000000E115802E3800EC76FCD51000810E2EC
:101CC000CE050EE0CD2BCD51106E116AD89011507B
:101CD00004E6FF0E105C000E115802E3800ECD6F7B
:101CE000CF51000810E2D0050EE0CF2BCF51106E7F
:101CF000116AD890115004E6FF0E105C000E1158C6
:101D000002E3800ECF6FD55100080AE2D60508E045
:101D1000D52B370ED55D04E32D0ED56F010ED76F91
:101D2000D151000810E2D2050EE0D12BD151106E36
:101D3000116AD890115004E6FF0E105C000E115885
:101D400002E3800ED16FD351000810E2D4050EE0FB
:101D5000D32BD351106E116AD890115004E6FF0EA8
:101D6000105C000E115802E3800ED36FC65101E0E3
:101D7000C60712007F0E02011E5D01E01E2BF4EF6C
:101D80000BF002011E5101E01E07F4EF0BF00201FF
:101D9000795101E112007905BB5D01E2BB2BF4EF43
:101DA0000BF00201BB5101E0BB07F4EF0BF0D9CF00
:101DB000E6FFE1CFD9FF0A0E126E0C6EFC0EDBCFF0
:101DC00007F06AEC1FF00350300FE66EFB0EDBCF1E
:101DD000F3FFDB06F350106E116A10BE1168FD0EA2
:101DE000DB501024E96EFE0EDB501120EA6EE55246
:101DF000E750EF6E0A0E106E0C6EFC0EDBCF07F094
:101E00006AEC1FF0FC0E07C0DBFF07500008D3E3AD
:101E1000FB0EDB50E552E7CFD9FF1200D9CFE6FF2A
:101E2000E1CFD9FF040EE126030EDB6A0A0E146E21
:101E30000C6EFC0EDBCF07F06AEC1FF00350300F86
:101E4000E66ED9CF10F0DACF11F0030EDBCFF3FF3F
:101E5000DB2AF350126E136A12BE1368105012245C
:101E6000E96E11501320EA6EE552E750EF6E0A0E4C
:101E7000106E0C6EFC0EDBCF07F06AEC1FF0FC0E50
:101E800007C0DBFF07500008D1E3030EDB06030E9B
:101E9000DBCF10F0103428E2D9CF12F0DACF13F0F4
:101EA000030EDBCF14F0156A14BE1568125014240B
:101EB000E96E13501520EA6EEF50E66EFB0EDBCF95
:101EC00010F0116A10BE1168FD0EDB501024E96E8F
:101ED000FE0EDB501120EA6EE552E750EF6E030E66
:101EE000DB06FB0EDB2AD3D7FB0EDB50106E040E95
:101EF000E15C02E2E16AE552E16E1050E552E7CFA3
:101F0000D9FF120002010851E96EEA6AD890E93659
:101F1000EA360F0EE926020EEA22EE52EFCF10F05B
:101F200010C011F0106A0851E96EEA6AD890E936DB
:101F3000EA360F0EE926020EEA22EF501010176F54
:101F400011C018F21951171902E11A5118190CE0B1
:101F500017C2E6FF18C2E6FF99EC1AF0E552E55207
:101F600017C219F218C21AF21200C00E02010F15A0
:101F7000106E010E1FC2E7FFE75204E0E846FE0BB9
:101F8000E706FCE1101002010F6F1200C00E020103
:101F90000F171200D9CFE6FFE1CFD9FF0A0EE126D5
:101FA000DE52010EDD6E02011F51EA6A3B0FE96E3F
:101FB000020EEA22020EEFCFDBFF030EDB6A0851AE
:101FC0004AE0080529E1DF6ADFCF10F0140EE76E62
:101FD0001018E8AE02D0E73402D0E750105C6DE292
:101FE000DFCFF6FFF76AF6BEF768F10EF6263C0E75
:101FF000F7220800F550E66EDFCF10F0116A10BE30
:102000001168C4511024E96EC5511120EA6EE552E1
:10201000E750EF6EDF2AD8D7020E085D22E1110EDD
:10202000EA6ABE25E96EBF51EA22530EEF6E120E28
:10203000EA6ABE25E96EBF51EA22430EEF6E310E09
:102040001F25E66E130EEA6ABE25E96EBF51EA222D
:10205000E552E750EF6E010EF36E030EF3CFDBFF98
:102060002CD0030E085D29E1DF6ADFCF10F0140EDB
:10207000E76E1018E8AE02D0E73402D0E750105CEB
:102080001CE2DFCFF6FFF76AF6BEF768DC0EF62635
:102090003C0EF7220800F550E66EDFCF10F0116A13
:1020A00010BE1168C4511024E96EC5511120EA6EAA
:1020B000E552E750EF6EDF2AD8D702010A512DE131
:1020C000DF6ADFCF10F0140EE76E1018E8AE02D012
:1020D000E73402D0E750105C1CE2DFCFF6FFF76A6E
:1020E000F6BEF768C70EF6263C0EF7220800F5503C
:1020F000E66EDFCF10F0116A10BE1168C0511024D7
:10210000E96EC1511120EA6EE552E750EF6EDF2A09
:10211000D8D7130EE66E1E2972D07B417F0BE76E77
:10212000040EE7CFDBFF7A51E00BE838E840106E91
:10213000010E7B15080DF3501010E76E050EE7CF6A
:10214000DBFF1F0E7A15E76E060EE7CFDBFFDF6AB7
:10215000DFCF10F0140EE76E1018E8AE02D0E734AF
:1021600002D0E750105C1CE2DFCFF6FFF76AF6BE44
:10217000F768B20EF6263C0EF7220800F550E66E20
:10218000DFCF10F0116A10BE1168C0511024E96E43
:10219000C1511120EA6EE552E750EF6EDF2AD8D721
:1021A000030EE66E040EDB500E0FE66EC0C2E6FFB5
:1021B000C1C2E6FFFCDDE552E552E552E552060EEE
:1021C000E66E050EDB28E66EC0C2E6FFC1C2E6FF82
:1021D000EEDDE552E552E552E552090EE66E060ED9
:1021E000DB28E66EC0C2E6FFC1C2E6FFE0DDE552D5
:1021F000E552E552E552130EE66E0201BB29E66E8A
:10220000C0C2E6FFC1C2E6FFD2DDE552E552E552AB
:10221000E552DF6ADFCF10F0140EE76E1018E8AE5B
:1022200002D0E73402D0E750105C34E2DFCF10F088
:10223000116A10BE11680201BE511024E96EBF512F
:102240001120EA6E200EEF6EDFCFE9FFEA6AE9BEE9
:10225000EA68210EE926020EEA22EF50E66EDFCF91
:1022600010F0116A10BE1168C2511024E96EC351FA
:102270001120EA6EE552E750EF6EDFCFE9FFEA6A20
:10228000E9BEEA68210EE926020EEA22EF5002E0DA
:10229000DF2AC0D7DFCF10F0140EE76E1018E8AEBB
:1022A00002D0E73402D0E750105C1DE2DFCF10F01F
:1022B000116A10BE11680201BE511024E96EBF51AF
:1022C0001120EA6E200EEF6EDFCF10F0116A10BE03
:1022D0001168C2511024E96EC3511120EA6E200E1C
:1022E000EF6EDF2AD7D7030EDB505EE0DE52010E21
:1022F000DD6EDF6ADFCF10F0140EE76E1018E8AE67
:1023000002D0E73402D0E750105C1DE2DFCFF6FFC9
:10231000F76AF6BEF7689D0EF6263C0EF722080017
:10232000F550E66EDFCF10F0116A10BE11680201A1
:10233000C4511024E96EC5511120EA6EE552E750F0
:10234000EF6EDF2AD7D7DF6ADFCF10F0080EE76E17
:102350001018E8AE02D0E73402D0E750105C24E257
:10236000010EDBCFE6FF020EDB50E552E714106EE4
:10237000010EDB50105C0FE1DF50E824020F106EFD
:10238000116A10BE11680201C4511024E96EC551D2
:102390001120EA6EEF9ADF2A010EDBCFF3FFF39EE6
:1023A000F346F3CFDBFFD0D702011C5129E0DF6AEF
:1023B000DFCF10F0040EE76E1018E8AE02D0E7345D
:1023C00002D0E750105C1CE2DFCFF6FFF76AF6BEE2
:1023D000F768980EF6263C0EF7220800F550E66ED8
:1023E000DFCF10F0116A10BE1168BE511024E96EE3
:1023F000BF511120EA6EE552E750EF6EDF2AD8D7C1
:10240000020E085D0FE11F51EA6A610FE96E020ECC
:10241000EA22070EEFCFDBFF1F51EA6A6D0FE96E6C
:10242000020E0ED02051EA6A670FE96E020EEA2210
:10243000070EEFCFDBFF2051EA6A730FE96E020E41
:10244000EA22080EEFCFDBFFDB50E76E090EE7CF85
:10245000DBFF060EEA6ABE25E96EBF51EA22430E93
:10246000EF6E070EEA6ABE25E96EBF51EA22480EFA
:10247000EF6E070EDB50310FE66E080EEA6ABE25DE
:10248000E96EBF51EA22E552E750EF6E080EDB50CD
:1024900008E10B0EEA6ABE25E96EBF51EA22200E62
:1024A00015D0080EDBCF10F0000EE76E1018E8AE66
:1024B00002D0103403D0E750D880105409E20B0E3C
:1024C000EA6ABE25E96EBF51EA222B0EEF6E0ED0EE
:1024D0000B0EEA6ABE25E96EBF51EA222D0EEF6EA1
:1024E000080EDB50FF0D090EF3CFDBFF0C0EE66E7E
:1024F000090EDBCFE6FFBEC2E6FFBFC2E6FF8EDC01
:10250000E552E552E552E55202011D511E5D1DE006
:10251000100EDF6EDFCF10F0140EE76E1018E8AE6D
:1025200002D0E73402D0E750105C0FE2DFCF10F0AA
:10253000116A10BE1168BE511024E96EBF511120FE
:10254000EA6E2A0EEF6EDF2AE5D7020E085D1DE166
:10255000100EDF6EDFCF10F0140EE76E1018E8AE2D
:1025600002D0E73402D0E750105C0FE2DFCF10F06A
:10257000116A10BE1168BE511024E96EBF511120BE
:10258000EA6E440EEF6EDF2AE5D7D3EC1AF00A0E9E
:10259000E15C02E2E16AE552E16EE552E7CFD9FF84
:1025A00012000201085158E10C51109F800B01E00C
:1025B000108F0C51109D400B01E0108D0B510F9DA1
:1025C000400B01E00F8D1D511E5D08E00F0ED1156F
:1025D000106E080E105C02E2D9DC01D0C6DCC00E21
:1025E00002011015106E1F51EA6A3B0FE96E020ED0
:1025F000EA22EF503F0B1010106FCA0501E18AD09C
:102600007F0EC915106E1F0E105C01E283D00F0EF5
:10261000C915106E080E105C10E3C00E1015116E77
:102620000C1D106E1F51EA6A3B0FE96E020EEA2282
:10263000EF5010143F0B11100DD0C00E1015106E7E
:102640001F51EA6A3B0FE96E020EEA22EF500C11AD
:102650003F0B1010106F5ED0080512E10CC212F291
:10266000C00E0B15106E010E1FC2E7FFE75204E00B
:10267000E846FE0BE706FCE110100201116F4AD09C
:10268000020E085D40E11F51EA6A3B0FE96E020E3F
:10269000EA22EFCF14F2F80E0B15116E1F51EA6A01
:1026A000610FE96E020EEA22EF50106E010E105219
:1026B00004E0E846FE0B1006FCE111100201136F66
:1026C000CA0528E07F0EC915106E1F0E105C22E3AC
:1026D0000F0EC915106E080E105C0BE30C1D106E6A
:1026E0001F51EA6A3B0FE96E020EEA22EF50101406
:1026F00008D01F51EA6A3B0FE96E020EEA22EF5042
:102700000C11146F07D0030E085D04E10CC216F221
:102710000BC215F2C6511DE00F0EC615106E080E45
:10272000105C0CE30851E96EEA6AD890E936EA36A3
:102730000F0EE926020EEA22EF8C0BD00851E96E4B
:10274000EA6AD890E936EA360F0EE926020EEA2246
:10275000EF9C82EF0FF0D9CFE6FFE1CFD9FFFE0E5D
:10276000DBCFE6FF0CEC08F0E55200090BE0FD0EB4
:10277000DBCFE6FFEEEC09F0E5520201CA6B010E79
:10278000C96F19D0FE0EDBCFE6FF3CEC08F0E55236
:10279000000911E00201CA050EE07F0EC915106E96
:1027A0001F0E105C08E3CA6BC96BFD0EDBCFE6FFA2
:1027B000EEEC09F0E552E552E7CFD9FF1200E66AE8
:1027C000010EE66EC8DFE552E552010EE66E020E1E
:1027D000E66EC1DFE552E552020EE66E040EE66ECD
:1027E000BADFE552E552030EE66E080EE66EB3DF81
:1027F000E552E552040EE66E100EE66EACDFE552D1
:10280000E552050EE66E200EE66EA5DFE552E552B6
:10281000010EE66E24EC08F0E55200090AE0E66AD3
:10282000D0EC0BF0E552E9EC09F00201010ED36F98
:1028300017D0010EE66E7CEC08F0E552000910E0BE
:102840000201D4050DE07F0ED315106E4C0E105C06
:1028500007E3020EE66E2AEC0CF0E5520201D36BA0
:10286000020EE66E24EC08F0E55200090BE0010EC2
:10287000E66ED0EC0BF0E552E9EC09F00201010E36
:10288000D36F17D0020EE66E7CEC08F0E55200091B
:1028900010E00201D4050DE07F0ED315106E4C0E32
:1028A000105C07E3020EE66E2AEC0CF0E552020122
:1028B000D36B040EE66E24EC08F0E55200090BE041
:1028C000020EE66ED0EC0BF0E552E9EC09F00201E5
:1028D000010ED36F17D0040EE66E7CEC08F0E552C3
:1028E000000910E00201D4050DE07F0ED315106E33
:1028F0004C0E105C07E3020EE66E2AEC0CF0E5527B
:102900000201D36B080EE66E24EC08F0E5520009D4
:102910000BE0030EE66ED0EC0BF0E552E9EC09F0AB
:102920000201010ED36F17D0080EE66E7CEC08F0A2
:10293000E552000910E00201D4050DE07F0ED31529
:10294000106E4C0E105C07E3020EE66E2AEC0CF0E3
:10295000E5520201D36B100EE66E24EC08F0E5524E
:1029600000090BE0040EE66ED0EC0BF0E552E9EC4A
:1029700009F00201010ED36F17D0100EE66E7CEC49
:1029800008F0E552000910E00201D4050DE07F0EC9
:10299000D315106E4C0E105C07E3020EE66E2AECA7
:1029A0000CF0E5520201D36B200EE66E24EC08F029
:1029B000E55200090BE0050EE66ED0EC0BF0E55297
:1029C000E9EC09F00201010ED36F17D0200EE66E7C
:1029D0007CEC08F0E552000910E00201D4050DE09E
:1029E0007F0ED315106E4C0E105C07E3020EE66EE0
:1029F0002AEC0CF0E5520201D36B400EE66E24EC9B
:102A000008F0E552000904E00201010ECD6F1CD070
:102A1000400EE66E7CEC08F0E55200090CE0020185
:102A2000CE0509E07F0ECD15106E4C0E105C03E351
:102A3000D3EC09F007D0400EE66E54EC08F0E552F6
:102A4000000902E00201CD6B400EE66E24EC08F0B6
:102A5000E55200090BE002011B1D7F0B1B6FE66EA8
:102A6000500EE66EBCEC09F0E552E552800EE66EC3
:102A700024EC08F0E552000915E002011D511E5D2D
:102A80000BE01DC21EF2BCC2BBF2DEEC0BF020C29A
:102A90001FF2CAEC0FF002D0E9EC09F00201010EBE
:102AA000CF6F20D0800EE66E7CEC08F0E552000976
:102AB00010E00201D0050DE07F0ECF15106E4C0E18
:102AC000105C07E3CF6B010EE66E2AEC0CF0E552CA
:102AD00009D0800EE66E54EC08F0E552000902E0E1
:102AE0000201CF6B02010A5141E1800EE66E0CEC4F
:102AF00008F0E552000904E00201010ED56F15D07F
:102B0000800EE66E3CEC08F0E552000903E002019D
:102B1000D56B0DD0800EE66E6CEC08F0E552000926
:102B200006E00201D75103E0D76BBAEC0EF0400E7D
:102B3000E66E0CEC08F0E552000904E00201010E1B
:102B4000D56F12D0400EE66E3CEC08F0E55200095D
:102B500042E1400EE66E6CEC08F0E55200094BE0F5
:102B60000201D75148E0D76BC1EF0EF0800EE66E40
:102B70000CEC08F0E552000904E00201010ED56FEB
:102B800015D0800EE66E3CEC08F0E552000903E03B
:102B90000201D56B0DD0800EE66E6CEC08F0E552AC
:102BA000000906E00201D75103E0D76BC7EC0EF035
:102BB000400EE66E0CEC08F0E552000905E002015B
:102BC000010ED56FD1EF0EF0400EE66E3CEC08F032
:102BD000E552000903E00201D56B1200400EE66EDB
:102BE0006CEC08F0E552000906E00201D75103E061
:102BF000D76BD1EC0EF01200E66A010EE66EABDD8B
:102C0000E552E552010EE66E020EE66EA4DDE552D7
:102C1000E552020EE66E040EE66E9DDDE552E552CB
:102C2000030EE66E080EE66E96DDE552E552040EE2
:102C3000E66E100EE66E8FDDE552E552050EE66E8D
:102C4000200EE66E88DDE552E552060EE66E400E79
:102C5000E66E81DDE552E552070EE66E800EE66E09
:102C60007ADDE552E552010EE66E24EC08F0E552FD
:102C7000000904E0E66A38EC0CF0E552020EE66E5C
:102C800024EC08F0E552000905E0010EE66E38EC90
:102C90000CF0E552040EE66E24EC08F0E552000953
:102CA00005E0020EE66E38EC0CF0E552080EE66E1A
:102CB00024EC08F0E55200090CE002011F51EA6A19
:102CC0006D0FE96E020EEA22EF04E66EB5EC0CF031
:102CD000E552100EE66E24EC08F0E55200090CE017
:102CE00002011F51EA6A6D0FE96E020EEA22EF2817
:102CF000E66EB5EC0CF0E552200EE66E24EC08F022
:102D0000E552000911E002011F51EA6A6D0FE96EF8
:102D1000020EEA22EF50030803E0030EE66E01D034
:102D2000E66AB5EC0CF0E552400EE66E24EC08F0D5
:102D3000E55200090AE086EC09F00201500EC66F68
:102D400009C2E6FF2AEC0CF0E552800EE66E24EC98
:102D500008F0E552000905E009C2E6FF2AEC0CF094
:102D6000E5521200D9CFE6FFE1CFD9FFE6520201CA
:102D70007951BB5D1CE27951000819E2BB29DF6E75
:102D80007951DF5C13E2DF50EA6A7C0FE96E020ED4
:102D9000EA22EF50E66EDF04EA6A7C0FE96E020E6B
:102DA000EA22E552E750EF6EDF2AEAD77907E552CB
:102DB000E552E7CFD9FF1200800EE66E24EC08F052
:102DC000E552000904E0E66A2AEC0CF0E552010E37
:102DD000E66E24EC08F0E552000906E0E66AD0EC65
:102DE0000BF0E552E9EC09F0020EE66E24EC08F077
:102DF000E552000907E0010EE66ED0EC0BF0E5525B
:102E0000E9EC09F0040EE66E24EC08F0E552000946
:102E100007E0020EE66ED0EC0BF0E552E9EC09F0AB
:102E2000080EE66E24EC08F0E552000907E0030EF8
:102E3000E66ED0EC0BF0E552E9EC09F0100EE66E10
:102E400024EC08F0E552000907E0040EE66ED0EC31
:102E50000BF0E552E9EC09F0200EE66E24EC08F0E8
:102E6000E552000907E0050EE66ED0EC0BF0E552E6
:102E7000E9EC09F0010EE66E0CEC08F0E5520009F1
:102E800007E0010E02010A19E66EFBEC0BF0E552B9
:102E9000020EE66E0CEC08F0E5520009040EE66E38
:102EA0000CEC08F0E5520009080EE66E0CEC08F098
:102EB000E5520009100EE66E0CEC08F0E552000930
:102EC00006E002010A0503E14DDFF4EC0BF0200EF1
:102ED000E66E0CEC08F0E55200090CE002010A0570
:102EE00009E1BBC2BDF2030EE66E2AEC0CF0E5521E
:102EF000CAEC0FF0400EE66E24EC08F0E552000933
:102F000004E00201010EC76F1FD0400EE66E7CEC9C
:102F100008F0E55200090FE00201C8050CE07F0E41
:102F2000C715106E4C0E105C06E386EC09F002012A
:102F3000500EC66F08D0400EE66E54EC08F0E55215
:102F4000000902E00201C76B02010A5144E1800E50
:102F5000E66E0CEC08F0E552000904E00201010EF7
:102F6000D56F15D0800EE66E3CEC08F0E5520009F6
:102F700003E00201D56B0DD0800EE66E6CEC08F01C
:102F8000E552000906E00201D75103E0D76BBAEC25
:102F90000EF0400EE66E0CEC08F0E552000904E07D
:102FA0000201010ED56F15D0400EE66E3CEC08F024
:102FB000E552000903E00201D56B1200400EE66EF7
:102FC0006CEC08F0E552000928E00201D75125E039
:102FD000D76BC1EF0EF0800EE66E0CEC08F0E552F8
:102FE00000090AE01F0E0201B95D06E2B92B0AC210
:102FF000E6FFFBEC0BF0E552400EE66E0CEC08F041
:10300000E55200090AE00201B951000806E2B907D9
:103010000AC2E6FFFBEC0BF0E5521200D9CFE6FF47
:10302000E1CFD9FFE652800EE66E24EC08F0E552BF
:10303000000905E0010EE66E2AEC0CF0E552800E68
:10304000E66E0CEC08F0E552000904E00201010E06
:10305000D56F15D0800EE66E3CEC08F0E552000905
:1030600003E00201D56B0DD0800EE66E6CEC08F02B
:10307000E552000906E00201D75103E0D76BC7EC27
:103080000EF0400EE66E0CEC08F0E552000904E08C
:103090000201010ED56F15D0400EE66E3CEC08F033
:1030A000E552000903E00201D56B0DD0400EE66E3B
:1030B0006CEC08F0E552000906E00201D75103E08C
:1030C000D76BD1EC0EF0400EE66E24EC08F0E55222
:1030D000000929E00201BB51EA6A7C0FE96E020E89
:1030E000EA22EFCFDFFFBD51EA6A7C0FE96E020EE4
:1030F000EA22EF50E66EBB51EA6A7C0FE96E020EDF
:10310000EA22E552E750EF6EBD51EA6A7C0FE96EA4
:10311000020EEA22DFCFEFFFBDC2BBF2010EE66E68
:103120002AEC0CF0E552E552E552E7CFD9FF120048
:10313000D9CFE6FFE1CFD9FF020EE1263EEC1AF02F
:10314000F3CFDEFFF4CFDDFFDECF10F0DDCF11F0E7
:10315000105002010B6FDECF10F0DDCF11F011C067
:1031600010F0116A10500C6F085103E1DFEC13F0FE
:103170000DD0080502E120DE09D0020E085D02E153
:103180003BDD04D0030E085D01E148DFD1EC12F015
:103190000BC20DF20CC20EF2020EE15C02E2E16A19
:0C31A000E552E16EE552E7CFD9FF1200C6
:0431AC00D9CFE6FF92
:1031B000E1CFD9FFFE0EDBCFE6FFDEEC1EF0E552DD
:1031C000E552E7CFD9FF1200D9CFE6FFE1CFD9FF13
:1031D000E652080EDF6E898489948992FD0EDBBE6B
:1031E00002D0899601D08986DBCFF3FFF39EF346A8
:1031F000F3CFDBFF8982DF06F0E1080EDF6E8992F4
:10320000FE0EDBBE02D0899601D08986DBCFF3FFAC
:10321000F39EF346F3CFDBFF8982DF06F0E189847A
:10322000100EDF6EDF5002E0DF06FCD7899489863E
:103230008982E552E552E7CFD9FF1200D9CFE6FFE8
:10324000E1CFD9FF050EE126030EDB6ADE52010E47
:10325000DD6EDF6A080EDF5C22E2DFCFE6FFF9D821
:10326000E552050EF36E020EF3CFDBFFDB5003E0F9
:10327000020EDB06FBD784A209D0030EDBCFE7FFEB
:10328000010EDB50E712030EE7CFDBFF010EDBCFB1
:10329000F3FFF39EF346F3CFDBFFDF2ADBD7040E09
:1032A000DB6ADE52010EDD6E080EDF6E100EDF5C93
:1032B00022E2DFCFE6FFCDD8E552050EF36E020E17
:1032C000F3CFDBFFDB5003E0020EDB06FBD784A26B
:1032D00009D0040EDBCFE7FF010EDB50E712040E2E
:1032E000E7CFDBFF010EDBCFF3FFF39EF346F3CF17
:1032F000DBFFDF2ADBD701014B6B01014A6BD950A1
:10330000030FE96EDACFEAFFEF50010B02E1010192
:103310004B85D950030FE96EDACFEAFFEF50020B6D
:1033200002E101014B83D950030FE96EDACFEAFFC6
:10333000EF50040B02E101014B81D950030FE96EFC
:10334000DACFEAFFEF50080B02E101014B87D950B9
:10335000030FE96EDACFEAFFEF50100B02E1010133
:103360004B8FD950030FE96EDACFEAFFEF50200BF5
:1033700002E101014B89D950030FE96EDACFEAFF70
:10338000EF50400B02E101014B8DD950030FE96E64
:10339000DACFEAFFEF50800B02E101014B8BD950ED
:1033A000040FE96EDACFEAFFEF50010B02E10101F1
:1033B0004A85D950040FE96EDACFEAFFEF50020BCD
:1033C00002E101014A83D950040FE96EDACFEAFF26
:1033D000EF50040B02E101014A81D950040FE96E5C
:1033E000DACFEAFFEF50080B02E101014A87D9501A
:1033F000040FE96EDACFEAFFEF50100B02E1010192
:103400004A8FD950040FE96EDACFEAFFEF50200B54
:1034100002E101014A89D950040FE96EDACFEAFFCF
:10342000EF50400B02E101014A8DD950040FE96EC3
:10343000DACFEAFFEF50800B02E101014A8B050E63
:10344000E15C02E2E16AE552E16EE552E7CFD9FFC5
:103450001200D9CFE6FFE1CFD9FF8998899A8D90E4
:103460008990FE0EDBB08988DBB2898ADBB48D805F
:10347000DBB68980E552E7CFD9FF1200D9CFE6FF4E
:10348000E1CFD9FF020EE126126A01014B51121061
:10349000DE6E4AC1DDFFDECF10F0DDCF11F010C0CF
:1034A000F3FF11C0F4FF020EE15C02E2E16AE552B3
:1034B000E16EE552E7CFD9FF1200D9CFE6FFE1CFA9
:1034C000D9FF020EE126DF6A010148B1DF8E48B361
:1034D000DF8C48B5DF8A48B7DF8848B9DF8648BB4C
:1034E000DF8448BDDF8248BFDF80010EDB6A010157
:1034F00049B1DB8E49B3DB8C49B5DB8A49B7DB8840
:1035000049B9DB8649BBDB8449BDDB8249BFDB802F
:10351000DFCFE6FFDBCFE6FF57DEE552E552020ED6
:10352000E15C02E2E16AE552E16EE552E7CFD9FFE4
:103530001200D9CFE6FFE1CFD9FFFE0EDBCF11F0AD
:1035400011C010F011500101486FFF0EE76EFD0E23
:10355000DBCF10F0E7501016116A10C049F1E552A8
:10356000E7CFD9FF1200D9CFE6FFE1CFD9FFFE0E9A
:10357000DB50140DF3CF10F0F4CF11F0B00E102685
:10358000010E112210C0F3FF11C0F4FFE552E7CF86
:10359000D9FF1200D9CFE6FF18840101AF6BE552C5
:1035A000E7CFD9FF120018840101AF6B1200D9CF09
:1035B000E6FFE1CFD9FFFD0EDB500F0B106EFE0EC4
:1035C000DB500F0B100DF3501010E66EDEEC1EF00A
:1035D000E552FC0EDBCFE6FFDEEC1EF0E552E552D5
:1035E000E7CFD9FF1200D9CFE6FFE1CFD9FFFD0E1B
:1035F000DB500F0B106EFE0EDB500F0B100DF35057
:103600001010E66EDEEC1EF0E552FC0EDBCFE6FF9E
:10361000DEEC1EF0E552FB0EDBCFE6FFDEEC1EF02B
:10362000E552E552E7CFD9FF1200D9CFE6FFE1CF4F
:10363000D9FF040EE126FE0EDBCF11F011380F0B7F
:10364000106E010E10C0DBFFD950FD0FE96EFF0EAA
:10365000DA20EA6EEE520F0EED16DF6AFD0EDBCFBA
:1036600006F0FE0EDBCF07F0020E06C0DBFF030EF6
:1036700007C0DBFFDFCF10F0FB0EDBCF11F0FC0E3D
:10368000DBCF12F01150105C000E12542FE2010E2D
:10369000DB50106E116A0C0ED89010361136E80609
:1036A000FBE1000E1026490E1122020EDB50102401
:1036B000F66E030EDB501120F76E0800F550E66E33
:1036C000DF50E76EF90EDBCFE9FFFA0EDBCFEAFF42
:1036D000E750E926000EEA22E552E750EF6EDF2AB6
:1036E000020EDB2A030EC6E3DB2AC4D7040EE15C1C
:1036F00002E2E16AE552E16EE552E7CFD9FF12003E
:10370000D9CFE6FFE1CFD9FF080EE126FE0EDBCFD1
:1037100011F011380F0B106E010E10C0DBFFFD0E03
:10372000DBCF10F0FE0EDBCF11F0FF0E10160F0EE8
:103730001116020E10C0DBFF030E11C0DBFF020EDC
:10374000DBCF10F0030EDBCF11F0C00E1016FF0E12
:103750001116040E10C0DBFF050E11C0DBFFDF6A7F
:10376000400EDF5C29E2010EDB50106E116A0C0E78
:10377000D89010361136E806FBE1000E1026490EEF
:103780001122040EDB501024F66E050EDB501120C2
:10379000F76E0800F550E66EDF50EA6A020FE96E38
:1037A000010EEA22E552E750EF6EDF2A040EDB2A13
:1037B000050ED6E3DB2AD4D7FD0EDBCF10F0FE0ECC
:1037C000DBCF11F0C00E1016FF0E1116040E10C044
:1037D000DBFF050E11C0DBFFFD0EDBCF12F0FE0E8E
:1037E000DBCF13F0040EDB50125C106E050EDB50C5
:1037F0001358116E060E10C0DBFF070E11C0DBFF61
:10380000DF6ADFCF10F0FB0EDBCF11F0FC0EDBCF59
:1038100012F01150105C000E125422E2DF50E76EDD
:10382000F90EDBCFE9FFFA0EDBCFEAFFE750E9261E
:10383000000EEA22EF50E66E060EDBCFE9FF070E20
:10384000DBCFEAFF020EE926010EEA22E552E7503D
:10385000EF6EDF2A060EDB2A070ED3E3DB2AD1D771
:10386000FD0EDBCF00F1FE0EDBCF01F1C00E01013A
:103870000017FF0E0117000E0027490E01236CEC04
:103880001DF017861788080EE15C02E2E16AE55236
:0A389000E16EE552E7CFD9FF120008
:06389A00D9CFE6FFE1CFEB
:1038A000D9FFE652F29EF29C9D908C8EDF6A500EFC
:1038B000DF5C0AE2CD909E90CE6ACF6ACD809EA05A
:1038C000FED79E90DF2AF3D79D80F28EF28CE552D0
:1038D000E552E7CFD9FF1200D9CFE6FFE1CFD9FFFC
:1038E000020EE126010EAFC1DBFFFE0EE66E46D8EA
:1038F000E552450EE66E42D8E552010EDB50030A52
:103900000CE0010A08E0030A04E0010A0AE1E66AA1
:1039100006D0400E03D0140E01D0540EE66E2ED801
:10392000E552DF6A140EDF5C18E2010EDB50140D65
:10393000F3CF10F0F4CF11F0B00E1026010E1122CB
:10394000DF500F011024E96E000E1120EA6EEF50D7
:10395000E66E14D8E552DF2AE5D70101AF2B040E3D
:10396000AF5D02E3AF6B1894020EE15C02E2E16A24
:10397000E552E16EE552E7CFD9FF1200D9CFE6FF5D
:10398000E1CFD9FF2A0E0101A75D0EE2A751EA6A35
:103990007D0FE96E010EEA22FE0EDBCFEFFFA72BB3
:1039A0000101AC5101E104D8E552E7CFD9FF120083
:1039B0000101020EAB6F0101010EAC6FCD90BC0E88
:1039C000CE6EFC0ECF6ECD8012009E90CD907B0E01
:1039D000CE6EFD0ECF6ECD800101AB51030A15E016
:1039E000010A03E0020A40E01200030EAB6F01017E
:1039F000010EAA6F0101A851EA6A7D0FE96E010E5E
:103A0000EA22EFCFA9F18C9E12000101AA5121E117
:103A10008C8E0101A82B0101A7510101A85D0DE3C6
:103A20000101AB6B0101AC6B0101A86B0101A76B3C
:103A3000CD909E90CE6ACF6A1200A851EA6A7D0F9F
:103A4000E96E010EEA22EFCFA9F10101020EAB6F80
:103A500012000101A9A102D08C8E01D08C9EA991E7
:0A3A6000A9430101AA9FAA47120022
:063A6A00550EA76EAA0E26
:103A7000A76EA6821200D9CFE6FFE1CFD9FFE652AA
:103A8000E00E01010017840EA66EFE0EDB50DF6E05
:103A9000FE0EDB50200FDF5C1AE2DF50EA6A020FF5
:103AA000E96E010EEA22EFCF10F0DF500101F76A54
:103AB0000025F66E0151F722F86A10C0F5FF0C00E0
:103AC0001F0EDF141F0801E1D0DFDF2AE1D7E55226
:103AD000E552E7CFD9FF1200940EA66E00C1F6FFA3
:103AE00001C1F7FFF86AC1DFF86A1200D9CFE6FF1B
:103AF000E1CFD9FFA66AFE0EDB50A96EA680A850C2
:103B0000E552E7CFD9FF1200D9CFE6FFE1CFD9FFC9
:103B1000A6A202D0000E0AD0FE0EDB50A96EFD0E4A
:103B2000DB50A86E040EA66EA0DF010EE552E7CFB3
:043B3000D9FF1200A7
:0C3B3400040098EC1EF004004DEC1CF0A6
:103B40000400FE0EE66EBEEC1CF0E552510EE66E71
:103B5000BEEC1CF0E552FE0EE66EBEEC1CF0E5522B
:103B6000520EE66EBEEC1CF0E552140EE66EBEEC94
:103B70001CF0E5521EEC19F053EC0DF00400F28E2F
:103B8000F28C17A605D01796E66A3BEC1DF0E552BD
:103B900017A806D01798200EE66E3BEC1DF0E552F4
:103BA00017A003D0179024EC1FF01850040B05E069
:103BB0000101AB5102E16CEC1CF018A003D018908D
:103BC0001EEC19F017AA03D0179A5DEC1AF017AE85
:103BD00003D0179E98EC18F018A203D0189223EC8B
:0A3BE0000EF0C9EC1EF0CAD7120067
:063BEA00DACFE4FFE2CF98
:103BF000DAFFE9CFE4FFEACFE4FFF6CFE4FFF7CF47
:103C0000E4FFF5CFE4FFF3CFE4FFF4CFE4FFFACF16
:103C1000E4FF00EE00F0100EE80403E3EECFE4FF53
:103C2000FBD700EE10F0060EE80403E3EECFE4FF4E
:103C3000FBD7E6529EA002D0E5EC1CF09EA208D075
:103C40009E9201014C2B040E4C5D02E14C6B1780DF
:103C5000E55200EE15F0060EE80403E3E5CFEDFFB4
:103C6000FBD700EE0FF0100EE80403E3E5CFEDFF05
:103C7000FBD7E5CFFAFFE5CFF4FFE5CFF3FFE5CFC4
:103C8000F5FFE5CFF7FFE5CFF6FFE5CFEAFFE5CF9C
:083C9000E9FFE5CFDAFF1100A6
:083C98004D5554450020206346
:103CA0002D662D702D6F2D642D762D672D712D2095
:103CB0002000323031342D30312D30312020202081
:103CC0002020202320300050726F6772616D202009
:103CD000202020202020202320202000202D2D20E7
:103CE0002D2D202D2D202D2D202D2D202D2D202052
:103CF00000204D44202D2D202D2D202D2D20524DE6
:103D000020535720200050726F6772616D3A202057
:103D100020202020202020202020002020202020C3
:103D200020202020202020202020202020202000B3
:103D300042EC1FF0896A8A6A8B6A8C6A8D6A926A81
:103D4000100E936EF80E946E956A020E966EA60E85
:103D5000AC6E900EAB6E3F0EAF6EB06A400EC26E90
:103D60000E0EC16E060EC06E200EF26E800EF16E4B
:103D7000D08ED76AD66A420ED56ECF6ACE6ACD6A29
:103D8000CC6AF90ECB6E0D0ECA6E030E9D6EF28ECE
:023D900012001F
:0E3D92009EBA120001017B5101017C5D02E12D
:103DA000F4EF1EF09EA812007C51EA6A510FE96EF2
:103DB000010EEA22EF50AD6E7C2B1200D9CFE6FF48
:103DC000E1CFD9FF2A0E01017B5D0AE27B51EA6A4D
:103DD000510FE96E010EEA22FE0EDBCFEFFF7B2BC7
:103DE000E552E7CFD9FF120001017B6B01017C6B2B
:023DF0001200BF
:0E3DF200D9CFE6FFE1CFD9FFFE0EDB50A96E60
:103E0000A69EA69CA680A850E552E7CFD9FF120037
:103E1000D9CFE6FFE1CFD9FFFE0EDB50A96EFD0E34
:103E2000DB50A86EA69EA69CA684F29E550EA76E99
:103E3000AA0EA76EA6820400A6B2FDD7F28EA694A3
:083E4000E552E7CFD9FF1200A3
:083E480001014D2B0A0E4D5D36
:103E500018E14D6B178E178A188201014F2B040E43
:103E60004F5D02E14F6B18800101502B020E505D37
:103E700001E1506B01014E2B640E4E5D02E14E6B71
:043E80001884120090
:0C3E8400EA6AE96A0400EE6AEAA6FCD7CC
:103E90001200000EF36E00EE00F0080E01D81200C2
:103EA000EA6002D0EE6AFCD7F350E9601200EE6AD5
:023EB000FCD73D
:0E3EB20017EE00F027EE00F0F86A0F9CEA6AA7
:103EC000E96A0400EE6AEAA661EF1FF09AEC1DF0C1
:043ED000FDD7120008
:0C3ED400036A080EE76ED890073603362C
:103EE0000C50035C02E3036E072AE72EF7D712009B
:104900004D6F6E6B65797772656E636800000000AD
:104910000000000024302531A63201014040405003
:104920004576656E20466C6F770000000000000041
:104930000000000024302531A632010140404050E3
:104940005A65726F000000000000000000000000C7
:104950000000000024302632A632010140504054AD
:10496000576F6E64657277616C6C00000000000028
:1049700000000000243025B125314141D1C1C1D111
:10498000427564647920486F6C6C79000000000007
:104990000000000024302531A63201014040405083
:1049A000506C7573680000000000000000000000FB
:1049B0000000000024302531A6320999C8D8C8D893
:1049C000436F6D65204F757400000000000000000B
:1049D0000000000024302531A63201014040405043
:1049E00044726976650000000000000000000000CD
:1049F00000000000243025B125314141D1C1C1D191
:104A0000436F6D652041726F756E64000000000099
:104A10000000000024302531A63201014040405002
:104A20005A656E0000000000000000000000000059
:104A3000000000002430252525B10000D0D0C0D0D2
:104A400053616E646D616E000000000000000000A4
:104A500000000000A43026322632010140404050C0
:104A6000437261776C696E6700000000000000000F
:104A7000000000002424AD2D2525010152524040A4
:104A8000536F6E672032000000000000000000003D
:104A900000000000A42426262632C1C1C1C1C1C124
:104AA0005365782054797065205468696E670000FA
:104AB0000000000024302626A6320101404040506C
:104AC0004D72204A6F6E6573000000000000000008
:104AD00000000000243025A525314141D1C1C1D1BC
:104AE000426C756520436172730000000000000095
:104AF0000000000024302626A632191940405050EC
:104B0000496E20426C6F6F6D0000000000000000D5
:104B100000000000A43026262632C1C1C1C1C1C197
:104B20004861736820506970650000000000000053
:104B30000000000024302525A531010140404050EF
:104B40004D79204865726F000000000000000000F1
:104B50000000000024302525A632010140404050CD
:104B60004D616368696E65686561640000000000FE
:104B70000000000024302525A5250101C1C1C1D1B7
:104B8000486F6C696461790000000000000000005B
:104B90000000000024302626A6320101404040508B
:104BA000436C6F73696E672054696D650000000087
:104BB000000000002430252DA53101014050405057
:104BC000427261696E737465770000000000000036
:104BD0000000000024242626A62601014040404073
:104BE000426F756E640000000000000000000000CD
:104BF000000000002430A525252501014040585023
:104C00004920416C6F6E650000000000000000004C
:104C100000000000A43025252531190140404050F6
:104C200043756D626572736F6D6500000000000072
:104C30000000000024302525A531010140404050EE
:104C40004C756D70000000000000000000000000C6
:104C50000000000024302525A531010140404040DE
:104C6000486579204A65616C6F75737900000000B2
:104C70000000000024302525A531010140404050AE
:104C80004B727970746F6E697465000000000000EB
:104C900000000000A430252525310101404040508E
:104CA00044616D6D697400000000000000000000A8
:104CB0000000000024302525A5310101404040506E
:104CC00053656D692D636861726D65640000000055
:104CD0000000000024302525A5310101404040504E
:104CE0004D79204F776E20576F72737420456E6533
:104CF0006D79000024302525A52501014040404064
:104D0000546865204D6964646C6500000000000013
:104D1000000000002430A531212500000000120011
:104D200042756C6C6574000000000000000000001B
:104D300000000000A4241E1E262601015050404001
:104D4000496620596F7520436F756C64204F6E6CF7
:104D50007900000024301D1D25B101015050405044
:104D600042656175746966756C204469736173741A
:104D70006572000024301D1DA525010150504040E2
:104D800042656C6C73000000000000000000000031
:104D90000000000024302525A5310101404040508D
:104DA0004675656C00000000000000000000000077
:104DB0000000000024302525A5310101404040407D
:104DC00000000000000000000000000000000000E3
:104DD00000000000000000000000000000000000D3
:104DE00000000000000000000000000000000000C3
:104DF00000000000000000000000000000000000B3
:105900001A7903090C1D161B230220001A192508F9
:1059100004120B051F21170D1311140A24FFFFFF9A
:10592000FFFFFFFFFFFFFFFFFFFFFFFFFFFFFFFF87
:10593000FFFFFFFFFFFFFFFFFFFFFFFFFFFFFFFF77
:105940000000000000000000000000000000000057
:105950000000000000000000000000000000000047
:020000040030CA
:0100000029D6
:010001000EF0
:0100020026D7
:010005008179
:010006008178
:010008000FE8
:01000900C036
:01000A000FE6
:01000B00E014
:01000C000FE4
:01000D0040B2
:00000001FF
