:020000040000FA
:0600000011EF00F01200F8
:0600080004EF08F01200F5
:080018000CEF08F060EF00F0AE
:020020001200CC
:0E002200938081A002D003D002D060EF00F0E6
:10003000060EF66E100EF76E0900F5CF14F00800EC
:10004000F5CF15F00D0E141802E1600E151802E13F
:0A00500000EF08F060EF00F012006E
:1000C000F26A13EE00F023EE00F0F86AFC6A6DA607
:1000D00002D082EC02F011D80400D3EC06F0E7EC79
:1000E00006F018D8060E0301B45D05E16D50020B51
:1000F00002E195EC00F0F0D71200140E6F6E0301D0
:10010000B46B0301B56B0301B66B8CEC00F08C9003
:1001100095901200120000000001E56BE969EA69A0
:10012000EB69E86B010EEC6F12000001E5511EE176
:10013000040108BF94D10001400EFE6F0001A10E22
:10014000FC6F000EFD6FA2EC06F00001010EE56FE2
:10015000ED6B400EED5D01E382D1ED51EA6A600F77
:10016000E96E000EEA22EF6AED2BF3D70001A151F0
:10017000080A01E171D1040A01E132D1050A01E165
:100180002DD10E0A01E1F6D0010A01E1EDD0030AFA
:1001900001E195D0010A4DE0070A41E0010A01E0C2
:1001A0005CD10001020E606F3A0E616F010E626F4A
:1001B000636F646B100E656F666B676BC00E686F64
:1001C0006D0E696F6A6B6B6B030E6C6F6D6B6E6B94
:1001D000300E6F6F706B0E0E716F726B736B746B92
:1001E000040E756F766B776B200E786F796B080E47
:1001F0007A6F7B6B7C6B7D6B020E7E6F7F6B806B8F
:10020000F00E816F826B836B010E846F856B866B42
:100210008769A50E996F04010CBF21D1DCD00001C4
:10022000010EEC6F0001A25101E013D10001EC6B53
:1002300010D1400E0001E66FE76B000EE65D020E86
:10024000E7591FE22FDAE6C000F0E7C001F0026ACA
:10025000060E1F0BE6C0F6FFE7C0F7FF02C0F8FF6F
:1002600006E0D890F636F736F836E806FAE1940E4E
:10027000A66E24DAE7EC06F00001E62B000EE72379
:10028000DCD7ED6BEDC0A9FFA868040EA66EE7EC05
:1002900006F014DA0001ED51ED2B006E016A026ADE
:1002A000FF0E005C000E0158000E0258EBE3F66AE8
:1002B000F76A200EF86E940EA66E00DACAD0300EE1
:1002C000A45D06E10001EC5101E0C3D092D9C1D098
:1002D000F00EA45D02E1B3D9BCD0E8680001E919D1
:1002E0000CE1E868EA1909E1E868EB1906E1A2C047
:1002F000E9F0A3C0EAF0A4C0EBF0E90EE96E000E4D
:10030000EA6EEE500001A21901E0A3D0EE50A3194D
:1003100001E09FD0EE50A41901E09BD001E099D0FC
:100320000001ED6B0001A6510001ED5D01E391D0EC
:10033000BDD9A70FE96E000EEA22EF50E66EE85134
:10034000EA6A600FE96E030EEA22E552E750EF6EAB
:10035000E82BE92B000EEA23EB23200EE85D01E1F8
:10036000E4D80001ED2BDED7E0D80001E969EA69A5
:10037000EB6970D00001070E606FA2C061F0A3C0EE
:1003800062F0A4C063F0A5C064F0A6C065F0A2C08E
:10039000F6FFA3C0F7FFA4C0F8FF0001ED6B00015A
:1003A000A6510001ED5D14E2F00E0001A45D0AE12A
:1003B000A2510001ED25A96EA66AA68084D9A8CF16
:1003C000EFFF04D071D97FD9F5CFEFFFED2BE7D741
:1003D00004010CBF44D00001400E33D041D839D0C5
:1003E00000010C0E606F010E616F626F160EF66EEB
:1003F000100EF76E0900F5CF63F00A00F5CF64F038
:10040000060E656F100E666F676B686B0D0E696F79
:10041000600E6A6F400E6B6F6C6B6D6B6E6B6F690D
:10042000706971697269736B74697569766B7769E4
:10043000786979697A697B697C6904010CBF0FD09E
:100440000001FA6F0001600EF86F000EF96F7CEC8E
:1004500006F00001E56B120050D80001E56B1200B8
:10046000F66A100EF76EF86A0001EE6B400E00019E
:10047000EE5D0DE209000001EE51EA6A600FE96EDF
:10048000030EEA22F5CFEFFF0001EE2BEFD70301B9
:100490000D0E666F0301600E676FF66A100EF76E41
:1004A000F86A940EA66E0001B50EF46FE8D83F0E00
:1004B000F66E100EF76EF86A00013F0EEE6F000147
:1004C000EE51EA6A600FE96E030EEA22EF50F56E14
:1004D0000C000001EE511F0B07E1E4D8A40EA66E3C
:1004E0000001B50EF46FCBD80A000001EE5101E116
:1004F00003D00001EE07E3D7120004D8FF0000008C
:10050000000012000301B869B9690301B8C300F023
:10051000B9C301F0B807000EB95B0050011004E048
:100520006D926D6ABFD8F1D712000001F06BE8C080
:1005300000F0016A026A00500001E95DF66E0150A8
:100540000001EA59F76E02500001EB59F86E1F0ED8
:10055000F6140001F16FE00EF6160001EF6B200EAD
:100560000001EF5D1FE20001F15115E10001E851CA
:100570000FE00001F051EA6A600FE96E030EEA2213
:10058000EF50F56E0D000001F02B0001E80702D0DE
:10059000F5680D0004D0F5680D000001F1070001B9
:1005A000EF2BDDD70A00A40EA66E0001B50EF46F86
:1005B00066D80001EF6B0001E8510001EF5D18E221
:1005C0000001F0510001EF25EA6A600FE96E030EA9
:1005D000EA22EF50E66E0001EF51EA6A600FE96E21
:1005E000030EEA22E552E750EF6E0001EF2BE3D74E
:1005F0001200A2C0F6FFA3C0F7FFA4C0F8FF0001DD
:10060000F26B0001A6510001F25D18E23A0E000102
:10061000D880A6550001F225EA6AA70FE96E000E00
:10062000EA22EF50F56E0C00C40EA66E0001B50E66
:10063000F46F25D809000001F22BE3D71200000166
:10064000F36B0001A6510001F35D18E20001A25115
:100650000001F325A96E3A0E0001D880A6550001CD
:10066000F325EA6AA70FE96E000EEA22EF50A86EA2
:10067000040EA66E23D80001F32BE3D71200F29EDE
:10068000B50E0001F45D05E0030ED36E0300FED746
:10069000FF00550EA76EAA0EA76EA682A6B2FED7C1
:1006A000A694120004001200090012003A0E000184
:1006B000D880A6550001ED25EA6A12000001B50EAA
:1006C000F46F3FEF03F0F2DF660FE96E000EEA22EF
:1006D00012006C5033E16896040100513C0BE84273
:1006E000E8420D0829E1180E021924E1040E03194D
:1006F00021E1100E026F040E036F0301A96BA951D3
:10070000006E016A080E005C000E015813E2A95148
:10071000EA6A180FE96E040EEA22EF50E66EA9515C
:10072000EA6A100FE96E040EEA22E552E750EF6E16
:10073000A92BE5D70AD8010C3AD8010C040E6C5C41
:1007400003E168964BD8010C000C040104BF046B54
:100750000301A86BA06BA16BA66BA76BC5EC04F0A3
:100760000301AA6BAA51006E016A010E005C000E23
:1007700001581BE2A15119E1AA51F66EF76AD8900F
:10078000F636F736BE0EF6260F0EF7220900F5CF25
:1007900000F00800F5CF01F004D001C0FAFF0050CE
:1007A000F96EFBDF0301AA2BDDD76DEF04F0020E1B
:1007B0000301A05D0EE178D80401180E026F040E4B
:1007C000036F080E016F00BD02D0C80E05D0880E61
:1007D00003D0BCD8CBD88C0E006F1200040E0301DE
:1007E000B45D09E112C46EFF6E50000802E2050E0E
:1007F00001D0030EB46F0301A00510E111D8020E61
:100800000301A85D03E10401840E06D0040104BDC8
:1008100002D0C80E01D0880E046F1200A6EF04F0BB
:100820000301080EA65D000EA7590DE2A6C3ABF3A7
:10083000A7C3ACF3A85102E1010E03D0A80506E15D
:10084000020EA86F03D0080EAB6FAC6B04010493CB
:1008500004910301AC5104010413ABC305F403017B
:10086000AB51A65DA66FAC51A759A76F180EA46F28
:10087000040EA56F0301B5A30ED00301AB51AC115B
:1008800012E0A2C3F6FFA3C3F7FF0800F55063D838
:10089000AB07AC5BF2D70301AB51AC1104E06ED8EF
:1008A000AB07AC5BF8D71200030E0401001503017F
:1008B000AE6F01C4ADF3A651AD25A66FA751AE2111
:1008C000A76F180EA26F040EA36FAD51AE1104E016
:1008D00055D8AD07AE5BF9D712006D980301A15151
:1008E00005E144D8840E006F04011DD0040110AF4F
:1008F0001CD00301A6510401165D0301A751040198
:10090000175904E216C4A6F317C4A7F389DF03013D
:10091000010EA06F2BD8800E006F0401180E066F19
:10092000040E076FC80E046F12000301020EA06FC1
:100930000401056BC80E046F0401080E016F180E48
:10094000026F040E036FC80E006F12000301A06B4C
:100950000401046B1200A4C3E9FFA5C3EAFFEF6E14
:10096000A42B000EA523A22BA32312000401080E22
:10097000016F100E026F040E036F1200A2C3E9FF95
:10098000A3C3EAFFEF50ABEF04F004011051600B7A
:10099000E842E842E842E842E842000901E0120089
:1009A0001151070A40E00B0A3EE0070A33E0010A52
:1009B00023E00B0A1FE0020A1DE0030A19E0080AFF
:1009C00010E0010A0CE00F0A08E0030A01E012003F
:1009D0000DD90301040EB46F120014EF05F04BEFB4
:1009E00005F004D90301B60EA26F030EA36F0CD05D
:1009F0006AEF05F09AEF05F0FDD80301A26FA36B33
:100A0000B70EA227030EA3230301B5930301010E22
:100A1000A66F1200EFD8EA6AB70FE96E030EEA225A
:100A200012C4EFFF12001200800E0401105D32E1CB
:100A30001351030A1FE0010A0AE0030A29E1D6D88C
:100A40000301FE0EA26F0E0EA36F120E1ED0B4D8BD
:100A5000B40EF6260F0EC2D8020E0301F76AA225C5
:100A6000F66EA351F7220900F5CFA6F30A00F5CFE1
:100A7000A7F30ED0A1D8B80EF6260F0EAFD8A2C39A
:100A8000F6FFA3C3F7FF0800F5500301A66FA76B9D
:100A90000301B5831200AAD8716A726A736A746A14
:100AA000756A766A776A0301B36F0301B70EB16F97
:100AB000030EB26F73EC07F012C4B6F304011251C7
:100AC00004E10301050EB46F12000301060EB46FBA
:100AD00067EF06F00401186B196B040110511F0B2E
:100AE000020A0DE0030A09E0010A16E17FD80301BA
:100AF000B5A112D0040118830FD078D80DD050D8EA
:100B000001E0010E62D8A4C3E9FFEA6EEF50040BC6
:100B100003E00401010E186F0301A1050AE10301BE
:100B2000180EA26F040EA36F0301B5930301020E0A
:100B3000A66F1200040112050EE110511F0B0009EF
:100B40000AE154D8030E0401115D03E10301B581EC
:100B500002D00301B5910401125121E110511F0B84
:100B600002081DE114510F0B000919E019D801E02A
:100B7000010E2BD8030E0401115D02E1840E03D097
:100B800014AF07D0400EA4C3E9FFA5C3EAFFEF6E80
:100B90001200880EA4C3E9FFA5C3EAFFEF6E12009E
:100BA00029D80F0B080DF350016A000F006E040ED8
:100BB00001221451800B120019D804011251F66E53
:100BC000F76AD890F636F7361200040DF350030199
:100BD0000024A46F000E0120A56F1200F722090067
:100BE000F5CFA2F30A00F5CFA3F312000301010E23
:100BF000A16F1200FBDF0401145112000401105117
:100C00001F0B010801E01200145101E01200060E52
:100C1000115D24E11351230A1FE0010A0DE0030ACC
:100C20001BE1BDD80301B60505E10301220EA26F49
:100C30000F0EA36F090E0DD0B2D80301B60505E162
:100C40000301970EA26F0F0EA36F0301B60504E117
:100C50001D0E0301A66FA76B0301B583040110519C
:100C6000600BE842E842E842E842E842010801E05D
:100C7000120011510B0A25E0080A17E0090A11E0D9
:100C8000080A09E00B0A05E0080A01E0120065EF16
:100C900006F066EF06F083D80301F50EA26F000E92
:100CA00009D07DD813C4F5F0120079D80301F60EEF
:100CB000A26F000EA36F0301B5930301010EA66F8F
:100CC00012006DD812C4F6F01200120012000001DA
:100CD000F76B1E0E716E0401400E096F200E0A6F35
:100CE000040E0B6F880E086F0401600E0E6F040E69
:100CF0000F6F400E0C6F12000001FA51400802E223
:100D0000400EFA6FFB6BFA51FB5D13E2FB51EA6A8E
:100D1000F825E96EF951EA22EF50E66EFB51EA6AD6
:100D2000600FE96E040EEA22E552E750EF6EFB2BEE
:100D3000EAD7FAC00DF4400E04010C170C7D880EA2
:100D40000C1312000001F76B040108BF25D00951F4
:100D50000001D880FE5502E209C4FEF0F76BFE5197
:100D6000F75D13E2F751EA6A200FE96E040EEA22FA
:100D7000EF50E66EF751EA6AFC25E96EFD51EA2272
:100D8000E552E750EF6EF72BEAD70401400E096FEA
:100D90000817087D880E08130001F751120003019F
:100DA000020EA16F12006DB606D06D6A696A6D867B
:100DB0000301010EB46F0301B40508E16DBA06D05A
:100DC000686A696A69806988020EB46F120003015B
:100DD000B45101E1120068B445D86DB2120068B098
:100DE00058D868B817D868BA44D8030E0301B45D60
:100DF00001E212000301AF6B040EAF5D0AE268A6C8
:100E000008D069EC03F0000901E168960301AF2BFB
:100E1000F3D7120069CFB0F3040E696E68986D8243
:100E2000A19AA08A0300A150200B05E1D050080B25
:100E300002E10300F8D7A09A0301B051691203013F
:100E4000D50EB86F020EB96F0301B8C300F0B9C375
:100E500001F0B807000EB95B0050011002E0040079
:100E6000F3D712006D92699468A402D06894FCD7FD
:100E7000120070A00CD0800E0401005D07E1840E0A
:100E80000401045D03E104018C0E006F7090689A08
:100E900012006A6A686A9F0E6B6E7B0E696E6E6ADC
:100EA000716A726A736A746A756A766A776A160E0C
:100EB000706E68A604D0689652EC03F0FAD76D986D
:100EC000A6EC04F00401080E016F100E026F040E70
:100ED000036F8C0E006F0301B5910301B66B030124
:100EE000030EB46F1200B1C3E9FFB2C3EAFF0301FE
:100EF000B35104E0EE6A0301B307F9D712001201FF
:100F0000000200000008D8043C00010101020001B9
:100F100009022900010100C0320904000002030097
:100F20000000092111010001221D00070581034075
:100F30000001070501034000010403090434034DC7
:100F4000006900630072006F006300680069007050
:100F500000200054006500630068006E006F006CA4
:100F6000006F0067007900200049006E0063002ECA
:100F70000026034800490044002000550053004269
:100F800000200042006F006F0074006C006F006171
:100F9000006400650072000600FF0901A10119014B
:100FA0002940150026FF0075089540810019012988
:100FB000409100C0100F100F390F3D0F710FFC0B47
:100FC000000EF36E00EE00F0080E01D81200EA6089
:100FD00002D0EE6AFCD7F350E9601200EE6AFCD74B
:100FE000FFFFFFFFFFFFFFFFFFFFFFFFFFFFFFFF11
:100FF000FFFFFFFFFFFFFFFFFFFFFFFFFFFFFFFF01
:0610000035EF0FF01200B5
:021006000D607B
:0610080046EF0FF012009C
:021016000001D7
:081018000100E01E0000EB00E6
:0610200000000A000000C0
:0A102600FEDAE65230DB72EC0CF04B
:10103000166E060EE15E1650DF6A060EDF5C0AE2EF
:10104000DF5049DBEF50800B03E0DFCF0AF102D025
:10105000DF2AF3D7E552EBD2E5DAE652DF6A060E75
:10106000DF5C15E2DF5001010A5D02E1800E01D074
:10107000000E146EDF502FDBEF507F0B1410E66E66
:10108000DF5029DBE552E750EF6EDF2AE8D7FEDAC2
:1010900091EC0CF0166E060EE15E1650E552C7D2CA
:1010A000C1DA040EE12601010729DF6EDE52130EBC
:1010B000DD6E05C117F0166A045100011610146E9A
:1010C00005C115F0020E14C0DBFF030E05C1DBFFE6
:1010D000020EDBCFE6FF030EDBCFE6FF51EC0CF098
:1010E000E552E5520DDB0350300FE66E010EDBCF0B
:1010F000F3FFDB06F350EA6A2B0FE96E010EEA22DA
:10110000E552E750EF6EFCDA07C0DFFFDF50000862
:10111000E9E3010EDB50110804E2E3DA010EDB061D
:10112000F8D7DFDA2B0EE66E010EA4DA040EE15CCE
:1011300002E2E16AE552E16E7AD274DAFD0EDBCFAB
:10114000E6FFFE0EDBCFE6FFE66A0B0EE66E6EEC08
:101150000CF0E552E552E552E55269D2010105ADC8
:1011600006D0059DE66A510EE66E65DA99DF12003B
:1011700059DA020EE126DF6A010EF36EFE0EDB5035
:1011800004E0D890F336E806FCE1F350E76E010E78
:10119000E7CFDBFF01013FDA010EDB50EF1A010E52
:1011A000DBCFE6FF38DAEF50E552E71402E07F0EBE
:1011B000DF6EDFCFE6FFFE0EDB50EA6AEB0FE96E73
:1011C000000EEA22EF50E66E36DAC00E0101BADAFE
:1011D000020EE15C02E2E16AE552E16E28D222DA17
:1011E000E652010118DAEFCFDFFFC00E0515146ECD
:1011F0003F0EDF141410056F22DA400B05E07F0E5E
:10120000E66EF1C0E6FF17DA1ADA100B05E07F0E82
:10121000E66EEFC0E6FF0FDA12DA200B05E07F0E74
:10122000E66EF0C0E6FF07DA0ADA040B05E07F0E8F
:10123000E66EEDC0E6FFFFD902DA020B05E07F0E95
:10124000E66EECC0E6FFF7D9FAD9080B05E07F0E91
:10125000E66EEEC0E6FFEFD9F2D9010B05E07F0E96
:10126000E66EEBC0E6FFE7D9EAD9800B05E07F0E1A
:10127000E66EF2C0E6FFDFD9E552D9D1D3D9FE0E32
:10128000DBCF0AF1DB5027DAEF507F0BE66E010E61
:10129000E66E14DA07C1E6FFE66A10DA07C109F163
:1012A00036DAF36EFE0EDB5004E0D890F336E80633
:1012B000FCE1F35014100101046FF2DEB8D108C153
:1012C000E6FFE66AFBD908C107F108C109F1ABDE08
:1012D000040E01010A25E66E010EE66EEFD917DA5B
:1012E0000AC1E7FFE75204E0E846FE0BE706FCE12F
:1012F00014100101046F50EF08F020DA010101150C
:10130000FAD904E1FE0EDB50031502E0000E01D015
:10131000010E8DD113DA01010015EDD904E1FE0EA5
:10132000DB50021502E0000E01D0010E80D106DA7A
:1013300001010315E0D904E1FE0EDB50011502E0C6
:10134000000E01D0010E73D1F9D901010215D3D9D4
:1013500004E1FE0EDB50001502E0000E01D0010E8C
:1013600066D10101056B046B3F6B406B0A6B076B29
:10137000086B096B1F6B100E206F216B226F236BA4
:10138000246FCB0EE66E1E0EE66E2B0EE66E010E81
:10139000E66EC5EC0EF0E552E552E552E552CA0E96
:1013A000E66E1E0EE66EE66AC3D9CA0EE66E1E0E25
:1013B000E66E010EE66EBCD9CA0EE66E1E0E5AD956
:1013C00032DE5FEF09F001010051400B04E03F51B4
:1013D000000801E23F2B4151000801E2412B44D9B2
:1013E0001BE20F0E4115146E070E145C0BE3C00ECA
:1013F0000515156E011D146E0ED9EF5014143F0B18
:10140000151008D0C00E0515146E05D9EF50011146
:101410003F0B1410056F44DE0101405113E04007FB
:1014200003E1C00EA2EF0BF00F0E4015146E070E75
:10143000145C04E3C00E05153F0902D0C00E05156B
:10144000056F2EDE1200EED8020EE12628EC0CF01D
:10145000F3CFDEFFF4CFDDFFDECF14F0DDCF15F0EC
:1014600014500101006FDECF14F0DDCF15F015C070
:1014700014F0156A1450016F010EE7D807E0E66A10
:1014800077DEE5520101010E416F09D0010E1ED930
:1014900006E0EAD804E2416BE66A6ADEE552020E33
:1014A000D4D803E0010EDBD808D0020E0FD905E036
:1014B000DBD803E2416B010E37D9040EC6D803E036
:1014C000020ECDD808D0040E01D905E0CDD803E234
:1014D000416B020E29D9080EB8D803E0030EBFD81D
:1014E00008D0080EF3D805E0BFD803E2416B030E25
:1014F0001BD9100EAAD803E0040EB1D808D0100EE4
:10150000E5D805E0B1D803E2416B040E0DD9200EF9
:101510009CD803E0050EA3D808D0200ED7D805E04C
:10152000A3D803E2416B050EFFD8010E93D804E067
:10153000E66AA4DEE55212DE020E8CD802E0010E4D
:10154000B8D8040E87D802E0020EB3D8080E82D8AD
:1015500002E0030EAED8100E7DD802E0040EA9D82A
:10156000200E78D802E0050EA4D8400E6ED80CE00C
:101570000101057D0551400B02E07F0E01D0000EF8
:10158000E66E510EE66E57D8400E64D80BE00101AE
:10159000061D7F0B066FE66E500EE66E4CD80101FD
:1015A000010E3F6F3C0E01013F5D08E30051400B0F
:1015B00005E052DD0101500E406F3F6B0051049D6C
:1015C000400B01E0048D800E40D805E00101085178
:1015D00001E0080774DE800E3DD806E07F0E0101B1
:1015E000085D01E0082B6BDE01010151059F800BB6
:1015F00001E0058F0051049F800B01E0048F50DD56
:1016000000C102F101C103F1020EE15C02E2E16AF4
:10161000E552E16E0CD00A51EA6A1F0FE96E010E25
:10162000EA221200D9CFE6FFE1CFD9FF1200E5523E
:10163000E7CFD9FF120081DDE552E5521200D9CF84
:10164000E9FFDACFEAFFEF501200E66E56DEE55210
:1016500000091200E66E5EDEE5520009120064D851
:101660000101010E416F12000001F4510101D88007
:1016700041551200E66E020EE66E5AD80B0EE66E6B
:10168000010EE66E030EE66E98EF0BF00B0EE66EA3
:10169000010EE66E200EE66EE66A01010751200D8E
:1016A000F3CF14F0F4CF15F0F3CFE6FFF4CFE6FF5D
:1016B0001200E66EE3DDE552AEEF08F00C0EE66ECA
:1016C0006CEC0CF0E552E552E5521200E66E2FDEAE
:1016D000E55200091200EA6A250FE96E010EEA22BE
:1016E0001200010EDB50EA6A2B0FE96E010EEA22AE
:1016F000200EEF6E1200146EFE0EDB50145C120012
:101700000A0E146E0C6EDFCF07F057EF0FF067DD97
:10171000C00E01010415146E010E1200EF503F0BB4
:101720001410056F50EF08F0E66E22DDE55212004E
:1017300065EC0CF0E552E552E552120073DFFE0E47
:0E174000DB5012000515146E66DF8EEF0BF005
:02174E00BBD905
:10175000FE0EDBCFE6FF53EC0EF0E55250D1B3D9CD
:10176000E652080EDF6E898489948992FD0EDBBEF5
:1017700002D0899601D0898666D98982DF06F5E193
:10178000080EDF6E8992FE0EDBBE02D0899601D074
:10179000898659D98982DF06F5E18984100EDF6ECA
:1017A000DF5002E0DF06FCD7899489868982E55202
:1017B00026D189D9040EE126030EDB6ADE52010E22
:1017C000DD6EDF6A080EDF5C0CE25DD9DB5003E002
:1017D000020EDB06FBD784B260D9010E34D9DF2AB2
:1017E000F1D7030EDBCFABF0DB6ADE52010EDD6E0C
:1017F000080EDF6E100EDF5C0CE245D9DB5003E013
:10180000020EDB06FBD784B248D9010E1CD9DF2AB1
:10181000F1D7030EDBCFAAF00001AA1DAA6F0001C9
:10182000AB1DAB6F040EE15C02E2E16AE552E16ED2
:10183000E6D049D98998899A8D908990FE0EDBB0BF
:101840008988DBB2898ADBB48D80DBB68980D7D00A
:1018500036D9F3500001AB11DE6EDD6ADECF14F035
:10186000DDCF15F014C0F3FF15C0F4FF020EE15CEC
:1018700002E2E16AE552E16EC2D021D9A8C0DFFFE1
:10188000010EA9C0DBFFA8C0E6FFA9C0E6FF67DF25
:10189000E552E552020EE15C02E2E16AE552E16ED8
:1018A000AED011D9FE0EDBCF15F015C014F01550D7
:1018B0000001A86FFF0EE76EFD0EDBCF14F0E750BE
:1018C0001416156A14C0A9F09AD0FDD8FE0EE66E63
:1018D00003EC0FF0E55293D080D891D07ED8FB0E68
:1018E000F7D88DD0F0D8030EE126DF6AFD0EDBCFEE
:1018F00006F0FE0EDBCF07F0010E06C0DBFF020E86
:1019000007C0DBFFA7D806E28FD8B1D8D0D8FAE35A
:10191000DB2AF8D7030EE15C02E2E16AE552E16EF0
:101920006ED0D1D8050EE1266ED8DF6A400EDF5C9E
:101930000AE27AD8EA6A620FE96E000EEA22B7D8A4
:10194000F5E3DB2AF3D75FD8FD0EDBCF16F0FE0EF2
:10195000DBCF17F0010EDB50165C146E020EDB506D
:101960001758156E030E14C0DBFF040E15C0DBFF05
:10197000DF6A70D818E2DF507AD8EF50E66E030EB7
:10198000DBCFE9FF040EDBCFEAFF620EE926000E93
:10199000EA22E552E750EF6EDF2A030EDB2A040E3F
:1019A000E8E3DB2AE6D7FD0EDBCF60F0FE0EDBCFEF
:1019B00061F0C00E00016017FF0E6117000E602776
:1019C000490E612313EC0EF011861188050EE15CBF
:1019D00002E2E16AE552E16E12D075D8FD0EDB50ED
:1019E0000F0B146EFE0EDB500F0B100DF350141086
:1019F000E66E53EC0EF0E552FC0E68EF0DF0E5528A
:101A0000E7CFD9FF1200FD0EDBCF14F0FE0EDBCFC7
:101A100015F0C00E1416FF0E1516010E14C0DBFFD4
:101A2000020E15C0DBFF1200010EDBCFF6FF020E27
:101A3000DBCFF7FF000EF626490EF7220800F5501F
:101A4000E66EDF501200DBCFF3FFF39EF346F3CFD9
:101A5000DBFF1200DFCF14F0FB0EDBCF15F0FC0E26
:101A6000DBCF16F01550145C000E16541200E76E12
:101A7000F90EDBCFE9FFFA0EDBCFEAFFE750E926EC
:101A8000000EEA221200DFCFE6FFD3DEE552050E9C
:101A9000F36E020EF3CFDBFF1200030EDBCFE7FF86
:101AA000010EDB50E712030EE7CFDBFF1200E55219
:101AB000E750EF6EDF2A010EDB2A020E120003D878
:101AC000020EE1261200D9CFE6FFE1CFD9FF1200C6
:0E1AD000DB507F0BE66E53EC0EF0E552120079
:021ADE00D9CF5E
:101AE000E6FFE1CFD9FF040EE126DF6A010EDB6AD3
:101AF000020EDB6A04006EEC0EF004000400F28EAD
:101B0000F28C11A004D01190E6EC0EF050D012A28D
:101B10004CD0030EABC0DBFF1292D9EC0BF0DE52BF
:101B2000010EDD6EDF6A080EDF5C30E2030EDBCFF4
:101B3000E6FF010EDB50F36E010EDB50F35C02E0BA
:101B4000000E01D0010EE552E71416E0020EDBCFC5
:101B5000E6FF010EDB5002E0000E01D0010EE5525F
:101B6000E7140AE0C00EE66E53EC0EF0E552DFCF4C
:101B7000E6FF53EC0EF0E552DF2A010EDBCFF3FF58
:101B8000F39EF346010EF3CFDBFFCDD7030EDB5000
:101B9000E76E020EE7CFDBFF030EDB1C0001A86F30
:101BA000030EDBCFA9F03DEC0CF03EEC0EF0A6D717
:101BB000040EE15C02E2E16AE552E16EE552E7CF34
:041BC000D9FF120037
:0C1BC400550EA76EAA0EA76EA682120096
:101BD0004CD8E652E00E00016017840EA66EFE0E91
:101BE000DB50DF6EFE0EDB50200FDF5C1AE2DF50B1
:101BF000EA6A620FE96E000EEA22EFCF14F0DF50BE
:101C00000001F76A6025F66E6151F722F86A14C088
:101C1000F5FF0C001F0EDF141F0801E1D3DFDF2AE0
:101C2000E1D7E55227D0940EA66E60C0F6FF61C0E2
:101C3000F7FFF86AC7DFF86A120017D8A66AFE0E27
:101C4000DB50A96EA680A85015D00FD8A6A202D04E
:101C5000000E0AD0FE0EDB50A96EFD0EDB50A86E02
:101C6000040EA66EAFDF010E05D0D9CFE6FFE1CF9F
:0C1C7000D9FF1200E552E7CFD9FF1200A7
:041C7C009EBA1200FA
:101C80000001D1510001D25D02E169EF0EF09EA882
:101C90001200D251EA6AB10FE96E000EEA22EF504B
:101CA000AD6ED22B1200D9CFE6FFE1CFD9FF200EC7
:101CB0000001D15D0AE2D151EA6AB10FE96E000E6E
:101CC000EA22FE0EDBCFEFFFD12BE552E7CFD9FFA3
:0C1CD00012000001D16B0001D26B120069
:041CDC001EEC0FF0FB
:101CE000896A8A6A8B6A8C6A8D6A926A100E936E10
:101CF000F80E946E956A020E966EA60EAC6E900E5D
:101D0000AB6E3F0EAF6EB06A400EC26E0E0EC16E6D
:101D1000060EC06EF26A800EF16ED08ED76AD66A59
:101D2000D56ACC6AF90ECB6E0D0ECA6E020E9D6E90
:041D3000F28E12001D
:0C1D3400D9CFE6FFE1CFD9FFFE0EDB5057
:101D4000A96EA69EA69CA680A850E552E7CFD9FF13
:101D50001200D9CFE6FFE1CFD9FFFE0EDB50A96E0E
:101D6000FD0EDB50A86EA69EA69CA684F29E550E84
:101D7000A76EAA0EA76EA6820400A6B2FDD7F28EA9
:0A1D8000A694E552E7CFD9FF120048
:061D8A00D9CFE6FFDACF1D
:101D9000E6FFFA0EE3CFD9FFFB0EE3CFDAFFFC0E2E
:101DA000E3CFE9FFFD0EE3CFEAFFE9CFF3FFEACF90
:101DB000F4FFDECFEFFFEE66FCD7FF0EE3CFDAFFD6
:0C1DC000E552FF0EE3CFD9FFE552120000
:041DCC000001AD2B3A
:101DD0000A0EAD5D17E1AD6B118E118A1282000102
:101DE000AF2B040EAF5D02E1AF6B12800001B02B90
:101DF000020EB05D01E1B06B0001AE2B640EAE5D72
:061E000001E1AE6B1200CF
:0A1E0600D9CFE6FFE1CFD9FF160E99
:101E10000001E95D0AE2E951EA6AD30FE96E000EBA
:101E2000EA22FE0EDBCFEFFFE92BE552E7CFD9FF29
:0C1E300012000001E96B0001EA6B1200D7
:041E3C00EA6AE96AFB
:101E40000400EE6AEAA6FCD71200000EF36E00EE64
:101E500000F0080E01D81200EA6002D0EE6AFCD74A
:0A1E6000F350E9601200EE6AFCD7AF
:061E6A0017EE00F027EE68
:101E700000F0F86A0F9CEA6AE96A0400EE6AEAA6D2
:0C1E80003DEF0FF06FEC0DF0FDD71200ED
:041E8C00DACFE4FFC6
:101E9000E6529EA208D09E920001AC2B040EAC5DCF
:0E1EA00002E1AC6B1180E552E5CFDAFF1100D4
:021EAE00036AC5
:101EB000080EE76ED890073603360C50035C02E339
:0A1EC000036E072AE72EF7D7120081
:061ECA000050726F677208
:101ED000616D3A202020202020202020202020007A
:0A1EE0005455565758595A5B3C1EE2
:1049000000000000000000000000000000000000A7
:104910000000000000000000000000000000000097
:104920000000000000000000000000000000000087
:104930000000000000000000000000000000000077
:020000040030CA
:0100000024DB
:010001000EF0
:0100020026D7
:010003001FDD
:010005008179
:010006008178
:010008000FE8
:01000900C036
:01000A000FE6
:01000B00E014
:01000C000FE4
:01000D0040B2
:00000001FF
