:020000040000FA
:0600000011EF00F01200F8
:0600080004EF08F01200F5
:080018000CEF08F060EF00F0AE
:020020001200CC
:0E002200400EC26E0E0EC16E060EC06E92989B
:10003000929A969092908998898A8D9089901DD8ED
:100040001CD81BD884A202D003D002D060EF00F0ED
:10005000060EF66E100EF76E0900F5CF10F00800D0
:10006000F5CF11F00D0E101802E1600E111802E12B
:0C00700000EF08F060EF00F0120012003A
:1000C000F26A13EE00F023EE00F0F86AFC6A6DA607
:1000D00002D082EC02F011D80400D3EC06F0E7EC79
:1000E00006F018D8060E0301B45D05E16D50020B51
:1000F00002E195EC00F0F0D71200140E6F6E0301D0
:10010000B46B0301B56B0301B66B8CEC00F08C9003
:1001100095901200120000000001E56BE969EA69A0
:10012000EB69E86B010EEC6F12000001E5511EE176
:10013000040108BF94D10001400EFE6F0001A10E22
:10014000FC6F000EFD6FA2EC06F00001010EE56FE2
:10015000ED6B400EED5D01E382D1ED51EA6A600F77
:10016000E96E000EEA22EF6AED2BF3D70001A151F0
:10017000080A01E171D1040A01E132D1050A01E165
:100180002DD10E0A01E1F6D0010A01E1EDD0030AFA
:1001900001E195D0010A4DE0070A41E0010A01E0C2
:1001A0005CD10001020E606F3A0E616F010E626F4A
:1001B000636F646B100E656F666B676BC00E686F64
:1001C0006D0E696F6A6B6B6B030E6C6F6D6B6E6B94
:1001D000300E6F6F706B0E0E716F726B736B746B92
:1001E000040E756F766B776B200E786F796B080E47
:1001F0007A6F7B6B7C6B7D6B020E7E6F7F6B806B8F
:10020000F00E816F826B836B010E846F856B866B42
:100210008769A50E996F04010CBF21D1DCD00001C4
:10022000010EEC6F0001A25101E013D10001EC6B53
:1002300010D1400E0001E66FE76B000EE65D020E86
:10024000E7591FE22FDAE6C000F0E7C001F0026ACA
:10025000060E1F0BE6C0F6FFE7C0F7FF02C0F8FF6F
:1002600006E0D890F636F736F836E806FAE1940E4E
:10027000A66E24DAE7EC06F00001E62B000EE72379
:10028000DCD7ED6BEDC0A9FFA868040EA66EE7EC05
:1002900006F014DA0001ED51ED2B006E016A026ADE
:1002A000FF0E005C000E0158000E0258EBE3F66AE8
:1002B000F76A200EF86E940EA66E00DACAD0300EE1
:1002C000A45D06E10001EC5101E0C3D092D9C1D098
:1002D000F00EA45D02E1B3D9BCD0E8680001E919D1
:1002E0000CE1E868EA1909E1E868EB1906E1A2C047
:1002F000E9F0A3C0EAF0A4C0EBF0E90EE96E000E4D
:10030000EA6EEE500001A21901E0A3D0EE50A3194D
:1003100001E09FD0EE50A41901E09BD001E099D0FC
:100320000001ED6B0001A6510001ED5D01E391D0EC
:10033000BDD9A70FE96E000EEA22EF50E66EE85134
:10034000EA6A600FE96E030EEA22E552E750EF6EAB
:10035000E82BE92B000EEA23EB23200EE85D01E1F8
:10036000E4D80001ED2BDED7E0D80001E969EA69A5
:10037000EB6970D00001070E606FA2C061F0A3C0EE
:1003800062F0A4C063F0A5C064F0A6C065F0A2C08E
:10039000F6FFA3C0F7FFA4C0F8FF0001ED6B00015A
:1003A000A6510001ED5D14E2F00E0001A45D0AE12A
:1003B000A2510001ED25A96EA66AA68084D9A8CF16
:1003C000EFFF04D071D97FD9F5CFEFFFED2BE7D741
:1003D00004010CBF44D00001400E33D041D839D0C5
:1003E00000010C0E606F010E616F626F160EF66EEB
:1003F000100EF76E0900F5CF63F00A00F5CF64F038
:10040000060E656F100E666F676B686B0D0E696F79
:10041000600E6A6F400E6B6F6C6B6D6B6E6B6F690D
:10042000706971697269736B74697569766B7769E4
:10043000786979697A697B697C6904010CBF0FD09E
:100440000001FA6F0001600EF86F000EF96F7CEC8E
:1004500006F00001E56B120050D80001E56B1200B8
:10046000F66A100EF76EF86A0001EE6B400E00019E
:10047000EE5D0DE209000001EE51EA6A600FE96EDF
:10048000030EEA22F5CFEFFF0001EE2BEFD70301B9
:100490000D0E666F0301600E676FF66A100EF76E41
:1004A000F86A940EA66E0001B50EF46FE8D83F0E00
:1004B000F66E100EF76EF86A00013F0EEE6F000147
:1004C000EE51EA6A600FE96E030EEA22EF50F56E14
:1004D0000C000001EE511F0B07E1E4D8A40EA66E3C
:1004E0000001B50EF46FCBD80A000001EE5101E116
:1004F00003D00001EE07E3D7120004D8FF0000008C
:10050000000012000301B869B9690301B8C300F023
:10051000B9C301F0B807000EB95B0050011004E048
:100520006D926D6ABFD8F1D712000001F06BE8C080
:1005300000F0016A026A00500001E95DF66E0150A8
:100540000001EA59F76E02500001EB59F86E1F0ED8
:10055000F6140001F16FE00EF6160001EF6B200EAD
:100560000001EF5D1FE20001F15115E10001E851CA
:100570000FE00001F051EA6A600FE96E030EEA2213
:10058000EF50F56E0D000001F02B0001E80702D0DE
:10059000F5680D0004D0F5680D000001F1070001B9
:1005A000EF2BDDD70A00A40EA66E0001B50EF46F86
:1005B00066D80001EF6B0001E8510001EF5D18E221
:1005C0000001F0510001EF25EA6A600FE96E030EA9
:1005D000EA22EF50E66E0001EF51EA6A600FE96E21
:1005E000030EEA22E552E750EF6E0001EF2BE3D74E
:1005F0001200A2C0F6FFA3C0F7FFA4C0F8FF0001DD
:10060000F26B0001A6510001F25D18E23A0E000102
:10061000D880A6550001F225EA6AA70FE96E000E00
:10062000EA22EF50F56E0C00C40EA66E0001B50E66
:10063000F46F25D809000001F22BE3D71200000166
:10064000F36B0001A6510001F35D18E20001A25115
:100650000001F325A96E3A0E0001D880A6550001CD
:10066000F325EA6AA70FE96E000EEA22EF50A86EA2
:10067000040EA66E23D80001F32BE3D71200F29EDE
:10068000B50E0001F45D05E0030ED36E0300FED746
:10069000FF00550EA76EAA0EA76EA682A6B2FED7C1
:1006A000A694120004001200090012003A0E000184
:1006B000D880A6550001ED25EA6A12000001B50EAA
:1006C000F46F3FEF03F0F2DF660FE96E000EEA22EF
:1006D00012006C5033E16896040100513C0BE84273
:1006E000E8420D0829E1180E021924E1040E03194D
:1006F00021E1100E026F040E036F0301A96BA951D3
:10070000006E016A080E005C000E015813E2A95148
:10071000EA6A180FE96E040EEA22EF50E66EA9515C
:10072000EA6A100FE96E040EEA22E552E750EF6E16
:10073000A92BE5D70AD8010C3AD8010C040E6C5C41
:1007400003E168964BD8010C000C040104BF046B54
:100750000301A86BA06BA16BA66BA76BC5EC04F0A3
:100760000301AA6BAA51006E016A010E005C000E23
:1007700001581BE2A15119E1AA51F66EF76AD8900F
:10078000F636F736BE0EF6260F0EF7220900F5CF25
:1007900000F00800F5CF01F004D001C0FAFF0050CE
:1007A000F96EFBDF0301AA2BDDD76DEF04F0020E1B
:1007B0000301A05D0EE178D80401180E026F040E4B
:1007C000036F080E016F00BD02D0C80E05D0880E61
:1007D00003D0BCD8CBD88C0E006F1200040E0301DE
:1007E000B45D09E112C46EFF6E50000802E2050E0E
:1007F00001D0030EB46F0301A00510E111D8020E61
:100800000301A85D03E10401840E06D0040104BDC8
:1008100002D0C80E01D0880E046F1200A6EF04F0BB
:100820000301080EA65D000EA7590DE2A6C3ABF3A7
:10083000A7C3ACF3A85102E1010E03D0A80506E15D
:10084000020EA86F03D0080EAB6FAC6B04010493CB
:1008500004910301AC5104010413ABC305F403017B
:10086000AB51A65DA66FAC51A759A76F180EA46F28
:10087000040EA56F0301B5A30ED00301AB51AC115B
:1008800012E0A2C3F6FFA3C3F7FF0800F55063D838
:10089000AB07AC5BF2D70301AB51AC1104E06ED8EF
:1008A000AB07AC5BF8D71200030E0401001503017F
:1008B000AE6F01C4ADF3A651AD25A66FA751AE2111
:1008C000A76F180EA26F040EA36FAD51AE1104E016
:1008D00055D8AD07AE5BF9D712006D980301A15151
:1008E00005E144D8840E006F04011DD0040110AF4F
:1008F0001CD00301A6510401165D0301A751040198
:10090000175904E216C4A6F317C4A7F389DF03013D
:10091000010EA06F2BD8800E006F0401180E066F19
:10092000040E076FC80E046F12000301020EA06FC1
:100930000401056BC80E046F0401080E016F180E48
:10094000026F040E036FC80E006F12000301A06B4C
:100950000401046B1200A4C3E9FFA5C3EAFFEF6E14
:10096000A42B000EA523A22BA32312000401080E22
:10097000016F100E026F040E036F1200A2C3E9FF95
:10098000A3C3EAFFEF50ABEF04F004011051600B7A
:10099000E842E842E842E842E842000901E0120089
:1009A0001151070A40E00B0A3EE0070A33E0010A52
:1009B00023E00B0A1FE0020A1DE0030A19E0080AFF
:1009C00010E0010A0CE00F0A08E0030A01E012003F
:1009D0000DD90301040EB46F120014EF05F04BEFB4
:1009E00005F004D90301B60EA26F030EA36F0CD05D
:1009F0006AEF05F09AEF05F0FDD80301A26FA36B33
:100A0000B70EA227030EA3230301B5930301010E22
:100A1000A66F1200EFD8EA6AB70FE96E030EEA225A
:100A200012C4EFFF12001200800E0401105D32E1CB
:100A30001351030A1FE0010A0AE0030A29E1D6D88C
:100A40000301FE0EA26F0E0EA36F120E1ED0B4D8BD
:100A5000B40EF6260F0EC2D8020E0301F76AA225C5
:100A6000F66EA351F7220900F5CFA6F30A00F5CFE1
:100A7000A7F30ED0A1D8B80EF6260F0EAFD8A2C39A
:100A8000F6FFA3C3F7FF0800F5500301A66FA76B9D
:100A90000301B5831200AAD8716A726A736A746A14
:100AA000756A766A776A0301B36F0301B70EB16F97
:100AB000030EB26F73EC07F012C4B6F304011251C7
:100AC00004E10301050EB46F12000301060EB46FBA
:100AD00067EF06F00401186B196B040110511F0B2E
:100AE000020A0DE0030A09E0010A16E17FD80301BA
:100AF000B5A112D0040118830FD078D80DD050D8EA
:100B000001E0010E62D8A4C3E9FFEA6EEF50040BC6
:100B100003E00401010E186F0301A1050AE10301BE
:100B2000180EA26F040EA36F0301B5930301020E0A
:100B3000A66F1200040112050EE110511F0B0009EF
:100B40000AE154D8030E0401115D03E10301B581EC
:100B500002D00301B5910401125121E110511F0B84
:100B600002081DE114510F0B000919E019D801E02A
:100B7000010E2BD8030E0401115D02E1840E03D097
:100B800014AF07D0400EA4C3E9FFA5C3EAFFEF6E80
:100B90001200880EA4C3E9FFA5C3EAFFEF6E12009E
:100BA00029D80F0B080DF350016A000F006E040ED8
:100BB00001221451800B120019D804011251F66E53
:100BC000F76AD890F636F7361200040DF350030199
:100BD0000024A46F000E0120A56F1200F722090067
:100BE000F5CFA2F30A00F5CFA3F312000301010E23
:100BF000A16F1200FBDF0401145112000401105117
:100C00001F0B010801E01200145101E01200060E52
:100C1000115D24E11351230A1FE0010A0DE0030ACC
:100C20001BE1BDD80301B60505E10301220EA26F49
:100C30000F0EA36F090E0DD0B2D80301B60505E162
:100C40000301970EA26F0F0EA36F0301B60504E117
:100C50001D0E0301A66FA76B0301B583040110519C
:100C6000600BE842E842E842E842E842010801E05D
:100C7000120011510B0A25E0080A17E0090A11E0D9
:100C8000080A09E00B0A05E0080A01E0120065EF16
:100C900006F066EF06F083D80301F50EA26F000E92
:100CA00009D07DD813C4F5F0120079D80301F60EEF
:100CB000A26F000EA36F0301B5930301010EA66F8F
:100CC00012006DD812C4F6F01200120012000001DA
:100CD000F76B1E0E716E0401400E096F200E0A6F35
:100CE000040E0B6F880E086F0401600E0E6F040E69
:100CF0000F6F400E0C6F12000001FA51400802E223
:100D0000400EFA6FFB6BFA51FB5D13E2FB51EA6A8E
:100D1000F825E96EF951EA22EF50E66EFB51EA6AD6
:100D2000600FE96E040EEA22E552E750EF6EFB2BEE
:100D3000EAD7FAC00DF4400E04010C170C7D880EA2
:100D40000C1312000001F76B040108BF25D00951F4
:100D50000001D880FE5502E209C4FEF0F76BFE5197
:100D6000F75D13E2F751EA6A200FE96E040EEA22FA
:100D7000EF50E66EF751EA6AFC25E96EFD51EA2272
:100D8000E552E750EF6EF72BEAD70401400E096FEA
:100D90000817087D880E08130001F751120003019F
:100DA000020EA16F12006DB606D06D6A696A6D867B
:100DB0000301010EB46F0301B40508E16DBA06D05A
:100DC000686A696A69806988020EB46F120003015B
:100DD000B45101E1120068B445D86DB2120068B098
:100DE00058D868B817D868BA44D8030E0301B45D60
:100DF00001E212000301AF6B040EAF5D0AE268A6C8
:100E000008D069EC03F0000901E168960301AF2BFB
:100E1000F3D7120069CFB0F3040E696E68986D8243
:100E2000A19AA08A0300A150200B05E1D050080B25
:100E300002E10300F8D7A09A0301B051691203013F
:100E4000D50EB86F020EB96F0301B8C300F0B9C375
:100E500001F0B807000EB95B0050011002E0040079
:100E6000F3D712006D92699468A402D06894FCD7FD
:100E7000120070A00CD0800E0401005D07E1840E0A
:100E80000401045D03E104018C0E006F7090689A08
:100E900012006A6A686A9F0E6B6E7B0E696E6E6ADC
:100EA000716A726A736A746A756A766A776A160E0C
:100EB000706E68A604D0689652EC03F0FAD76D986D
:100EC000A6EC04F00401080E016F100E026F040E70
:100ED000036F8C0E006F0301B5910301B66B030124
:100EE000030EB46F1200B1C3E9FFB2C3EAFF0301FE
:100EF000B35104E0EE6A0301B307F9D712001201FF
:100F0000000200000008D8043C00010101020001B9
:100F100009022900010100C0320904000002030097
:100F20000000092111010001221D00070581034075
:100F30000001070501034000010403090434034DC7
:100F4000006900630072006F006300680069007050
:100F500000200054006500630068006E006F006CA4
:100F6000006F0067007900200049006E0063002ECA
:100F70000026034800490044002000550053004269
:100F800000200042006F006F0074006C006F006171
:100F9000006400650072000600FF0901A10119014B
:100FA0002940150026FF0075089540810019012988
:100FB000409100C0100F100F390F3D0F710FFC0B47
:100FC000000EF36E00EE00F0080E01D81200EA6089
:100FD00002D0EE6AFCD7F350E9601200EE6AFCD74B
:100FE000FFFFFFFFFFFFFFFFFFFFFFFFFFFFFFFF11
:100FF000FFFFFFFFFFFFFFFFFFFFFFFFFFFFFFFF01
:061000004DEF25F0120087
:021006000D607B
:0610080036EF24F0120097
:02100E000000E0
:021016000001D7
:08101800D9CFE6FFE1CFD9FFBB
:10102000040EE126A7C1DEFFA8C1DDFF020EA7C1A5
:10103000DBFF030EA8C1DBFF020EDB50DF1804E16B
:10104000030EDB50DE52DD1808E0DECFE6FFDDCF19
:10105000E6FF2BEC1FF0E552E552040EE15C02E2E4
:10106000E16AE552E16EE552E7CFD9FF1200D9CF30
:10107000E6FFE1CFD9FF020EE126FE0EDBCFE6FF51
:10108000FD0EDB500C0DF350E552E724DF6EDFCF91
:10109000E9FFEA6AE9BEEA688B0EE926010EEA2258
:1010A000010EEFCFDBFFDB50F36EFC0EDB50F35C89
:1010B00023E0FC0EDBCFE6FFDFCFE9FFEA6AE9BE03
:1010C000EA68730EE926010EEA22EF50E66EB20ED0
:1010D000E66E8FEC1FF0E552E552E552DFCFE9FFF7
:1010E000EA6AE9BEEA688B0EE926010EEA22FC0EE6
:1010F000DBCFEFFF010E01D0000E106E020EE15C9F
:1011000002E2E16AE552E16E1050E552E7CFD9FF05
:101110001200D9CFE6FFE1CFD9FF060EE126DF6A44
:10112000DE52010EDD6E0101BC51AF5D0EE0AFC1BC
:10113000E6FFC20EE66E71EC1FF0E552E55222ECBE
:1011400014F06AEC10F0010EDF6E0101BD51B05DCC
:101150000AE0B0C1E6FFC90EE66E71EC1FF0E55281
:10116000E552010EDF6E0101B651A95D02E0010EEC
:10117000DF6E030EDB6A020EF36E030EDBCFF4FFAD
:10118000F350F45C01E3C3D1030EDB50040DF3CF45
:10119000E9FFF4CFEAFFBF0EE926010EEA22020EB4
:1011A000E926000EEA22EF50400B47E0000178519B
:1011B0000AE171C1F6FF72C1F7FFF62A000EF722AD
:1011C0000800F55001D07851E66E030EDB50030D98
:1011D000F3CFE9FFF4CFEAFFC70EE926010EEA22BA
:1011E000E552E750EF6EE66A030EDBCFE6FF090E2D
:1011F000E66E3DDFE552E552E552000902E0010EE0
:10120000DF6EE66A030EDBCFE6FF0B0EE66E2FDF26
:10121000E552E552E552000902E0010EDF6EE66A92
:10122000030EDBCFE6FF080EE66E21DFE552E55246
:10123000E552000901E115D112D1030EDB50040D76
:10124000F3CFE9FFF4CFEAFFBF0EE926010EEA2251
:10125000020EE926000EEA22EF50800B01E1AAD02F
:10126000030EDB50040DF3CFE9FFF4CFEAFFBF0E0E
:10127000E926010EEA22EF500CE10001775107E167
:1012800071C1F6FF72C1F7FF0800F5500ED077511B
:101290000CD0030EDB50040DF3CFE9FFF4CFEAFFCF
:1012A000BF0EE926010EEA22EF50E66E030EDB5078
:1012B000030DF3CFE9FFF4CFEAFFC70EE926010ED5
:1012C000EA22E552E750EF6E030EDB50040DF3CF38
:1012D000E9FFF4CFEAFFBF0EE926010EEA22EE5243
:1012E000EF5010E1000179510BE171C1F6FF72C1BD
:1012F000F7FF020EF626000EF7220800F5500FD079
:1013000079510DD0030EDB50040DF3CFE9FFF4CF7C
:10131000EAFFBF0EE926010EEA22EE52EF50E66E1A
:10132000030EDB50030DF3CFE9FFF4CFEAFFC70E46
:10133000E926010EEA22EE52E552E750EF6E7F0EEB
:10134000E66E030EDBCFE6FF090EE66E90DEE55299
:10135000E552E552000902E0010EDF6E7F0EE66EF7
:10136000030EDBCFE6FF0A0EE66E81DEE552E552A4
:10137000E552000902E0010EDF6E7F0EE66E030EFD
:10138000DBCFE6FF0B0EE66E72DEE552E552E5526C
:10139000000902E0010EDF6E7F0EE66E030EDBCF6A
:1013A000E6FF080EE66E63DEE552E552E5520009FF
:1013B00058E055D0000178510AE171C1F6FF72C1C1
:1013C000F7FFF62A000EF7220800F55001D07851F9
:1013D000E66E030EDB50030DF3CFE9FFF4CFEAFF17
:1013E000C70EE926010EEA22E552E750EF6E7F0EA6
:1013F000E66E030EDBCFE6FF090EE66E38DEE55241
:10140000E552E552000902E0010EDF6EE66A030EC6
:10141000DBCFE6FF0A0EE66E2ADEE552E552E55224
:10142000000902E0010EDF6E7F0EE66E030EDBCFD9
:10143000E6FF0B0EE66E1BDEE552E552E5520009B3
:1014400002E0010EDF6EE66A030EDBCFE6FF080E58
:10145000E66E0DDEE552E552E552000902E0010EAE
:10146000DF6E030EDB50030DF3CFE9FFF4CFEAFF8D
:10147000C70EE926010EEA22EF50E66E030EDBCF1F
:10148000E6FF060EE66EF3DDE552E552E552000991
:1014900002E0010EDF6E030EDB50030DF3CFE9FF18
:1014A000F4CFEAFFC70EE926010EEA22EE52EF5012
:1014B000E66E030EDBCFE6FF070EE66ED8DDE552E3
:1014C000E552E552000902E0010EDF6E030EDB502B
:1014D000040DF3CFE9FFF4CFEAFFBF0EE926010EBA
:1014E000EA22030EE926000EEA22EF50E66E030E12
:1014F000DBCFE6FF050EE66EBADDE552E552E552BA
:10150000000902E0010EDF6E030EDB2A34D6020E64
:10151000DB6A050EF36E020EDBCFF4FFF350F45CD2
:1015200033E2010EDB500101C115FF0DF3407F0BCB
:10153000E66EE66A020EDBCFE6FF99DDE552E55284
:10154000E552000902E0010EDF6E010EDB500101E1
:10155000C515FF0DF3407F0BE66E010EE66E020E21
:10156000DBCFE6FF84DDE552E552E552000902E0FB
:10157000010EDF6E020EDB2A010EDBCFF3FFF39EBE
:10158000F346F3CFDBFFC5D70101BE51B15D01E1E9
:1015900079D01E0EB15D76E3A90EF36E040EF3CF83
:1015A000DBFFF00EE66E5EEC1FF0E552E66A5EECE5
:1015B0001FF0E552010EE66E5EEC1FF0E552740E70
:1015C000E66E5EEC1FF0E552030EE66E5EEC1FF079
:1015D000E552020EE66E5EEC1FF0E5520D0EE66E71
:1015E0005EEC1FF0E552010EE66E5EEC1FF0E55278
:1015F000200EE66E5EEC1FF0E552E66A5EEC1FF030
:10160000E5527F0E0101B115E76E050EE7CFDBFF56
:10161000040EDBCFE7FF050EDB50E71A040EE7CF21
:10162000DBFF050EDBCFE6FF5EEC1FF0E5520101AC
:10163000B145010BE76E050EE7CFDBFF040EDBCFF4
:10164000E7FF050EDB50E71A040EE7CFDBFF050EC0
:10165000DBCFE6FF5EEC1FF0E552E66A5EEC1FF0C2
:10166000E552010EE66E5EEC1FF0E552040EDB5013
:101670007F0BE66E5EEC1FF0E552F70EE66E5EEC59
:101680001FF0E5520101B751AA5D06E1B851AB5D0B
:1016900003E1B951AC5D02E0010EDF6EBB51AE5DFE
:1016A00002E0010EDF6EBA51AD5D02E0010EDF6EA9
:1016B000DF5001E0DEDA060EE15C02E2E16AE552AB
:1016C000E16EE552E7CFD9FF1200D9CFE6FFE1CFB7
:1016D000D9FF0C0EE126FE0EDB50020FE76E040E62
:1016E000E7CFDBFFDF6A140EDF5C23E2DF50F76A2F
:1016F000F50FF66E490EF7220800F550E66EDF5042
:10170000106E116A040EEA6ADB34FE0BEA36E96EEB
:10171000ED0EE926000EEA221050EE24E76E11507D
:10172000EE20EA6EE7CFE9FFE552E750EF6EDF2AE1
:10173000DAD7FE0EDB50040DF3CFE9FFF4CFEAFF5A
:10174000BF0EE926010EEA22020EE926000EEA2269
:10175000EF50400B10E0040EEA6ADB34FE0BEA3671
:10176000E96EED0EE926000EEA22EE50EFCFEAFF19
:10177000E96E410E27D0FE0EDB50040DF3CFE9FFDA
:10178000F4CFEAFFBF0EE926010EEA22020EE92697
:10179000000EEA22EF50800B02E1000E01D0010E94
:1017A000430FE66E040EEA6ADB34FE0BEA36E96E9E
:1017B000ED0EE926000EEA22EE50EFCFEAFFE96EC9
:1017C000E552E750EF6EFE0EDB50030DF3CFE9FF5D
:1017D000F4CFEAFFC70EE926010EEA22EF50E66ECB
:1017E000030EE66E040EEA6ADB34FE0BEA36E96E9F
:1017F000ED0EE926000EEA22EECFE6FFEFCFE6FF80
:1018000001EC20F0E552E552E552E552FE0EDB50C8
:10181000040DF3CFE9FFF4CFEAFFBF0EE926010E76
:10182000EA22030EE926000EEA22EF34F76AFE0BE5
:10183000F736F66EC20EF626450EF7220900F5CFF2
:10184000E6FF0800F5CFE6FF0D0EE66E040EEA6A2D
:10185000DB34FE0BEA36E96EED0EE926000EEA22D5
:10186000EECFE6FFEFCFE6FF78EC20F0106E050E2E
:10187000E15E1050FE0EDB50040DF3CFE9FFF4CF14
:10188000EAFFBF0EE926010EEA22020EE926000E4B
:10189000EA22EF50C00B800848E1FE0EDB50030D3A
:1018A000F3CFE9FFF4CFEAFFC70EE926010EEA22E3
:1018B000EE52EF407F0BB40FFF0D050EF3CFDBFFB1
:1018C000DBCFE6FF070EE66E040EEA6ADB34FE0BA2
:1018D000EA36E96EED0EE926000EEA22EECFE6FFCB
:1018E000EFCFE6FF41EC20F0E552E552E552E5523C
:1018F000E76E060EE7CFDBFFDBCF10F0116A10BEFC
:101900001168040EEA6ADB34FE0BEA36E96EED0E6E
:10191000E926000EEA221050EE24E76E1150EE2068
:10192000EA6EE7CFE9FF2D0EEF6E010EF36E030EA8
:10193000F3CFDBFF040EEA6ADB34FE0BEA36E96E16
:10194000ED0EE926000EEA22EECF10F0EFCF11F0F7
:101950000F0E1026000E1122010E10C0DBFF020E2A
:1019600011C0DBFFDF6A050EDF5C01E388D071C1C7
:10197000F6FF72C1F7FF030EF626000EF722F6CF30
:1019800012F0F7CF13F0FE0EDB50050D1250F324CA
:10199000F66E1350F420F76EF6CF10F0F7CF11F07B
:1019A000DF500F011024F66E000E1120F76E0800B4
:1019B000F550E66ED0EC21F0E552070EF3CFDBFFD9
:1019C000080EF4CFDBFF050ED880DF54106E030E37
:1019D000DBCFE6FFFE0EDB50040DF3CFE9FFF4CFC3
:1019E000EAFFBF0EE926010EEA22020EE926000EEA
:1019F000EA22EF50E552E714E81C105204E0E846F2
:101A0000FE0B1006FCE1E76E090EE7CFDBFF070EC9
:101A1000DBCFF6FF080EDBCFF7FF08000B0EF5CF8C
:101A2000DBFFDB50400BE8407F0BE76E0A0EE7CF91
:101A3000DBFF090EDBCFE6FF0A0EDB50E552E714B1
:101A4000106E0B0EDBCFE6FF0A0EDB1CE552E7142F
:101A50001010E66E010EDBCFE9FFDB2A020EDBCFB2
:101A6000EAFF01E3DB2AE552E750EF6EDF2A030EBF
:101A7000DBCFF3FFF39EF346F3CFDBFF74D70C0EFF
:101A8000E15C02E2E16AE552E16EE552E7CFD9FF9F
:101A90001200D9CFE6FFE1CFD9FF0B0EE126FE0EF3
:101AA000DB50020FE76E040EE7CFDBFFDF6A140E98
:101AB000DF5C23E2DF50F76AE00FF66E490EF72293
:101AC0000800F550E66EDF50106E116A040EEA6AE7
:101AD000DB34FE0BEA36E96EED0EE926000EEA2253
:101AE0001050EE24E76E1150EE20EA6EE7CFE9FFCA
:101AF000E552E750EF6EDF2ADAD7010EF36E030EE0
:101B0000F3CFDBFF040EEA6ADB34FE0BEA36E96E44
:101B1000ED0EE926000EEA22010EEECFDBFF020EEB
:101B2000EDCFDBFFDF6A050EDF5C01E398D071C10A
:101B3000F6FF72C1F7FF030EF626000EF722F6CF6E
:101B400012F0F7CF13F0FE0EDB50050D1250F32408
:101B5000F66E1350F420F76EF6CF10F0F7CF11F0B9
:101B6000DF500F011024F66E000E1120F76E0800F2
:101B7000F550E66ED0EC21F0E552050EF3CFDBFF19
:101B8000060EF4CFDBFF050ED880DF54106E030E77
:101B9000DBCFE6FFFE0EDB50040DF3CFE9FFF4CF01
:101BA000EAFFBF0EE926010EEA22020EE926000E28
:101BB000EA22EF50E552E714E81C105204E0E84630
:101BC000FE0B1006FCE1E76E0A0EE7CFDBFF090E05
:101BD000DB6A040EF36E090EDBCFF4FFF350F45C06
:101BE00035E2050EDBCFF6FFDB2A060EDBCFF7FF73
:101BF00001E3DB2A0800080EF5CFDBFFDB50400BCA
:101C0000E8407F0BE76E070EE7CFDBFF0A0EDBCF66
:101C1000E6FF070EDB50E552E714106E080EDBCF2F
:101C2000E6FF070EDB1CE552E7141010E66E010E0E
:101C3000DBCFE9FFDB2A020EDBCFEAFF01E3DB2A81
:101C4000E552E750EF6E090EDB2AC3D7DF2A030EF9
:101C5000DBCFF3FFF39EF346F3CFDBFF64D70B0E2E
:101C6000E15C02E2E16AE552E16EE552E7CFD9FFBD
:101C70001200D9CFE6FFE1CFD9FFE652DF6ADFCF0E
:101C800010F0140EE76E1018E8AE02D0E73402D060
:101C9000E750105C1DE2DFCFF6FFF76AF6BEF7688B
:101CA000E00EF626490EF7220800F550E66EDFCF6B
:101CB00010F0116A10BE11680001ED511024E96E98
:101CC000EE511120EA6EE552E750EF6EDF2AD7D7CA
:101CD0000101A9512FE1DF6ADFCF10F0140EE76E8A
:101CE0001018E8AE02D0E73402D0E750105C1DE2D5
:101CF000DFCFF6FFF76AF6BEF768CB0EF626490E81
:101D0000F7220800F550E66EDFCF10F0116A10BE22
:101D100011680001EF511024E96EF0511120EA6EB4
:101D2000E552E750EF6EDF2AD7D70101AB29E66E07
:101D30000C0E3DD0DF6ADFCF10F0140EE76E1018E6
:101D4000E8AE02D0E73402D0E750105C1DE2DFCFEE
:101D5000F6FFF76AF6BEF768B60EF626490EF722CA
:101D60000800F550E66EDFCF10F0116A10BE116862
:101D70000001EF511024E96EF0511120EA6EE55296
:101D8000E750EF6EDF2AD7D70101AA29E66E0C0EC5
:101D9000E66EEFC0E6FFF0C0E6FF41EC20F0E55252
:101DA000E552E552E5520101A429E66E0F0EE66EFA
:101DB000EFC0E6FFF0C0E6FF41EC20F0E552E5524F
:101DC000E552E5520101AF29E66E030EE66EEFC063
:101DD000E6FFF0C0E6FF41EC20F0E552E552E552A7
:101DE000E5520101B029E66E080EE66EEFC0E6FF8F
:101DF000F0C0E6FF41EC20F0E552E552E552E55235
:101E00000101AC29E66EEAEC1FF0E552E66E110E18
:101E10000001EA6AEF25E96EF051EA22E552E75047
:101E2000EF6E7AC0E6FFEAEC1FF0E552E66E130EA5
:101E30000001EA6AEF25E96EF051EA22E552E75027
:101E4000EF6E0001605136E1DF6ADFCF10F0140E53
:101E5000E76E1018E8AE02D0E73402D0E750105C0D
:101E60001DE2DFCFF6FFF76AF6BEF768A10EF62691
:101E7000490EF7220800F550E66EDFCF10F0116A28
:101E800010BE11680001ED511024E96EEE511120D1
:101E9000EA6EE552E750EF6EDF2AD7D70101AB2992
:101EA000E66E120EE66EEDC0E6FFEEC0E6FF41EC18
:101EB00020F00AD0EDC0E6FFEEC0E6FF600EE66E51
:101EC000000EE66E82EC21F0E552E552E552E55255
:101ED0000101AE51020A49E0030A3CE0010A45E172
:101EE000E66A65EC0BF0E552010EE66E65EC0BF070
:101EF000E552020E0101AD25E96EEA6AE9BEEA6823
:101F0000D890E936EA36ED0EE926000EEA22EE50C8
:101F1000EFCFEAFFE96E0E0EE926000EEA227F0EF1
:101F2000EF6E030ED880AD55E96EEA6AE9BEEA6845
:101F3000D890E936EA36ED0EE926000EEA22EE5098
:101F4000EFCFEAFFE96E0E0EE926000EEA22200E20
:101F5000EF6E0BD0010ED880AD55E66E65EC0BF040
:101F6000E552ADC1E6FF95DDE5525CEC1FF0E552B0
:101F7000E552E7CFD9FF12000101AE51020A01E19B
:101F80008FD0030A5EE0010A01E0A2D0020EAE5D2E
:101F900002E0000E01D0010E200DF3CF13F0AE05CC
:101FA00002E0000E01D0010E100DF3CF12F0060E6C
:101FB000116EADC1E9FFEA6AE9BEEA68D890E93678
:101FC000EA36D890E936EA36BF0EE926010EEA2253
:101FD000020EE926000EEA22EF50400B11C0E7FF87
:101FE000E75204E0E8427F0BE706FCE1106ECE0EFC
:101FF0000101A615101012101310A86F010ED88041
:10200000AD55100DF3CF11F0ADC1E9FFEA6AE9BE9D
:10201000EA68D890E936EA36D890E936EA36BF0E53
:10202000E926010EEA22020EE926000EEA22EF500E
:10203000800BE844010B106EEE0EA5151010111068
:102040002DD0020EAE5D02E0000E01D0010E200D7B
:10205000F3CF11F0AE0502E0000E01D0010E100D1D
:10206000CF0EA615F3101110A86FADC1E9FFEA6AF3
:10207000E9BEEA68D890E936EA36D890E936EA3619
:10208000BF0EE926010EEA22020EE926000EEA2220
:10209000EF501F0B106EE00EA5151010A76F18D093
:1020A000020EAE5D02E0000E01D0010E200DF3CF56
:1020B00011F0AE0502E0000E01D0010E100DF3CFBD
:1020C00010F0CF0EA615F3101110A86FA5C1A7F13F
:1020D0000CEF08F0D9CFE6FFE1CFD9FF020EE126E1
:1020E0006FC1F6FF70C1F7FF800EF626000EF722D3
:1020F000F6CF10F0F7CF11F00101AF510D0D1050D8
:10210000F324716F1150F420726FDF6A020EDF5CEE
:1021100042E2010EDB6A050EF36E010EDBCFF4FF27
:10212000F350F45C36E271C1F6FF72C1F7FF030EA3
:10213000F626000EF722F6CF12F0F7CF13F0DF509D
:10214000050D1250F324F66E1350F420F76EF6CFFF
:1021500010F0F7CF11F0010EDB500F011024F66ED6
:10216000000E1120F76E0800F550E66E010EDBCF71
:10217000E6FF0C0EDF02F350E552E724EA6A730F24
:10218000E96E010EEA22E552E750EF6E010EDB2AFE
:10219000C2D7DF2ABBD7020EE15C02E2E16AE55258
:1021A000E16EE552E7CFD9FF1200D9CFE6FFE1CFCC
:1021B000D9FFE6520101A90519E16FC1F6FF70C10F
:1021C000F7FF020EF626000EF722F62AF722F6CFC8
:1021D00010F0F7CF11F0AA510F011024F66E000E87
:1021E0001120F76E0800F550DF6E02D0ABC1DFFFA3
:1021F0006FC1F6FF70C1F7FFF72AF6CF10F0F7CFE7
:1022000011F0DF50800D1050F324F66E1150F420C1
:10221000F76E0900F5CF60F00900F5CF61F0090015
:10222000F5CF62F00900F5CF63F00900F5CF64F057
:102230000900F5CF65F00900F5CF66F00900F5CF8C
:1022400067F00900F5CF68F00900F5CF69F00900E3
:10225000F5CF6AF00900F5CF6BF00900F5CF6CF00F
:102260000900F5CF6DF00900F5CF6EF00900F5CF4C
:102270006FF00900F5CF70F00900F5CF71F009009B
:10228000F5CF72F00900F5CF73F00900F5CF74F0C7
:102290000900F5CF75F00900F5CF76F00900F5CF0C
:1022A00077F00900F5CF78F00900F5CF79F0090053
:1022B000F5CF7AF00900F5CF7BF00900F5CF7CF07F
:1022C0000900F5CF7DF00900F5CF7EF00900F5CFCC
:1022D0007FF00900F5CF80F00900F5CF81F009000B
:1022E000F5CF82F00900F5CF83F00900F5CF84F037
:1022F0000900F5CF85F00900F5CF86F00900F5CF8C
:1023000087F00900F5CF88F00900F5CF89F00900C2
:10231000F5CF8AF00900F5CF8BF00900F5CF8CF0EE
:102320000900F5CF8DF00900F5CF8EF00900F5CF4B
:102330008FF00900F5CF90F00900F5CF91F009007A
:10234000F5CF92F00900F5CF93F00900F5CF94F0A6
:102350000900F5CF95F00900F5CF96F00900F5CF0B
:1023600097F00900F5CF98F00900F5CF99F0090032
:10237000F5CF9AF00900F5CF9BF00900F5CF9CF05E
:102380000900F5CF9DF00900F5CF9EF00900F5CFCB
:102390009FF00900F5CFA0F00900F5CFA1F00900EA
:1023A000F5CFA2F00900F5CFA3F00900F5CFA4F016
:1023B0000900F5CFA5F00900F5CFA6F00900F5CF8B
:1023C000A7F00900F5CFA8F00900F5CFA9F00900A2
:1023D000F5CFAAF00900F5CFABF00900F5CFACF0CE
:1023E0000900F5CFADF00900F5CFAEF00900F5CF4B
:1023F000AFF00900F5CFB0F00900F5CFB1F009005A
:10240000F5CFB2F00900F5CFB3F00900F5CFB4F085
:102410000900F5CFB5F00900F5CFB6F00900F5CF0A
:10242000B7F00900F5CFB8F00900F5CFB9F0090011
:10243000F5CFBAF00900F5CFBBF00900F5CFBCF03D
:102440000900F5CFBDF00900F5CFBEF00900F5CFCA
:10245000BFF00900F5CFC0F00900F5CFC1F00900C9
:10246000F5CFC2F00900F5CFC3F00900F5CFC4F0F5
:102470000900F5CFC5F00900F5CFC6F00900F5CF8A
:10248000C7F00900F5CFC8F00900F5CFC9F0090081
:10249000F5CFCAF00900F5CFCBF00900F5CFCCF0AD
:1024A0000900F5CFCDF00900F5CFCEF00900F5CF4A
:1024B000CFF00900F5CFD0F00900F5CFD1F0090039
:1024C000F5CFD2F00900F5CFD3F00900F5CFD4F065
:1024D0000900F5CFD5F00900F5CFD6F00900F5CF0A
:1024E000D7F00900F5CFD8F00900F5CFD9F00900F1
:1024F000F5CFDAF00900F5CFDBF00900F5CFDCF01D
:102500000900F5CFDDF00900F5CFDEF00800F5CFCA
:10251000DFF074C0AFF175C0B0F176C0B1F1DADDB3
:102520000101AC6B0001825101E1A3D8E552E552F3
:10253000E7CFD9FF12000101AC51080DF3CFE9FF3D
:10254000F4CFEAFF7B0EE926000EEA22EF5068E1A5
:10255000AC51080DF3CFE9FFF4CFEAFF7B0EE9267B
:10256000000EEA22030EE926000EEA22EF5058E19F
:10257000AC51080DF3CFE9FFF4CFEAFF7B0EE9265B
:10258000000EEA22040EE926000EEA22EF5048E18E
:10259000AC51080DF3CFE9FFF4CFEAFF7B0EE9263B
:1025A000000EEA22040EE926000EEA22030EE926B6
:1025B000000EEA22EF5034E1AC05080DF3CFE9FF3D
:1025C000F4CFEAFF7B0EE926000EEA22EECF10F0F0
:1025D000EECF11F0EECF12F0EECF13F0EECF14F0FD
:1025E000EECF15F0EECF16F0EFCF17F0AC51080D8F
:1025F000F3CFE9FFF4CFEAFF7B0EE926000EEA22D3
:1026000010C0EEFF11C0EEFF12C0EEFF13C0EEFFD0
:1026100014C0EEFF15C0EEFF16C0EEFF17C0EEFFB0
:10262000AC51080DF3CFE9FFF4CFEAFF7B0EE926AA
:10263000000EEA22EECFBFF1EECFC0F1EECFC1F136
:10264000EFCFC2F1AC51080DF3CFE9FFF4CFEAFFB1
:102650007B0EE926000EEA22040EE926000EEA228D
:10266000EECFC3F1EECFC4F1EECFC5F1EFCFC6F19F
:10267000120000015E0E776F1A0E786F470E796FA9
:10268000010E7A6F0101AC51080DF3CFE9FFF4CFD1
:10269000EAFF7B0EE926000EEA22EF6AAC51080D34
:1026A000F3CFE9FFF4CFEAFF7B0EE926000EEA2222
:1026B000EE52EF6AAC51080DF3CFE9FFF4CFEAFF19
:1026C0007B0EE926000EEA22020EE926000EEA221F
:1026D000800EEF6EAC51080DF3CFE9FFF4CFEAFFA7
:1026E0007B0EE926000EEA22030EE926000EEA22FE
:1026F000620EEF6EAC51080DF3CFE9FFF4CFEAFFA5
:102700007B0EE926000EEA22040EE926000EEA22DC
:10271000EF6AAC51080DF3CFE9FFF4CFEAFF7B0E6F
:10272000E926000EEA22040EE926000EEA22EE5205
:10273000EF6AAC51080DF3CFE9FFF4CFEAFF7B0E4F
:10274000E926000EEA22040EE926000EEA22020E15
:10275000E926000EEA22800EEF6EAC51080DF3CF91
:10276000E9FFF4CFEAFF7B0EE926000EEA22040E11
:10277000E926000EEA22030EE926000EEA22620E86
:10278000EF6E1200D9CFE6FFE1CFD9FFE65201018B
:10279000A971A90538E16FC1F6FF70C1F7FF020EFC
:1027A000F626000EF7220800F504A46FAA6BDF6A74
:1027B0006FC1F6FF70C1F7FF020EF626000EF7227A
:1027C0000800F550DF5C39E26FC1F6FF70C1F7FF1A
:1027D000020EF626000EF722F62AF722F6CF10F0A8
:1027E000F7CF11F0DF500F011024F66E000E11200C
:1027F000F76E0800F5500101AB5D03E1DFCFAAF1F0
:102800001CD0DF2AD5D77F0EA46F6FC1F6FF70C131
:10281000F7FF020EF626000EF722F62AF722F6CF71
:1028200010F0F7CF11F0AA510F011024F66E000E30
:102830001120F76E0800F5CFABF1E552E552E7CF76
:10284000D9FF1200D9CFE6FFE1CFD9FFE652DF6A08
:102850000C0EDF5C11E2DF50EA6A8B0FE96E010EAD
:10286000EA22EF680C0EDF24EA6A8B0FE96E010E94
:10287000EA22EF68DF2AECD7E552E552E7CFD9FF2D
:1028800012000101AF1DBC6FB01DBD6FB11DBE6F49
:1028900022EF14F00101A95105E17F0EAB5D06E2C4
:1028A000AB2B1200A451AA5D01E2AA2B1200010178
:1028B000A95105E1AB51000806E2AB071200AA518D
:1028C000000801E2AA0712000B0E0101AC5D01E253
:1028D000AC2B12000101AC6B12000101AC510008DD
:1028E00001E2AC071200D9CFE6FFE1CFD9FFE652F3
:1028F000000EE66EE66AB8EC1FF0E552E552F3CF43
:102900006FF1F4CF70F1DF6A020EDF5C01E39BD060
:102910000C0EDF02F350EA6A730FE96E010EEA2231
:10292000EF680C0EDF02F328EA6A730FE96E010EFE
:10293000EA22EF680C0EDF02F350020FEA6A730F0F
:10294000E96E010EEA22EF680C0EDF02F350030F6E
:10295000EA6A730FE96E010EEA22EF680C0EDF02DD
:10296000F350040FEA6A730FE96E010EEA22EF6872
:10297000100EDF24E66E0C0EDF02F350050FEA6A3C
:10298000730FE96E010EEA22E552E750EF6E120E68
:10299000DF24E66E0C0EDF02F350060FEA6A730FB7
:1029A000E96E010EEA22E552E750EF6E140EDF24C5
:1029B000E66E0C0EDF02F350070FEA6A730FE96E42
:1029C000010EEA22E552E750EF6E3C0EDF24E66E80
:1029D0000C0EDF02F350080FEA6A730FE96E010E66
:1029E000EA22E552E750EF6E250EDF24E66E0C0E6C
:1029F000DF02F350090FEA6A730FE96E010EEA2253
:102A0000E552E750EF6E640EDF24E66E0C0EDF0237
:102A1000F3500A0FEA6A730FE96E010EEA22E552DB
:102A2000E750EF6E660EDF24E66E0C0EDF02F35009
:102A30000B0FEA6A730FE96E010EEA22E552E750C6
:102A4000EF6EDF2A61D70101A36BAE6B010EAD6F94
:102A5000BB6FBA6BB469B569A76BA86BB66FA96F8A
:102A60006FC1F6FF70C1F7FF020EF626000EF722C7
:102A70000800F504A46FDF6A020EDF5C19E2DF5084
:102A8000040DF3CFE9FFF4CFEAFFBF0EE926010EF4
:102A9000EA22EF6ADF50040DF3CFE9FFF4CFEAFF3B
:102AA000BF0EE926010EEA22EE52EF6ADF2AE4D7D2
:102AB0000101AA6BAB6BB76BB86B7F0EBC6FBE6BC3
:102AC000D5EC10F038DDACC1B9F1DF6A020EDF5C85
:102AD00033E20101AC51080DF3CFE9FFF4CFEAFF77
:102AE0007B0EE926000EEA22E9CF14F0EACF15F0BA
:102AF000DF50040DE950F324E96EEA50F420EA6E49
:102B0000EECF10F0EECF11F0EECF12F0EFCF13F0CA
:102B1000DF50040DF3CFE9FFF4CFEAFFBF0EE92643
:102B2000010EEA2210C0EEFF11C0EEFF12C0EEFF50
:102B300013C0EEFFDF2ACAD7A4DEDF6A040EDF5C13
:102B400018E2DFCFE6FF45EC1FF0E552F3CF10F0BF
:102B5000F4CF11F0EA6ADF34FE0BEA36E96EED0ECF
:102B6000E926000EEA22F3CFEEFF11C0EDFFDF2AC7
:102B7000E5D7E552E552E7CFD9FF1200D9CFE6FFFE
:102B8000E1CFD9FFE652FE0EDB50040DF3CFE9FF93
:102B9000F4CFEAFFBF0EE926010EEA22030EE92672
:102BA000000EEA22EFCFDFFFDF50000812E2DF065F
:102BB000FE0EDB50040DF3CFE9FFF4CFEAFFBF0EAA
:102BC000E926010EEA22030EE926000EEA22DFCFF3
:102BD000EFFFE552E552E7CFD9FF1200D9CFE6FF6C
:102BE000E1CFD9FFE652FE0EDB50040DF3CFE9FF33
:102BF000F4CFEAFFBF0EE926010EEA22030EE92612
:102C0000000EEA22EFCFDFFF7F0EDF5C12E2DF2A49
:102C1000FE0EDB50040DF3CFE9FFF4CFEAFFBF0E49
:102C2000E926010EEA22030EE926000EEA22DFCF92
:102C3000EFFFE552E552E7CFD9FF1200D9CFE6FF0B
:102C4000E1CFD9FF020EE126FE0EDB50040DF3CFDB
:102C5000E9FFF4CFEAFFBF0EE926010EEA22020ED9
:102C6000E926000EEA22EF50C00B80082CE1FE0E90
:102C7000DB50040DF3CFE9FFF4CFEAFFBF0EE926E6
:102C8000010EEA22EF5010E0FE0EDB50040DF3CFF0
:102C9000E9FFF4CFEAFFBF0EE926010EEA22E9CFF1
:102CA000DEFFEACFDDFF2AD0770EDE6E000EDD6E8E
:102CB000DECFE9FFDDCFEAFFEF5020E171C1F6FF83
:102CC00072C1F7FF11D0780EDE6E000EDD6EDECF22
:102CD000E9FFDDCFEAFFEF5011E171C1F6FF72C1EC
:102CE000F7FFF62A000EF7220800F550E66EDECF59
:102CF000E9FFDDCFEAFFE552E750EF6EDECFE9FFF7
:102D0000DDCFEAFFEF50010805E2DECFE9FFDDCFBE
:102D1000EAFFEF06020EE15C02E2E16AE552E16ED3
:102D2000E552E7CFD9FF1200D9CFE6FFE1CFD9FFB7
:102D3000020EE126FE0EDB50040DF3CFE9FFF4CFC7
:102D4000EAFFBF0EE926010EEA22020EE926000E76
:102D5000EA22EF50C00B80082CE1FE0EDB50040D80
:102D6000F3CFE9FFF4CFEAFFBF0EE926010EEA2216
:102D7000EF5010E0FE0EDB50040DF3CFE9FFF4CF6F
:102D8000EAFFBF0EE926010EEA22E9CFDEFFEACF15
:102D9000DDFF2AD0770EDE6E000EDD6EDECFE9FF9E
:102DA000DDCFEAFFEF5020E171C1F6FF72C1F7FFFE
:102DB00011D0780EDE6E000EDD6EDECFE9FFDDCFC6
:102DC000EAFFEF5011E171C1F6FF72C1F7FFF62A79
:102DD000000EF7220800F550E66EDECFE9FFDDCFEA
:102DE000EAFFE552E750EF6EDECFE9FFDDCFEAFF05
:102DF000EFCF10F07F0E105C05E2DECFE9FFDDCFF4
:102E0000EAFFEF2A020EE15C02E2E16AE552E16EBE
:102E1000E552E7CFD9FF1200D9CFE6FFE1CFD9FFC6
:102E2000020EE126FE0EDB50040DF3CFE9FFF4CFD6
:102E3000EAFFBF0EE926010EEA22EE52EF5011E042
:102E4000FE0EDB50040DF3CFE9FFF4CFEAFFBF0E17
:102E5000E926010EEA22EE52E9CFDEFFEACFDDFFDE
:102E60001CD0790EDE6E000EDD6EDECFE9FFDDCF09
:102E7000EAFFEF5012E171C1F6FF72C1F7FF020ED7
:102E8000F626000EF7220800F550E66EDECFE9FFC9
:102E9000DDCFEAFFE552E750EF6EDECFE9FFDDCF91
:102EA000EAFFEF50010805E2DECFE9FFDDCFEAFFE0
:102EB000EF06020EE15C02E2E16AE552E16EE552E4
:102EC000E7CFD9FF1200D9CFE6FFE1CFD9FF020E3D
:102ED000E126FE0EDB50040DF3CFE9FFF4CFEAFF4D
:102EE000BF0EE926010EEA22EE52EF5011E0FE0E6F
:102EF000DB50040DF3CFE9FFF4CFEAFFBF0EE92664
:102F0000010EEA22EE52E9CFDEFFEACFDDFF1CD050
:102F1000790EDE6E000EDD6EDECFE9FFDDCFEAFF5B
:102F2000EF5012E171C1F6FF72C1F7FF020EF626F3
:102F3000000EF7220800F550E66EDECFE9FFDDCF88
:102F4000EAFFE552E750EF6EDECFE9FFDDCFEAFFA3
:102F5000EFCF10F07F0E105C05E2DECFE9FFDDCF92
:102F6000EAFFEF2A020EE15C02E2E16AE552E16E5D
:102F7000E552E7CFD9FF1200D9CFE6FFE1CFD9FF65
:102F8000FD0EDBCFE9FFFE0EDBCFEAFFEFCF10F047
:102F9000FC0EDB50D880105407E2FD0EDBCFE9FFBA
:102FA000FE0EDBCFEAFFEF06E552E7CFD9FF1200B6
:102FB000D9CFE6FFE1CFD9FFFD0EDBCFE9FFFE0E53
:102FC000DBCFEAFFEFCF10F0FC0EDB50105C07E226
:102FD000FD0EDBCFE9FFFE0EDBCFEAFFEF2AE55265
:102FE000E7CFD9FF12000101AE51020A01E1E9D099
:102FF000030A01E197D1010A01E094D1020EA6155E
:10300000020822E1800E0001E01507E03F0EE01506
:10301000106E180E105C01E3E08D400EE01507E025
:10302000030EE01504E1ADC1E6FF08DEE552C00E77
:103030000001E01509E03F0EE015010F3F0B106E97
:10304000C00EE0151010E06F020E0101A515020878
:1030500022E1800E0001E61507E03F0EE615106E36
:10306000180E105C01E3E68D400EE61507E0030E36
:10307000E61504E1ADC1E6FF57DEE552C00E0001E2
:10308000E61509E03F0EE615010F3F0B106EC00E6E
:10309000E6151010E66F040E0101A615040822E1E2
:1030A000800E0001E11507E03F0EE115106E180ECD
:1030B000105C01E3E18D400EE11507E0030EE11520
:1030C00004E1ADC1E6FFA8DEE552C00E0001E11546
:1030D00009E03F0EE115010F3F0B106EC00EE11528
:1030E0001010E16F040E0101A515040822E1800E05
:1030F0000001E71507E03F0EE715106E180E105C93
:1031000001E3E78D400EE71507E0030EE71504E144
:10311000ADC1E6FFD8DEE552C00E0001E71509E0BB
:103120003F0EE715010F3F0B106EC00EE715101094
:10313000E76F080E0101A615080822E1800E0001C4
:10314000E21507E03F0EE215106E180E105C01E369
:10315000E28D400EE21507E0030EE21504E1ADC179
:10316000E6FF0CDDE552C00E0001E21509E03F0E5E
:10317000E215010F3F0B106EC00EE2151010E26F4A
:10318000080E0101A515080801E0CCD0800E000151
:10319000E81507E03F0EE815106E180E105C01E30D
:1031A000E88D400EE81507E0030EE81504E1ADC117
:1031B000E6FF14DDE552C00E0001E81501E1B2D0D2
:1031C000A8D0040EA615040827E1800E0001E11521
:1031D00007E03F0EE115106E180E105C01E3E18D63
:1031E000400EE1150CE0030EE11509E1E66AAF0EB1
:1031F000E66E010EE66EC0DEE552E552E552C00E07
:103200000001E11509E03F0EE115010F3F0B106EC3
:10321000C00EE1151010E16F040E0101A5150408A0
:1032200028E1800E0001E71507E03F0EE715106E5C
:10323000180E105C01E3E78D400EE7150DE0030E5C
:10324000E7150AE1080EE66EAF0EE66E010EE66EB9
:10325000AFDEE552E552E552C00E0001E71509E088
:103260003F0EE715010F3F0B106EC00EE715101053
:10327000E76F080E0101A615080827E1800E00017E
:10328000E21507E03F0EE215106E180E105C01E328
:10329000E28D400EE2150CE0030EE21509E1E66A4C
:1032A000B00EE66E010EE66E67DEE552E552E552BF
:1032B000C00E0001E21509E03F0EE215010F3F0BC1
:1032C000106EC00EE2151010E26F080E0101A51578
:1032D000080828E1800E0001E81507E03F0EE81518
:1032E000106E180E105C01E3E88D400EE8150DE03D
:1032F000030EE8150AE17F0EE66EB00EE66E010ED3
:10330000E66E56DEE552E552E552C00E0001E815C4
:1033100009E03F0EE815010F3F0B106EC00EE815D7
:103320001010E86F200E0101A615200819E1800E8B
:103330000001E31515E07F0EE315106E3F0E105CE3
:103340000FE27F0EE315010F106E800EE3151010D3
:10335000E36F7F0EE3153F0803E1E36BC2EC13F06C
:10336000200E0101A515200819E1800E0001E915C4
:1033700015E07F0EE915106E1F0E105C0FE27F0E38
:10338000E915010F106E800EE9151010E96F7F0E20
:10339000E9151F0803E1E96B41EC14F0400E01014F
:1033A000A615400820E1800E0001E41507E03F0E5D
:1033B000E415106E200E105C01E3E48D400EE41560
:1033C00005E0070EE41502E157EC14F0C00E000111
:1033D000E41509E03F0EE415010F3F0B106EC00E1F
:1033E000E4151010E46F800E0101A615800820E19D
:1033F000800E0001E51507E03F0EE515106E200E6A
:10340000105C01E3E58D400EE51505E0070EE515BE
:1034100002E14AEC14F0C00E0001E51509E03F0E90
:10342000E515010F3F0B106EC00EE5151010E56F8E
:10343000400E0101A515400819E1800E0001EA15B2
:1034400015E07F0EEA15106E3F0E105C0FE27F0E46
:10345000EA15010F106E800EEA151010EA6F7F0E4C
:10346000EA153F0803E1EA6B6AEC14F00001EC5145
:1034700006E01F0EEC5D02E2EC2B1200EC6B12007A
:10348000D9CFE6FFE1CFD9FF020EE126A8EC1EF06E
:10349000F3CFDEFFF4CFDDFFDECFA5F1DDCFA6F168
:1034A0000101AE51020A01E18FD1030A01E1FBD013
:1034B000010A01E01ED2010EB31518E1010EA61596
:1034C000010814E1ADC1E9FFEA6AE9BEEA68D890F3
:1034D000E936EA36D890E936EA36BF0EE926010E1B
:1034E000EA22020EE926000EEA22EF7C010EB21556
:1034F00018E1010EA515010814E1ADC1E9FFEA6A62
:10350000E9BEEA68D890E936EA36D890E936EA3674
:10351000BF0EE926010EEA22020EE926000EEA227B
:10352000EF7E020EB31508E1020EA615020804E1B3
:103530000001800EE06F11D0020EB31502080DE1FC
:10354000020EA6150AE10001E0BD05D0ADC1E6FFFF
:103550001EEC16F0E5520001E06B020E0101B215FF
:1035600008E1020EA515020804E10001800EE66FD5
:1035700011D0020EB21502080DE1020EA5150AE1E6
:103580000001E6BD05D0ADC1E6FF94EC16F0E552B2
:103590000001E66B040E0101B31508E1040EA61547
:1035A000040804E10001800EE16F10D0040EB31591
:1035B00004080CE1040EA61509E10001E1BD04D0E8
:1035C000ADC1E6FF29DCE5520001E16B040E01010B
:1035D000B21508E1040EA515040804E10001800EEF
:1035E000E76F10D0040EB21504080CE1040EA51507
:1035F00009E10001E7BD04D0ADC1E6FF64DCE5529E
:103600000001E76B080E0101B31508E1080EA615CD
:10361000080804E10001800EE26F11D0080EB31516
:1036200008080DE1080EA6150AE10001E2BD05D06B
:10363000ADC1E6FFBEEC15F0E5520001E26B080EED
:103640000101B21508E1080EA515080804E1000102
:10365000800EE86F11D0080EB21508080DE1080EB3
:10366000A5150AE10001E8BD05D0ADC1E6FFEEEC0D
:1036700015F0E5520001E86B100E0101B31508E1E9
:10368000100EA615100804E1010EAE15010AAE6F6A
:10369000100EB21501E02DD1100EA515100801E095
:1036A00028D1AD7126D1010EB21518E1010EA51574
:1036B000010814E1ADC1E9FFEA6AE9BEEA68D89001
:1036C000E936EA36D890E936EA36BF0EE926010E29
:1036D000EA22020EE926000EEA22EF70020EB2156F
:1036E00018E1020EA515020814E1ADC1E9FFEA6A6E
:1036F000E9BEEA68D890E936EA36D890E936EA3683
:10370000BF0EE926010EEA22020EE926000EEA2289
:10371000EF72040EB21518E1040EA515040814E1A9
:10372000ADC1E9FFEA6AE9BEEA68D890E936EA364F
:10373000D890E936EA36BF0EE926010EEA22020EDB
:10374000E926000EEA22EF74080EB21518E1080E01
:10375000A515080814E1ADC1E9FFEA6AE9BEEA6807
:10376000D890E936EA36D890E936EA36BF0EE9262F
:10377000010EEA22020EE926000EEA22EF76100E72
:10378000B21518E1100EA515100814E1ADC1E9FF3E
:10379000EA6AE9BEEA68D890E936EA36D890E936AE
:1037A000EA36BF0EE926010EEA22020EE926000ED5
:1037B000EA22EF78100EB31501E09BD0100EA6158B
:1037C000100801E096D091D0040EB31508E1040E64
:1037D000A615040804E10001800EE16F16D0040E66
:1037E000B315040812E1040EA6150FE10001E1BDB6
:1037F0000AD0E66AAF0EE66E010EE66EBCEC17F07C
:10380000E552E552E5520001E16B040E0101B215EB
:1038100008E1040EA515040804E10001800EE76F1D
:1038200017D0040EB215040813E1040EA51510E11B
:103830000001E7BD0BD0080EE66EAF0EE66E010E7E
:10384000E66ED8EC17F0E552E552E5520001E76B61
:10385000080E0101B31508E1080EA615080804E1D9
:103860000001800EE26F16D0080EB315080812E1B1
:10387000080EA6150FE10001E2BD0AD0E66AB00EFF
:10388000E66E010EE66EBCEC17F0E552E552E5522D
:103890000001E26B080E0101B21508E1080EA51542
:1038A000080804E10001800EE86F17D0080EB21579
:1038B000080813E1080EA51510E10001E8BD0BD0C2
:1038C0007F0EE66EB00EE66E010EE66ED8EC17F0D7
:1038D000E552E552E5520001E86B100E0101B31507
:1038E00008E1100EA615100804E1010EAE15010A3C
:1038F000AE6F200EB31508E1200EA615200804E1D6
:103900000001800EE36F11D0200EB31520080DE1E9
:10391000200EA6150AE10001E3AF05D0020E010159
:10392000AE15020AAE6F0001E36B200E0101B21565
:1039300016E1200EA515200812E10001800EE96FA6
:103940007F0E0101A31BA3C1E6FF0E0EE66EB20EB1
:10395000E66E8FEC1FF0E552E552E55209D0200EDD
:10396000B21506E1200EA515200802E10001E96B61
:10397000400E0101B2150FE1400EA51540080BE104
:103980000001800EEA6FEC510FE16DEC14F00001C4
:10399000010EEC6F09D0400EB215400805E1400E53
:1039A000A51502E10001EA6B800E0101B2150FE1DD
:1039B000800EA51580080BE10001800EEB6FEC5125
:1039C0000FE164EC14F00001010EEC6F09D0800EE1
:1039D000B215800805E1800EA51502E10001EB6B30
:1039E000400E0101B3150AE1400EA615400806E19C
:1039F00057EC14F00001800EE46F09D0400EB315AF
:103A0000400805E1400EA61502E10001E46B800EBE
:103A10000101B3150AE1800EA615800806E14AEC03
:103A200014F00001800EE56F09D0800EB3158008F8
:103A300005E1800EA61502E10001E56B0101B6511A
:103A4000A95D06E1B751AA5D03E1B851AB5D03E0A2
:103A5000D5EC10F02BD0B951AC5D2AE0B951080D6E
:103A6000F3CFE9FFF4CFEAFF7B0EE926000EEA224E
:103A7000BFC1EEFFC0C1EEFFC1C1EEFFC2C1EEFF8C
:103A8000B951080DF3CFE9FFF4CFEAFF7B0EE92629
:103A9000000EEA22040EE926000EEA22C3C1EEFF60
:103AA000C4C1EEFFC5C1EEFFC6C1EEFF9BEC12F034
:103AB00089EC08F0BCEC0FF0A5C1B2F1A6C1B3F1DE
:103AC000A7C1B4F1A8C1B5F1A9C1B6F1AAC1B7F1B6
:103AD000ABC1B8F1ACC1B9F1ADC1BAF1AEC1BBF186
:103AE000AFC1BCF1B0C1BDF1B1C1BEF1020EE15C2C
:103AF00002E2E16AE552E16EE552E7CFD9FF12003A
:103B0000D9CFE6FFE1CFD9FFE652080EDF6E8984F8
:103B100089948992FD0EDBBE02D0899601D08986F8
:103B2000DBCFF3FFF39EF346F3CFDBFF8982DF06A3
:103B3000F0E1080EDF6E8992FE0EDBBE02D08996A0
:103B400001D08986DBCFF3FFF39EF346F3CFDBFF93
:103B50008982DF06F0E18984100EDF6EDF5002E01B
:103B6000DF06FCD7899489868982E552E552E7CF42
:103B7000D9FF1200D9CFE6FFE1CFD9FF050EE1262C
:103B8000030EDB6ADE52010EDD6EDF6A080EDF5CBB
:103B900022E2DFCFE6FFC7D8E552050EF36E020E34
:103BA000F3CFDBFFDB5003E0020EDB06FBD784A282
:103BB00009D0030EDBCFE7FF010EDB50E712030E47
:103BC000E7CFDBFF010EDBCFF3FFF39EF346F3CF2E
:103BD000DBFFDF2ADBD7040EDB6ADE52010EDD6E6F
:103BE000080EDF6E100EDF5C22E2DFCFE6FF9BD80F
:103BF000E552050EF36E020EF3CFDBFFDB5003E060
:103C0000020EDB06FBD784A209D0040EDBCFE7FF50
:103C1000010EDB50E712040EE7CFDBFF010EDBCF16
:103C2000F3FFF39EF346F3CFDBFFDF2ADBD7030E70
:103C3000DB1CE76E030EE7CFDBFFDB50800BE840B9
:103C4000E8403F0B166E030EDB50400B156E030E63
:103C5000DB50200BE8407F0B146E030EDB50100B83
:103C6000080DF3CF13F0030EDB50080B126E030E9A
:103C7000DB50040BE840E8403F0B116E030EDB50B5
:103C8000020B106E030EDB50010B040DF3501010ED
:103C90001110121013101410151016100201456F98
:103CA000040EDB1CE76E040EE7CFDBFFDB50800B5E
:103CB000E840E8403F0B166E040EDB50400B156EDB
:103CC000040EDB50200BE8407F0B146E040EDB501B
:103CD000100B080DF3CF13F0040EDB50080B126E1F
:103CE000040EDB50040BE840E8403F0B116E040E5D
:103CF000DB50020B106E040EDB50010B040DF35071
:103D000010101110121013101410151016100201BB
:103D1000446F050EE15C02E2E16AE552E16EE552B4
:103D2000E7CFD9FF1200D9CFE6FFE1CFD9FF8998BD
:103D3000899A8D908990FE0EDBB08988DBB2898AE2
:103D4000DBB48D80DBB68980E552E7CFD9FF120066
:103D5000D9CFE6FFE1CFD9FF020EE126126A0201B8
:103D600045511210DE6E44C2DDFFDECF10F0DDCF14
:103D700011F010C0F3FF11C0F4FF020EE15C02E28B
:103D8000E16AE552E16EE552E7CFD9FF1200D9CFE3
:103D9000E6FFE1CFD9FF020EE12642C2DFFF0F0EA0
:103DA000DF14100DF00EDF14E8380F0BF310DF6E88
:103DB000330EDF14040DCC0EDF14E840E8403F0B57
:103DC000F310DF6E550EDF14E824106EAA0EDF1418
:103DD000E8407F0B1010DF6E010E43C2DBFFDB50AB
:103DE0000F0B100D010EDB50F00BE8380F0BF3102A
:103DF000E76E010EE7CFDBFFDB50330B040DF3CF93
:103E000010F0010EDB50CC0BE840E8403F0BF31004
:103E1000E76E010EE7CFDBFFDB50550BE824106E99
:103E2000010EDB50AA0BE8407F0B1010E76E010E6D
:103E3000E7CFDBFFDFCFE6FFDBCFE6FF61DEE5525A
:103E4000E552020EE15C02E2E16AE552E16EE55202
:103E5000E7CFD9FF1200D9CFE6FFE1CFD9FFFE0EA1
:103E6000DBCF11F011C010F011500201426FFF0EB4
:103E7000E76EFD0EDBCF10F0E7501016116A10C090
:103E800043F2E552E7CFD9FF1200D9CFE6FFE1CFE9
:103E9000D9FFFE0EDB50140DF3CF10F0F4CF11F06C
:103EA0001F0E1026010E112210C0F3FF11C0F4FFE7
:103EB000E552E7CFD9FF12001A861200D9CFE6FFEC
:103EC000E1CFD9FF000000009EA8FED7000000004F
:103ED000FE0EDB50AD6E00000000E552E7CFD9FFCB
:103EE0001200D9CFE6FFE1CFD9FF000000009EA865
:103EF000FED700000000FE0EDB50AD6E000000009B
:103F0000000000009EA8FED700000000FD0EDB5060
:103F1000AD6E00000000E552E7CFD9FF1200D9CF07
:103F2000E6FFE1CFD9FF000000009EA8FED7000009
:103F30000000FE0EDB50AD6E00000000000000002F
:103F40009EA8FED700000000FD0EDB50AD6E000005
:103F50000000000000009EA8FED700000000FC0E3C
:103F6000DB50AD6E00000000E552E7CFD9FF120034
:103F7000D9CFE6FFE1CFD9FFE652FE0EDBCF11F03D
:103F800011380F0BE850DF6ED950FD0FE96EFF0EB0
:103F9000DA20EA6EEE520F0EED16DF50126E136A43
:103FA0000C0ED89012361336E806FBE1000E1226EE
:103FB000500E1322FD0EDB501224106EFE0EDB504D
:103FC0001320116E10C0F3FFF46EE552E552E7CFF7
:043FD000D9FF120003
:0C3FD400D9CFE6FFE1CFD9FFE652FE0E88
:103FE000DB500F0BDF6E0A0EDF5C03E2300EDF24C6
:103FF00003D00A0EDF5C610FE552E552E7CFD9FF2F
:104000001200D9CFE6FFE1CFD9FFE652FB0EDB501D
:104010000F0BDF6EFC0EDB50106E116AD950FD0FD6
:10402000E96EFF0EDA20EA6E1050EE261150ED22F6
:10403000FB0EDB500F0BE66ECDDFE552E66EFD0E9C
:10404000DBCFE9FFDB06FE0EDBCFEAFF01E2DB069A
:10405000E552E750EF6EFB0EDB380F0B0F0BE66EF1
:10406000B9DFE552E66EFD0EDBCFE9FFFE0EDBCFDA
:10407000EAFFE552E750EF6EE552E552E7CFD9FF90
:104080001200D9CFE6FFE1CFD9FF0A0E126E0C6EF7
:10409000FB0EDBCF07F06FEC25F00350300FE66E20
:1040A000FC0EDBCFF3FFDB06F350106E116A10BE7F
:1040B0001168FD0EDB501024E96EFE0EDB5011205E
:1040C000EA6EE552E750EF6E0A0E106E0C6EFB0EB4
:1040D000DBCF07F06FEC25F0FB0E07C0DBFF0750CE
:1040E0000008D3E3FC0EDB50E552E7CFD9FF120006
:1040F000D9CFE6FFE1CFD9FF020EE126FB0EDB5060
:10410000800B02E1000E01D0010EDF6ED950FA0FD4
:10411000E96EFF0EDA20EA6E000ED880EE54000E33
:10412000ED540BE2FA0EDBCF10F0FB0EDBCF11F0FB
:10413000000E105C800E115802E3000E01D0010E3B
:10414000E76E010EE7CFDBFFFC0EDB50106E116A4D
:10415000D950FD0FE96EFF0EDA20EA6E1050EE2600
:104160001150ED22FA0EDBCF10F0FB0EDBCF11F079
:10417000FF0E10167F0E1116FF0E101824E17F0E91
:10418000111821E1FD0EDBCFE9FFDB06FE0EDBCFD0
:10419000EAFF01E2DB06660EEF6EFD0EDBCFE9FF04
:1041A000DB06FE0EDBCFEAFF01E2DB066E0EEF6EF2
:1041B000FD0EDBCFE9FFDB06FE0EDBCFEAFF01E2FF
:1041C000DB06690E7FD00F0EE76EFA0EDBCF10F024
:1041D000FB0EE7501016116A300E1024E66EFD0E2D
:1041E000DBCFE9FFDB06FE0EDBCFEAFF01E2DB06F9
:1041F000E552E750EF6EFD0EDBCFE9FFDB06FE0E6A
:10420000DBCFEAFF01E2DB062E0EEF6ED950FA0F8C
:10421000E96EFF0EDA20EA6E040E0F0B06E0EC5298
:10422000D890ED32EF32E806FAE10F0EE76EFA0EA3
:10423000DBCF10F0FB0EE7501016116A300E102481
:10424000E66EFD0EDBCFE9FFDB06FE0EDBCFEAFFFD
:1042500001E2DB06E552E750EF6ED950FA0FE96E46
:10426000FF0EDA20EA6E040E0F0B06E0EC52D89037
:10427000ED32EF32E806FAE10F0EE76EFA0EDBCF11
:1042800010F0FB0EE7501016116A000ED880105483
:10429000000E115418E20F0EE76EFA0EDBCF10F08D
:1042A000FB0EE7501016116A300E1024E66EFD0E5C
:1042B000DBCFE9FFDB06FE0EDBCFEAFF01E2DB0628
:1042C000E552E750EF6EDF5008E0FD0EDBCFE9FF6F
:1042D000FE0EDBCFEAFF2D0E0AD0010EDB5008E008
:1042E000FD0EDBCFE9FFFE0EDBCFEAFF2B0EEF6EFC
:1042F000020EE15C02E2E16AE552E16EE552E7CFCF
:10430000D9FF1200D9CFE6FFE1CFD9FFE652DF6A2D
:10431000DF50E76EFD0EDBCFE9FFFE0EDBCFEAFFDD
:10432000E750E926000EEA22EF5022E0140EDF5C8F
:104330001FE2DF50E76EFD0EDBCFE9FFFE0EDBCFA5
:10434000EAFFE750E926000EEA22EF50E66EDF5062
:10435000E76EFB0EDBCFE9FFFC0EDBCFEAFFE75099
:10436000E926000EEA22E552E750EF6EDF2AD0D7A9
:10437000140EDF5C10E2DF50E76EFB0EDBCFE9FFCF
:10438000FC0EDBCFEAFFE750E926000EEA22200E02
:10439000EF6EDF2AEDD7E552E552E7CFD9FF1200E5
:1043A000D9CFE6FFE1CFD9FF290EF36EFE0EDBCFAA
:1043B000F4FFF350F45C04E3FE0EDB50620805E208
:1043C0009C0E106E490E116E0CD0FE0EDB50D70FF6
:1043D000040DF3CF10F0F4CF11F0C20E1026460EEC
:1043E000112210C0F3FF11C0F4FFE552E7CFD9FF4F
:0243F0001200B9
:0E43F200D9CFE6FFE1CFD9FFE6520101186BEB
:10440000196B1A6B1B6B1C6B1D6BF29EF29C9D90C3
:104410008C8EDF6A500EDF5C0AE2CD909E90CE6AF1
:10442000CF6ACD809EA0FED79E90DF2AF3D79D80D5
:10443000F28EF28CE552E552E7CFD9FF1200D9CFC8
:10444000E6FFE1CFD9FF020EE12601011951000874
:1044500042E3010E1EC1DBFFFE0EE66E46D8E552BA
:10446000450EE66E42D8E552010EDB50030A0CE021
:10447000010A08E0030A04E0010A0AE1E66A06D03C
:10448000400E03D0140E01D0540EE66E2ED8E55225
:10449000DF6A140EDF5C18E2010EDB50140DF3CF5F
:1044A00010F0F4CF11F01F0E1026010E1122DF5074
:1044B0000F011024E96E000E1120EA6EEF50E66E37
:1044C00014D8E552DF2AE5D701011E2B040E1E5D2C
:1044D00002E31E6B1A94020EE15C02E2E16AE5520D
:1044E000E16EE552E7CFD9FF1200D9CFE6FFE1CF69
:1044F000D9FF180E0101185D0DE21851EA6A000F8C
:10450000E96E010EEA22FE0EDBCFEFFF182B1D51E4
:1045100001E104D8E552E7CFD9FF1200F29EF29CE8
:104520000101020E1C6F010E1D6FCD90BC0ECE6EF0
:10453000FC0ECF6ECD80F28EF28C12009E90CD904C
:10454000820ECE6EFD0ECF6ECD8001011C51030A8E
:1045500013E0010A03E0020A33E01200030E1C6FAD
:10456000010E1B6F1951EA6A000FE96E010EEA2273
:10457000EFCF1AF18C9E12001B5119E18C8E192B72
:104580001851195D09E31C6B1D6B196B186BCD90ED
:104590009E90CE6ACF6A12001951EA6A000FE96E46
:1045A000010EEA22EFCF1AF1020E1C6F12001AA1BF
:1045B00002D08C8E01D08C9E1A911A431B9F1B47F0
:0245C0001200E7
:0E45C200FFFF04F543F407F481F360F344F3C4
:1045D00029F317F306F395F286F278F270F262F29D
:1045E00055F249F242F236F231F225F220F215F29A
:1045F00010F205F201F296F192F188F184F180F166
:1046000076F172F168F165F161F158F154F151F10F
:1046100048F144F141F138F135F132F129F126F157
:1046200023F120F117F114F111F109F106F103F171
:1046300000F198F095F092F090F087F085F082F01C
:1046400079F077F074F072F070F067F065F062F076
:1046500060F057F055F053F050F048F046F043F05A
:1046600041F039F037F034F032F030F028F025F036
:1046700023F021F019F017F014F012F010F008F008
:1046800006F004F001F0000002000400060008003B
:10469000100012001500170019002100230025004A
:1046A0002700290031003300350037003900410070
:1046B0004300450047004900510053005500570092
:0246C000600098
:0E46C20043686F3143686F32436D7031436D52
:1046D00070324372733143727332446C7931446C7B
:1046E00079324472763144727632456E6831466C66
:1046F0007431466C7432466C7433466C7434466C58
:104700006731466C6732466D6E7446786C704774DC
:104710006531477465324765713147657132476568
:104720007133476571344D6567614D636D314D631C
:104730006D324D6479314D64793250657132506516
:104740007133506571345065713150687231506801
:1047500072325069743150697432516368315163F7
:10476000683252736E3152736E32527662315276C3
:10477000623252696E675274723152747232537976
:104780006E3153796E3254726D3154726D32566F90
:10479000636F566F6C31566F6C32566F6C33566F59
:0A47A0006C345761683157616832CC
:0647AA00040005EC25F0FF
:1047B0000400F9EC21F00400FE0EE66E75EC22F028
:1047C000E552510EE66E75EC22F0E552FE0EE66EF5
:1047D00075EC22F0E552520EE66E75EC22F0E552D1
:1047E000140EE66E75EC22F0E552BAEC1DF073EC97
:1047F00014F00400F28EF28C19A605D01996E66A20
:1048000093EC24F0E55219A806D01998200EE66E14
:1048100093EC24F0E55219A003D019905EEC25F03A
:104820001AA003D01A90BAEC1DF019AA03D0199A55
:10483000C7EC1EF01AA203D01A92F3EC17F019AECF
:1048400003D0199E40EC1AF01A50080B05E01A50DC
:10485000040B02E11A841A961A50040B05E00101B8
:0C4860001C5102E11FEC22F0C4D7120032
:04486C00DACFE4FFBC
:10487000E2CFDAFFE9CFE4FFEACFE4FFF6CFE4FFCF
:10488000F7CFE4FFF5CFE4FFF3CFE4FFF4CFE4FF8D
:10489000FACFE4FF00EE00F0100EE80403E3EECFE1
:1048A000E4FFFBD700EE10F0080EE80403E3EECFC0
:1048B000E4FFFBD7E6529EA002D09EEC22F09EA21F
:1048C00008D09E920201462B040E465D02E1466B23
:1048D0001980E55200EE17F0080EE80403E3E5CF77
:1048E000EDFFFBD700EE0FF0100EE80403E3E5CF79
:1048F000EDFFFBD7E5CFFAFFE5CFF4FFE5CFF3FF00
:10490000E5CFF5FFE5CFF7FFE5CFF6FFE5CFEAFF0F
:0A491000E5CFE9FFE5CFDAFF110063
:06491A00550EA76EAA0E67
:10492000A76EA6821200D9CFE6FFE1CFD9FFE652EB
:10493000E00E02010017840EA66EFE0EDB50DF6E45
:10494000FE0EDB50200FDF5C1AE2DF50EA6A020F36
:10495000E96E020EEA22EFCF10F0DF500201F76A93
:104960000025F66E0151F722F86A10C0F5FF0C0021
:104970001F0EDF141F0801E1D0DFDF2AE1D7E55267
:10498000E552E7CFD9FF1200940EA66E00C2F6FFE3
:0C49900001C2F7FFF86AC1DFF86A1200EC
:04499C002020202097
:1049A000005F5F756E6E616D656420736F6E67206A
:1049B00023202020200058202030204B2020302091
:1049C0004920312F203120302F3000582020302036
:1049D0004B202030205320312F393620302F30000B
:1049E00020202020202020202020202020202020C7
:1049F0002020202000432031612020202020202062
:0A4A0000302E30202D2D2D2D2D001D
:064A0A0036EC25F0896A7C
:104A10008A6A8B6A8C6A8D6A926A100E936EF80E9F
:104A2000946E956A020E966EA60EAC6E900EAB6EEC
:104A30003F0EAF6EB06A400EC26E0E0EC16E060E15
:104A4000C06E200EF26E800EF16ED08ED76AD66ADE
:104A5000420ED56ECF6ACE6ACD6ACC6AF90ECB6EA5
:0C4A60000D0ECA6E030E9D6EF28E120049
:044A6C00EA6AE96A9F
:104A70000400EE6AEAA6FCD71200000EF36E00EE08
:104A800000F0080E01D81200EA6002D0EE6AFCD7EE
:0A4A9000F350E9601200EE6AFCD753
:064A9A0017EE00F027EE0C
:104AA00000F0F86A0F9CEA6AE96A0400EE6AEAA676
:0C4AB00055EF25F0D5EC23F0FDD71200E7
:044ABC000201472B81
:104AC0000A0E475D0BE1476B198E198A1A820201A3
:0E4AD000482B040E485D02E1486B1A8012006C
:024ADE00036A69
:104AE000080EE76ED890073603360C50035C02E3DD
:0A4AF000036E072AE72EF7D7120025
:10500000033626061724352D1F11192000142F23CF
:1050100013020B2605071B0F2A011509101E30313C
:1050200021322E031D1627180DFFFFFFFFFFFFFF84
:10503000FFFFFFFFFFFFFFFFFFFFFFFFFFFFFFFF80
:10504000FFFFFFFFFFFFFFFFFFFFFFFFFFFFFFFF70
:10505000FFFFFFFFFFFFFFFFFFFFFFFFFFFFFFFF60
:10506000FFFFFFFFFFFFFFFFFFFFFFFFFFFFFFFF50
:10507000FFFFFFFFFFFFFFFFFFFFFFFFFFFFFFFF40
:105080005E1A484D5638292F4E57392A305E1A4835
:105090004D5638292F4E57392A305E1A484D56380A
:1050A000292F4E57392A305E1A474D5638292F4E30
:1050B00057392A305E1A474D5638292F4E57392A0C
:1050C000305E1A474D5638292F4E57392A305E1A0E
:1050D000474D5638292F4E57392A305E1A474D56BC
:1050E00038292F4E57392A305E1A474D5638292F06
:1050F0004E57392A30000000000000000000000078
:105100004D6F6E6B6579205772656E6368000000A5
:10511000000000000032AF44000001000080620087
:10512000008062000000000000000000000000009D
:10513000000000000000000000000000000000006F
:10514000000000000000000000000000000000005F
:10515000000000000000000000000000000000004F
:10516000000000000000000000000000000000003F
:10517000000000000000000000000000000000002F
:105180005A65726F0000000000000000000000007F
:105190000000000000328170000007000080620003
:1051A000008062000080620000917F000080620049
:1051B000008062000080620000917F000080620039
:1051C000008062000080620000907F00008062002A
:1051D00000806200000000000000000000000000ED
:1051E00000000000000000000000000000000000BF
:1051F00000000000000000000000000000000000AF
:10520000427564647920486F6C6C7900000000007E
:1052100000000000003279000000030000806200FE
:10522000008062000080620000907F0000806200C9
:10523000008062000000000000000000000000008C
:10524000000000000000000000000000000000005E
:10525000000000000000000000000000000000004E
:10526000000000000000000000000000000000003E
:10527000000000000000000000000000000000002E
:10528000506C757368000000000000000000000012
:105290000000000000329100000001000080620068
:1052A0000088620000000000000000000000000014
:1052B00000000000000000000000000000000000EE
:1052C00000000000000000000000000000000000DE
:1052D00000000000000000000000000000000000CE
:1052E00000000000000000000000000000000000BE
:1052F00000000000000000000000000000000000AE
:1053000044726976650000000000000000000000A3
:105310000000000001325B700000030000406200EA
:105320000040620000927500004062000040620090
:1053300000406200000000000000000000000000CB
:10534000000000000000000000000000000000005D
:10535000000000000000000000000000000000004D
:10536000000000000000000000000000000000003D
:10537000000000000000000000000000000000002D
:10538000436F6D652041726F756E64000000000010
:105390000000000000326200000003000080620094
:1053A000008062000080620000907A00008062004D
:1053B000008062000000000000000000000000000B
:1053C00000000000000000000000000000000000DD
:1053D00000000000000000000000000000000000CD
:1053E00000000000000000000000000000000000BD
:1053F00000000000000000000000000000000000AD
:105400005A656E000000000000000000000000006F
:1054100000000000003287000000070000806200EA
:1054200000907A00008062000080620000806200CC
:1054300000907A00008062000080620000806200BC
:1054400000907A000080620000906200008062009C
:10545000008062000000000000000000000000006A
:10546000000000000000000000000000000000003C
:10547000000000000000000000000000000000002C
:1054800053616E646D616E0000000000000000005A
:105490000000000000327C000000090000006200F3
:1054A00000005D0000806200008059000080620002
:1054B000008062000080627000907A0000006270DC
:1054C00000906B000000620000006200008062003B
:1054D0000000620000806200008062000080627054
:1054E00000907A00000000000000000000000000B2
:1054F00000000000000000000000000000000000AC
:10550000437261776C696E67000000000000000064
:105510000000000000325E000000080000806241D0
:1055200000945B00008062000080620000806241A5
:1055300000945B0000806200008062000080624195
:1055400000945B0000806200008062000080624185
:1055500000945B0000806200008062000000000098
:10556000000000000000000000000000000000003B
:10557000000000000000000000000000000000002B
:10558000536F6E6720320000000000000000000032
:1055900000000000003282700000060000806200FF
:1055A00000006200008062000080620000806200F3
:1055B00000006200008062000080620000806200E3
:1055C00000006200008062000080620000000000B5
:1055D00000000000000000000000000000000000CB
:1055E00000000000000000000000000000000000BB
:1055F00000000000000000000000000000000000AB
:105600005365782054797065205468696E6700008E
:1056100000000000003287000000010000806200EE
:105620000080620000000000000000000000000098
:10563000000000000000000000000000000000006A
:10564000000000000000000000000000000000005A
:10565000000000000000000000000000000000004A
:10566000000000000000000000000000000000003A
:10567000000000000000000000000000000000002A
:10568000426C7565204361727300000000000000E9
:105690000000000000326500000009000080620088
:1056A00000906200008062000018620000806200CA
:1056B00000906200008062000018620000806200BA
:1056C000009062000080620000907500008062001F
:1056D000001862000080620000906200008062009A
:1056E00000907500000000000000000000000000B5
:1056F00000000000000000000000000000000000AA
:10570000496E20426C6F6F6D0000000000000000C9
:105710000000000000325000000003000080620022
:10572000008062000080620000807F0000806200D4
:105730000080620000000000000000000000000087
:105740000000000000000000000000000000000059
:105750000000000000000000000000000000000049
:105760000000000000000000000000000000000039
:105770000000000000000000000000000000000029
:1057800048617368205069706500000000000000E7
:105790000000000000327E00000003000080620074
:1057A000008062000080620000907F000080620044
:1057B0000080620000000000000000000000000007
:1057C00000000000000000000000000000000000D9
:1057D00000000000000000000000000000000000C9
:1057E00000000000000000000000000000000000B9
:1057F00000000000000000000000000000000000A9
:105800004D79204865726F00000000000000000024
:105810000000000000329A000000010000806200D9
:105820000080620000000000000000000000000096
:105830000000000000000000000000000000000068
:105840000000000000000000000000000000000058
:105850000000000000000000000000000000000048
:105860000000000000000000000000000000000038
:105870000000000000000000000000000000000028
:105880004D616368696E65686561640000000000D1
:105890000000000000326E51000001000080620034
:1058A0000080620000000000000000000000000016
:1058B00000000000000000000000000000000000E8
:1058C00000000000000000000000000000000000D8
:1058D00000000000000000000000000000000000C8
:1058E00000000000000000000000000000000000B8
:1058F00000000000000000000000000000000000A8
:10590000486F6C69646179000000000000000000CD
:10591000000000000032A8000000030000806200C8
:1059200000806200009075000080620000806200CC
:105930000080620000000000000000000000000085
:105940000000000000000000000000000000000057
:105950000000000000000000000000000000000047
:105960000000000000000000000000000000000037
:105970000000000000000000000000000000000027
:10598000427261696E205374657700000000000068
:105990000000000000324C50005C010000806200FA
:1059A0000080620000000000000000000000000015
:1059B00000000000000000000000000000000000E7
:1059C00000000000000000000000000000000000D7
:1059D00000000000000000000000000000000000C7
:1059E00000000000000000000000000000000000B7
:1059F00000000000000000000000000000000000A7
:105A0000426F756E6400000000000000000000009E
:105A100000000000003278000000030000806200F7
:105A200000806200008062000098620000806200D6
:105A30000080620000000000000000000000000084
:105A40000000000000000000000000000000000056
:105A50000000000000000000000000000000000046
:105A60000000000000000000000000000000000036
:105A70000000000000000000000000000000000026
:105A800043756D626572736F6D6500000000000004
:105A900000000000003251000000010000806200A0
:105AA0000080620000000000000000000000000014
:105AB00000000000000000000000000000000000E6
:105AC00000000000000000000000000000000000D6
:105AD00000000000000000000000000000000000C6
:105AE00000000000000000000000000000000000B6
:105AF00000000000000000000000000000000000A6
:105B00004C756D70000000000000000000000000F7
:105B10000000000000328F000000010000806200E1
:105B20000080620000000000000000000000000093
:105B30000000000000000000000000000000000065
:105B40000000000000000000000000000000000055
:105B50000000000000000000000000000000000045
:105B60000000000000000000000000000000000035
:105B70000000000000000000000000000000000025
:105B8000486579204A65616C6F7573790000000083
:105B90000000000000329A00000003300080620024
:105BA00000806230008062000090753000806200EA
:105BB0000080620000000000000000000000000003
:105BC00000000000000000000000000000000000D5
:105BD00000000000000000000000000000000000C5
:105BE00000000000000000000000000000000000B5
:105BF00000000000000000000000000000000000A5
:105C00004B727970746F6E6974650000000000005B
:105C1000000000000032640000000A000000620082
:105C2000000062000080620000806200008062006C
:105C3000000062000000620000006200008062005C
:105C40000080620000907000008062000090700090
:105C5000000062000000620000006200008062003C
:105C60000080620000907000008062000000000070
:105C70000000000000000000000000000000000024
:105C800044616D6D697400000000000000000000B8
:105C90000000000000326E00000001000080620081
:105CA0000080620000000000000000000000000012
:105CB00000000000000000000000000000000000E4
:105CC00000000000000000000000000000000000D4
:105CD00000000000000000000000000000000000C4
:105CE00000000000000000000000000000000000B4
:105CF00000000000000000000000000000000000A4
:105D00004D79204F776E20576F72737420456E6502
:105D10006D7900000032680000000400008062001D
:105D2000008062000080620000806B0000806200E2
:105D3000008062000080620000906B0000000000A4
:105D40000000000000000000000000000000000053
:105D50000000000000000000000000000000000043
:105D60000000000000000000000000000000000033
:105D70000000000000000000000000000000000023
:105D8000546865204D6964646C6500000000000083
:105D9000000000000032A244000004000080620005
:105DA000008062000080625E0080750000806200FA
:105DB0000094590000806200008062000000000032
:105DC00000000000000000000000000000000000D3
:105DD00000000000000000000000000000000000C3
:105DE00000000000000000000000000000000000B3
:105DF00000000000000000000000000000000000A3
:105E000042756C6C6574000000000000000000002A
:105E10000000000000327A0000000800000062006C
:105E200000006200008062000080620000006200EA
:105E300000006200000062000090540000806200D8
:105E400000806200000062000000620000806200CA
:105E50000080620000806200008875000000000081
:105E60000000000000000000000000000000000032
:105E70000000000000000000000000000000000022
:105E800042656175746966756C20446973617374E9
:105E9000657200000035A90000000100008062006A
:105EA0000080620000000000000000000000000010
:105EB00000000000000000000000000000000000E2
:105EC00000000000000000000000000000000000D2
:105ED00000000000000000000000000000000000C2
:105EE00000000000000000000000000000000000B2
:105EF00000000000000000000000000000000000A2
:105F000042656C6C7300000000000000000000009F
:105F100000000000003276000000020000806200F5
:105F2000008062000080620000907A0000000000A3
:105F30000000000000000000000000000000000061
:105F40000000000000000000000000000000000051
:105F50000000000000000000000000000000000041
:105F60000000000000000000000000000000000031
:105F70000000000000000000000000000000000021
:105F80004675656C00000000000000000000000085
:105F90000000000000346B5000000600008062002A
:105FA000008062000080620000807000008062005B
:105FB000008078000080620000906B00008062002A
:105FC000008062000080620000906200000000001B
:105FD00000000000000000000000000000000000C1
