:020000040000FA
:0600000011EF00F01200F8
:0600080004EF08F01200F5
:080018000CEF08F060EF00F0AE
:020020001200CC
:0E002200400EC26E0E0EC16E060EC06E92989B
:10003000929A969092908998898A8D9089901DD8ED
:100040001CD81BD884A202D003D002D060EF00F0ED
:10005000060EF66E100EF76E0900F5CF10F00800D0
:10006000F5CF11F00D0E101802E1600E111802E12B
:0C00700000EF08F060EF00F0120012003A
:1000C000F26A13EE00F023EE00F0F86AFC6A6DA607
:1000D00002D082EC02F011D80400D3EC06F0E7EC79
:1000E00006F018D8060E0301B45D05E16D50020B51
:1000F00002E195EC00F0F0D71200140E6F6E0301D0
:10010000B46B0301B56B0301B66B8CEC00F08C9003
:1001100095901200120000000001E56BE969EA69A0
:10012000EB69E86B010EEC6F12000001E5511EE176
:10013000040108BF94D10001400EFE6F0001A10E22
:10014000FC6F000EFD6FA2EC06F00001010EE56FE2
:10015000ED6B400EED5D01E382D1ED51EA6A600F77
:10016000E96E000EEA22EF6AED2BF3D70001A151F0
:10017000080A01E171D1040A01E132D1050A01E165
:100180002DD10E0A01E1F6D0010A01E1EDD0030AFA
:1001900001E195D0010A4DE0070A41E0010A01E0C2
:1001A0005CD10001020E606F3A0E616F010E626F4A
:1001B000636F646B100E656F666B676BC00E686F64
:1001C0006D0E696F6A6B6B6B030E6C6F6D6B6E6B94
:1001D000300E6F6F706B0E0E716F726B736B746B92
:1001E000040E756F766B776B200E786F796B080E47
:1001F0007A6F7B6B7C6B7D6B020E7E6F7F6B806B8F
:10020000F00E816F826B836B010E846F856B866B42
:100210008769A50E996F04010CBF21D1DCD00001C4
:10022000010EEC6F0001A25101E013D10001EC6B53
:1002300010D1400E0001E66FE76B000EE65D020E86
:10024000E7591FE22FDAE6C000F0E7C001F0026ACA
:10025000060E1F0BE6C0F6FFE7C0F7FF02C0F8FF6F
:1002600006E0D890F636F736F836E806FAE1940E4E
:10027000A66E24DAE7EC06F00001E62B000EE72379
:10028000DCD7ED6BEDC0A9FFA868040EA66EE7EC05
:1002900006F014DA0001ED51ED2B006E016A026ADE
:1002A000FF0E005C000E0158000E0258EBE3F66AE8
:1002B000F76A200EF86E940EA66E00DACAD0300EE1
:1002C000A45D06E10001EC5101E0C3D092D9C1D098
:1002D000F00EA45D02E1B3D9BCD0E8680001E919D1
:1002E0000CE1E868EA1909E1E868EB1906E1A2C047
:1002F000E9F0A3C0EAF0A4C0EBF0E90EE96E000E4D
:10030000EA6EEE500001A21901E0A3D0EE50A3194D
:1003100001E09FD0EE50A41901E09BD001E099D0FC
:100320000001ED6B0001A6510001ED5D01E391D0EC
:10033000BDD9A70FE96E000EEA22EF50E66EE85134
:10034000EA6A600FE96E030EEA22E552E750EF6EAB
:10035000E82BE92B000EEA23EB23200EE85D01E1F8
:10036000E4D80001ED2BDED7E0D80001E969EA69A5
:10037000EB6970D00001070E606FA2C061F0A3C0EE
:1003800062F0A4C063F0A5C064F0A6C065F0A2C08E
:10039000F6FFA3C0F7FFA4C0F8FF0001ED6B00015A
:1003A000A6510001ED5D14E2F00E0001A45D0AE12A
:1003B000A2510001ED25A96EA66AA68084D9A8CF16
:1003C000EFFF04D071D97FD9F5CFEFFFED2BE7D741
:1003D00004010CBF44D00001400E33D041D839D0C5
:1003E00000010C0E606F010E616F626F160EF66EEB
:1003F000100EF76E0900F5CF63F00A00F5CF64F038
:10040000060E656F100E666F676B686B0D0E696F79
:10041000600E6A6F400E6B6F6C6B6D6B6E6B6F690D
:10042000706971697269736B74697569766B7769E4
:10043000786979697A697B697C6904010CBF0FD09E
:100440000001FA6F0001600EF86F000EF96F7CEC8E
:1004500006F00001E56B120050D80001E56B1200B8
:10046000F66A100EF76EF86A0001EE6B400E00019E
:10047000EE5D0DE209000001EE51EA6A600FE96EDF
:10048000030EEA22F5CFEFFF0001EE2BEFD70301B9
:100490000D0E666F0301600E676FF66A100EF76E41
:1004A000F86A940EA66E0001B50EF46FE8D83F0E00
:1004B000F66E100EF76EF86A00013F0EEE6F000147
:1004C000EE51EA6A600FE96E030EEA22EF50F56E14
:1004D0000C000001EE511F0B07E1E4D8A40EA66E3C
:1004E0000001B50EF46FCBD80A000001EE5101E116
:1004F00003D00001EE07E3D7120004D8FF0000008C
:10050000000012000301B869B9690301B8C300F023
:10051000B9C301F0B807000EB95B0050011004E048
:100520006D926D6ABFD8F1D712000001F06BE8C080
:1005300000F0016A026A00500001E95DF66E0150A8
:100540000001EA59F76E02500001EB59F86E1F0ED8
:10055000F6140001F16FE00EF6160001EF6B200EAD
:100560000001EF5D1FE20001F15115E10001E851CA
:100570000FE00001F051EA6A600FE96E030EEA2213
:10058000EF50F56E0D000001F02B0001E80702D0DE
:10059000F5680D0004D0F5680D000001F1070001B9
:1005A000EF2BDDD70A00A40EA66E0001B50EF46F86
:1005B00066D80001EF6B0001E8510001EF5D18E221
:1005C0000001F0510001EF25EA6A600FE96E030EA9
:1005D000EA22EF50E66E0001EF51EA6A600FE96E21
:1005E000030EEA22E552E750EF6E0001EF2BE3D74E
:1005F0001200A2C0F6FFA3C0F7FFA4C0F8FF0001DD
:10060000F26B0001A6510001F25D18E23A0E000102
:10061000D880A6550001F225EA6AA70FE96E000E00
:10062000EA22EF50F56E0C00C40EA66E0001B50E66
:10063000F46F25D809000001F22BE3D71200000166
:10064000F36B0001A6510001F35D18E20001A25115
:100650000001F325A96E3A0E0001D880A6550001CD
:10066000F325EA6AA70FE96E000EEA22EF50A86EA2
:10067000040EA66E23D80001F32BE3D71200F29EDE
:10068000B50E0001F45D05E0030ED36E0300FED746
:10069000FF00550EA76EAA0EA76EA682A6B2FED7C1
:1006A000A694120004001200090012003A0E000184
:1006B000D880A6550001ED25EA6A12000001B50EAA
:1006C000F46F3FEF03F0F2DF660FE96E000EEA22EF
:1006D00012006C5033E16896040100513C0BE84273
:1006E000E8420D0829E1180E021924E1040E03194D
:1006F00021E1100E026F040E036F0301A96BA951D3
:10070000006E016A080E005C000E015813E2A95148
:10071000EA6A180FE96E040EEA22EF50E66EA9515C
:10072000EA6A100FE96E040EEA22E552E750EF6E16
:10073000A92BE5D70AD8010C3AD8010C040E6C5C41
:1007400003E168964BD8010C000C040104BF046B54
:100750000301A86BA06BA16BA66BA76BC5EC04F0A3
:100760000301AA6BAA51006E016A010E005C000E23
:1007700001581BE2A15119E1AA51F66EF76AD8900F
:10078000F636F736BE0EF6260F0EF7220900F5CF25
:1007900000F00800F5CF01F004D001C0FAFF0050CE
:1007A000F96EFBDF0301AA2BDDD76DEF04F0020E1B
:1007B0000301A05D0EE178D80401180E026F040E4B
:1007C000036F080E016F00BD02D0C80E05D0880E61
:1007D00003D0BCD8CBD88C0E006F1200040E0301DE
:1007E000B45D09E112C46EFF6E50000802E2050E0E
:1007F00001D0030EB46F0301A00510E111D8020E61
:100800000301A85D03E10401840E06D0040104BDC8
:1008100002D0C80E01D0880E046F1200A6EF04F0BB
:100820000301080EA65D000EA7590DE2A6C3ABF3A7
:10083000A7C3ACF3A85102E1010E03D0A80506E15D
:10084000020EA86F03D0080EAB6FAC6B04010493CB
:1008500004910301AC5104010413ABC305F403017B
:10086000AB51A65DA66FAC51A759A76F180EA46F28
:10087000040EA56F0301B5A30ED00301AB51AC115B
:1008800012E0A2C3F6FFA3C3F7FF0800F55063D838
:10089000AB07AC5BF2D70301AB51AC1104E06ED8EF
:1008A000AB07AC5BF8D71200030E0401001503017F
:1008B000AE6F01C4ADF3A651AD25A66FA751AE2111
:1008C000A76F180EA26F040EA36FAD51AE1104E016
:1008D00055D8AD07AE5BF9D712006D980301A15151
:1008E00005E144D8840E006F04011DD0040110AF4F
:1008F0001CD00301A6510401165D0301A751040198
:10090000175904E216C4A6F317C4A7F389DF03013D
:10091000010EA06F2BD8800E006F0401180E066F19
:10092000040E076FC80E046F12000301020EA06FC1
:100930000401056BC80E046F0401080E016F180E48
:10094000026F040E036FC80E006F12000301A06B4C
:100950000401046B1200A4C3E9FFA5C3EAFFEF6E14
:10096000A42B000EA523A22BA32312000401080E22
:10097000016F100E026F040E036F1200A2C3E9FF95
:10098000A3C3EAFFEF50ABEF04F004011051600B7A
:10099000E842E842E842E842E842000901E0120089
:1009A0001151070A40E00B0A3EE0070A33E0010A52
:1009B00023E00B0A1FE0020A1DE0030A19E0080AFF
:1009C00010E0010A0CE00F0A08E0030A01E012003F
:1009D0000DD90301040EB46F120014EF05F04BEFB4
:1009E00005F004D90301B60EA26F030EA36F0CD05D
:1009F0006AEF05F09AEF05F0FDD80301A26FA36B33
:100A0000B70EA227030EA3230301B5930301010E22
:100A1000A66F1200EFD8EA6AB70FE96E030EEA225A
:100A200012C4EFFF12001200800E0401105D32E1CB
:100A30001351030A1FE0010A0AE0030A29E1D6D88C
:100A40000301FE0EA26F0E0EA36F120E1ED0B4D8BD
:100A5000B40EF6260F0EC2D8020E0301F76AA225C5
:100A6000F66EA351F7220900F5CFA6F30A00F5CFE1
:100A7000A7F30ED0A1D8B80EF6260F0EAFD8A2C39A
:100A8000F6FFA3C3F7FF0800F5500301A66FA76B9D
:100A90000301B5831200AAD8716A726A736A746A14
:100AA000756A766A776A0301B36F0301B70EB16F97
:100AB000030EB26F73EC07F012C4B6F304011251C7
:100AC00004E10301050EB46F12000301060EB46FBA
:100AD00067EF06F00401186B196B040110511F0B2E
:100AE000020A0DE0030A09E0010A16E17FD80301BA
:100AF000B5A112D0040118830FD078D80DD050D8EA
:100B000001E0010E62D8A4C3E9FFEA6EEF50040BC6
:100B100003E00401010E186F0301A1050AE10301BE
:100B2000180EA26F040EA36F0301B5930301020E0A
:100B3000A66F1200040112050EE110511F0B0009EF
:100B40000AE154D8030E0401115D03E10301B581EC
:100B500002D00301B5910401125121E110511F0B84
:100B600002081DE114510F0B000919E019D801E02A
:100B7000010E2BD8030E0401115D02E1840E03D097
:100B800014AF07D0400EA4C3E9FFA5C3EAFFEF6E80
:100B90001200880EA4C3E9FFA5C3EAFFEF6E12009E
:100BA00029D80F0B080DF350016A000F006E040ED8
:100BB00001221451800B120019D804011251F66E53
:100BC000F76AD890F636F7361200040DF350030199
:100BD0000024A46F000E0120A56F1200F722090067
:100BE000F5CFA2F30A00F5CFA3F312000301010E23
:100BF000A16F1200FBDF0401145112000401105117
:100C00001F0B010801E01200145101E01200060E52
:100C1000115D24E11351230A1FE0010A0DE0030ACC
:100C20001BE1BDD80301B60505E10301220EA26F49
:100C30000F0EA36F090E0DD0B2D80301B60505E162
:100C40000301970EA26F0F0EA36F0301B60504E117
:100C50001D0E0301A66FA76B0301B583040110519C
:100C6000600BE842E842E842E842E842010801E05D
:100C7000120011510B0A25E0080A17E0090A11E0D9
:100C8000080A09E00B0A05E0080A01E0120065EF16
:100C900006F066EF06F083D80301F50EA26F000E92
:100CA00009D07DD813C4F5F0120079D80301F60EEF
:100CB000A26F000EA36F0301B5930301010EA66F8F
:100CC00012006DD812C4F6F01200120012000001DA
:100CD000F76B1E0E716E0401400E096F200E0A6F35
:100CE000040E0B6F880E086F0401600E0E6F040E69
:100CF0000F6F400E0C6F12000001FA51400802E223
:100D0000400EFA6FFB6BFA51FB5D13E2FB51EA6A8E
:100D1000F825E96EF951EA22EF50E66EFB51EA6AD6
:100D2000600FE96E040EEA22E552E750EF6EFB2BEE
:100D3000EAD7FAC00DF4400E04010C170C7D880EA2
:100D40000C1312000001F76B040108BF25D00951F4
:100D50000001D880FE5502E209C4FEF0F76BFE5197
:100D6000F75D13E2F751EA6A200FE96E040EEA22FA
:100D7000EF50E66EF751EA6AFC25E96EFD51EA2272
:100D8000E552E750EF6EF72BEAD70401400E096FEA
:100D90000817087D880E08130001F751120003019F
:100DA000020EA16F12006DB606D06D6A696A6D867B
:100DB0000301010EB46F0301B40508E16DBA06D05A
:100DC000686A696A69806988020EB46F120003015B
:100DD000B45101E1120068B445D86DB2120068B098
:100DE00058D868B817D868BA44D8030E0301B45D60
:100DF00001E212000301AF6B040EAF5D0AE268A6C8
:100E000008D069EC03F0000901E168960301AF2BFB
:100E1000F3D7120069CFB0F3040E696E68986D8243
:100E2000A19AA08A0300A150200B05E1D050080B25
:100E300002E10300F8D7A09A0301B051691203013F
:100E4000D50EB86F020EB96F0301B8C300F0B9C375
:100E500001F0B807000EB95B0050011002E0040079
:100E6000F3D712006D92699468A402D06894FCD7FD
:100E7000120070A00CD0800E0401005D07E1840E0A
:100E80000401045D03E104018C0E006F7090689A08
:100E900012006A6A686A9F0E6B6E7B0E696E6E6ADC
:100EA000716A726A736A746A756A766A776A160E0C
:100EB000706E68A604D0689652EC03F0FAD76D986D
:100EC000A6EC04F00401080E016F100E026F040E70
:100ED000036F8C0E006F0301B5910301B66B030124
:100EE000030EB46F1200B1C3E9FFB2C3EAFF0301FE
:100EF000B35104E0EE6A0301B307F9D712001201FF
:100F0000000200000008D8043C00010101020001B9
:100F100009022900010100C0320904000002030097
:100F20000000092111010001221D00070581034075
:100F30000001070501034000010403090434034DC7
:100F4000006900630072006F006300680069007050
:100F500000200054006500630068006E006F006CA4
:100F6000006F0067007900200049006E0063002ECA
:100F70000026034800490044002000550053004269
:100F800000200042006F006F0074006C006F006171
:100F9000006400650072000600FF0901A10119014B
:100FA0002940150026FF0075089540810019012988
:100FB000409100C0100F100F390F3D0F710FFC0B47
:100FC000000EF36E00EE00F0080E01D81200EA6089
:100FD00002D0EE6AFCD7F350E9601200EE6AFCD74B
:100FE000FFFFFFFFFFFFFFFFFFFFFFFFFFFFFFFF11
:100FF000FFFFFFFFFFFFFFFFFFFFFFFFFFFFFFFF01
:06100000ACEF19F0120034
:021006000D607B
:0610080055EF18F0120084
:02100E000000E0
:021016000001D7
:08101800D9CFE6FFE1CFD9FFBB
:10102000FE0EDB5000016B15106EFE0EDB50105CE7
:1010300004E1FE0EDB506D1502E0000E01D0010E42
:10104000E552E7CFD9FF1200D9CFE6FFE1CFD9FFB4
:10105000FE0EDB5000016A15106EFE0EDB50105CB8
:1010600004E1FE0EDB506C1502E0000E01D0010E13
:10107000E552E7CFD9FF1200D9CFE6FFE1CFD9FF84
:10108000FE0EDB5000016D15106EFE0EDB50105C85
:1010900004E1FE0EDB506B1502E0000E01D0010EE4
:1010A000E552E7CFD9FF1200D9CFE6FFE1CFD9FF54
:1010B000FE0EDB5000016C15106EFE0EDB50105C56
:1010C00004E1FE0EDB506A1502E0000E01D0010EB5
:1010D000E552E7CFD9FF1200D9CFE6FFE1CFD9FF24
:1010E000FE0EDB5000016B1502E1000E01D0010E77
:1010F000E552E7CFD9FF1200D9CFE6FFE1CFD9FF04
:10110000FE0EDB5000016A1502E1000E01D0010E57
:10111000E552E7CFD9FF1200D9CFE6FFE1CFD9FFE3
:101120000A0E126E0C6EFC0EDBCF07F0BDEC19F050
:101130000350300FE66EFB0EDBCFF3FFDB06F35000
:10114000106E116A10BE1168FD0EDB501024E96E9E
:10115000FE0EDB501120EA6EE552E750EF6E0A0EEC
:10116000106E0C6EFC0EDBCF07F0BDEC19F0FC0E20
:1011700007C0DBFF07500008D3E3FB0EDB50E5524E
:10118000E7CFD9FF1200D9CFE6FFE1CFD9FF040E98
:10119000E126030EDB6A0A0E146E0C6EFC0EDBCF2A
:1011A00007F0BDEC19F00350300FE66ED9CF10F008
:1011B000DACF11F0030EDBCFF3FFDB2AF350126E10
:1011C000136A12BE136810501224E96E11501320D6
:1011D000EA6EE552E750EF6E0A0E106E0C6EFC0ED2
:1011E000DBCF07F0BDEC19F0FC0E07C0DBFF0750AA
:1011F0000008D1E3030EDB06030EDBCF10F0103442
:1012000028E2D9CF12F0DACF13F0030EDBCF14F0BF
:10121000156A14BE156812501424E96E1350152077
:10122000EA6EEF50E66EFB0EDBCF10F0116A10BED7
:101230001168FD0EDB501024E96EFE0EDB5011200C
:10124000EA6EE552E750EF6E030EDB06FB0EDB2A7B
:10125000D3D7FB0EDB50106E040EE15C02E2E16AB4
:10126000E552E16E1050E552E7CFD9FF1200D9CF19
:10127000E6FFE1CFD9FF070EE1267B0EE66E000EFA
:10128000E66E200EE66EE66A00017951200DF3CF7E
:1012900010F0F4CF11F0F3CFE6FFF4CFE6FFB8EC97
:1012A00015F0126E060EE15E125000017B5126E130
:1012B000200E7B6F7C6F7D6F030EE66E7929E66EE4
:1012C0007B0EE66E000EE66E27DFE552E552E55234
:1012D000E55200017F6B7929936F040E8F6F400EEA
:1012E000906F510E916F620E926F010E946F956F19
:1012F000400E966F976F986F500E996FDF6A060ECB
:10130000DF5C48E2DF407F0BE76E010EE7CFDBFFDB
:10131000DF14040D020EF3CFDBFFDBCF10F0010E64
:10132000DB50EA6A900FE96E000EEA22EF5010C01F
:10133000E7FFE75204E0E8427F0BE706FCE10F0B12
:10134000E76E030EE7CFDBFFDB50030BE76E040E07
:10135000E7CFDBFF030EDB50040BE840E8403F0B18
:10136000E76E050EE7CFDBFFDBCFE6FF040EDB50B9
:10137000E824E552E710E76E060EE7CFDBFFDF500B
:10138000EA6A9B0FE96E000EEA22060EDBCFEFFF42
:10139000DF2AB5D78FC07AF0070EE15C02E2E16A7E
:1013A000E552E16EE552E7CFD9FF12007AC08FF027
:1013B0007B0EE66E000EE66E200EE66EE66A00011B
:1013C0007851200DF3CF10F0F4CF11F0F3CFE6FFFA
:1013D000F4CFE6FF05EC16F0126E060EE15E125039
:1013E000120000016851E96EEA6AD890E936EA36DF
:1013F0006E0EE926000EEA22EE52EFCF10F010C07A
:1014000011F0106A6851E96EEA6AD890E936EA3656
:101410006E0EE926000EEA22EF501010726F11C016
:1014200073F07451721902E1755173190CE072C0B6
:10143000E6FF73C0E6FF3CEC15F0E552E55272C0E2
:1014400074F073C075F01200C00E00016E15106EBE
:10145000010E7AC0E7FFE75204E0E846FE0BE7061C
:10146000FCE1101000016E6F1200C00E00016E173B
:101470001200D9CFE6FFE1CFD9FF040EE12600012B
:10148000685129E0DF6ADFCF10F0140EE76E101804
:10149000E8AE02D0E73402D0E750105C71E2DFCF53
:1014A000F6FFF76AF6BEF768C10EF626310EF72290
:1014B0000800F550E66EDFCF10F0116A10BE11681B
:1014C000C7511024E96EC8511120EA6EE552E75069
:1014D000EF6EDF2AD8D77851795D29E0DF6ADFCF58
:1014E00010F0140EE76E1018E8AE02D0E73402D008
:1014F000E750105C45E2DFCFF6FFF76AF6BEF7680B
:10150000AC0EF626310EF7220800F550E66EDFCF5E
:1015100010F0116A10BE1168C7511024E96EC8514D
:101520001120EA6EE552E750EF6EDF2AD8D7DF6A66
:10153000DFCF10F0140EE76E1018E8AE02D0E734DB
:1015400002D0E750105C1CE2DFCFF6FFF76AF6BE70
:10155000F768970EF626310EF7220800F550E66E72
:10156000DFCF10F0116A10BE1168C7511024E96E68
:10157000C8511120EA6EE552E750EF6EDF2AD8D746
:10158000000169512AE1DF6ADFCF10F0140EE76E27
:101590001018E8AE02D0E73402D0E750105C01E347
:1015A000A5D0DFCFF6FFF76AF6BEF768820EF62603
:1015B000310EF7220800F550E66EDFCF10F0116A09
:1015C00010BE1168C9511024E96ECA511120EA6E8B
:1015D000E552E750EF6EDF2AD7D7A3417F0BE76EC6
:1015E000010EE7CFDBFFA251E00BE838E840106EB8
:1015F000010EA315100DF3501010E76E020EE7CF89
:10160000DBFF1F0EA215E76E030EE7CFDBFFDF6ADD
:10161000DFCF10F0140EE76E1018E8AE02D0E734FA
:1016200002D0E750105C1CE2DFCFF6FFF76AF6BE8F
:10163000F7686D0EF626310EF7220800F550E66EBB
:10164000DFCF10F0116A10BE1168C9511024E96E85
:10165000CA511120EA6EE552E750EF6EDF2AD8D763
:10166000010EE66EC129E66EC9C0E6FFCAC0E6FFFC
:101670008ADDE552E552E552E552070EE66E010EAF
:10168000DB500E0FE66EC9C0E6FFCAC0E6FF44DDC0
:10169000E552E552E552E5520A0EE66E020EDB28EF
:1016A000E66EC9C0E6FFCAC0E6FF36DDE552E55288
:1016B000E552E5520D0EE66E030EDB28E66EC9C05C
:1016C000E6FFCAC0E6FF28DDE552E552E552E552E5
:1016D000130EE66E0001C329E66EC9C0E6FFCAC05C
:1016E000E6FF1ADDE552E552E552E552130EE66ECD
:1016F00000017929E66ECBC0E6FFCCC0E6FF0CDD29
:10170000E552E552E552E552DF6EDFCF10F0100EE4
:10171000E76E1018E8AE02D0103403D0E750D8803E
:10172000105410E2DFCF10F0116A10BE11680001F2
:10173000CB511024E96ECC511120EA6E200EEF6ED1
:10174000DF06E3D7DF6ADFCF10F0140EE76E101864
:10175000E8AE02D0E73402D0E750105C27E2DFCFDA
:10176000E9FFEA6AE9BEEA687B0EE926000EEA2292
:10177000EF50E66EDFCF10F0116A10BE1168000165
:10178000CD511024E96ECE511120EA6EE552E7509A
:10179000EF6EDFCFE9FFEA6AE9BEEA687B0EE92671
:1017A000000EEA22EF5002E0DF2ACDD7DFCF10F0A3
:1017B000140EE76E1018E8AE02D0E73402D0E750FE
:1017C000105C10E2DFCF10F0116A10BE116800014A
:1017D000CD511024E96ECE511120EA6E200EEF6E2D
:1017E000DF2AE4D776EC15F0040EE15C02E2E16A50
:1017F000E552E16EE552E7CFD9FF1200D9CFE6FFFF
:10180000E1CFD9FFFD0EDBCFE6FFFE0EDBCFE6FF1B
:10181000E66A0B0EE66E96EC15F0E552E552E552DF
:10182000E552E552E7CFD9FF12000001010E776FB4
:101830007F0EE66E510EE66EE1DFE552E55215DEF3
:10184000F1EF09F00001776BE66A510EE66ED6DF24
:10185000E552E552F9DDF1EF09F00001775101E0C1
:10186000F1DF1200D9CFE6FFE1CFD9FF020EE1266A
:10187000DF6A010EF36EFE0EDB5004E0D890F33603
:10188000E806FCE1F350E76E010EE7CFDBFF000155
:101890007A51EA6A940FE96E000EEA22010EDB50DB
:1018A000EF1A010EDBCFE6FF7A51EA6A940FE96E78
:1018B000000EEA22EF50E552E71402E07F0EDF6EE1
:1018C000DFCFE6FFFE0EDB50EA6A600FE96E000E26
:1018D000EA22EF50E66E92DFE552E552C00E0001BB
:1018E0006F15106E7A51EA6A940FE96E000EEA22C3
:1018F000EF503F0B10106F6F74DD020EE15C02E2DF
:10190000E16AE552E16EE552E7CFD9FF1200D9CF87
:10191000E6FFE1CFD9FFE65200017A51EA6A940F5F
:10192000E96E000EEA22EFCFDFFFC00E6F15106EDA
:101930003F0EDF1410106F6F400EDF1402E07F0EB9
:1019400001D0000EE66E5A0EE66E58DFE552E55203
:10195000100EDF1402E07F0E01D0000EE66E580E6E
:10196000E66E4CDFE552E552040EDF1402E07F0E16
:1019700001D0000EE66E560EE66E40DFE552E552EF
:10198000020EDF1402E07F0E01D0000EE66E550E4F
:10199000E66E34DFE552E552080EDF1402E07F0EFA
:1019A00001D0000EE66E570EE66E28DFE552E552D6
:1019B000010EDF1402E07F0E01D0000EE66E540E21
:1019C000E66E1CDFE552E552200EDF1402E07F0ECA
:1019D00001D0000EE66E590EE66E10DFE552E552BC
:1019E000800EDF1402E07F0E01D0000EE66E5B0E6B
:1019F000E66E04DFE552E552E552E552E7CFD9FF46
:101A0000120000017851795D0EE0D56B79C0E6FFD8
:101A1000E66A0C0EE66E7AEC15F0E552E552E552F8
:101A200079C078F026DD00017A51EA6A9B0FE96EF1
:101A3000000EEA22EF50040FE66E010EE66E0C0E69
:101A4000E66E7AEC15F0E552E552E55260DFFCDC1B
:101A5000F1EF09F0D9CFE6FFE1CFD9FFC3C0C4F061
:101A6000FE0EDBCF7AF0CDDFE552E7CFD9FF1200D3
:101A70000001690508E1C351EA6AA40FE96E000E8E
:101A8000EA22EFCF79F07851795D03E0010ED56F4E
:101A900001D0D56B37EC09F0C00E00016E15106E49
:101AA000010E7AC0E7FFE75204E0E846FE0BE706C6
:101AB000FCE1101000016E6F94DC39EF0AF0D9CF11
:101AC000E6FFE1CFD9FFE652FE0EDBCF69F0000161
:101AD00069051EE1A10EE66E000EE66E200EE66EB2
:101AE000E66AC151200DF3CF10F0F4CF11F0000ED3
:101AF0001026100E112210C0E6FF11C0E6FFB8EC50
:101B000015F0126E060EE15E12500001C36BB0DFDD
:101B1000B0DCE552E552E7CFD9FF1200D9CFE6FF9E
:101B2000E1CFD9FF0001716B706BFE0EDBCF68F067
:101B3000A0DCE552E7CFD9FF1200D9CFE6FFE1CF15
:101B4000D9FFFE0EDB5004E10001716B706B1FD0FA
:101B5000FE0EDB041CE1010EC6C0E7FFE75204E005
:101B6000E846FE0BE706FCE10001706FC651EA6A29
:101B70009B0FE96E000EEA22EF50106E010E10521C
:101B800004E0E846FE0B1006FCE10001716FFE0E5A
:101B9000DBCFC5F0E552E7CFD9FF1200D9CFE6FF82
:101BA000E1CFD9FF040EE126FE0EDB407F0BDF6E96
:101BB000FE0EDB50010B040D010EF3CFDBFFF00E28
:101BC000106E010EDB5010C0E7FF070B04E0E74288
:101BD000E79EE806FCE1E750E76E020EE7CFDBFF89
:101BE000FD0EDB50010B040DF3CF10F0FD0EDB40BA
:101BF0007F0B030BF310E76E030EE7CFDBFFDB5029
:101C0000F36E010EDB5004E0D890F336E806FCE1F9
:101C1000F350106E020EDBCFE6FFDF50EA6A900F42
:101C2000E96E000EEA22EF50E552E714F310E66E7B
:101C3000DF50EA6A900FE96E000EEA22E552E750A3
:101C4000EF6EFE0EDB50EA6A9B0FE96E000EEA2291
:101C5000FD0EDBCFEFFF040EE15C02E2E16AE5522C
:101C6000E16EE552E7CFD9FF1200D9CFE6FFE1CF11
:101C7000D9FFE6520001010E696F686B6F6B6E6BE6
:101C8000716B706BC26BC46BC16BC36B726B736B2C
:101C900074697569D06BD16BD26BD36BD46BD56B18
:101CA000D66BD76BCF6B776B766B7A6B7869796B0A
:101CB000540E606F550E616F560E626F570E636F54
:101CC000580E646F590E656F5A0E666F5B0E676F24
:101CD000946B100E956F966B976F986B996FDF6A88
:101CE000040EDF5C18E2DFCFE6FF56EC15F0E5529C
:101CF000F3CF10F0F4CF11F0EA6ADF34FE0BEA36CE
:101D0000E96EC70EE926000EEA22F3CFEEFF11C0FE
:101D1000EDFFDF2AE5D7DF6A140EDF5C4BE2DF5010
:101D2000F76A970FF66E310EF7220800F550E66E4F
:101D3000DF500001EA6AC725E96EC851EA22E55280
:101D4000E750EF6EDF50F76A970FF66E310EF7220D
:101D50000800F550E66EDF50EA6AC925E96ECA51FF
:101D6000EA22E552E750EF6EDF50F76A580FF66E41
:101D7000310EF7220800F550E66EDF50EA6ACB25F7
:101D8000E96ECC51EA22E552E750EF6EDF50F76A78
:101D9000970FF66E310EF7220800F550E66EDF5011
:101DA000EA6ACD25E96ECE51EA22E552E750EF6EA0
:101DB000DF2AB2D739EC0AF0010EE66E80DEE5527A
:101DC00057DE1FDEE552E552E7CFD9FF12000001D2
:101DD000D15100080EE2D12BD151106E116AD8906A
:101DE000115004E6F00E105C000E115802E3800E54
:101DF000D16FD25100080EE2D22BD251106E116A6F
:101E0000D890115004E6F00E105C000E115802E359
:101E1000800ED26FD05100080EE2D02BD051106E40
:101E2000116AD890115004E6F00E105C000E1158A3
:101E300002E3800ED06FD35100080EE2D32BD351B2
:101E4000106E116AD890115004E6F00E105C000E6E
:101E5000115802E3800ED36FD45100080EE2D42B48
:101E6000D451106E116AD890115004E6F00E105C37
:101E7000000E115802E3800ED46FD651000808E21C
:101E8000D62B370ED65D04E32D0ED66F010ED76F1D
:101E9000D55100080EE2D52BD551106E116AD8909D
:101EA000115004E6F00E105C000E115802E3800E93
:101EB000D56F7851795D0BE00F0ED515106E070EBA
:101EC000105C03E324EC0AF002D035EC0AF04C0E6F
:101ED0000001D25D12E30F0ED215106E070E105CDA
:101EE00006E36AB16E816AA306D06E8304D06AB13C
:101EF0006E916AB36E93F1EC09F01F0E0001D15D93
:101F000026E30F0ED115106E070E105C10E3C00E05
:101F10006F15116E6B1D106E7A51EA6A940FE96E9F
:101F2000000EEA22EF5010143F0B11100DD0C00E1E
:101F30006F15106E7A51EA6A940FE96E000EEA226C
:101F4000EF506B113F0B10106F6FF1EC09F00001B7
:101F5000CF5120E0CF070FE1C00E6F15106E7A5100
:101F6000EA6A940FE96E000EEA22EF503F0B101060
:101F70006F6FF1EF09F00F0ECF15106E070E105CAA
:101F800004E3C00E6F153F0902D0C00E6F156F6FCE
:101F9000F1EC09F012007F0E0001795D01E0792B70
:101FA00038EF0DF00001795101E0790738EF0DF0BD
:101FB0000001A15101E11200A105C35D01E2C32BA3
:101FC00038EF0DF00001C35101E0C30738EF0DF009
:101FD000010EE66E0CEC08F0E552000907E0E66A37
:101FE00041DCE5520001010ED16F0FD0010EE66E0B
:101FF0003CEC08F0E552000908E01F0E0001D15D3D
:1020000004E3D16BE66A2EDCE552020EE66E0CECC0
:1020100008F0E552000908E0010EE66E23DCE55207
:102020000001010ED16F10D0020EE66E3CEC08F0FC
:10203000E552000909E01F0E0001D15D05E3D16BF7
:10204000010EE66E0FDCE552040EE66E0CEC08F0B5
:10205000E552000909E0020EE66E32EC0CF0E552A2
:102060000001010ED16F11D0040EE66E3CEC08F0B9
:10207000E55200090AE01F0E0001D15D06E3D16BB5
:10208000020EE66E32EC0CF0E552080EE66E0CEC39
:1020900008F0E552000909E0030EE66E32EC0CF0A0
:1020A000E5520001010ED16F11D0080EE66E3CEC36
:1020B00008F0E55200090AE01F0E0001D15D06E3B9
:1020C000D16B030EE66E32EC0CF0E552100EE66EAC
:1020D0000CEC08F0E552000909E0040EE66E32EC63
:1020E0000CF0E5520001010ED16F11D0100EE66E1A
:1020F0003CEC08F0E55200090AE01F0E0001D15D3A
:1021000006E3D16B040EE66E32EC0CF0E552200EC5
:10211000E66E0CEC08F0E552000909E0050EE66EEB
:1021200032EC0CF0E5520001010ED16F11D0200EFF
:10213000E66E3CEC08F0E55200090AE01F0E0001D3
:10214000D15D06E3D16B050EE66E32EC0CF0E55284
:10215000010EE66E24EC08F0E552000905E0E66A9F
:1021600079DCE5522DEC0CF0010EE66E24EC08F063
:10217000E552000904E00001010ED36F17D0010EF3
:10218000E66E7CEC08F0E552000907E04C0E000119
:10219000D35D03E315EC0CF007D0010EE66E54ECB2
:1021A00008F0E552000902E00001D36B020EE66E72
:1021B00024EC08F0E552000906E0010EE66E4ADC68
:1021C000E5522DEC0CF0040EE66E24EC08F0E5521E
:1021D000000906E0020EE66E3DDCE5522DEC0CF047
:1021E000080EE66E24EC08F0E552000906E0030E46
:1021F000E66E30DCE5522DEC0CF0100EE66E24ECB1
:1022000008F0E552000906E0040EE66E23DCE55214
:102210002DEC0CF0200EE66E24EC08F0E5520009DF
:1022200006E0050EE66E16DCE5522DEC0CF0400ED5
:10223000E66E24EC08F0E55200090FE00001761D7F
:102240007F0B766FE66E500EE66EFEEC0BF0E552FD
:10225000E5520001010ED06F1AD0400EE66E7CEC04
:1022600008F0E55200090AE04C0E0001D05D06E3DB
:10227000D6EC09F00001500ECF6F08D0400EE66E8C
:1022800054EC08F0E552000902E00001D06B800E2A
:10229000E66E24EC08F0E552000911E000017851E7
:1022A000795D07E078C079F0C4C0C3F038EC0DF078
:1022B00002D02DEC0CF00001010ED46F1AD0800E6C
:1022C000E66E7CEC08F0E55200090AE04C0E0001D5
:1022D000D45D06E3D46B010EE66E20DCE55209D036
:1022E000800EE66E54EC08F0E552000902E00001B1
:1022F000D46B00016A516E9D400B01E06E8D6951F7
:1023000040E1800EE66E0CEC08F0E552000904E0B6
:102310000001010ED66F15D0800EE66E3CEC08F081
:10232000E552000903E00001D66B0CD0800EE66E8A
:102330006CEC08F0E552000905E00001D75102E01D
:10234000D76B29DE400EE66E0CEC08F0E552000972
:1023500004E00001010ED66F12D0400EE66E3CEC98
:1023600008F0E552000940E1400EE66E6CEC08F022
:10237000E552000948E00001D75145E0D76B12DE75
:1023800042D0800EE66E0CEC08F0E552000904E045
:102390000001010ED66F15D0800EE66E3CEC08F001
:1023A000E552000903E00001D66B0CD0800EE66E0A
:1023B0006CEC08F0E552000905E00001D75102E09D
:1023C000D76BF6DD400EE66E0CEC08F0E552000926
:1023D00004E00001010ED66F15D0400EE66E3CEC15
:1023E00008F0E552000903E00001D66B0CD0400E66
:1023F000E66E6CEC08F0E552000905E00001D751EB
:1024000002E0D76BDFDD00016B516F9F800B01E0B5
:102410006F8F6B516F9D400B01E06F8DF1EF09F0F5
:102420000001C55101E0B6D0010EE66E24EC08F0C3
:10243000E552000907E00001C66B010EE66E9DEC57
:102440000DF0E552020EE66E24EC08F0E5520009AC
:1024500007E00001010EC66FE66E9DEC0DF0E5523F
:10246000040EE66E24EC08F0E552000908E00001D5
:10247000020EC66F010EE66E9DEC0DF0E552080EE1
:10248000E66E24EC08F0E552000908E00001030EB6
:10249000C66F010EE66E9DEC0DF0E552100EE66E75
:1024A00024EC08F0E552000908E00001040EC66FB4
:1024B000010EE66E9DEC0DF0E552200EE66E24EC6A
:1024C00008F0E552000908E00001050EC66F010E94
:1024D000E66E9DEC0DF0E552010EE66E0CEC08F098
:1024E000E552000905E0010EE66E5FEC0DF0E552E5
:1024F000020EE66E0CEC08F0E552000904E0E66A14
:102500005FEC0DF0E552040EE66E0CEC08F0E552BF
:102510000009080EE66E0CEC08F0E5520009100EFA
:10252000E66E0CEC08F0E5520009200EE66E0CECAD
:1025300008F0E5520009800EE66E24EC08F0E55242
:10254000000904E0E66A8EEC0DF0E552800EE66EBE
:102550000CEC08F0E55200090AE01F0E0001C15D15
:1025600006E2C12B69C0E6FF5FEC0DF0E552400EBC
:10257000E66E0CEC08F0E552000901E187D000019D
:10258000C151000801E382D0C10769C0E6FF5FECDA
:102590000DF07BD0010EE66E24EC08F0E552000948
:1025A0000BE0E66AC6C0E6FFCEEC0DF0E552E55260
:1025B000E66A9DEC0DF0E552020EE66E24EC08F0A2
:1025C000E55200090CE0010EE66EC6C0E6FFCEEC57
:1025D0000DF0E552E552E66A9DEC0DF0E552040E71
:1025E000E66E24EC08F0E55200090CE0020EE66EFF
:1025F000C6C0E6FFCEEC0DF0E552E552E66A9DEC72
:102600000DF0E552080EE66E24EC08F0E5520009E4
:102610000CE0030EE66EC6C0E6FFCEEC0DF0E55210
:10262000E552E66A9DEC0DF0E552100EE66E24ECE4
:1026300008F0E55200090CE0040EE66EC6C0E6FFA5
:10264000CEEC0DF0E552E552E66A9DEC0DF0E55258
:10265000200EE66E24EC08F0E55200090CE0050EB1
:10266000E66EC6C0E6FFCEEC0DF0E552E552E66A36
:102670009DEC0DF0E552800EE66E24EC08F0E5527C
:10268000000904E0E66A9DEC0DF0E552F1EF09F077
:10269000D9CFE6FFE1CFD9FF020EE126E1EC14F03D
:1026A000F3CFDEFFF4CFDDFFDECF10F0DDCF11F092
:1026B000105000016A6FDECF10F0DDCF11F011C0B5
:1026C00010F0116A10506B6F685102E181DC03D089
:1026D000680501E1A5DE6AC06CF06BC06DF0020E0A
:1026E000E15C02E2E16AE552E16EE552E7CFD9FF33
:0226F0001200D6
:0E26F200D9CFE6FFE1CFD9FFFE0EDBCFE6FF2A
:1027000031EC19F0E552E552E7CFD9FF1200D9CFED
:10271000E6FFE1CFD9FFE652080EDF6E8984899487
:102720008992FD0EDBBE02D0899601D08986DBCF6F
:10273000F3FFF39EF346F3CFDBFF8982DF06F0E180
:10274000080EDF6E8992FE0EDBBE02D0899601D0A4
:102750008986DBCFF3FFF39EF346F3CFDBFF89825D
:10276000DF06F0E18984100EDF6EDF5002E0DF0645
:10277000FCD7899489868982E552E552E7CFD9FF53
:102780001200D9CFE6FFE1CFD9FF050EE126030EF7
:10279000DB6ADE52010EDD6EDF6A080EDF5C22E2CC
:1027A000DFCFE6FFF9D8E552050EF36E020EF3CF48
:1027B000DBFFDB5003E0020EDB06FBD784A209D06F
:1027C000030EDBCFE7FF010EDB50E712030EE7CF6E
:1027D000DBFF010EDBCFF3FFF39EF346F3CFDBFF0E
:1027E000DF2ADBD7040EDB6ADE52010EDD6E080E37
:1027F000DF6E100EDF5C22E2DFCFE6FFCDD8E552C0
:10280000050EF36E020EF3CFDBFFDB5003E0020E8A
:10281000DB06FBD784A209D0040EDBCFE7FF010E55
:10282000DB50E712040EE7CFDBFF010EDBCFF3FF37
:10283000F39EF346F3CFDBFFDF2ADBD701014B6BBF
:1028400001014A6BD950030FE96EDACFEAFFEF506E
:10285000010B02E101014B85D950030FE96EDACF7C
:10286000EAFFEF50020B02E101014B83D950030F45
:10287000E96EDACFEAFFEF50040B02E101014B8170
:10288000D950030FE96EDACFEAFFEF50080B02E1EF
:1028900001014B87D950030FE96EDACFEAFFEF5001
:1028A000100B02E101014B8FD950030FE96EDACF13
:1028B000EAFFEF50200B02E101014B89D950030FD1
:1028C000E96EDACFEAFFEF50400B02E101014B8DD8
:1028D000D950030FE96EDACFEAFFEF50800B02E127
:1028E00001014B8BD950040FE96EDACFEAFFEF50AC
:1028F000010B02E101014A85D950040FE96EDACFDC
:10290000EAFFEF50020B02E101014A83D950040FA4
:10291000E96EDACFEAFFEF50040B02E101014A81D0
:10292000D950040FE96EDACFEAFFEF50080B02E14D
:1029300001014A87D950040FE96EDACFEAFFEF5060
:10294000100B02E101014A8FD950040FE96EDACF72
:10295000EAFFEF50200B02E101014A89D950040F30
:10296000E96EDACFEAFFEF50400B02E101014A8D38
:10297000D950040FE96EDACFEAFFEF50800B02E185
:1029800001014A8B050EE15C02E2E16AE552E16E6B
:10299000E552E7CFD9FF1200D9CFE6FFE1CFD9FF4B
:1029A0008998899A8D908990FE0EDBB08988DBB278
:1029B000898ADBB48D80DBB68980E552E7CFD9FF09
:1029C0001200D9CFE6FFE1CFD9FF020EE126126A4D
:1029D00001014B511210DE6E4AC1DDFFDECF10F057
:1029E000DDCF11F010C0F3FF11C0F4FF020EE15C67
:1029F00002E2E16AE552E16EE552E7CFD9FF12004B
:102A0000D9CFE6FFE1CFD9FF020EE126DF6A01014F
:102A100048B1DF8E48B3DF8C48B5DF8A48B7DF881E
:102A200048B9DF8648BBDF8448BDDF8248BFDF800E
:102A3000010EDB6A010149B1DB8E49B3DB8C49B57C
:102A4000DB8A49B7DB8849B9DB8649BBDB8449BDF2
:102A5000DB8249BFDB80DFCFE6FFDBCFE6FF57DE5F
:102A6000E552E552020EE15C02E2E16AE552E16EF6
:102A7000E552E7CFD9FF1200D9CFE6FFE1CFD9FF6A
:102A8000FE0EDBCF11F011C010F011500101486FA4
:102A9000FF0EE76EFD0EDBCF10F0E7501016116A47
:102AA00010C049F1E552E7CFD9FF1200D9CFE6FFB8
:102AB000E1CFD9FFFE0EDB50140DF3CF10F0F4CFB1
:102AC00011F0B00E1026010E112210C0F3FF11C03C
:102AD000F4FFE552E7CFD9FF1200D9CFE6FF188403
:102AE0000101AF6BE552E7CFD9FF12001884010155
:102AF000AF6B1200D9CFE6FFE1CFD9FFFD0EDB505F
:102B00000F0B106EFE0EDB500F0B100DF35010105C
:102B1000E66E31EC19F0E552FC0EDBCFE6FF31EC4E
:102B200019F0E552E552E7CFD9FF1200D9CFE6FF01
:102B3000E1CFD9FFFD0EDB500F0B106EFE0EDB5008
:102B40000F0B100DF3501010E66E31EC19F0E5523A
:102B5000FC0EDBCFE6FF31EC19F0E552FB0EDBCFCC
:102B6000E6FF31EC19F0E552E552E7CFD9FF12004C
:102B7000D9CFE6FFE1CFD9FF030EE126DF6AFD0ED4
:102B8000DBCF06F0FE0EDBCF07F0010E06C0DBFF49
:102B9000020E07C0DBFFDFCF10F0FB0EDBCF11F022
:102BA000FC0EDBCF12F01150105C000E125423E229
:102BB000010EDBCFF6FF020EDBCFF7FF000EF6268D
:102BC000490EF7220800F550E66EDF50E76EF90E69
:102BD000DBCFE9FFFA0EDBCFEAFFE750E926000E74
:102BE000EA22E552E750EF6EDF2A010EDB2A020EE1
:102BF000D2E3DB2AD0D7030EE15C02E2E16AE552C0
:102C0000E16EE552E7CFD9FF1200D9CFE6FFE1CF61
:102C1000D9FF050EE126FD0EDBCF10F0FE0EDBCF57
:102C200011F0C00E1016FF0E1116010E10C0DBFFC2
:102C3000020E11C0DBFFDF6A400EDF5C1DE2010EF9
:102C4000DBCFF6FF020EDBCFF7FF000EF626490EB4
:102C5000F7220800F550E66EDF50EA6A020FE96ECF
:102C6000010EEA22E552E750EF6EDF2A010EDB2A61
:102C7000020EE2E3DB2AE0D7FD0EDBCF10F0FE0E02
:102C8000DBCF11F0C00E1016FF0E1116010E10C092
:102C9000DBFF020E11C0DBFFFD0EDBCF12F0FE0EDC
:102CA000DBCF13F0010EDB50125C106E020EDB5016
:102CB0001358116E030E10C0DBFF040E11C0DBFFB2
:102CC000DF6ADFCF10F0FB0EDBCF11F0FC0EDBCFA5
:102CD00012F01150105C000E125422E2DF50E76E29
:102CE000F90EDBCFE9FFFA0EDBCFEAFFE750E9266A
:102CF000000EEA22EF50E66E030EDBCFE9FF040E72
:102D0000DBCFEAFF020EE926010EEA22E552E75088
:102D1000EF6EDF2A030EDB2A040ED3E3DB2AD1D7C2
:102D2000FD0EDBCF00F1FE0EDBCF01F1C00E010185
:102D30000017FF0E0117000E0027490E0123CCECEF
:102D400017F017861788050EE15C02E2E16AE5528A
:0A2D5000E16EE552E7CFD9FF120053
:062D5A00D9CFE6FFE1CF36
:102D6000D9FFE652F29EF29C9D908C8EDF6A500E47
:102D7000DF5C0AE2CD909E90CE6ACF6ACD809EA0A5
:102D8000FED79E90DF2AF3D79D80F28EF28CE5521B
:102D9000E552E7CFD9FF1200D9CFE6FFE1CFD9FF47
:102DA000020EE126010EAFC1DBFFFE0EE66E46D835
:102DB000E552450EE66E42D8E552010EDB50030A9D
:102DC0000CE0010A08E0030A04E0010A0AE1E66AED
:102DD00006D0400E03D0140E01D0540EE66E2ED84D
:102DE000E552DF6A140EDF5C18E2010EDB50140DB1
:102DF000F3CF10F0F4CF11F0B00E1026010E112217
:102E0000DF500F011024E96E000E1120EA6EEF5022
:102E1000E66E14D8E552DF2AE5D70101AF2B040E88
:102E2000AF5D02E3AF6B1894020EE15C02E2E16A6F
:102E3000E552E16EE552E7CFD9FF1200D9CFE6FFA8
:102E4000E1CFD9FF2A0E0101A75D0EE2A751EA6A80
:102E50007D0FE96E010EEA22FE0EDBCFEFFFA72BFE
:102E60000101AC5101E104D8E552E7CFD9FF1200CE
:102E70000101020EAB6F0101010EAC6FCD90BC0ED3
:102E8000CE6EFC0ECF6ECD8012009E90CD907B0E4C
:102E9000CE6EFD0ECF6ECD800101AB51030A15E061
:102EA000010A03E0020A40E01200030EAB6F0101C9
:102EB000010EAA6F0101A851EA6A7D0FE96E010EA9
:102EC000EA22EFCFA9F18C9E12000101AA5121E163
:102ED0008C8E0101A82B0101A7510101A85D0DE312
:102EE0000101AB6B0101AC6B0101A86B0101A76B88
:102EF000CD909E90CE6ACF6A1200A851EA6A7D0FEB
:102F0000E96E010EEA22EFCFA9F10101020EAB6FCB
:102F100012000101A9A102D08C8E01D08C9EA99132
:0A2F2000A9430101AA9FAA4712006D
:062F2A00550EA76EAA0E71
:102F3000A76EA6821200D9CFE6FFE1CFD9FFE652F5
:102F4000E00E01010017840EA66EFE0EDB50DF6E50
:102F5000FE0EDB50200FDF5C1AE2DF50EA6A020F40
:102F6000E96E010EEA22EFCF10F0DF500101F76A9F
:102F70000025F66E0151F722F86A10C0F5FF0C002B
:102F80001F0EDF141F0801E1D0DFDF2AE1D7E55271
:102F9000E552E7CFD9FF1200940EA66E00C1F6FFEE
:102FA00001C1F7FFF86AC1DFF86A1200D9CFE6FF66
:102FB000E1CFD9FFA66AFE0EDB50A96EA680A8500D
:102FC000E552E7CFD9FF1200D9CFE6FFE1CFD9FF15
:102FD000A6A202D0000E0AD0FE0EDB50A96EFD0E96
:102FE000DB50A86E040EA66EA0DF010EE552E7CFFF
:042FF000D9FF1200F3
:0C2FF4000400EBEC18F00400ADEC16F04B
:103000000400FE0EE66E1EEC17F0E552510EE66E61
:103010001EEC17F0E552FE0EE66E1EEC17F0E552C0
:10302000520EE66E1EEC17F0E552140EE66E1EEC24
:1030300017F0E552C1EC13F035EC0EF00400F28EFF
:10304000F28C17A605D01796E66A9BEC17F0E552AE
:1030500017A806D01798200EE66E9BEC17F0E552E5
:1030600017A003D0179077EC19F01850040B05E067
:103070000101AB5102E1CCEC16F018A003D018907E
:10308000C1EC13F017AA03D0179A00EC15F017AE95
:1030900003D0179E48EC13F018A203D01892E7EC67
:0A30A0000EF01CEC19F0CAD7120064
:0630AA00DACFE4FFE2CFE3
:1030B000DAFFE9CFE4FFEACFE4FFF6CFE4FFF7CF92
:1030C000E4FFF5CFE4FFF3CFE4FFF4CFE4FFFACF62
:1030D000E4FF00EE00F0100EE80403E3EECFE4FF9F
:1030E000FBD700EE10F0060EE80403E3EECFE4FF9A
:1030F000FBD7E6529EA002D045EC17F09EA208D066
:103100009E9201014C2B040E4C5D02E14C6B17802A
:10311000E55200EE15F0060EE80403E3E5CFEDFFFF
:10312000FBD700EE0FF0100EE80403E3E5CFEDFF50
:10313000FBD7E5CFFAFFE5CFF4FFE5CFF3FFE5CF0F
:10314000F5FFE5CFF7FFE5CFF6FFE5CFEAFFE5CFE7
:08315000E9FFE5CFDAFF1100F1
:0831580050726F6772616D3A5D
:103160002020202020202020202020200020302966
:1031700020323031342D30312D30312020202320A9
:10318000300050726F6772616D206D6F6465202032
:10319000202020202020002020202020202020204F
:1031A00020202020202020202020200050454E4498
:1031B000494E472020202020202020202020202091
:1031C00000202D2D2050726F6772616D6D696E67E2
:0631D000202D2D2020003F
:0A31D60095EC19F0896A8A6A8B6A89
:1031E0008C6A8D6A926A100E936EF80E946E956AD0
:1031F000020E966EA60EAC6E900EAB6E3F0EAF6ECC
:10320000B06A400EC26E0E0EC16E060EC06E200E6B
:10321000F26E800EF16ED08ED76AD66A420ED56EEF
:10322000CF6ACE6ACD6ACC6AF90ECB6E0D0ECA6E2D
:08323000030E9D6EF28E1200E8
:083238009EBA120001017B5156
:1032400001017C5D02E147EF19F09EA812007C515C
:10325000EA6A510FE96E010EEA22EF50AD6E7C2B47
:103260001200D9CFE6FFE1CFD9FF2A0E01017B5D25
:103270000AE27B51EA6A510FE96E010EEA22FE0E64
:10328000DBCFEFFF7B2BE552E7CFD9FF1200010127
:083290007B6B01017C6B120055
:08329800D9CFE6FFE1CFD9FF19
:1032A000FE0EDB50A96EA69EA69CA680A850E552F5
:1032B000E7CFD9FF1200D9CFE6FFE1CFD9FFFE0E4D
:1032C000DB50A96EFD0EDB50A86EA69EA69CA684C0
:1032D000F29E550EA76EAA0EA76EA6820400A6B295
:0E32E000FDD7F28EA694E552E7CFD9FF12007B
:0232EE000101DC
:1032F0004D2B0A0E4D5D18E14D6B178E178A188203
:1033000001014F2B040E4F5D02E14F6B188001014C
:10331000502B020E505D01E1506B01014E2B640EEB
:0A3320004E5D02E14E6B18841200AE
:06332A00EA6AE96A0400F2
:10333000EE6AEAA6FCD71200000EF36E00EE00F073
:10334000080E01D81200EA6002D0EE6AFCD7F350F2
:08335000E9601200EE6AFCD7EF
:0833580017EE00F027EE00F073
:10336000F86A0F9CEA6AE96A0400EE6AEAA6B4EF1A
:0A33700019F0FAEC17F0FDD7120077
:06337A00036A080EE76E75
:10338000D890073603360C50035C02E3036E072A1D
:06339000E72EF7D7120042
:104900004D6F6E6B65797772656E636800000000AD
:10491000000000000440516201010140404050008D
:104920004576656E20466C6F770000000000000041
:10493000000000000440516202010140404050006C
:104940005A65726F000000000000000000000000C7
:104950000000000004406262030101405040540026
:10496000576F6E64657277616C6C00000000000028
:104970000000000003405151044141D1C1C1D100A8
:10498000427564647920486F6C6C79000000000007
:104990000000000004405162050101404040500009
:1049A000506C7573680000000000000000000000FB
:1049B0000000000004405162060999C8D8C8D80018
:1049C000436F6D65204F757420616E6420506C617B
:1049D000790000000440516207010140404050004E
:1049E00044726976650000000000000000000000CD
:1049F0000000000003405151084141D1C1C1D10024
:104A00005768656E204920436F6D652041726F7550
:104A10006E640000044051620901014040405000B2
:104A200045766572797468696E67205A656E000014
:104A300000000000054011510A0000D0D0C0D00095
:104A4000456E7465722053616E646D616E00000086
:104A500000000000004051620B0101404040500046
:104A6000437261776C696E6720696E207468652097
:104A70004461726B044051620C010140404050009F
:104A8000536F6E672032000000000000000000003D
:104A900000000000000044440DC1C1C1C1C1C100FB
:104AA0005365782054797065205468696E670000FA
:104AB00000000000044051620E01014040405000DF
:104AC0004D72204A6F6E6573000000000000000008
:104AD00000000000034051510F4141D1C1C1D1003C
:104AE000436F756E74696E6720426C756520436113
:104AF0007273000004406262101919404050500067
:104B0000496E20426C6F6F6D0000000000000000D5
:104B1000000000000040444411C1C1C1C1C1C10036
:104B20004861736820506970650000000000000053
:104B3000000000000440516212010140404050005A
:104B40004D79204865726F000000000000000000F1
:104B50000000000004405162130101404040500039
:104B60004D616368696E65686561640000000000FE
:104B70000000000004405111140101C1C1C1D10065
:104B8000486F6C696461790000000000000000005B
:104B900000000000044051621501014040405000F7
:104BA000436C6F73696E672054696D650000000087
:104BB00000000000044051511601014050405000D7
:104BC000427261696E737465770000000000000036
:104BD0000000000004401162170101404040400005
:104BE000426F756E6420666F722074686520466C33
:104BF0006F6F72000240115118010140405850007F
:104C00004920416C6F6E650000000000000000004C
:104C1000000000000040515119190140404050006F
:104C200043756D626572736F6D6500000000000072
:104C300000000000044051511A0101404040500062
:104C40004C756D70000000000000000000000000C6
:104C500000000000044051511B0101404040400051
:104C6000486579204A65616C6F75737900000000B2
:104C700000000000044051511C0101404040500020
:104C80004B727970746F6E697465000000000000EB
:104C900000000000044051621D01014040405000EE
:104CA00044616D6D697400000000000000000000A8
:104CB00000000000044051511E01014040405000DE
:104CC00053656D692D636861726D6564204C69661A
:104CD00065000000044051511F0101404040500058
:104CE0004D79204F776E20576F72737420456E6533
:104CF0006D790000044051622001014040404000B5
:104D0000546865204D6964646C6500000000000013
:104D100000000000024051112100000000130000BB
:104D200042756C6C657420576974682042757474A0
:104D30006572666C044051622201014040404000AF
:104D40000000000000000000000000000000000063
:104D50000000000000000000000000000000000053
:104D60000000000000000000000000000000000043
:104D70000000000000000000000000000000000033
:10590000183B021D1F141913040920100811051754
:105910001B2116001A0F020C120D0AFFFFFFFFFFDA
:10592000183B021F141D1913041020081705111B22
:105930002116001A0F020C120D090AFFFFFFFFFFCC
:105940000F0F02090C0216041F051B001A13110A7F
:10595000141DFFFFFFFFFFFFFFFFFFFFFFFFFFFF24
:10596000165501090C021216180419130514001A11
:10597000170F1110080D1B150AFFFFFFFFFFFFFF98
:105980000FF500090C021604170F1413000B051174
:10599000150AFFFFFFFFFFFFFFFFFFFFFFFFFFFFF6
:1059A00000000000000000000000000000000000F7
:1059B00000000000000000000000000000000000E7
:1059C00000000000000000000000000000000000D7
:1059D00000000000000000000000000000000000C7
:020000040030CA
:0100000029D6
:010001000EF0
:0100020026D7
:010005008179
:010006008178
:010008000FE8
:01000900C036
:01000A000FE6
:01000B00E014
:01000C000FE4
:01000D0040B2
:00000001FF
