:020000040000FA
:0600000000EF05F0120004
:0600080014EF1CF01200D1
:060A0000A0EF1DF0120042
:060A080014EF1CF01200C7
:060A2A001200D9CFE6FF27
:100A3000E1CFD9FF060EE1260400B7EC1CF004005C
:100A4000B5EC10F004000400F28EF28C3ED81DA626
:100A500006D01D96E66AB5EC1BF0E5522BD01DA81A
:100A600007D01D98200EE66EB5EC1BF0E55222D0A3
:100A70001DA203D05AEC1DF01DD01DA004D01D9066
:100A80001AEC1DF017D01EA004D01E90C0EC05F08B
:100A900011D01DAA03D01D9A4AEC06F01DAE03D05A
:100AA0001D9ED8EC10F01EA203D01E92D2EC10F0C6
:100AB00069EC1CF0C8D7060EE15C02E2E16AE5527F
:100AC000E16EE552E7CFD9FF1200D1EC14F06FBE12
:080AD00002D0EDEC14F012005D
:080AD80001007E3B00008D00CF
:060AE00000000800000008
:0A0AE600D9CFE6FFE1CFD9FFE652B9
:100AF000FE0EDB50C26E0A0EDF6EDF5002E0DF0634
:100B0000FCD7C282C2B2FED7C450E552E552E7CF4D
:100B1000D9FF1200D9CFE6FFE1CFD9FFFE0EDBCF20
:100B2000E6FF9CEC1CF0E552E552E7CFD9FF12003E
:100B3000D9CFE6FFE1CFD9FFE652080EDF6E8984F8
:100B400089948992FE0EDBBE02D0899601D08986F7
:100B5000DBCFF3FFF39EF346F3CFDBFF8982DF06A3
:100B6000F0E18984100EDF6EDF5002E0DF06FCD773
:100B7000899489868982E552E552E7CFD9FF120030
:100B8000D9CFE6FFE1CFD9FF040EE126DE52010EF8
:100B9000DD6E030EDB6ADF6ADF50060822E3DFCF7B
:100BA000E6FF3CD8E552050EF36E020EF3CFDBFFF5
:100BB000DB5003E0020EDB06FBD784A209D0030E54
:100BC000DBCFE7FF010EDB50E712030EE7CFDBFFC1
:100BD000010EDBCFF3FFF39EF346F3CFDBFFDF2AFB
:100BE000DBD7030EDBCF4FF101014F9F4F4781B899
:100BF0004F814F1D4F6F070EDF6EDFCFE6FF0ED820
:100C0000E5521F8084A21F90040EE15C02E2E16ABB
:100C1000E552E16EE552E7CFD9FF1200D9CFE6FFEA
:100C2000E1CFD9FF8998899A8D90FE0EDBB0898833
:100C3000DBB2898ADBB48D80E552E7CFD9FF1200A1
:100C4000D9CFE6FFE1CFD9FF040EE126DE6ADE6AE6
:100C5000DE6ADD6ADD52DD52F00E01014F15E76EEE
:100C6000030EE7CFDBFF0F0E4F15DF6EDECF06F072
:100C7000DECF07F0DECF08F0DDCF09F0DD52DD5228
:100C8000040EE15C02E2E16AE552E16EE552E7CF73
:100C9000D9FF12004EC1E6FF4BDFE5521200D9CF5B
:100CA000E6FFE1CFD9FF01014E6B010EF36EFD0EA1
:100CB000DB5004E0D890F336E806FCE1F350010184
:100CC0004E13E552E7CFD9FF1200D9CFE6FFE1CFAF
:100CD000D9FF010EF36EFD0EDB5004E0D890F33621
:100CE000E806FCE1F35001014E13E552E7CFD9FFCE
:100CF0001200D9CFE6FFE1CFD9FF010EF36EFD0E52
:100D0000DB5004E0D890F336E806FCE1F350146EB3
:100D1000FF0EF31801014E17E552E7CFD9FF12007D
:100D20001F50010B1200010150511200D9CFE6FFF4
:100D3000E1CFD9FF020EE126000EF66E490EF76EE6
:100D40000900F5CFDEFF0A00F5CFDDFFDECF14F09E
:100D5000DDCF15F014C0F3FF15C0F4FF020EE15C07
:100D600002E2E16AE552E16EE552E7CFD9FF1200F7
:100D7000D9CFE6FFE1CFD9FF040EE126000EF66ED3
:100D8000490EF76E0900F5CFDEFF0A00F5CFDDFF53
:100D9000FD0EDBCF14F0FE0EDBCF15F0DECF16F02C
:100DA000DDCF17F01650145C1750155801E3EFD241
:100DB000FD0EDBCF14F0FE0EDBCF15F0040ED89045
:100DC00014361536E806FBE1400E1426000E1522F7
:100DD000020E14C0DBFF030E15C0DBFF020EDBCFDB
:100DE000F6FF030EDBCFF7FF000EF626490EF722C3
:100DF0000800F5507F0BE66EFB0EDBCFE9FFFC0E23
:100E0000DBCFEAFFE552E750EF6E010EE76E020E10
:100E1000DBCFF6FF030EDBCFF7FFE750F626000E21
:100E2000F722000EF626490EF7220800F5507F0B38
:100E3000E66E010EE76EFB0EDBCFE9FFFC0EDBCFAB
:100E4000EAFFE750E926000EEA22E552E750EF6E8E
:100E5000020EE76EDBCFF6FF030EDBCFF7FFE750A6
:100E6000F626000EF722000EF626490EF72208009D
:100E7000F5507F0BE66E020EE76EFB0EDBCFE9FF4F
:100E8000FC0EDBCFEAFFE750E926000EEA22E5522E
:100E9000E750EF6E030EE76E020EDBCFF6FF030E98
:100EA000DBCFF7FFE750F626000EF722000EF626FE
:100EB000490EF7220800F5507F0BE66E030EE76E31
:100EC000FB0EDBCFE9FFFC0EDBCFEAFFE750E926A4
:100ED000000EEA22E552E750EF6E040EE76E020EB6
:100EE000DBCFF6FF030EDBCFF7FFE750F626000E51
:100EF000F722000EF626490EF7220800F5507F0B68
:100F0000E66EF90EDBCFE9FFFA0EDBCFEAFFE55222
:100F1000E750EF6E050EE76E020EDBCFF6FF030E15
:100F2000DBCFF7FFE750F626000EF722000EF6267D
:100F3000490EF7220800F5507F0BE66E010EE76EB2
:100F4000F90EDBCFE9FFFA0EDBCFEAFFE750E92627
:100F5000000EEA22E552E750EF6E060EE76E020E33
:100F6000DBCFF6FF030EDBCFF7FFE750F626000ED0
:100F7000F722000EF626490EF7220800F5507F0BE7
:100F8000E66E020EE76EF90EDBCFE9FFFA0EDBCF5D
:100F9000EAFFE750E926000EEA22E552E750EF6E3D
:100FA000070EE76E020EDBCFF6FF030EDBCFF7FF77
:100FB000E750F626000EF722000EF626490EF7221D
:100FC0000800F5507F0BE66E030EE76EF90EDBCFDF
:100FD000E9FFFA0EDBCFEAFFE750E926000EEA222E
:100FE000E552E750EF6E080EE76E020EDBCFF6FF1C
:100FF000030EDBCFF7FFE750F626000EF722000EB8
:10100000F626490EF7220800F5507F0BE66EF70E24
:10101000DBCFE9FFF80EDBCFEAFFE552E750EF6EDA
:10102000090EE76E020EDBCFF6FF030EDBCFF7FFF4
:10103000E750F626000EF722000EF626490EF7229C
:101040000800F5507F0BE66E010EE76EF70EDBCF62
:10105000E9FFF80EDBCFEAFFE750E926000EEA22AF
:10106000E552E750EF6E0A0EE76E020EDBCFF6FF99
:10107000030EDBCFF7FFE750F626000EF722000E37
:10108000F626490EF7220800F5507F0BE66E020E99
:10109000E76EF70EDBCFE9FFF80EDBCFEAFFE75094
:1010A000E926000EEA22E552E750EF6E0B0EE76EDE
:1010B000020EDBCFF6FF030EDBCFF7FFE750F6267D
:1010C000000EF722000EF626490EF7220800F55012
:1010D0007F0BE66E030EE76EF70EDBCFE9FFF80E2F
:1010E000DBCFEAFFE750E926000EEA22E552E7509F
:1010F000EF6E0C0EE76E020EDBCFF6FF030EDBCFBA
:10110000F7FFE750F626000EF722000EF626490EEE
:10111000F7220800F550070B010FE66EF30EDBCF48
:10112000E9FFF40EDBCFEAFFE552E750EF6E060E63
:10113000146E0D0EE76E020EDBCFF6FF030EDBCF53
:10114000F7FFE750F626000EF722000EF626490EAE
:10115000F7220800F550C00B14C0E7FFE75204E087
:10116000E8427F0BE706FCE1E66EF50EDBCFE9FF18
:10117000F60EDBCFEAFFE552E750EF6E0D0EE76E9D
:10118000020EDBCFF6FF030EDBCFF7FFE750F626AC
:10119000000EF722000EF626490EF7220800F55041
:1011A000300BE8380F0BE66E010EE76EF50EDBCF65
:1011B000E9FFF60EDBCFEAFFE750E926000EEA2250
:1011C000E552E750EF6E0D0EE76E020EDBCFF6FF35
:1011D000030EDBCFF7FFE750F626000EF722000ED6
:1011E000F626490EF7220800F5500C0BE840E840BF
:1011F0003F0BE66E020EE76EF50EDBCFE9FFF60E53
:10120000DBCFEAFFE750E926000EEA22E552E7507D
:10121000EF6E0D0EE76E020EDBCFF6FF030EDBCF97
:10122000F7FFE750F626000EF722000EF626490ECD
:10123000F7220800F550030BE66E030EE76EF50E7D
:10124000DBCFE9FFF60EDBCFEAFFE750E926000E21
:10125000EA22E552E750EF6E060E146E0E0EE76EB0
:10126000020EDBCFF6FF030EDBCFF7FFE750F626CB
:10127000000EF722000EF626490EF7220800F55060
:10128000C00B14C0E7FFE75204E0E8427F0BE7061B
:10129000FCE1E66E040EE76EF50EDBCFE9FFF60E1D
:1012A000DBCFEAFFE750E926000EEA22E552E750DD
:1012B000EF6E0E0EE76E020EDBCFF6FF030EDBCFF6
:1012C000F7FFE750F626000EF722000EF626490E2D
:1012D000F7220800F550300BE8380F0BE66E050ECC
:1012E000E76EF50EDBCFE9FFF60EDBCFEAFFE75046
:1012F000E926000EEA22E552E750EF6E0E0EE76E89
:10130000020EDBCFF6FF030EDBCFF7FFE750F6262A
:10131000000EF722000EF626490EF7220800F550BF
:101320000C0BE840E8403F0BE66E060EE76EF50E4C
:10133000DBCFE9FFF60EDBCFEAFFE750E926000E30
:10134000EA22E552E750EF6E0E0EE76E020EDBCF9B
:10135000F6FF030EDBCFF7FFE750F626000EF7226D
:10136000000EF626490EF7220800F550030BE66E34
:10137000070EE76EF50EDBCFE9FFF60EDBCFEAFFD7
:10138000E750E926000EEA22E552E750EF6E040E20
:10139000E15C02E2E16AE552E16EE552E7CFD9FF96
:1013A0001200D9CFE6FFE1CFD9FF460EE126FD0EB0
:1013B000DBCF14F0FE0EDBCF15F0040ED890143600
:1013C0001536E806FBE1400E1426000E1522400EED
:1013D00014C0DBFF410E15C0DBFF400EDBCF14F065
:1013E000410EDBCF15F0C00E1416FF0E1516420E7F
:1013F00014C0DBFF430E15C0DBFF3F0EE76E400E4F
:10140000DBCF14F0410EE7501416156A440E14C0D9
:10141000DBFF450E15C0DBFF420EDBCFE6FF430EC0
:10142000DBCFE6FFEDD9E552E552FB0EDBCFE9FF5E
:10143000FC0EDBCFEAFFEF50E66E040EE76E440EC3
:10144000DBCFE9FF450EDBCFEAFFE750E926000ED0
:10145000EA22070EE926010EEA22E552E750EF6E76
:10146000010EE76EFB0EDBCFE9FFFC0EDBCFEAFFE0
:10147000E750E926000EEA22EF50E66E050EE76E11
:10148000440EDBCFE9FF450EDBCFEAFFE750E9264C
:10149000000EEA22070EE926010EEA22E552E75085
:1014A000EF6E020EE76EFB0EDBCFE9FFFC0EDBCF2B
:1014B000EAFFE750E926000EEA22EF50E66E060E3C
:1014C000E76E440EDBCFE9FF450EDBCFEAFFE750C6
:1014D000E926000EEA22070EE926010EEA22E5526D
:1014E000E750EF6E030EE76EFB0EDBCFE9FFFC0E5D
:1014F000DBCFEAFFE750E926000EEA22EF50E66E66
:10150000070EE76E440EDBCFE9FF450EDBCFEAFFA7
:10151000E750E926000EEA22070EE926010EEA222C
:10152000E552E750EF6EF90EDBCFE9FFFA0EDBCFA5
:10153000EAFFEF507F0BE66E080EE76E440EDBCF3E
:10154000E9FF450EDBCFEAFFE750E926000EEA226D
:10155000070EE926010EEA22E552E750EF6E010E72
:10156000E76EF90EDBCFE9FFFA0EDBCFEAFFE750BB
:10157000E926000EEA22EF507F0BE66E090EE76EB9
:10158000440EDBCFE9FF450EDBCFEAFFE750E9264B
:10159000000EEA22070EE926010EEA22E552E75084
:1015A000EF6E020EE76EF90EDBCFE9FFFA0EDBCF2E
:1015B000EAFFE750E926000EEA22EF507F0BE66EC5
:1015C0000A0EE76E440EDBCFE9FF450EDBCFEAFFE4
:1015D000E750E926000EEA22070EE926010EEA226C
:1015E000E552E750EF6E030EE76EF90EDBCFE9FF31
:1015F000FA0EDBCFEAFFE750E926000EEA22EF50B1
:101600007F0BE66E0B0EE76E440EDBCFE9FF450E57
:10161000DBCFEAFFE750E926000EEA22070EE926B3
:10162000010EEA22E552E750EF6EF60EDB04070BDF
:10163000E66E0C0EE76E440EDBCFE9FF450EDBCF06
:10164000EAFFE750E926000EEA22070EE926010E1E
:10165000EA22E552E750EF6E030EE76EF70EDBCF9E
:10166000E9FFF80EDBCFEAFFE750E926000EEA2299
:10167000EF50030B166E020EE76EF70EDBCFE9FF9D
:10168000F80EDBCFEAFFE750E926000EEA22EF5022
:10169000030B040DF3CF15F0010EE76EF70EDBCF51
:1016A000E9FFF80EDBCFEAFFE750E926000EEA2259
:1016B000EF50030B100DF3CF14F0F70EDBCFE9FF63
:1016C000F80EDBCFEAFFEF50030B400DF350141080
:1016D00015101610E66E0D0EE76E440EDBCFE9FF17
:1016E000450EDBCFEAFFE750E926000EEA22070E9F
:1016F000E926010EEA22E552E750EF6E070EE76E8B
:10170000F70EDBCFE9FFF80EDBCFEAFFE750E92663
:10171000000EEA22EF50030B166E060EE76EF70E70
:10172000DBCFE9FFF80EDBCFEAFFE750E926000E3A
:10173000EA22EF50030B040DF3CF15F0050EE76E10
:10174000F70EDBCFE9FFF80EDBCFEAFFE750E92623
:10175000000EEA22EF50030B100DF3CF14F0040E2D
:10176000E76EF70EDBCFE9FFF80EDBCFEAFFE750BD
:10177000E926000EEA22EF50030B400DF35014103F
:1017800015101610E66E0E0EE76E440EDBCFE9FF65
:10179000450EDBCFEAFFE750E926000EEA22070EEE
:1017A000E926010EEA22E552E750EF6E100E086EB0
:1017B000096AFD0EDBCF0DF0FE0EDBCF0EF03CEC28
:1017C0001DF006C005F107C006F1400E0101052716
:1017D000000E0623C00E0517FF0E0617000E052784
:1017E000490E0623E6EC1BF01D861D88460EE15CC3
:1017F00002E2E16AE552E16EE552E7CFD9FF12005D
:10180000D9CFE6FFE1CFD9FFE652DF6A400EDF5CB9
:101810001BE2FD0EDBCFF6FFDB2AFE0EDBCFF7FF70
:1018200001E3DB2A000EF626490EF7220800F550E8
:10183000E66EDF50EA6A070FE96E010EEA22E55212
:10184000E750EF6EDF2AE2D7E552E552E7CFD9FF46
:101850001200D9CFE6FFE1CFD9FF040EE126000E3A
:10186000E96E490EEA6EEECFDEFFEDCFDDFFFD0E35
:10187000DBCF14F0FE0EDBCF15F0DECF16F0DDCFA0
:1018800017F01650145C1750155801E395D0FD0E53
:10189000DBCF14F0FE0EDBCF15F0040ED89014361B
:1018A0001536E806FBE1400E1426000E1522020E46
:1018B00014C0DBFF030E15C0DBFF020EDBCFF6FF0B
:1018C000030EDBCFF7FF000EF626490EF7220800C5
:1018D000F5507F0BE66EFB0EDBCFE9FFFC0EDBCF96
:1018E000EAFFE552E750EF6E010EE76E020EDBCF26
:1018F000F6FF030EDBCFF7FFE750F626000EF722C8
:10190000000EF626490EF7220800F5507F0BE66E12
:10191000010EE76EFB0EDBCFE9FFFC0EDBCFEAFF2B
:10192000E750E926000EEA22E552E750EF6E020E7C
:10193000E76EDBCFF6FF030EDBCFF7FFE750F626AF
:10194000000EF722000EF626490EF7220800F55089
:101950007F0BE66E020EE76EFB0EDBCFE9FFFC0E9F
:10196000DBCFEAFFE750E926000EEA22E552E75016
:10197000EF6E030EE76E020EDBCFF6FF030EDBCF3A
:10198000F7FFE750F626000EF722000EF626490E66
:10199000F7220800F5507F0BE66E030EE76EFB0E94
:1019A000DBCFE9FFFC0EDBCFEAFFE750E926000EB4
:1019B000EA22E552E750EF6E040EE15C02E2E16AD2
:1019C000E552E16EE552E7CFD9FF1200D9CFE6FF2D
:1019D000E1CFD9FF040EE126000EF66E490EF76E38
:1019E0000900F5CFDEFF0A00F5CFDDFFFD0EDBCFEE
:1019F00014F0FE0EDBCF15F0DECF16F0DDCF17F0C2
:101A00001650145C1750155803E3F36AF46A39D082
:101A1000DECF16F0DDCF17F0040ED890163617364D
:101A2000E806FBE1400E1626000E1722020E086E95
:101A3000096AFD0EDBCF0DF0FE0EDBCF0EF03CECA5
:101A40001DF016500624146E17500720156E020E56
:101A500014C0DBFF030E15C0DBFF020EDBCFF6FF69
:101A6000030EDBCFF7FF000EF626490EF722090022
:101A7000F5CF14F00800F5CF15F014C0F3FF15C032
:101A8000F4FF040EE15C02E2E16AE552E16EE55228
:101A9000E7CFD9FF1200D9CFE6FFE1CFD9FFFD0E86
:101AA000DB500F0B146EFE0EDB500F0B100DF350BE
:101AB0001410E66E9CEC1CF0E552FC0EDB507F0B24
:101AC000E66E9CEC1CF0E552E552E7CFD9FF120020
:101AD000D9CFE6FFE1CFD9FFFD0EDB500F0B146E1F
:101AE000FE0EDB500F0B100DF3501410E66E9CEC45
:101AF0001CF0E552FC0EDB507F0BE66E9CEC1CF0FC
:101B0000E552FB0EDB507F0BE66E9CEC1CF0E552C1
:081B1000E552E7CFD9FF1200F6
:081B1800D9CFE6FFE1CFD9FFB0
:101B2000E652030EDF6E0A0E146E0E6EFE0EDBCF53
:101B300009F0B1EC1DF00550300FE66EDF50DF0606
:101B4000E76EFC0EDBCFE9FFFD0EDBCFEAFFE750CF
:101B5000E926000EEA22E552E750EF6E0A0E146EF7
:101B60000E6EFE0EDBCF09F0B1EC1DF0FE0E09C0CB
:101B7000DBFF09500008D7E3DF50000810E2DF5018
:101B8000E76EFC0EDBCFE9FFFD0EDBCFEAFFE7508F
:101B9000E926000EEA22200EEF6EDF06EDD7DF50B9
:101BA000E76EFC0EDBCFE9FFFD0EDBCFEAFFE7506F
:101BB000E926000EEA22200EEF6EE552E552E7CF4D
:101BC000D9FF1200D9CFE6FFE1CFD9FF040EE126FD
:101BD000500EDF6EDE52720EDD6E6F0EF36E020E71
:101BE000F3CFDBFF670EF36E030EF3CFDBFFD9CF2E
:101BF000E6FFDACFE6FF49EC16F0E552E552FE0EBD
:101C0000DB28E66E8DEC16F0E552040EE15C02E294
:101C1000E16AE552E16EE552E7CFD9FF1200D9CF74
:101C2000E6FFE1CFD9FFE150FB0FE96EFF0EDA20AE
:101C3000EA6E00016051EE14146E6151EE14156EDF
:101C40006251EE14166E6351EE14176EE150FB0FE5
:101C5000E96EFF0EDA20EA6E1450EE1821E11550FD
:101C6000EE181EE11650EE181BE11750EE1818E1A1
:101C700017E1D950FB0FE96EFF0EDA20EA6E6451CE
:101C8000EE14186E6551EE14196E6651EE141A6E4C
:101C90006751EE141B6E185019101A101B1002E039
:101CA000000E01D0010EE552E7CFD9FF1200D9CFC7
:101CB000E6FFE150FB0FE96EFF0EDA20EA6E00014D
:101CC0006051EE14146E6151EE14156E6251EE14F3
:101CD000166E6351EE14176EE150FB0FE96EFF0EA6
:101CE000DA20EA6E1450EE1808E11550EE1805E1FE
:101CF0001650EE1802E11750EE1802E0000E01D067
:101D0000010EE552E7CFD9FF1200D9CFE6FFE1CFB0
:101D1000D9FFE150FB0FE96EFF0EDA20EA6E0001F9
:101D20006451EE14146E6551EE14156E6651EE1486
:101D3000166E6751EE14176EE150FB0FE96EFF0E41
:101D4000DA20EA6E1450EE1821E11550EE181EE16B
:101D50001650EE181BE11750EE1818E117E1D95094
:101D6000FB0FE96EFF0EDA20EA6E6051EE14186E7A
:101D70006151EE14196E6251EE141A6E6351EE1435
:101D80001B6E185019101A101B1002E0000E01D023
:101D9000010EE552E7CFD9FF1200D9CFE6FFE1CF20
:101DA000D9FFFD0EDBCFE6FFFE0EDBCFE6FFE66AD6
:101DB0000B0EE66E68EC0DF0E552E552E552E55289
:101DC000E552E7CFD9FF1200D9CFE6FFE1CFD9FF27
:101DD000E65200016851EA6A690FE96E000EEA22D4
:101DE000EFCFDFFFDFA806D0000EE66EE66A65ECF7
:101DF00006F005D0000EE66EE66A79EC06F0E552D4
:101E0000E552DFA606D0010EE66EE66A65EC06F046
:101E100005D0010EE66EE66A79EC06F0E552E55271
:101E2000DFA206D0020EE66EE66A65EC06F005D08B
:101E3000020EE66EE66A79EC06F0E552E552DFA4A2
:101E400006D0030EE66EE66A65EC06F005D0030EDA
:101E5000E66EE66A79EC06F0E552E552E552E552A7
:101E6000E7CFD9FF1200D9CFE6FFE1CFD9FFE65285
:101E700000016851EA6A690FE96E000EEA22EFCFAD
:101E8000DFFF400EDF1402E07F0E01D0000EE66E91
:101E90005A0EE66E82DFE552E552100EDF1402E0C4
:101EA0007F0E01D0000EE66E580EE66E76DFE5522C
:101EB000E552040EDF1402E07F0E01D0000EE66E44
:101EC000560EE66E6ADFE552E552020EDF1402E0BE
:101ED0007F0E01D0000EE66E550EE66E5EDFE55217
:101EE000E552080EDF1402E07F0E01D0000EE66E10
:101EF000570EE66E52DFE552E552010EDF1402E0A6
:101F00007F0E01D0000EE66E540EE66E46DFE552FF
:101F1000E552E552E552E7CFD9FF1200D9CFE6FFEF
:101F2000E1CFD9FFE652FE0EDB5002E1040E10D0E5
:101F3000FE0EDB0402E1060E0BD0FE0EDB500208A3
:101F400002E1080E05D0FE0EDB50030817E1090E72
:101F5000DF6EFE0EDBCF68F0DFCFE6FF010EE66E30
:101F60000C0EE66E4BEC0DF0E552E552E5527BDFD0
:101F7000FE0EDBCFE6FF26DEE55226DFE552E55218
:101F8000E7CFD9FF1200D9CFE6FFE1CFD9FF020E8C
:101F9000E126DF6AFE0EDB5003E1DE52100E13D0A5
:101FA000FE0EDB0403E1DE52080E0DD0FE0EDB5008
:101FB000020803E1DE52020E06D0FE0EDB500308DB
:101FC0002BE1DE52040EDD6E00016851EA6A690FF2
:101FD000E96E000EEA22010EDB50EF1A010EDBCF94
:101FE000E6FF6851EA6A690FE96E000EEA22EF50D7
:101FF000E552E71402E07F0EDF6EDFCFE6FFFE0E54
:10200000DB50EA6A6D0FE96E000EEA22EF50E66ED1
:10201000C4DEE552E552D8DE020EE15C02E2E16A7E
:10202000E552E16EE552E7CFD9FF1200D9CFE6FFC6
:10203000E1CFD9FF7F0EE66EFE0EDBCFE6FFADDE11
:10204000E552E552E552E7CFD9FF1200D9CFE6FFBE
:10205000E1CFD9FFFC0EDBCFE9FFFD0EDBCFEAFFBE
:10206000EF5008E0FC0EDBCFE9FFFD0EDBCFEAFF0F
:10207000EF6A08D0FC0EDBCFE9FFFD0EDBCFEAFFF5
:102080007F0EEF6EFC0EDBCFE9FFFD0EDBCFEAFF2C
:10209000EF50E66EFE0EDBCFE6FF7FDEE552E55247
:1020A000E552E7CFD9FF1200D9CFE6FFE1CFD9FF44
:1020B000E66AFE0EDBCFE6FF70DEE552E552E55242
:1020C000E7CFD9FF1200D9CFE6FFE1CFD9FF040E49
:1020D000E126740EDF6EDE52750EDD6E6E0EF36E4F
:1020E000020EF3CFDBFF450EF36E030EF3CFDBFFE3
:1020F000D9CFE6FFDACFE6FF49EC16F0E552E5521C
:10210000510EE66E93DFE5520001010E766F040E6C
:10211000E15C02E2E16AE552E16EE552E7CFD9FF08
:102120001200D9CFE6FFE1CFD9FFFB0EDBCF78F06D
:10213000FC0EDBCF79F0FD0EDBCF7AF0FE0EDBCFAD
:102140007BF000014B0E716F010E726F765109E04A
:10215000766B510EE66EA8DFE55268C0E6FF32DD11
:10216000E552E552E7CFD9FF12000001580E6D6F1E
:10217000570E6E6F550E6F6F560E706F010E696FB2
:10218000400E6A6F6B6F500E6C6F716B726B776B7A
:10219000766B786B796B7A6B100E7B6FE66ABEDEBE
:1021A000E552120000017151000801E271071200AE
:1021B00020EC06F006C060F007C061F008C062F0D5
:1021C00009C063F0E66AE66AE66A100EE66E27DD8D
:1021D000E552E552E552E55200091AE00001685166
:1021E00003E0E66A9BDE09D0770EE66E000EE66E2F
:1021F000500EE66E2BDFE552E552E552E66AE66ADE
:10220000E66A100EE66E8DDFE552E552E552E552C4
:10221000E66AE66AE66A800EE66E01DDE552E552A0
:10222000E552E55200091BE00001680504E0010EDB
:10223000E66E74DE09D0770EE66E000EE66E500E86
:10224000E66E04DFE552E552E552E66AE66AE66AC2
:10225000800EE66E66DFE552E552E552E552E66A2B
:10226000E66AE66A400EE66EDADCE552E552E552D1
:10227000E55200091CE0020E0001685D04E0020E58
:10228000E66E4CDE09D0770EE66E000EE66E500E5E
:10229000E66EDCDEE552E552E552E66AE66AE66A9B
:1022A000400EE66E3EDFE552E552E552E552E66A43
:1022B000E66AE66A200EE66EB2DCE552E552E552C9
:1022C000E55200091CE0030E0001685D04E0030E06
:1022D000E66E24DE09D0770EE66E000EE66E500E36
:1022E000E66EB4DEE552E552E552E66AE66AE66A73
:1022F000200EE66E16DFE552E552E552E55200018A
:10230000725116E078C0E6FF79C0E6FF7AC0E6FFBA
:102310007BC0E6FFCCDCE552E552E552E552000910
:1023200007E00001715104E1CEDE0001716B726BB8
:102330000001725112E078C0E6FF79C0E6FF7AC072
:10234000E6FF7BC0E6FFB3DCE552E552E552E5521D
:10235000000903E10001716B726B010EE66EE66A23
:10236000E66AE66A5CDCE552E552E552E5520009B0
:1023700003E0E66A08DEE552020EE66EE66AE66A09
:10238000E66A4DDCE552E552E552E552000904E00B
:10239000010EE66EF8DDE552040EE66EE66AE66AC8
:1023A000E66A3DDCE552E552E552E552000904E0FB
:1023B000020EE66EE8DDE552080EE66EE66AE66AB3
:1023C000E66A2DDCE552E552E552E552000904E0EB
:1023D000030EE66ED8DDE55260C064F061C065F0C2
:0A23E00062C066F063C067F01200EF
:0623EA0004011051600B1C
:1023F000E842E842E842E842E842000901E012000F
:102400001151070A48E00B0A46E0070A37E0010AC3
:1024100025E00B0A21E0020A1FE0030A1BE0080A7C
:1024200011E0010A0DE00F0A09E0030A01E01200C1
:102430000001010E816F040E7C6F12004CEF12F050
:10244000A9EF12F00001010E816F7E0E826F000E67
:10245000836F10D0CEEF12F015EF13F00001010ED4
:10246000816F040114510001826F836B7F0E8227FC
:10247000000E83237D93010E866F12000001010E72
:10248000816F04011451EA6A7F0FE96E000EEA229F
:1024900012C4EFFF12001200800E0401105D58E11B
:1024A0001351030A2FE0010A0BE0030A48E100017F
:1024B000010E816F360E826F350E836F120E3DD086
:1024C0000001010E816F04011251F66EF76AD89077
:1024D000F636F736500EF626360EF7220900F5CFFF
:1024E00082F00A00F5CF83F0020E0001F76A822520
:1024F000F66E8351F7220900F5CF86F00A00F5CF7A
:1025000087F01DD00001010E816F04011251F66E9B
:10251000F76AD890F636F736540EF626360EF722BE
:102520000900F5CF82F00A00F5CF83F082C0F6FFF4
:1025300083C0F7FF0800F5500001866F876B020E1D
:102540000401125D05E0030E125D02E000017D83CF
:1025500012000001010E816F0F0EE66E710EE66E25
:102560000F0EE66EBCDAE552E552E552010EE66E5C
:102570007F0EE66E000EE66EB2DAE552E552E552E7
:1025800012C47EF00401125104E10001050E7C6FBB
:1025900012000001060E7C6F0CEF1AF00401506B64
:1025A000516B10511F0B020A13E0030A0DE0010AE0
:1025B00031E10001010E816F0401508100017DA114
:1025C00029D00401508326D00001010E816F22D052
:1025D0000001010E816F040114510F0B080DF3501F
:1025E000156A000F146E040E15221451800B01E0C1
:1025F000010E040DF35000011424846F000E152009
:10260000856F84C0E9FFEA6EEF50040B03E004011C
:10261000010E506F0001810507E1500E826F040E1C
:10262000836F7D93020E866F12000401120510E184
:1026300010511F0B00090CE10001010E816F030E08
:102640000401115D03E100017D8102D000017D9153
:10265000040112513AE110511F0B020836E11451E6
:102660000F0B000932E00001010E816F04011451CB
:102670000F0B080DF350156A000F146E040E15228F
:102680001451800B01E0010E040DF35000011424DD
:10269000846F000E1520856F030E0401115D07E1A4
:1026A000840E84C0E9FF85C0EAFFEF6E120014AF0C
:1026B00006D084C0E9FF85C0EAFFEF6A1200880EE9
:1026C00084C0E9FF85C0EAFFEF6E12006C500BE199
:1026D000040100513C0BE842E8420D0802E178EFAA
:1026E00013F0ACEF13F0040E6C5C01E144D812005F
:1026F000D9CFE6FFE1CFD9FFE6520001806B816BB5
:10270000866B876B72DEDF6ADF50146E156A010E0E
:10271000145C000E15581AE20001815117E1F76AA6
:10272000DF34FE0BF736F66E5C0EF626360EF72219
:102730000900F5CF14F00800F5CF15F004D015C04E
:10274000FAFF1450F96EFBDFDF2ADED7DBD8E55243
:10275000E552E7CFD9FF1200020E0001805D09E1CA
:1027600094D8040100BD02D0C80E01D0880E006FBD
:102770001200C4EF14F0040E00017C5D09E112C4E4
:102780006EFF6E50000802E2050E01D0030E7C6F52
:10279000800509E110D8040104BD02D0C80E01D0A3
:1027A000880E046F1200090E0401115D02E13BEC7A
:1027B00017F0C4EF14F0D9CFE6FFE1CFD9FF020E36
:1027C000E1260001400E865D000E875905E286C0B5
:1027D000DEFF87C0DDFF03D0400EDE6EDD6A040140
:1027E00004930491010EDB500413DFCF05F4000EB7
:1027F000DB500001865F010EDB50875B500E846F5B
:10280000040E856F7DA31CD0D9CFE9FFDACFEAFF94
:10281000EE50ED1030E082C0F6FF83C0F7FF0800F5
:10282000F55084C0E9FF85C0EAFFEF6E842B000EEF
:102830008523822B8323DF06010EE6E2DB06E4D745
:10284000D9CFE9FFDACFEAFFEE50ED1014E082C0F5
:10285000E9FF83C0EAFFEF5084C0E9FF85C0EAFFCB
:10286000EF6E842B000E8523822B8323DF06010E5F
:10287000E7E2DB06E5D7020EE15C02E2E16AE5523F
:10288000E16EE552E7CFD9FF1200D9CFE6FFE1CFE5
:10289000D9FF020EE126030E04010015E76E010EBA
:1028A000E7CFDBFF01C4DFFFDE5000018627DD50EC
:1028B0008723500E826F040E836FD9CFE9FFDACFE2
:1028C000EAFFEE50ED1014E082C0E9FF83C0EAFF9A
:1028D000EF5084C0E9FF85C0EAFFEF6E842B000E45
:1028E0008523822B8323DF06010EE7E2DB06E5D793
:1028F000020EE15C02E2E16AE552E16EE552E7CFE9
:10290000D9FF1200000181510AE10401400E016F5C
:10291000100E026F040E036F840E006F22D00401AC
:1029200010AF21D0000186510401165D00018751CE
:102930000401175904E216C486F017C487F03BDF80
:102940000001010E806F0401400E016F100E026F36
:10295000040E036F800E006F500E066F040E076F9B
:10296000C80E046F0FD00001020E806F0401056BCA
:10297000C80E046F400E016F500E026F040E036FFD
:10298000C80E006F6D9812000001806B0401400EAC
:10299000016F100E026F040E036F880E006F046B40
:1029A00012006DA60CD800017C0508E16DBA06D0B6
:1029B000686A696A69806988020E7C6F12006D6AB4
:1029C000696A6D860001010E7C6F12006D6A696A8A
:1029D00000017C6B1200E6EF14F000017C5101E174
:1029E00012006850040B04E06950040B01E038D871
:1029F0006DB212006850010B04E06950010B01E058
:102A00004FD86850100B04E06950100B01E023D838
:102A10006850400B04E06950400B01E037D8685023
:102A2000200B04E06950200B01E032D86850020B03
:102A300004E06950020B01E031D8030E00017C5D17
:102A400001E212006850080B05E06950080B02E033
:102A50003DDE68961200698468986D82A19A120022
:102A60006D9269946894120000017DA10ED0F8DF88
:102A70006D840001080E886F070E896F8807000EAD
:102A8000895B88518911FAE16D941200689C1200EB
:102A900070A002D079DF7090689A120068921200DC
:102AA0006A6A686A9F0E6B6E7B0E696E6E6A0F0EA5
:102AB000E66E710EE66E0F0EE66E11D8E552E55227
:102AC000E552160E706E68A602D06896FCD76D9817
:102AD0005BDF00017D917E6B030E7C6F1200D9CF0E
:102AE000E6FFE1CFD9FFFD0EDBCFE9FFFE0EDBCF26
:102AF000EAFFFC0EDB5004E0EE6AFC0EDB06F9D7C1
:082B0000E552E7CFD9FF1200F6
:082B08000101008F22D8010138
:102B10005651040A10E0070A0CE0010A08E0030A13
:102B200004E0010A0DE18A9A07D08B9005D08A96BD
:102B300003D08A9401D08A9256C1E6FF18D8E55294
:102B40000101562B01014D510101565D01E3566B08
:102B500012008A908C9E8C9C8C9A8C988B948C966C
:102B60008C948A8A8B808A868A848A821200D9CF42
:102B7000E6FFE1CFD9FFE652FE0EDB50EA6A000F16
:102B8000E96E010EEA22EFCFDFFFD9CFE9FFDACFFE
:102B9000EAFFEF50010B01E08A80D9CFE9FFDACFDD
:102BA000EAFFEF50020B01E08C8ED9CFE9FFDACFBC
:102BB000EAFFEF50040B01E08C8CD9CFE9FFDACFAC
:102BC000EAFFEF50080B01E08C8AD9CFE9FFDACF9A
:102BD000EAFFEF50100B01E08C88D9CFE9FFDACF84
:102BE000EAFFEF50200B01E08B84D9CFE9FFDACF69
:102BF000EAFFEF50400B01E08C86D9CFE9FFDACF36
:102C0000EAFFEF50800B01E08C84E552E552E7CFFC
:102C1000D9FF1200D9CFE6FFE1CFD9FF020EE1269E
:102C2000F29EF29C010EDB6A050EF36E010EDBCF05
:102C3000F4FFF350F45C21E2010EDB50E76EFD0E71
:102C4000DBCFE9FFFE0EDBCFEAFFE750E926000EFF
:102C5000EA22EFCFDFFFDFCFE6FF73D8E552E66E63
:102C6000010EDB50EA6A000FE96E010EEA22E5521E
:102C7000E750EF6E010EDB2AD7D7F28EF28C020EF0
:102C8000E15C02E2E16AE552E16EE552E7CFD9FF8D
:102C90001200D9CFE6FFE1CFD9FF020EE126F29E66
:102CA000F29C010EDB6A040EF36E010EDBCFF4FF23
:102CB000F350F45C26E2010EDB50E76EFD0EDBCF35
:102CC000E9FFFE0EDBCFEAFFE750E926000EEA221D
:102CD000EFCFDFFFDFCFE6FF34D8E552E66E010E1F
:102CE000DBCFE6FF030EE552D880E754EA6A000F17
:102CF000E96E010EEA22E552E750EF6E010EDB2A83
:102D0000D2D7F28EF28C020EE15C02E2E16AE55269
:102D1000E16EE552E7CFD9FF1200D9CFE6FFE1CF50
:102D2000D9FFF29EF29CFE0EDB50300FE66E09D802
:102D3000E5520101046FF28EF28CE552E7CFD9FF24
:102D40001200D9CFE6FFE1CFD9FF410EF36EFE0EA0
:102D5000DBCFF4FFF350F45C1AE3610EF36EFE0E6A
:102D6000DBCFF4FFF350F45C02E3610E01D0410EBF
:102D7000146EFE0EDBCFE7FF1450E75EFE0EE7CFCA
:102D8000DBFFDB50F76A260FF66E3B0E17D0300ED6
:102D9000F36EFE0EDBCFF4FFF350F45C15E3300E60
:102DA000146EFE0EDBCFE7FF1450E75EFE0EE7CF9A
:102DB000DBFFDB50F76A1C0FF66E3B0EF7220800B4
:102DC000FE0EF5CFDBFF10D0FE0EDB5020080AE030
:102DD000FE0EDB502D0806E1400EF36EFE0EF3CF23
:102DE000DBFF02D0FE0EDB6ADB50E552E7CFD9FFF6
:102DF0001200D9CFE6FFE1CFD9FF060EE126050E7E
:102E0000DB6AF36EDBCFF4FFE850F45C1DE2050EE5
:102E1000DB5001019825EA6A570FE96E010EEA229C
:102E2000EF50E66ED9CF14F0DACF15F0050EDB5077
:102E30000F01D924E96E000EDA20EA6EE552E75060
:102E4000EF6E050EDB2ADDD7D9CFE6FFDACFE6FF3E
:102E5000E1DEE552E55201019807985102E197C180
:102E600098F1060EE15C02E2E16AE552E16EE5529C
:062E7000E7CFD9FF1200BC
:0A2E76001C8866EC18F01C9812008E
:102E80001C8866EC18F00001020E816F0001500EE4
:102E9000826F040E836F00017D931C981200D9CFBE
:102EA000E6FFE1CFD9FF040EE126DE52010EDD6E12
:102EB000FFC1E6FF77EC19F0E5520101FF51300A3E
:102EC0006DE0010A37E0030A01E078D0010EE66EFA
:102ED00077EC19F0E5524BC1E6FF77EC19F0E552BB
:102EE0004CC1E6FF77EC19F0E552000E01014B25CD
:102EF000146E490E4C21156E020E14C0DBFF030E3A
:102F000015C0DBFFDF6A200EDF5C66E2DF50E76E94
:102F1000020EDBCFF6FF030EDBCFF7FFE750F626FE
:102F2000000EF7220800F550E66E77EC19F0E55236
:102F3000DF2AE9D7010EE66E77EC19F0E5524BC1B6
:102F4000E6FF77EC19F0E5524CC1E6FF77EC19F09B
:102F5000E552000E01014B25146E490E4C21156EF1
:102F6000020E14C0DBFF030E15C0DBFFDF6A200E6C
:102F7000DF5C32E2DF50E76E020EDBCFF6FF030EBE
:102F8000DBCFF7FFE750F626000EF7220800F550DA
:102F9000E66E77EC19F0E552DF2AE9D7010EE66E0E
:102FA00077EC19F0E5524BC1E6FF77EC19F0E552EA
:102FB0004CC1E6FF77EC19F0E5520ED0E66A77ECEB
:102FC00019F0E552DF6A3E0EDF5C06E2E66877EC58
:102FD00019F0E552DF2AF7D7400E0101A55D07E29F
:102FE000E66A77EC19F0E5520101A52BF5D7010E41
:102FF000DB50146E040EE15C02E2E16AE552E16E20
:103000001450E552E7CFD9FF1200D9CFE6FFE1CF48
:10301000D9FF040EE126DE52010EDD6EA7C1FFF1DD
:103020000101A751320A40E0030A13E0010A40E11E
:10303000A9C14BF1AAC14CF1000E01014B250101C0
:10304000056F490E01014C210101066FE6EC1BF0F2
:103050002FD0A9C14BF1AAC14CF1000E01014B25A3
:103060000101056F490E01014C210101066FDF6A64
:10307000200EDF5C14E2050EDF24EA6AA60FE96E7B
:10308000010EEA22EF50E66EDF50EA6A070FE96EA2
:10309000010EEA22E552E750EF6EDF2AE9D7E66A31
:1030A000B5EC1BF0E55204D0A9C14BF1AAC14CF11B
:1030B000010EDB50146E040EE15C02E2E16AE5529F
:0C30C000E16E1450E552E7CFD9FF12007A
:0430CC00D9CFE6FF73
:1030D000E1CFD9FF110EE1260101E6690101010EE0
:1030E000A56FA70EDE6E010EDD6E0401110501E075
:1030F00087D01251B40A6EE0760A5AE0590A4FE0BE
:10310000020A43E0010A30E00F0A24E0010A1AE053
:10311000BA0A0DE0830A74E10101050EE66FE66A62
:10312000E6D8E552E66AE3D8E552E66A3DD04FECD0
:1031300017F0000904E00101050EE66F61D00101FE
:10314000E6695ED00101050EE66FA0A859D0010E18
:10315000E66F53D00101050EE66F47C1E6FFC7D801
:10316000E55248C1E6FF4AD00101050EE66F040EA4
:1031700049C1DBFF050E4AC1DBFF040EDBCFE9FFCF
:10318000050EDBCFEAFFEF5023D00101050EE66FFD
:1031900049C1E6FFACD8E5524AC1E6FF2FD0010194
:1031A000050EE66F030EE66EA2D8E552E66A26D05B
:1031B0000101050EE66F0A0EE66E99D8E552140E6F
:1031C000E66E95D8E552230EE66E91D8E552690E6B
:1031D000E66E14D00101050EE66FA0B803D0F29E92
:1031E000F29C0ED0010EE66FE66881D8E552E668E3
:1031F0007ED8E552E6687BD8E552E66878D8E55295
:10320000090E0401115D5AE11251B40A54E02E0A6C
:1032100052E0030A3CE0010A2CE00F0A16E0010A22
:103220000DE0BA0A4BE105EC18F0000903E00101DA
:10323000020E02D00101010EE66F40D00101020E24
:10324000E66FA0A83BD0010E38D00101020EE66F58
:10325000DECFE9FFDDCFEAFFEFCF47F1DECFE9FFB9
:10326000DDCFEAFF010EE926000EEA22EFCF48F19A
:1032700025D00101020EE66FDECFE9FFDDCFEAFFC8
:10328000EF5049C1E9FF4AC1EAFFEF6E17D00101D3
:10329000020EE66FDECFE9FFDDCFEAFFEFCF49F1A7
:1032A000DECFE9FFDDCFEAFF010EE926000EEA22BC
:1032B000EFCF4AF103D00101020EE66FFF0E0101CC
:1032C000E65D0BE0090E0401115D07E012C450F445
:1032D0000101A5510001866F876B110EE15C02E2CE
:1032E000E16AE552E16EE552E7CFD9FF1200D9CF8E
:1032F000E6FFE1CFD9FF400E0101A55D0AE2A5512D
:10330000EA6A500FE96E040EEA22FE0EDBCFEFFFF1
:0A331000A52BE552E7CFD9FF12000C
:06331A00040110511F0B1D
:10332000010801E01200145101E01200060E115DC7
:1033300028E11351230A23E0010A0FE0030A1FE1E9
:103340000001020E816F00017E0505E100015A0EA9
:10335000826F350E836F090E0FD00001020E816F50
:1033600000017E0505E10001D40E826F350E836FEA
:1033700000017E0504E17C0E0001866F876B000171
:103380007D8304011051600BE842E842E842E842C4
:10339000E842010801E0120011510B0A37E0080A67
:1033A00027E0090A1FE0080A15E00B0A05E0080AF1
:1033B00001E0120040EF17F00001A60E846F010E2D
:1033C000856F00017D930001866B876B0001020E03
:1033D000816F12000001020E816F00018A0E826F60
:1033E000000E0DD00001020E816F13C48AF012008E
:1033F0000001020E816F00018B0E826F000E836F41
:1034000000017D930001010E866F12000001020E83
:10341000816F12C48BF0120000018C6B1E0E716E56
:103420000401080E096F900E0A6F040E0B6F880ED0
:10343000086F0401980E0E6F040E0F6F400E0C6F94
:103440001200D9CFE6FFE1CFD9FFE652FC0EDB50E8
:10345000080805E2080EF36EFC0EF3CFDBFFDF6A0F
:10346000FC0EDB50DF5C19E2DF50E76EFD0EDBCFB8
:10347000E9FFFE0EDBCFEAFFE750E926000EEA2265
:10348000EF50E66EDF50EA6A980FE96E040EEA220A
:10349000E552E750EF6EDF2AE3D7FC0EDBCF0DF4E9
:1034A000400E04010C170C7D880E0C13E552E552FA
:1034B000E7CFD9FF1200D9CFE6FFE1CFD9FF000156
:1034C0008C6B040108BF31D0FC0EDBCF14F0095126
:1034D000D880145403E2FC0E09C4DBFF00018C6B9E
:1034E000FC0EDB508C5D19E28C51EA6A900FE96E9C
:1034F000040EEA22EF50E66E8C51E76EFD0EDBCF34
:10350000E9FFFE0EDBCFEAFFE750E926000EEA22D4
:10351000E552E750EF6E8C2BE3D70401080E096FDC
:10352000400E0817087D880E081300018C51E552E3
:06353000E7CFD9FF1200F5
:0A3536001201100100000040AE0970
:10354000304410000102030109022200010100A021
:1035500032090400000103000000092110010001EC
:10356000227C0007058103080028040309041803CE
:103570004A006F006500000000000000000000002D
:103580000000000000002C034D00490044004900E9
:10359000200044006500760069006300650020009B
:1035A000000000000000000000000000000000001B
:1035B00000002203360039003100320030003600AE
:1035C0003000420020000000000000000000000069
:1035D0000000000006FFFF0901A101750895012602
:1035E000FF001500859609C0B102752085B409D287
:1035F000B1027510859709C1B1027508859809C295
:10360000B1027510859909C3B102859C09D4B10234
:103610007510859D09D5B102859B09C5B10275203C
:1036200085AF09E9B10285AF09E981A2760002857B
:10363000B009EAB102752085C209D6B102859A099E
:10364000C4B1027508953F852C09040904B102C074
:0E365000483548356A356E358635B2351A3341
:02365E00000169
:10366000020304050506070708080909090A0A0AEA
:103670000B0B0B0B0C0C0C0C0C0C0D0D0D0D0D0D88
:103680000D0E0E0E0E0E0E0E0E0F0F0F0F0F0F0F54
:10369000101010101010101111111111121212121D
:1036A00012131313131314141414141515151515DC
:1036B0001616161617171717181818181919191992
:1036C0001A1A1A1A1B1B1B1C1C1C1C1D1D1D1E1E3E
:1036D0001E1F1F1F202020212121222223232324DB
:1036E0002425252626262727282829292A2A2B2C5F
:1036F0002C2D2D2E2E2F30303132323334343536BE
:10370000373738393A3B3B3C3D3E3F4041424344EA
:1037100045464748494A4B4C4D4E4F5051525354E1
:1037200055565758595A5B5C5D5E5F6061626364D1
:1037300065666768696A6B6C6D6E6F7071727374C1
:1037400075767778797A7B7C7D7E7FFFFFFFFFFF40
:0E375000FFFFFFFFFFFFFFFFFFFFFFFFFFFF79
:02375E00550E06
:10376000A76EAA0EA76EA6821200D9CFE6FFE1CF00
:10377000D9FFE652E00E01010517840EA66EFE0E7B
:10378000DB50DF6EFE0EDB50200FDF5C1AE2DF50F5
:10379000EA6A070FE96E010EEA22EFCF14F0DF505C
:1037A0000101F76A0525F66E0651F722F86A14C082
:1037B000F5FF0C001F0EDF141F0801E1D0DFDF2A28
:1037C000E1D7E552E552E7CFD9FF1200940EA66E7D
:1037D00005C1F6FF06C1F7FFF86AC1DFF86A1200FB
:1037E000D9CFE6FFE1CFD9FFA66AFE0EDB50A96E66
:1037F000A680A850E552E7CFD9FF1200D9CFE6FF47
:10380000E1CFD9FFA6A202D0000E0AD0FE0EDB50F7
:10381000A96EFD0EDB50A86E040EA66EA0DF010E91
:08382000E552E7CFD9FF1200C9
:08382800DACFE4FFE2CFDAFF82
:10383000E9CFE4FFEACFE4FFF6CFE4FFF7CFE4FF00
:10384000F5CFE4FFF3CFE4FFF4CFE4FFFACFE4FFDA
:1038500000EE00F0140EE80403E3EECFE4FFFBD724
:1038600000EE14F0080EE80403E3EECFE4FFFBD70C
:10387000E6529EA20AD09E920101512B040E515D88
:1038800004E1516B1D8084EC15F0E55200EE1BF055
:10389000080EE80403E3E5CFEDFFFBD700EE13F0DD
:1038A000140EE80403E3E5CFEDFFFBD7E5CFFAFF05
:1038B000E5CFF4FFE5CFF3FFE5CFF5FFE5CFF7FF69
:1038C000E5CFF6FFE5CFEAFFE5CFE9FFE5CFDAFF89
:0238D0001100E5
:0E38D200D9CFE6FFE1CFD9FF050EE1269EBA61
:1038E00013D00101A3510101A45D02E13BD81AD01C
:1038F0009EA818D0A451EA6A9B0FE96E010EEA2235
:10390000EF50AD6EA42B0ED0AB50020B03E1AB50C9
:10391000040B08E0AB98010EAECFDBFFAECFDBFFB0
:10392000AB881C92050EE15C02E2E16AE552E16EB1
:10393000E552E7CFD9FF1200D9CFE6FFE1CFD9FF9B
:10394000080E0101A35D0AE2A351EA6A9B0FE96E2A
:10395000010EEA22FE0EDBCFEFFFA32BE552E7CFED
:0E396000D9FF12000101A36B0101A46B12003C
:02396E0077ECF4
:103970001DF0896A8A6A8B6A8C6A8D6A010E926E62
:10398000100E936EF80E946E956A020E966E0101FB
:10399000050E4D6FA60EAC6E900EAB6E3F0EAF6E69
:1039A000B06A400EC26E0E0EC16E060EC06EF26A96
:1039B000800EF16ED08ED76AD66AD56ACC6AF90EBF
:1039C000CB6E0D0ECA6E020E9D6EF28E140E6F6ED1
:0E39D00000017C6B00017D6B00017E6B12001C
:0239DE00D9CF3F
:1039E000E6FFE1CFD9FFFE0EDB50A96EA69EA69C96
:1039F000A680A850E552E7CFD9FF1200D9CFE6FF45
:103A0000E1CFD9FFFE0EDB50A96EFD0EDB50A86E94
:103A1000A69EA69CA684F29E550EA76EAA0EA76E21
:103A2000A6820400A6B2FDD7F28EA694E552E7CF97
:043A3000D9FF1200A8
:0C3A34000101522B0A0E525D1CE1526B86
:103A40001D821D8E1D8A1E820101542B040E545DA1
:103A500002E1546B1E800101552B020E555D01E100
:103A6000556B0101532B640E535D05E1536B1FA28F
:083A700002D0F9EC16F012007F
:083A780008C012F008500D0215
:103A8000F4CF07F0F3CF06F009500E02F4CF09F09F
:103A9000F3CF08F00D02F3500726F4500822E86A2D
:103AA000092212500E02F3500726F4500822E86A49
:043AB0000922000CDB
:0C3AB400D9CFE6FFE1CFD9FFE6521D920A
:103AC000010EE66E73EC05F0E552F76A5E0FF66ED6
:103AD000360EF7220800F550DF6EFF0EDF5C02E0C5
:0E3AE000DFCF50F1E552E552E7CFD9FF1200DB
:023AEE00EA6A82
:103AF000E96A0400EE6AEAA6FCD71200000EF36E33
:103B000000EE00F0080E01D81200EA6002D0EE6A62
:0C3B1000FCD7F350E9601200EE6AFCD70D
:043B1C003F065B4FB6
:103B2000666D7D077F67777C585E79716F74061EBE
:103B3000003800545C73E7506D071C1C00766E5B08
:103B400017EE00F027EE00F0F86A019CEA6AE96AD5
:103B50000400EE6AEAA6A8EF1DF016EC05F0FDD70A
:023B6000120051
:0E3B6200056A080EE76ED890093605360E503B
:0E3B7000055C02E3056E092AE72EF7D7120066
:023B7E0054559C
:063B8000565758595A5B2C
:1049000001000000000000000000000000000000A6
:104910000000000000000000000000000000000097
:104920000000000000000000000000000000000087
:104930000000000000000000000000000000000077
:10494000534F43311C20191800000000051BB00014
:10495000534F43320204050000000000031B000017
:10496000524F45203C2F021800000000031B00009E
:10497000455320205101031500000000051B900045
:104980000300020000000100000000000000000021
:104990000000000000000000000000000000000017
:1049A0000000000000000000000000000000000007
:1049B00000000000000000000000000000000000F7
:1049C00000000000000000000000000000000000E7
:00000001FF
