:020000040000FA
:0600000000EF05F0120004
:0600080047EF10F01200AA
:060A00008FEF11F012005F
:060A080047EF10F01200A0
:060A2A00D9CFE6FFE1CF89
:100A3000D9FF060EE1260400EAEC10F0040081EC78
:100A400009F004000400F28EF28C19A606D0199663
:100A5000E66AE8EC0FF0E55226D019A807D01998FD
:100A6000200EE66EE8EC0FF0E5521DD019A004D080
:100A7000199045EC11F017D01AA004D01A9063EC2D
:100A80000CF011D019AA03D0199AEDEC0CF019AEA4
:100A900003D0199E15EC0AF01AA203D01A92A2EC08
:100AA00009F09CEC10F0CED7060EE15C02E2E16AA0
:0C0AB000E552E16EE552E7CFD9FF1200DD
:040ABC0001005C23B6
:0A0AC00000006000000012000000BA
:060ACA00D9CFE6FFE1CFE9
:100AD000D9FF0A0E126E0C6EFE0EDBCF07F0A0ECF3
:100AE00011F00350300FE66EFB0EDBCF10F0116AF1
:100AF00010BE1168FC0EDB501024E96EFD0EDB50B9
:100B00001120EA6EE552E750EF6E0A0E106E0C6E81
:100B1000FE0EDBCF07F0A0EC11F0FE0E07C0DBFFEE
:100B20000750000806E2FB0EDB06DBCF10F01034A6
:100B3000D0E3FB0EDB06DBCF10F0103411E2FB0E2E
:100B4000DBCF10F0116A10BE1168FC0EDB501024D0
:100B5000E96EFD0EDB501120EA6E200EEF6EE9D734
:100B6000E552E7CFD9FF1200D9CFE6FFE1CFD9FF99
:100B7000050EE126030EF36E040EF3CFDBFFDBCF91
:100B8000E6FFD9CFE6FFDACFE6FF00016629E66E81
:100B90009CDFE552E552E552E5520001675102E063
:100BA000410EDF6ED9CFE6FFDACFE6FF31EC0FF072
:100BB000E552E55200016551050A0CE0010A08E022
:100BC000060A04E0020A0BE1010E05D0020E03D072
:100BD000030E01D0040EE66E75EC0FF0E552050E23
:100BE000E15C02E2E16AE552E16EE552E7CFD9FF4E
:100BF0001200D9CFE6FFE1CFD9FFE150FB0FE96E3C
:100C0000FF0EDA20EA6E0101CB51EE14106ECC51CA
:100C1000EE14116ECD51EE14126ECE51EE14136E11
:100C2000E150FB0FE96EFF0EDA20EA6E1050EE186D
:100C300021E11150EE181EE11250EE181BE1135085
:100C4000EE1818E117E1D950FB0FE96EFF0EDA201C
:100C5000EA6ECF51EE14146ED051EE14156ED151D0
:100C6000EE14166ED251EE14176E145015101610A5
:100C7000171002E0000E01D0010EE552E7CFD9FFB8
:100C80001200D9CFE6FFE150FB0FE96EFF0EDA202C
:100C9000EA6E0101CB51EE14106ECC51EE14116EC0
:100CA000CD51EE14126ECE51EE14136EE150FB0FC7
:100CB000E96EFF0EDA20EA6E1050EE1808E11150CE
:100CC000EE1805E11250EE1802E11350EE1802E0A2
:100CD000000E01D0010EE552E7CFD9FF1200D9CFA7
:100CE000E6FFE1CFD9FFE150FB0FE96EFF0EDA20FE
:100CF000EA6E0101CF51EE14106ED051EE14116E58
:100D0000D151EE14126ED251EE14136EE150FB0F5E
:100D1000E96EFF0EDA20EA6E1050EE1821E1115054
:100D2000EE181EE11250EE181BE11350EE1818E1F8
:100D300017E1D950FB0FE96EFF0EDA20EA6ECB51B6
:100D4000EE14146ECC51EE14156ECD51EE14166ED9
:100D5000CE51EE14176E145015101610171002E035
:100D6000000E01D0010EE552E7CFD9FF1200D9CF16
:100D7000E6FFE1CFD9FFFD0EDBCFE6FFFE0EDBCFB6
:100D8000E6FFE66A0B0EE66E4AEC0EF0E552E5521F
:100D9000E552E552E552E7CFD9FF1200D9CFE6FF81
:100DA000E1CFD9FFE65200016051EA6AEC0FE96E2B
:100DB000010EEA22EFCFDFFF675135E1DFA806D051
:100DC000000EE66EE66A08EC0DF005D0000EE66E49
:100DD000E66A1CEC0DF0E552E552DFA606D0010EE6
:100DE000E66EE66A08EC0DF005D0010EE66EE66AE6
:100DF0001CEC0DF0E552E552DFA206D0020EE66EC5
:100E0000E66A08EC0DF005D0020EE66EE66A1CEC10
:100E10000DF0E552E552DFA43ED0030EE66EE66A21
:100E200008EC0DF03DD0DFA006D0000EE66EE66ABD
:100E300008EC0DF005D0000EE66EE66A1CEC0DF035
:100E4000E552E55200016C5106E0010EE66EE66ADD
:100E500008EC0DF005D0010EE66EE66A1CEC0DF014
:100E6000E552E552CBC110F0040E1016116A126A59
:100E7000136A105011101210131006E0020EE66EE5
:100E8000E66A08EC0DF005D0020EE66EE66A1CEC90
:100E90000DF0E552E552030EE66EE66A1CEC0DF02D
:100EA000E552E552E552E552E7CFD9FF1200D9CF1E
:100EB000E6FFE1CFD9FFE65200016051EA6AEC0F8C
:100EC000E96E010EEA22EFCFDFFF400EDF1402E0F1
:100ED0007F0E01D0000EE66E5A0EE66E48DFE55238
:100EE000E552100EDF1402E07F0E01D0000EE66E18
:100EF000580EE66E3CDFE552E552040EDF1402E0C8
:100F00007F0E01D0000EE66E560EE66E30DFE55223
:100F1000E552020EDF1402E07F0E01D0000EE66EF5
:100F2000550EE66E24DFE552E552080EDF1402E0AE
:100F30007F0E01D0000EE66E570EE66E18DFE5520A
:100F4000E552010EDF1402E07F0E01D0000EE66EC6
:100F5000540EE66E0CDFE552E552200EDF1402E07F
:100F60007F0E01D0000EE66E590EE66E00DFE552F0
:100F7000E552800EDF1402E07F0E01D0000EE66E17
:100F80005B0EE66EF4DEE552E552E552E552E7CF40
:100F9000D9FF120000016C5108E06C6B6CC0E6FFD9
:100FA000510EE66EE4DEE552E5521200D9CFE6FFBF
:100FB000E1CFD9FFFE0EDBCF65F0E552E7CFD9FFD9
:100FC0001200D9CFE6FFE1CFD9FF070EE1260001DD
:100FD00065417F0BDF6E010E6515040D010EF3CF29
:100FE000DBFFDBCF10F0DF50EA6AE80FE96E010E9D
:100FF000EA22EF5010C0E7FFE75204E0E8427F0B1F
:10100000E706FCE10F0BE76E020EE7CFDBFFDB50DC
:10101000030BE76E030EE7CFDBFF020EDB50040B82
:10102000E840E8403F0BE76E040EE7CFDBFFDBCF85
:10103000E6FF030EDB50E824E552E710040FE76EED
:10104000050EE7CFDBFF0101EB05E76E060EE7CFEC
:10105000DBFF00016051655D02E065C060F084DD8A
:101060009DDE050EDB500001635D0EE0050EDBCF5B
:1010700063F0DBCFE6FF010EE66E0C0EE66E2EECA3
:101080000EF0E552E552E552060EDB500001625DBE
:101090000DE0060EDBCF62F062C0E6FFE66A0C0EE2
:1010A000E66E2EEC0EF0E552E552E55266C061F0B8
:1010B00071DFFDDE070EE15C02E2E16AE552E16EFE
:1010C000E552E7CFD9FF1200D9CFE6FFE1CFD9FF34
:1010D000E65265C0E7F1D30EE66E010EE66E200E15
:1010E000E66EE66A00016151200DF3CF10F0F4CFF7
:1010F00011F0F3CFE6FFF4CFE6FF86EC0DF0126EB1
:10110000060EE15E1250E552E552E7CFD9FF12001C
:10111000D9CFE6FFE1CFD9FFE652D30EE66E010E3E
:10112000E66E200EE66EE66A00016651200DF3CFF2
:1011300010F0F4CF11F0F3CFE6FFF4CFE6FF39EC77
:101140000DF0126E060EE15E12500101D35129E13D
:10115000030EE66ED30EE66E010EE66E0001662902
:10116000E66EB3DCE552E552E552E5520101D76B7C
:10117000000166290101EB6F040EE76FE86BE96F70
:10118000010EEA6F050EEB6F020EEC6F060EED6FAF
:10119000010EEC6FED6F400EEE6FEF6FF06F500EC3
:1011A000F16FE7C165F0E0DCE552E552E7CFD9FF2A
:1011B0001200D9CFE6FFE1CFD9FF020EE126DF6AA8
:1011C000FE0EDB5003E1DE52100E21D0FE0EDB04DA
:1011D00003E1DE52080E1BD0FE0EDB50020803E1D5
:1011E000DE52020E14D0FE0EDB50030803E1DE5285
:1011F000040E0DD0FE0EDB50040803E1DE52010E9A
:1012000006D0FE0EDB5005082BE1DE52200EDD6E0F
:1012100000016051EA6AEC0FE96E010EEA22010E4C
:10122000DB50EF1A010EDBCFE6FF6051EA6AEC0FEC
:10123000E96E010EEA22EF50E552E71402E07F0E5C
:10124000DF6EDFCFE6FFFE0EDB50EA6AC50FE96E08
:10125000010EEA22EF50E66E8ADDE552E5529EDD90
:10126000020EE15C02E2E16AE552E16EE552E7CF8F
:10127000D9FF1200D9CFE6FFE1CFD9FFFC0EDBCFBB
:10128000E9FFFD0EDBCFEAFFEF5008E0FC0EDBCFFD
:10129000E9FFFD0EDBCFEAFFEF6A08D0FC0EDBCFE3
:1012A000E9FFFD0EDBCFEAFF7F0EEF6EFC0EDBCF1A
:1012B000E9FFFD0EDBCFEAFFEF50E66EFE0EDBCF5F
:1012C000E6FF55DDE552E552E552E7CFD9FF1200C2
:1012D000D9CFE6FFE1CFD9FFFB0EDBCF6EF0FC0EDE
:1012E000DBCF6FF0FD0EDBCF70F0FE0EDBCF71F0C9
:1012F00000013C0E686F010E696FE552E7CFD9FF20
:1013000012000101EC6B100EED6FEE6BEF6FF06BE6
:10131000F16F580EC56F570EC66F550EC76F560E3C
:10132000C86F540EC96F0001676B686B696B6D6B9A
:101330006C6B6E6B6F6B706B100E716F666BE8DEB3
:10134000E1EF07F000016851000801E2680767510A
:1013500026E06A516A2B1F0B0F080DE3020EE66EA2
:10136000E66A1CEC0DF0E552E552030EE66EE66A05
:1013700008EC0DF00CD0020EE66EE66A08EC0DF0FB
:10138000E552E552030EE66EE66A1CEC0DF0E552FE
:10139000E552200E00016A5D47E36A6B12006B5153
:1013A00043E06A516A2B1F0B0F081BE3000EE66E29
:1013B000E66A08EC0DF0E552E552010EE66EE66ACB
:1013C00008EC0DF0E552E552020EE66EE66A08EC16
:1013D0000DF0E552E552030EE66EE66A08EC0DF0FC
:1013E0001AD0000EE66EE66A1CEC0DF0E552E552EE
:1013F000010EE66EE66A1CEC0DF0E552E552020EB7
:10140000E66EE66A1CEC0DF0E552E552030EE66E60
:10141000E66A1CEC0DF0E552E552500E00016A5DE3
:1014200003E36A6B6B6BBADC1200C3EC0CF004C014
:10143000CBF105C0CCF106C0CDF107C0CEF1000163
:10144000675101E034D1E66AE66AE66A100EE66E9C
:10145000F9EC05F0E552E552E552E552000920E0CD
:101460000001605104E0E66AA1DDE5520ED066514C
:10147000615D0BE16D0EE66E000EE66E500EE66EDF
:10148000F9DEE552E552E55285DD9BDDE66AE66A66
:10149000E66A100EE66E1CDFE552E552E552E552B3
:1014A000E66AE66AE66A800EE66EF9EC05F0E55259
:1014B000E552E552E552000922E0020E0001605DAE
:1014C00005E0020EE66E72DDE5520ED06651615DFA
:1014D0000BE16D0EE66E000EE66E500EE66ECADE95
:1014E000E552E552E55256DD6CDDE66AE66AE66AEB
:1014F000800EE66EEDDEE552E552E552E552E66A13
:10150000E66AE66A400EE66EF9EC05F0E552E55251
:10151000E552E552000922E0040E0001605D05E09D
:10152000040EE66E43DDE5520ED06651615D0BE1BF
:101530006D0EE66E000EE66E500EE66E9BDEE55218
:10154000E552E55227DD3DDDE66AE66AE66A400ED1
:10155000E66EBEDEE552E552E552E552E66AE66A1F
:10156000E66A200EE66EF9EC05F0E552E552E5522A
:10157000E552000922E0050E0001605D05E0050E60
:10158000E66E14DDE5520ED06651615D0BE16D0E25
:10159000E66E000EE66E500EE66E6CDEE552E5522B
:1015A000E552F8DC0EDDE66AE66AE66A200EE66ED3
:1015B0008FDEE552E552E552E5520001695113E034
:1015C0006EC0E6FF6FC0E6FF70C0E6FF71C0E6FFC9
:1015D00041EC06F0E552E552E552E552000903E11F
:1015E0000001686B696B000169511CE06EC0E6FF89
:1015F0006FC0E6FF70C0E6FF71C0E6FF41EC06F089
:10160000E552E552E552E55200090CE0000168514F
:1016100009E1010E676FCEEC06F0B4EC05F00001B5
:10162000686B696B010EE66EE66AE66AE66AF9ECDB
:1016300005F0E552E552E552E552000903E0E66A9D
:10164000B8DDE552020EE66EE66AE66AE66AF9EC95
:1016500005F0E552E552E552E552000904E0010EBD
:10166000E66EA7DDE552040EE66EE66AE66AE66A15
:10167000F9EC05F0E552E552E552E552000904E0C7
:10168000020EE66E96DDE552080EE66EE66AE66A42
:10169000E66AF9EC05F0E552E552E552E55200093B
:1016A00001E1BBD0030EE66E84DDE552B6D0010E3B
:1016B000E66EE66AE66AE66AF9EC05F0E552E5529E
:1016C000E552E552000904E0040EE66E72DDE552D3
:1016D000020EE66EE66AE66AE66AF9EC05F0E552A5
:1016E000E552E552E55200090CE06C0EE66E000E84
:1016F000E66E510EE66EBEDDE552E552E552CEECE9
:1017000006F0040EE66EE66AE66AE66AF9EC05F0B3
:10171000E552E552E552E552000908E0D5DC00014A
:10172000010E6B6F6A6B676B4CDC0FD0040EE66EBC
:10173000E66AE66AE66A6FEC06F0E552E552E552C3
:10174000E552000902E0CEEC06F0080EE66EE66A0D
:10175000E66AE66AF9EC05F0E552E552E552E55233
:10176000000903E00001676B2CDCE66AE66AE66AC2
:10177000100EE66EF9EC05F0E552E552E552E55241
:10178000000909E0050E0001665D02E2666B02D009
:10179000050E665FBDDCE66AE66AE66A800EE66E06
:1017A000F9EC05F0E552E552E552E552000908E092
:1017B000010E0001665D02E2666B01D06607A8DCDF
:1017C000E66AE66AE66A400EE66EF9EC05F0E55276
:1017D000E552E552E552000909E0000166517E0834
:1017E00003E27F0E666F01D0662B92DCE66AE66A42
:1017F000E66A200EE66EF9EC05F0E552E552E55298
:10180000E55200090AE0000166517A0803E27F0E02
:10181000666F02D0050E66277BDCCBC1CFF1CCC151
:0C182000D0F1CDC1D1F1CEC1D2F1120047
:04182C00D9CFE6FF2B
:10183000E1CFD9FFE652FE0EDB50C26E0A0EDF6E1C
:10184000DF5002E0DF06FCD7C282C2B2FED7C4502E
:10185000E552E552E7CFD9FF1200D9CFE6FFE1CF3D
:10186000D9FFFE0EDBCFE6FFCFEC10F0E552E552DC
:10187000E7CFD9FF1200D9CFE6FFE1CFD9FFE6527B
:10188000080EDF6E898489948992FE0EDBBE02D039
:10189000899601D08986DBCFF3FFF39EF346F3CF21
:1018A000DBFF8982DF06F0E18984100EDF6EDF50F6
:1018B00002E0DF06FCD7899489868982E552E552E9
:1018C000E7CFD9FF1200D9CFE6FFE1CFD9FF040E51
:1018D000E126DE52010EDD6E030EDB6ADF6ADF50A9
:1018E000060822E3DFCFE6FF3CD8E552050EF36E93
:1018F000020EF3CFDBFFDB5003E0020EDB06FBD76B
:1019000084A209D0030EDBCFE7FF010EDB50E71204
:10191000030EE7CFDBFF010EDBCFF3FFF39EF346B1
:10192000F3CFDBFFDF2ADBD7030EDBCF4FF1010163
:101930004F9F4F4781B84F814F1D4F6F070EDF6E8E
:10194000DFCFE6FF0ED8E5521B8084A21B90040E69
:10195000E15C02E2E16AE552E16EE552E7CFD9FFD0
:101960001200D9CFE6FFE1CFD9FF8998899A8D90EF
:10197000FE0EDBB08988DBB2898ADBB48D80E5524C
:10198000E7CFD9FF1200D9CFE6FFE1CFD9FF040E90
:10199000E126DE6ADE6ADE6ADD6ADD52DD52F00EC5
:1019A00001014F15E76E030EE7CFDBFF0F0E4F155A
:1019B000DF6EDECF04F0DECF05F0DECF06F0DDCF48
:1019C00007F0DD52DD52040EE15C02E2E16AE5520D
:1019D000E16EE552E7CFD9FF12004EC1E6FF4BDFC3
:1019E000E5521200D9CFE6FFE1CFD9FF01014E6BDE
:1019F000010EF36EFD0EDB5004E0D890F336E806DE
:101A0000FCE1F35001014E13E552E7CFD9FF12007C
:101A1000D9CFE6FFE1CFD9FF010EF36EFD0EDB500B
:101A200004E0D890F336E806FCE1F35001014E13D0
:101A3000E552E7CFD9FF1200D9CFE6FFE1CFD9FFBA
:101A4000010EF36EFD0EDB5004E0D890F336E8068D
:101A5000FCE1F350106EFF0EF31801014E17E55232
:101A6000E7CFD9FF12001B50010B120001015051AA
:101A70001200D9CFE6FFE1CFD9FF030EE126DF6ADE
:101A8000FD0EDBCF06F0FE0EDBCF07F0010E06C029
:101A9000DBFF020E07C0DBFFDFCF10F0FB0EDBCF5A
:101AA00011F0FC0EDBCF12F01150105C000E12543E
:101AB00023E2010EDBCFF6FF020EDBCFF7FF000EB5
:101AC000F626400EF7220800F550E66EDF50E76E6E
:101AD000F90EDBCFE9FFFA0EDBCFEAFFE750E9268C
:101AE000000EEA22E552E750EF6EDF2A010EDB2AF4
:101AF000020ED2E3DB2AD0D7030EE15C02E2E16AF8
:101B0000E552E16EE552E7CFD9FF1200D9CFE6FFEB
:101B1000E1CFD9FF050EE126FD0EDBCF10F0FE0E62
:101B2000DBCF11F0C00E1016FF0E1116010E10C003
:101B3000DBFF020E11C0DBFFDF6A400EDF5C1DE23F
:101B4000010EDBCFF6FF020EDBCFF7FF000EF6260D
:101B5000400EF7220800F550E66EDF50EA6A070FE4
:101B6000E96E010EEA22E552E750EF6EDF2A010E20
:101B7000DB2A020EE2E3DB2AE0D7FD0EDBCF10F01A
:101B8000FE0EDBCF11F0C00E1016FF0E1116010E67
:101B900010C0DBFF020E11C0DBFFFD0EDBCF12F029
:101BA000FE0EDBCF13F0010EDB50125C106E020E46
:101BB000DB501358116E030E10C0DBFF040E11C072
:101BC000DBFFDF6ADFCF10F0FB0EDBCF11F0FC0E86
:101BD000DBCF12F01150105C000E125422E2DF50E5
:101BE000E76EF90EDBCFE9FFFA0EDBCFEAFFE75035
:101BF000E926000EEA22EF50E66E030EDBCFE9FF86
:101C0000040EDBCFEAFF070EE926010EEA22E552B9
:101C1000E750EF6EDF2A030EDB2A040ED3E3DB2A44
:101C2000D1D7FD0EDBCF05F1FE0EDBCF06F1C00EE6
:101C300001010517FF0E0617000E0527400E0623AB
:101C400019EC10F019861988050EE15C02E2E16AD0
:101C5000E552E16EE552E7CFD9FF1200D9CFE6FF9A
:101C6000E1CFD9FFFD0EDB500F0B106EFE0EDB50E7
:101C70000F0B100DF3501010E66ECFEC10F0E55284
:101C8000FC0EDBCFE6FFCFEC10F0E552E552E7CFDC
:101C9000D9FF1200D9CFE6FFE1CFD9FFFD0EDB500F
:101CA0000F0B106EFE0EDB500F0B100DF3501010CB
:101CB000E66ECFEC10F0E552FC0EDBCFE6FFCFEC8A
:101CC00010F0E552FB0EDBCFE6FFCFEC10F0E55253
:081CD000E552E7CFD9FF120035
:081CD8000101008F22D8010177
:101CE0005651040A10E0070A0CE0010A08E0030A52
:101CF00004E0010A0DE18A9A07D08B9005D08A96FC
:101D000003D08A9401D08A9256C1E6FF18D8E552D2
:101D10000101562B01014D510101565D01E3566B46
:101D200012008A908C9E8C9C8C9A8C988B948C96AA
:101D30008C948A8A8B808A868A848A821200D9CF80
:101D4000E6FFE1CFD9FFE652FE0EDB50EA6A000F54
:101D5000E96E010EEA22EFCFDFFFD9CFE9FFDACF3C
:101D6000EAFFEF50010B01E08A80D9CFE9FFDACF1B
:101D7000EAFFEF50020B01E08C8ED9CFE9FFDACFFA
:101D8000EAFFEF50040B01E08C8CD9CFE9FFDACFEA
:101D9000EAFFEF50080B01E08C8AD9CFE9FFDACFD8
:101DA000EAFFEF50100B01E08C88D9CFE9FFDACFC2
:101DB000EAFFEF50200B01E08B84D9CFE9FFDACFA7
:101DC000EAFFEF50400B01E08C86D9CFE9FFDACF74
:101DD000EAFFEF50800B01E08C84E552E552E7CF3B
:101DE000D9FF1200D9CFE6FFE1CFD9FF020EE126DD
:101DF000F29EF29C010EDB6A050EF36E010EDBCF44
:101E0000F4FFF350F45C21E2010EDB50E76EFD0EAF
:101E1000DBCFE9FFFE0EDBCFEAFFE750E926000E3D
:101E2000EA22EFCFDFFFDFCFE6FF73D8E552E66EA1
:101E3000010EDB50EA6A000FE96E010EEA22E5525C
:101E4000E750EF6E010EDB2AD7D7F28EF28C020E2E
:101E5000E15C02E2E16AE552E16EE552E7CFD9FFCB
:101E60001200D9CFE6FFE1CFD9FF020EE126F29EA4
:101E7000F29C010EDB6A040EF36E010EDBCFF4FF61
:101E8000F350F45C26E2010EDB50E76EFD0EDBCF73
:101E9000E9FFFE0EDBCFEAFFE750E926000EEA225B
:101EA000EFCFDFFFDFCFE6FF34D8E552E66E010E5D
:101EB000DBCFE6FF030EE552D880E754EA6A000F55
:101EC000E96E010EEA22E552E750EF6E010EDB2AC1
:101ED000D2D7F28EF28C020EE15C02E2E16AE552A8
:101EE000E16EE552E7CFD9FF1200D9CFE6FFE1CF8F
:101EF000D9FFF29EF29CFE0EDB50300FE66E09D841
:101F0000E5520101046FF28EF28CE552E7CFD9FF62
:101F10001200D9CFE6FFE1CFD9FF410EF36EFE0EDE
:101F2000DBCFF4FFF350F45C1AE3610EF36EFE0EA8
:101F3000DBCFF4FFF350F45C02E3610E01D0410EFD
:101F4000106EFE0EDBCFE7FF1050E75EFE0EE7CF10
:101F5000DBFFDB50F76A040FF66E230E17D0300E4E
:101F6000F36EFE0EDBCFF4FFF350F45C15E3300E9E
:101F7000106EFE0EDBCFE7FF1050E75EFE0EE7CFE0
:101F8000DBFFDB50F76AFA0FF66E220EF72208002D
:101F9000FE0EF5CFDBFF10D0FE0EDB5020080AE06E
:101FA000FE0EDB502D0806E1400EF36EFE0EF3CF61
:101FB000DBFF02D0FE0EDB6ADB50E552E7CFD9FF34
:041FC00012001200F9
:0C1FC400550EA76EAA0EA76EA682120092
:101FD000D9CFE6FFE1CFD9FFE652E00E01010517A8
:101FE000840EA66EFE0EDB50DF6EFE0EDB50200F61
:101FF000DF5C1AE2DF50EA6A070FE96E010EEA229F
:10200000EFCF10F0DF500101F76A0525F66E06519B
:10201000F722F86A10C0F5FF0C001F0EDF141F082E
:1020200001E1D0DFDF2AE1D7E552E552E7CFD9FF62
:102030001200940EA66E05C1F6FF06C1F7FFF86AFE
:10204000C1DFF86A1200D9CFE6FFE1CFD9FFA66A57
:10205000FE0EDB50A96EA680A850E552E7CFD9FF4F
:102060001200D9CFE6FFE1CFD9FFA6A202D0000E21
:102070000AD0FE0EDB50A96EFD0EDB50A86E040EDA
:0E208000A66EA0DF010EE552E7CFD9FF1200D9
:02208E00DACFA7
:10209000E4FFE2CFDAFFE9CFE4FFEACFE4FFF6CFD7
:1020A000E4FFF7CFE4FFF5CFE4FFF3CFE4FFF4CF95
:1020B000E4FFFACFE4FF00EE00F0100EE80403E3C3
:1020C000EECFE4FFFBD700EE10F0080EE80403E3C8
:1020D000EECFE4FFFBD7E6529EA20AD09E9201010A
:1020E000512B040E515D04E1516B19806CEC0EF024
:1020F000E55200EE17F0080EE80403E3E5CFEDFF2C
:10210000FBD700EE0FF0100EE80403E3E5CFEDFF80
:10211000FBD7E5CFFAFFE5CFF4FFE5CFF3FFE5CF3F
:10212000F5FFE5CFF7FFE5CFF6FFE5CFEAFFE5CF17
:08213000E9FFE5CFDAFF110021
:08213800D9CFE6FFE1CFD9FF8A
:10214000050EE1269EBA13D0010181510101825D85
:1021500002E13BD81AD09EA818D08251EA6A590FE2
:10216000E96E010EEA22EF50AD6E822B0ED0AB501D
:10217000020B03E1AB50040B08E0AB98010EAECFAD
:10218000DBFFAECFDBFFAB881892050EE15C02E20D
:10219000E16AE552E16EE552E7CFD9FF1200D9CFEF
:1021A000E6FFE1CFD9FF280E0101815D0AE28151EE
:1021B000EA6A590FE96E010EEA22FE0EDBCFEFFF4D
:1021C000812BE552E7CFD9FF12000101816B01019C
:0421D000826B12000C
:0C21D40066EC11F0896A8A6A8B6A8C6ADA
:1021E0008D6A010E926E100E936EF80E946E956AC3
:1021F000020E966E0101050E4D6FA60EAC6E900E8E
:10220000AB6E3F0EAF6EB06A400EC26E0E0EC16E68
:10221000060EC06EF26A800EF16ED08ED76AD66A54
:10222000D56ACC6AF90ECB6E0D0ECA6E020E9D6E8B
:04223000F28E120018
:0C223400D9CFE6FFE1CFD9FFFE0EDB5052
:10224000A96EA69EA69CA680A850E552E7CFD9FF0E
:102250001200D9CFE6FFE1CFD9FFFE0EDB50A96E09
:10226000FD0EDB50A86EA69EA69CA684F29E550E7F
:10227000A76EAA0EA76EA6820400A6B2FDD7F28EA4
:0A228000A694E552E7CFD9FF120043
:06228A000101522B0A0EB7
:10229000525D1BE1526B198E198A1A820101542B6F
:1022A000040E545D02E1546B1A800101552B020E9D
:1022B000555D01E1556B0101532B640E535D05E142
:0C22C000536B1BA202D0E1EC0FF01200E7
:0422CC00EA6AE96A67
:1022D0000400EE6AEAA6FCD71200000EF36E00EED0
:1022E00000F0080E01D81200EA6002D0EE6AFCD7B6
:0A22F000F350E9601200EE6AFCD71B
:0622FA003F065B4F666D1C
:102300007D077F67777C585E79716F74061E003891
:0E23100000545C73E7506D071C1C00766E5B7A
:02231E0017EEB8
:1023200000F027EE00F0F86A0F9CEA6AE96A040000
:10233000EE6AEAA697EF11F015EC05F0FDD7120052
:10234000036A080EE76ED890073603360C50035C1C
:0C23500002E3036E072AE72EF7D7120005
:04235C00FFFFFFFF81
:0E236000FF0000000000000000000000000070
:1040000045766572797468696E67205A656E00003E
:1040100000000000044051510A4141D1C1C1D1000A
:10402000536F6E67203200000000000000000000A7
:1040300000000000000044440DC1C1C1C1C1C10065
:104040005A65726F000000000000000000000000D0
:10405000000000000240626603010140405054002D
:104060004D79204865726F000000000000000000DC
:104070000000000004405162010101404040500036
:10408000427261696E737465770000000000000081
:104090000000000004401162170101404040400050
:1040A0004920416C6F6E65000000000000000000B8
:1040B00000000000004051510119014040405000F3
:1040C000427564647920486F6C6C790000000000D0
:1040D00000000000044051620501014040405000D2
:1040E00043756D626572736F6D65000000000000BE
:1040F00000000000044051510101014040405000C7
:104100004D616368696E6568656164000000000068
:104110000000000004405111140101C1C1C1D100CF
:10412000506C757368000000000000000000000083
:104130000000000004405162060999C8D8C8D800A0
:10414000486F6C69646179000000000000000000A5
:104150000000000004405162150101404040500041
:104160004D6F6E6B65797772656E63680000000055
:104170000000000004405162010101404040500035
:104180004C756D7000000000000000000000000091
:104190000000000004405151010101404040400036
:1041A000426F756E6420666F722074686520466C7D
:1041B0006F6F7200024011511901014040585000C8
:1041C000436F756E74696E6720426C75652043613C
:1041D0007273000004406262101919404050500090
:1041E000486173682050697065000000000000009D
:1041F00000000000044051621201014040405000A4
:10420000496E20426C6F6F6D0000000000000000DE
:1042100000000000000044440DC1C1C1C1C1C10083
:104220005768656E204920436F6D652041726F7538
:104230006E640000044051620101014040405000A2
:104240005365782054797065205468696E67000062
:104250000000000004405162010101404040500054
:10426000486579204A65616C6F75737900000000BC
:104270000000000004405151010101404040500045
:10428000436C6F73696E672054696D6500000000B0
:104290000000000004405151160101405040500000
:1042A000456E7465722053616E646D616E0000002E
:1042B00000000000004051620B01014040405000EE
:1042C00000000000000000000000000000000000EE
:1042D00000000000000000000000000000000000DE
:1042E00000000000000000000000000000000000CE
:1042F00000000000000000000000000000000000BE
:00000001FF
