:020000040000FA
:0600000000EF05F0120004
:06000800EDEF17F01200FD
:060A00005BEF19F012008B
:060A0800EDEF17F01200F3
:060A2A001200D9CFE6FF27
:100A3000E1CFD9FF060EE126040090EC18F0040087
:100A400026EC09F004000400F28EF28C3ED819A6C0
:100A500006D01996E66A8EEC17F0E5522BD019A84D
:100A600007D01998200EE66E8EEC17F0E55222D0D2
:100A700019A203D015EC19F01DD019A004D01990BB
:100A8000F3EC18F017D01AA004D01A9095EC0FF0E0
:100A900011D019AA03D0199A1FEC10F019AE03D087
:100AA000199EBAEC09F01AA203D01A9247EC09F089
:100AB00042EC18F0C8D7060EE15C02E2E16AE552AA
:100AC000E16EE552E7CFD9FF120095EC0EF06FBE54
:080AD00002D0B1EC0EF012009F
:080AD8000100F432000071007E
:060AE00000000F00000001
:0A0AE600D9CFE6FFE1CFD9FF060EDD
:100AF000E126030EF36E040EF3CFDBFF0001742931
:100B0000E76E050EE7CFDBFF0A0E126E0C6E050EC8
:100B1000DBCF07F06CEC19F00350300FE66EDACF44
:100B200011F0040EDBCFF3FFDB06F3500F01D924E5
:100B3000E96E000EDA20EA6EE552E750EF6E0A0E1B
:100B4000106E0C6E050EDBCF07F06CEC19F0050E85
:100B500007C0DBFF07500008D7E3040EDB50000896
:100B60000DE2040EDB500F01D924E96E000EDA20ED
:100B7000EA6E200EEF6E040EDB06EFD7D9CF10F031
:100B8000DACF11F0040EDB500F01D924E96E000E0C
:100B9000DA20EA6E200EEF6E0001755102E0410E80
:100BA000DF6ED9CFE6FFDACFE6FF63EC12F0E55255
:100BB000E55200017329E66EA7EC12F0E552060E2D
:100BC000E15C02E2E16AE552E16EE552E7CFD9FF6E
:100BD0001200D9CFE6FFE1CFD9FFE150FB0FE96E5C
:100BE000FF0EDA20EA6E0101CB51EE14106ECC51EB
:100BF000EE14116ECD51EE14126ECE51EE14136E32
:100C0000E150FB0FE96EFF0EDA20EA6E1050EE188D
:100C100021E11150EE181EE11250EE181BE11350A5
:100C2000EE1818E117E1D950FB0FE96EFF0EDA203C
:100C3000EA6ECF51EE14146ED051EE14156ED151F0
:100C4000EE14166ED251EE14176E145015101610C5
:100C5000171002E0000E01D0010EE552E7CFD9FFD8
:100C60001200D9CFE6FFE150FB0FE96EFF0EDA204C
:100C7000EA6E0101CB51EE14106ECC51EE14116EE0
:100C8000CD51EE14126ECE51EE14136EE150FB0FE7
:100C9000E96EFF0EDA20EA6E1050EE1808E11150EE
:100CA000EE1805E11250EE1802E11350EE1802E0C2
:100CB000000E01D0010EE552E7CFD9FF1200D9CFC7
:100CC000E6FFE1CFD9FFE150FB0FE96EFF0EDA201E
:100CD000EA6E0101CF51EE14106ED051EE14116E78
:100CE000D151EE14126ED251EE14136EE150FB0F7F
:100CF000E96EFF0EDA20EA6E1050EE1821E1115075
:100D0000EE181EE11250EE181BE11350EE1818E118
:100D100017E1D950FB0FE96EFF0EDA20EA6ECB51D6
:100D2000EE14146ECC51EE14156ECD51EE14166EF9
:100D3000CE51EE14176E145015101610171002E055
:100D4000000E01D0010EE552E7CFD9FF1200D9CF36
:100D5000E6FFE1CFD9FFFD0EDBCFE6FFFE0EDBCFD6
:100D6000E6FFE66A0B0EE66E7CEC11F0E552E5520A
:100D7000E552E552E552E7CFD9FF1200D9CFE6FFA1
:100D8000E1CFD9FFE65200017151EA6AE70FE96E3F
:100D9000010EEA22EFCFDFFF755135E1DFA806D063
:100DA000000EE66EE66A3AEC10F005D0000EE66E34
:100DB000E66A4EEC10F0E552E552DFA606D0010ED1
:100DC000E66EE66A3AEC10F005D0010EE66EE66AD1
:100DD0004EEC10F0E552E552DFA206D0020EE66EB0
:100DE000E66A3AEC10F005D0020EE66EE66A4EECCA
:100DF00010F0E552E552DFA43ED0030EE66EE66A3F
:100E00003AEC10F03DD0DFA006D0000EE66EE66AA8
:100E10003AEC10F005D0000EE66EE66A4EEC10F0EB
:100E2000E552E55200017A5106E0010EE66EE66AEF
:100E30003AEC10F005D0010EE66EE66A4EEC10F0CA
:100E4000E552E552CBC110F0040E1016116A126A79
:100E5000136A105011101210131006E0020EE66E05
:100E6000E66A3AEC10F005D0020EE66EE66A4EEC49
:100E700010F0E552E552030EE66EE66A4EEC10F015
:100E8000E552E552E552E552E7CFD9FF1200D9CF3E
:100E9000E6FFE1CFD9FFE65200017151EA6AE70FA0
:100EA000E96E010EEA22EFCFDFFF400EDF1402E011
:100EB0007F0E01D0000EE66E5A0EE66E48DFE55258
:100EC000E552100EDF1402E07F0E01D0000EE66E38
:100ED000580EE66E3CDFE552E552040EDF1402E0E8
:100EE0007F0E01D0000EE66E560EE66E30DFE55244
:100EF000E552020EDF1402E07F0E01D0000EE66E16
:100F0000550EE66E24DFE552E552080EDF1402E0CE
:100F10007F0E01D0000EE66E570EE66E18DFE5522A
:100F2000E552010EDF1402E07F0E01D0000EE66EE6
:100F3000540EE66E0CDFE552E552200EDF1402E09F
:100F40007F0E01D0000EE66E590EE66E00DFE55210
:100F5000E552800EDF1402E07F0E01D0000EE66E37
:100F60005B0EE66EF4DEE552E552E552E552E7CF60
:100F7000D9FF120000017A5108E07A6B7AC0E6FFCF
:100F8000510EE66EE4DEE552E5521200D9CFE6FFDF
:100F9000E1CFD9FFFE0EDBCF73F0E552E7CFD9FFEB
:100FA000120000017151735D04E17251745D01E141
:100FB00012007151735D15E073C071F07151EA6AEE
:100FC000ED0FE96E010EEA22EF507F0B040FE66E83
:100FD000010EE66E0C0EE66E60EC11F0E552E55285
:100FE000E55200017251745D0CE074C072F074C07F
:100FF000E6FFE66A0C0EE66E60EC11F0E552E55293
:10100000E552B8DF44DF6FDDBEEF06F0D9CFE6FF73
:10101000E1CFD9FFE652DF6A060EDF5C1DE2DF504A
:101020000001715D02E1800E01D0000E106EDF50F4
:10103000EA6AED0FE96E010EEA22EF507F0B101005
:10104000E66EDF50EA6AED0FE96E010EEA22E55224
:10105000E750EF6EDF2AE0D7D30EE66E010EE66EA4
:10106000200EE66EE66A00017251200DF3CF10F0FB
:10107000F4CF11F0F3CFE6FFF4CFE6FFB8EC10F0B9
:10108000126E060EE15E1250E552E552E7CFD9FF2F
:101090001200D9CFE6FFE1CFD9FFE652D30EE66EBC
:1010A000010EE66E200EE66EE66A00017451200D18
:1010B000F3CF10F0F4CF11F0F3CFE6FFF4CFE6FF5B
:1010C0006BEC10F0126E060EE15E1250DF6A060E37
:1010D000DF5C0EE2DF50EA6AED0FE96E010EEA22F4
:1010E000EF50800B03E0DFCF73F002D0DF2AEFD7A1
:1010F000FADCE552E552E7CFD9FF1200D9CFE6FF7F
:10110000E1CFD9FF020EE126DF6AFE0EDB5003E1DC
:10111000DE52100E21D0FE0EDB0403E1DE52080E7B
:101120001BD0FE0EDB50020803E1DE52020E14D08B
:10113000FE0EDB50030803E1DE52040E0DD0FE0E5E
:10114000DB50040803E1DE52010E06D0FE0EDB5038
:1011500005082BE1DE52200EDD6E00017151EA6AB6
:10116000E70FE96E010EEA22010EDB50EF1A010EC5
:10117000DBCFE6FF7151EA6AE70FE96E010EEA2262
:10118000EF50E552E71402E07F0EDF6EDFCFE6FF9F
:10119000FE0EDB50EA6AC50FE96E010EEA22EF503F
:1011A000E66ED5DDE552E552E9DD020EE15C02E2D4
:1011B000E16AE552E16EE552E7CFD9FF1200D9CFDF
:1011C000E6FFE1CFD9FFFC0EDBCFE9FFFD0EDBCF61
:1011D000EAFFEF5008E0FC0EDBCFE9FFFD0EDBCFAE
:1011E000EAFFEF6A08D0FC0EDBCFE9FFFD0EDBCF94
:1011F000EAFF7F0EEF6EFC0EDBCFE9FFFD0EDBCFCB
:10120000EAFFEF50E66EFE0EDBCFE6FFA0DDE55213
:10121000E552E552E7CFD9FF1200D9CFE6FFE1CF83
:10122000D9FFFB0EDBCF7CF0FC0EDBCF7DF0FD0E9B
:10123000DBCF7EF0FE0EDBCF7FF000013C0E766F41
:10124000010E776FE552E7CFD9FF12000101E76B7E
:10125000100EE86FE96BEA6FEB6BEC6F580EC56F21
:10126000570EC66F550EC76F560EC86F540EC96F16
:101270000001756B766B776B7B6B7A6B7C6B7D6B30
:101280007E6B100E7F6F726B04DFD1EF07F00001F1
:101290007651000801E27607755126E07851782BE7
:1012A0001F0B0F080DE3020EE66EE66A4EEC10F01F
:1012B000E552E552030EE66EE66A3AEC10F00CD009
:1012C000020EE66EE66A3AEC10F0E552E552030EC5
:1012D000E66EE66A4EEC10F0E552E552200E000193
:1012E000785D47E3786B1200795143E07851782BB1
:1012F0001F0B0F081BE3000EE66EE66A3AEC10F0D7
:10130000E552E552010EE66EE66A3AEC10F0E5525F
:10131000E552020EE66EE66A3AEC10F0E552E5524E
:10132000030EE66EE66A3AEC10F01AD0000EE66E96
:10133000E66A4EEC10F0E552E552010EE66EE66A02
:101340004EEC10F0E552E552020EE66EE66A4EEC07
:1013500010F0E552E552030EE66EE66A4EEC10F030
:10136000E552E552500E0001785D03E3786B796B2E
:1013700005DD1200F5EC0FF004C0CBF105C0CCF197
:1013800006C0CDF107C0CEF10001755101E032D1A8
:10139000E66AE66AE66A100EE66E1BDCE552E55286
:1013A000E552E552000920E00001715104E0E66ACF
:1013B000EDDDE5520ED07451725D0BE17B0EE66EF1
:1013C000000EE66E500EE66EFADEE552E552E5528C
:1013D000D1DDE7DDE66AE66AE66A100EE66E1DDF3D
:1013E000E552E552E552E552E66AE66AE66A800EA3
:1013F000E66EE9EC05F0E552E552E552E5520009EA
:1014000022E0020E0001715D05E0020EE66EBEDD17
:10141000E5520ED07451725D0BE17B0EE66E000E4C
:10142000E66E500EE66ECBDEE552E552E552A2DDE9
:10143000B8DDE66AE66AE66A800EE66EEEDEE55242
:10144000E552E552E552E66AE66AE66A400EE66E65
:10145000E9EC05F0E552E552E552E552000922E0DB
:10146000040E0001715D05E0040EE66E8FDDE552AD
:101470000ED07451725D0BE17B0EE66E000EE66ECF
:10148000500EE66E9CDEE552E552E55273DD89DDD5
:10149000E66AE66AE66A400EE66EBFDEE552E552AF
:1014A000E552E552E66AE66AE66A200EE66EE9EC87
:1014B00005F0E552E552E552E552000922E0050E3D
:1014C0000001715D05E0050EE66E60DDE5520ED0AF
:1014D0007451725D0BE17B0EE66E000EE66E500EEF
:1014E000E66E6DDEE552E552E55244DD5ADDE66A10
:1014F000E66AE66A200EE66E90DEE552E552E552B7
:10150000E5520001775113E07CC0E6FF7DC0E6FFA5
:101510007EC0E6FF7FC0E6FF31EC06F0E552E55203
:10152000E552E552000903E10001766B776B00019B
:1015300077511BE07CC0E6FF7DC0E6FF7EC0E6FF82
:101540007FC0E6FF31EC06F0E552E552E552E55288
:1015500000090BE00001765108E1010E756F0EDC09
:1015600073EC05F00001766B776B010EE66EE66AB0
:10157000E66AE66AE9EC05F0E552E552E552E55225
:10158000000903E0E66ABADDE552020EE66EE66A9D
:10159000E66AE66AE9EC05F0E552E552E552E55205
:1015A000000904E0010EE66EA9DDE552040EE66EC8
:1015B000E66AE66AE66AE9EC05F0E552E552E552CC
:1015C000E552000904E0020EE66E98DDE552080ED1
:1015D000E66EE66AE66AE66AE9EC05F0E552E5528F
:1015E000E552E552000901E1BBD0030EE66E86DD4F
:1015F000E552B6D0010EE66EE66AE66AE66AE9EC06
:1016000005F0E552E552E552E552000904E0040E0A
:10161000E66E74DDE552020EE66EE66AE66AE66A9A
:10162000E9EC05F0E552E552E552E55200090CE01F
:101630007A0EE66E000EE66E510EE66EC0DDE552E5
:10164000E552E552BEEC06F0040EE66EE66AE66A86
:10165000E66AE9EC05F0E552E552E552E55200098B
:1016600008E0D4DC0001010E796F786B756B99DCB2
:101670000FD0040EE66EE66AE66AE66A5FEC06F0F4
:10168000E552E552E552E552000902E0BEEC06F0F3
:10169000080EE66EE66AE66AE66AE9EC05F0E552EF
:1016A000E552E552E552000903E00001756B79DC73
:1016B000E66AE66AE66A100EE66EE9EC05F0E552C7
:1016C000E552E552E552000909E0050E0001745D9E
:1016D00002E2746B02D0050E745FDBDCE66AE66A38
:1016E000E66A800EE66EE9EC05F0E552E552E55259
:1016F000E552000908E0010E0001745D02E2746B1E
:1017000001D07407C6DCE66AE66AE66A400EE66E59
:10171000E9EC05F0E552E552E552E552000909E031
:10172000000174517E0803E27F0E746F01D0742BA8
:10173000B0DCE66AE66AE66A200EE66EE9EC05F0E1
:10174000E552E552E552E55200090AE00001745104
:101750007A0803E27F0E746F02D0050E742799DCBD
:10176000CBC1CFF1CCC1D0F1CDC1D1F1CEC1D2F13D
:02177000120065
:0E17720004011051600BE842E842E842E842F0
:10178000E842000901E012001151070A48E00B0A83
:1017900046E0070A37E0010A25E00B0A21E0020AC9
:1017A0001FE0030A1BE0080A11E0010A0DE00F0A1E
:1017B00009E0030A01E012000001010E656F040E4A
:1017C000606F120010EF0CF06DEF0CF00001010ED5
:1017D000656F620E666F000E676F10D092EF0CF0AF
:1017E000D9EF0CF00001010E656F040114510001E6
:1017F000666F676B630E6627000E67236193010EA9
:101800006A6F12000001010E656F04011451EA6A4B
:10181000630FE96E000EEA2212C4EFFF12001200FD
:10182000800E0401105D58E11351030A2FE0010AF4
:101830000BE0030A48E10001010E656FE80E666FD8
:101840002C0E676F120E3DD00001010E656F040172
:101850001251F66EF76AD890F636F736020EF62673
:101860002E0EF7220900F5CF66F00A00F5CF67F0DB
:10187000020E0001F76A6625F66E6751F72209002D
:10188000F5CF6AF00A00F5CF6BF01DD00001010E14
:10189000656F04011251F66EF76AD890F636F73686
:1018A000060EF6262E0EF7220900F5CF66F00A0086
:1018B000F5CF67F066C0F6FF67C0F7FF0800F55088
:1018C00000016A6F6B6B020E0401125D05E0030EEE
:1018D000125D02E00001618312000001010E656FDC
:1018E0000F0EE66E710EE66E0F0EE66EBCDAE55276
:1018F000E552E552010EE66E630EE66E000EE66EF0
:10190000B2DAE552E552E55212C462F00401125116
:1019100004E10001050E606F12000001060E606F09
:10192000E5EF15F00401506B516B10511F0B020ACB
:1019300013E0030A0DE0010A31E10001010E656FB9
:1019400004015081000161A129D00401508326D0F7
:101950000001010E656F22D00001010E656F0401C8
:1019600014510F0B080DF350116A000F106E040E86
:1019700011221451800B01E0010E040DF3500001FF
:101980001024686F000E1120696F68C0E9FFEA6ECD
:10199000EF50040B03E00401010E506F00016505D8
:1019A00007E1500E666F040E676F6193020E6A6F57
:1019B00012000401120510E110511F0B00090CE187
:1019C0000001010E656F030E0401115D03E10001CA
:1019D000618102D000016191040112513AE110517C
:1019E0001F0B020836E114510F0B000932E0000111
:1019F000010E656F040114510F0B080DF350116AAD
:101A0000000F106E040E11221451800B01E0010E24
:101A1000040DF35000011024686F000E1120696F4F
:101A2000030E0401115D07E1840E68C0E9FF69C07F
:101A3000EAFFEF6E120014AF06D068C0E9FF69C07C
:101A4000EAFFEF6A1200880E68C0E9FF69C0EAFF8A
:101A5000EF6E12006C500BE1040100513C0BE842A8
:101A6000E8420D0802E13CEF0DF070EF0DF0040EBE
:101A70006C5C01E144D81200D9CFE6FFE1CFD9FF79
:101A8000E6520001646B656B6A6B6B6B72DEDF6A3A
:101A9000DF50106E116A010E105C000E11581AE230
:101AA0000001655117E1F76ADF34FE0BF736F66E79
:101AB0000E0EF6262E0EF7220900F5CF10F00800C4
:101AC000F5CF11F004D011C0FAFF1050F96EFBDF12
:101AD000DF2ADED7DBD8E552E552E7CFD9FF120087
:101AE000020E0001645D09E194D8040100BD02D03A
:101AF000C80E01D0880E006F120088EF0EF0040EA1
:101B00000001605D09E112C46EFF6E50000802E240
:101B1000050E01D0030E606F640509E110D80401C1
:101B200004BD02D0C80E01D0880E046F1200090E49
:101B30000401115D02E114EC13F088EF0EF0D9CF2F
:101B4000E6FFE1CFD9FF020EE1260001400E6A5DFB
:101B5000000E6B5905E26AC0DEFF6BC0DDFF03D0EB
:101B6000400EDE6EDD6A040104930491010EDB5029
:101B70000413DFCF05F4000EDB5000016A5F010E95
:101B8000DB506B5B500E686F040E696F61A31CD055
:101B9000D9CFE9FFDACFEAFFEE50ED1030E066C0B2
:101BA000F6FF67C0F7FF0800F55068C0E9FF69C09D
:101BB000EAFFEF6E682B000E6923662B6723DF06B2
:101BC000010EE6E2DB06E4D7D9CFE9FFDACFEAFF80
:101BD000EE50ED1014E066C0E9FF67C0EAFFEF5079
:101BE00068C0E9FF69C0EAFFEF6E682B000E692349
:101BF000662B6723DF06010EE7E2DB06E5D7020E60
:101C0000E15C02E2E16AE552E16EE552E7CFD9FF1D
:101C10001200D9CFE6FFE1CFD9FF020EE126030E75
:101C200004010015E76E010EE7CFDBFF01C4DFFF03
:101C3000DE5000016A27DD506B23500E666F040EE4
:101C4000676FD9CFE9FFDACFEAFFEE50ED1014E06D
:101C500066C0E9FF67C0EAFFEF5068C0E9FF69C0EE
:101C6000EAFFEF6E682B000E6923662B6723DF0601
:101C7000010EE7E2DB06E5D7020EE15C02E2E16A73
:101C8000E552E16EE552E7CFD9FF12000001655140
:101C90000AE10401400E016F100E026F040E036F83
:101CA000840E006F22D0040110AF21D000016A51D0
:101CB0000401165D00016B510401175904E216C4BA
:101CC0006AF017C46BF03BDF0001010E646F040182
:101CD000400E016F100E026F040E036F800E006F36
:101CE000500E066F040E076FC80E046F0FD0000170
:101CF000020E646F0401056BC80E046F400E016F85
:101D0000500E026F040E036FC80E006F6D98120024
:101D10000001646B0401400E016F100E026F040E8F
:101D2000036F880E006F046B12006DA60CD80001C3
:101D3000600508E16DBA06D0686A696A69806988D9
:101D4000020E606F12006D6A696A6D860001010EF5
:101D5000606F12006D6A696A0001606B1200AAEF81
:101D60000EF00001605101E112006850040B04E024
:101D70006950040B01E038D86DB212006850010BB5
:101D800004E06950010B01E04FD86850100B04E0EB
:101D90006950100B01E023D86850400B04E06950F3
:101DA000400B01E037D86850200B04E06950200B4D
:101DB00001E032D86850020B04E06950020B01E0E8
:101DC00031D8030E0001605D01E212006850080B7B
:101DD00005E06950080B02E03DDE68961200698458
:101DE00068986D82A19A12006D92699468941200AD
:101DF000000161A10ED0F8DF6D840001080E6C6F48
:101E0000070E6D6F6C07000E6D5B6C516D11FAE182
:101E10006D941200689C120070A002D079DF70905F
:101E2000689A1200689212006A6A686A9F0E6B6E66
:101E30007B0E696E6E6A0F0EE66E710EE66E0F0E09
:101E4000E66E11D8E552E552E552160E706E68A6A0
:101E500002D06896FCD76D985BDF00016191626BE0
:101E6000030E606F1200D9CFE6FFE1CFD9FFFD0E60
:101E7000DBCFE9FFFE0EDBCFEAFFFC0EDB5004E018
:101E8000EE6AFC0EDB06F9D7E552E7CFD9FF120068
:101E9000D9CFE6FFE1CFD9FFE652FE0EDB50C26E8E
:101EA0000A0EDF6EDF5002E0DF06FCD7C282C2B24C
:101EB000FED7C450E552E552E7CFD9FF1200D9CF83
:101EC000E6FFE1CFD9FFFE0EDBCFE6FF75EC18F0A1
:101ED000E552E552E7CFD9FF1200D9CFE6FFE1CFB7
:101EE000D9FFE652080EDF6E898489948992FE0E2E
:101EF000DBBE02D0899601D08986DBCFF3FFF39E4B
:101F0000F346F3CFDBFF8982DF06F0E18984100E10
:101F1000DF6EDF5002E0DF06FCD789948986898274
:101F2000E552E552E7CFD9FF1200D9CFE6FFE1CF66
:101F3000D9FF040EE126DE52010EDD6E030EDB6AD0
:101F4000DF6ADF50060822E3DFCFE6FF3CD8E55228
:101F5000050EF36E020EF3CFDBFFDB5003E0020E43
:101F6000DB06FBD784A209D0030EDBCFE7FF010E0F
:101F7000DB50E712030EE7CFDBFF010EDBCFF3FFF1
:101F8000F39EF346F3CFDBFFDF2ADBD7030EDBCF75
:101F90004FF101014F9F4F4781B84F814F1D4F6F48
:101FA000070EDF6EDFCFE6FF0ED8E5521B8084A25E
:101FB0001B90040EE15C02E2E16AE552E16EE5523B
:101FC000E7CFD9FF1200D9CFE6FFE1CFD9FF89983B
:101FD000899A8D90FE0EDBB08988DBB2898ADBB4EA
:101FE0008D80E552E7CFD9FF1200D9CFE6FFE1CFD0
:101FF000D9FF040EE126DE6ADE6ADE6ADD6ADD52A2
:10200000DD52F00E01014F15E76E030EE7CFDBFF47
:102010000F0E4F15DF6EDECF04F0DECF05F0DECF02
:1020200006F0DDCF07F0DD52DD52040EE15C02E286
:10203000E16AE552E16EE552E7CFD9FF12004EC1E9
:10204000E6FF4BDFE5521200D9CFE6FFE1CFD9FF23
:1020500001014E6B010EF36EFD0EDB5004E0D890D3
:10206000F336E806FCE1F35001014E13E552E7CFE9
:10207000D9FF1200D9CFE6FFE1CFD9FF010EF36EF1
:10208000FD0EDB5004E0D890F336E806FCE1F35097
:1020900001014E13E552E7CFD9FF1200D9CFE6FF79
:1020A000E1CFD9FF010EF36EFD0EDB5004E0D890B6
:1020B000F336E806FCE1F350106EFF0EF318010151
:1020C0004E17E552E7CFD9FF12001B50010B12004B
:1020D000010150511200D9CFE6FFE1CFD9FF030E25
:1020E000E126DF6AFD0EDBCF06F0FE0EDBCF07F048
:1020F000010E06C0DBFF020E07C0DBFFDFCF10F0D2
:10210000FB0EDBCF11F0FC0EDBCF12F01150105C98
:10211000000E125423E2010EDBCFF6FF020EDBCFDE
:10212000F7FF000EF626400EF7220800F550E66E87
:10213000DF50E76EF90EDBCFE9FFFA0EDBCFEAFFE7
:10214000E750E926000EEA22E552E750EF6EDF2A5B
:10215000010EDB2A020ED2E3DB2AD0D7030EE15CAC
:1021600002E2E16AE552E16EE552E7CFD9FF1200E3
:10217000D9CFE6FFE1CFD9FF050EE126FD0EDBCF7B
:1021800010F0FE0EDBCF11F0C00E1016FF0E111670
:10219000010E10C0DBFF020E11C0DBFFDF6A400E34
:1021A000DF5C1DE2010EDBCFF6FF020EDBCFF7FF97
:1021B000000EF626400EF7220800F550E66EDF50BE
:1021C000EA6A070FE96E010EEA22E552E750EF6E68
:1021D000DF2A010EDB2A020EE2E3DB2AE0D7FD0E46
:1021E000DBCF10F0FE0EDBCF11F0C00E1016FF0E8D
:1021F0001116010E10C0DBFF020E11C0DBFFFD0E39
:10220000DBCF12F0FE0EDBCF13F0010EDB50125CC1
:10221000106E020EDB501358116E030E10C0DBFF60
:10222000040E11C0DBFFDF6ADFCF10F0FB0EDBCF47
:1022300011F0FC0EDBCF12F01150105C000E1254A6
:1022400022E2DF50E76EF90EDBCFE9FFFA0EDBCFBB
:10225000EAFFE750E926000EEA22EF50E66E030E91
:10226000DBCFE9FF040EDBCFEAFF070EE926010E04
:10227000EA22E552E750EF6EDF2A030EDB2A040E56
:10228000D3E3DB2AD1D7FD0EDBCF05F1FE0EDBCF8A
:1022900006F1C00E01010517FF0E0617000E0527F7
:1022A000400E0623BFEC17F019861988050EE15C75
:1022B00002E2E16AE552E16EE552E7CFD9FF120092
:1022C000D9CFE6FFE1CFD9FFFD0EDB500F0B106E2B
:1022D000FE0EDB500F0B100DF3501010E66E75EC78
:1022E00018F0E552FC0EDBCFE6FF75EC18F0E55276
:1022F000E552E7CFD9FF1200D9CFE6FFE1CFD9FFF2
:10230000FD0EDB500F0B106EFE0EDB500F0B100D91
:10231000F3501010E66E75EC18F0E552FC0EDBCFB2
:10232000E6FF75EC18F0E552FB0EDBCFE6FF75EC2F
:0C23300018F0E552E552E7CFD9FF12008B
:04233C000101008F0C
:1023400022D801015651040A10E0070A0CE0010AE4
:1023500008E0030A04E0010A0DE18A9A07D08B9095
:1023600005D08A9603D08A9401D08A9256C1E6FF9E
:1023700018D8E5520101562B01014D510101565D5E
:1023800001E3566B12008A908C9E8C9C8C9A8C98E0
:102390008B948C968C948A8A8B808A868A848A8293
:1023A0001200D9CFE6FFE1CFD9FFE652FE0EDB5097
:1023B000EA6A000FE96E010EEA22EFCFDFFFD9CF04
:1023C000E9FFDACFEAFFEF50010B01E08A80D9CFB5
:1023D000E9FFDACFEAFFEF50020B01E08C8ED9CF94
:1023E000E9FFDACFEAFFEF50040B01E08C8CD9CF84
:1023F000E9FFDACFEAFFEF50080B01E08C8AD9CF72
:10240000E9FFDACFEAFFEF50100B01E08C88D9CF5B
:10241000E9FFDACFEAFFEF50200B01E08B84D9CF40
:10242000E9FFDACFEAFFEF50400B01E08C86D9CF0D
:10243000E9FFDACFEAFFEF50800B01E08C84E55230
:10244000E552E7CFD9FF1200D9CFE6FFE1CFD9FFA0
:10245000020EE126F29EF29C010EDB6A050EF36E7F
:10246000010EDBCFF4FFF350F45C21E2010EDB50F0
:10247000E76EFD0EDBCFE9FFFE0EDBCFEAFFE75094
:10248000E926000EEA22EFCFDFFFDFCFE6FF73D8A9
:10249000E552E66E010EDB50EA6A000FE96E010EAE
:1024A000EA22E552E750EF6E010EDB2AD7D7F28E13
:1024B000F28C020EE15C02E2E16AE552E16EE55265
:1024C000E7CFD9FF1200D9CFE6FFE1CFD9FF020E47
:1024D000E126F29EF29C010EDB6A040EF36E010E01
:1024E000DBCFF4FFF350F45C26E2010EDB50E76E25
:1024F000FD0EDBCFE9FFFE0EDBCFEAFFE750E9265A
:10250000000EEA22EFCFDFFFDFCFE6FF34D8E5523F
:10251000E66E010EDBCFE6FF030EE552D880E754EE
:10252000EA6A000FE96E010EEA22E552E750EF6E0B
:10253000010EDB2AD2D7F28EF28C020EE15C02E2AF
:10254000E16AE552E16EE552E7CFD9FF1200D9CF3B
:10255000E6FFE1CFD9FFF29EF29CFE0EDB50300F7A
:10256000E66E09D8E5520101046FF28EF28CE55255
:10257000E7CFD9FF1200D9CFE6FFE1CFD9FF410E57
:10258000F36EFE0EDBCFF4FFF350F45C1AE3610E42
:10259000F36EFE0EDBCFF4FFF350F45C02E3610E4A
:1025A00001D0410E106EFE0EDBCFE7FF1050E75E4C
:1025B000FE0EE7CFDBFFDB50F76A9C0FF66E320EA4
:1025C00017D0300EF36EFE0EDBCFF4FFF350F45C49
:1025D00015E3300E106EFE0EDBCFE7FF1050E75E06
:1025E000FE0EE7CFDBFFDB50F76A920FF66E320E7E
:1025F000F7220800FE0EF5CFDBFF10D0FE0EDB50F9
:1026000020080AE0FE0EDB502D0806E1400EF36EB6
:10261000FE0EF3CFDBFF02D0FE0EDB6ADB50E5528D
:08262000E7CFD9FF1200120000
:0826280018883FEC14F018982B
:10263000120018883FEC14F00001020E656F0001D3
:10264000500E666F040E676F0001619318981200B8
:10265000D9CFE6FFE1CFD9FF040EE126DE52010E0D
:10266000DD6EF3C1E6FF50EC15F0E5520101F351C8
:10267000300A6DE0010A37E0030A01E078D0010E6C
:10268000E66E50EC15F0E5524BC1E6FF50EC15F04C
:10269000E5524CC1E6FF50EC15F0E552000E010189
:1026A0004B25106E400E4C21116E020E10C0DBFF48
:1026B000030E11C0DBFFDF6A200EDF5C66E2DF5035
:1026C000E76E020EDBCFF6FF030EDBCFF7FFE7501E
:1026D000F626000EF7220800F550E66E50EC15F0D5
:1026E000E552DF2AE9D7010EE66E50EC15F0E5520F
:1026F0004BC1E6FF50EC15F0E5524CC1E6FF50EC43
:1027000015F0E552000E01014B25106E400E4C21D4
:10271000116E020E10C0DBFF030E11C0DBFFDF6A7B
:10272000200EDF5C32E2DF50E76E020EDBCFF6FFF9
:10273000030EDBCFF7FFE750F626000EF722080066
:10274000F550E66E50EC15F0E552DF2AE9D7010EA0
:10275000E66E50EC15F0E5524BC1E6FF50EC15F07B
:10276000E5524CC1E6FF50EC15F0E5520ED0E66A9A
:1027700050EC15F0E552DF6A3E0EDF5C06E2E668DB
:1027800050EC15F0E552DF2AF7D7400E0101835DCA
:1027900007E2E66A50EC15F0E5520101832BF5D70C
:1027A000010EDB50106E040EE15C02E2E16AE552BC
:1027B000E16E1050E552E7CFD9FF1200D9CFE6FF06
:1027C000E1CFD9FF040EE126DE52010EDD6E85C198
:1027D000F3F101018551320A40E0030A13E0010AD6
:1027E00040E187C14BF188C14CF1000E01014B253E
:1027F0000101056F400E01014C210101066FBFEC84
:1028000017F02FD087C14BF188C14CF1000E0101A8
:102810004B250101056F400E01014C210101066F9E
:10282000DF6A200EDF5C14E2050EDF24EA6A840F03
:10283000E96E010EEA22EF50E66EDF50EA6A070FFA
:10284000E96E010EEA22E552E750EF6EDF2AE9D782
:10285000E66A8EEC17F0E55204D087C14BF188C1CF
:102860004CF1010EDB50106E040EE15C02E2E16AF5
:0E287000E552E16E1050E552E7CFD9FF12009D
:02287E00D9CFB0
:10288000E6FFE1CFD9FF110EE1260101C469010184
:10289000010E836F850EDE6E010EDD6E04011105E3
:1028A00001E087D01251B40A6EE0760A5AE0590A64
:1028B0004FE0020A43E0010A30E00F0A24E0010A77
:1028C0001AE0BA0A0DE0830A74E10101050EC46F33
:1028D000E66AE6D8E552E66AE3D8E552E66A3DD014
:1028E00028EC13F0000904E00101050EC46F61D06B
:1028F0000101C4695ED00101050EC46FA0A859D0C2
:10290000010EC46F53D00101050EC46F47C1E6FF2D
:10291000C7D8E55248C1E6FF4AD00101050EC46F91
:10292000040E49C1DBFF050E4AC1DBFF040EDBCFFD
:10293000E9FF050EDBCFEAFFEF5023D00101050EC2
:10294000C46F49C1E6FFACD8E5524AC1E6FF2FD0BB
:102950000101050EC46F030EE66EA2D8E552E66AC9
:1029600026D00101050EC46F0A0EE66E99D8E55215
:10297000140EE66E95D8E552230EE66E91D8E55218
:10298000690EE66E14D00101050EC46FA0B803D025
:10299000F29EF29C0ED0010EC46FE66881D8E5521B
:1029A000E6687ED8E552E6687BD8E552E66878D8D6
:1029B000E552090E0401115D5AE11251B40A54E0C6
:1029C0002E0A52E0030A3CE0010A2CE00F0A16E04E
:1029D000010A0DE0BA0A4BE1DEEC13F0000903E056
:1029E0000101020E02D00101010EC46F40D00101AD
:1029F000020EC46FA0A83BD0010E38D00101020E18
:102A0000C46FDECFE9FFDDCFEAFFEFCF47F1DECFC6
:102A1000E9FFDDCFEAFF010EE926000EEA22EFCF43
:102A200048F125D00101020EC46FDECFE9FFDDCFF2
:102A3000EAFFEF5049C1E9FF4AC1EAFFEF6E17D044
:102A40000101020EC46FDECFE9FFDDCFEAFFEFCF59
:102A500049F1DECFE9FFDDCFEAFF010EE926000EE6
:102A6000EA22EFCF4AF103D00101020EC46FFF0E3C
:102A70000101C45D0BE0090E0401115D07E012C401
:102A800050F40101835100016A6F6B6B110EE15C20
:102A900002E2E16AE552E16EE552E7CFD9FF1200AA
:102AA000D9CFE6FFE1CFD9FF400E0101835D0AE2F5
:102AB0008351EA6A500FE96E040EEA22FE0EDBCF64
:0C2AC000EFFF832BE552E7CFD9FF120097
:042ACC0004011051A0
:102AD0001F0B010801E01200145101E01200060E64
:102AE000115D28E11351230A23E0010A0FE0030AD4
:102AF0001FE10001020E656F0001620505E10001A2
:102B00000C0E666F2D0E676F090E0FD00001020EBE
:102B1000656F0001620505E10001860E666F2D0EEE
:102B2000676F0001620504E17C0E00016A6F6B6B48
:102B30000001618304011051600BE842E842E84261
:102B4000E842E842010801E0120011510B0A37E0A7
:102B5000080A27E0090A1FE0080A15E00B0A05E049
:102B6000080A01E0120019EF13F00001840E686FEB
:102B7000010E696F0001619300016A6B6B6B0001CC
:102B8000020E656F12000001020E656F00016E0EED
:102B9000666F000E0DD00001020E656F13C46EF05B
:102BA00012000001020E656F00016F0E666F000ECD
:102BB000676F000161930001010E6A6F120000014E
:102BC000020E656F12C46FF012000001706B1E0ED2
:102BD000716E0401080E096F900E0A6F040E0B6FE0
:102BE000880E086F0401980E0E6F040E0F6F400ED2
:102BF0000C6F1200D9CFE6FFE1CFD9FFE652FC0EF1
:102C0000DB50080805E2080EF36EFC0EF3CFDBFF85
:102C1000DF6AFC0EDB50DF5C19E2DF50E76EFD0E71
:102C2000DBCFE9FFFE0EDBCFEAFFE750E926000E1F
:102C3000EA22EF50E66EDF50EA6A980FE96E040E62
:102C4000EA22E552E750EF6EDF2AE3D7FC0EDBCF36
:102C50000DF4400E04010C170C7D880E0C13E55288
:102C6000E552E7CFD9FF1200D9CFE6FFE1CFD9FF78
:102C70000001706B040108BF31D0FC0EDBCF10F0F7
:102C80000951D880105403E2FC0E09C4DBFF000197
:102C9000706BFC0EDB50705D19E27051EA6A900FA8
:102CA000E96E040EEA22EF50E66E7051E76EFD0EFB
:102CB000DBCFE9FFFE0EDBCFEAFFE750E926000E8F
:102CC000EA22E552E750EF6E702BE3D70401080EBD
:102CD000096F400E0817087D880E08130001705117
:082CE000E552E7CFD9FF120015
:082CE800120110010000004080
:102CF000AE09304410000102030109022200010163
:102D000000A03209040000010300000009211001A5
:102D10000001227C00070581030800280403090440
:102D200018034A006F00650000000000000000006A
:102D300000000000000000002C034D00490044008A
:102D400049002000440065007600690063006500CA
:102D50002000000000000000000000000000000053
:102D6000000000002203360039003100320030003C
:102D7000360030004200200000000000000000008B
:102D800000000000000006FFFF0901A10175089581
:102D90000126FF001500859609C0B102752085B493
:102DA00009D2B1027510859709C1B10275088598DD
:102DB00009C2B1027510859909C3B102859C09D475
:102DC000B1027510859D09D5B102859B09C5B10277
:102DD000752085AF09E9B10285AF09E981A27600C6
:102DE0000285B009EAB102752085C209D6B1028513
:102DF0009A09C4B1027508953F852C09040904B1EC
:102E000002C0FA2CFA2C1C2D202D382D642DCC2A32
:102E10000001020304050506070708080909090A55
:102E20000A0A0B0B0B0B0C0C0C0C0C0C0D0D0D0DE6
:102E30000D0D0D0E0E0E0E0E0E0E0E0F0F0F0F0FB0
:102E40000F0F10101010101010111111111112127B
:102E5000121212131313131314141414141515153A
:102E600015151616161617171717181818181919F2
:102E700019191A1A1A1A1B1B1B1C1C1C1C1D1D1DA0
:102E80001E1E1E1F1F1F202020212121222223233E
:102E900023242425252626262727282829292A2AC7
:102EA0002B2C2C2D2D2E2E2F30303132323334342A
:102EB0003536373738393A3B3B3C3D3E3F4041425F
:102EC000434445464748494A4B4C4D4E4F5051525A
:102ED000535455565758595A5B5C5D5E5F6061624A
:102EE000636465666768696A6B6C6D6E6F7071723A
:102EF000737475767778797A7B7C7D7E7FFFFFFFB0
:102F0000FFFFFFFFFFFFFFFFFFFFFFFFFFFFFFFFD1
:102F1000550EA76EAA0EA76EA6821200D9CFE6FFA5
:102F2000E1CFD9FFE652E00E01010517840EA66E2F
:102F3000FE0EDB50DF6EFE0EDB50200FDF5C1AE270
:102F4000DF50EA6A070FE96E010EEA22EFCF10F0B8
:102F5000DF500101F76A0525F66E0651F722F86A7F
:102F600010C0F5FF0C001F0EDF141F0801E1D0DFB9
:102F7000DF2AE1D7E552E552E7CFD9FF1200940EE0
:102F8000A66E05C1F6FF06C1F7FFF86AC1DFF86A51
:102F90001200D9CFE6FFE1CFD9FFA66AFE0EDB50C3
:102FA000A96EA680A850E552E7CFD9FF1200D9CF6D
:102FB000E6FFE1CFD9FFA6A202D0000E0AD0FE0E96
:102FC000DB50A96EFD0EDB50A86E040EA66EA0DFCE
:0A2FD000010EE552E7CFD9FF120011
:062FDA00DACFE4FFE2CFB4
:102FE000DAFFE9CFE4FFEACFE4FFF6CFE4FFF7CF63
:102FF000E4FFF5CFE4FFF3CFE4FFF4CFE4FFFACF33
:10300000E4FF00EE00F0100EE80403E3EECFE4FF6F
:10301000FBD700EE10F0080EE80403E3EECFE4FF68
:10302000FBD7E6529EA20AD09E920101512B040EBC
:10303000515D04E1516B19809EEC11F0E55200EEF8
:1030400017F0080EE80403E3E5CFEDFFFBD700EE31
:103050000FF0100EE80403E3E5CFEDFFFBD7E5CF5B
:10306000FAFFE5CFF4FFE5CFF3FFE5CFF5FFE5CFBE
:10307000F7FFE5CFF6FFE5CFEAFFE5CFE9FFE5CFC4
:04308000DAFF110062
:0C308400D9CFE6FFE1CFD9FF050EE12611
:103090009EBA13D0010181510101825D02E13BD84A
:1030A0001AD09EA818D08251EA6A590FE96E010E13
:1030B000EA22EF50AD6E822B0ED0AB50020B03E133
:1030C000AB50040B08E0AB98010EAECFDBFFAECFE8
:1030D000DBFFAB881892050EE15C02E2E16AE55283
:1030E000E16EE552E7CFD9FF1200D9CFE6FFE1CF7D
:1030F000D9FF280E0101815D0AE28151EA6A590F68
:10310000E96E010EEA22FE0EDBCFEFFF812BE552C6
:10311000E7CFD9FF12000101816B0101826B120020
:1031200032EC19F0896A8A6A8B6A8C6A8D6A010EA0
:10313000926E100E936EF80E946E956A020E966E55
:103140000101050E4D6FA60EAC6E900EAB6E3F0EDC
:10315000AF6EB06A400EC26E0E0EC16E060EC06E2D
:10316000F26A800EF16ED08ED76AD66AD56ACC6AC2
:10317000F90ECB6E0D0ECA6E020E9D6EF28E140EFF
:103180006F6E0001606B0001616B0001626B1200E9
:10319000D9CFE6FFE1CFD9FFFE0EDB50A96EA69E88
:1031A000A69CA680A850E552E7CFD9FF1200D9CF40
:1031B000E6FFE1CFD9FFFE0EDB50A96EFD0EDB501E
:1031C000A86EA69EA69CA684F29E550EA76EAA0E79
:1031D000A76EA6820400A6B2FDD7F28EA694E55291
:0631E000E7CFD9FF120049
:0A31E6000101522B0A0E525D1CE19C
:1031F000526B1982198E198A1A820101542B040EFE
:10320000545D02E1546B1A800101552B020E555D8D
:1032100001E1556B0101532B640E535D05E1536BC6
:0A3220001BA202D013EC13F0120001
:06322A00D9CFE6FFE1CF61
:10323000D9FFE6521992010EE66E48EC0FF0E55206
:10324000F76A100FF66E2E0EF7220800F550DF6EAB
:10325000FF0EDF5C02E0DFCF50F1E552E552E7CF31
:04326000D9FF120080
:0C326400EA6AE96A0400EE6AEAA6FCD7F8
:103270001200000EF36E00EE00F0080E01D81200EE
:10328000EA6002D0EE6AFCD7F350E9601200EE6A01
:02329000FCD769
:0E3292003F065B4F666D7D077F67777C585E59
:1032A00079716F74061E003800545C73E7506D0727
:0632B0001C1C00766E5BA1
:0A32B60017EE00F027EE00F0F86AB2
:1032C0000F9CEA6AE96A0400EE6AEAA663EF19F065
:0832D00016EC05F0FDD7120019
:0832D800036A080EE76ED890AE
:1032E000073603360C50035C02E3036E072AE72E11
:0432F000F7D71200FA
:0C32F400FFFF00000000000000000000D0
:03330000000000CA
:104000004D6F6E6B65797772656E636800000000B6
:1040100000000000010140404050000102038405FF
:104020004576656E20466C6F77000000000000004A
:1040300000000000010140404050000102038405DF
:104040005A65726F000000000000000000000000D0
:1040500000000000010140405054000184050505A6
:10406000576F6E64657277616C6C00000000000031
:10407000000000000101404040500001820304059F
:10408000427564647920486F6C6C79000000000010
:10409000000000000101404040500001020384057F
:1040A000506C757368000000000000000000000004
:1040B000000000000919C8D8C8580001020384058F
:1040C000436F6D65204F757420616E6420506C6184
:1040D00079000000010140404050000102038405C6
:1040E00044726976650000000000000000000000D6
:1040F00000000000091940404050800102030405FF
:104100005768656E204920436F6D652041726F7559
:104110006E6400000101404040500001020384052C
:1041200045766572797468696E67205A656E00001D
:1041300000000000010101118191000102038203CE
:10414000456E7465722053616E646D616E0000008F
:1041500000000000010140404050800102030405BE
:10416000437261776C696E6720696E2074686520A0
:104170004461726B191958584058000182030403B6
:10418000536F6E6720320000000000000000000046
:104190000000000081818181818180010001000196
:1041A0005365782054797065205468696E67000003
:1041B000000000000101404040500001020384055E
:1041C0004D722E204A6F6E657300000000000000E3
:1041D000000000000111011101110001820302031E
:1041E000436F756E74696E6720426C75652043611C
:1041F0007273000001014040505000010203840529
:10420000496E20426C6F6F6D0000000000000000DE
:1042100000000000819181918191800100010001E5
:10422000486173682050697065000000000000005C
:1042300000000000010140404050000102038405DD
:104240004D79204865726F000000000000000000FA
:1042500000000000010140404050000102038405BD
:104260004D616368696E6568656164000000000007
:10427000000000000101011101110001820302038D
:10428000486F6C6964617900000000000000000064
:10429000000000000101404040500001020384057D
:1042A000436C6F73696E672054696D650000000090
:1042B000000000000101011101110001820302034D
:1042C000427261696E73746577000000000000003F
:1042D000000000000101404040400001020384054D
:1042E00000000000000000000000000000000000CE
:1042F00000000000000000000000000000000000BE
:1043000000000000000000000000000000000000AD
:10431000000000000000000000000000000000009D
:00000001FF
