:020000040000FA
:0600000000EF05F0120004
:0600080060EF0BF0120096
:060A0000A8EF0CF012004B
:060A080060EF0BF012008C
:060A2A00D9CFE6FFE1CF89
:100A3000D9FF060EE126040003EC0CF0040097EC4D
:100A400005F01FEC09F004000400F28EF28C0FA6F2
:100A500006D00F96E66A01EC0BF0E55226D00FA8FF
:100A600007D00F98200EE66E01EC0BF0E5521DD07A
:100A70000FA004D00F905EEC0CF017D010A004D0A3
:100A8000109097EC05F011D00FAA03D00F9AFAEC52
:100A900005F00FAE03D00F9E28EC09F010A203D092
:100AA000109227EC09F0B5EC0BF0CED7060EE15C06
:100AB00002E2E16AE552E16EE552E7CFD9FF1200AA
:020AC000000034
:0E0AC200D9CFE6FFE1CFD9FFFE0EDBCFE6FF76
:100AD000E8EC0BF0E552E552E7CFD9FF1200D9CF91
:100AE000E6FFE1CFD9FFE652080EDF6E89848994D4
:100AF0008992FE0EDBBE02D0899601D08986DBCFBB
:100B0000F3FFF39EF346F3CFDBFF8982DF06F0E1CC
:100B10008984100EDF6EDF5002E0DF06FCD7899477
:100B200089868982E552E552E7CFD9FF1200D9CFF5
:100B3000E6FFE1CFD9FF040EE126DE52010EDD6EA5
:100B4000030EDB6ADF6ADF50060822E3DFCFE6FF31
:100B50003CD8E552050EF36E020EF3CFDBFFDB50FF
:100B600003E0020EDB06FBD784A209D0030EDBCF25
:100B7000E7FF010EDB50E712030EE7CFDBFF010EAC
:100B8000DBCFF3FFF39EF346F3CFDBFFDF2ADBD7A8
:100B9000030EDBCF4FF101014F9F4F4781B84F81CB
:100BA0004F1D4F6F070EDF6EDFCFE6FF0ED8E55209
:100BB000118084A21190040EE15C02E2E16AE55228
:100BC000E16EE552E7CFD9FF1200D9CFE6FFE1CFC2
:100BD000D9FF8998899A8D90FE0EDBB08988DBB2A7
:100BE000898ADBB48D80E552E7CFD9FF120001017D
:100BF0004F5112004EC1E6FF72DFE5521200D9CF0D
:100C0000E6FFE1CFD9FF01014E6B010EF36EFD0E41
:100C1000DB5004E0D890F336E806FCE1F350010124
:100C20004E13E552E7CFD9FF1200D9CFE6FFE1CF4F
:100C3000D9FF010EF36EFD0EDB5004E0D890F336C1
:100C4000E806FCE1F35001014E13E552E7CFD9FF6E
:100C50001200D9CFE6FFE1CFD9FF010EF36EFD0EF2
:100C6000DB5004E0D890F336E806FCE1F350126E56
:100C7000FF0EF31801014E17E552E7CFD9FF12001E
:100C80001150010B1200010150511200D9CFE6FFA3
:100C9000E1CFD9FF030EE126DF6AFD0EDBCF06F0C0
:100CA000FE0EDBCF07F0010E06C0DBFF020E07C011
:100CB000DBFFDFCF12F0FB0EDBCF13F0FC0EDBCF40
:100CC00014F01350125C000E145423E2010EDBCF1B
:100CD000F6FF020EDBCFF7FF000EF626400EF722DE
:100CE0000800F550E66EDF50E76EF90EDBCFE9FF46
:100CF000FA0EDBCFEAFFE750E926000EEA22E552C2
:100D0000E750EF6EDF2A010EDB2A020ED2E3DB2A68
:100D1000D0D7030EE15C02E2E16AE552E16EE552F2
:100D2000E7CFD9FF1200D9CFE6FFE1CFD9FF050EFB
:100D3000E126FD0EDBCF12F0FE0EDBCF13F0C00E6E
:100D40001216FF0E1316010E12C0DBFF020E13C0A7
:100D5000DBFFDF6A400EDF5C1DE2010EDBCFF6FF3A
:100D6000020EDBCFF7FF000EF626400EF72208003A
:100D7000F550E66EDF50EA6A070FE96E010EEA22CF
:100D8000E552E750EF6EDF2A010EDB2A020EE2E3A6
:100D9000DB2AE0D7FD0EDBCF12F0FE0EDBCF13F027
:100DA000C00E1216FF0E1316010E12C0DBFF020E4C
:100DB00013C0DBFFFD0EDBCF14F0FE0EDBCF15F012
:100DC000010EDB50145C126E020EDB501558136ED0
:100DD000030E12C0DBFF040E13C0DBFFDF6ADFCFA0
:100DE00012F0FB0EDBCF13F0FC0EDBCF14F0135030
:100DF000125C000E145422E2DF50E76EF90EDBCFD6
:100E0000E9FFFA0EDBCFEAFFE750E926000EEA22FF
:100E1000EF50E66E030EDBCFE9FF040EDBCFEAFFF7
:100E2000070EE926010EEA22E552E750EF6EDF2AAF
:100E3000030EDB2A040ED3E3DB2AD1D7FD0EDBCF72
:100E400005F1FE0EDBCF06F1C00E01010517FF0E06
:100E50000617000E0527400E062332EC0BF00F8616
:100E60000F88050EE15C02E2E16AE552E16EE552AF
:100E7000E7CFD9FF1200D9CFE6FFE1CFD9FFFD0EB2
:100E8000DB500F0B126EFE0EDB500F0B100DF350EC
:100E90001210E66EE8EC0BF0E552FC0EDBCFE6FF3D
:100EA000E8EC0BF0E552E552E7CFD9FF1200D9CFBD
:100EB000E6FFE1CFD9FFFD0EDB500F0B126EFE0EE9
:100EC000DB500F0B100DF3501210E66EE8EC0BF038
:100ED000E552FC0EDBCFE6FFE8EC0BF0E552FB0E33
:100EE000DBCFE6FFE8EC0BF0E552E552E7CFD9FFA8
:020EF0001200EE
:0E0EF200D9CFE6FFE1CFD9FFE652030EDF6E47
:100F00000A0E146E0C6EFE0EDBCF07F0B8EC0CF080
:100F10000350300FE66EDFCF12F0136A12BE136873
:100F2000FC0EDB501224E96EFD0EDB501320EA6E3E
:100F3000E552E750EF6E0A0E126E0C6EFE0EDBCF1E
:100F400007F0B8EC0CF0FE0E07C0DBFF07500008FE
:100F500005E2DF06DFCF12F01234D2E3DF06DFCF87
:100F600012F0123411E2DFCF12F0136A12BE1368CE
:100F7000FC0EDB501224E96EFD0EDB501320EA6EEE
:100F8000200EEF6EDF06EBD7E552E552E7CFD9FF33
:100F90001200D9CFE6FFE1CFD9FF040EE126D9CF69
:100FA000E6FFDACFE6FF0101C929E66EA2DFE552CE
:100FB000E552E5520101CA29E66E8EEC0AF0E552CF
:100FC000D9CFE6FFDACFE6FF4AEC0AF0E552E55268
:100FD000040EE15C02E2E16AE552E16EE552E7CF20
:100FE000D9FF1200D9CFE6FFE1CFD9FFFE0EDB50CB
:100FF0000101C515126EFE0EDB50125C04E1FE0EFF
:10100000DB50C61502E0000E01D0010EE552E7CF1D
:10101000D9FF1200D9CFE6FFE1CFD9FFFE0EDB509A
:101020000101C515126EFE0EDB50125C02E0000ECF
:1010300001D0010EE552E7CFD9FF1200D9CFE6FF6C
:10104000E1CFD9FFFE0EDB500101C615126EFE0E78
:10105000DB50125C04E1FE0EDB50C51502E0000E11
:1010600001D0010EE552E7CFD9FF1200D9CFE6FF3C
:10107000E1CFD9FFFD0EDBCFE6FFFE0EDBCFE6FFB3
:10108000E66A0B0EE66E57EC07F0E552E552E552C4
:10109000E552E552E7CFD9FF1200D9CFE6FFE1CF05
:1010A000D9FFFE0EDBCFC9F1C9C1E6FFE66A0C0E1F
:1010B000E66E3BEC07F0E552E552E5526ADFE55299
:1010C000E7CFD9FF1200CAC1E6FF220EE66ECEDFDF
:1010D000E552E5520101CA51070A01E186D0010A31
:1010E00069E0030A53E0010A44E0070A35E0010A17
:1010F00026E0030A10E0010A01E093D0000EE66E3C
:10110000E66A15EC06F0E552E552010EE66EE66A77
:1011100029EC06F00CD0000EE66EE66A29EC06F02B
:10112000E552E552010EE66EE66A15EC06F0E55270
:10113000E552020EE66EE66A29EC06F069D0000E72
:10114000E66EE66A29EC06F0E552E552010EE66E1F
:10115000E66A29EC06F055D0000EE66EE66A29EC48
:1011600006F0E552E552010EE66EE66A29EC06F05D
:101170002DD0000EE66EE66A29EC06F0E552E55247
:10118000010EE66EE66A15EC06F00CD0000EE66E77
:10119000E66A15EC06F0E552E552010EE66EE66AE7
:1011A00029EC06F0E552E552020EE66EE66A15EC11
:1011B00006F013D0000EE66EE66A15EC06F0E55276
:1011C000E552010EE66EE66A15EC06F0E552E552D0
:1011D000020EE66EE66A29EC06F0E552E552030ED1
:1011E000E66EE66A15EC06F01AD0000EE66EE66AC8
:1011F00015EC06F0E552E552010EE66EE66A15ECD6
:1012000006F0E552E552020EE66EE66A15EC06F0CF
:10121000E552E552030EE66EE66A29EC06F0E55269
:10122000E552C9EF07F0D9CFE6FFE1CFD9FFFE0EB7
:10123000DBCFCAF148DFE552E7CFD9FF1200010149
:10124000C669C869C76BE66AEEDFE5521200120094
:10125000F7EC05F00101C56F40EC06F00101C76F26
:10126000100EE66EBFDEE552000903E0E66ADBDF42
:10127000E552800EE66EB6DEE552000904E0010E8E
:10128000E66ED1DFE552400EE66EACDEE5520009B7
:1012900004E0020EE66EC7DFE552200EE66EA2DE27
:1012A000E552000904E0030EE66EBDDFE5520101E0
:1012B000C70528E1010EE66E95DEE552000904E05F
:1012C000040EE66EB0DFE552020EE66E8BDEE552EE
:1012D000000904E0050EE66EA6DFE552040EE66E98
:1012E00081DEE552000904E0060EE66E9CDFE55261
:1012F000080EE66E77DEE552000904E0070EE66EA2
:0A13000092DFE552C5C1C6F11200EC
:06130A000101008F22D852
:1013100001015651040A10E0070A0CE0010A08E036
:10132000030A04E0010A0DE18A9A07D08B9005D0E8
:101330008A9603D08A9401D08A9256C1E6FF18D8C3
:10134000E5520101562B01014D510101565D01E3AA
:10135000566B12008A908C9E8C9C8C9A8C988B94E5
:101360008C968C948A8A8B808A868A848A821200E0
:10137000D9CFE6FFE1CFD9FFE652FE0EDB50EA6A95
:10138000000FE96E010EEA22EFCFDFFFD9CFE9FFB0
:10139000DACFEAFFEF50010B01E08A80D9CFE9FFF5
:1013A000DACFEAFFEF50020B01E08C8ED9CFE9FFD4
:1013B000DACFEAFFEF50040B01E08C8CD9CFE9FFC4
:1013C000DACFEAFFEF50080B01E08C8AD9CFE9FFB2
:1013D000DACFEAFFEF50100B01E08C88D9CFE9FF9C
:1013E000DACFEAFFEF50200B01E08B84D9CFE9FF81
:1013F000DACFEAFFEF50400B01E08C86D9CFE9FF4E
:10140000DACFEAFFEF50800B01E08C84E552E55221
:10141000E7CFD9FF1200D9CFE6FFE1CFD9FF020E07
:10142000E126F29EF29C010EDB6A050EF36E010EC0
:10143000DBCFF4FFF350F45C21E2010EDB50E76EEA
:10144000FD0EDBCFE9FFFE0EDBCFEAFFE750E9261A
:10145000000EEA22EFCFDFFFDFCFE6FF73D8E552C1
:10146000E66E010EDB50EA6A000FE96E010EEA2219
:10147000E552E750EF6E010EDB2AD7D7F28EF28CE1
:10148000020EE15C02E2E16AE552E16EE552E7CF6D
:10149000D9FF1200D9CFE6FFE1CFD9FF020EE12636
:1014A000F29EF29C010EDB6A040EF36E010EDBCF9E
:1014B000F4FFF350F45C26E2010EDB50E76EFD0E04
:1014C000DBCFE9FFFE0EDBCFEAFFE750E926000E97
:1014D000EA22EFCFDFFFDFCFE6FF34D8E552E66E3A
:1014E000010EDBCFE6FF030EE552D880E754EA6A2F
:1014F000000FE96E010EEA22E552E750EF6E010E91
:10150000DB2AD2D7F28EF28C020EE15C02E2E16AB3
:10151000E552E16EE552E7CFD9FF1200D9CFE6FFE1
:10152000E1CFD9FFF29EF29CFE0EDB50300FE66E4B
:1015300009D8E5520101046FF28EF28CE552E7CF33
:10154000D9FF1200D9CFE6FFE1CFD9FF410EF36EEC
:10155000FE0EDBCFF4FFF350F45C1AE3610EF36E82
:10156000FE0EDBCFF4FFF350F45C02E3610E01D01A
:10157000410E126EFE0EDBCFE7FF1250E75EFE0E4D
:10158000E7CFDBFFDB50F76A360FF66E190E17D088
:10159000300EF36EFE0EDBCFF4FFF350F45C15E378
:1015A000300E126EFE0EDBCFE7FF1250E75EFE0E2E
:1015B000E7CFDBFFDB50F76A2C0FF66E190EF72230
:1015C0000800FE0EF5CFDBFF10D0FE0EDB5020082A
:1015D0000AE0FE0EDB502D0806E1400EF36EFE0E13
:1015E000F3CFDBFF02D0FE0EDB6ADB50E552E7CF24
:0615F000D9FF12001200F9
:0A15F600550EA76EAA0EA76EA6827E
:101600001200D9CFE6FFE1CFD9FFE652E00E01018B
:101610000517840EA66EFE0EDB50DF6EFE0EDB504D
:10162000200FDF5C1AE2DF50EA6A070FE96E010E55
:10163000EA22EFCF12F0DF500101F76A0525F66EBE
:101640000651F722F86A12C0F5FF0C001F0EDF14D6
:101650001F0801E1D0DFDF2AE1D7E552E552E7CFED
:10166000D9FF1200940EA66E05C1F6FF06C1F7FF62
:10167000F86AC1DFF86A1200D9CFE6FFE1CFD9FFDF
:10168000A66AFE0EDB50A96EA680A850E552E7CFF1
:10169000D9FF1200D9CFE6FFE1CFD9FFA6A202D031
:1016A000000E0AD0FE0EDB50A96EFD0EDB50A86EB8
:1016B000040EA66EA0DF010EE552E7CFD9FF12009F
:1016C000DACFE4FFE2CFDAFFE9CFE4FFEACFE4FFCD
:1016D000F6CFE4FFF7CFE4FFF5CFE4FFF3CFE4FF6D
:1016E000F4CFE4FFFACFE4FF00EE00F00E0EE804C2
:1016F00003E3EECFE4FFFBD700EE12F0040EE804A4
:1017000003E3EECFE4FFFBD7E6529EA20AD09E92FF
:101710000101512B040E515D04E1516B0F8085ECEA
:1017200009F0E55200EE15F0040EE80403E3E5CFFE
:10173000EDFFFBD700EE0DF00E0EE80403E3E5CF5E
:10174000EDFFFBD7E5CFFAFFE5CFF4FFE5CFF3FFE1
:10175000E5CFF5FFE5CFF7FFE5CFF6FFE5CFEAFFF1
:0A176000E5CFE9FFE5CFDAFF110045
:06176A00D9CFE6FFE1CF3C
:10177000D9FF050EE1269EBA13D001018151010166
:10178000825D02E13BD81AD09EA818D08251EA6A45
:10179000590FE96E010EEA22EF50AD6E822B0ED08A
:1017A000AB50020B03E1AB50040B08E0AB98010E09
:1017B000AECFDBFFAECFDBFFAB880E92050EE15C58
:1017C00002E2E16AE552E16EE552E7CFD9FF12008D
:1017D000D9CFE6FFE1CFD9FF280E0101815D0AE2F2
:1017E0008151EA6A590FE96E010EEA22FE0EDBCF43
:1017F000EFFF812BE552E7CFD9FF12000101816B8A
:061800000101826B1200E1
:0A1806007FEC0CF0896A8A6A8B6A95
:101810008C6A8D6A010E926E100E936EF80E946EA5
:10182000956A020E966E0101050E4D6FA60EAC6E06
:10183000900EAB6E3F0EAF6EB06A400EC26E0E0ED3
:10184000C16E060EC06EF26A800EF16ED08ED76A3F
:10185000D66AD56ACC6AF90ECB6E0D0ECA6E020E30
:061860009D6EF28E1200E5
:0A186600D9CFE6FFE1CFD9FFFE0E57
:10187000DB50A96EA69EA69CA680A850E552E7CF95
:10188000D9FF1200D9CFE6FFE1CFD9FFFE0EDB5022
:10189000A96EFD0EDB50A86EA69EA69CA684F29EA5
:1018A000550EA76EAA0EA76EA6820400A6B2FDD79B
:0C18B000F28EA694E552E7CFD9FF12009B
:0418BC000101522BA9
:1018C0000A0E525D1BE1526B0F8E0F8A10820101CE
:1018D000542B040E545D02E1546B10800101552B12
:1018E000020E555D01E1556B0101532B640E535DF2
:0E18F00005E1536B11A202D0FAEC0AF01200CF
:0218FE00EA6A94
:10190000E96A0400EE6AEAA6FCD71200000EF36E44
:1019100000EE00F0080E01D81200EA6002D0EE6A74
:0C192000FCD7F350E9601200EE6AFCD71F
:04192C003F065B4FC8
:10193000666D7D077F67777C585E79716F74061ED0
:10194000003800545C73E7506D071C1C00766E5B1A
:1019500017EE00F027EE00F0F86AEA6AE96A040080
:10196000EE6AEAA6AFEF0CF015EC05F0FDD7120019
:10197000036A080EE76ED890073603360C50035CF6
:0C19800002E3036E072AE72EF7D71200DF
:104000004D6F6E6B65797772656E636800000000B6
:104010000000000004405162010101404040500096
:104020004576656E20466C6F77000000000000004A
:104030000000000004405162020101404040500075
:104040005A65726F000000000000000000000000D0
:10405000000000000240626603010140405054002D
:10406000576F6E64657277616C6C00000000000031
:104070000000000003405151044141D1C1C1D100B1
:10408000427564647920486F6C6C79000000000010
:104090000000000004405162050101404040500012
:1040A000506C757368000000000000000000000004
:1040B0000000000004405162060999C8D8C8D80021
:1040C000436F6D65204F757420616E6420506C6184
:1040D0007900000004405162070101404040500057
:1040E00044726976650000000000000000000000D6
:1040F0000000000003405151084141D1C1C1D1002D
:104100005768656E204920436F6D652041726F7559
:104110006E640000044051620901014040405000BB
:1041200045766572797468696E67205A656E00001D
:1041300000000000054051510A0000D0C0C0D0006E
:10414000456E7465722053616E646D616E0000008F
:1041500000000000004051620B010140404050004F
:10416000437261776C696E6720696E2074686520A0
:104170004461726B044051620C01014040405000A8
:10418000536F6E6720320000000000000000000046
:1041900000000000000044440DC1C1C1C1C1C10004
:1041A0005365782054797065205468696E67000003
:1041B00000000000044051620E01014040405000E8
:1041C0004D72204A6F6E6573000000000000000011
:1041D00000000000034051510F4141D1C1C1D10045
:1041E000436F756E74696E6720426C75652043611C
:1041F0007273000004406262101919404050500070
:10420000496E20426C6F6F6D0000000000000000DE
:10421000000000000000444411C1C1C1C1C1C1007F
:10422000486173682050697065000000000000005C
:104230000000000004405162120101404040500063
:104240004D79204865726F000000000000000000FA
:104250000000000004405162130101404040500042
:104260004D616368696E6568656164000000000007
:104270000000000004405111140101C1C1C1D1006E
:10428000486F6C6964617900000000000000000064
:104290000000000004405162150101404040500000
:1042A000436C6F73696E672054696D650000000090
:1042B00000000000044051511601014050405000E0
:1042C000427261696E73746577000000000000003F
:1042D000000000000440116217010140404040000E
:1042E000426F756E6420666F722074686520466C3C
:1042F0006F6F720002401151180101404058500088
:104300004920416C6F6E6500000000000000000055
:104310000000000000405151191901404040500078
:1043200043756D626572736F6D650000000000007B
:1043300000000000044051511A010140404050006B
:104340004C756D70000000000000000000000000CF
:1043500000000000044051511B010140404040005A
:10436000486579204A65616C6F75737900000000BB
:1043700000000000044051511C0101404040500029
:104380004B727970746F6E697465000000000000F4
:1043900000000000044051621D01014040405000F7
:1043A00044616D6D697400000000000000000000B1
:1043B00000000000044051511E01014040405000E7
:1043C00053656D692D636861726D6564204C696623
:1043D00065000000044051511F0101404040500061
:1043E0004D79204F776E20576F72737420456E653C
:1043F0006D790000044051622001014040404000BE
:1044000000000000000000000000000000000000AC
:10441000000000000000000000000000000000009C
:10442000000000000000000000000000000000008C
:10443000000000000000000000000000000000007C
:105000001A00090C021216180419130514001A17B5
:105010000F1110080D1B150A1C1D1E1FFFFFFFFF9F
:105020000000000000000000000000000000000080
:105030000000000000000000000000000000000070
:105040000000000000000000000000000000000060
:105050000000000000000000000000000000000050
:00000001FF
