:020000040000FA
:0600000000EF05F0120004
:06000800C8EF13F0120026
:060A0000B7EF13F0120035
:060A0800C8EF13F012001C
:060A2A001200D9CFE6FF27
:100A3000E1CFD9FF060EE12604001FEC13F00400FD
:100A4000C1EC0AF004000400F28EF28C39D80CA636
:100A500006D00C96E66A72EC12F0E55226D00CA88D
:100A600007D00C98200EE66E72EC12F0E5521DD005
:100A70000CA004D00C9082EC13F017D00DA004D081
:100A80000D905EEC0CF011D00CAA03D00C9A00EC87
:100A90000DF00CAE03D00C9ED7EC0AF00DA203D0E3
:100AA0000D92D6EC0AF0D1EC12F0CDD7060EE15C37
:100AB00002E2E16AE552E16EE552E7CFD9FF1200AA
:0E0AC0004AEC08F06FBE02D066EC08F012009F
:020ACE00010025
:0C0AD000B2270000DB010000080000005D
:040ADC0004011051B0
:100AE000600BE842E842E842E842E842000901E0DF
:100AF00012001151070A48E00B0A46E0070A37E0E6
:100B0000010A25E00B0A21E0020A1FE0030A1BE0AC
:100B1000080A11E0010A0DE00F0A09E0030A01E0EA
:100B200012000101010ECF6F040ECA6F1200C5EF53
:100B300005F022EF06F00101010ECF6FCC0ED06F51
:100B4000010ED16F10D047EF06F08EEF06F00101D5
:100B5000010ECF6F040114510101D06FD16BCD0E86
:100B6000D027010ED123CB93010ED46F12000101C7
:100B7000010ECF6F04011451EA6ACD0FE96E010E28
:100B8000EA2212C4EFFF12001200800E0401105D71
:100B900058E11351030A2FE0010A0BE0030A48E170
:100BA0000101010ECF6FB00ED06F230ED16F120E68
:100BB0003DD00101010ECF6F04011251F66EF76AAC
:100BC000D890F636F736CA0EF626240EF72209001C
:100BD000F5CFD0F10A00F5CFD1F1020E0101F76A8D
:100BE000D025F66ED151F7220900F5CFD4F10A00D5
:100BF000F5CFD5F11DD00101010ECF6F04011251C7
:100C0000F66EF76AD890F636F736CE0EF626240E34
:100C1000F7220900F5CFD0F10A00F5CFD1F1D0C10C
:100C2000F6FFD1C1F7FF0800F5500101D46FD56B75
:100C3000020E0401125D05E0030E125D02E00101E7
:100C4000CB8312000101010ECF6F0F0EE66E710E05
:100C5000E66E0F0EE66EBCDAE552E552E552010E85
:100C6000E66ECD0EE66E010EE66EB2DAE552E552A4
:100C7000E55212C4CCF10401125104E10101050E48
:100C8000CA6F12000101060ECA6F49EF11F004018C
:100C9000506B516B10511F0B020A13E0030A0DE059
:100CA000010A31E10101010ECF6F04015081010100
:100CB000CBA129D00401508326D00101010ECF6FB2
:100CC00022D00101010ECF6F040114510F0B080D4A
:100CD000F350106A000F0F6E040E10221451800B97
:100CE00001E0010E040DF35001010F24D26F000E3C
:100CF0001020D36FD2C1E9FFEA6EEF50040B03E07E
:100D00000401010E506F0101CF0507E1500ED06FB5
:100D1000040ED16FCB93020ED46F120004011205A2
:100D200010E110511F0B00090CE10101010ECF6F02
:100D3000030E0401115D03E10101CB8102D0010129
:100D4000CB91040112513AE110511F0B020836E118
:100D500014510F0B000932E00101010ECF6F0401A5
:100D600014510F0B080DF350106A000F0F6E040E94
:100D700010221451800B01E0010E040DF35001010B
:100D80000F24D26F000E1020D36F030E0401115DEB
:100D900007E1840ED2C1E9FFD3C1EAFFEF6E120072
:100DA00014AF06D0D2C1E9FFD3C1EAFFEF6A120047
:100DB000880ED2C1E9FFD3C1EAFFEF6E12006C507A
:100DC0000BE1040100513C0BE842E8420D0802E14E
:100DD000F1EF06F025EF07F0040E6C5C01E144D85A
:100DE0001200D9CFE6FFE1CFD9FFE6520101CE6B69
:100DF000CF6BD46BD56B72DEDF6ADF500F6E106A7B
:100E0000010E0F5C000E10581AE20101CF5117E1DC
:100E1000F76ADF34FE0BF736F66ED60EF626240E92
:100E2000F7220900F5CF0FF00800F5CF10F004D03D
:100E300010C0FAFF0F50F96EFBDFDF2ADED7DBD8D8
:100E4000E552E552E7CFD9FF1200020E0101CE5D57
:100E500009E194D8040100BD02D0C80E01D0880E6B
:100E6000006F12003DEF08F0040E0101CA5D09E1B8
:100E700012C46EFF6E50000802E2050E01D0030E90
:100E8000CA6FCE0509E110D8040104BD02D0C80E16
:100E900001D0880E046F1200090E0401115D02E1F9
:100EA00078EC0EF03DEF08F0D9CFE6FFE1CFD9FFA7
:100EB000020EE1260101400ED45D000ED55905E277
:100EC000D4C1DEFFD5C1DDFF03D0400EDE6EDD6A8A
:100ED000040104930491010EDB500413DFCF05F4E9
:100EE000000EDB500101D45F010EDB50D55B500ECC
:100EF000D26F040ED36FCBA31CD0D9CFE9FFDACFCA
:100F0000EAFFEE50ED1030E0D0C1F6FFD1C1F7FF9F
:100F10000800F550D2C1E9FFD3C1EAFFEF6ED22B32
:100F2000000ED323D02BD123DF06010EE6E2DB0631
:100F3000E4D7D9CFE9FFDACFEAFFEE50ED1014E0A5
:100F4000D0C1E9FFD1C1EAFFEF50D2C1E9FFD3C15F
:100F5000EAFFEF6ED22B000ED323D02BD123DF0676
:100F6000010EE7E2DB06E5D7020EE15C02E2E16A90
:100F7000E552E16EE552E7CFD9FF1200D9CFE6FF87
:100F8000E1CFD9FF020EE126030E04010015E76E42
:100F9000010EE7CFDBFF01C4DFFFDE500101D427E4
:100FA000DD50D523500ED06F040ED16FD9CFE9FF9D
:100FB000DACFEAFFEE50ED1014E0D0C1E9FFD1C165
:100FC000EAFFEF50D2C1E9FFD3C1EAFFEF6ED22BA7
:100FD000000ED323D02BD123DF06010EE7E2DB0680
:100FE000E5D7020EE15C02E2E16AE552E16EE5520C
:100FF000E7CFD9FF12000101CF510AE10401400EF1
:10100000016F100E026F040E036F840E006F22D06A
:10101000040110AF21D00101D4510401165D01017A
:10102000D5510401175904E216C4D4F117C4D5F1FF
:101030003BDF0101010ECE6F0401400E016F100E67
:10104000026F040E036F800E006F500E066F040EC9
:10105000076FC80E046F0FD00101020ECE6F04019E
:10106000056BC80E046F400E016F500E026F040E28
:10107000036FC80E006F6D9812000101CE6B040162
:10108000400E016F100E026F040E036F880E006F8A
:10109000046B12006DA60CD80101CA0508E16DBAF7
:1010A00006D0686A696A69806988020ECA6F120090
:1010B0006D6A696A6D860101010ECA6F12006D6A60
:1010C000696A0101CA6B12005FEF08F00101CA51A1
:1010D00001E112006850040B04E06950040B01E0C8
:1010E00038D86DB212006850010B04E06950010B52
:1010F00001E04FD86850100B04E06950100B01E07C
:1011000023D86850400B04E06950400B01E037D809
:101110006850200B04E06950200B01E032D8685081
:10112000020B04E06950020B01E031D8030E01010B
:10113000CA5D01E212006850080B05E06950080B17
:1011400002E03DDE68961200698468986D82A19A7B
:1011500012006D926994689412000101CBA10ED027
:10116000F8DF6D840101080ED66F070ED76FD60722
:10117000000ED75BD651D711FAE16D941200689C2E
:10118000120070A002D079DF7090689A1200689205
:1011900012006A6A686A9F0E6B6E7B0E696E6E6AD9
:1011A0000F0EE66E710EE66E0F0EE66E11D8E5526A
:1011B000E552E552160E706E68A602D06896FCD70E
:1011C0006D985BDF0101CB91CC6B030ECA6F1200EF
:1011D000D9CFE6FFE1CFD9FFFD0EDBCFE9FFFE0E51
:1011E000DBCFEAFFFC0EDB5004E0EE6AFC0EDB0610
:0A11F000F9D7E552E7CFD9FF12004E
:0611FA00C20EE66E010EBC
:10120000E66E060EE66EE66A080E0101BF03F350B5
:10121000E66EE66A77EC0DF00F6E060EE15E0F509B
:101220000101C48DC58DC68DC78D1200C20EE66E3C
:10123000010EE66E060EE66EE66A080E0101BF03B9
:10124000F350E66EE66AC4EC0DF00F6E060EE15E3A
:101250000F501200D9CFE6FFE1CFD9FFFE0EDB50D1
:101260000101B8150F6EFE0EDB500F5C04E1FE0E9F
:10127000DB50BA1502E0000E01D0010EE552E7CFB7
:10128000D9FF1200D9CFE6FFE1CFD9FFFE0EDB5028
:101290000101B7150F6EFE0EDB500F5C04E1FE0E70
:1012A000DB50B91502E0000E01D0010EE552E7CF88
:1012B000D9FF1200D9CFE6FFE1CFD9FF020EE12618
:1012C000BCC112F0116A0101BB51000111100F6E77
:1012D000BCC110F0DE6EBCC1DDFFDECFE6FFDDCFAE
:1012E000E6FF1CEC0DF0E552E552020EE15C02E275
:1012F000E16AE552E16EE552E7CFD9FF1200D9CF9E
:10130000E6FFE1CFD9FFFD0EDBCFE6FFFE0EDBCF20
:10131000E6FFE66A0B0EE66E53EC0DF0E552E55281
:10132000E552E552E552E7CFD9FF12000101BCAD0D
:1013300008D0BC9DE66A510EE66EE1DFE552E5524B
:10134000B9DF1200D9CFE6FFE1CFD9FF020EE126C7
:10135000DF6A010EF36EFE0EDB5004E0D890F33628
:10136000E806FCE1F350E76E010EE7CFDBFF010179
:10137000BE51EA6AC20FE96E010EEA22010EDB508D
:10138000EF1A010EDBCFE6FFBE51EA6AC20FE96E2B
:10139000010EEA22EF50E552E71402E07F0EDF6E05
:1013A000DFCFE6FFFE0EDB50EA6ADB0FE96E010ECF
:1013B000EA22EF50E66EA3DFE552E552010EDB5064
:1013C0000101BC1B77DF020EE15C02E2E16AE5523B
:1013D000E16EE552E7CFD9FF1200D9CFE6FFE1CFAA
:1013E000D9FFE6520101BE51EA6AC20FE96E010E51
:1013F000EA22EFCFDFFFC00EBC173F0EDF14BC1395
:10140000D9CFE9FFDACFEAFFEF50400B07E07F0EBC
:10141000E66EE1C1E6FF73DFE552E552D9CFE9FFA1
:10142000DACFEAFFEF50100B07E07F0EE66EDFC168
:10143000E6FF65DFE552E552D9CFE9FFDACFEAFFF3
:10144000EF50200B07E07F0EE66EE0C1E6FF57DFAE
:10145000E552E552D9CFE9FFDACFEAFFEF50040BAE
:1014600007E07F0EE66EDDC1E6FF49DFE552E5529B
:10147000D9CFE9FFDACFEAFFEF50020B07E07F0E8A
:10148000E66EDCC1E6FF3BDFE552E552D9CFE9FF6E
:10149000DACFEAFFEF50080B07E07F0EE66EDEC101
:1014A000E6FF2DDFE552E552D9CFE9FFDACFEAFFBB
:1014B000EF50010B07E07F0EE66EDBC1E6FF1FDF9A
:1014C000E552E552D9CFE9FFDACFEAFFEF50800BC2
:1014D00007E07F0EE66EE2C1E6FF11DFE552E5525E
:1014E000E552E552E7CFD9FF1200D9CFE6FFE1CFB1
:1014F000D9FFFE0EDBCFBEF1DB50040FE66E010E0E
:10150000E66E0C0EE66E36EC0DF0E552E552E55255
:10151000BFC1E6FFE66A0C0EE66E36EC0DF0E55252
:10152000E552E552BFC1C1F158DFC00E0101BB1544
:101530000F6E010EF36EFE0EDB5004E0D890F33612
:10154000E806FCE1F3500F100101BB6FB3DEE5527A
:10155000E7CFD9FF12006ADEC0C1BFF14EDE010144
:10156000BCAD0ED0C0C1E6FFE66A0C0EE66E36ECEE
:101570000DF0E552E552E552C0C1C1F12EDF9ADE11
:1015800012000101BC6BBB6BBE6BBF6BC06BC16B50
:10159000C26B100EC36FC46BC56FC66BC76FC86BD1
:1015A000C96B2BDEE66AA1DFE55212001200D9CF2B
:1015B000E6FFE1CFD9FF020EE126E3EC0CF0F3CF1A
:1015C000DEFFF4CFDDFFDECF0FF0DDCF10F00F50E8
:1015D0000101B76FDECF0FF0DDCF10F010C00FF0BC
:1015E000106A0F50B86F010EE66E34DEE552000946
:1015F00003E0E66AA7DEE552020EE66E2BDEE55258
:10160000000904E0010EE66E9DDEE552040EE66E72
:1016100021DEE552000904E0020EE66E93DEE5529B
:10162000080EE66E17DEE552000904E0030EE66ED2
:1016300089DEE552100EE66E0DDEE552000904E08B
:10164000040EE66E7FDEE552200EE66E03DEE55206
:10165000000904E0050EE66E75DEE552010EE66E49
:1016600011DEE552000904E0E66A3FDFE5525EDE86
:10167000020EE66E07DEE552000905E0010EE66E99
:1016800034DFE55253DE040EE66EFCDDE552000960
:1016900005E0020EE66E29DFE55248DE080EE66E32
:1016A000F1DDE552000905E0030EE66E1EDFE552AE
:1016B0003DDE100EE66EE6DDE552000905E0040EA3
:1016C000E66E13DFE55232DE200EE66EDBDDE5521C
:1016D000000905E0050EE66E08DFE55227DE400E44
:1016E000E66EB8DDE55200090FE00101BC7DBC519A
:1016F000400B02E07F0E01D0000EE66E510EE66E4A
:10170000FEDDE552E552D6DD400EE66EBBDDE5526C
:1017100000090AE00101BD1D7F0BBD6FE66E500E92
:10172000E66EEDDDE552E5520101B751BB9D400B80
:1017300001E0BB8D800EE66E8DDDE552000905E00F
:101740000101C05101E0C00706DF800EE66E9ADDA0
:10175000E552000906E07F0E0101C05D01E0C02BEB
:10176000FADE0101B851800B01E0010E0F6EB75196
:10177000800B01E0010E0F10BC9FE8B0BC8FBF5181
:10178000C15D02E1000E01D0010EBB9FE8B0BB8F2E
:1017900091DDB7C1B9F1B8C1BAF1020EE15C02E264
:0E17A000E16AE552E16EE552E7CFD9FF120093
:0217AE00D9CF91
:1017B000E6FFE1CFD9FFE652FE0EDB50C26E0A0E05
:1017C000DF6EDF5002E0DF06FCD7C282C2B2FED776
:1017D000C450E552E552E7CFD9FF1200D9CFE6FF5A
:1017E000E1CFD9FFFE0EDBCFE6FF04EC13F0E552AC
:1017F000E552E7CFD9FF1200D9CFE6FFE1CFD9FFFD
:10180000E652080EDF6E898489948992FE0EDBBE53
:1018100002D0899601D08986DBCFF3FFF39EF34691
:10182000F3CFDBFF8982DF06F0E18984100EDF6EE3
:10183000DF5002E0DF06FCD7899489868982E55271
:10184000E552E7CFD9FF1200D9CFE6FFE1CFD9FFAC
:10185000E652080EDF6E898489948992FD0EDBBE04
:1018600002D0899601D08986DBCFF3FFF39EF34641
:10187000F3CFDBFF8982DF06F0E1080EDF6E89928D
:10188000FE0EDBBE02D0899601D08986DBCFF3FF46
:10189000F39EF346F3CFDBFF8982DF06F0E1898414
:1018A000100EDF6EDF5002E0DF06FCD789948986D8
:1018B0008982E552E552E7CFD9FF1200D9CFE6FF82
:1018C000E1CFD9FF040EE126DE52010EDD6E030EDC
:1018D000DB6ADF6A080EDF5C22E2DFCFE6FF5ED85C
:1018E000E552050EF36E020EF3CFDBFFDB5003E093
:1018F000020EDB06FBD784A209D0030EDBCFE7FF85
:10190000010EDB50E712030EE7CFDBFF010EDBCF4A
:10191000F3FFF39EF346F3CFDBFFDF2ADBD7030EA3
:10192000DBCF4BF101014B1D4B6F030EDB6A080E41
:10193000DF6E100EDF5C22E2DFCFE6FF2FD8E5522C
:10194000050EF36E020EF3CFDBFFDB5003E0020E59
:10195000DB06FBD784A209D0030EDBCFE7FF010E25
:10196000DB50E712030EE7CFDBFF010EDBCFF3FF07
:10197000F39EF346F3CFDBFFDF2ADBD7030EDBCF8B
:101980004CF101014C1D4C6F040EE15C02E2E16A76
:10199000E552E16EE552E7CFD9FF1200D9CFE6FF5D
:1019A000E1CFD9FF8998899A8D908990FE0EDBB09E
:1019B0008988DBB2898ADBB48D80DBB68980E55209
:1019C000E7CFD9FF1200D9CFE6FFE1CFD9FF020E52
:1019D000E126F35001014C11DE6EDD6ADECF0FF01F
:1019E000DDCF10F00FC0F3FF10C0F4FF020EE15C7A
:1019F00002E2E16AE552E16EE552E7CFD9FF12005B
:101A0000D9CFE6FFE1CFD9FF020EE12649C1DFFFC2
:101A1000010E4AC1DBFF49C1E6FF4AC1E6FF14DF00
:101A2000E552E552020EE15C02E2E16AE552E16E46
:101A3000E552E7CFD9FF1200D9CFE6FFE1CFD9FFBA
:101A4000FE0EDBCF10F010C00FF010500101496FF7
:101A5000FF0EE76EFD0EDBCF0FF0E7500F16106A9A
:101A60000FC04AF1E552E7CFD9FF1200D9CFE6FF08
:101A7000E1CFD9FFFD0EDB500F0B0F6EFE0EDB50DA
:101A80000F0B100DF3500F10E66E04EC13F0E5523F
:101A9000FC0EDB507F0BE66E04EC13F0E552E552D2
:101AA000E7CFD9FF1200D9CFE6FFE1CFD9FFFD0E76
:101AB000DB500F0B0F6EFE0EDB500F0B100DF350B3
:101AC0000F10E66E04EC13F0E552FC0EDB507F0BBA
:101AD000E66E04EC13F0E552FB0EDB507F0BE66E76
:101AE00004EC13F0E552E552E7CFD9FF1200D9CF4D
:101AF000E6FFE1CFD9FF030EE126DF6AFD0EDBCF63
:101B000006F0FE0EDBCF07F0010E06C0DBFF020E73
:101B100007C0DBFFDFCF0FF0FB0EDBCF10F0FC0EBA
:101B2000DBCF11F010500F5C000E115423E2010EB8
:101B3000DBCFF6FF020EDBCFF7FF000EF626490ED5
:101B4000F7220800F550E66EDF50E76EF90EDBCFA6
:101B5000E9FFFA0EDBCFEAFFE750E926000EEA22A2
:101B6000E552E750EF6EDF2A010EDB2A020ED2E3C8
:101B7000DB2AD0D7030EE15C02E2E16AE552E16EB6
:101B8000E552E7CFD9FF1200D9CFE6FFE1CFD9FF69
:101B9000050EE126FD0EDBCF0FF0FE0EDBCF10F0C1
:101BA000400E0F26000E1022C00E0F16FF0E10164C
:101BB000010E0FC0DBFF020E10C0DBFFDF6A400E1C
:101BC000DF5C1DE2010EDBCFF6FF020EDBCFF7FF7D
:101BD000000EF626490EF7220800F550E66EDF509B
:101BE000EA6A020FE96E010EEA22E552E750EF6E53
:101BF000DF2A010EDB2A020EE2E3DB2AE0D7FD0E2C
:101C0000DBCF0FF0FE0EDBCF10F0400E0F26000EE4
:101C10001022C00E0F16FF0E1016010E0FC0DBFFB4
:101C2000020E10C0DBFFFD0EDBCF11F0FE0EDBCF8E
:101C300012F0010EDB50115C0F6E020EDB501258D9
:101C4000106E030E0FC0DBFF040E10C0DBFFDF6A57
:101C5000DFCF0FF0FB0EDBCF10F0FC0EDBCF11F06F
:101C600010500F5C000E115422E2DF50E76EF90EA7
:101C7000DBCFE9FFFA0EDBCFEAFFE750E926000EE3
:101C8000EA22EF50E66E030EDBCFE9FF040EDBCF56
:101C9000EAFF020EE926010EEA22E552E750EF6E56
:101CA000DF2A030EDB2A040ED3E3DB2AD1D7FD0E95
:101CB000DBCF00F1FE0EDBCF01F1400E010100276A
:101CC000000E0123C00E0017FF0E0117000E0027A3
:101CD000490E0123A3EC12F00C860C88050EE15C82
:101CE00002E2E16AE552E16EE552E7CFD9FF120068
:101CF0000B88A3EC0FF00B9812000B88A3EC0FF0ED
:101D00000101020ECF6F0101500ED06F040ED16F92
:101D10000101CB930B981200D9CFE6FFE1CFD9FF99
:101D2000040EE126DE52010EDD6EE3C1E6FFB4ECE7
:101D300010F0E5520101E351300A6DE0010A37E08D
:101D4000030A01E078D0010EE66EB4EC10F0E55223
:101D500046C1E6FFB4EC10F0E55247C1E6FFB4EC33
:101D600010F0E552000E010146250F6E490E472185
:101D7000106E020E0FC0DBFF030E10C0DBFFDF6A28
:101D8000200EDF5C66E2DF50E76E020EDBCFF6FF6F
:101D9000030EDBCFF7FFE750F626000EF722080010
:101DA000F550E66EB4EC10F0E552DF2AE9D7010EEB
:101DB000E66EB4EC10F0E55246C1E6FFB4EC10F06C
:101DC000E55247C1E6FFB4EC10F0E552000E010108
:101DD00046250F6E490E4721106E020E0FC0DBFF25
:101DE000030E10C0DBFFDF6A200EDF5C32E2DF5043
:101DF000E76E020EDBCFF6FF030EDBCFF7FFE750F7
:101E0000F626000EF7220800F550E66EB4EC10F04E
:101E1000E552DF2AE9D7010EE66EB4EC10F0E55288
:101E200046C1E6FFB4EC10F0E55247C1E6FFB4EC62
:101E300010F0E5520ED0E66AB4EC10F0E552DF6A1D
:101E40003E0EDF5C06E2E668B4EC10F0E552DF2AF5
:101E5000F7D7400E01015D5D07E2E66AB4EC10F0D1
:101E6000E55201015D2BF5D7010EDB500F6E040E1C
:101E7000E15C02E2E16AE552E16E0F50E552E7CF24
:101E8000D9FF1200D9CFE6FFE1CFD9FF040EE1263A
:101E9000DE52010EDD6E5FC1E3F101015F51320AD6
:101EA00040E0030A13E0010A40E161C146F162C16A
:101EB00047F1000E010146250101006F490E0101A5
:101EC00047210101016FA3EC12F02FD061C146F14F
:101ED00062C147F1000E010146250101006F490E64
:101EE000010147210101016FDF6A200EDF5C14E26E
:101EF000050EDF24EA6A5E0FE96E010EEA22EF505A
:101F0000E66EDF50EA6A020FE96E010EEA22E55240
:101F1000E750EF6EDF2AE9D7E66A72EC12F0E5527D
:101F200004D061C146F162C147F1010EDB500F6E72
:101F3000040EE15C02E2E16AE552E16E0F50E55207
:061F4000E7CFD9FF1200FB
:0A1F4600D9CFE6FFE1CFD9FF110E5D
:101F5000E12601019E690101010E5D6F5F0EDE6EDB
:101F6000010EDD6E0401110501E087D01251B40AA3
:101F70006EE0760A5AE0590A4FE0020A43E0010A8D
:101F800030E00F0A24E0010A1AE0BA0A0DE0830AE1
:101F900074E10101050E9E6FE66AE6D8E552E66A35
:101FA000E3D8E552E66A3DD08CEC0EF0000904E07F
:101FB0000101050E9E6F61D001019E695ED0010195
:101FC000050E9E6FA0A859D0010E9E6F53D001013F
:101FD000050E9E6F42C1E6FFC7D8E55243C1E6FF3A
:101FE0004AD00101050E9E6F040E44C1DBFF050EB1
:101FF00045C1DBFF040EDBCFE9FF050EDBCFEAFFB7
:10200000EF5023D00101050E9E6F44C1E6FFACD80E
:10201000E55245C1E6FF2FD00101050E9E6F030E6C
:10202000E66EA2D8E552E66A26D00101050E9E6F43
:102030000A0EE66E99D8E552140EE66E95D8E55272
:10204000230EE66E91D8E552690EE66E14D00101BA
:10205000050E9E6FA0B803D0F29EF29C0ED0010E2A
:102060009E6FE66881D8E552E6687ED8E552E6685C
:102070007BD8E552E66878D8E552090E0401115D77
:102080005AE11251B40A54E02E0A52E0030A3CE02D
:10209000010A2CE00F0A16E0010A0DE0BA0A4BE132
:1020A00042EC0FF0000903E00101020E02D0010131
:1020B000010E9E6F40D00101020E9E6FA0A83BD082
:1020C000010E38D00101020E9E6FDECFE9FFDDCF99
:1020D000EAFFEFCF42F1DECFE9FFDDCFEAFF010EED
:1020E000E926000EEA22EFCF43F125D00101020ECE
:1020F0009E6FDECFE9FFDDCFEAFFEF5044C1E9FF7D
:1021000045C1EAFFEF6E17D00101020E9E6FDECFD0
:10211000E9FFDDCFEAFFEFCF44F1DECFE9FFDDCF0E
:10212000EAFF010EE926000EEA22EFCF45F103D0C7
:102130000101020E9E6FFF0E01019E5D0BE0090E74
:102140000401115D07E012C450F401015D51010169
:10215000D46FD56B110EE15C02E2E16AE552E16EEB
:10216000E552E7CFD9FF1200D9CFE6FFE1CFD9FF83
:10217000400E01015D5D0AE25D51EA6A500FE96EB1
:10218000040EEA22FE0EDBCFEFFF5D2BE552E7CF18
:04219000D9FF120061
:0C219400040110511F0B010801E01200B3
:1021A000145101E01200060E115D28E11351230ABB
:1021B00023E0010A0FE0030A1FE10101020ECF6FC5
:1021C0000101CC0505E10101D40ED06F230ED16FC2
:1021D000090E0FD00101020ECF6F0101CC0505E100
:1021E00001014E0ED06F240ED16F0101CC0504E128
:1021F0007C0E0101D46FD56B0101CB83040110511A
:10220000600BE842E842E842E842E842010801E0A7
:10221000120011510B0A37E0080A27E0090A1FE0F3
:10222000080A15E00B0A05E0080A01E012007DEF3C
:102230000EF001015E0ED26F010ED36F0101CB9340
:102240000101D46BD56B0101020ECF6F12000101A9
:10225000020ECF6F0101D80ED06F010E0DD001011B
:10226000020ECF6F13C4D8F112000101020ECF6F1E
:102270000101D90ED06F010ED16F0101CB93010185
:10228000010ED46F12000101020ECF6F12C4D9F1FA
:1022900012000101DA6B1E0E716E0401080E096F47
:1022A000900E0A6F040E0B6F880E086F0401980ED3
:1022B0000E6F040E0F6F400E0C6F1200D9CFE6FFA9
:1022C000E1CFD9FFE652FC0EDB50080805E2080E0C
:1022D000F36EFC0EF3CFDBFFDF6AFC0EDB50DF5C3E
:1022E00019E2DF50E76EFD0EDBCFE9FFFE0EDBCF1C
:1022F000EAFFE750E926000EEA22EF50E66EDF50D3
:10230000EA6A980FE96E040EEA22E552E750EF6E92
:10231000DF2AE3D7FC0EDBCF0DF4400E04010C17CF
:102320000C7D880E0C13E552E552E7CFD9FF120061
:10233000D9CFE6FFE1CFD9FF0101DA6B040108BF75
:1023400031D0FC0EDBCF0FF00951D8800F5403E2DF
:10235000FC0E09C4DBFF0101DA6BFC0EDB50DA5D19
:1023600019E2DA51EA6A900FE96E040EEA22EF50A0
:10237000E66EDA51E76EFD0EDBCFE9FFFE0EDBCF36
:10238000EAFFE750E926000EEA22E552E750EF6E39
:10239000DA2BE3D70401080E096F400E0817087DF9
:1023A000880E08130101DA51E552E7CFD9FF120078
:1023B0001201100100000040AE093044100001027B
:1023C000030109022200010100A0320904000001FA
:1023D00003000000092110010001227C0007058193
:1023E000030800280403090418034A006F0065006D
:1023F00000000000000000000000000000000000DD
:102400002C034D00490044004900200044006500B1
:1024100076006900630065002000000000000000F5
:102420000000000000000000000000002203360051
:102430003900310032003000360030004200200008
:10244000000000000000000000000000000006FF87
:10245000FF0901A1017508950126FF001500859669
:1024600009C0B102752085B409D2B10275108597F3
:1024700009C1B1027508859809C2B1027510859924
:1024800009C3B102859C09D4B1027510859D09D597
:10249000B102859B09C5B102752085AF09E9B1027A
:1024A00085AF09E981A276000285B009EAB102751B
:1024B0002085C209D6B102859A09C4B10275089572
:1024C0003F852C09040904B102C0C223C223E423BE
:0824D000E82300242C249421D0
:0824D800550EA76EAA0EA76EB7
:1024E000A6821200D9CFE6FFE1CFD9FFE652E00E77
:1024F00001010017840EA66EFE0EDB50DF6EFE0E8D
:10250000DB50200FDF5C1AE2DF50EA6A020FE96E4F
:10251000010EEA22EFCF0FF0DF500101F76A00252C
:10252000F66E0151F722F86A0FC0F5FF0C001F0E7E
:10253000DF141F0801E1D0DFDF2AE1D7E552E552C1
:10254000E7CFD9FF1200940EA66E00C1F6FF01C1BD
:10255000F7FFF86AC1DFF86A1200D9CFE6FFE1CFD2
:10256000D9FFA66AFE0EDB50A96EA680A850E552E0
:10257000E7CFD9FF1200D9CFE6FFE1CFD9FFA6A25E
:1025800002D0000E0AD0FE0EDB50A96EFD0EDB500D
:10259000A86E040EA66EA0DF010EE552E7CFD9FFAC
:0225A000120027
:0E25A200D9CFE6FFE1CFD9FF050EE1269EBAA4
:1025B00013D001015B5101015C5D02E13BD81AD0EF
:1025C0009EA818D05C51EA6A530FE96E010EEA2208
:1025D000EF50AD6E5C2B0ED0AB50020B03E1AB5055
:1025E000040B08E0AB98010EAECFDBFFAECFDBFFF4
:1025F000AB880B92050EE15C02E2E16AE552E16E06
:10260000E552E7CFD9FF1200D9CFE6FFE1CFD9FFDE
:10261000080E01015B5D0AE25B51EA6A530FE96E45
:10262000010EEA22FE0EDBCFEFFF5B2BE552E7CF78
:0E263000D9FF120001015B6B01015C6B12000F
:02263E00A0EC0E
:1026400013F0896A8A6A8B6A8C6A8D6A010E926EAF
:10265000100E936EF80E946E956A020E966E01013E
:10266000050E486FA60EAC6E900EAB6E3F0EAF6EB1
:10267000B06A400EC26E0E0EC16E060EC06EF26AD9
:10268000800EF16ED08ED76AD66AD56ACC6AF90E02
:10269000CB6E0D0ECA6E020E9D6EF28E140E6F6E14
:0E26A0000101CA6B0101CB6B0101CC6B120072
:0226AE00D9CF82
:1026B000E6FFE1CFD9FFFE0EDB50A96EA69EA69CD9
:1026C000A680A850E552E7CFD9FF1200D9CFE6FF88
:1026D000E1CFD9FFFE0EDB50A96EFD0EDB50A86ED8
:1026E000A69EA69CA684F29E550EA76EAA0EA76E65
:1026F000A6820400A6B2FDD7F28EA694E552E7CFDB
:04270000D9FF1200EB
:0C27040001014E2B0A0E4E5D18E14E6BD9
:102710000C820C8E0C8A0D820101502B040E505D30
:1027200002E1506B0D800101512B020E515D01E160
:10273000516B01014F2B640E4F5D01E14F6B120095
:10274000EA6AE96A0400EE6AEAA6FCD71200000E03
:10275000F36E00EE00F0080E01D81200EA6002D01D
:0E276000EE6AFCD7F350E9601200EE6AFCD777
:02276E0017EE64
:1027700000F027EE00F0F86A0A9CEA6AE96A0400B1
:10278000EE6AEAA6BFEF13F016EC05F0FDD71200D3
:10279000DACFE4FFE6529EA208D09E9201014D2BB3
:1027A000040E4D5D02E14D6B0C80E552E5CFDAFF82
:0227B000110016
:0827B2005455565758595A5B63
:1049000000000000000000000000000000000000A7
:104910000000000000000000000000000000000097
:104920000000000000000000000000000000000087
:104930000000000000000000000000000000000077
:00000001FF
