:020000040000FA
:0600000011EF00F01200F8
:0600080004EF08F01200F5
:080018000CEF08F060EF00F0AE
:020020001200CC
:0E002200938081A002D003D002D060EF00F0E6
:10003000060EF66E100EF76E0900F5CF14F00800EC
:10004000F5CF15F00D0E141802E1600E151802E13F
:0A00500000EF08F060EF00F012006E
:0610000035EF0FF01200B5
:021006000D607B
:0610080046EF0FF012009C
:021016000001D7
:081018000100E01E0000EB00E6
:0610200000000A000000C0
:0A102600FEDAE65230DB72EC0CF04B
:10103000166E060EE15E1650DF6A060EDF5C0AE2EF
:10104000DF5049DBEF50800B03E0DFCF0AF102D025
:10105000DF2AF3D7E552EBD2E5DAE652DF6A060E75
:10106000DF5C15E2DF5001010A5D02E1800E01D074
:10107000000E146EDF502FDBEF507F0B1410E66E66
:10108000DF5029DBE552E750EF6EDF2AE8D7FEDAC2
:1010900091EC0CF0166E060EE15E1650E552C7D2CA
:1010A000C1DA040EE12601010729DF6EDE52130EBC
:1010B000DD6E05C117F0166A045100011610146E9A
:1010C00005C115F0020E14C0DBFF030E05C1DBFFE6
:1010D000020EDBCFE6FF030EDBCFE6FF51EC0CF098
:1010E000E552E5520DDB0350300FE66E010EDBCF0B
:1010F000F3FFDB06F350EA6A2B0FE96E010EEA22DA
:10110000E552E750EF6EFCDA07C0DFFFDF50000862
:10111000E9E3010EDB50110804E2E3DA010EDB061D
:10112000F8D7DFDA2B0EE66E010EA4DA040EE15CCE
:1011300002E2E16AE552E16E7AD274DAFD0EDBCFAB
:10114000E6FFFE0EDBCFE6FFE66A0B0EE66E6EEC08
:101150000CF0E552E552E552E55269D2010105ADC8
:1011600006D0059DE66A510EE66E65DA99DF12003B
:1011700059DA020EE126DF6A010EF36EFE0EDB5035
:1011800004E0D890F336E806FCE1F350E76E010E78
:10119000E7CFDBFF01013FDA010EDB50EF1A010E52
:1011A000DBCFE6FF38DAEF50E552E71402E07F0EBE
:1011B000DF6EDFCFE6FFFE0EDB50EA6AEB0FE96E73
:1011C000000EEA22EF50E66E36DAC00E0101BADAFE
:1011D000020EE15C02E2E16AE552E16E28D222DA17
:1011E000E652010118DAEFCFDFFFC00E0515146ECD
:1011F0003F0EDF141410056F22DA400B05E07F0E5E
:10120000E66EF1C0E6FF17DA1ADA100B05E07F0E82
:10121000E66EEFC0E6FF0FDA12DA200B05E07F0E74
:10122000E66EF0C0E6FF07DA0ADA040B05E07F0E8F
:10123000E66EEDC0E6FFFFD902DA020B05E07F0E95
:10124000E66EECC0E6FFF7D9FAD9080B05E07F0E91
:10125000E66EEEC0E6FFEFD9F2D9010B05E07F0E96
:10126000E66EEBC0E6FFE7D9EAD9800B05E07F0E1A
:10127000E66EF2C0E6FFDFD9E552D9D1D3D9FE0E32
:10128000DBCF0AF1DB5027DAEF507F0BE66E010E61
:10129000E66E14DA07C1E6FFE66A10DA07C109F163
:1012A00036DAF36EFE0EDB5004E0D890F336E80633
:1012B000FCE1F35014100101046FF2DEB8D108C153
:1012C000E6FFE66AFBD908C107F108C109F1ABDE08
:1012D000040E01010A25E66E010EE66EEFD917DA5B
:1012E0000AC1E7FFE75204E0E846FE0BE706FCE12F
:1012F00014100101046F50EF08F020DA010101150C
:10130000FAD904E1FE0EDB50031502E0000E01D015
:10131000010E8DD113DA01010015EDD904E1FE0EA5
:10132000DB50021502E0000E01D0010E80D106DA7A
:1013300001010315E0D904E1FE0EDB50011502E0C6
:10134000000E01D0010E73D1F9D901010215D3D9D4
:1013500004E1FE0EDB50001502E0000E01D0010E8C
:1013600066D10101056B046B3F6B406B0A6B076B29
:10137000086B096B1F6B100E206F216B226F236BA4
:10138000246FCB0EE66E1E0EE66E2B0EE66E010E81
:10139000E66EC5EC0EF0E552E552E552E552CA0E96
:1013A000E66E1E0EE66EE66AC3D9CA0EE66E1E0E25
:1013B000E66E010EE66EBCD9CA0EE66E1E0E5AD956
:1013C00032DE5FEF09F001010051400B04E03F51B4
:1013D000000801E23F2B4151000801E2412B44D9B2
:1013E0001BE20F0E4115146E070E145C0BE3C00ECA
:1013F0000515156E011D146E0ED9EF5014143F0B18
:10140000151008D0C00E0515146E05D9EF50011146
:101410003F0B1410056F44DE0101405113E04007FB
:1014200003E1C00EA2EF0BF00F0E4015146E070E75
:10143000145C04E3C00E05153F0902D0C00E05156B
:10144000056F2EDE1200EED8020EE12628EC0CF01D
:10145000F3CFDEFFF4CFDDFFDECF14F0DDCF15F0EC
:1014600014500101006FDECF14F0DDCF15F015C070
:1014700014F0156A1450016F010EE7D807E0E66A10
:1014800077DEE5520101010E416F09D0010E1ED930
:1014900006E0EAD804E2416BE66A6ADEE552020E33
:1014A000D4D803E0010EDBD808D0020E0FD905E036
:1014B000DBD803E2416B010E37D9040EC6D803E036
:1014C000020ECDD808D0040E01D905E0CDD803E234
:1014D000416B020E29D9080EB8D803E0030EBFD81D
:1014E00008D0080EF3D805E0BFD803E2416B030E25
:1014F0001BD9100EAAD803E0040EB1D808D0100EE4
:10150000E5D805E0B1D803E2416B040E0DD9200EF9
:101510009CD803E0050EA3D808D0200ED7D805E04C
:10152000A3D803E2416B050EFFD8010E93D804E067
:10153000E66AA4DEE55212DE020E8CD802E0010E4D
:10154000B8D8040E87D802E0020EB3D8080E82D8AD
:1015500002E0030EAED8100E7DD802E0040EA9D82A
:10156000200E78D802E0050EA4D8400E6ED80CE00C
:101570000101057D0551400B02E07F0E01D0000EF8
:10158000E66E510EE66E57D8400E64D80BE00101AE
:10159000061D7F0B066FE66E500EE66E4CD80101FD
:1015A000010E3F6F3C0E01013F5D08E30051400B0F
:1015B00005E052DD0101500E406F3F6B0051049D6C
:1015C000400B01E0048D800E40D805E00101085178
:1015D00001E0080774DE800E3DD806E07F0E0101B1
:1015E000085D01E0082B6BDE01010151059F800BB6
:1015F00001E0058F0051049F800B01E0048F50DD56
:1016000000C102F101C103F1020EE15C02E2E16AF4
:10161000E552E16E0CD00A51EA6A1F0FE96E010E25
:10162000EA221200D9CFE6FFE1CFD9FF1200E5523E
:10163000E7CFD9FF120081DDE552E5521200D9CF84
:10164000E9FFDACFEAFFEF501200E66E56DEE55210
:1016500000091200E66E5EDEE5520009120064D851
:101660000101010E416F12000001F4510101D88007
:1016700041551200E66E020EE66E5AD80B0EE66E6B
:10168000010EE66E030EE66E98EF0BF00B0EE66EA3
:10169000010EE66E200EE66EE66A01010751200D8E
:1016A000F3CF14F0F4CF15F0F3CFE6FFF4CFE6FF5D
:1016B0001200E66EE3DDE552AEEF08F00C0EE66ECA
:1016C0006CEC0CF0E552E552E5521200E66E2FDEAE
:1016D000E55200091200EA6A250FE96E010EEA22BE
:1016E0001200010EDB50EA6A2B0FE96E010EEA22AE
:1016F000200EEF6E1200146EFE0EDB50145C120012
:101700000A0E146E0C6EDFCF07F057EF0FF067DD97
:10171000C00E01010415146E010E1200EF503F0BB4
:101720001410056F50EF08F0E66E22DDE55212004E
:1017300065EC0CF0E552E552E552120073DFFE0E47
:0E174000DB5012000515146E66DF8EEF0BF005
:02174E00BBD905
:10175000FE0EDBCFE6FF53EC0EF0E55250D1B3D9CD
:10176000E652080EDF6E898489948992FD0EDBBEF5
:1017700002D0899601D0898666D98982DF06F5E193
:10178000080EDF6E8992FE0EDBBE02D0899601D074
:10179000898659D98982DF06F5E18984100EDF6ECA
:1017A000DF5002E0DF06FCD7899489868982E55202
:1017B00026D189D9040EE126030EDB6ADE52010E22
:1017C000DD6EDF6A080EDF5C0CE25DD9DB5003E002
:1017D000020EDB06FBD784B260D9010E34D9DF2AB2
:1017E000F1D7030EDBCFABF0DB6ADE52010EDD6E0C
:1017F000080EDF6E100EDF5C0CE245D9DB5003E013
:10180000020EDB06FBD784B248D9010E1CD9DF2AB1
:10181000F1D7030EDBCFAAF00001AA1DAA6F0001C9
:10182000AB1DAB6F040EE15C02E2E16AE552E16ED2
:10183000E6D049D98998899A8D908990FE0EDBB0BF
:101840008988DBB2898ADBB48D80DBB68980D7D00A
:1018500036D9F3500001AB11DE6EDD6ADECF14F035
:10186000DDCF15F014C0F3FF15C0F4FF020EE15CEC
:1018700002E2E16AE552E16EC2D021D9A8C0DFFFE1
:10188000010EA9C0DBFFA8C0E6FFA9C0E6FF67DF25
:10189000E552E552020EE15C02E2E16AE552E16ED8
:1018A000AED011D9FE0EDBCF15F015C014F01550D7
:1018B0000001A86FFF0EE76EFD0EDBCF14F0E750BE
:1018C0001416156A14C0A9F09AD0FDD8FE0EE66E63
:1018D00003EC0FF0E55293D080D891D07ED8FB0E68
:1018E000F7D88DD0F0D8030EE126DF6AFD0EDBCFEE
:1018F00006F0FE0EDBCF07F0010E06C0DBFF020E86
:1019000007C0DBFFA7D806E28FD8B1D8D0D8FAE35A
:10191000DB2AF8D7030EE15C02E2E16AE552E16EF0
:101920006ED0D1D8050EE1266ED8DF6A400EDF5C9E
:101930000AE27AD8EA6A620FE96E000EEA22B7D8A4
:10194000F5E3DB2AF3D75FD8FD0EDBCF16F0FE0EF2
:10195000DBCF17F0010EDB50165C146E020EDB506D
:101960001758156E030E14C0DBFF040E15C0DBFF05
:10197000DF6A70D818E2DF507AD8EF50E66E030EB7
:10198000DBCFE9FF040EDBCFEAFF620EE926000E93
:10199000EA22E552E750EF6EDF2A030EDB2A040E3F
:1019A000E8E3DB2AE6D7FD0EDBCF60F0FE0EDBCFEF
:1019B00061F0C00E00016017FF0E6117000E602776
:1019C000490E612313EC0EF011861188050EE15CBF
:1019D00002E2E16AE552E16E12D075D8FD0EDB50ED
:1019E0000F0B146EFE0EDB500F0B100DF350141086
:1019F000E66E53EC0EF0E552FC0E68EF0DF0E5528A
:101A0000E7CFD9FF1200FD0EDBCF14F0FE0EDBCFC7
:101A100015F0C00E1416FF0E1516010E14C0DBFFD4
:101A2000020E15C0DBFF1200010EDBCFF6FF020E27
:101A3000DBCFF7FF000EF626490EF7220800F5501F
:101A4000E66EDF501200DBCFF3FFF39EF346F3CFD9
:101A5000DBFF1200DFCF14F0FB0EDBCF15F0FC0E26
:101A6000DBCF16F01550145C000E16541200E76E12
:101A7000F90EDBCFE9FFFA0EDBCFEAFFE750E926EC
:101A8000000EEA221200DFCFE6FFD3DEE552050E9C
:101A9000F36E020EF3CFDBFF1200030EDBCFE7FF86
:101AA000010EDB50E712030EE7CFDBFF1200E55219
:101AB000E750EF6EDF2A010EDB2A020E120003D878
:101AC000020EE1261200D9CFE6FFE1CFD9FF1200C6
:0E1AD000DB507F0BE66E53EC0EF0E552120079
:021ADE00D9CF5E
:101AE000E6FFE1CFD9FF040EE126DF6A010EDB6AD3
:101AF000020EDB6A04006EEC0EF004000400F28EAD
:101B0000F28C11A004D01190E6EC0EF050D012A28D
:101B10004CD0030EABC0DBFF1292D9EC0BF0DE52BF
:101B2000010EDD6EDF6A080EDF5C30E2030EDBCFF4
:101B3000E6FF010EDB50F36E010EDB50F35C02E0BA
:101B4000000E01D0010EE552E71416E0020EDBCFC5
:101B5000E6FF010EDB5002E0000E01D0010EE5525F
:101B6000E7140AE0C00EE66E53EC0EF0E552DFCF4C
:101B7000E6FF53EC0EF0E552DF2A010EDBCFF3FF58
:101B8000F39EF346010EF3CFDBFFCDD7030EDB5000
:101B9000E76E020EE7CFDBFF030EDB1C0001A86F30
:101BA000030EDBCFA9F03DEC0CF03EEC0EF0A6D717
:101BB000040EE15C02E2E16AE552E16EE552E7CF34
:041BC000D9FF120037
:0C1BC400550EA76EAA0EA76EA682120096
:101BD0004CD8E652E00E00016017840EA66EFE0E91
:101BE000DB50DF6EFE0EDB50200FDF5C1AE2DF50B1
:101BF000EA6A620FE96E000EEA22EFCF14F0DF50BE
:101C00000001F76A6025F66E6151F722F86A14C088
:101C1000F5FF0C001F0EDF141F0801E1D3DFDF2AE0
:101C2000E1D7E55227D0940EA66E60C0F6FF61C0E2
:101C3000F7FFF86AC7DFF86A120017D8A66AFE0E27
:101C4000DB50A96EA680A85015D00FD8A6A202D04E
:101C5000000E0AD0FE0EDB50A96EFD0EDB50A86E02
:101C6000040EA66EAFDF010E05D0D9CFE6FFE1CF9F
:0C1C7000D9FF1200E552E7CFD9FF1200A7
:041C7C009EBA1200FA
:101C80000001D1510001D25D02E169EF0EF09EA882
:101C90001200D251EA6AB10FE96E000EEA22EF504B
:101CA000AD6ED22B1200D9CFE6FFE1CFD9FF200EC7
:101CB0000001D15D0AE2D151EA6AB10FE96E000E6E
:101CC000EA22FE0EDBCFEFFFD12BE552E7CFD9FFA3
:0C1CD00012000001D16B0001D26B120069
:041CDC001EEC0FF0FB
:101CE000896A8A6A8B6A8C6A8D6A926A100E936E10
:101CF000F80E946E956A020E966EA60EAC6E900E5D
:101D0000AB6E3F0EAF6EB06A400EC26E0E0EC16E6D
:101D1000060EC06EF26A800EF16ED08ED76AD66A59
:101D2000D56ACC6AF90ECB6E0D0ECA6E020E9D6E90
:041D3000F28E12001D
:0C1D3400D9CFE6FFE1CFD9FFFE0EDB5057
:101D4000A96EA69EA69CA680A850E552E7CFD9FF13
:101D50001200D9CFE6FFE1CFD9FFFE0EDB50A96E0E
:101D6000FD0EDB50A86EA69EA69CA684F29E550E84
:101D7000A76EAA0EA76EA6820400A6B2FDD7F28EA9
:0A1D8000A694E552E7CFD9FF120048
:061D8A00D9CFE6FFDACF1D
:101D9000E6FFFA0EE3CFD9FFFB0EE3CFDAFFFC0E2E
:101DA000E3CFE9FFFD0EE3CFEAFFE9CFF3FFEACF90
:101DB000F4FFDECFEFFFEE66FCD7FF0EE3CFDAFFD6
:0C1DC000E552FF0EE3CFD9FFE552120000
:041DCC000001AD2B3A
:101DD0000A0EAD5D17E1AD6B118E118A1282000102
:101DE000AF2B040EAF5D02E1AF6B12800001B02B90
:101DF000020EB05D01E1B06B0001AE2B640EAE5D72
:061E000001E1AE6B1200CF
:0A1E0600D9CFE6FFE1CFD9FF160E99
:101E10000001E95D0AE2E951EA6AD30FE96E000EBA
:101E2000EA22FE0EDBCFEFFFE92BE552E7CFD9FF29
:0C1E300012000001E96B0001EA6B1200D7
:041E3C00EA6AE96AFB
:101E40000400EE6AEAA6FCD71200000EF36E00EE64
:101E500000F0080E01D81200EA6002D0EE6AFCD74A
:0A1E6000F350E9601200EE6AFCD7AF
:061E6A0017EE00F027EE68
:101E700000F0F86A0F9CEA6AE96A0400EE6AEAA6D2
:0C1E80003DEF0FF06FEC0DF0FDD71200ED
:041E8C00DACFE4FFC6
:101E9000E6529EA208D09E920001AC2B040EAC5DCF
:0E1EA00002E1AC6B1180E552E5CFDAFF1100D4
:021EAE00036AC5
:101EB000080EE76ED890073603360C50035C02E339
:0A1EC000036E072AE72EF7D7120081
:061ECA000050726F677208
:101ED000616D3A202020202020202020202020007A
:0A1EE0005455565758595A5B3C1EE2
:1049000000000000000000000000000000000000A7
:104910000000000000000000000000000000000097
:104920000000000000000000000000000000000087
:104930000000000000000000000000000000000077
:020000040030CA
:0100000024DB
:010001000EF0
:0100020026D7
:010003001FDD
:010005008179
:010006008178
:010008000FE8
:01000900C036
:01000A000FE6
:01000B00E014
:01000C000FE4
:01000D0040B2
:00000001FF
