:020000040000FA
:0600000000EF05F0120004
:0600080015EF15F01200D7
:060A000004EF15F01200E6
:060A080015EF15F01200CD
:060A2A001200D9CFE6FF27
:100A3000E1CFD9FF060EE12604006CEC14F00400AF
:100A400081EC07F004000400F28EF28C39D80CA679
:100A500006D00C96E66ABFEC13F0E55226D00CA83F
:100A600007D00C98200EE66EBFEC13F0E5521DD0B7
:100A70000CA004D00C90CFEC14F017D00DA004D033
:100A80000D90B1EC0DF011D00CAA03D00C9A53ECE0
:100A90000EF00CAE03D00C9E1DEC08F00DA203D09E
:100AA0000D92C3EC07F01EEC14F0CDD7060EE15CFE
:100AB00002E2E16AE552E16EE552E7CFD9FF1200AA
:0E0AC00077EC0CF06FBE02D093EC0CF012003D
:020ACE00010025
:0C0AD0004C2A0000600000005A000000EA
:040ADC00C50EE66EEF
:100AE000000EE66E200EE66EE66A0001C251200D91
:100AF000F3CF0FF0F4CF10F0F3CFE6FFF4CFE6FF23
:100B0000D0EC0EF0116E060EE15E11500001C59D95
:100B1000C69DC78DC88DC98DCA8D1200C50EE66EE3
:100B2000000EE66E200EE66EE66A0001C251200D50
:100B3000F3CF0FF0F4CF10F0F3CFE6FFF4CFE6FFE2
:100B40001DEC0FF0116E060EE15E11501200D9CFB0
:100B5000E6FFE1CFD9FF020EE126BFC012F0116A15
:100B60000001BE51000111100F6EBFC010F0DE6E0B
:100B7000BFC0DDFFDECFE6FFDDCFE6FF6FEC0EF09E
:100B8000E552E552CD0EE66E000EE66E030EE66E01
:100B900089EC0EF0E552E552E552020EE15C02E20C
:100BA000E16AE552E16EE552E7CFD9FF1200D9CFF5
:100BB000E6FFE1CFD9FFFD0EDBCFE6FFFE0EDBCF78
:100BC000E6FFE66A0B0EE66EACEC0EF0E552E5527F
:100BD000E552E552E552E7CFD9FF12000001BFAD63
:100BE00008D0BF9DE66A510EE66EE1DFE552E552A0
:100BF000AEDF1200D9CFE6FFE1CFD9FF020EE1262A
:100C0000DF6A010EF36EFE0EDB5004E0D890F3367F
:100C1000E806FCE1F350E76E010EE7CFDBFF0001D1
:100C2000C151EA6AC50FE96E000EEA22010EDB50DF
:100C3000EF1A010EDBCFE6FFC151EA6AC50FE96E7C
:100C4000000EEA22EF50E552E71402E07F0EDF6E5D
:100C5000DFCFE6FFFE0EDB50EA6A600FE96E000EA2
:100C6000EA22EF50E66EA3DFE552E552C00E000126
:100C7000BF150F6EC151EA6AC50FE96E000EEA2278
:100C8000EF503F0B0F10BF6F62DF020EE15C02E21C
:100C9000E16AE552E16EE552E7CFD9FF1200D9CF04
:100CA000E6FFE1CFD9FFE6520001C151EA6AC50F64
:100CB000E96E000EEA22EFCFDFFFC00EBF150F6E08
:100CC0003F0EDF140F10BF6FD9CFE9FFDACFEAFF75
:100CD000EF50400B07E07F0EE66E66C0E6FF67DF71
:100CE000E552E552D9CFE9FFDACFEAFFEF50100B1A
:100CF00007E07F0EE66E64C0E6FF59DFE552E5527D
:100D0000D9CFE9FFDACFEAFFEF50200B07E07F0EE3
:100D1000E66E65C0E6FF4BDFE552E552D9CFE9FF4D
:100D2000DACFEAFFEF50040B07E07F0EE66E62C0F9
:100D3000E6FF3DDFE552E552D9CFE9FFDACFEAFF22
:100D4000EF50020B07E07F0EE66E61C0E6FF2FDF7B
:100D5000E552E552D9CFE9FFDACFEAFFEF50080BB1
:100D600007E07F0EE66E63C0E6FF21DFE552E55245
:100D7000D9CFE9FFDACFEAFFEF50010B07E07F0E92
:100D8000E66E60C0E6FF13DFE552E552D9CFE9FF1A
:100D9000DACFEAFFEF50800B07E07F0EE66E67C008
:100DA000E6FF05DFE552E552E552E552E7CFD9FF10
:100DB0001200D9CFE6FFE1CFD9FFFE0EDBCFC1F0A5
:100DC000DB50040FE66E010EE66E0C0EE66E8FEC45
:100DD0000EF0E552E552E552C2C0E6FFE66A0C0E9F
:100DE000E66E8FEC0EF0E552E552E552C2C0C4F05B
:100DF00056DFC00E0001BE150F6E010EF36EFE0E23
:100E0000DB5004E0D890F336E806FCE1F3500F1015
:100E10000001BE6F9CDEE552E7CFD9FF1200C3C0D0
:100E2000E6FFE66A0C0EE66E8FEC0EF0E552E55238
:100E3000E552C3C0C2F0C3C0C4F050DE30DFA7EF3C
:100E400005F0D9CFE6FFE1CFD9FFFE0EDB50000160
:100E5000BB150F6EFE0EDB500F5C04E1FE0EDB5087
:100E6000BD1502E0000E01D0010EE552E7CFD9FF1B
:100E70001200D9CFE6FFE1CFD9FFFE0EDB50000113
:100E8000BA150F6EFE0EDB500F5C04E1FE0EDB5058
:100E9000BC1502E0000E01D0010EE552E7CFD9FFEC
:100EA0001200D9CFE6FFE1CFD9FFFE0EDB500001E3
:100EB000BD150F6EFE0EDB500F5C04E1FE0EDB5025
:100EC000BB1502E0000E01D0010EE552E7CFD9FFBD
:100ED0001200D9CFE6FFE1CFD9FFFE0EDB500001B3
:100EE000BC150F6EFE0EDB500F5C04E1FE0EDB50F6
:100EF000BA1502E0000E01D0010EE552E7CFD9FF8E
:100F000012000001BF6BBE6BE56BE66BC16BC26B81
:100F1000C36BC46BC56B100EC66FC76BC86FC96B54
:100F2000CA6FCB6BCC6BDADDE66A43DFE552680E45
:100F3000E66E000EE66EE66A89EC0EF0E552E552CA
:100F4000E5527C0EE66E000EE66E010EE66E89EC52
:100F50000EF0E552E552E552900EE66E000EE66E9A
:100F6000020EE66E89EC0EF0E552E552E552CD0E2A
:100F7000E66E000EE66E030EE66E89EC0EF0E552AC
:100F8000E552E55212000001BA51400B04E0E55170
:100F9000000801E2E52BE751000801E2E72B000120
:100FA000B9510001D880E75525E20F0EE7150F6E05
:100FB000070E0F5C10E3C00EBF15106EBB1D0F6E49
:100FC000C151EA6AC50FE96E000EEA22EF500F1414
:100FD0003F0B10100DD0C00EBF150F6EC151EA6A45
:100FE000C50FE96E000EEA22EF50BB113F0B0F1048
:100FF000BF6FADDD0001E6511FE0E6070FE1C00E57
:10100000BF150F6EC151EA6AC50FE96E000EEA22E4
:10101000EF503F0B0F10BF6FA7EF05F00F0EE61557
:101020000F6E070E0F5C04E3C00EBF153F0902D020
:10103000C00EBF15BF6F8BDD1200D9CFE6FFE1CF29
:10104000D9FF020EE12636EC0EF0F3CFDEFFF4CF2F
:10105000DDFFDECF0FF0DDCF10F00F500001BA6FD3
:10106000DECF0FF0DDCF10F010C00FF0106A0F5080
:10107000BB6F010EE66EE5DEE552000907E0E66AA9
:10108000B9DDE5520001010EE76F10D0010EE66EEA
:1010900008DFE55200090AE00001B9510001D880DB
:1010A000E75504E2E76BE66AA5DDE552020EE66E5F
:1010B000C8DEE552000908E0010EE66E9BDDE55250
:1010C0000001010EE76F11D0020EE66EEADEE55276
:1010D00000090BE00001B9510001D880E75505E295
:1010E000E76B010EE66E86DDE552040EE66EA9DEC4
:1010F000E552000908E0020EE66E7CDDE5520001D3
:10110000010EE76F11D0040EE66ECBDEE55200094A
:101110000BE00001B9510001D880E75505E2E76B0B
:10112000020EE66E67DDE552080EE66E8ADEE552D7
:10113000000908E0030EE66E5DDDE5520001010ED8
:10114000E76F11D0080EE66EACDEE55200090BE049
:101150000001B9510001D880E75505E2E76B030EA5
:10116000E66E48DDE552100EE66E6BDEE5520009D4
:1011700008E0040EE66E3EDDE5520001010EE76F69
:1011800011D0100EE66E8DDEE55200090BE0000175
:10119000B9510001D880E75505E2E76B040EE66E11
:1011A00029DDE552200EE66E4CDEE552000908E02E
:1011B000050EE66E1FDDE5520001010EE76F11D04E
:1011C000200EE66E6EDEE55200090BE00001B9511B
:1011D0000001D880E75505E2E76B050EE66E0ADDF3
:1011E000E552010EE66E45DEE552000904E0E66ACE
:1011F000E0DDE552F3DC020EE66E3BDEE55200096F
:1012000005E0010EE66ED5DDE552E8DC040EE66E83
:1012100030DEE552000905E0020EE66ECADDE55259
:10122000DDDC080EE66E25DEE552000905E0030E62
:10123000E66EBFDDE552D2DC100EE66E1ADEE55238
:10124000000905E0040EE66EB4DDE552C7DC200EB1
:10125000E66E0FDEE552000905E0050EE66EA9DD3B
:10126000E552BCDC400EE66EECDDE55200090EE016
:101270000001BF7DBF51400B02E07F0E01D0000E88
:10128000E66E510EE66E93DCE552E552400EE66ED8
:10129000F0DDE55200090DE00001C01D7F0BC06FBD
:1012A000E66E500EE66E83DCE552E5520001010E5B
:1012B000E56F3C0E0001E55D08E3BA51400B05E027
:1012C0002DDC0001500EE66FE56BBA51BE9D400B60
:1012D00001E0BE8D800EE66EB4DDE552000905E04A
:1012E0000001C35101E0C3079ADD800EE66EC1DD47
:1012F000E552000906E07F0E0001C35D01E0C32B4B
:101300008EDD0001BB51BF9F800B01E0BF8FBA5142
:10131000BE9F800B01E0BE8F1ADCBAC0BCF0BBC020
:10132000BDF0020EE15C02E2E16AE552E16EE552D7
:06133000E7CFD9FF120017
:0A13360004011051600BE842E84288
:10134000E842E842E842000901E012001151070AB0
:1013500048E00B0A46E0070A37E0010A25E00B0ADD
:1013600021E0020A1FE0030A1BE0080A11E0010A5B
:101370000DE00F0A09E0030A01E012000001010E6E
:10138000ED6F040EE86F1200F2EF09F04FEF0AF074
:101390000001010EED6FEA0EEE6F000EEF6F10D040
:1013A00074EF0AF0BBEF0AF00001010EED6F0401CB
:1013B00014510001EE6FEF6BEB0EEE27000EEF23E2
:1013C000E993010EF26F12000001010EED6F0401AE
:1013D0001451EA6AEB0FE96E000EEA2212C4EFFF25
:1013E00012001200800E0401105D58E11351030A2F
:1013F0002FE0010A0BE0030A48E10001010EED6F46
:101400004A0EEE6F260EEF6F120E3DD00001010E58
:10141000ED6F04011251F66EF76AD890F636F73682
:10142000640EF626270EF7220900F5CFEEF00A002B
:10143000F5CFEFF0020E0001F76AEE25F66EEF51E0
:10144000F7220900F5CFF2F00A00F5CFF3F01DD036
:101450000001010EED6F04011251F66EF76AD8908B
:10146000F636F736680EF626270EF7220900F5CF76
:10147000EEF00A00F5CFEFF0EEC0F6FFEFC0F7FF99
:101480000800F5500001F26FF36B020E0401125DCB
:1014900005E0030E125D02E00001E9831200000185
:1014A000010EED6F0F0EE66E710EE66E0F0EE66E1C
:1014B000BCDAE552E552E552010EE66EEB0EE66E41
:1014C000000EE66EB2DAE552E552E55212C4EAF0D9
:1014D0000401125104E10001050EE86F1200000141
:1014E000060EE86F96EF12F00401506B516B10512D
:1014F0001F0B020A13E0030A0DE0010A31E10001AB
:10150000010EED6F040150810001E9A129D0040111
:10151000508326D00001010EED6F22D00001010E94
:10152000ED6F040114510F0B080DF350106A000FFA
:101530000F6E040E10221451800B01E0010E040DF9
:10154000F35000010F24F06F000E1020F16FF0C077
:10155000E9FFEA6EEF50040B03E00401010E506F47
:101560000001ED0507E1500EEE6F040EEF6FE993F9
:10157000020EF26F12000401120510E110511F0B50
:1015800000090CE10001010EED6F030E0401115D75
:1015900003E10001E98102D00001E9910401125147
:1015A0003AE110511F0B020836E114510F0B0009EC
:1015B00032E00001010EED6F040114510F0B080D14
:1015C000F350106A000F0F6E040E10221451800B9E
:1015D00001E0010E040DF35000010F24F06F000E26
:1015E0001020F16F030E0401115D07E1840EF0C0BD
:1015F000E9FFF1C0EAFFEF6E120014AF06D0F0C0B1
:10160000E9FFF1C0EAFFEF6A1200880EF0C0E9FFBF
:10161000F1C0EAFFEF6E12006C500BE104010051C3
:101620003C0BE842E8420D0802E11EEF0BF052EFDE
:101630000BF0040E6C5C01E144D81200D9CFE6FF38
:10164000E1CFD9FFE6520001EC6BED6BF26BF36B6F
:1016500072DEDF6ADF500F6E106A010E0F5C000E43
:1016600010581AE20001ED5117E1F76ADF34FE0B62
:10167000F736F66E700EF626270EF7220900F5CF24
:101680000FF00800F5CF10F004D010C0FAFF0F5093
:10169000F96EFBDFDF2ADED7DBD8E552E552E7CF74
:1016A000D9FF1200020E0001EC5D09E194D804019B
:1016B00000BD02D0C80E01D0880E006F12006AEF84
:1016C0000CF0040E0001E85D09E112C46EFF6E50DB
:1016D000000802E2050E01D0030EE86FEC0509E1F7
:1016E00010D8040104BD02D0C80E01D0880E046FCA
:1016F0001200090E0401115D02E1C5EC0FF06AEF62
:101700000CF0D9CFE6FFE1CFD9FF020EE1260001B0
:10171000400EF25D000EF35905E2F2C0DEFFF3C0A9
:10172000DDFF03D0400EDE6EDD6A040104930491F8
:10173000010EDB500413DFCF05F4000EDB50000177
:10174000F25F010EDB50F35B500EF06F040EF16F91
:10175000E9A31CD0D9CFE9FFDACFEAFFEE50ED10B4
:1017600030E0EEC0F6FFEFC0F7FF0800F550F0C024
:10177000E9FFF1C0EAFFEF6EF02B000EF123EE2B34
:10178000EF23DF06010EE6E2DB06E4D7D9CFE9FF5F
:10179000DACFEAFFEE50ED1014E0EEC0E9FFEFC043
:1017A000EAFFEF50F0C0E9FFF1C0EAFFEF6EF02B67
:1017B000000EF123EE2BEF23DF06010EE7E2DB063E
:1017C000E5D7020EE15C02E2E16AE552E16EE55224
:1017D000E7CFD9FF1200D9CFE6FFE1CFD9FF020E44
:1017E000E126030E04010015E76E010EE7CFDBFFD3
:1017F00001C4DFFFDE500001F227DD50F323500E5D
:10180000EE6F040EEF6FD9CFE9FFDACFEAFFEE50AB
:10181000ED1014E0EEC0E9FFEFC0EAFFEF50F0C0BA
:10182000E9FFF1C0EAFFEF6EF02B000EF123EE2B83
:10183000EF23DF06010EE7E2DB06E5D7020EE15CEF
:1018400002E2E16AE552E16EE552E7CFD9FF12000C
:101850000001ED510AE10401400E016F100E026F0C
:10186000040E036F840E006F22D0040110AF21D04C
:101870000001F2510401165D0001F35104011759F2
:1018800004E216C4F2F017C4F3F03BDF0001010ECE
:10189000EC6F0401400E016F100E026F040E036F17
:1018A000800E006F500E066F040E076FC80E046F97
:1018B0000FD00001020EEC6F0401056BC80E046F1F
:1018C000400E016F500E026F040E036FC80E006FC2
:1018D0006D9812000001EC6B0401400E016F100EB8
:1018E000026F040E036F880E006F046B12006DA66A
:1018F0000CD80001E80508E16DBA06D0686A696A8B
:1019000069806988020EE86F12006D6A696A6D86E7
:101910000001010EE86F12006D6A696A0001E86B50
:1019200012008CEF0CF00001E85101E11200685048
:10193000040B04E06950040B01E038D86DB21200CA
:101940006850010B04E06950010B01E04FD868506A
:10195000100B04E06950100B01E023D86850400BD5
:1019600004E06950400B01E037D86850200B04E0D8
:101970006950200B01E032D86850020B04E0695036
:10198000020B01E031D8030E0001E85D01E2120014
:101990006850080B05E06950080B02E03DDE6896D0
:1019A0001200698468986D82A19A12006D92699400
:1019B000689412000001E9A10ED0F8DF6D840001E7
:1019C000080EF46F070EF56FF407000EF55BF45187
:1019D000F511FAE16D941200689C120070A002D01B
:1019E00079DF7090689A1200689212006A6A686AD9
:1019F0009F0E6B6E7B0E696E6E6A0F0EE66E710E39
:101A0000E66E0F0EE66E11D8E552E552E552160E5F
:101A1000706E68A602D06896FCD76D985BDF0001F7
:101A2000E991EA6B030EE86F1200D9CFE6FFE1CF30
:101A3000D9FFFD0EDBCFE9FFFE0EDBCFEAFFFC0E88
:101A4000DB5004E0EE6AFC0EDB06F9D7E552E7CF87
:041A5000D9FF1200A8
:0C1A5400D9CFE6FFE1CFD9FFE652FE0E2D
:101A6000DB50C26E0A0EDF6EDF5002E0DF06FCD7ED
:101A7000C282C2B2FED7C450E552E552E7CFD9FFC9
:101A80001200D9CFE6FFE1CFD9FFFE0EDBCFE6FF94
:101A900051EC14F0E552E552E7CFD9FF1200D9CF4F
:101AA000E6FFE1CFD9FFE652080EDF6E8984899404
:101AB0008992FE0EDBBE02D0899601D08986DBCFEB
:101AC000F3FFF39EF346F3CFDBFF8982DF06F0E1FD
:101AD0008984100EDF6EDF5002E0DF06FCD78994A8
:101AE00089868982E552E552E7CFD9FF1200D9CF26
:101AF000E6FFE1CFD9FFE652080EDF6E89848994B4
:101B00008992FD0EDBBE02D0899601D08986DBCF9B
:101B1000F3FFF39EF346F3CFDBFF8982DF06F0E1AC
:101B2000080EDF6E8992FE0EDBBE02D0899601D0D0
:101B30008986DBCFF3FFF39EF346F3CFDBFF898289
:101B4000DF06F0E18984100EDF6EDF5002E0DF0671
:101B5000FCD7899489868982E552E552E7CFD9FF7F
:101B60001200D9CFE6FFE1CFD9FF040EE126DE5205
:101B7000010EDD6E030EDB6ADF6A080EDF5C22E217
:101B8000DFCFE6FF5ED8E552050EF36E020EF3CF0F
:101B9000DBFFDB5003E0020EDB06FBD784A209D09B
:101BA000030EDBCFE7FF010EDB50E712030EE7CF9A
:101BB000DBFF010EDBCFF3FFF39EF346F3CFDBFF3A
:101BC000DF2ADBD7030EDBCF4BF101014B1D4B6F3F
:101BD000030EDB6A080EDF6E100EDF5C22E2DFCF41
:101BE000E6FF2FD8E552050EF36E020EF3CFDBFFB2
:101BF000DB5003E0020EDB06FBD784A209D0030E04
:101C0000DBCFE7FF010EDB50E712030EE7CFDBFF70
:101C1000010EDBCFF3FFF39EF346F3CFDBFFDF2AAA
:101C2000DBD7030EDBCF4CF101014C1D4C6F040ED2
:101C3000E15C02E2E16AE552E16EE552E7CFD9FFED
:101C40001200D9CFE6FFE1CFD9FF8998899A8D900C
:101C50008990FE0EDBB08988DBB2898ADBB48D8087
:101C6000DBB68980E552E7CFD9FF1200D9CFE6FF76
:101C7000E1CFD9FF020EE126F35001014C11DE6ED7
:101C8000DD6ADECF0FF0DDCF10F00FC0F3FF10C024
:101C9000F4FF020EE15C02E2E16AE552E16EE55218
:101CA000E7CFD9FF1200D9CFE6FFE1CFD9FF020E6F
:101CB000E12649C1DFFF010E4AC1DBFF49C1E6FF52
:101CC0004AC1E6FF14DFE552E552020EE15C02E292
:101CD000E16AE552E16EE552E7CFD9FF1200D9CFB4
:101CE000E6FFE1CFD9FFFE0EDBCF10F010C00FF002
:101CF00010500101496FFF0EE76EFD0EDBCF0FF0B4
:101D0000E7500F16106A0FC04AF1E552E7CFD9FF2E
:101D10001200D9CFE6FFE552E7CFD9FF1200D9CFA5
:101D2000E6FFE1CFD9FFFD0EDB500F0B0F6EFE0E6D
:101D3000DB500F0B100DF3500F10E66E51EC14F04A
:101D4000E552FC0EDB507F0BE66E51EC14F0E552D1
:101D5000E552E7CFD9FF1200D9CFE6FFE1CFD9FF97
:101D6000FD0EDB500F0B0F6EFE0EDB500F0B100D38
:101D7000F3500F10E66E51EC14F0E552FC0EDB5000
:101D80007F0BE66E51EC14F0E552FB0EDB507F0B3F
:101D9000E66E51EC14F0E552E552E7CFD9FF1200A0
:101DA000D9CFE6FFE1CFD9FF030EE126DF6AFD0EB2
:101DB000DBCF06F0FE0EDBCF07F0010E06C0DBFF27
:101DC000020E07C0DBFFDFCF0FF0FB0EDBCF10F002
:101DD000FC0EDBCF11F010500F5C000E115423E20B
:101DE000010EDBCFF6FF020EDBCFF7FF000EF6266B
:101DF000490EF7220800F550E66EDF50E76EF90E47
:101E0000DBCFE9FFFA0EDBCFEAFFE750E926000E51
:101E1000EA22E552E750EF6EDF2A010EDB2A020EBE
:101E2000D2E3DB2AD0D7030EE15C02E2E16AE5529D
:101E3000E16EE552E7CFD9FF1200D9CFE6FFE1CF3F
:101E4000D9FF050EE126FD0EDBCF0FF0FE0EDBCF36
:101E500010F0C00E0F16FF0E1016010E0FC0DBFFA4
:101E6000020E10C0DBFFDF6A400EDF5C1DE2010ED8
:101E7000DBCFF6FF020EDBCFF7FF000EF626490E92
:101E8000F7220800F550E66EDF50EA6A020FE96EAD
:101E9000010EEA22E552E750EF6EDF2A010EDB2A3F
:101EA000020EE2E3DB2AE0D7FD0EDBCF0FF0FE0EE1
:101EB000DBCF10F0C00E0F16FF0E1016010E0FC074
:101EC000DBFF020E10C0DBFFFD0EDBCF11F0FE0EBC
:101ED000DBCF12F0010EDB50115C0F6E020EDB50F7
:101EE0001258106E030E0FC0DBFF040E10C0DBFF94
:101EF000DF6ADFCF0FF0FB0EDBCF10F0FC0EDBCF85
:101F000011F010500F5C000E115422E2DF50E76E0A
:101F1000F90EDBCFE9FFFA0EDBCFEAFFE750E92647
:101F2000000EEA22EF50E66E030EDBCFE9FF040E4F
:101F3000DBCFEAFF020EE926010EEA22E552E75066
:101F4000EF6EDF2A030EDB2A040ED3E3DB2AD1D7A0
:101F5000FD0EDBCF00F1FE0EDBCF01F1C00E010163
:101F60000017FF0E0117000E0027490E0123F0ECA9
:101F700013F00C860C88050EE15C02E2E16AE55282
:0A1F8000E16EE552E7CFD9FF120031
:061F8A000B88F0EC10F0E2
:101F90000B9812000B88F0EC10F00001020EED6FB0
:101FA0000001500EEE6F040EEF6F0001E9930B98E5
:101FB0001200D9CFE6FFE1CFD9FF040EE126DE52B1
:101FC000010EDD6EF9C0E6FF01EC12F0E5520001F2
:101FD000F951300A6DE0010A37E0030A01E078D0D8
:101FE000010EE66E01EC12F0E55246C1E6FF01EC8F
:101FF00012F0E55247C1E6FF01EC12F0E552000E87
:10200000010146250F6E490E4721106E020E0FC0CA
:10201000DBFF030E10C0DBFFDF6A200EDF5C66E231
:10202000DF50E76E020EDBCFF6FF030EDBCFF7FFCC
:10203000E750F626000EF7220800F550E66E01EC98
:1020400012F0E552DF2AE9D7010EE66E01EC12F03C
:10205000E55246C1E6FF01EC12F0E55247C1E6FF4A
:1020600001EC12F0E552000E010146250F6E490EFB
:102070004721106E020E0FC0DBFF030E10C0DBFF06
:10208000DF6A200EDF5C32E2DF50E76E020EDBCF4C
:10209000F6FF030EDBCFF7FFE750F626000EF72220
:1020A0000800F550E66E01EC12F0E552DF2AE9D7A0
:1020B000010EE66E01EC12F0E55246C1E6FF01ECBE
:1020C00012F0E55247C1E6FF01EC12F0E5520ED0E6
:1020D000E66A01EC12F0E552DF6A3E0EDF5C06E2D2
:1020E000E66801EC12F0E552DF2AF7D7400E010155
:1020F0005D5D07E2E66A01EC12F0E55201015D2B3D
:10210000F5D7010EDB500F6E040EE15C02E2E16ACE
:10211000E552E16E0F50E552E7CFD9FF1200D9CF5B
:10212000E6FFE1CFD9FF040EE126DE52010EDD6E9F
:102130005FC1F9F001015F51320A40E0030A13E088
:10214000010A40E161C146F162C147F1000E01019F
:1021500046250101006F490E010147210101016F70
:10216000F0EC13F02FD061C146F162C147F1000ECF
:10217000010146250101006F490E010147210101BE
:10218000016FDF6A200EDF5C14E2050EDF24EA6ACD
:102190005E0FE96E010EEA22EF50E66EDF50EA6A4A
:1021A000020FE96E010EEA22E552E750EF6EDF2AD8
:1021B000E9D7E66ABFEC13F0E55204D061C146F1FD
:1021C00062C147F1010EDB500F6E040EE15C02E2CA
:1021D000E16AE552E16E0F50E552E7CFD9FF1200F8
:1021E000D9CFE6FFE1CFD9FF110EE12601019E69AB
:1021F0000101010E5D6F5F0EDE6E010EDD6E0401EA
:10220000110501E087D01251B40A6EE0760A5AE057
:10221000590A4FE0020A43E0010A30E00F0A24E0C5
:10222000010A1AE0BA0A0DE0830A74E10101050E01
:102230009E6FE66AE6D8E552E66AE3D8E552E66ABA
:102240003DD0D9EC0FF0000904E00101050E9E6FAE
:1022500061D001019E695ED00101050E9E6FA0A8AC
:1022600059D0010E9E6F53D00101050E9E6F42C1E1
:10227000E6FFC7D8E55243C1E6FF4AD00101050E8B
:102280009E6F040E44C1DBFF050E45C1DBFF040E4B
:10229000DBCFE9FF050EDBCFEAFFEF5023D00101D2
:1022A000050E9E6F44C1E6FFACD8E55245C1E6FF7E
:1022B0002FD00101050E9E6F030EE66EA2D8E552E7
:1022C000E66A26D00101050E9E6F0A0EE66E99D8C9
:1022D000E552140EE66E95D8E552230EE66E91D8BF
:1022E000E552690EE66E14D00101050E9E6FA0B88E
:1022F00003D0F29EF29C0ED0010E9E6FE66881D84C
:10230000E552E6687ED8E552E6687BD8E552E66895
:1023100078D8E552090E0401115D5AE11251B40A50
:1023200054E02E0A52E0030A3CE0010A2CE00F0AB6
:1023300016E0010A0DE0BA0A4BE18FEC10F000093B
:1023400003E00101020E02D00101010E9E6F40D098
:102350000101020E9E6FA0A83BD0010E38D00101F2
:10236000020E9E6FDECFE9FFDDCFEAFFEFCF42F135
:10237000DECFE9FFDDCFEAFF010EE926000EEA22FB
:10238000EFCF43F125D00101020E9E6FDECFE9FFB2
:10239000DDCFEAFFEF5044C1E9FF45C1EAFFEF6E30
:1023A00017D00101020E9E6FDECFE9FFDDCFEAFFFD
:1023B000EFCF44F1DECFE9FFDDCFEAFF010EE926E2
:1023C000000EEA22EFCF45F103D00101020E9E6F0D
:1023D000FF0E01019E5D0BE0090E0401115D07E097
:1023E00012C450F401015D510001F26FF36B110E44
:1023F000E15C02E2E16AE552E16EE552E7CFD9FF26
:102400001200D9CFE6FFE1CFD9FF400E01015D5D9B
:102410000AE25D51EA6A500FE96E040EEA22FE0EEE
:0E242000DBCFEFFF5D2BE552E7CFD9FF1200B7
:02242E000401A7
:1024300010511F0B010801E01200145101E01200BD
:10244000060E115D28E11351230A23E0010A0FE073
:10245000030A1FE10001020EED6F0001EA0505E12C
:1024600000016E0EEE6F260EEF6F090E0FD0000109
:10247000020EED6F0001EA0505E10001E80EEE6FC6
:10248000260EEF6F0001EA0504E17C0E0001F26FF9
:10249000F36B0001E98304011051600BE842E8424C
:1024A000E842E842E842010801E0120011510B0A3B
:1024B00037E0080A27E0090A1FE0080A15E00B0ABE
:1024C00005E0080A01E01200CAEF0FF000015E0EFD
:1024D000F06F010EF16F0001E9930001F26BF36BF5
:1024E0000001020EED6F12000001020EED6F0001FF
:1024F000F60EEE6F000E0DD00001020EED6F13C44C
:10250000F6F012000001020EED6F0001F70EEE6F03
:10251000000EEF6F0001E9930001010EF26F12004F
:102520000001020EED6F12C4F7F012000001F86B0B
:102530001E0E716E0401080E096F900E0A6F040ED4
:102540000B6F880E086F0401980E0E6F040E0F6F4C
:10255000400E0C6F1200D9CFE6FFE1CFD9FFE65253
:10256000FC0EDB50080805E2080EF36EFC0EF3CFFC
:10257000DBFFDF6AFC0EDB50DF5C19E2DF50E76E49
:10258000FD0EDBCFE9FFFE0EDBCFEAFFE750E926C9
:10259000000EEA22EF50E66EDF50EA6A980FE96E0D
:1025A000040EEA22E552E750EF6EDF2AE3D7FC0E75
:1025B000DBCF0DF4400E04010C170C7D880E0C13BC
:1025C000E552E552E7CFD9FF1200D9CFE6FFE1CFC0
:1025D000D9FF0001F86B040108BF31D0FC0EDBCF3E
:1025E0000FF00951D8800F5403E2FC0E09C4DBFF41
:1025F0000001F86BFC0EDB50F85D19E2F851EA6A55
:10260000900FE96E040EEA22EF50E66EF851E76E85
:10261000FD0EDBCFE9FFFE0EDBCFEAFFE750E92638
:10262000000EEA22E552E750EF6EF82BE3D70401E3
:10263000080E096F400E0817087D880E0813000168
:0A264000F851E552E7CFD9FF120070
:06264A0012011001000066
:102650000040AE09304410000102030109022200CB
:10266000010100A03209040000010300000009215B
:1026700010010001227C00070581030800280403E3
:10268000090418034A006F00650000000000000004
:10269000000000000000000000002C034D00490075
:1026A0004400490020004400650076006900630092
:1026B0006500200000000000000000000000000095
:1026C0000000000000002203360039003100320013
:1026D0003000360030004200200000000000000002
:1026E000000000000000000006FFFF0901A10175C5
:1026F00008950126FF001500859609C0B1027520D6
:1027000085B409D2B1027510859709C1B102750867
:10271000859809C2B1027510859909C3B102859CDB
:1027200009D4B1027510859D09D5B102859B09C5F3
:10273000B102752085AF09E9B10285AF09E981A22F
:1027400076000285B009EAB102752085C209D6B1CA
:1027500002859A09C4B1027508953F852C090409C0
:1027600004B102C05C265C267E2682269A26C626F6
:022770002E2415
:0E277200550EA76EAA0EA76EA6821200D9CF32
:10278000E6FFE1CFD9FFE652E00E01010017840E0B
:10279000A66EFE0EDB50DF6EFE0EDB50200FDF5C00
:1027A0001AE2DF50EA6A020FE96E010EEA22EFCF69
:1027B0000FF0DF500101F76A0025F66E0151F72294
:1027C000F86A0FC0F5FF0C001F0EDF141F0801E1AF
:1027D000D0DFDF2AE1D7E552E552E7CFD9FF12007B
:1027E000940EA66E00C1F6FF01C1F7FFF86AC1DFC3
:1027F000F86A1200D9CFE6FFE1CFD9FFA66AFE0E34
:10280000DB50A96EA680A850E552E7CFD9FF120091
:10281000D9CFE6FFE1CFD9FFA6A202D0000E0AD0A1
:10282000FE0EDB50A96EFD0EDB50A86E040EA66EE8
:0C283000A0DF010EE552E7CFD9FF120037
:04283C00D9CFE6FF0B
:10284000E1CFD9FF050EE1269EBA13D001015B51FD
:1028500001015C5D02E13BD81AD09EA818D05C5102
:10286000EA6A530FE96E010EEA22EF50AD6E5C2B5F
:102870000ED0AB50020B03E1AB50040B08E0AB9859
:10288000010EAECFDBFFAECFDBFFAB880B92050EA8
:10289000E15C02E2E16AE552E16EE552E7CFD9FF81
:1028A0001200D9CFE6FFE1CFD9FF080E01015B5D31
:1028B0000AE25B51EA6A530FE96E010EEA22FE0E4C
:1028C000DBCFEFFF5B2BE552E7CFD9FF1200010111
:0828D0005B6B01015C6B12005F
:0828D800EDEC14F0896A8A6A34
:1028E0008B6A8C6A8D6A010E926E100E936EF80ED2
:1028F000946E956A020E966E0101050E486FA60E43
:10290000AC6E900EAB6E3F0EAF6EB06A400EC26EF4
:102910000E0EC16E060EC06EF26A800EF16ED08E83
:10292000D76AD66AD56ACC6AF90ECB6E0D0ECA6E1E
:10293000020E9D6EF28E140E6F6E0001E86B0001A8
:08294000E96B0001EA6B1200D3
:08294800D9CFE6FFE1CFD9FF72
:10295000FE0EDB50A96EA69EA69CA680A850E5524E
:10296000E7CFD9FF1200D9CFE6FFE1CFD9FFFE0EA6
:10297000DB50A96EFD0EDB50A86EA69EA69CA68419
:10298000F29E550EA76EAA0EA76EA6820400A6B2EE
:0E299000FDD7F28EA694E552E7CFD9FF1200D4
:02299E00010135
:1029A0004E2B0A0E4E5D18E14E6B0C820C8E0C8A7B
:1029B0000D820101502B040E505D02E1506B0D8021
:1029C0000101512B020E515D01E1516B01014F2BB1
:0A29D000640E4F5D01E14F6B120031
:0629DA00EA6AE96A04004C
:1029E000EE6AEAA6FCD71200000EF36E00EE00F0CD
:1029F000080E01D81200EA6002D0EE6AFCD7F3504C
:082A0000E9601200EE6AFCD748
:082A080017EE00F027EE00F0CC
:102A1000F86A0A9CEA6AE96A0400EE6AEAA60CEF20
:0A2A200015F016EC05F0FDD71200CA
:062A2A00DACFE4FFE652E2
:102A30009EA208D09E9201014D2B040E4D5D02E135
:0C2A40004D6B0C80E552E5CFDAFF110071
:042A4C005455565730
:102A500058595A5B303132333435363738393031A2
:102A6000323334353637383930313233343536371E
:102A70003839303132333435363738393031323312
:102A800034353637383930313233343536373839F2
:102A90002020202020202020202020202020202036
:062AA000202020203C1E56
:1049000000000000000000000000000000000000A7
:104910000000000000000000000000000000000097
:104920000000000000000000000000000000000087
:104930000000000000000000000000000000000077
:00000001FF
